:0600000088318A2900008E
:0800080083018A012000770842
:10001000A0007808A1007908A2007A08A3008B1D2F
:1000200013280B182328850191308400801E1A287C
:10003000911A25282008F7002108F8002208F90065
:100040002308FA00090080310F2A8031B3290B0000
:1000500060346134623463340B006434653480345A
:1000600081340B0050344F344C34003400340034AD
:100070005234303447343034003400345234303465
:10008000473431340034003452343034473432345D
:1000900000340034523430344734333400340034C4
:1000A0005234313447343034003400345234313433
:1000B000473431340034003452343134473432342C
:1000C0000034003452343134473433340034003493
:1000D0005234323447343034003400345234323401
:1000E00047343134003400345234323447343234FB
:1000F0000034003452343234473433340034003462
:1001000052343334473430340034003452343334CE
:1001100047343134003400345234333447343234C9
:100120000034003452343334473433340034003430
:1001300058344934303400340034003458344934AD
:10014000313400340034003458344934323400340B
:100150000034003458344F34303400340034003428
:1001600058344F34313400340034003458344F3470
:1001700032340034003400344334303450340034EA
:10018000003400344334313450340034003400340B
:100190004334323450340034003400344334333484
:1001A0005034003400340034523430345034543439
:1001B00054340034523431345034543454340034D0
:1001C000523432345034543454340034523433348E
:1001D00050345434543400340B00373420340F344A
:1001E000013438342034203401343934203420347C
:1001F00001343A342034203401343B342034203468
:1002000001343C342034203401343D342034203453
:1002100001343E342034203401343F34203420343F
:10022000013440342034203401344134203420342B
:100230000134423420342034013443342034203417
:100240000134443420342034013445342034203403
:1002500001344634203420340134473420342034EF
:10026000013448342034003401344934203400341B
:1002700001344A342034003401344B342034013406
:1002800001344C342034013401344D3420340134F1
:1002900001344E342034013401344F3420340534D9
:1002A00001345034203405340134513420340334C3
:1002B0000134523420340E340134533420340D349C
:1002C0000134543420340B34013455342034073491
:1002D00001340B00733465347434203470346F345B
:1002E0006C34203430340D3400340B0020343B3473
:1002F0000D3400340B0073346534743400340B0057
:10030000533441345634453400340B0052344534B0
:10031000533454344F345234453400340B00683471
:1003200065346C34703400340B002B3400340B0013
:100330002D3400348A064539F23772103A104937A5
:10034000F630EC3464106139E73AED326E3AA012BF
:1003500073050D005B183B184800111EAD292300E2
:100360009A0020000800911E092A911EB529230039
:1003700019082200B8003808083C031DE2292000B3
:10038000BD080319DD29BD030D303D078400203071
:1003900085000318850A80010830AD211B30AD218E
:1003A0005B30111ED12923009A004B302000111E12
:1003B000D72923009A00E02920000730AD2123002F
:1003C0000B2A220020003D080F3C031C072A2200B4
:1003D00038082000AD213D08BD0A0D3E84002030C4
:1003E00085000318850A22003808800038080D3C73
:1003F0000319022A38082B3C0319022A38082D3C1D
:10040000031D052A20003E1422000A2A200007307E
:10041000AD21220023002000911280311A285608B5
:100420002200B90020000D0857060F39D6005608E3
:100430002200390203191F2A2000BE142200F030C6
:100440002700960520000D1E592A3E150F080F396A
:100450002200B80020004A08203C031C562A031D35
:10046000352A4908283C031C562A490884004A08B2
:1004700085000031003000180130FA0184007A084C
:10048000850001308000490884004A088500003159
:1004900000080F39FA010F3984007A08850022001C
:1004A000380880002000C90A0319CA0A270016125A
:1004B00020000B1080311A285B1AB71D331A6D0506
:1004C0000D296132E93720296538E530F4327210A0
:1004D000C3376E3AF2376C366539A01620005B1AC6
:1004E000B71DB3186D2B45194C2953005B1AB71D66
:1004F000331A6D10A82129103218B1190A050D0000
:100500005B1AB01DB31B6D008A06442A4D23A02937
:10051000F430F43A73103A10A53A8A0600018A06BC
:100520005429C926D027D429201D20002010C121FC
:10053000CB1EA53A20284F2AA812F514A01EA012FF
:1005400075000A058D21CF26CD204E223E100000D9
:100550004937693AE930EC34FA34EE332029C126C0
:10056000203B6139E9306236E5392033F2376D10CE
:10057000C5225029CF268A0600014937693AE93059
:10058000EC34FA34EE332029C126203B6139E930BE
:100590006236E539A03B693A6810C432E6307536F8
:1005A0007410F630EC3AE5398A060000D330F634A0
:1005B000EE332029C126A0316F37E634E73AF23016
:1005C000F4346F37A0346E10C5225029CF262E0583
:1005D0000D004334E531EB39F536A036E939F33611
:1005E000613A63342E10D232733A6F39693767102B
:1005F000E432E63075367410F630EC3AE5392E0503
:100600000D004937693AE930EC34FA32203AF234D5
:100610006D386F3A8A0600015439E936F0377410A4
:100620006937693A20326F376517A020C325BD129C
:100630007510A53AA0127510A53A20050D008A067E
:10064000D332743A69376710A539A812F514203AE5
:100650006F10A53A8A0600008A0649376339E536E5
:100660006537F434EE33A0127314A53A29103D1007
:10067000A53A8A0600008A06C4326339E536653732
:10068000F434EE33A0127314A53A29103D10A53AA4
:100690008A06000010302100A700A60127082602C4
:1006A00003185C2B0D3026078400203085000318CA
:1006B000850A8001A60A4E2B2000BD013E10FF30A6
:1006C000CC00CE01CB0108000B082100BC008B132D
:1006D0002300951715140000000013087F39031933
:1006E000AE2B2100BD00230011082100BE00230015
:1006F00012082100BF003D082000111E7D2B2300A1
:100700009A0021003E082300910021003F082300A9
:1007100092009517151400000000130D140D7F3979
:100720000319AE2B2100BD00230011082100BE00DB
:10073000230012082100BF003D082000111E9E2B3F
:1007400023009A0021003E082300910021003F0869
:1007500023009200910A0319920A692B2100BC1B05
:100760008B17200008001B30AD215B30111EB62B0B
:1007700023009A0032302000111EBC2B23009A0067
:100780004A302000111EC22B23009A001B3020008B
:10079000AD21AA3023009100013092002000642393
:1007A000080021003B0884003C0885000008BE00CA
:1007B0003E087F3C031CBE0A03103E0D093A3D076C
:1007C000BE003B0884003C0885003E0880002000F5
:1007D000080001302100B600B701B900320BF92B37
:1007E000A830230091000230920020006423002CE6
:1007F0002100BD30230091000230920020006423CC
:100800002100B30133081E3C031C5F2C330DF7009D
:10081000F70DFC30F7057708BA003A0A2000EC2003
:10082000FA0021003A082000EC202100B4007A08E8
:10083000B500320B4B2C330DF700F70DFC30F705EC
:100840007708033E2000EC20F8007818292C2100BE
:100850004B2C21003508FA00340884007A08850002
:100860003708230091009513151413088000210008
:100870003508FA0034088400350885000008BA00FD
:100880002030BC006630BB003A08BD002000D123F8
:100890002100B70A5D2C330DF700F70DFC30F7058A
:1008A0007708023E2000EC20F8002100B800340850
:1008B00084003508850038088000B30A022C320B0A
:1008C0006B2C370823009100951315141308210091
:1008D0003602031DB9013908F80020000800013074
:1008E0002100B600B301B20132081E3C031CC32C28
:1008F000320DF700F70DFC30F7057708B800380A1D
:100900002000EC20FA00210038082000EC20210013
:10091000B4007A08B500320DF700F70DFC30F7058A
:100920007708033E2000EC20F800781CC02C210042
:1009300034088400350885000008B7000B08F7006C
:100940008B13330823009100210037082300930004
:100950009513151555309600AA30960095149518E4
:10096000AF2C151177088B0420302100BC006630B5
:10097000BB003708BD002000D1232100B30A2000AE
:100980002100B20A742C0B08F7008B1333082300E4
:10099000910021003608230093009513151555305A
:1009A0009600AA30960095149518D42C1511770846
:1009B0008B04D6309100023092002000642308009E
:1009C00021003108B2002000E923F808031DF42CAF
:1009D000E9302300910002309200200064232100BE
:1009E000B2012000E9236F240800003021008F00AD
:1009F0009D306700361034080F390139031D361455
:100A00003618062D22000F10082D210022000F1489
:100A10002100361034080F390239031D36143618F8
:100A2000152D22008F10172D210022008F14210078
:100A3000361034080F390439031D36143618242DA6
:100A400022000F11262D210022000F152100361043
:100A500034080F390839031D36143618332D220097
:100A60008F11352D210022008F152100B508031D9F
:100A70003D2D22000F133F2D210022000F17402D86
:100A80008F12422D8F16442D0F3021008F00200031
:100A900008000F3021008F00BC08031D532D2200D9
:100AA0000F13552D210022000F17562D0F12000095
:100AB00020000F080F392100BD0022000F16602D05
:100AC00021003D08F800200008001B30AD215C30FB
:100AD0002300910002309200200064231B30AD21DE
:100AE0006F302300910002309200200064231B30FD
:100AF000AD21763023009100023092002000642363
:100B00001B30AD2180302300910002309200200084
:100B1000642308004A23D501D401AB01AC01FF30A6
:100B20006600003021008F001010901010119015F9
:100B300091168B151F30270094049504C0308B0448
:100B400022008F138F160F160F132000B3230130CE
:100B50002100B1002000E02422000F168F160F1391
:100B60002100B4010130B5002000F5242100B401BA
:100B70000130B5002000F5240C302100B400013014
:100B8000B5002000F52401302100B400B50020009C
:100B9000F52401302100BC00200049252100A601D8
:100BA0002608093C031CDE2D1F3026078400203058
:100BB00085000318850A8001A60AD02D2030200068
:100BC000CA001F30C90065258831B9293E142100AB
:100BD000A601A701203085000D3084002608840777
:100BE0000030853D27082000692180000038031966
:100BF000FE2D2100A70AA60AEA2D20008831BC2973
:100C000021004C084D040319092E4D08FA004C0828
:100C10000E2E20002608FA0025082100D0007A08B0
:100C2000D1005108D5005008D4004F08D7004E0815
:100C3000D6005508D9005408D8005908FA005808B9
:100C400084007A08850080080319572E5708DB00B6
:100C50005608DA005B08FA005A0884007A08850012
:100C60008008031D3D2E54085802F7005508593BD3
:100C7000FA007708F8005F2E4F2E5908FA0058083E
:100C800084007A0885000008DC005B08FA005A0836
:100C900084007A08850000085C020319532EDA0AE2
:100CA0000319DB0A2A2ED80A0319D90A1D2E540863
:100CB0005802F7005508593BFA007708F800780801
:100CC000D0070030D13D5108FA00500884007A085E
:100CD00085008008031D782E200025088400260842
:100CE0008500203080000030F800F900DD2E210062
:100CF0005108D5005008D4004F08D7004E08D60040
:100D00005508D9005408D8005908FA00580884003A
:100D10007A08850080080319B92E5708DB005608A9
:100D2000DA005B08FA005A0884007A088500800817
:100D30000319B52E5908FA00580884007A0885006E
:100D40000008DC005B08FA005A0884007A08850075
:100D500000085C02031DB12E5808F8005908F9007C
:100D6000BC2EDA0A0319DB0A912ED80A0319D90A14
:100D7000842E0030F800F9007908D3007808D200FA
:100D80005308FA00520884007A0885008008031985
:100D9000D12E52088400530885008001D20A03191D
:100DA000D30A53082000A600210052082000A50005
:100DB00021005008F8005108F90020000800220026
:100DC0003108B4003008B6002F08B500B308031D81
:100DD000ED2E3208003C0318042F3608FA003508BF
:100DE00084007A08850034080002031DFC2E3508B3
:100DF000F8003608F900072FB50A0319B60A3208B9
:100E00000319B303B203E62E0030F800F900200006
:100E1000080021004D08FA004C0884007A0885007B
:100E20000008D0004F08FA004E0884007A088500B8
:100E3000000850020319722F4D08FA004C08840074
:100E40007A0885000008D0005008403C03182C2F79
:100E500050085A3C0318342F5008603C0318882F60
:100E600050087A3C031C882F4F08FA004E08840073
:100E70007A0885000008D0005008403C0318442F31
:100E800050085A3C03184C2F5008603C0318882F18
:100E900050087A3C031C882F4D08FA004C08840047
:100EA0007A0885000008D0004F08FA004E08840038
:100EB0007A0885002030000750020319722F4F086E
:100EC000FA004E0884007A0885000008D0004D081A
:100ED000FA004C0884007A08850020300007500290
:100EE000031D882F4D08FA004C0884007A088500FD
:100EF0008008031D7E2F0030F8009E2F4D08FA0059
:100F00004C08CC0A0319CD0ACE0A0319CF0A0A2FBE
:100F10004D08FA004C0884004D0885000008D000F8
:100F20004F08FA004E0884004F0885000008500260
:100F300003189C2FFF309D2F0130F800200008007F
:100F4000F701F80121003C0803103D18F707F70CE2
:100F5000F80CBD18F707F70CF80C3D19F707F70C5C
:100F6000F80CBD19F707F70CF80C3D1AF707F70C4A
:100F7000F80CBD1AF707F70CF80C3D1BF707F70C38
:100F8000F80CBD1BF707F70CF80C200008008008D0
:100F90000319DD2F05082100BE000408BD0000086C
:100FA0002000111ED12F23009A0021003E08850049
:100FB0003D08840001312000C72F080021004008AF
:100FC000F8013F020318E72F3F08F700F32FF7015E
:100FD0000830C100BF0DF70D400877020318F70075
:0A0FE000F80DC10BEA2F20000800F5
:101000000B082100BD008B13230095171514000059
:1010100000000318312813087F392100BE00230087
:1010200011082100BF00230012082100C0003E0863
:101030002000111E192823009A0021003F082300D8
:10104000910021004008230092009517151400001C
:1010500000002100BC0B2D282F2823003128532805
:101060002300130D140D7F392100BE002300110849
:101070002100BF00230012082100C0003E0820000C
:10108000111E402823009A0021003F0823009100F0
:101090002100400823009200910A0319920A0310CC
:1010A0002100BC0B0428BD1B8B172000080078080A
:1010B00021003D08BF006430C00080312000DE27E1
:1010C000883177082100BD0078083030031D6F2873
:1010D000BE1C7A28BE197A283E1A20307228BE110A
:1010E0003E123E14F80778082000111E75282300D0
:1010F0009A0021003D08BF000A30C0008031200066
:10110000DE27883177082100BD0078083030031DC4
:101110008F28BE1997283E1C97283E1A2030F807C2
:1011200078082000111E922823009A0021003030F8
:10113000BD073D082000111E9B2823009A002000B7
:101140000800210033080739F700330CF800F80CC9
:10115000F80C1F30F8057808350784000030363D5C
:101160008500F801F80AF70AB628F80DF70BB5283C
:10117000B4080319BE2878088004C128F809780843
:101180008005200008002100A6010130A700AA0167
:101190002000AC080319D62856082B05031DD628B5
:1011A000AC01AB0101302100AA0020002100A80100
:1011B000AB012B08033C031CFF282000560821002C
:1011C00027050319F9284E302B07840020308500AD
:1011D0000318850A0008A900290820002C0203181A
:1011E000FA2821002908A60001302B07A8000130A9
:1011F000AA00200003102100A70DAB0AD928AA08D5
:10120000031986292808AC00AC08031912290130FB
:101210002C02523E8400203085000318850A000805
:10122000AF001329AF010130AE00AD012D08033C22
:10123000031C7329AC08031D20293110B110332978
:1012400001302D072C02031D2B2931142E082000FC
:10125000AB002D292100311020002100B1102F08F2
:101260002E05031DB1142D08803120002720883160
:101270002100B200003031180130F7003208B3000D
:101280007708B4000130B600B5012000A12021008C
:101290003208B300B401B6018030B5002000A120AF
:1012A00021002D08803120002C2088312100B2003F
:1012B0000030B1180130F7003208B3007708B400ED
:1012C0000130B600B5012000A12021003208B30092
:1012D000B401B6018030B5002000A1200310210028
:1012E000AE0DAD0A1629AC08031D7A292000AC0109
:1012F0008529210001302C024E3E840020308500DB
:101300000318850A00082000AC0021002000BE1050
:101310008831C729850184011F308305723021007F
:1013200099008E150E162400171097109711133080
:10133000920028309500941714130C3023009B0062
:10134000A2309E0090309D002F00910192019801E3
:1013500099019A0123008C018D018F0190012200D7
:1013600092019101940193012000A501A601803111
:101370008A2D88318031E62D88313E1CC529903177
:101380000028883180314A238831BE18C328BD29FE
:021390006300F8
:102000002100CC01CD0120308500603084004C08D7
:1020100084070030853D4D088031200075219031C6
:1020200080000038031919282100CD0ACC0A0328A2
:10203000200020302100CD000D30CC002030CF001A
:102040006030CE00803120000026903179082100D8
:10205000CB007808CA00CA08031D3128CB08031931
:102060004B284B08CF004A08CE002030CD006C3002
:10207000CC004F0885004E0884000008D0004D08B1
:1020800085004C08840050088000800803194B2804
:10209000CC0ACE0A3928CD01CC012030CF006030E7
:1020A000CE00803120000026903179082100CB003D
:1020B0007808CA00CA08031D6028CB0803197A28CB
:1020C0004B08CF004A08CE002030CD002E30CC0087
:1020D0004F0885004E0884000008D0004D08850098
:1020E0004C08840050088000800803197A28CC0A24
:1020F000CE0A6828CD01CC012030CF006030CE0060
:10210000803120000026903179082100CB0078082A
:10211000CA00CA08031D8F28CB080319BF2A4B0821
:10212000CF004A08CE002030CD006830CC004F08E8
:1021300085004E0884000008D0004D0885004C083A
:1021400084005008800080080319A928CC0ACE0A10
:1021500097282030CD006830CC00CF01CE010A3066
:10216000D000D801D7013030DA003130DB00323016
:10217000DC003330DD003430DE003530DF00363057
:10218000E0003730E1003830E2003930E300613000
:10219000E4006230E5006330E6006430E70065305B
:1021A000E8006630E9006730EA006830EB0069302B
:1021B000EC006A30ED006B30EE006C30EF006D30FB
:1021C0002200A0006E30A1006F30A2007030A3008A
:1021D0007130A4007330A5007430A6007530A700DC
:1021E0007630A8007730A9007830AA007930AB00AB
:1021F0007A30AC00AD0121004D08D2004C08D1006E
:102200005208FA00510884007A0885000008203C32
:10221000031D0E29D10A0319D20A00295208FA0017
:10222000510884005208850000082D3C031922291A
:102230005208FA00510884005208850000082B3C1F
:10224000031D2D295208FA005108D10A0319D20A98
:1022500084007A08850000082E292B30D9005908FF
:102260002D3C03193E29D01B3E29500B38293E290D
:10227000D01B40295008243C031840299A2ACC2915
:10228000D008031995295008103C031D67295208EE
:10229000FA00510884007A0885000008303C031DCC
:1022A0006729510884005208850001310008783CF4
:1022B0000319632951088400520885000131000880
:1022C000583C031D67290230D1070030D23D500829
:1022D000083C031D79295208FA00510884007A0845
:1022E00085000008303C031D79290130D1070030FA
:1022F000D23D5008023C031D94295208FA005108AF
:1023000084007A0885000008303C031D9429510898
:1023100084005208850001310008623C031D9429A5
:102320000230D1070030D23DCC295208FA005108C2
:1023300084007A0885000008303C0319A2290A307D
:10234000D000CC29510884005208850001310008D2
:10235000783C0319B42951088400520885000131E2
:102360000008583C031DBB291030D0000230D107B3
:102370000030D23DCC29510884005208850001313B
:102380000008623C031DCA290230D000D10700308A
:10239000D23DCC290830D0005208D4005108D300D7
:1023A0005208FA00510884007A0885000008303C81
:1023B000031DDE29D10A0319D20AD0295208FA00D6
:1023C000510884005208850000082200AE00403CFD
:1023D0000318F1292E085A3C031CF1292E08203835
:1023E000F2292E08AE002030B0008A30AF002E084F
:1023F000B100B301210050082200B200803120005A
:10240000DF26903179082100D6007808D500D5085C
:10241000031D0D2AD6080319922AFA015008F70065
:10242000F71BFA032200AE007A08AF00210058081B
:102430002200B100210057082200B0002F08B3008D
:102440002E08B200310833068039B500B11F2D2A9D
:10245000B009B109B00A0319B10AB31F342AB2098D
:10246000B309B20A0319B30A1030B400F701FA0134
:10247000B10CB00C031C422A3208F7070318FA0A01
:102480003308FA07FA0CF70CF90CF80CB40B382ADD
:10249000B51F4F2AF809F909F80A0319F90A79084A
:1024A000AF007808AE008A3021005502F7002030D6
:1024B000563BFA00770822002E07F8002F08FA3D55
:1024C00078082100D7007A08D800D10A0319D20A67
:1024D0005208FA00510884005208850000082200C2
:1024E000AE00403C03187B2A2E085A3C031C7B2A72
:1024F0002E0820387C2A2E08AE002030B0008A300A
:10250000AF002E08B100B301210050082200B20034
:1025100080312000DF26903179082100D60078082C
:10252000D500072A51085302031DAA2A5208540253
:10253000031DAA2A4E084F040319A62A4E08840038
:102540004F0885004C0880004D08813F0030F8009E
:10255000F900BA2A4E084F040319B62A4E0884001F
:102560004F088500510880005208813F5708F80045
:102570005808F90078082000CD00C22A2100FF3059
:102580002000CD002100CC01CD0120308500743029
:1025900084004C0884070030853D4D0880312000C0
:1025A0007A219031800000380319DB2A2100CD0AFE
:1025B000CC0AC52A200020302100CD007430CC0088
:1025C0002030CF006C30CE008031200009279031C0
:1025D000F808031DF42A4D08FF3C031DF22A0330BE
:1025E000CB00F42A0230CB002100CC01CD012030F9
:1025F0008500743084004C0884070030853D4D0808
:10260000803120007F2190318000003803190D2B8C
:102610002100CD0ACC0AF72A200020302100CD006D
:102620007430CC002030CF006C30CE0080312000E0
:1026300009279031F808031D1F2B0430CB0021001F
:10264000CC01CD0120308500743084004C08840713
:102650000030853D4D08803120008521903180007B
:1026600000380319382B2100CD0ACC0A222B200078
:1026700020302100CD007430CC002030CF006C30F1
:10268000CE008031200009279031F808031D4A2B25
:102690000530CB002100CC01CD0120308500743005
:1026A00084004C0884070030853D4D0880312000AF
:1026B0008E219031800000380319632B2100CD0A50
:1026C000CC0A4D2B200020302100CD007430CC00EE
:1026D0002030CF006C30CE008031200009279031AF
:1026E000F808031D752B0830CB002100CC01CD016B
:1026F00020308500743084004C0884070030853D0C
:102700004D08803120009421903180000038031959
:102710008E2B2100CD0ACC0A782B200020302100FE
:10272000CD007430CC002030CF006C30CE00803132
:10273000200009279031F808031DA02B0630CB009C
:102740002100CC01CD0120308500743084004C087C
:1027500084070030853D4D0880312000972190315D
:10276000800000380319B92B2100CD0ACC0AA32B15
:10277000200020302100CD007430CC002030CF006C
:102780006C30CE008031200009279031F808031DFD
:10279000CB2B0730CB00FF30CC002100A601260850
:1027A0001E3C031C0E2C2608BC000630BD008031E8
:1027B0002000A027903178082100B000B101300836
:1027C000B200203085005830840031088407003082
:1027D000853D320880312000312090318000003862
:1027E0000319F72B2100B20AB10AE12B2000203097
:1027F0002100CD002E30CC002030CF005830CE004C
:102800008031200009279031F808031D0B2C21008E
:1028100026082000CC002100A60ACF2B20004B0860
:10282000023C031D382C4C08FF3C031D382C9A3009
:10283000230091000130920003101B302100BC00E6
:102840008831200000209031203085002E30840017
:102850008031C72790310A30111E2C2C23009A009A
:102860000D302000111E322C23009A00D02F2000A2
:1028700002304B02F93E0318CF2F073ED42F4D08EC
:10288000FF3C031D652C85014C0884008031C7275F
:1028900090312030111E4A2C23009A0020004D0850
:1028A0002100BD001B30BE00883120005720903130
:1028B0000A30111E592C23009A000D302000111EE1
:1028C0005F2C23009A00122D20004C0DF700F70D0D
:1028D000FC30F70577082100B200320A8031200071
:1028E000EC209031FA002100320880312000EC20E9
:1028F00090312100B0007A08B1003008840031081E
:10290000850020004D0880004C08D4000130D5001F
:102910001F30230091000330920003100A30210081
:10292000BC008831200000209031203085002E30FE
:1029300084008031C72790312830111E9D2C230040
:102940009A0020004C082100BD001B30BE008831D9
:102950002000572090312630230091000330920050
:10296000031405302100BC00883120000020903184
:102970004D082100BD001B30BE00883120005720CB
:1029800090310A30111EC22C23009A000D30200015
:10299000111EC82C23009A0020004D082100B2000F
:1029A0003208B400B50180312000F52490310530A3
:1029B0002100B4000130B50080312000F5249031B1
:1029C0002200901421009010B3013308043C031C32
:1029D000052D6430B4002030850064308400000888
:1029E0000319032D0230F800BF30F7006400F70B25
:1029F000F62CF80BF42C9630F700F70BFD2C002D7D
:102A00006400800BF22CB30AE52C0430B4000130D2
:102A1000B50080312000F524903122009010210073
:102A2000901023002000CF2F4C0DF700F70DFC3045
:102A3000F70577082100B000300A80312000EC2033
:102A40009031FA002100300880312000EC209031D4
:102A50002100AE007A08AF0020004C08D4000130FD
:102A6000D500CF2F80316F249031CF2F4D0B3C2DCF
:102A7000210027143E2D20002100271000302718A8
:102A80000130B000B10080312000E0249031CF2F20
:102A9000D5080319E42D540DF700F70DFC30F705A8
:102AA00077082100B900390A80312000EC209031EC
:102AB000FA002100390880312000EC2090312100FB
:102AC000B0007A08B1003008840031088500013078
:102AD0000007B20030088400310885003208800009
:102AE000200054082100BC000630BD0080312000C9
:102AF000A027903178082100B900BA013908BB003D
:102B000020308500633084003A0884070030853D1A
:102B10003B088031200031209031800000380319BB
:102B2000962D2100BB0ABA0A802D20002100310811
:102B3000FA0030088400310885000008B9002C3004
:102B4000230091000330920003100F302100BC00DD
:102B500088312000002090312030850063308400CF
:102B60008031C72790312830111EB42D23009A00E0
:102B7000200054082100BD001B30BE008831200019
:102B8000572090313630230091000330920003101B
:102B900004302100BC008831200000209031210049
:102BA0003908BD001B30BE0088312000572090310D
:102BB0000A30111ED92D23009A000D302000111E5D
:102BC000DF2D23009A002000CF2FD5080319812E76
:102BD000540DF700F70DFC30F70577082100B90018
:102BE000390A80312000EC209031FA0021003908A8
:102BF00080312000EC2090312100B0007A08B10033
:102C0000300884003108850001300002B20030082D
:102C1000840031088500320880002000540821001B
:102C2000BC000630BD0080312000A027903178081C
:102C30002100B900BA013908BB002030850063309B
:102C400084003A0884070030853D3B08803120002D
:102C500031209031800000380319332E2100BB0A47
:102C6000BA0A1D2E200021003108FA003008840025
:102C7000310885000008B9003B3023009100033083
:102C8000920003100F302100BC008831200000208A
:102C9000903120308500633084008031C727903127
:102CA0002830111E512E23009A00200054082100C4
:102CB000BD001B30BE0088312000572090314530C8
:102CC0002300910003309200031004302100BC0067
:102CD000883120000020903121003908BD001B30D0
:102CE000BE0088312000572090310A30111E762E08
:102CF00023009A000D302000111E7C2E23009A0024
:102D00002000CF2F8031B323903180316525903161
:102D100001302100BC008031200049259031780825
:102D20002100B500B00130081E3C031C192F3008EB
:102D3000BC000630BD0080312000A027903178080B
:102D40002100BC00BD013C08BE002030850066307B
:102D500084003D0884070030853D3E088031200016
:102D600031209031800000380319BB2E2100BE0AAB
:102D7000BD0AA52E20002100300DF700F70DFC3014
:102D8000F7057708BC003C0A80312000EC20903128
:102D9000FA0021003C0880312000EC209031210015
:102DA000B2007A08B3003308FA003208840033080E
:102DB00085000008BC005B302000111EDD2E2300C2
:102DC0009A0021003008BD000130BE00883120008B
:102DD000572090315D30111EEB2E23009A002030D9
:102DE0002000111EF12E23009A002030850066304D
:102DF000840080312000C72790312030111EFE2E24
:102E000023009A0021003C08BD001B30BE00883121
:102E10002000572090310A30111E0C2F23009A00F9
:102E20000D302000111E122F23009A002100B00A3D
:102E3000932E843023009100023092000310103052
:102E40002100BC008831200000209031210035088D
:102E5000BD001B30BE0088312000572090310A3061
:102E6000111E302F23009A000D302000111E362F26
:102E700023009A008F3091000230920080312000B0
:102E800064239031240016141618442F5130210069
:102E9000BC00240095132000911121003C0824005F
:102EA00091000230951B5B2F2000911D552F0030A3
:102EB0002400161B0130F80078082100B400B0018E
:102EC0003008033C031CC22F2400141C7B2F01304C
:102ED000F7001513961596196B2F77189612771C15
:102EE00096161616161A722F1108F8007808210087
:102EF000B1007D2F24002100B10196302300910004
:102F000002309200031006302100BC0088312000FE
:102F10000020903121003408BD001B30BE008831F4
:102F20002000572090319A30230091000230920007
:102F3000031005302100BC008831200000209031B2
:102F400021003008BD001B30BE0088312000572012
:102F500090319D3023009100023092000314043020
:102F60002100BC0088312000002090312100310870
:102F7000BD001B30BE008831200057209031210059
:102F8000B00A602F240016151619C42FA130230093
:102F900091000230920080312000642390312300A0
:102FA00020003E108831C1290A148A140A158207AC
:0E2FB0003F2C142D322D362D482DE52D822E6E
:083FB800AA346A345A3456346D
:103FC000553455349534A534A934AA346034953425
:103FD0009934943440345934A434553450346A34C8
:103FE00098346534A0349034A8346934A6346434E9
:103FF0005434803458345634683496349A34A53462
:020000040001F9
:04000E00E40FFF1EDE
:00000001FF
;PIC16LF1937
;CRC=0096  CREATED="20-Apr-13 18:26"
