:0600000098313A2D0000CA
:0800080083018031200077081C
:10001000A0007808A1007908A2007A08A3007B0854
:10002000A400230011082000A500230012082000CE
:10003000A600230013082000A700230014082000B6
:10004000A8008B1D25280B184B288B1E29280B195F
:100050004D28850191308400801E3028911A4F2848
:100060002008F7002108F8002208F9002308FA0008
:100070002408FB0025082300910020002608230007
:100080009200200027082300930020002808230066
:100090009400090020008031682B8031862B80314C
:1000A0000B2B0B0060346134623463340B00643416
:1000B0006534803481340B007134753482340B0024
:1000C0006E346F3470340B00463420340F340134F6
:1000D000483420340F3403341034203420340334B3
:1000E00011342034203403341234203420340334C7
:1000F00013342034203403341434203420340334B3
:10010000153420342034033416342034203403349E
:10011000173420342034033418342034203403348A
:1001200019342034203403341A3420342034033476
:100130001B342034203403341C3420342034033462
:100140001D342034203403341E342034203403344E
:100150001F3420342034033420342034003401345C
:10016000213420340034013422342034003401346A
:10017000263420340134013427342034003401344F
:100180002834203400340134293420340834033432
:100190002A342034063403342B342034043403341A
:1001A0002C342034023403342D342034023403340C
:1001B0002E342034003403342F34203400340334FC
:1001C000303420340034033449342034353403349B
:1001D0004A34203412340334313420341F3403348D
:1001E000323420340E3403343334203402340334B4
:1001F000343420341B340334353420340E34033487
:10020000363420341134033437342034003403348A
:100210003834203403340334393420340334033481
:100220003A342034003403343B3420343234033441
:100230003C342034313403343D342034023403342C
:100240003E342034003403343F342034003403344B
:10025000403420340B34033441342034003403342C
:1002600042342034003403344B342034003403341B
:100270004C342034053403344F34203400340334F8
:1002800072340034003400346434203400340234D6
:100290000B0065346534703472346F346D3400345F
:1002A0000B00643465346634613475346C347434F2
:1002B00000340B00443454344D3446343A34003462
:1002C0000B0020342C343B340D3400340B007334D9
:1002D0006534743400340B0053344134563445349F
:1002E00000340B0052344534533454344F345234B8
:1002F000453400340B007334743461347434753411
:10030000733400340B007234653462346F346F34EC
:10031000743400340B00643400340B00693432341C
:10032000633400340B006D346F34723473346534CD
:1003300000340B002B3400340B002D3400340B0040
:100340006E3400340B00433450344F345434003492
:100350000B00613464346D3469346E3400344534D8
:100360004E34003400340034003450344F344C34B4
:1003700000340034003452343134473431340034E2
:10038000003452343134473432340034003452347F
:100390003134473433340034003452343134473448
:1003A000343400340034523432344734313400347D
:1003B000003452343234473432340034003452344E
:1003C0003234473433340034003452343234473416
:1003D000343400340034523433344734313400344C
:1003E000003452343334473432340034003452341D
:1003F00033344734333400340034523433344734E4
:10040000343400340034523434344734313400341A
:1004100000345234343447343234003400345234EB
:1004200034344734333400340034523434344734B1
:100430003434003400345834493431340034003416
:1004400000345834493432340034003400345834E1
:100450004934333400340034003458344F343134A8
:1004600000340034003458344F3432340034003413
:10047000003458344F3433340034003400345234B0
:100480003134503400340034003452343234503477
:1004900000340034003452343334503400340034E7
:1004A0000034523434345034003400340034523484
:1004B000313450345434543400345234323450349F
:1004C0005434543400345234333450345434543467
:1004D00000345234343450345434543400345334AB
:1004E00049344434003400340034543458344934EA
:1004F0004434003400344D345234533431340034F5
:1005000000344D34523453343234003400344D34DA
:10051000523453343334003400344D345234533471
:100520003434003400344D345234533435340034D0
:1005300000344D345234533436340034003458349B
:100540004F344F3431340034003458344F344F3446
:1005500032340034003458344F344F3433340034A0
:10056000003458344F34413431340034003458347A
:100570004F34413432340034003458344F34413431
:10058000333400340034583449344F343134003477
:100590000034583449344F34323400340034583441
:1005A00049344F34333400340034583449344134FE
:1005B0003134003400345834493441343234003456
:1005C0000034583449344134333400340034543422
:1005D000413449344C340034003454344F345434AE
:1005E0000034003400344C3454344F34003400347C
:1005F000003443344F345234003400340034433434
:1006000050344F34543400346400111E042B230042
:100610009A0020000800911E592B6400911E0D2B9A
:10062000230019082200DF005F08083C031D3A2B55
:10063000FE080319352BFE0352307E075F2380012D
:10064000083065231B3004235B306400111E252B0A
:1006500023009A004B3064002000111A312B230034
:100660002B2B23009A00382B220007306523230010
:100670005B2B22007E080F3C031C572B5F08652371
:100680007E08FE0A523E5F2322005F0880005F085A
:100690000D3C0319532B5F082B3C0319532B5F08A8
:1006A0002D3C031D562B2100321422005A2B0730FB
:1006B000652322002300200091128031302884001D
:1006C000203085000318850A080020000423080054
:1006D000270016080F390319722B21003215F0304C
:1006E00027009605161E782B210067172700161283
:1006F000161C7F2B2100E7143F3027009605FF30A2
:10070000160696050B108031200030282100350890
:1007100036040319902B35080319B603B503962B3D
:100720003215B216E714B6011E30B500370838048A
:1007300003199E2B37080319B803B7030B11803137
:1007400020003028491943103A10CE37A020C32585
:100750002033F2376D10CC2144103A10A53A000036
:100760005039EF31E539F334EE33A021EF36ED3077
:100770006E323A002010D334F43249222010201D6A
:10078000A01275002010C337ED3661376410201DAC
:10079000A0123019750020104139E73AED326E3A57
:1007A000201DA01275002010D630EC3A65102010E4
:1007B000201DA0127500491943103D1FA0126400AE
:1007C0005B183B184800491943103A10A120C32573
:1007D0000001D0377414A53A291EBD127500C32735
:1007E000521DA5392028542ABA127300C327521D5E
:1007F000A53AA020753C4937BA127500442A4D230A
:10080000BA127500491943104539F23772103A107F
:10081000CE37A020C3252033F2376D105429C926C6
:10082000D027D429201DA0127500D027541DA53132
:100830002532A012E3126410A5312532A012E31272
:1008400064004122CD244E1F2000C327CD2641271E
:10085000441F2000442A4D233D004937693A20298E
:10086000C126201E3D100001C5225029CF260001BF
:10087000C82B20226533E13A6C3A7300C522502917
:10088000CF26BC1ED2204D0020216132A031E8329B
:10089000E335F33AED100000A539A812F514201E37
:1008A0003D10A53A00002310502A5410D434ED32E4
:1008B000EF3AF4100A002310CC34EE35202A4F2AE8
:1008C0002105000010302100EE00ED016E086D02E0
:1008D0000318702C52306D075F238001ED0A662CDF
:1008E000FE013210FF30C600C801F00120000800F0
:1008F0000A3004230D30042308000B088B13230057
:10090000A92413087F390319A72CB0246400200000
:10091000111A8C2C2200862C2300BC2492000B0878
:100920008B13A924130D140D7F390319A72CB024A0
:1009300064002000111A9E2C2200982C2300BC2455
:100940009200910A0319920A20007D2C23002000B6
:1009500008009517151400000000891B8B1708006C
:100960002200CC00230011082200CD002300120831
:100970002200CE004C0808009A0022004D082300F7
:10098000910022004E08230008002200D72400080E
:10099000C40044087F3C031CC40A0310440D093AF8
:1009A0004307C400D7244408800020000800410801
:1009B000840042088500080001302200BA00BB0113
:1009C000BD00200078242D3042250430452522002A
:1009D000360BF02C3430422504304525F42C22000F
:1009E00038304225043045252200B7013708383C0D
:1009F000031C362D370D4925C000400A4F25FA004B
:100A0000220040084F252200B8007A08B900360BB2
:100A10002A2D370D4925033E4F25F8007818122D51
:100A200022002A2D22003B0842255225BE005725D0
:100A30003E0880003908FA0057250008C000203021
:100A4000C200BA30C1004008C3002000C524220003
:100A5000BB0A342D370D4925023E4F25F8002200F0
:100A6000BC0057253C088000B70AF62C360B3E2DFB
:100A70003B08422552253A02031DBD013D08F800FE
:100A800020000800230091000800920020007D242F
:100A90000800F700F70DFC30F70577080800200084
:100AA0006320080095131514130822000800380865
:100AB000840039088500080001302200BA00B7011F
:100AC000B6013608383C031C9D2D360D4925BC0067
:100AD0003C0A4F25FA0022003C084F252200B800AE
:100AE0007A08B900360D4925033E4F25F800781CD9
:100AF0009A2D220057250008BB00B02552253B0245
:100B000003198F2D0B08F7008B13B02522003B082B
:100B1000B3259518892D151177088B0422002030F4
:100B2000C200BA30C1003B08C3002000C524220027
:100B3000B70A20002200B60A612D0B08F7008B13BC
:100B4000B02522003A08B3259518A42D1511770871
:100B50008B04200078243E304225043045250800CF
:100B600037084225080023009300951315155530CA
:100B70009600AA3096009514080022003508B600A9
:100B80002000DC24F808031DCF2D782444304225B2
:100B9000043045252200B6012000DC245C25080035
:100BA000003021008F0022004E100C260139031D59
:100BB0004E144E18DD2D0F10DE2D0F144E100C2686
:100BC0000239031D4E144E18E72D8F10E82D8F1497
:100BD0004E100C260439031D4E144E18F12D0F1122
:100BE000F22D0F154E100C260839031D4E144E1809
:100BF000FB2D8F11FC2D8F15CD08031D012E0F131A
:100C0000022E0F17032E8F12052E8F16072E0F3070
:100C100021008F00200008004C080F3908000F3019
:100C200021008F002200C308031D182E0F13192E58
:100C30000F1700000F12000020000F082200C40050
:100C40000F30C4050F1600004408F800200008000B
:100C5000240095132000911122005A0824009100CD
:100C60000230951B382E1419332E0030161B01301C
:100C7000F800200008000B088B132300A924031898
:100C8000562E13086D2664002000111A492E2200EA
:100C9000432E23007A260B088B13A9242200DA0B9B
:100CA000522E542E2300562E6B2E2300130D140D9E
:100CB0006D2664002000111A5F2E2200592E230099
:100CC0007A26910A0319920A03102200DA0B692E80
:100CD0006B2E20003B2E200008007F392200DB0015
:100CE000230011082200DC00230012082200DD008E
:100CF0005B0808009A0022005C08422522005D087B
:100D000023009200080022005D08F8015C0203182D
:100D10008C2E5C08F700982EF7010830DE00DC0D01
:100D2000F70D5D0877020318F700F80DDE0B8F2E24
:100D300020000800780822005A08DC006430DB2616
:100D4000031DA92EDB1CB72EDB19B72E5B1A203032
:100D5000AC2EDB115B125B14F807780864002000EE
:100D6000111AB42E2200AE2E23009A0022005A0837
:100D7000DC000A30DB26031DC32EDB19CE2E5B1CE4
:100D8000CE2E5B1A2030F807780864002000111A74
:100D9000CB2E2200C52E23009A0022003030DA0725
:100DA0005A0864002000111AD72E2200D12E2300E9
:100DB0009A0020000800DD0020008326770822002A
:100DC000DA007808303008002200480ECA00CA0D48
:100DD000CA0DC030CA0549083F39CA072400161495
:100DE0001618F02E503034272826780822004B1091
:100DF00078184B144B1C032F20007824E330422535
:100E00000330452522004A08DA0020002826240065
:100E100016151619092F20007824E93042250330D1
:100E200092000310043034273B262200480838275C
:100E300029306400111E192F23009A003C306400F1
:100E40002000111A252F23001F2F23009A003D3068
:100E500064002000111A2E2F2300282F23009A004F
:100E600022004908382708002200DA002000080084
:100E7000DA001B30DB0020009A26080020308500B5
:100E8000D430840000080319562F0230F800BF3018
:100E9000F7006400F70B492FF80B472F9630F70047
:100EA000F70B502F532F6400800B452F08002200B2
:100EB0004E08F700031023009517151400000000DA
:100EC000130880000131910A0319920AF70B5D2F74
:100ED0002000080001308A27CD018D270C308A2799
:100EE00090278D2705308A2790278D2705308A2760
:100EF00090278D272100B8010230B7003708380449
:100F00000319842F00007E2F04308A2790278D2715
:100F1000640008002200CC0008002000D025080052
:100F20000130CD00080001308A27CD018D270C301B
:100F30008A2790278D27AD27AD272100B8010630DD
:100F4000B700370838040319A72F0000A12F043079
:100F50008A2790278D276400080005308A2790276C
:100F60008D270800220049080739F700490CF800CE
:100F7000F80CF80C1F30F80578084B078400003097
:100F80004C3D8500F801F80AF70AC72FF80DF70B5A
:100F9000C62FCA080319CF2F78088004D22FF8096A
:100FA000780880052000080021006C0885006B0887
:100FB000840022005C081A0080012100EB0A03195A
:100FC000EC0A2000080080080319F72F050822000A
:100FD000C9000408C8000008DC002000D427220053
:100FE000490885004808840001312000E32F0800EB
:10100000DB3022004807CC001F30CD000318CD0A8A
:101010004D082300920022004C082300910020304C
:101020008500C930840001302200CE0080312000CC
:101030005727883121006A142200CA014A08033C5C
:10104000031C4D284B144908C039403A20000319AD
:101050002D28C03A03193128352880316A27883174
:101060003928803193278831392822004B102000FD
:1010700039282200C90DC90DFC30C9054B1C4B286D
:101080002100B8010230B7003708380403194A2894
:10109000000044282200CA0A1E284808093C031CF4
:1010A00060284808043C031C5B28803120009327FB
:1010B00088315F282200803120006A278831220091
:1010C000200008000B088B1323008031A9248831ED
:1010D00003187928130888200B088B138031A92462
:1010E00088312200D40B7528772823007928862898
:1010F0002300130D140D8820910A0319920A03107E
:101100002200D40B842886282000622820000800B2
:101110007F392200D500230011082200D6002300C9
:1011200012082200D7005508DC00803120008031F1
:10113000D4278831883122005608803142258831F1
:1011400022005708230092000800240016141618E5
:10115000A72803102200540D0E396038D700570815
:10116000012178082200581078185814581CDF28DC
:101170002100EA1DDD2880312000782488310030EC
:10118000220058180130D900A23080314225883120
:1011900003309200031018302200DA008031200062
:1011A0003B26883122005908DA001B30DB008031F1
:1011B00020009A2688312100EA11E128220021002E
:1011C000EA1522005608FA0055080921800803197B
:1011D000F6285608FA005508D50A0319D60A092137
:1011E0000008D90001212100E1282200DA01803124
:1011F000200028268831240016151619FD28200005
:101200000800DA00803120008031282688318831BA
:10121000080084007A088500080020302200551E4E
:101220003030D8005408F700D41F1E29F709F70AF8
:101230007708D4002D30D800D51755145408DC0099
:101240006430642177082200D40030307807D90058
:101250005408DC000A306421303077072200DB00BC
:1012600030307807DA005808F70030305902031997
:101270003D29D514D51B551551295808D9002030C2
:10128000D80030305A02031949295514D51BD514FA
:101290005129031D5514031D51295908DA00203026
:1012A000D90055195829D5185B2955185E29612987
:1012B00058086C21220059086C2122005A086C2120
:1012C00022005B086C210800DD00803120008031A5
:1012D0008326883188310800DC008031200080318D
:1012E000D427883188310800800803198D29050822
:1012F0002200D5000408D400000864002000111A60
:10130000832922007D2923009A00220055088500A8
:101310005408840001312000742908004822CB00C1
:10132000CC00CD00CE00CF01D001D101D2012830B8
:101330004B222400161416189B295130220001213B
:1013400078082200CA107818CA14C8014808033C5B
:10135000031CDF294808033C031DB0294A10B129AA
:101360004A14003053225408F70024001513961530
:101370009619B82977189612771C96161616161A0B
:10138000BF291108F80078082200C9003F30C905BC
:10139000CF30480780315F23883149088000210021
:1013A0003408033922004802031DDD29CB304807E9
:1013B00080315F2388312A308000C80AA6292400A2
:1013C00016151619E129323022004B222200CA1CC0
:1013D000082A8031200078248831003022005322EE
:1013E00002308031422588310430920003102330CE
:1013F0002200DA00803120003B2688312200540888
:10140000DA001B30DB00803120009A268831220070
:1014100020302100EC007E30EB0015308031422579
:10142000883104309200031004302200D4002000E0
:10143000622022004B086C2122004F0857224822CC
:101440006C2122004C086C212200500857224822AF
:101450006C2122004D086C2122005108572248229D
:101460006C2122004E086C212200520857222200D3
:10147000D4012030D6007E30D5002000A520803158
:1014800078248831203085007E3084007421080063
:10149000203022000800D4008031200080313E2717
:1014A0008831883108004A180130D4000800D4007F
:1014B0001830D50020000D21080030302200BC007B
:1014C000BD00BE00BF00C001C100C200C300C40017
:1014D000C5013608FC00B60803197C2A0130360223
:1014E0002D3E80315F23883100084D236608670553
:1014F00022004805BB00AE2ABB012100671CAF2AB1
:101500006710F508031D872AF4080319AF2A640041
:1015100004305023FA304B222200C80B8A2AF508E7
:1015200003199E2A75084D230020F501640002303E
:101530005023FA304B222200C80B992AF4080319D1
:10154000AD2A74084D230020F401640002305023BA
:10155000FA304B222200C80BA82A64002100013077
:101560002200BA00B7013708033C031CED2AB60875
:10157000031DBD2A4610C610CC2A0130370736029B
:10158000031DC62A46143A08F600C72A4610C6109C
:101590003B083A05031DC61437088031200051204E
:1015A00088315023003046180130532337088031EA
:1015B00020005620883150230030C61801305323B4
:1015C000C61CE92AC130370780315F2388313130AA
:1015D00080000310BA0DB70AB32AB608031DF22A19
:1015E000FD011C2B01303602293E80315F238831FA
:1015F0000008FD00B8013808033C031C192B01301A
:101600003602F700F70DF70DFC30F70577083807BD
:10161000103E80315F2388310008B9003808C800C7
:101620003908C90080312000E42688312200B80A38
:10163000FB2A21006A14220001303602BC3E8031B0
:101640005F2388313130800020302100EC007E3073
:10165000EB00EF30803142258831033092000310D7
:1016600004306323BC307023F2308031422588314E
:1016700003309200031005306323C1307023013022
:101680002200D4002030D6007E30D5002000A520D6
:10169000323022004B228E210800C80020000800B2
:1016A0002200C8000800F7004808C9007708CA00EF
:1016B0000130CC00CB01803120008031B22788314D
:1016C0008831220008002200D4002000622021007E
:1016D0006C0885006B0884008001203085000800BC
:1016E0008400803120008031E32788318831080070
:1016F0002100EA102200C9080319812B2100EA14F5
:1017000022002100EA1C892B0A30F500FF30B300CB
:101710008B2B1830F50020000800803162248831BE
:10172000220092019101940193011730210097004A
:10173000B21032112000E401F201F3012100671020
:10174000E71267132000EE012100B901F601FD0147
:10175000FC01B401FF308D0000308F00101090109C
:101760001011901591168B15CF3027009404950415
:101770008B1515161412C0308B0422008F138F1690
:101780000F160F130130B50080312000BD258831C0
:1017900022000F168F160F134724220047240C3007
:1017A00080318A278831803190278831803180319B
:1017B0008D2788318831013080318A278831CD00EA
:1017C000803180318D278831883101302200C3007B
:1017D000803120000F2688312100E7170F302000CC
:1017E000E7006F3024008D00210095139D308E009E
:1017F0008F308C002200C801512401305023512425
:101800000230502351240330502351242100B601CB
:101810001E30B5001508C039073895008B16220018
:10182000B60120005D221D302100E9003B30E800B8
:10183000B21332136A1420006B08F400F501C301DF
:10184000C401C5012100E7102000E5012200C90103
:101850002000782321006A11E5011E169E161E1332
:101860009E131D141E109E101E11003023008C00AC
:10187000900020308D0000308F003430F8002100BF
:101880001D08833978049D00983120006D2DCC010E
:10189000803190278831803180318D27883188319F
:1018A0000800C901803120008031E4268831883168
:1018B00008002100340803392200A1002000640838
:1018C00072040F392100EF0020008C1B732C2100C3
:1018D000B2116D08083C0319B2156D08083C0318D5
:1018E000ED0A762C20002100ED01B21120009019A4
:1018F000852C210032126E08083C031932166E083E
:10190000083C0318EE0A882C20002100EE01321258
:101910006508003A20000319942C103A03199A2CF8
:101920001F3A0319A62C152D2100B21D992C103039
:10193000E500172D21009D149D189C2C1B25E4000B
:101940000F30E50020008E212100172D2100EF0827
:101950000319D42C9D149D18AB2C1B253F3C220051
:10196000A0002100640863020319D22C6A15340810
:1019700050232008C90080312000E42688318E21C0
:1019800001307C02F700F70DF70DFC30F705770802
:1019900022002107103E80315F238831200880001B
:1019A00021006A116308E400321EDD2C0130340787
:1019B0000339B40020008E212100B21DE72C200045
:1019C0009019E52C80315C2588312100E501E71173
:1019D000360CFA00350CF900FA0CF90CFA0CF90C7B
:1019E00079082200A2002100E5080319082D350816
:1019F0000439F700FA0177087A040319082DE71172
:101A000001303407220022020318092D2100E715B6
:101A100022002100E719102D22000C13122D2100A5
:101A200022000C172100172D20002100E501640081
:101A300098312000712D1C0CE300E30C3F30E305CE
:101A40006308080022004808490403192B2D49089F
:101A5000FA004808302D20002B08FA002A0822003E
:101A6000CC007A08CD004D08D6255108DE25550852
:101A7000E22580080319572D5308E6255708EA2563
:101A80008008031D472D5008EE25592D4F2D550870
:101A9000E225F625EA25000858020319532DD60A37
:101AA0000319D70A3E2DD40A0319D50A372D500839
:101AB000EE257808CC070030CD3D4D08FA004C08E3
:101AC00009218008031D682D0030F800F900D42D8D
:101AD0004D08D6255108DE255508E2258008031952
:101AE0008D2D5308E6255708EA2580080319892D0E
:101AF0005508E225F625EA2500085802031D852D24
:101B00005408F8005508F900902DD60A0319D70A91
:101B1000732DD40A0319D50A6C2D0030F800F90092
:101B20007908CF007808CE00CE08031D9A2DCF0883
:101B30000319AB2D4E0884004F0885008001CE0AA2
:101B40000319CF0A4F082000AB0022004E082000E6
:101B5000AA00CF2D22004D08D1004C08D00051081A
:101B6000D3005008D2005308FA0052080921800817
:101B70000319BE2DD20A0319D30AB32D50085202FD
:101B8000F7005108533BFA007708F80078084C0733
:101B90002000AA00003022004D3D2000AB002200B2
:101BA0004C08F8004D08F90020000800D1004C084E
:101BB000D0004B08D3004A08D2000800D5005008D6
:101BC000D4000800FA00540809210800D700520880
:101BD000D6000800FA005608092108005402F70050
:101BE0005108553BFA007708F80008000008D800B3
:101BF00057080800F701F80122004C0803104D189F
:101C0000F7071926CD18F70719264D19F7071926D2
:101C1000CD19F70719264D1AF7071926CD1AF70718
:101C200019264D1BF7071926CD1BF707192620008B
:101C30000800F70CF80C08002200CA01CB014A0882
:101C4000462680080319422E4A08462600082F3CE3
:101C50000318422E4A0846260008393C031C422E2F
:101C60004B08CC000A30CD002000FA2578088031DE
:101C70008A2788314A084626303000024C07CB00BC
:101C8000CA0A1F2E4B08F8002000080048078400ED
:101C90000030493D850008002200CC014C08462652
:101CA0000008DF39CD004C084A07840000304B3D66
:101CB00085000008DF394D02031D682E4C084626BA
:101CC0008008031D662E0030F8006A2ECC0A4E2EC6
:101CD0000130F8002000080010302200C900F70190
:101CE000FA01C60CC50C031C7B2E4708F707031826
:101CF000FA0A4808FA07FA0CF70CF90CF80CC90BA9
:101D0000712E200008002200C7014708053C031C73
:101D1000B32E47084307F8000030443DFA00780826
:101D2000C9007A08CA0047084507F8000030463D58
:101D3000FA0078088031422588317A0892002030F4
:101D40008500CB30840001302200CE00803120009D
:101D50005727883122004A088500490884004B082B
:101D60008000C70A852E200008002100EA1CBA2E38
:101D7000FF30B300EA18C02E6A19C02E0030C12E01
:101D80000130F80020000800210034080339220047
:101D9000BC00FC080319FA2E01307C02F700F70D95
:101DA000F70DFC30F70577083C07103EF8002030AF
:101DB000FA000318FA0A7808B9007A08BA00FD2672
:101DC0000008BB00FD2638083B0780002000B52630
:101DD000F8080319F92E22003A08FA00FD26000837
:101DE000BE003C08C8003E08C90080312000E4263F
:101DF0008831220020008E210800390884003A082A
:101E000085000800780822003508DC006430642171
:101E10002F27031D122FB61C192FB619192F361A8A
:101E20002030152FB61136123614F80778086C21B9
:101E300022003508DC000A3064212F27031D262FDD
:101E4000B6192A2F361C2A2F361A2030F8077808A0
:101E50006C2122003030B50735086C210800770866
:101E60002200B5007808303008002100EA1C492F14
:101E70000A3080318031652388318831803178247F
:101E80008831213080314225883104305927582F3C
:101E900021000A30803180316523883188318031DA
:101EA0007824883125308031422588310430592703
:101EB000080092008031200080317D2488318831F3
:101EC000080001302200B60020005D22043022000C
:101ED000B600FA304B222200B60B692FB401340849
:101EE000053C031C8A2F3130340780315F23883151
:101EF0000008B50035084D2300202100B801063048
:101F0000B700370838040319872F0000812F2200FB
:101F1000B40A6F2F0430B600FA304B222200B60B01
:101F20008C2F2100B2142000080022003D08073940
:101F3000F7003D0CF800F80CF80C1F30F805780895
:101F40003E07840000303F3D85000008F800F70A96
:101F5000AA2FF80CF70BA92F0130F8052000080074
:101F60002100ED016D08023C031CEC2F23306D07AE
:101F7000F8002030FA000318FA0A78082200A000BE
:101F80007A08A10021006D08803120005F2088318F
:101F90002200A200BD00BF01BE01200095277818D5
:101FA000DF2F203021006D0780315F2388318008CA
:101FB0000319DC2F2000DF2F0030E12F200001303B
:101FC00021002200A30021088500200884002308A6
:0E1FD00080002100ED0AB22F98312000842DF0
:10200000803178249031F0080319782880317824C1
:102010009031B030230091000330920080312000D5
:102020007D249031803178249031BA3023009100A2
:102030000330920003100D302200DA0080312000BE
:102040003B26903169082200DA001B30DB0080312A
:1020500020009A269031803178249031C2302300BC
:1020600091000330920003100D302200DA0080311D
:1020700020003B26903170082200DA000130DB009E
:10208000803120009A269031803178249031CB30F5
:10209000230091000330920003100D302200DA007B
:1020A000803120003B269031210046082200DA00D2
:1020B0001B30DB00803120009A269031803178245B
:1020C0009031D330230091000330920003100D3083
:1020D0002200DA00803120003B26903121004708A1
:1020E0002200DA001B30DB00803120009A2690317C
:1020F00002307002F53E0318542C0B3E552C210083
:102100004708FF3C031DA22880312000782490312D
:102110008501210046088400883120007421903117
:1021200020306400111E912823009A0021004708E6
:102130002200DA001B30DB00803120009A2690312B
:1021400038292100460DF700F70DFC30F705770818
:102150002200B800380A8031200063209031FA0054
:102160002200380880312000632090312200B40022
:102170007A08B50088312000B5269031F808031D93
:10218000D0282100460DF700F70DFC30F705770841
:10219000033E8031200063209031F800F818D928E0
:1021A000220034088400350885002100470880009B
:1021B0002000220034088400350885000008B6009D
:1021C00080312000782490312030850078308400E0
:1021D00088317421903128306400111EEC282300CE
:1021E0009A00210046082200DA001B30DB00803113
:1021F00020009A2690314E30230091000430920046
:10220000031405302200DA00803120003B26903193
:1022100022003608DA001B30DB00803120009A26CD
:102220009031220035081F3C03182729FF3A031D6F
:102230001D2934080F3C031827293508203C031CAE
:102240002729031D2F2934081F3C03182F29340880
:10225000643C031D35293508203C031D3529B80190
:1022600088312000C4269031220021006A14200009
:10227000542C2100460DF700F70DFC30F7057708C8
:102280002200B400340A8031200063209031FA002B
:102290002200340880312000632090312200A80001
:1022A0007A08A9000130FA00AF30B4007A08B5000E
:1022B000B701210046082200B6003708C6003608DC
:1022C000C500C8010630C700883120006C26903157
:1022D000780822003407AC007908353DAD00203085
:1022E000C400AE30C3002D08C6002C08C5008831DC
:1022F00020008326903122002908FA002808840053
:10230000290885000008B40020302100EC007E3050
:10231000EB005B302200DC0080312000D4279031BC
:10232000210046082200B5000130B60088312000A7
:10233000022790315D302200DC0080312000D4275C
:10234000903120302200DC0080312000D4279031F1
:1023500021006C0885006B08840080012030850016
:10236000AE30840080312000E327903120302200FD
:10237000DC0080312000D427903122003408B500E1
:102380001B30B60088312000022790310A3022002D
:10239000DC0080312000D42790310D302200DC0099
:1023A00080312000D4279031803178249031203042
:1023B00085007E3084008831742190310230220003
:1023C000D4002030D6007E30D50088312000A520F2
:1023D0009031883135279031542C8831B526903191
:1023E000F8080319F62980315C259031542C21001E
:1023F000470BFE2922002A14002A210022002A105D
:1024000088312000B5269031F8080319112A0030D0
:1024100022002A180130B400B50080312000BD250B
:102420009031542C210046080339B400470822009B
:10243000B80088312000C426903121006A142000A1
:10244000542C210046080339B400FF302200CC0090
:10245000210047082200CD0088312000FA25903164
:1024600078082200B400B80088312000C4269031DA
:1024700021006A142000542C1B3080310423903139
:102480005B306400111E412A23009A003230640040
:102490002000111A4D2A2300472A23009A004A30AF
:1024A00064002000111A562A2300502A23009A00A3
:1024B0001B308031200004239031E0302300910054
:1024C00003309200803120007D24903101302200C1
:1024D000C300803120000F26903178082200BB0015
:1024E000BC01B501B401B508031D7C2B3408383C90
:1024F000031C7C2B0130FA00AF30C3007A08C40003
:102500003508C6003408C500C8010630C700883148
:1025100020006C269031780822004307B700790824
:10252000443DB8002030C400BD30C3003808C600A8
:102530003708C50088312000832690312200340DF1
:10254000C300350DC400C30DC40DFC30C3054408E1
:10255000FA004308C500430A80312000632090310F
:10256000FA002200450880312000632090312200CB
:10257000B9007A08BA003A08FA00390884007A08E3
:1025800085000008C3005B3064002000111ACA2ACD
:102590002200C42A23009A000B3084002200350850
:1025A000C5003408C4000508CC000408CB00450E63
:1025B000F038C700C707E23EC800323ECA004508EF
:1025C0000F39C807C807CA07E93EC900C907C907C4
:1025D000440E0F39C907CA07C90DCA0DCA09CA0D69
:1025E00044080F39CA07C70D0730C6000A30CA07AA
:1025F000C903031CF72AC907C803031CFB2AC80721
:10260000C703031CFF2AC707C603031C032B203084
:102610008500C630840007304B054B13840700301B
:10262000853D0408CA3C031D1A2B0508203C031DE8
:102630001A2B4B170008F700031D262B4B1B262BCC
:102640004B1A342BCB19262B2030292BCB154B12B0
:102650003030F707770864002000111A312B220070
:102660002B2B23009A00220001314B1F112B5D30D0
:1026700064002000111A3E2B2200382B23009A0000
:10268000203064002000111A472B2300412B230027
:102690009A0020308500BD308400883120007421EC
:1026A000903120306400111E522B23009A0022002A
:1026B0004308DA001B30DB00803120009A2690317D
:1026C00009306400111E612B23009A002200340897
:1026D0000339C300C4014308033C031D772BC4081E
:1026E000031D772B80312000782490312200640074
:1026F000B40A0319B50A732AB6013608023C031C52
:10270000972B233036078400203085000318850A74
:10271000000B952B0130F7003608F8000319932BB6
:10272000F735F80B902B7708BC07B60A7D2B0A30DB
:102730008031200004239031803178249031F630AC
:102740002300910003309200031004302200DA00CD
:10275000803120003B26903165082200DA001B30D2
:10276000DB00803120009A269031F930230091005F
:1027700003309200031007302200DA00803120007D
:102780003B26903122003C08DA001B30DB00803110
:1027900020009A269031803178249031FE30230039
:1027A000910003309200031005302200DA008031DE
:1027B00020003B26903122003B08DA001B30DB0072
:1027C000803120009A26903188318E21903121006D
:1027D0006A142000542C21004608023A20000319F4
:1027E000F82B033A0319002C023A0319082C0C2C7D
:1027F0008831B5269031F8080319FF2B0100132CFE
:1028000001302200C9008831200078239031132C38
:10281000883161279031132C2200C90188312000B2
:1028200078239031132C542C210047080339043E9F
:102830002200AB0020302100EC007E30EB00DB30CA
:102840002300910003309200031007302200D400CF
:10285000883120006220903122002B08D4001830EB
:10286000D500883120000D219031803178249031BD
:10287000203085007E308400883174219031220020
:102880002B08D4002030D6007E30D50088312000BF
:10289000A5209031542C210047082200C80088311F
:1028A000200000209031542C08000A108A100A15CC
:1028B00082077F283929ED29F729122A212A3C2A63
:1028C000EB2B542C4B2C142C02302200D400203043
:1028D000D6005230D50088312000A5209031FF303D
:1028E0002100C600220030100C2720308500B330B4
:1028F0000F27803120006021903116270319832C87
:102900001927752C200020301D275230202724271E
:10291000031D8D2CB2080319952C32083327A830DB
:10292000860012001E00031D912CC901392724279F
:10293000031D9D2CB2080319A52C320833277830CB
:10294000860012001E00031DA12CC901392724276F
:10295000031DAD2CB2080319BB2C32083327BB3042
:10296000860012001E00031DB12C2030C900BB30B0
:102970003D27C02C22002100C70122003014210075
:1029800022000C27203048270F27803120006621A5
:10299000903116270319CF2C1927C22C2000203084
:1029A0001D27BF3020274B27031DDF2C2200301CA2
:1029B000DC2C0330F000DE2C0230F000200022007E
:1029C0000C27203048270F27803120006B219031C1
:1029D00016270319EE2C1927E12C200020301D2783
:1029E000BF3020274B27031DF72C0430F0002200B6
:1029F0000C27203048270F2780312000712190318B
:102A000016270319062D1927F92C200020301D2721
:102A1000BF3020274B27031D0F2D0530F00022006B
:102A20000C27203048270F27803120007A21903151
:102A3000162703191E2D1927112D200020301D27C0
:102A4000BF3020274B27031D272D0830F000220020
:102A50000C27203048270F27803120008221903119
:102A600016270319362D1927292D200020301D2760
:102A7000BF3020274B27031D432D0930F0000230C3
:102A80002100C600200022000C27203048270F27F5
:102A9000803120008A21903116270319522D1927E1
:102AA000452D200020301D27BF3020274B27031D38
:102AB000B22DF001883148229031C90078303D278D
:102AC00047080A3C031D662DC7016B2DC708031D6F
:102AD0006B2D0A30C70047080F39883150239031D9
:102AE0004808C9004908CC00CD01803180318D27CC
:102AF000903190310C3080318A279031803190278D
:102B00009031803180318D2790319031013080318A
:102B10008A279031CD00803180318D2790319031DE
:102B2000053080318A279031803190279031803173
:102B300080318D27903190312100B8011030B700DD
:102B4000370838040319A62D0000A02D0430803169
:102B50008A279031803190279031803180318D27C4
:102B60009031903122000C27203048270F278031E8
:102B700020008D21903116270319C12D1927B42D5E
:102B8000200020301D27BF3020274B27031DCA2DD2
:102B90000C30F00022000C27203048270F2780310E
:102BA00020009221903116270319D92D1927CC2DF9
:102BB000200020301D27BF3020274B27031DF12D7B
:102BC00020301D2778303D274708243C031CEC2D7E
:102BD000C6010B30F000F02D0930F0000330C600C4
:102BE000200022000C27203048270F2780312000AA
:102BF0009921903116270319002E1927F32D200053
:102C000020301D27BF3020274B27031D092E0630FB
:102C1000F00022000C27203048270F2780312000A9
:102C20009C21903116270319182E19270B2E2000EE
:102C300020301D27BF3020274B27031D212E0730B2
:102C4000F00022000C27203048270F278031200079
:102C50009F21903116270319302E1927232E20008B
:102C600020301D27BF3020274B27031D4E2E02305A
:102C7000F0000130210034070339C70022000C277F
:102C80002030850078300F2780312000A22190313C
:102C9000162703194E2E1927402E200022000C273C
:102CA000203048270F2780312000A8219031162797
:102CB00003195D2E1927502E200020301D27BF300C
:102CC00020274B27031D752E02302100EA06003015
:102CD000EA180130883150239031C9008831200032
:102CE0007823903121006A1420002100EE01ED01CB
:102CF000EE08031DBA2E6D08383C031CBA2E0130B5
:102D0000FA00AF302200A8007A08A90021006E085E
:102D10002200C60021006D082200C500C80106304F
:102D2000C700883120006C269031780822002807DF
:102D3000A0007908293DA1002030C400A230C300C2
:102D40002108C6002008C500883120008326903164
:102D5000883148229031C900783020275527031D3B
:102D6000B52E21006D08C60020002100ED0A0319D0
:102D7000EE0A782E4608FF3C031DF42E20301D2756
:102D800078303D272200A801A90120305F2780313B
:102D900020004821903116270319D12E6827C52E0F
:102DA000200020301D27783020275527031DDC2EDA
:102DB00001302100C70020002200A801A901203015
:102DC0005F27803120005021903116270319EB2E08
:102DD0006827DF2E200020301D2778302027552738
:102DE000031DF52E2100C70120007008063C0319C1
:102DF000FD2E7008073C031D032F01302100C70082
:102E00003408C600200021006A152000002021009F
:102E10006A1198312000782DC801C901080084008A
:102E2000480884070030853D4908080080000038C4
:102E300008002200C90AC80A08002200C9000800C8
:102E4000C8002030CB000800B330CA008831200011
:102E5000883122259031903179082200B20078081B
:102E6000B100B108080085003108840020308700D7
:102E70000800C8012030CB000800C80088312000BD
:102E800088311C269031903178082100C700080055
:102E90008500BF300800A830CA0088312000883182
:102EA0004C2690319031F8080800A230CA008831D1
:102EB000200088314C2690319031F80808008500B8
:102EC000A2308400280884070030853D29080800C6
:102ED0002200A90AA80A080064082100ED002000C9
:102EE0000D0868060F39E30072081F3963042100DA
:102EF000EE0073080F396E042000E400640821001E
:102F00006D020319872F0130F800892F892F0030B7
:102F1000F80098312000912D220033102330320721
:102F200080315F2390318008031D331431081F392D
:102F3000B4003108F039F700770EB5000F30B50551
:102F400001303002FC3E0318E32F043E2000EB2F3B
:102F50002200331CB02F31082000E705B52F2200D6
:102F60003108FF3A0F392000E7042200E32F220046
:102F7000331CBD2F2100E627BE2FF401E32F2200D2
:102F80003318C52F2100E627C62FF401E32F2200B6
:102F9000331131082039031D331500303319013046
:102FA000B7000030331801303706F800B310781836
:102FB000B314B31CDE2F3408F304E12F3408FF3AB6
:102FC000F305E32F220098312000D02A6714220055
:102FD0003108F40008000A148A140A158207A82F81
:062FE000BF2FB72FC72F21
:103000002100B21E72282000E508031913282100B0
:10301000200F0F28210F0F28200013282100A00ABD
:103020000319A10A2000210067152000EC08031DE8
:103030001C28ED08031955286D082200C600200041
:103040006C082200C500C8013C30C7008831200050
:103050006C2698317908FA007A08210021020318B9
:10306000332820005528031D3B2878082002031828
:103070003B28200055282000EE08031D53288031EE
:10308000782498315330230091000430920080312D
:1030900020007D24983121006A142200B601883175
:1030A00020005D2298316508EE002100B90803195F
:1030B0005A28B903B30803195F28B3036828EA1C28
:1030C00068282200C9018831200078239831210026
:1030D0006400E80803196E28E80371283B30E80013
:1030E0003217B212321F9428E90803197928E9032C
:1030F0007C28B2171D30E90032132000EF080319B5
:103100009328F10803198628F10393288031782445
:1031100098315B3023009100043092008031200010
:103120007D24983166102100B21FB12820006A0862
:1031300003390319AF286A080139031DAC286A084E
:1031400002390319AF286A0EF7000F30F705770828
:103150000F396605031DAF2888316127983121009A
:10316000B213983120008A2D01302100ED00220099
:10317000A001200064082100EF00FD080319D928F0
:103180006F087605031DD928FD01F60101302200E4
:10319000A00021006F08200066056705031DD828E0
:1031A000210067142000EB080319D8286B08F400ED
:1031B00021002200A101A2012208033C031C1E29B8
:1031C00021006F086D052200A30020006E08FF3A61
:1031D000220023050319182920006608670521002D
:1031E0006D050319FD2829302200220780315F2355
:1031F000983100082100EE00FF280130EE006E0833
:103200007D0203181729FD08031D08296E08FD001B
:10321000013022002207A1000130A0002000EE01B1
:103220002100A101A0016D082000E500210022007D
:1032300003102100ED0D2200A20ADC28A0080319CA
:103240002A292108B600883120005D22983121000A
:103250006A1422002100EF08031D3329E71720001C
:10326000E501EE0121002000EF08031940292100AB
:10327000EF08031D3D292000402920006F08F100C0
:1032800098319B2D22003108B5003008B400350874
:10329000FA0034088831092198318008031952292D
:1032A0007B2147293308FA003208883109219831F7
:1032B0008008031970293408B7003508B8003208AF
:1032C0008400330885000008B900380885003708F5
:1032D0008400390880007B21B20A0319B30A5229FD
:1032E000340884003508850080013008F800310872
:1032F000F90020000800B40A0319B50A08003030AC
:103300002200A000A100A200A301A400A500A60025
:10331000A7012030A8004130A9004430AA004D3058
:10332000AB004930AC004E30AD00AE012100ED01E4
:103330006D08023C031CD42A373004230008EE0039
:103340003A3004230008EF006E08092331080F39D2
:10335000B3003108F039F700770EB4000F30B40530
:103360003008023A20000319BC29013A0319CF2979
:10337000023A03193C2A902A2630142333082339B1
:10338000BE00BF013408BE06031DCB29BF08031DC4
:10339000CB290030CC29013080002000902A220067
:1033A0003510B51031082039031DB5143511310819
:1033B0001039031D3515B5113208BD002030BF008E
:1033C0009630BE008831200095279831781CF62968
:1033D00022003519ED292000F6292100B908031D26
:1033E000F3292000F6292200B5152000220035120D
:1033F0000130B700B6013608033C031C1C2A37080D
:1034000033050319182A36088031200056209831D8
:103410002200BC00BD00BF01BE01883120009527FD
:1034200098312200B5127818B516B51E182A351431
:103430000310B70DB60AFB29351C2A2A351D232A8D
:103440003C301A23220035163208C90001301D23F2
:10345000332A22003512B51935162923BC0032084B
:10346000C9003C081D23263014232923BF00003047
:10347000B51801302D23902A220035133108103958
:10348000031D3517B51320006E08FF3A63052200AF
:103490003305031DB517381031082039031D3814C2
:1034A000B81031084039031DB8143811381C602A8F
:1034B0002100B908031D5E2A2200602A2200381567
:1034C000B51F802AB81C792AB8112100A108031D54
:1034D000712A2008053C031C712A2200381D732A1A
:1034E00021002200B815B81D782A3C301A2322008A
:1034F0007F2AB815381C7F2A3C301A232200832AE1
:10350000B8113819B8152630320780315F23983149
:103510000030B8190130BF000030351B01302D23B9
:1035200022002F102630210004238008031D9B2A2F
:1035300022002F1421006D08803120005B2098317B
:103540002200B00000302F180130F7003008C90009
:103550007708CA000130CC00CB0180312000B227AF
:10356000983122002F18BA2AA430210004233130C8
:10357000800022003D30210004230008EE0040308E
:1035800004230008EF0023300423000BCB2AA030D3
:103590000423313080006E080923903120008C2FE5
:1035A00098312100ED0A98292030EC007E30EB00A4
:1035B00049303123A0304B23883148229831DC0038
:1035C00080312000D42798314F303123A4304B2351
:1035D0002100EA1CF72A20302200B1007E30B00022
:1035E0002030B300A830B200200042212100033077
:1035F0002200D4002030D6007E30D5008831200053
:10360000A52098319831A32D6D0780315F23983123
:1036100008002200B00021006F082200B100210044
:103620006D082200B20008002200320780315F23BB
:10363000983108002100B9000800CA002030CC00F1
:103640009630CB00803120008031B22798319831FC
:1036500008000030351A013008003F0680002000C5
:1036600008002200DC00803120008031D42798310E
:1036700098313A302200DC00803120008031D4279C
:103680009831983121006C0885006B088400800116
:103690002030850008008400803120008031E3273D
:1036A00098319831080001302200C3008031200099
:1036B0000F26983178082100EE006E1D9A2B22000B
:1036C000C301803120000F26983178082100ED00D9
:1036D000E716ED08031D6F2B0A30ED00732B6D0804
:1036E0000A3C0319ED016D080B3C0319E7176D083F
:1036F0000C3C031D7F2B67169D2380169A2B4508D3
:10370000203C031C9A2B031D892B4408733C031C8B
:103710009A2B440884004508850000316D080F3954
:10372000F700F0300005770480009D230016C40ADE
:103730000319C50A98312000A92D440884004508C2
:103740008500003108002200A401A5012030850079
:103750007E308400240884070030853D25088031B0
:103760002000592198319031162798310319BD2B2B
:103770002200A50AA40AA62B2000803178249831C3
:103780002A30803142259831043092008031200067
:103790007D2498312100ED016D08093C031C002CAB
:1037A0006A300423001EFD2B6A30042300080F3901
:1037B000EE002030EC009F30EB006E082200D400B9
:1037C0001830D500883120000D21983188314822E9
:1037D0009831B1007E30B0002030B3009F30B2008D
:1037E0002000422121006E082200DA001B30DB009D
:1037F000803120009A26983121006400ED0ACC2BFC
:10380000803120007824983121006A14023022008F
:10381000D4002030D6007E30D50088312000A5208D
:1038200098319831AF2D220020082102031C312C41
:103830002008093C031C312C24142008A300230871
:103840002102031C302C382400080F39A200382430
:10385000001E241022080C3C03192410A30A1F2C5C
:10386000322C2410003024180130F8002000080009
:103870006A30230780315F2398310800F00121006E
:10388000C7012200A00103300A250319CD2C210015
:103890003A080F253B0820252100ED003C080F25A4
:1038A0003D082025F0000430A00005300A2503194A
:1038B000A22C21003E080F253F0820252100C6002C
:1038C0000630EE006E082200A00020080A3C031C0F
:1038D0007F2C6A30200780315F239831001E7D2CB9
:1038E0006A30200780315F23983100080F390C3C83
:1038F00003197D2C0130A1007E2CA101802CA10197
:103900002108F800F8080319A02C2100470880318D
:103910008A2798310A30CD0088312000FA25983165
:1039200078082200A0006A3021006E0780315F23F2
:103930009831000820252100C700EE0A622C2200E1
:10394000B82C200070080A3A0319AA2C013A03196E
:10395000AF2CB52C2100C6010E302425B72C210038
:10396000C6010F302425B72C2000F00121002200D1
:103970007008043A20000319C02C013A031DC42C1E
:1039800021004608C7002000690821006D02031DC0
:10399000CE2C903120000020983121003A080F39B8
:1039A000F000EA1C062D2200A001A1012000132432
:1039B000F808031DDD2C2100062D640070080E3A66
:1039C0000319E92C013A0319F32C053A0319FB2CCE
:1039D000022D0130210034070339B4008831200062
:1039E0008E219831022DFF302200B800883120004E
:1039F000C4269831022D01302200B8008831200001
:103A0000C42698318831B52698312100E7179831BE
:103A10002000B62DA10020001324F80808000F395B
:103A20002200A100CC000A30CD008831200088316E
:103A3000FA259831983178082200A000210008006A
:103A40000F39220020070800C7000230F0000800EC
:103A50002100ED016D08093C031C332D6A3004235D
:103A60008001ED0A2A2D2030C5006A30C40098314B
:103A70002000BD2D7230210099008E150E162400F5
:103A80001710971097111330920028309500941753
:103A9000141323009F110C309B00A2309E00903025
:103AA0009D002100EA15EC01EB012F00910192012C
:103AB000980199019A0123008C018D018F019001D9
:103AC000220092019101940193012000AA01AB010F
:103AD0002100E601883120008D2B98316400883167
:103AE000592C98312100321C7E2D90312000642CFD
:103AF0009831803162249831210032106400E71C33
:103B0000882D88312000B02F98312100E7106715EB
:103B10002000002864002100321D972D90312000E4
:103B20006C2F98312100B2107818B2143211B21CE7
:103B30009F2D2000B42821006715B2106400671D76
:103B4000A52D20007F2921006711671FAB2D2000C4
:103B5000532B21006713E71EB22D2000A32B210059
:103B6000E7126400671EB92D20003E2C2100671269
:103B70006400E71FBF2D2000282D2100E7136A1CD9
:103B8000C82D883120003527983121006A10640043
:063B900020006E2D630011
:0A3FB600AA346A345A3456345534E4
:103FC00055349534A534A934AA34603495349934E1
:103FD000943440345934A434553450346A349834C9
:103FE0006534A0349034A8346934A634643454342D
:103FF000803458345634683496349A34A5340034B6
:020000040001F9
:04000E00BC0FFF1E06
:00000001FF
;PIC16F1937
;CRC=EEC6  CREATED="01-Sep-25 07:47"
