:0600000088313D2F0000D5
:0800080083018A012000770842
:10001000A0007808A1007908A2007A08A3008B1D2F
:1000200013280B1827288B1E17280B192928850140
:1000300091308400801E1E28911A2B282008F7007A
:100040002108F8002208F9002308FA00090080318D
:10005000542A8031C32A8031DA290B00603461349C
:10006000623463340B0064346534803481340B00B3
:1000700050344F344C340034003400345234313472
:10008000473431340034003452343134473432345C
:1000900000340034523431344734333400340034C3
:1000A000523431344734343400340034523432342E
:1000B000473431340034003452343234473432342B
:1000C0000034003452343234473433340034003492
:1000D00052343234473434340034003452343334FC
:1000E00047343134003400345234333447343234FA
:1000F0000034003452343334473433340034003461
:1001000052343334473434340034003452343434C9
:1001100047343134003400345234343447343234C8
:10012000003400345234343447343334003400342F
:10013000523434344734343400340034583449347D
:10014000313400340034003458344934323400340B
:10015000003400345834493433340034003400342B
:1001600058344F34313400340034003458344F3470
:10017000323400340034003458344F3433340034D3
:1001800000340034523431345034003400340034FC
:100190005234323450340034003400345234333466
:1001A0005034003400340034523434345034003489
:1001B0000034003452343134503454345434003424
:1001C000523432345034543454340034523433348E
:1001D000503454345434003452343434503454345D
:1001E000543400345334493444340034003400343B
:1001F00043344F34523400340034003443345034E8
:100200004F34543400340B003B3420340F34013469
:100210003C342034203401343D3420342034013443
:100220003E342034203401343F342034203401342F
:10023000403420342034013441342034203401341B
:100240004234203420340134433420342034013407
:1002500044342034203401344534203420340134F3
:1002600046342034203401344734203420340134DF
:1002700048342034203401344934203420340134CB
:100280004A342034203401344B34203420340134B7
:100290004C342034003401344D34203400340134E3
:1002A0004E342034003401344F34203401340134CE
:1002B00050342034013401345134203401340134B9
:1002C00052342034013401345334203405340134A1
:1002D000543420340534013455342034033401348B
:1002E000563420340E340134573420340D34013464
:1002F000583420340B340134593420340734013459
:100300007134003432340134703400340034003439
:1003100020342034003400340B00653465347034EC
:1003200072346F346D3400340B00643465346634D9
:10033000613475346C34743400340B0020343B3435
:100340000D3400340B0073346534743400340B0006
:10035000533441345634453400340B005234453460
:10036000533454344F345234453400340B00733416
:100370007434613474347534733400340B00723463
:10038000653462346F346F34743400340B00643479
:10039000733465346E34643400340B002B34003411
:1003A0000B002D3400346400111ED32923009A0061
:1003B00020000800911E352A6400911EDC292300CC
:1003C00019082200BD003D08083C031D0E2A20002C
:1003D000BE080319092ABE030E303E0784002030F0
:1003E00085000318850A80010830D3211B30D321F2
:1003F0005B306400111EF92923009A004B30640021
:100400002000111A052A2300FF2923009A000C2A34
:1004100020000730D3212300372A220020003E0885
:100420000F3C031C332A22003D082000D3213E0844
:10043000BE0A0E3E8400203085000318850A220083
:100440003D0880003D080D3C03192E2A3D082B3C39
:1004500003192E2A3D082D3C031D312A20003F148C
:100460002200362A20000730D3212200230020005A
:10047000911280311E280F3021008F002200C00809
:10048000031D442A0F13452A0F1700000F12000006
:1004900020000F082200C1000F30C1050F16000018
:1004A0004108F80020000800270016080F3903193A
:1004B0006D2A20005A082200BF0020000D085B06AC
:1004C0000F39DA005A0822003F0203196A2A200075
:1004D000BF142200F030270096050B1CBE2A013005
:1004E0002200C00020003B2278082200BE003E1DF2
:1004F000BF2AC00120003B2278082200BD00200056
:10050000BF152200BD08031D882A0A30BD008C2AB1
:100510003D080A3C0319BD013D080C3C031D9A2A05
:1005200020003F154D0884004E08850000318016DC
:10053000BC2A220020004E08203C031CBC2A031DBC
:10054000A52A4D082C3C031CBC2A4D0884004E08EB
:100550008500003100164D0884004E0885000031EA
:1005600022003D080F39F700F030000577048000C5
:100570002000CD0A0319CE0A2700161222000B1004
:10058000803120001E28410842040319CC2A41086A
:100590000319C203C103D02ABF14C2011F30C10016
:1005A0000B1180311E285B183B1848008A06D33295
:1005B000743A69376710D0377414A53A2910F437A4
:1005C000A01275008A062310C3275210D037723A42
:1005D00073103D10A53A3B10D32BA022ED3AEC301E
:1005E000F4326410C32752103A10A53A00005B1A87
:1005F000B71D331A6D050D296132E9372029653899
:10060000E530F4327210C3376E3AF2376C36653922
:10061000A01620005B1AB71DB3186D2B45194C2985
:1006200053005B1AB71D331A6D10A8212910321818
:10063000B1190A050D005B1AB01DB31B6D000A0548
:100640008D214F29201DA0127510A822ED3AEC3003
:10065000F43264103A10A53A29008A06442A4D2340
:10066000A029F430F43A73103A10A53A8A06000132
:100670008A065429C926D027D429201D20002028E5
:100680006F3AA812E414BD1264000A058D21CF262A
:10069000CD204E223E1000008A064937693AE930E3
:1006A000EC34FA34EE332029C126203B6139E9309D
:1006B0006236E5392033F2376D10C5225029CF2636
:1006C00000018A064937693AE930EC34FA34EE33EE
:1006D0002029C126203B6139E9306236E539A03B4B
:1006E000693A6810E634F236F730F2322032653378
:1006F000E13A6C3A203B6136F53273008A06D3301A
:10070000F634EE332029C126A0316F37E634E73ABC
:10071000F230F4346F37A0346E10C5225029CF2642
:100720002E008A0620104334E531EB39F536A03629
:10073000E939ED30F43168172029E539F437F2341E
:10074000EE3320326533E13A6C3A203B6136F532C4
:10075000731700008A064937693AE930EC34FA30F9
:10076000F4346F37A031EF367036653A65008A068B
:10077000D332743A69376710A539A812F514203AB4
:100780006F10A53A00008A06522CDF23C1244E10B8
:100790005B296132E937A53A5D105B286F3AA53ACB
:1007A0005D103D10A53A8A0600008A06442A4D23B2
:1007B0003D0010302100AD00AC012D082C020318C3
:1007C000EB2B0E302C078400203085000318850A9F
:1007D0008001AC0ADD2B2000BE013F10FF30D000AD
:1007E000D201CF0108000B082100C4008B132300A5
:1007F000951715140000000013087F390319432CC6
:100800002100C500230011082100C60023001208A2
:100810002100C700450864002000111A112C210096
:100820000B2C23009A002100460823009100210090
:100830004708230092009517151400000000130DBF
:10084000140D7F390319432C2100C5002300110822
:100850002100C600230012082100C70045086400DB
:100860002000111A352C21002F2C23009A00210082
:100870004608230091002100470823009200910AB6
:100880000319920AF82B2100C41B8B1720000800C3
:100890001B30D3215B306400111E4B2C23009A00C7
:1008A000323064002000111A572C2300512C2300F1
:1008B0009A004A3064002000111A602C23005A2C40
:1008C00023009A001B302000D321D3302300910055
:1008D000023092002000F323080021004308840026
:1008E000440885000008C60046087F3C031CC60A71
:1008F0000310460D093A4507C60043088400440822
:100900008500460880002000080001302100BE005C
:10091000BF01C1003A0B952C4C30230091000330ED
:1009200092002000F3239C2C2100613023009100D1
:10093000033092002000F3232100BB013B08213C3F
:10094000031CFB2C3B0DF700F70DFC30F705770877
:10095000C200420A20000321FA00210042082000C0
:1009600003212100BC007A08BD003A0BE72C3B0DA7
:10097000F700F70DFC30F7057708033E2000032150
:10098000F8007818C52C2100E72C21003D08FA005A
:100990003C0884007A0885003F08230091009513E5
:1009A00015141308800021003D08FA003C0884005B
:1009B0003D0885000008C2002030C4006E30C3002E
:1009C0004208C50020006D242100BF0AF92C3B0D10
:1009D000F700F70DFC30F7057708023E20000321F1
:1009E000F8002100C0003C0884003D088500400854
:1009F0008000BB0A9E2C3A0B072D3F082300910074
:100A000095131514130821003E02031DC10141086E
:100A1000F8002000080001302100BE00BB01BA012F
:100A20003A08213C031C5F2D3A0DF700F70DFC300E
:100A3000F7057708C000400A20000321FA002100D2
:100A40004008200003212100BC007A08BD003A0DB7
:100A5000F700F70DFC30F7057708033E200003216F
:100A6000F800781C5C2D21003C0884003D088500BE
:100A70000008BF000B08F7008B133B082300910010
:100A800021003F082300930095131515553096005B
:100A9000AA309600951495184B2D151177088B04E4
:100AA00020302100C4006E30C3003F08C500200084
:100AB0006D242100BB0A20002100BA0A102D0B086A
:100AC000F7008B133B082300910021003E08230010
:100AD00093009513151555309600AA30960095147D
:100AE0009518702D151177088B047E309100033016
:100AF00092002000F323080021003908BA002000EA
:100B00008524F808031D902D9130230091000330B7
:100B100092002000F3232100BA01200085240B2538
:100B20000800003021008F003D103B080F390139CB
:100B3000031D3D143D18A02D22000F10A22D2100F1
:100B400022000F1421003D103B080F390239031D0C
:100B50003D143D18AF2D22008F10B12D2100220031
:100B60008F1421003D103B080F390439031D3D143B
:100B70003D18BE2D22000F11C02D210022000F159F
:100B800021003D103B080F390839031D3D143D1865
:100B9000CD2D22008F11CF2D210022008F15210095
:100BA000BC08031DD72D22000F13D92D21002200D0
:100BB0000F17DA2D8F12DC2D8F16DE2D0F3021004E
:100BC0008F00200008002100AE012E08093C031C04
:100BD000F32D23302E078400203085000318850A6A
:100BE0008001AE0AE52D20302000CE002330CD005C
:100BF00008001B30D321F73023009100023092000F
:100C00002000F3231B30D3210A302300910003304E
:100C100092002000F3231B30D321113023009100D8
:100C2000033092002000F3231B30D3211B3023001C
:100C30009100033092002000F32308002400951354
:100C40002000911121004408240091000230951BDE
:100C5000302E2000911D2A2E00302400161B01305A
:100C6000F800200008000B082100C5008B132300AA
:100C700095171514000000000318672E13087F391C
:100C80002100C600230011082100C700230012081C
:100C90002100C800460864002000111A512E2100CE
:100CA0004B2E23009A0021004708230091002100C9
:100CB0004808230092009517151400000000210039
:100CC000C40B632E652E2300672E8C2E2300130D7C
:100CD000140D7F392100C600230011082100C70030
:100CE000230012082100C800460864002000111AE1
:100CF0007B2E2100752E23009A0021004708230037
:100D000091002100480823009200910A0319920AD9
:100D100003102100C40B372EC51B8B1720000800C1
:100D200021004B08F8014A020318992E4A08F700DF
:100D3000A52EF7010830CC00CA0DF70D4B0877023D
:100D40000318F700F80DCC0B9C2E20000800780843
:100D500021004508CA006430CB00200090267708A7
:100D60002100C50078083030031DBD2EC61CCB2ED7
:100D7000C619CB2E461A2030C02EC6114612461474
:100D8000F807780864002000111AC82E2100C22E2E
:100D900023009A0021004508CA000A30CB00200039
:100DA000902677082100C50078083030031DDE2E1C
:100DB000C619E92E461CE92E461A2030F807780895
:100DC00064002000111AE62E2100E02E23009A0074
:100DD00021003030C507450864002000111AF22EAA
:100DE0002100EC2E23009A002000080021003D0E77
:100DF000BF00BF0DBF0DC030BF053E083F39BF0764
:100E0000240016141618022F50302100C4002000B0
:100E10001E2621003F08C40020001E2624001615AF
:100E20001619102FD63023009100023092000310C3
:100E30000E302100C4002000332621003D08C500EB
:100E40001B30C6002000A726DE30230091000230B0
:100E50009200031005302100C40020003326210039
:100E60003E08C5001B30C6002000A7260800210050
:100E70003B080739F7003B0CF800F80CF80C1F3062
:100E8000F80578083D07840000303E3D8500F801F4
:100E9000F80AF70A4C2FF80DF70B4B2FBC08031973
:100EA000542F78088004572FF8097808800520000F
:100EB0000800453023009100033092002000F32306
:100EC000080022003608B9003508BB003408BA0013
:100ED000B808031D6F2F3708003C0318862F3B0806
:100EE000FA003A0884007A08850039080002031DD8
:100EF0007E2F3A08F8003B08F900892FBA0A031937
:100F0000BB0A37080319B803B703682F0030F8008D
:100F1000F90020000800F701F8012100440803103F
:100F20004518F707F70CF80CC518F707F70CF80C7D
:100F30004519F707F70CF80CC519F707F70CF80C6B
:100F4000451AF707F70CF80CC51AF707F70CF80C59
:100F5000451BF707F70CF80CC51BF707F70CF80C47
:100F60002000080080080319CB2F05082100C600C7
:100F70000408C500000864002000111AC12F2100D8
:100F8000BB2F23009A0021004608850045088400F5
:080F900001312000B22F08001E
:10100000210033082000AC002100B3080319132885
:1010100001303302563E8400203085000318850AD3
:101020000008B8001428B8010130B700B401340832
:10103000033C031C7C28B308031D21283910B91078
:101040003428013034073302031D2C2839143708A3
:101050002000AB002E282100391020002100B910FB
:1010600038083705031DB9143408803120002D20BD
:1010700088312100BA00003039180130F7003A08F1
:10108000BB007708BC000130BE00BD0180312000EC
:101090003727883121003A08BB00BC01BE018030EF
:1010A000BD0080312000372788312100340880318D
:1010B0002000322088312100BA000030B9180130F8
:1010C000F7003A08BB007708BC000130BE00BD0144
:1010D000803120003727883121003A08BB00BC014D
:1010E000BE018030BD0080312000372788310310D9
:1010F0002100B70DB40A1728B308031D8328200068
:10110000AD01B428210001303302523E840020306A
:1011100085000318850A00082000AD002100B501F4
:101120003508033C031CB02801303302F700F70DEB
:10113000F70DFC30F705770835073C3E840020307A
:1011400085000318850A0008B6003508BD0036087A
:10115000BE0080312000F62688312100B50A902893
:10116000803120005927883108008031D923883107
:101170002200920191019401930115302100970002
:1011800024008D012000DA01D901D801AB01AD01A5
:10119000AC01C001FF306600003021008F0010104C
:1011A00090101011901591168B150F302700940494
:1011B00095048B1515161412C0308B0422008F1362
:1011C0008F160F160F13803120004824883101300C
:1011D0002100B900803120007C25883122000F16C3
:1011E0008F160F132100BB010130BC00803120009D
:1011F000912588312100BB010130BC0080312000E5
:10120000912588310C302100BB000130BC008031B9
:1012100020009125883101302100BB00BC008031C5
:10122000200091258831A4018B1BA4178B1301305A
:101230002200C000803120003B228831A41B8B1784
:101240008031E32588318031F92588319D30670070
:101250002100BD01BE0180312000F6268831013019
:101260002100BD00BE0180312000F6268831023009
:101270002100BD00BE0180312000F62688310330F8
:101280002100BD00BE0180312000F6268831C20158
:101290003C30C10021001508C039073895008B1675
:1012A000B30120000020AA302300910003309200F7
:1012B00080312000F32388318031592788318831EB
:1012C0006B2F21005108520403196A295208FA00B1
:1012D00051086F2920002608FA0025082100D500B2
:1012E0007A08D6005608DA005508D9005408DC0000
:1012F0005308DB005A08DE005908DD005E08FA00DA
:101300005D0884007A08850080080319B8295C0804
:10131000E0005B08DF006008FA005F0884007A08DC
:1013200085008008031D9E2959085D02F7005A08B0
:101330005E3BFA007708F800C029B0295E08FA0081
:101340005D0884007A0885000008E1006008FA0062
:101350005F0884007A088500000861020319B42937
:10136000DF0A0319E00A8B29DD0A0319DE0A7E2948
:1013700059085D02F7005A085E3BFA007708F8004A
:101380007808D5070030D63D5608FA005508840085
:101390007A0885008008031DD929200025088400CB
:1013A00026088500203080000030F800F9003E2A31
:1013B00021005608DA005508D9005408DC0053080B
:1013C000DB005A08DE005908DD005E08FA005D08FF
:1013D00084007A088500800803191A2A5C08E00056
:1013E0005B08DF006008FA005F0884007A08850067
:1013F00080080319162A5E08FA005D0884007A083E
:1014000085000008E1006008FA005F0884007A089F
:10141000850000086102031D122A5D08F8005E08BD
:10142000F9001D2ADF0A0319E00AF229DD0A03196F
:10143000DE0AE5290030F800F9007908D8007808BC
:10144000D7005808FA00570884007A0885008008F9
:101450000319322A57088400580885008001D70AEA
:101460000319D80A58082000A600210057082000B8
:10147000A50021005508F8005608F90020000800D2
:101480002100DD01DC013030DF003130E00032309E
:10149000E1003330E2003430E3003530E400363030
:1014A000E5003730E6003830E7003930E8006130D9
:1014B000E9006230EA006330EB006430EC00653034
:1014C000ED006630EE006730EF0068302200A000CB
:1014D0006930A1006A30A2006B30A3006C30A40018
:1014E0006D30A5006E30A6006F30A7007030A800E8
:1014F0007130A9007330AA007430AB007530AC00B5
:101500007630AD007730AE007830AF007930B00083
:101510007A30B100B20121005208D7005108D6003C
:101520005708FA00560884007A0885000008203C15
:10153000031D9E2AD60A0319D70A902A5708FA00D3
:10154000560884005708850000082D3C0319B22A6C
:101550005708FA00560884005708850000082B3CFD
:10156000031DBD2A5708FA005608D60A0319D70AE0
:1015700084007A0885000008BE2A2B30DE005E0851
:101580002D3C0319CE2AD51BCE2A550BC82ACE2AAC
:10159000D51BD02A5508243C0318D02A292C5C2BB3
:1015A000D5080319252B5508103C031DF72A5708A9
:1015B000FA00560884007A0885000008303C031DB4
:1015C000F72A560884005708850001310008783C46
:1015D0000319F32A560884005708850001310008D2
:1015E000583C031DF72A0230D6070030D73D550876
:1015F000083C031D092B5708FA00560884007A0896
:1016000085000008303C031D092B0130D60700304F
:10161000D73D5508023C031D242B5708FA005608F5
:1016200084007A0885000008303C031D242B5608EE
:1016300084005708850001310008623C031D242BFB
:101640000230D6070030D73D5C2B5708FA00560809
:1016500084007A0885000008303C0319322B0A30D8
:10166000D5005C2B5608840057088500013100081E
:10167000783C0319442B5608840057088500013133
:101680000008583C031D4B2B1030D5000230D60704
:101690000030D73D5C2B5608840057088500013187
:1016A0000008623C031D5A2B0230D500D6070030DB
:1016B000D73D5C2B0830D5005708D9005608D80014
:1016C0005708FA00560884007A0885000008303C64
:1016D000031D6E2BD60A0319D70A602B5708FA0090
:1016E000560884005708850000082200B300403CDB
:1016F0000318812B33085A3C031C812B33082038F4
:10170000822B3308B3002030B5008F30B40033088B
:10171000B600B801210055082200B7008031200032
:101720006127883179082100DB007808DA00DA08BF
:10173000031D9D2BDB080319212CFA015508F70026
:10174000F71BFA032200B3007A08B40021005D08F9
:101750002200B60021005C082200B5003408B80061
:101760003308B700360838068039BA00B61FBD2BDB
:10177000B509B609B50A0319B60AB81FC42BB709CB
:10178000B809B70A0319B80A1030B900F701FA010D
:10179000B60CB50C031CD22B3708F7070318FA0A4E
:1017A0003808FA07FA0CF70CF90CF80CB90BC82B2F
:1017B000BA1FDF2BF809F909F80A0319F90A7908A1
:1017C000B4007808B3008F3021005A02F7002030AF
:1017D0005B3BFA007708220033072100DC007A081F
:1017E0002200343D2100DD00D60A0319D70A57082C
:1017F000FA00560884005708850000082200B3004C
:10180000403C03180A2C33085A3C031C0A2C3308AA
:1018100020380B2C3308B3002030B5008F30B400D3
:101820003308B600B801210055082200B700803106
:1018300020006127883179082100DB007808DA0070
:10184000972B56085802031D392C57085902031DBF
:10185000392C530854040319352C530884005408B8
:101860008500510880005208813F0030F800F900DF
:10187000492C530854040319452C53088400540878
:101880008500560880005708813F5C08F8005D0815
:10189000F9002000080021005208FA0051088400D5
:1018A0007A0885000008D5005408FA00530884001F
:1018B0007A088500000855020319B42C5208FA0072
:1018C000510884007A0885000008D5005508403C7E
:1018D00003186E2C55085A3C0318762C5508603CAA
:1018E0000318CA2C55087A3C031CCA2C5408FA0069
:1018F000530884007A0885000008D5005508403C4C
:101900000318862C55085A3C03188E2C5508603C49
:101910000318CA2C55087A3C031CCA2C5208FA003A
:10192000510884007A0885000008D5005408FA00A0
:10193000530884007A0885002030000755020319F7
:10194000B42C5408FA00530884007A088500000873
:10195000D5005208FA00510884007A08850020302A
:1019600000075502031DCA2C5208FA0051088400D2
:101970007A0885008008031DC02C0030F800E02C98
:101980005208FA005108D10A0319D20AD30A0319DE
:10199000D40A4C2C5208FA005108840052088500E1
:1019A0000008D5005408FA00530884005408850044
:1019B000000855020318DE2CFF30DF2C0130F80040
:1019C00020000800AC0803196E2D01302C02F7002E
:1019D000F70DF70DFC30F705770840073C3E210076
:1019E000B9002030BA000318BA0A390884003A084E
:1019F00085000008BB00390884003A0885003808D3
:101A00003B0780003A08FA00390884003A0885004C
:101A10000008BC00200040082100BD003C08BE00BA
:101A200080312000F626883121003A08FA00390872
:101A300084003A0885000008BC00C33023009100F0
:101A400003309200031010302100C40080312000C8
:101A5000332688312C082100C5001B30C600803198
:101A60002000A7268831CC3023009100033092005B
:101A7000031006302100C400803120003326883155
:101A800040082100C5001B30C60080312000A72679
:101A90008831D030230091000330920003100430CD
:101AA0002100C400803120003326883121003C0809
:101AB000C5001B30C60080312000A72688310A30BF
:101AC0006400111E602D23009A000D306400200078
:101AD000111A6C2D2300662D23009A0020000800A7
:101AE00020302100451E3030C6004408F700C41FD6
:101AF000812DF709F70A7708C4002D30C600C517F5
:101B000045144408CA006430CB0080312000902680
:101B1000883177082100C40030307807C7004408B6
:101B2000CA000A30CB008031200090268831303046
:101B300077072100C90030307807C8004608F70051
:101B4000303047020319A82DC514C51B4515BC2DFF
:101B50004608C7002030C600303048020319B42DB3
:101B60004514C51BC514BC2D031D4514031DBC2DF8
:101B70004708C8002030C7004519C32DC518CD2D12
:101B80004518D72DE12D460864002000111ACA2DF2
:101B90002100C42D23009A00210047086400200082
:101BA000111AD42D2100CE2D23009A0021004808BF
:101BB00064002000111ADE2D2100D82D23009A0088
:101BC0002100490864002000111AE82D2100E22DAF
:101BD00023009A00200008002100AC010130AD0074
:101BE000B10170080F3920005A042100B000200014
:101BF000AD080319072E2100300820002B05031D16
:101C0000072EAD01AB0101302100B1002000210001
:101C1000AE01B2013208033C031C2E2E30082D0504
:101C20000319282E52303207840020308500031813
:101C3000850A0008AF002F0820002D020318292E66
:101C400021002F08AC0001303207AE000130B10096
:101C5000200003102100AD0DB20A0A2EB1080319AD
:101C6000662EE23023009100023092000310103003
:101C70002100C40080312000332688315A08210019
:101C8000C5001B30C60080312000A7268831EB300C
:101C90002300910002309200031014302100C40090
:101CA000803120003326883170082100C5001B30A8
:101CB000C60080312000A726883121002E08B300FD
:101CC000200000208031592788312100B008031DF1
:101CD0006C2E20003F16210088312000782FD10182
:101CE0002100AE010530AF002E082F02031CA02EEC
:101CF0002E08093C031CA02E32142E08B100310816
:101D00002F02031C9F2E23303107840020308500D2
:101D10000318850A00080F39B000B21023303107CC
:101D20008400203085000318850A0018B21430089A
:101D30000C3C03199C2EB21C3210B10A7F2EA12E2E
:101D40003210003032180130F800F80803192E2F35
:101D5000200043080F392100AF00C4000A30C5003D
:101D6000803120008B27883178082100AE002000C8
:101D700044080F3921002E07AC00200045080F3918
:101D80002100AF00C4000A30C500803120008B273D
:101D9000883178082100AE00200046080F39210064
:101DA0002E072000CF0047080F392100AF00C400E4
:101DB0000A30C500803120008B2788317808210047
:101DC000AE00200048080F3921002E072000D00067
:101DD00006302100AD002D08AE002E080A3C031C81
:101DE0000A2F23302E078400203085000318850A2F
:101DF000001E082F23302E07840020308500031892
:101E0000850A00080F390C3C0319082F2F14092FDD
:101E10002F100B2F2F1000302F180130F800F8086A
:101E200003192E2F200051082100C4000A30C500DC
:101E3000803120008B27883178082100AE002330C4
:101E40002D078400203085000318850A00080F390B
:101E50002E072000D1002100AD0AEB2E71082C02C4
:101E6000031D3A2F90312000002088318031E32576
:101E70008831210088312000CC2F850184011F305A
:101E800083057230210099008E150E16240017105C
:101E9000971097111330920028309500941714135F
:101EA0000C3023009B00A2309E0090309D002F003C
:101EB00091019201980199019A0123008C018D01F1
:101EC0008F01900122009201910194019301200061
:101ED000A501A601B52864003F1C752F90319E2AEC
:101EE00088318031D92388313F10BF1C792FEC2DE8
:101EF000BF10BF1DC92FD5302300910003309200C1
:101F000080312000F32388312100AA012A08093CEE
:101F1000031CB22F23302A078400203085000318C9
:101F2000850A001EB02F23302A0784002030850048
:101F30000318850A00080F39AB0020306400200028
:101F4000111AA42F21009E2F23009A0021002B0894
:101F5000C5001B30C60080312000A7268831210033
:101F6000AA0A862F0A3064002000111AB92F210016
:101F7000B32F23009A000D3064002000111AC22FE5
:101F80002300BC2F23009A0080312000592788317C
:101F9000BF113F1DCD2F6F2E3F113F1ED32F80311C
:0A1FA000E32588313F126B2F630028
:1020000002304F02F73E0318902A093E912A5108E8
:10201000FF3C031D32280A306400111E0C282300E7
:102020009A000D3064002000111A1828230012288D
:1020300023009A0085012000500884008031B227D7
:10204000903120306400111E222823009A002000C5
:1020500051082100C5001B30C60080312000A72692
:1020600090318F28500DF700F70DFC30F7057708F9
:102070002100BA003A0A8031200003219031FA0091
:1020800021003A0880312000032190312100B8005E
:102090007A08B90038088400390885002000510802
:1020A00080005008D8000130D900B73023009100DB
:1020B0000330920003100A302100C4008031200058
:1020C0003326903120308500323084008031B227B1
:1020D000903128306400111E6A2823009A002000E5
:1020E00050082100C5001B30C60080312000A72603
:1020F0009031BE302300910003309200031405306C
:102100002100C40080312000332690315108210085
:10211000C5001B30C60080312000A7269031902AD0
:10212000500DF700F70DFC30F70577082100B800D7
:10213000380A8031200003219031FA00210038084C
:1021400080312000032190312100B5007A08B600CB
:1021500020005008D8000130D900902A80310B258A
:102160009031902A510BB82821003714BA2820004A
:1021700021003710003037180130B800B900803125
:1021800020007C259031902A01302100B800883150
:102190002000E2249031902AFF302100B8008831DD
:1021A0002000E2249031902A8031482490318031FF
:1021B000F9259031A4018B1BA4178B130130220049
:1021C000C000803120003B229031A41B8B1778087F
:1021D0002100BD00B8013808213C031C7D293808C6
:1021E000C4000630C500803120008B27903178086C
:1021F0002100C400C5014408C600203085006E30AF
:102200008400450884070030853D46088031200061
:102210003720903180000038031913292100C60AA5
:10222000C50AFD2820002100380DF700F70DFC300D
:10223000F7057708C400440A80312000032190315B
:10224000FA00210044088031200003219031210050
:10225000BB007A08BC003C08FA003B0884003C083C
:1022600085000008C4005B3064002000111A3A2980
:102270002100342923009A0021003808C5000130CC
:10228000C60080312000A72690315D306400111E09
:10229000462923009A00203064002000111A522998
:1022A00023004C2923009A00203085006E308400E2
:1022B00080312000B227903120306400111E5D294A
:1022C00023009A0021004408C5001B30C60080315D
:1022D0002000A72690310A306400111E6C292300CB
:1022E0009A000D3064002000111A78292300722909
:1022F00023009A002100B80AEB281F302300910028
:1023000003309200031009302100C4008031200006
:10231000332690315A082100C5001B30C600803199
:102320002000A72690312430230091000330920032
:1023300003140D302100C400803120003326903179
:1023400070082100C5001B30C60080312000A72680
:10235000903129306400111EAA2923009A002D30E3
:10236000910003309200031010302100C40080312E
:1023700020003326903121003D08C5001B30C600E7
:1023800080312000A72690310A306400111EC52933
:1023900023009A000D3064002000111AD129230077
:1023A000CB2923009A00383091000330920080310D
:1023B0002000F3239031240016141618DD29513023
:1023C0002100C400803120001E2690312100B80178
:1023D0003808033C031C3A2A3808033C031DF22941
:1023E000B901F4290130B9003908F70024001513A8
:1023F00096159619F92977189612771C96161616BF
:10240000161A002A1108F80078082100BA003F3097
:10241000BA053F30230091000330920003100530CD
:102420002100C4008031200033269031210038087B
:10243000C4001830C5008831200070259031293043
:102440006400111E202A23009A003D306400200001
:10245000111A2C2A2300262A23009A0021003A0868
:10246000C4001830C500883120007025903121004B
:10247000B80AE8292400161516193C2A80312000D4
:1024800059279031902A0100902A51080A3C031DD7
:102490004B2AD101502AD108031D502A0A30D100FD
:1024A00051080F392100B8003808B9003908BB00BD
:1024B000BC01803120009125903105302100BB0006
:1024C0000130BC0080312000912590312100BA01FB
:1024D0003A08043C031C882A6430BB002030850085
:1024E0006B30840000080319862A0230F800BF30E0
:1024F000F7006400F70B792AF80B772A9630F7007B
:10250000F70B802A832A6400800B752ABA0A682A8E
:102510000430BB000130BC00803120009125903197
:1025200008000A108A140A11820707289028AE288A
:10253000B228C428CC28D428432A452A2100D10116
:10254000D2012030850065308400510884070030B6
:10255000853D5208803120009D2190318000003857
:102560000319B72A2100D20AD10AA12A200020305B
:102570002100D2000E30D1002030D4006530D300CD
:10258000883120006121903179082100D00078083D
:10259000CF00CF08031DCF2AD0080319E92A50081D
:1025A000D4004F08D3002030D2007130D10054083D
:1025B0008500530884000008D500520885005108A2
:1025C00084005508800080080319E92AD10AD30A3B
:1025D000D72AD201D1012030D4006530D300883110
:1025E00020006121903179082100D0007808CF00C7
:1025F000CF08031DFE2AD0080319182B5008D40059
:102600004F08D3002030D2003230D100540885006A
:10261000530884000008D500520885005108840042
:102620005508800080080319182BD10AD30A062BFD
:10263000D201D1012030D4006530D3008831200090
:102640006121903179082100D0007808CF00CF08AF
:10265000031D2D2BD0080319572B5008D4004F0809
:10266000D3002030D2006D30D100540885005308CB
:1026700084000008D50052088500510884005508E0
:10268000800080080319472BD10AD30A352B20304C
:10269000D2006D30D100D401D3010A30D500883189
:1026A0002000402290317808D1005A2B2100FF30C1
:1026B0002000D1002100D101D201203085007930E5
:1026C0008400510884070030853D52088031200085
:1026D000A2219031800000380319732B2100D20A07
:1026E000D10A5D2B200020302100D2007930D100AA
:1026F0002030D4007130D300883120004B24903139
:10270000F808031D8C2B5108FF3C031D8A2B033056
:10271000CF008C2B0230CF002100D101D20120301C
:10272000850079308400510884070030853D5208C7
:1027300080312000A7219031800000380319A52B9B
:102740002100D20AD10A8F2B200020302100D20094
:102750007930D1002030D4007130D300883120008E
:102760004B249031F808031DB72B0430CF00210013
:10277000D101D201203085007930840051088407CE
:102780000030853D520880312000AD21903180001D
:1027900000380319D02B2100D20AD10ABA2B20000D
:1027A00020302100D2007930D1002030D4007130A7
:1027B000D300883120004B249031F808031DE22B10
:1027C0000530CF002100D101D201203085007930C1
:1027D0008400510884070030853D52088031200074
:1027E000B6219031800000380319FB2B2100D20A5A
:1027F000D10AE52B200020302100D2007930D10011
:102800002030D4007130D300883120004B24903127
:10281000F808031D0D2C0830CF002100D101D20192
:102820002030850079308400510884070030853DD0
:10283000520880312000BE219031800000380319F9
:10284000262C2100D20AD10A102C20002030210091
:10285000D2007930D1002030D4007130D3008831DB
:1028600020004B249031F808031D382C0930CF008C
:102870002100D101D2012030850079308400510837
:1028800084070030853D520880312000C6219031F8
:10289000800000380319512C2100D20AD10A3B2CA8
:1028A000200020302100D2007930D1002030D40027
:1028B0007130D300883120004B249031F808031D7B
:1028C000632C0A30CF002100D101D20120308500D5
:1028D00079308400510884070030853D52088031EA
:1028E0002000CD2190318000003803197C2C21007C
:1028F000D20AD10A662C200020302100D200793083
:10290000D1002030D4007130D300883120004B2416
:102910009031F808031D8E2C0630CF002100D10124
:10292000D2012030850079308400510884070030BE
:10293000853D520880312000D02190318000003840
:102940000319A72C2100D20AD10A912C2000203093
:102950002100D2007930D1002030D4007130D30072
:10296000883120004B249031F808031DB92C073022
:10297000CF00FF30D0002100AC012C08213C031C0B
:10298000FC2C2C08C4000630C500803120008B27A9
:10299000903178082100B500B6013508B700203025
:1029A00085005D308400360884070030853D370897
:1029B0008031200037209031800000380319E52C49
:1029C0002100B70AB60ACF2C200020302100D20007
:1029D0003230D1002030D4005D30D3008831200067
:1029E0004B249031F808031DF92C21002C082000FD
:1029F000D0002100AC0ABD2C20005008FF3C031D74
:102A0000642D20302100D2003230D100D401D30116
:102A10000A30D50088312000402290317808D1005A
:102A20002100B501B601203085005D3084003508F5
:102A300084070030853D3608803120008C2190319C
:102A4000800000380319292D2100B60AB50A132D7C
:102A5000200020302100D2003230D1002030D400BC
:102A60005D30D300883120004B249031F808031DDD
:102A70003B2D0130D1002100B501B6012030850089
:102A80005D308400350884070030853D360880318C
:102A9000200094219031800000380319542D21002A
:102AA000B60AB50A3E2D200020302100D200323077
:102AB000D1002030D4005D30D300883120004B2479
:0E2AC0009031F8080319D10100208831702FE1
:083FB800AA346A345A3456346D
:103FC000553455349534A534A934AA346034953425
:103FD0009934943440345934A434553450346A34C8
:103FE00098346534A0349034A8346934A6346434E9
:103FF0005434803458345634683496349A34A53462
:020000040001F9
:04000E00E40FFF1EDE
:00000001FF
;PIC16LF1937
;CRC=CCF5  CREATED="24-Apr-13 17:58"
