:100000009831822E0000080083018A0120007708C1
:10001000A0007808A1007908A2007A08A3007B0854
:10002000A4008B1D15280B182B288B1E19280B19C3
:100030002D28850191308400801E2028911A2F28B8
:100040002008F7002108F8002208F9002308FA0028
:100050002408FB0009008031482B80317A2B803145
:10006000EB2A0B0060346134623463340B00643477
:100070006534803481340B007134753482340B0064
:100080006E346F3470340B0040342034EF3401345C
:10009000423420340F3403340C34203420340334FD
:1000A0000D342034203403340E342034203403340F
:1000B0000F342034203403341034203420340334FB
:1000C00011342034203403341234203420340334E7
:1000D00013342034203403341434203420340334D3
:1000E00015342034203403341634203420340334BF
:1000F00017342034203403341834203420340334AB
:1001000019342034203403341A3420342034033496
:100110001B342034203403341C34203400340134A4
:100120001D342034003401341E34203400340134B2
:100130002234203401340134233420340134013496
:10014000243420340134013425342034043403347D
:100150002634203406340334273420340634033460
:100160002834203402340334293420340E34033448
:100170002A3420340D3403342B3420340B3403342C
:100180002C342034073403344334203434340334DF
:1001900044342034123403342D3420341F340334D7
:1001A0002E3420340E3403342F34203402340334FC
:1001B000303420341B340334313420340E340334CF
:1001C00032342034113403343334203401340334D2
:1001D00034342034003403343534203400340334D0
:1001E00036342034113403343734203400340334AB
:1001F00038342034003403343934203404340334A4
:100200003A342034033403343B3420340034033490
:100210003C342034213403343D3420340B34033453
:100220003E34203400340334453420340034033465
:100230004634203401340334483420340034033449
:100240004A3420340034003476340034003402342C
:100250000B0065346534703472346F346D3400349F
:100260000B00643465346634613475346C34743432
:1002700000340B00443454344D3446343A340034A2
:100280000B0020342C343B340D3400340B00733419
:100290006534743400340B005334413456344534DF
:1002A00000340B0052344534533454344F345234F8
:1002B000453400340B007334743461347434753451
:1002C000733400340B007234653462346F346F342D
:1002D000743400340B00643400340B00693432345D
:1002E000633400340B006D346F347234733465340E
:1002F00000340B002B3400340B002D3400340B0081
:100300006E3400340B00433450344F3454340034D2
:100310000B00613464346D3469346E340034453418
:100320004E34003400340034003450344F344C34F4
:100330000034003400345234313447343134003422
:1003400000345234313447343234003400345234BF
:100350003134473433340034003452343134473488
:1003600034340034003452343234473431340034BD
:10037000003452343234473432340034003452348E
:100380003234473433340034003452343234473456
:10039000343400340034523433344734313400348C
:1003A000003452343334473432340034003452345D
:1003B0003334473433340034003452343334473424
:1003C000343400340034523434344734313400345B
:1003D000003452343434473432340034003452342C
:1003E00034344734333400340034523434344734F2
:1003F0003434003400345834493431340034003457
:100400000034583449343234003400340034583421
:100410004934333400340034003458344F343134E8
:1004200000340034003458344F3432340034003453
:10043000003458344F3433340034003400345234F0
:1004400031345034003400340034523432345034B7
:100450000034003400345234333450340034003427
:1004600000345234343450340034003400345234C4
:1004700031345034543454340034523432345034DF
:1004800054345434003452343334503454345434A7
:1004900000345234343450345434543400345334EB
:1004A000493444340034003400345434583449342A
:1004B0004434003400344D34523453343134003435
:1004C00000344D34523453343234003400344D341B
:1004D000523453343334003400344D3452345334B2
:1004E0003434003400344D34523453343534003411
:1004F00000344D34523453343634003400345834DC
:100500004F344F3431340034003458344F344F3486
:1005100032340034003458344F344F3433340034E0
:10052000003458344F3441343134003400345834BA
:100530004F34413432340034003458344F34413471
:10054000333400340034583449344F3431340034B7
:100550000034583449344F34323400340034583481
:1005600049344F343334003400345834493441343E
:100570003134003400345834493441343234003496
:100580000034583449344134333400340034543462
:10059000413449344C340034003454344F345434EE
:1005A0000034003400344C3454344F3400340034BC
:1005B000003443344F345234003400340034433474
:1005C00050344F34543400346400111EE42A2300A4
:1005D0009A0020000800911E422B6400911EED2A13
:1005E000230019082200D2005208083C031D202BCA
:1005F000F30803191A2BF3035030730784002030DB
:1006000085000318850A800108302000E4221B3091
:10061000E4225B306400111E0A2B23009A004B3049
:1006200064002000111A162B2300102B23009A00BF
:100630001E2B220007302000E4222300442B22003E
:1006400073080F3C031C3F2B52082000E422730860
:10065000F30A503E8400203085000318850A2200EA
:100660005208800052080D3C03193D2B52082B3CC8
:1006700003193D2B52082D3C03197414432B0730EA
:100680002000E42222002300200091128031202843
:10069000270016080F3903196B2B20005F08220072
:1006A000D20020000D0862060F392200D30020007E
:1006B0006A081F392200D30420006B080F3922007A
:1006C00053042000DF005F0822005202031DF414CF
:1006D000F030270096050B1C712B2100E014270039
:1006E00016120B1C762B74173F3096050B108031B9
:1006F000200020282100300831040319842B300801
:100700000319B103B0039D2B20000D0862060F39B9
:100710002200D20020006A081F392200D2042000E3
:100720006B080F39220052042000DF00F414741506
:1007300074172100B1011E30B000320833040319D0
:10074000A52B32080319B303B2030B11803120002B
:1007500020288A06491943103A10CE37A020C32515
:100760002033F2376D10CC2144103A10A53A000026
:100770008A065039EF31E539F334EE33A021EF36F4
:10078000ED306E323A008A062010D334F43249221A
:1007900020103A10A53A00018A062010C337ED3622
:1007A000613764103A10A53A00018A0620104139D9
:1007B000E73AED326E3A3A10A53A00018A06201067
:1007C000D630EC3A651020103A10A53A00014919CC
:1007D000431425322910C32644103A102532000054
:1007E0005B183B1848008A06491943103A10CE3767
:1007F000A020C325201DA01275008A06D0377414CE
:10080000A53A291EBD127500C327521DA5392028FF
:10081000542ABA1273000A058D214F29BA12751095
:10082000A822ED3A6C1DA53AA91DA020753C4937B8
:10083000BA127510D427541DA53A00018A06442A1D
:100840004D23A029F430F43A73103A10A53A8A06E1
:1008500000008A06491943104539F23772103A10E0
:10086000CE37A020C3252033F2376D105429C92676
:10087000D027D429201DA0127500D027541DA531E2
:100880002532A012E3126410A5312532A012E31222
:1008900064000A058D20C42649273E1000010A0580
:1008A0008D21CF26CD204E223E1000008A06442AFC
:1008B0004D233D008A064937693A2029C126201E6A
:1008C0003D10C5225029CF2600018A064937693AD2
:1008D0002029C126201E3D10C82B20226533E13A75
:1008E0006C3A73008A06D330F634EE332029C126E1
:1008F000A0316F37E634E73AF230F4346F37A03482
:100900006E10C5225029CF262E008A0620104334AF
:10091000E531EB39F536A036E939ED30F4316817B9
:100920002029E539F437F234EE3320326533E13AE9
:100930006C3A203B6136F532731700008A06D332D9
:10094000743A69376710A539A812F514203A6F1068
:10095000A53A00008A062310502A5410D434ED32F0
:10096000EF3AF4100A008A062310CC34EE35202A20
:10097000E936E537753A2105000010302100E40022
:10098000E301640863020318CF2C5030630784002E
:10099000203085000318850A8001E30AC12CF30189
:1009A0007410FF30FC00C001F001200008000B08AB
:1009B0002200B8008B1323009517151400000000C7
:1009C00013087F390319272D2200B90023001108CD
:1009D0002200BA00230012082200BB00390864007C
:1009E0002000111AF52C2200EF2C23009A0022007F
:1009F0003A082300910022003B082300920095173B
:100A0000151400000000130D140D7F390319272D54
:100A10002200B900230011082200BA0023001208A6
:100A20002200BB00390864002000111A192D220091
:100A3000132D23009A0022003A082300910022007F
:100A40003B0823009200910A0319920ADC2C220031
:100A5000B81B8B17200008002200350884003608D8
:100A600085000008B80038087F3C031CB80A031052
:100A7000380D093A3707B800350884003608850074
:100A8000380880002000080001302200AF00B001CB
:100A9000B2002B0B542D5A302300910004309200E9
:100AA0002000D7245B2D2200653023009100043004
:100AB00092002000D7242200AC012C08383C031CF3
:100AC000BA2D2C0DF700F70DFC30F7057708B400B0
:100AD000340A20004320FA0022003408200043207A
:100AE0002200AD007A08AE002B0BA62D2C0DF700CE
:100AF000F70DFC30F7057708033E20004320F8008F
:100B00007818842D2200A62D2200300823009100A1
:100B10009513151413082200B3002D0884002E0825
:100B20008500330880002E08FA002D0884002E0866
:100B300085000008B4002030B600AF30B50034089E
:100B4000B70020002C252200B00AB82D2C0DF7008C
:100B5000F70DFC30F7057708023E20004320F8002F
:100B60002200B1002D0884002E0885003108800085
:100B7000AC0A5D2D2B0BC62D300823009100951378
:100B80001514130822002F02031DB2013208F800C9
:100B90002000080001302200AF00AC01AB012B089F
:100BA000383C031C282E2B0DF700F70DFC30F70501
:100BB0007708B100310A20004320FA0022003108F2
:100BC000200043202200AD007A08AE002B0DF70074
:100BD000F70DFC30F7057708033E20004320F800AE
:100BE000781C252E22002D0884002E088500000880
:100BF000B0002C082300910095131514130822004F
:100C0000300203191A2E0B08F7008B132C0823004F
:100C100091002200300823009300951315155530DC
:100C20009600AA30960095149518142E1511770881
:100C30008B0422002030B600AF30B5003008B7007A
:100C400020002C252200AC0A20002200AB0ACF2D68
:100C50000B08F7008B132C082300910022002F08AB
:100C6000230093009513151555309600AA30960071
:100C700095149518392E151177088B047230910050
:100C8000043092002000D724080022002A08AB007C
:100C900020004425F808031D592E853023009100BB
:100CA000043092002000D7242200AB01200044250C
:100CB000CA250800003021008F00220042104008A1
:100CC0000F390139031D42144218682E0F10692E86
:100CD0000F14421040080F390239031D4214421804
:100CE000732E8F10742E8F14421040080F39043960
:100CF000031D421442187E2E0F117F2E0F15421035
:100D000040080F390839031D42144218892E8F11EB
:100D10008A2E8F15C108031D8F2E0F13902E0F17CB
:100D2000912E8F12932E8F16952E0F3021008F004B
:100D3000200008000F3021008F002200B808031D9A
:100D4000A32E0F13A42E0F1700000F120000200077
:100D50000F082200B9000F30B9050F16000039083E
:100D6000F8002000080024009513200091112200B3
:100D70004D08240091000230951BC52E2000911DC6
:100D8000BF2E00302400161B0130F80020000800A0
:100D90000B082200CE008B132300951715140000BA
:100DA00000000318FC2E13087F392200CF00230017
:100DB00011082200D000230012082200D1004F08A1
:100DC00064002000111AE62E2200E02E23009A0073
:100DD00022005008230091002200510823009200B5
:100DE00095171514000000002200CD0BF82EFA2EE6
:100DF0002300FC2E212F2300130D140D7F39220018
:100E0000CF00230011082200D00023001208220086
:100E1000D1004F0864002000111A102F22000A2F61
:100E200023009A002200500823009100220051085C
:100E300023009200910A0319920A03102200CD0B9D
:100E4000CC2ECE1B8B172000080022005008F80182
:100E50004F0203182E2F4F08F7003A2FF7010830E2
:100E6000D100CF0DF70D500877020318F700F80DE9
:100E7000D10B312F20000800780822004D08CF0048
:100E80006430D0002000252777082200CD007808A4
:100E90003030031D522FCE1C602FCE19602F4E1AFA
:100EA0002030552FCE114E124E14F80778086400EA
:100EB0002000111A5D2F2200572F23009A002200D4
:100EC0004D08CF000A30D0002000252777082200E7
:100ED000CD0078083030031D732FCE197E2F4E1CA5
:100EE0007E2F4E1A2030F807780864002000111A6F
:100EF0007B2F2200752F23009A0022003030CD076F
:100F00004D0864002000111A872F2200812F230032
:100F10009A002000080022003C0EBE00BE0DBE0D4F
:100F2000C030BE053D083F39BE0724001614161810
:100F3000972F50302200CD002000B32678082200E1
:100F40003F1078183F143F1CBC2F00303F18013071
:100F5000C000F330230091000330920003101130E1
:100F60002200CD002000C82622004008CD001B3002
:100F7000CE0020003C2722003E08CD002000B326F2
:100F8000240016151619C22FFD30230091000330DE
:100F90009200031006302200CD002000C826220057
:100FA0003C08CD001B30CE0020003C2729306400D7
:100FB000111ED72F23009A003C3064002000111A24
:100FC000E32F2300DD2F23009A003D306400200032
:100FD000111AEC2F2300E62F23009A0022003D086F
:0C0FE000CD001B30CE0020003C27080094
:1010000020308500C73084000008031918280230FA
:10101000F800BF30F7006400F70B0B28F80B092825
:101020009630F700F70B122815286400800B07286C
:10103000080022004208F70003102300951715143A
:101040000000000013088000840A910A0319920A24
:10105000F70B1F282000080001302200C000C1014A
:10106000803120005A2688310C302200C000013027
:10107000C100803120005A26883105302200C0008E
:101080000130C100803120005A268831053022000D
:10109000C0000130C100803120005A268831210073
:1010A000B3010230B200320833040319592800009A
:1010B000532804302200C0000130C10080312000DC
:1010C0005A2688316400080001302200C000C101A6
:1010D000803120005A2688310C302200C0000130B7
:1010E000C100803120005A26883105302200C0001E
:1010F0000130C100803120005A268831053022009D
:10110000C0000130C100803120005A268831210002
:10111000B3010630B20032083304031991280000ED
:101120008B2804302200C0000130C1008031200033
:101130005A26883164000800DB3022003C07C000DA
:101140001F30C1000318C10A410823009200220089
:1011500040082300910020308500BD30840001301C
:101160002200C200200019202100E0152200BE014B
:101170003E08033C031CE2283F143D08C039403AB6
:1011800020000319C728C03A0319C928CB282C20EE
:10119000CE286420CE2822003F1020002200BD0D62
:1011A000BD0DFC30BD053F1CE0282100B30102301D
:1011B000B200320833040319DF280000D9282200C6
:1011C000BE0AB8283C08093C031CF1283C08043C32
:1011D000031CEE2820006420F028220020002C2090
:1011E00022002000080022003D080739F7003D0CCE
:1011F000F800F80CF80C1F30F80578083F07840059
:101200000030403D8500F801F80AF70A0829F80D7A
:10121000F70B0729BE080319102978088004132941
:10122000F809780880052000080021006208850080
:101230006108840022004D081A0080012100E10AA3
:101240000319E20A200008000B082200C8008B13D3
:1012500023009517151400000000031853291308E4
:101260007F392200C900230011082200CA00230090
:1012700012082200CB004908CD00200015212200D1
:101280004A082300910022004B0823009200951782
:101290001514000000002200C70B4F29512923001C
:1012A000532973292300130D140D7F392200C9001F
:1012B000230011082200CA00230012082200CB00DC
:1012C0004908CD002000152122004A082300910082
:1012D00022004B0823009200910A0319920A03107E
:1012E0002200C70B2829C81B8B1720000800800884
:1012F00003198B2905082200BD000408BC00000862
:10130000CD002000152122003D0885003C08840006
:1013100001312000772908002400161416188E29A0
:1013200003102200470D0E396038CA004A08CD006C
:1013300080312000B3268831780822004B107818BD
:101340004B144B1CC5292100601FC329003022000B
:101350004B180130CC00A9302300910003309200DB
:1013600003101A302200CD0080312000C8268831B9
:1013700022004C08CD001B30CE00803120003C27DD
:10138000883121006013C729220021006017220044
:101390004908FA00480884007A0885008008031983
:1013A000E4294908FA004808C80A0319C90A840050
:1013B0007A0885000008CC00CD0080312000B326DB
:1013C00088312100C7292200CD0180312000B326B9
:1013D0008831240016151619EB292000080020304A
:1013E0002200481E3030C9004708F700C71F002AF6
:1013F000F709F70A7708C7002D30C900C817481445
:101400004708CF006430D000803120002527883184
:1014100077082200C70030307807CA004708CF009D
:101420000A30D000803120002527883130307707FE
:101430002200CC0030307807CB004908F70030306C
:101440004A020319272AC814C81B48153B2A490811
:10145000CA002030C90030304B020319332A481427
:10146000C81BC8143B2A031D4814031D3B2A4A0805
:10147000CB002030CA004819422AC818472A481809
:101480004C2A512A4908CD002000152122004A0883
:10149000CD002000152122004B08CD002000152191
:1014A00022004C08CD0020001521080080080319F7
:1014B0006F2A05082200C8000408C700000864005D
:1014C0002000111A652A22005F2A23009A002200B8
:1014D000480885004708840001312000562A08008A
:1014E00020302200BF00C000C100C200C301C401FF
:1014F000C501C6012830C7002000002024001614B2
:101500001618802A51302200CD0080312000B326E9
:10151000883178082200BE107818BE14BC013C083F
:10152000033C031CCC2A3C08033C031D992A3E10B3
:101530009A2A3E1400303E180130C7004708F700D1
:101540002400151396159619A32A77189612771C5E
:1015500096161616161AAA2A1108F80078082200FC
:10156000BD003F30BD05C3303C07840020308500FE
:101570000318850A3D088000760803393C02031DE4
:10158000CA2ABF303C078400203085000318850A32
:101590002A308000BC0A8F2A240016151619CE2A7C
:1015A00032302200C700200000202200BE1CF32A97
:1015B00000303E180130C70029302300910004306C
:1015C0009200031025302200CD0080312000C82673
:1015D000883122004708CD001B30CE00803120002A
:1015E0003C278831220020302100E2007630E100E3
:1015F0003D3023009100043092000310043022009B
:10160000C7002000242122003F08CD002000152122
:1016100022004308C7001830C8002000EF21203006
:101620002200CD002000152122004008CD0020001E
:10163000152122004408C7001830C8002000EF21FF
:1016400020302200CD002000152122004108CD00CD
:101650002000152122004508C7001830C8002000CE
:10166000EF2120302200CD00200015212200420869
:10167000CD002000152122004608C7001830C80000
:101680002000EF212200C7012030C9007630C800B9
:1016900020008C210A306400111E4B2B23009A007D
:1016A0000D3064002000111A572B2300512B23000A
:1016B0009A002030850076308400200056220800F1
:1016C00030302200B100B200B300B400B501B60062
:1016D000B700B800B900BA012B082000EF002200C3
:1016E000AB080319842B01302B02293E84002030E3
:1016F00085000318850A0008BC0020006008610509
:1017000022003C05B000C72BB001F41EC72BF41219
:101710002000ED08031D8F2BEC080319C62B640075
:1017200004302200BC00FA30C70020000020220054
:10173000BC0B932B2000ED080319B02B6D08220081
:10174000BC0020009C20ED01640002302200BC009F
:10175000FA30C700200000202200BC0BA82B20007C
:10176000EC080319C52B6C082200BC0020009C204B
:10177000EC01640002302200BC00FA30C7002000F7
:1017800000202200BC0BBD2B200064002200013091
:10179000AF00AC012C08033C031C322CAB08031D2A
:1017A000D42B3B10BB10E72B01302C072B02031D61
:1017B000DF2B3B142F082000EE00E12B22003B1012
:1017C00020002200BB1030082F05031DBB142C087D
:1017D00080312000312088312200BC0000303B18CD
:1017E0000130F7003C08BD007708BE000130C000A2
:1017F000BF012000F32022003C08BD00BE01C00153
:101800008030BF002000F32022002C08803120000F
:10181000362088312200BC000030BB180130F700B0
:101820003C08BD007708BE000130C000BF012000A9
:10183000F32022003C08BD00BE01C0018030BF0083
:101840002000F3202200BB1C2E2CB6302C07840075
:10185000203085000318850A313080000310AF0D59
:10186000AC0ACA2BAB08031D372CF101652C0130E3
:101870002B02253E8400203085000318850A0008CD
:10188000F100AD012D08033C031C622C01302B023A
:10189000F700F70DF70DFC30F70577082D070C3E24
:1018A0008400203085000318850A0008AE002D084A
:1018B000BC002E08BD00803120008B27883122001B
:1018C000AD0A422C2100E0152200AB080319A72C19
:1018D00001302B02B13E8400203085000318850AB8
:1018E0003130800020302100E2007630E100043009
:1018F0002300910004309200031004302200C7003E
:101900002000242120308500B13084007721073069
:101910002300910004309200031005302200C7001C
:101920002000242120308500B6308400772101304A
:101930002200C7002030C9007630C80020008C216A
:1019400032302200C7002000002070222200200038
:101950000800210060122200BD080319B22C2100EA
:10196000601622002100601EBC2C0A302000ED0011
:10197000FF30F500BF2C210018302000ED000800DA
:101980008031BD248831220092019101940193019C
:101990001730210097002000DF01EA01EB01F4126B
:1019A00021006010E0102000E7012100DB01FE01B2
:1019B0002000EE01F101EF01F60121001D10FF30C2
:1019C000660000308F0010109010101190159116C5
:1019D0008B15CF302700940495048B15151614121F
:1019E000C0308B0422008F138F160F160F13013097
:1019F000AA00803120004526883122000F168F165C
:101A00000F13C0010130C100803120005A268831F7
:101A10002200C0010130C100803120005A268831E7
:101A20000C302200C0000130C100803120005A2655
:101A3000883101302200C000C100803120005A26C8
:101A4000883101302200B800803120009A26883188
:101A5000210060150F302000E10062080F39C03806
:101A600024008D002100951380312000032088314F
:101A70009D306700803065002200BC01BD018031CF
:101A800020008B27883101302200BC00BD0180314D
:101A900020008B27883102302200BC00BD0180313C
:101AA00020008B27883103302200BC00BD0180312B
:101AB00020008B2788312100B1011E30B0001508AD
:101AC000C039073895008B162200AB012000602337
:101AD0001D302100DD003B30DC007412F411E015F4
:101AE00020006508EC00ED01BF01C001C1017413C5
:101AF000F2012200BD012000A9242100E01298314A
:101B00002000B52E22003C083D0403198B2D3D0812
:101B1000FA003C08902D20002708FA002608220031
:101B2000C0007A08C1004108C5004008C4003F0851
:101B3000C7003E08C6004508C9004408C800490857
:101B4000FA00480884007A08850080080319D92D16
:101B50004708CB004608CA004B08FA004A08840030
:101B60007A0885008008031DBF2D44084802F7004D
:101B70004508493BFA007708F800E12DD12D4908C6
:101B8000FA00480884007A0885000008CC004B0859
:101B9000FA004A0884007A08850000084C020319FC
:101BA000D52DCA0A0319CB0AAC2DC80A0319C90AD4
:101BB0009F2D44084802F7004508493BFA00770882
:101BC000F8007808C0070030C13D4108FA0040081D
:101BD00084007A0885008008031DFA2D200026085D
:101BE000840027088500203080000030F800F900CC
:101BF0005F2E22004108C5004008C4003F08C7000E
:101C00003E08C6004508C9004408C8004908FA0053
:101C1000480884007A088500800803193B2E47088D
:101C2000CB004608CA004B08FA004A0884007A082C
:101C3000850080080319372E4908FA0048088400F7
:101C40007A0885000008CC004B08FA004A08840096
:101C50007A08850000084C02031D332E4808F8005E
:101C60004908F9003E2ECA0A0319CB0A132EC80AE6
:101C70000319C90A062E0030F800F9007908C300DC
:101C80007808C2004308FA00420884007A088500F8
:101C900080080319532E4208840043088500800100
:101CA000C20A0319C30A43082000A7002200420801
:101CB0002000A60022004008F8004108F90020009A
:101CC0000800F701F8012200400803104118F70747
:101CD000F70CF80CC118F707F70CF80C4119F707C7
:101CE000F70CF80CC119F707F70CF80C411AF707B5
:101CF000F70CF80CC11AF707F70CF80C411BF707A3
:101D0000F70CF80CC11BF707F70CF80C20000800C3
:101D10002200BE01BF013E083C07840000303D3D6B
:101D2000850080080319BD2E3E083C078400003062
:101D30003D3D850000082F3C0318BD2E3E083C07A2
:101D4000840000303D3D85000008393C031CBD2E59
:101D50003F08C0000A30C100200061267808220038
:101D6000C0003E083C07840000303D3D8500303017
:101D700000024007BF00BE0A8B2E3F08F80020007B
:101D800008002200C00140083C07840000303D3DAF
:101D900085000008DF39C10040083E07840000309C
:101DA0003F3D85000008DF394102031DE52E400854
:101DB0003C07840000303D3D85008008031DE32E74
:101DC0000030F800E72EC00AC32E0130F8002000D2
:101DD000080010302200BE00F701FA01BB0CBA0C5B
:101DE000031CF82E3C08F7070318FA0A3D08FA0707
:101DF000FA0CF70CF90CF80CBE0BEE2E20000800C4
:101E00002200BC013C08053C031C272F3C08380776
:101E1000F8000030393DFA007808BD007A08BE00AD
:101E20003C083A07F80000303B3DFA0078082300F0
:101E300091007A08920022003E0885003D08840047
:101E40000130C200200019202200BC0A022F20000D
:101E500008002100601E2E2FFF30F500601A342F7D
:101E6000E01A342F0030352F0130F8002000080030
:101E7000760803392200B0002000EF080319772FFD
:101E800001306F02F700F70DF70DFC30F70577080A
:101E9000220030070C3EF8002030FA000318FA0A3E
:101EA0007808AD007A08AE002D0884002E08850061
:101EB0000008AF002D0884002E0885002C082F078D
:101EC000800020002927F8080319772F22002E0808
:101ED000FA002D0884002E0885000008B1003008A3
:101EE000BC003108BD00803120008B278831702272
:101EF0000800780822002A08CF006430D000803122
:101F000020002527883177082200AA007808303081
:101F1000031D912FAB1C9A2FAB199A2F2B1A20302F
:101F2000942FAB112B122B14F8077808CD0020004A
:101F3000152122002A08CF000A30D000803120006D
:101F40002527883177082200AA0078083030031D41
:101F5000AF2FAB19B52F2B1CB52F2B1A2030F8073C
:101F60007808CD002000152122003030AA072A0869
:101F7000CD002000152108002100601ECA2F493025
:101F8000230091000430920080312000D724883152
:101F9000D32F21004F302300910004309200803174
:101FA0002000D72488310800210067080739F7008E
:101FB000670CF800F80CF80C1F30F8057808680773
:101FC00084000030693D85000008F800F70AE92F19
:0C1FD000F80CF70BE82F90312000192DC1
:1020000001302200AB008831200060239031043081
:102010002200AB00FA30C700883120000020903148
:102020002200AB0B0A28A9012908053C031C34280F
:102030002D3029078400203085000318850A000808
:10204000AA002A08BC00883120009C209031210081
:10205000B3010630B20032083304031931280000FE
:102060002B282200A90A14280430AB00FA30C7003C
:1020700088312000002090312200AB0B3628F41468
:1020800020000800F0080319A628B83023009100AA
:102090000330920080312000D7249031C3302300D8
:1020A00091000330920003100E302200CD008031E9
:1020B0002000C826903163082200CD001B30CE00DE
:1020C000803120003C279031CC3023009100033038
:1020D000920003100E302200CD0080312000C8266F
:1020E000903170082200CD001B30CE0080312000DE
:1020F0003C279031D530230091000330920003102B
:102100000E302200CD0080312000C82690317C089E
:102110002200CD001B30CE00803120003C279031C2
:10212000DE30230091000330920003100E302200B5
:10213000CD0080312000C82690317D082200CD00DE
:102140001B30CE00803120003C27903102307002DD
:10215000F53E0318E22C0B3EE32C7D08FF3C031DEB
:10216000D7280A306400111EB22823009A000D30CF
:1021700064002000111ABE282300B82823009A000A
:1021800085017C088400883120005622903120305F
:102190006400111EC82823009A007D082200CD008B
:1021A0001B30CE00803120003C27903176297C0DF9
:1021B000F700F70DFC30F70577082200AC002C0A79
:1021C0008031200043209031FA0022002C08803119
:1021D0002000432090312200A9007A08AA0088310B
:1021E000200029279031F808031D03297C0DF700F2
:1021F000F70DFC30F7057708033E8031432090311E
:10220000F800F8180B292200290884002A08850004
:102210007D08800020002200290884002A0885000B
:102220000008AB007C08FE0001302100DB009E307E
:10223000230091000430920003100A302200CD00E8
:1022400080312000C8269031203085007030840015
:1022500088315622903128306400111E2C29230029
:102260009A007C082200CD001B30CE008031200077
:102270003C279031A53023009100043092000314D4
:1022800005302200CD0080312000C8269031220088
:102290002B08CD001B30CE00803120003C27903130
:1022A00022002A081F3C03186629FF3A031D5C29F7
:1022B00029080B3C031866292A08203C031C6629C0
:1022C000031D6D2929081B3C03186D292908763C3C
:1022D000031D7329AA08031D7329AC01883120004E
:1022E0003827903122002100E0152000E22C7C0DDF
:1022F000F700F70DFC30F70577082200A900290A3E
:102300008031200043209031FA00220029088031DA
:102310002000432090312100ED007A08EE007C0877
:10232000FE000130DB000130FA008F302200A900EE
:102330007A08AA00AC017C08AB002C08BB002B0873
:10234000BA00BD010630BC0088312000E92690317A
:10235000780822002907A10079082A3DA200203030
:10236000B900A330B8002208BB002108BA008831A8
:1023700020000027903121006E08FA006D088400CB
:102380006E08850000082200A90020302100E2002C
:102390007630E1005B302200CD008831200015212D
:1023A00090317C082200AA000130AB008831200067
:1023B000792790315D302200CD0088312000152131
:1023C000903120302200CD0088312000152190313D
:1023D00020308500A330840088317721903120306F
:1023E0002200CD00883120001521903122002908DB
:1023F000AA001B30AB0088312000792790310A30C9
:102400002200CD0088312000152190310D302200AE
:10241000CD0088312000152190310A306400111E52
:102420000E2A23009A000D3064002000111A1A2A87
:102430002300142A23009A0020308500763084007F
:10244000883120005622903102302200C70020300F
:10245000C9007630C800883120008C219031883145
:10246000BC279031E22C883129279031F8080319D4
:102470003C2A8031CA259031E22C7D0B432A210071
:102480006F14452A200021006F1088312000292771
:102490009031F8080319572A003021006F180130D5
:1024A0002200A900AA008031200045269031E22CAC
:1024B0007C080339F6007D082200AC00883120003A
:1024C000382790312100E0152000E22C7C080339E8
:1024D000F600FF302200C0007D08C10088312000D6
:1024E0006126903178082200A900AC0088312000D4
:1024F000382790312100E0152000E22C1B3080317C
:10250000E42290315B306400111E832A23009A007C
:10251000323064002000111A8F2A2300892A2300F8
:102520009A004A3064002000111A982A2300922A47
:1025300023009A001B3080312000E4229031F030DB
:10254000230091000330920080312000D724903185
:1025500080310320903101302200B800803120000A
:102560009A26903178082200B000B101AA01A90191
:10257000AA08031DBF2B2908383C031CBF2B0130C0
:10258000FA008F30B8007A08B9002A08BB00290881
:10259000BA00BD010630BC0088312000E926903128
:1025A000780822003807AC007908393DAD002030AA
:1025B000B900B230B8002D08BB002C08BA00883131
:1025C0002000002790312200290DB8002A0DB90003
:1025D000B80DB90DFC30B8053908FA003808BA0052
:1025E000380A8031200043209031FA0022003A0856
:1025F00080312000432090312200AE007A08AF00E5
:102600002F08FA002E0884007A0885000008B80018
:102610005B3064002000111A0F2B2200092B2300CD
:102620009A000B30840022002A08BA002908B90059
:102630000508C1000408C0003A0EF038BC00BC0711
:10264000E23EBD00323EBF003A080F39BD07BD076C
:10265000BF07E93EBE00BE07BE07390E0F39BE07F1
:10266000BF07BE0DBF0DBF09BF0D39080F39BF072A
:10267000BC0D0730BB000A30BF07BE03031C3C2B58
:10268000BE07BD03031C402BBD07BC03031C442B2A
:10269000BC07BB03031C482B013085003B30840082
:1026A00007304005401384073F30040203194017E8
:1026B0000008F700031D642B401B642B401A722B8B
:1026C000C019642B2030672BC01540123030F7073B
:1026D000770864002000111A6F2B2200692B230059
:1026E0009A0022000131401F542B5D30640020000D
:1026F000111A7C2B2200762B23009A0020306400D4
:102700002000111A852B23007F2B23009A002030F4
:102710008500B2308400883120005622903120306C
:102720006400111E902B23009A0022003808CD006F
:102730001B30CE00803120003C27903109306400EE
:10274000111E9F2B23009A00220029080339B8008C
:10275000B9013808033C031DBA2BB908031DBA2B75
:102760000A3080312000E42290310D308031E422A3
:10277000903122006400A90A0319AA0AB82AAB0101
:102780002B08023C031CDA2B1F302B07840020305F
:1027900085000318850A000BD82B0130F7002B08A1
:1027A000F8000319D62BF735F80BD32B7708B107B0
:1027B000AB0AC02B0B3023009100043092000310B1
:1027C00007302200CD0080312000C82690315F08FC
:1027D0002200CD001B30CE00803120003C279031FC
:1027E0000F302300910004309200031407302200C0
:1027F000CD0080312000C82690316A082200CD002B
:102800001B30CE00803120003C2790311430230053
:10281000910004309200031009302200CD00803175
:102820002000C826903122003108CD001B30CE0098
:10283000803120003C279031193023009100043072
:102840009200031405302200CD0080312000C826FC
:10285000903167082200CD001B30CE00803120006F
:102860003C2790311E302300910004309200031069
:1028700010302200CD0080312000C8269031220087
:102880003008CD001B30CE00803120003C27903135
:102890000A306400111E492C23009A000D30640098
:1028A0002000111A552C23004F2C23009A00883148
:1028B0002000702290312100E0152000E22C7C08DD
:1028C000023A03196A2C033A0319712C023A0319CC
:1028D000792C7B2C883129279031F808031D0100C1
:1028E000812C01302200BD0088312000A9249031C4
:1028F000812C0020812C2200BD0188312000A924D8
:102900009031E22C7D080339043E2200A0002030E3
:102910002100E2007630E100E7302300910003302F
:102920009200031004302200C700883120002421C7
:10293000903160302200C7001830C8008831200074
:10294000EF219031EA302300910003309200031010
:1029500008302200C7008831200024219031220055
:102960002008C7001830C80088312000EF219031BE
:102970000A306400111EB92C23009A000D30640047
:102980002000111AC52C2300BF2C23009A002030F0
:102990008500763084008831200056229031220054
:1029A0002008C7002030C9007630C80088312000D8
:1029B0008C219031E22C7D082200BC00883120005F
:1029C0009C20903108000A108A100A158207AD2851
:1029D0007729332A3D2A582A662A7E2A5F2CE22C40
:1029E000DB2C822C2100E3016308023C031C372D01
:1029F0001F306307E4002030E5000318E50A630890
:102A0000803120003F2090312100E6002200BD00EF
:102A10000130BE00C0018030BF0088312000F320AB
:102A2000903121006608E700E901E80188312000C3
:102A3000D42F903178182C2D1C302100630784008E
:102A4000203085000318850A80080319292D2000ED
:102A50002C2D00302E2D200001302100E7006508CC
:102A600085006408840067088000E30AF42C98312C
:102A70002000C32E220029101F3028078400203098
:102A800085000318850A8008031D291427081F39AB
:102A9000AA002708F039F700770EAB000F30AB051E
:102AA00001302602FC3E0318A12D043E2000A42D77
:102AB0002200291C602D27082000E105652D220039
:102AC0002708FF3A0F392000E1042200A12D22003F
:102AD000291C702DF41627082000EC00722D22000E
:102AE0002000EC012200A12D220029187D2DF416D2
:102AF00027082000EC007F2D22002000EC0122009E
:102B0000A12D2200291127082039031D2915003085
:102B100029190130AD000030291801302D06F800C8
:102B2000A9107818A914A91C9A2D2A082000EB04D2
:102B30009E2D22002A08FF3A2000EB052200A12D3D
:102B4000220090312000D02E0A148A100A15820724
:102B5000582D742D672D812D22002708AB002608E3
:102B6000AA002B08FA002A0884007A088500800849
:102B70000319BE2DAA0A0319AB0AB12D2908FA00C0
:102B8000280884007A08850080080319DA2D2808AF
:102B90008400290885000008AE002B0885002A085B
:102BA00084002E088000AA0A0319AB0AA80A031998
:102BB000A90ABE2D2A0884002B088500800126085A
:102BC000F8002708F9002000080030302100E60056
:102BD000E700E800E901EA00EB00EC00ED0120303D
:102BE000EE004130EF0044302200A0004D30A10043
:102BF0004930A2004E30A300A4012100E301630884
:102C0000023C031CD32E3330630784002030850040
:102C10000318850A0008E40036306307840020307A
:102C200085000318850A0008E50064082200A60054
:102C3000210065082200A700210063082200A800E7
:102C400027080F39A9002708F039F700770EAA00E6
:102C50000F30AA052608013A20000319332E033A43
:102C60000319462E5F2E22302200280784002030D0
:102C700085000318850A72082A062905031D422EBD
:102C80000030432E0130800020005F2E22302200D1
:102C900028078400203085000318850A29081F3979
:102CA000AD007A08AE002A08AD06031D5C2EAE0802
:102CB000031D5C2E00305D2E0130800020002200BC
:102CC000251022302100630784002030850003187E
:102CD000850A8008031D6F2E220025142100630839
:102CE000803120003B2090312200A60000302518C2
:102CF0000130F7002608BD007708BE000130C00093
:102D0000BF0188312000F320903122002608BD0049
:102D1000BE01C0018030BF0088312000F320903117
:102D2000220025189E2E9A3021006307840020304F
:102D300085000318850A31308000220039302100D7
:102D400063078400203085000318850A0008E4002A
:102D50003C3063078400203085000318850A000892
:102D6000E5001F3063078400203085000318850AC2
:102D7000000BC32E963063078400203085000318B3
:102D8000850A3130800064082200A6002100650811
:102D90002200A700210063082200A80020003A2D8D
:102DA0002100E30AFF2D2030E2007630E1004930B7
:102DB0002200CD0088312000152190313A302200C8
:102DC000CD008831200015219031203085009630CB
:102DD000840088317721903120302200CD00883165
:102DE0002000152190314F302200CD008831200085
:102DF000152190313A302200CD0088312000152174
:102E00009031203085009A308400883177219031CC
:102E10002100601E172F20302200A7007630A60068
:102E20002030A9009E30A8002000AC2521000330EE
:102E30002200C7002030C9007630C8008831200049
:102E40008C2190310800741D712FE52521005E084A
:102E50005F04031D302F2000E608031D4C2F2100C6
:102E60005E080319DF03DE032000E60803194B2F79
:102E700021005E085F0403193F2F20004B2FAA306A
:102E8000230091000430920080312000D72490313B
:102E90002100E0152000572FF2080319572F720860
:102EA000E7002200AB018831200060239031F50853
:102EB00003195C2FF503652F2100601E662F220089
:102EC000BD0188312000A924903121006400DC0874
:102ED00003196C2FDC036F2F3B30DC00F4157411E9
:102EE0002000F41D902F2100DD080319792FDD0348
:102EF0007C2F74161D30DD00F4112000E808031942
:102F0000902FE9080319862FE903902FB33023008F
:102F100091000430920080312000D724903160105D
:102F2000741EA82F640803390319A72F64080139F8
:102F3000031DA62F640802390319A72F640EF7009A
:102F40000F30F70577080F39600503190020741258
:102F50009831C72E01302200B800803120009A2617
:102F6000903178082100E400641DF92F2200B80197
:102F7000803120009A26903178082100E300601407
:102F8000E308031DC62F0A30E300CA2F63080A3C7A
:102F90000319E30163080B3C0319601563080C3C3B
:102FA000031DDA2FF4173E0884003F088500003126
:102FB0008016F92F3F08203C031CF92F031DE42F36
:102FC0003E086D3C031CF92F3E0884003F08850035
:102FD000003163080F39F700F030000577048000F6
:102FE0003E0884003F08850000310016BE0A031920
:082FF000BF0A98312000D72E22
:1030000002302200C7002030C9005030C80088318B
:1030100020008C219831FF30FC0022002510BC01DB
:10302000BD0120308500A83084003C0884070030B2
:10303000853D3D08803120004021983180000038D6
:10304000031927282200BD0ABC0A112820002030BD
:103050002200BD005030BC002030BF00A830BE00B0
:10306000883120008225983179082200A70078084D
:10307000A600A608031D3F28A708031959282708FA
:10308000BF002608BE002030BD009D30BC003F08B8
:1030900085003E0884000008C0003D0885003C080B
:1030A000840040088000800803195928BC0ABE0A21
:1030B0004728BD01BC012030BF00A830BE008831C8
:1030C00020008225983179082200A7007808A60000
:1030D000A608031D6E28A708031988282708BF0023
:1030E0002608BE002030BD007030BC003F088500BF
:1030F0003E0884000008C0003D0885003C088400AC
:1031000040088000800803198828BC0ABE0A762877
:10311000BD01BC012030BF00A830BE0088312000B6
:103120008225983179082200A7007808A600A60811
:10313000031D9D28A7080319C3282708BF002608D8
:10314000BE002030BD00B030BC003F0885003E0806
:1031500084000008C0003D0885003C088400400849
:10316000800080080319B728BC0ABE0AA5282030B1
:10317000BD00B030BC008831200088269831780826
:10318000FD00C6282200FD01251420002200BC01FC
:10319000BD0120308500B43084003C088407003035
:1031A000853D3D088031200046219831800000385F
:1031B0000319DF282200BD0ABC0AC92820002030DC
:1031C0002200BD00B430BC002030BF009D30BE00E6
:1031D00088312000C1269831F808031DF828220004
:1031E000251CF5280330F000F7280230F0002000FD
:1031F0002200BC01BD0120308500B43084003C08B1
:1032000084070030853D3D08803120004B219831F6
:1032100080000038031911292200BD0ABC0AFB28CE
:10322000200020302200BD00B430BC002030BF00A0
:103230009D30BE0088312000C1269831F808031D5A
:1032400023290430F0002200BC01BD01203085009C
:10325000B43084003C0884070030853D3D0880314F
:103260002000512198318000003803193C292200A8
:10327000BD0ABC0A2629200020302200BD00B4303F
:10328000BC002030BF009D30BE0088312000C12628
:103290009831F808031D4E290530F0002200BC01CA
:1032A000BD0120308500B43084003C088407003024
:1032B000853D3D08803120005A219831800000383A
:1032C000031967292200BD0ABC0A512920002030B9
:1032D0002200BD00B430BC002030BF009D30BE00D5
:1032E00088312000C1269831F808031D792908305B
:1032F000F0002200BC01BD0120308500B430840004
:103300003C0884070030853D3D0880312000622163
:10331000983180000038031992292200BD0ABC0AA6
:103320007C29200020302200BD00B430BC002030B9
:10333000BF009D30BE0088312000C1269831F808BA
:10334000031DA6290930F0000230FC002200BC0158
:10335000BD0120308500B43084003C088407003073
:10336000853D3D08803120006A2198318000003879
:103370000319BF292200BD0ABC0AA9292000203058
:103380002200BD00B430BC002030BF009D30BE0024
:1033900088312000C1269831F808031D202AF00149
:1033A00020302200BD007030BC008831200088260B
:1033B00098317808FD007D080A3C031DE129FD01D4
:1033C000E629FD08031DE6290A30FD007D080F39B6
:1033D0002200BC003C08BD003D08C000C101803196
:1033E00020005A2698310C302200C0000130C10064
:1033F000803120005A26983101302200C000C100DF
:10340000803120005A26983105302200C00001305A
:10341000C100803120005A2698312100B3011030BC
:10342000B200320833040319172A0000112A0430AD
:103430002200C0000130C100803120005A2698319E
:103440002200BC01BD0120308500B43084003C085E
:1034500084070030853D3D08803120006D21983182
:10346000800000380319392A2200BD0ABC0A232A29
:10347000200020302200BD00B430BC002030BF004E
:103480009D30BE0088312000C1269831F808031D08
:103490004B2A0C30F0002200BC01BD012030850019
:1034A000B43084003C0884070030853D3D088031FD
:1034B000200072219831800000380319642A22000C
:1034C000BD0ABC0A4E2A200020302200BD00B430C4
:1034D000BC002030BF009D30BE0088312000C126D6
:1034E0009831F808031D8B2A20302200BD0070306F
:1034F000BC0088312000882698317808FD007D08BE
:10350000243C031C872AFC010B30F0008B2A093075
:10351000F0000330FC002200BC01BD01203085001A
:10352000B43084003C0884070030853D3D0880317C
:10353000200079219831800000380319A42A220044
:10354000BD0ABC0A8E2A200020302200BD00B43003
:10355000BC002030BF009D30BE0088312000C12655
:103560009831F808031DB62A0630F0002200BC018D
:10357000BD0120308500B43084003C088407003051
:10358000853D3D08803120007C2198318000003845
:103590000319CF2A2200BD0ABC0AB92A2000203014
:1035A0002200BD00B430BC002030BF009D30BE0002
:1035B00088312000C1269831F808031DE12A073020
:1035C000F0002200BC01BD0120308500B430840031
:1035D0003C0884070030853D3D08803120007F2174
:1035E0009831800000380319FA2A2200BD0ABC0A6B
:1035F000E42A200020302200BD00B430BC0020307E
:10360000BF009D30BE0088312000C1269831F808E7
:10361000031D292B0230F000013076070339FD002D
:103620002200BC01BD0120308500703084003C08C0
:1036300084070030853D3D0880312000822198318B
:10364000800000380319292B2200BD0ABC0A132B65
:1036500020002200BC01BD0120308500B430840070
:103660003C0884070030853D3D08803120008821DA
:103670009831800000380319422B2200BD0ABC0A91
:103680002C2B200020302200BD00B430BC002030A4
:10369000BF009D30BE0088312000C1269831F80857
:1036A000031D622B10302100E0060030601A01304B
:1036B0002200BC00BD0088312000A92498312100DF
:1036C000E01520002100E401E301E408031DB12B13
:1036D0006308383C031CB12B0130FA008F30ED0039
:1036E0007A08EE0064082200BB0021006308220073
:1036F000BA00BD010630BC0088312000E9269831AF
:10370000780821006D07E50079086E3DE60020305D
:103710002200B9009730B800210066082200BB00E3
:10372000210065082200BA00883120000027983166
:1037300020302200BD007030BC002030BF00973028
:10374000BE0088312000C1269831F808031DAC2B3B
:1037500021006308FC0020002100E30A0319E40AA9
:10376000652B7C08FF3C031D152C20302200BD007A
:103770007030BC0088312000882698317808FD0020
:103780002100ED01EE0120308500973084006D08A6
:1037900084070030853D6E08803120002821983153
:1037A000800000380319D92B2100EE0AED0AC32B43
:1037B000200020302200BD007030BC002030BF004F
:1037C0009730BE0088312000C1269831F808031DCB
:1037D000EB2B0130FD002100ED01EE0120308500D2
:1037E000973084006D0884070030853D6E08803175
:1037F000200030219831800000380319042C21006A
:10380000EE0AED0AEE2B200020302200BD007030C1
:10381000BC002030BF009730BE0088312000C12698
:103820009831F8080319FD0121007008063C0319BE
:103830001D2C7008073C031D212C0130FD0076086B
:10384000FC00E01690312000422098312100E01267
:1038500098312000BA2E01302100E300E60120005B
:103860005F082100E500F10803194F2C65082000CE
:103870006E0503193D2C21004F2CF101EE010130A2
:103880002100E6006508200060056105031D4E2C3F
:10389000F416E50803194E2C6508EC002100E70139
:1038A000E8016808033C031C982C65086305E900DF
:1038B00020006708FF3A210069050319942C2000B5
:1038C00060086105210063050319702C2530680725
:1038D0008400203085000318850A0008E400722C5B
:1038E0000130E400640871020318942CF108031DF0
:1038F0007B2C6408F10001306807E7000130E60026
:103900003C302200C000200066082200C10088313F
:103910002000612698312100DF017808DE002000B8
:10392000E70121006308F2000310E30DE80A512CBF
:10393000E6080319A42C67082200AB008831200098
:10394000602398312100E015E508031DAC2C6015BB
:10395000F2012000E70121002000E8080319B92C3A
:103960002100E508031DB62C2000B92C20006808B2
:10397000E9009831CC2E2100EA01EB0120308500CE
:10398000763084006A0884070030853D6B088031FA
:10399000200039219831800000380319D42C2100EF
:1039A000EB0AEA0ABE2C20005630230091000430B6
:1039B000920080312000D72498312100E301630870
:1039C000093C031C2B2D64306307840020308500E4
:1039D0000318850A001E282D6430630784002030F8
:1039E00085000318850A00080F39E4002030E20042
:1039F0009530E10064082200C7001830C800883103
:103A00002000EF21983120302200CD0088312000A5
:103A10001521983120302200A7007630A6002030F2
:103A2000A9009530A80090312000AC2598312030B5
:103A30006400111E182D23009A0021006408220042
:103A4000CD001B30CE00803120003C279831210072
:103A50006400E30ADF2C0A3064002000111A322DC2
:103A600021002C2D23009A000D3064002000111A33
:103A70003B2D2300352D23009A002100E015023054
:103A80002200C7002030C9007630C80088312000ED
:103A90008C2198319831DE2E210065086602031CC6
:103AA000762D6508093C031C762D69146508E8002D
:103AB00068086602031C752D643068078400203096
:103AC00085000318850A00080F39E700643068078D
:103AD0008400203085000318850A001E69106708DD
:103AE0000C3C03196910E80A582D772D6910003035
:103AF00069180130F80020000800F001FD012100E4
:103B0000E5010330E60020004C25F8080319312EAA
:103B1000210034080F39E6002200C0000A30C1003D
:103B2000883120006126983178082100E5003508A9
:103B30000F396507E30036080F39E6002200C000A0
:103B40000A30C100883120006126983178082100B0
:103B5000E50037080F396507F0000430E50005304F
:103B6000E60020004C25F80803190C2E2100380827
:103B70000F39E6002200C0000A30C1008831200061
:103B80006126983178082100E50039080F3965076A
:103B9000FC000630E4006408E50065080A3C031CEC
:103BA000EB2D643065078400203085000318850AFA
:103BB000001EE92D6430650784002030850003185D
:103BC000850A00080F390C3C0319E92D0130E60085
:103BD000EA2DE601EC2DE6016608F800F808031965
:103BE0000A2E7D082200C0000A30C1008831200062
:103BF0006126983178082100E5006430640784006C
:103C0000203085000318850A00080F396507FD007C
:103C1000E40ACB2D1E2E200070080A3A0319142E38
:103C2000013A0319182E1B2EFC010E30FD001B2E2D
:103C3000FC010F30FD000230F00021007008043A52
:103C400020000319262E013A031D282E7C08FD00B2
:103C5000630821006302031D322E903120004220B0
:103C60009831210034080F39F000601E672EE501FD
:103C7000E60120004C25F808031D402E2100672E88
:103C8000640070080E3A03194C2E013A0319542EA1
:103C9000053A03195C2E632E013076070339F600CE
:103CA000883170229831632EFF302200AC008831B9
:103CB000200038279831632E01302200AC00883173
:103CC0002000382798318831292798312100601544
:103CD00098312000E52E2100E3016308093C031C14
:103CE0007B2E643063078400203085000318850A2A
:103CF0008001E30A6D2E2030BF006430BE00983191
:103D00002000EC2E850184011F30830572302100D4
:103D100099008E150E162400171097109711133066
:103D2000920028309500941714130C3023009B0048
:103D3000A2309E0090309D0021006017E201E10159
:103D40002F0091019201980199019A0123008C01A1
:103D50008D018F0190012200920191019401930144
:103D60002000A601A7018831C02C98316400741C82
:103D7000BE2E00288031BD24983174106400741F59
:103D8000C52E9031F22C983174139031232F983135
:103D90006400F41CD12E2B2C9031E5259831F410C1
:103DA00064002100E01CDA2E90312000AA2F983107
:103DB0002100E010601CE12E2000BB2C21006010CF
:103DC0006400F41FE82E20007D2DF4136400210010
:103DD000601DEE2E20006B2E21006011E01DF72EDD
:103DE00088312000BC2798312100E01164002000B8
:043DF000B62E630088
:0A3FB600AA346A345A3456345534E4
:103FC00055349534A534A934AA34603495349934E1
:103FD000943440345934A434553450346A349834C9
:103FE0006534A0349034A8346934A634643454342D
:103FF000803458345634683496349A34A5340034B6
:020000040001F9
:04000E00BC0FFF1E06
:00000001FF
;PIC16F1937
;CRC=CD4F  CREATED="04-Jan-24 17:17"
