:060000009831F32C000012
:0800080083018A012000770842
:10001000A0007808A1007908A2007A08A3007B0854
:10002000A4008B1D15280B182B288B1E19280B19C3
:100030002D28850191308400801E2028911A2F28B8
:100040002008F7002108F8002208F9002308FA0028
:100050002408FB0009008031452B8031AF2B803113
:10006000CE2A0B000234033406340A340B00603409
:100070006134623463340B00643465348034813419
:100080000B007134753482340B006E346F3470346D
:100090000B003D3420340F3401343F3420340F340E
:1000A00001340C342034203401340D342034203415
:1000B00001340E342034203401340F342034203401
:1000C00001341034203420340134113420342034ED
:1000D00001341234203420340134133420342034D9
:1000E00001341434203420340134153420342034C5
:1000F00001341634203420340134173420342034B1
:10010000013418342034203401341934203420349C
:1001100001341A342034203401341B342034203488
:1001200001341C342034003401341D3420340034B4
:1001300001341E342034003401341F3420340034A0
:10014000013420342034003401342134203400348C
:100150000134223420340234013423342034063470
:10016000013424342034063401342534203404345A
:100170000134263420340E340134273420340D3435
:100180000134283420340B3401342934203407342A
:1001900001344034203432340134433420340134C7
:1001A00001342A3420341F3401342B3420340E34EB
:1001B00001342C342034023401342D3420341B34E7
:1001C00001342E3420340E3401342F3420341134D1
:1001D00001343034203400340134313420340034DC
:1001E00001343234203400340134333420340034C8
:1001F00001343434203400340134353420340034B4
:10020000013436342034023401343734203400349D
:1002100001343834203400340134393420340B3480
:1002200001343A342034003401343B342034003477
:100230000134413420340034013442342034003459
:10024000003473340034003400340B0065346534FA
:10025000703472346F346D3400340B0064346534A0
:100260006634613475346C34743400340B002034DB
:100270003B340D3400340B00733465347434003473
:100280000B00533441345634453400340B0052349F
:100290004534533454344F345234453400340B0015
:1002A00073347434613474347534733400340B0033
:1002B0007234653462346F346F34743400340B003C
:1002C000643474346D34663400340B006934323471
:1002D000633400340B006D346F347234733465341E
:1002E00000340B002B3400340B002D3400340B0091
:1002F000443454344D3446343A34003445344E3466
:10030000003400340034003450344F344C34003462
:100310000034003452343134473431340034003442
:1003200052343134473432340034003452343134AE
:1003300047343334003400345234313447343434A5
:100340000034003452343234473431340034003411
:10035000523432344734323400340034523432347C
:100360004734333400340034523432344734343474
:1003700000340034523433344734313400340034E0
:10038000523433344734323400340034523433344A
:100390004734333400340034523433344734343443
:1003A00000340034523434344734313400340034AF
:1003B0005234343447343234003400345234343418
:1003C0004734333400340034523434344734343412
:1003D00000340034583449343134003400340034AB
:1003E00058344934323400340034003458344934F9
:1003F000333400340034003458344F343134003452
:100400000034003458344F34323400340034003473
:1004100058344F34333400340034003452343134DF
:100420005034003400340034523432345034003408
:100430000034003452343334503400340034003447
:1004400052343434503400340034003452343134B3
:1004500050345434543400345234323450345434DC
:10046000543400345234333450345434543400341B
:1004700052343434503454345434003453344934C2
:1004800044340034003400344D34523453344C344A
:10049000003400344D345234533431340034003499
:1004A0004D34523453343234003400344D345234E9
:1004B00053343334003400344D34523453343434F0
:1004C000003400344D345234533435340034003465
:1004D0004D345234533436340034003458344F34AD
:1004E0004F3431340034003458344F344F343234C4
:1004F0000034003458344F344F3433340034003433
:1005000058344F34413431340034003458344F348B
:10051000413432340034003458344F3441343334AD
:1005200000340034583449344F343134003400340A
:10053000583449344F343234003400345834493458
:100540004F34333400340034583449344134313476
:1005500000340034583449344134323400340034E7
:100560005834493441343334003400345434413441
:1005700049344C340034003443344F345234003462
:1005800000340034433450344F3454340034640065
:10059000111EC72A23009A0020000800911E222B5A
:1005A0006400911ED02A23001908A2002208083CEA
:1005B000031D002BF1080319FB2AF10348307107D2
:1005C0008400203085000318850A8001083020004F
:1005D000C7221B30C7225B306400111EEC2A2300A7
:1005E0009A004B3064002000111AF82A2300F22AE6
:1005F00023009A00FF2A07302000C7222300232B64
:1006000071080F3C031C1F2B22082000C722710811
:10061000F10A483E8400203085000318850A230033
:100620002208800022080D3C03191D2B22082B3CB8
:1006300003191D2B22082D3C03197214232B07309C
:100640002000C722230020009112803120280F3083
:1006500021008F002300A508031D322B22000F1359
:10066000342B230022000F1700000F12000020007F
:100670000F082300A6000F30A60522000F16000069
:1006800023002608F80020000800270016080F396C
:1006900003195B2B20005C082300A40020000D0838
:1006A0005F060F39DC005C0823002402031DF214EE
:1006B000F030270096050B1CAB2B01302300A50062
:1006C0002000272378082300A300231DA92BA501C0
:1006D0002000272378082300A200F217A208031D98
:1006E000742B0A30A200782B22080A3C0319A201BD
:1006F00022080C3C031D862B72172100360884004B
:100700003708850000318016A82B23002100370808
:10071000203C031CA82B031D912B3608653C031CB1
:10072000A82B3608840037088500003123002208F2
:100730000F39F700F03000057704800021003608FB
:1007400084003708850000310016B60A0319B70A7D
:100750002300270016120B108031200020282100D2
:10076000280829040319B92B28080319A903A80389
:10077000BE2BF2147215A9011E30A8002A082B0402
:100780000319C62B2A080319AB03AA030B118031E6
:10079000200020288A06491943104529D2275210E3
:1007A0003A10CE37A020C3252033F2376D10CC216C
:1007B00044103A10A53A0000491943142532291073
:1007C000C32644103A10253200005B183B1848003D
:1007D0008A06491943104539F23772103A10CE375C
:1007E000A020C3252033F2376D107439E936F03775
:1007F00074103A10A53A00018A06D332743A693768
:100800006710D0377414A53A2910F437A012750078
:100810008A06D3326E3269376710ED37F2396510C8
:100820003A10A53A0000C327521DA5392028542AA2
:10083000BA1273008A065039EF31E539F334EE33DA
:100840002022D4264610F332F13A6537E3323A00DB
:100850008A062010D334F432492220103A10A53AE7
:1008600000018A062010C337ED36613764103A1054
:10087000A53A00018A0620104139E73AED326E3A76
:100880003A10A53A00018A062010D630EC3A6510DD
:1008900020103A10A53A00008A062310C3275210F0
:1008A000D037723A73103D10A53A3B10D32BA022DB
:1008B000ED3AEC30F4326410C32752103A10A53AE6
:1008C00000005B1AB71D331A6D050D296132E93737
:1008D00020296538E530F4327210C3376E3AF237AA
:1008E0006C366539A01620005B1AB71DB3186D2B46
:1008F00045194C2953005B1AB71D331A6D10A821F6
:1009000029103218B1190A050D005B1AB01DB31B6E
:100910006D000A058D214F29201DA0127510A822F7
:10092000ED3AEC30F43264103A10A53AA91DA0203B
:10093000753C4937A01EA01275008A06442A4D2333
:10094000A029F430F43A73103A10A53A8A06000050
:100950008A06491943104539F23772103A10CE37DA
:10096000A020C3252033F2376D105429C926D02783
:10097000D429201DA0127500D027541D2532A012A5
:1009800064102532A01264000A058D21CF26CD20E7
:100990004E223E1000008A064937693AE930EC34AD
:1009A000FA34EE332029C126203B6139E930623622
:1009B000E5392033F2376D10C5225029CF260001CA
:1009C0008A064937693AE930EC34FA34EE332029A3
:1009D000C126203B6139E9306236E539A03B693AEE
:1009E0006810E634F236F730F23220326533E13AFD
:1009F0006C3A203B6136F53273008A06D330F63408
:100A0000EE332029C126A0316F37E634E73AF230C1
:100A1000F4346F37A0346E10C5225029CF262E0033
:100A20008A0620104334E531EB39F536A036E93932
:100A3000ED30F43168172029E539F437F234EE331C
:100A400020326533E13A6C3A203B6136F532731758
:100A500000008A064937693AE930EC34FA30F43458
:100A60006F37A031EF367036653A65008A06D332AB
:100A7000743A69376710A539A812F514203A6F1037
:100A8000A53A0000C13AF824BA127310A020753CB0
:100A90004F1DA53900008A062310502A5410D43463
:100AA000ED32EF3AF4100A008A06442A4D233D0045
:100AB00010302100E000DF0160085F0203186A2D9A
:100AC00048305F078400203085000318850A8001C4
:100AD000DF0A5C2DF1017210FF30F400B801F00163
:100AE000200008000B082200AC008B132300951790
:100AF00015140000000013087F390319C22D2200CD
:100B0000AD00230011082200AE00230012082200CD
:100B1000AF002D0864002000111A902D22008A2DAC
:100B200023009A0022002E082300910022002F08A3
:100B3000230092009517151400000000130D140DEA
:100B40007F390319C22D2200AD00230011082200B5
:100B5000AE00230012082200AF002D086400200020
:100B6000111AB42D2200AE2D23009A0022002E0867
:100B70002300910022002F0823009200910A0319FC
:100B8000920A772D2200AC1B8B17200008001B3027
:100B9000C7225B306400111ECA2D23009A00323038
:100BA00064002000111AD62D2300D02D23009A00B6
:100BB0004A3064002000111ADF2D2300D92D2300B4
:100BC0009A001B302000C722E5302300910003303B
:100BD00092002000722508002200290884002A08BB
:100BE00085000008AC002C087F3C031CAC0A0310F5
:100BF0002C0D093A2B07AC00290884002A0885002F
:100C00002C0880002000080001302200A300A4016D
:100C1000A60021006F0B152ECB302300910004306D
:100C20009200200072251C2E2100E030230091004C
:100C300004309200200072252200A0012008363CDA
:100C4000031C7F2E200DF700F70DFC30F705770809
:100C5000A800280A20004820FA00220028082000C6
:100C600048202200A1007A08A20021006F0B6A2E02
:100C70002200200DF700F70DFC30F7057708033E42
:100C800020004820F8007818472E21006A2E220004
:100C90002408230091009513151413082200A700BF
:100CA0002108840022088500270880002208FA0015
:100CB00021088400220885000008A8002030AA002E
:100CC000A330A9002808AB002000EC252200A40ACC
:100CD0007D2E21002200200DF700F70DFC30F705D6
:100CE0007708023E20004820F8002200A5002108D5
:100CF00084002208850025088000A00A1E2E2100FD
:100D00006F0B8E2E220024082300910095131514DA
:100D1000130822002302031DA60121002200260839
:100D2000F8002000080001302200A300A0012100EB
:100D3000EF016F08363C031CF42E6F0DF700F70D22
:100D4000FC30F70577082200A500250A200048207E
:100D5000FA0022002508200048202200A1007A087D
:100D6000A20021006F0DF700F70DFC30F7057708A2
:100D7000033E20004820F800781CF12E22002108B4
:100D80008400220885000008A400200823009100A8
:100D9000951315141308220024020319E62E0B08DC
:100DA000F7008B1320082300910022002408230061
:100DB00093009513151555309600AA30960095149A
:100DC0009518E02E151177088B0422002030AA0018
:100DD000A330A9002408AB002000EC252200A00AC3
:100DE00020002100EF0A992E0B08F7008B13220038
:100DF000200823009100220023082300930095136C
:100E0000151555309600AA30960095149518062FA2
:100E1000151177088B04FD309100043092002000FA
:100E20007225080021006E08EF0020000426F80853
:100E3000031D262F10302300910005309200200062
:100E400072252100EF0120000426932608000030BF
:100E500021008F0022002C102A080F390139031DB0
:100E60002C142C18352F0F10362F0F142C102A0885
:100E70000F390239031D2C142C18402F8F10412FCD
:100E80008F142C102A080F390439031D2C142C1828
:100E90004B2F0F114C2F0F152C102A080F39083922
:100EA000031D2C142C18562F8F11572F8F15AB089C
:100EB000031D5C2F0F135D2F0F175E2F8F12602FF6
:100EC0008F16622F0F3021008F00200008001B308A
:100ED000C722613023009100043092002000722567
:100EE0001B30C72274302300910004309200200090
:100EF00072251B30C7227B30230091000430920002
:100F0000200072251B30C722853023009100043059
:100F100092002000722508002400951320009111F2
:100F200022003908240091000230951B9E2F2000DA
:100F3000911D982F00302400161B0130F80020006E
:100F400008000B082200BA008B1323009517151414
:100F5000000000000318D52F13087F392200BB00C2
:100F6000230011082200BC00230012082200BD004B
:100F70003B0864002000111ABF2F2200B92F230064
:100F80009A0022003C082300910022003D08230023
:100F9000920095171514000000002200B90BD12F04
:100FA000D32F2300D52FFA2F2300130D140D7F39D3
:100FB0002200BB00230011082200BC0023001208FD
:100FC0002200BD003B0864002000111AE92F220016
:100FD000E32F23009A0022003C0823009100220006
:100FE0003D0823009200910A0319920A031022007F
:0C0FF000B90BA52FBA1B8B1720000800BE
:1010000022003C08F8013B02031809283B08F700BE
:101010001528F7010830BD00BB0DF70D3C0877021D
:101020000318F700F80DBD0B0C2820000800780805
:1010300022003908BB006430BC0020000020770883
:101040002200B90078083030031D2D28BA1C3B2837
:10105000BA193B283A1A20303028BA113A123A14F9
:10106000F807780864002000111A38282200322876
:1010700023009A0022003908BB000A30BC0020007F
:10108000002077082200B90078083030031D4E2870
:10109000BA1959283A1C59283A1A2030F807780802
:1010A00064002000111A56282200502823009A00BC
:1010B00022003030B907390864002000111A622874
:1010C00022005C2823009A00200008002200270E3E
:1010D000A900A90DA90DC030A90528083F39A90705
:1010E000240016141618722850302200B9008031DE
:1010F00020008C278831780822002A1078182A14BA
:101100002A1C9B2800302A180130AB00E83023004D
:10111000910003309200031024302200B900803186
:101120002000A127883122002B08B9001B30BA000B
:101130002000172022002908B900803120008C27C8
:101140008831240016151619A328FC3023009100BD
:101150000330920003100E302200B90080312000CD
:10116000A127883122002708B9001B30BA002000CF
:101170001720043023009100043092000310053042
:101180002200B90080312000A127883122002808E0
:10119000B9001B30BA0020001720080022003308D5
:1011A000F700031023009517151400000000130822
:1011B0008000840A910A0319920AF70BD4282000B0
:1011C000080001302200AA00AB018031200027274F
:1011D00088310C302200AA000130AB0080312000A1
:1011E0002727883105302200AA000130AB0080316A
:1011F00020002727883105302200AA000130AB00EB
:10120000803120002727883163080339803131205D
:101210008831F800FA0178082100AA007A08AB00AA
:101220002A082B0403191629000010290430220073
:10123000AA000130AB008031200027278831080048
:10124000F701F80122002A0803102B18F707F70C02
:10125000F80CAB18F707F70CF80C2B19F707F70C7D
:10126000F80CAB19F707F70CF80C2B1AF707F70C6B
:10127000F80CAB1AF707F70CF80C2B1BF707F70C59
:10128000F80CAB1BF707F70CF80C20000800013036
:101290002200AA00AB0180312000272788310C30C2
:1012A0002200AA000130AB008031200027278831BE
:1012B00005302200AA000130AB0080312000272732
:1012C000883105302200AA000130AB0080312000B7
:1012D0002727883163080339803131208831F800AD
:1012E00003302200AA007808AB0020002021210052
:1012F000AB017808AA002A082B04031981290000F1
:101300007B2904302200AA000130AB00803120008C
:10131000272788310800DC3022002707AA001F3069
:10132000AB000318AB0A2B082300920022002A0806
:101330002300910020308500A83084000130220075
:10134000B3002000CE20083023009100043092002A
:10135000031012302200B90080312000A12788310B
:1013600022002708B9001B30BA00200017202100F6
:10137000D5142200A9012908033C031CE8292808E8
:10138000C039403A20000319C929C03A0319CB29B2
:10139000CD29E120CD294721CD292200A80DA80D76
:1013A000FC30A805200063080339803131208831E2
:1013B000F800FA0178082100AA007A08AB002A0890
:1013C0002B040319E5290000DF292200A90ABB2903
:1013D0002708093C031CF7292708043C031CF429AF
:1013E00020004721F62922002000E12022002000D1
:1013F00063080339803131208831F800033022003E
:10140000AA007808AB00200020212100AB01780859
:10141000AA002A082B0403190F2A0000092A200019
:10142000080022002D080739F7002D0CF800F80CF1
:10143000F80C1F30F80578082F0784000030303D85
:101440008500F801F80AF70A262AF80DF70B252A75
:10145000AE0803192E2A78088004312AF809780882
:1014600080052000080021005708850056088400E8
:10147000220039081A0080012100D60A0319D70A70
:10148000200008000B082200B4008B1323009517DE
:101490001514000000000318712A13087F39220078
:1014A000B500230011082200B60023001208220014
:1014B000B7003508B9002000332222003608230087
:1014C00091002200370823009200951715140000A0
:1014D00000002200B30B6D2A6F2A2300712A912A83
:1014E0002300130D140D7F392200B50023001108CD
:1014F0002200B600230012082200B7003508B90008
:1015000020003322220036082300910022003708F1
:1015100023009200910A0319920A03102200B30BD0
:10152000462AB41B8B172000080080080319A92A3B
:1015300005082200A8000408A7000008B900200040
:10154000332222002808850027088400013120006A
:10155000952A080003102200330D0E396038B600BA
:10156000240016141618B22A22003608B900803159
:1015700020008C278831780822003710781837141B
:10158000371CDB2A003037180130B800CA3023007E
:10159000910003309200031020302200B900803106
:1015A0002000A127883122003808B9001B30BA007A
:1015B0002000172022003508FA00340884007A0839
:1015C000850080080319F62A3508FA003408B40AA1
:1015D0000319B50A84007A0885000008B800B9002C
:1015E000803120008C2788312200DB2AB90180312C
:1015F00020008C278831240016151619FD2A20009A
:10160000080020308500B330840000080319192B2E
:101610000230F800BF30F7006400F70B0C2BF80B1A
:101620000A2B9630F700F70B132B162B6400800B58
:10163000082B080020302200341E3030B50033085B
:10164000F700B31F2B2BF709F70A7708B3002D30EB
:10165000B500B41734143308BB006430BC0020005C
:10166000002077082200B30030307807B600330836
:10167000BB000A30BC002000002030307707220079
:10168000B80030307807B7003508F7003030360240
:1016900003194E2BB414B41B3415622B3508B60055
:1016A0002030B5003030370203195A2B3414B41BE4
:1016B000B414622B031D3414031D622B3608B700CB
:1016C0002030B6003419692BB4186E2B3418732BE4
:1016D000782B3508B9002000332222003608B900E3
:1016E0002000332222003708B900200033222200D4
:1016F0003808B90020003322080080080319962B0F
:1017000005082200B4000408B300000864002000AB
:10171000111A8C2B2200862B23009A0022003408F9
:10172000850033088400013120007D2B0800220051
:10173000AF01B001B101B2012830B3002000012394
:10174000240016141618A22B51302200B900803143
:1017500020008C27883178082200AE107818AE144B
:10176000AC012C08033C031CE02B2C08033C031D9C
:10177000BB2B2E10BC2B2E1400302E180130B300C2
:101780003308F7002400151396159619C52B771802
:101790009612771C96161616161ACC2B1108F800FE
:1017A00078082200AD003F30AD05AF302C07840033
:1017B000203085000318850A2D088000AC0AB12B63
:1017C000240016151619E22B32302200B300200037
:1017D00001232200AE1C052C00302E180130B3006E
:1017E000A83023009100043092000310253022001D
:1017F000B90080312000A127883122003308B900C8
:101800001B30BA0020001720220020302100D70012
:101810006E30D600BC3023009100043092000310DB
:1018200004302200B3002000422222002F08B3001F
:101830001830B40020001A2320302200B900200004
:10184000332222003008B3001830B40020001A23DD
:1018500020302200B9002000332222003108B300DA
:101860001830B40020001A2320302200B9002000D4
:10187000332222003208B3001830B40020001A23AB
:101880002200B3012030B5006E30B4002000AA223F
:101890000A306400111E492C23009A000D306400A8
:1018A0002000111A552C23004F2C23009A002030C1
:1018B00085006E30840020007D2308003030210038
:1018C000EC00ED00EE00EF002200A001A100A2005C
:1018D000A300A400A501210066082000E600210065
:1018E000E6080319862C01306602263E840020306B
:1018F00085000318850A00082200A70020005D0863
:101900005E05220027052100EB00942CEB01F21E5E
:10191000942CF2122000E4080319932C640822008E
:10192000A70020008B2121000130EA00E7016708B1
:10193000033C031C0D2DE608031DA32C22002610DA
:10194000A610BE2C2100013067076602031DB02CD3
:101950002200261421006A082000E500B32C210093
:101960002200261020002200A61021006B086A0524
:101970000319BD2C2200A6142100220021006708B3
:1019800080312000362088312200A7000030261840
:101990000130F7002708AD007708AE000130B00035
:1019A000AF012000112222002708AD00AE01B001D6
:1019B0008030AF0020001122210067088031200014
:1019C0003B2088312200A7000030A6180130F70024
:1019D0002708AD007708AE000130B000AF0120004D
:1019E000112222002708AD00AE01B0018030AF0007
:1019F000200011222200A61C082DA130210067071B
:101A00008400203085000318850A313080002200D0
:101A100003102100EA0DE70A972CE608031D142D98
:101A20002000E701442D210001306602223E84009F
:101A3000203085000318850A00082000E7002100F7
:101A4000E8016808033C031C422D01306602F700E0
:101A5000F70DF70DFC30F705770868070C3E84009A
:101A6000203085000318850A0008E9006808220074
:101A7000A700210069082200A8002000662021009C
:101A8000E80A212DD51420002100E6080319522D63
:101A9000013066029C3E8400203085000318850AD0
:101AA000313080002030D7006E30D6001330230054
:101AB000910004309200031004302200B300200093
:101AC0004222203085009C3084009522163023006D
:101AD000910004309200031005302200B300200072
:101AE000422220308500A13084009522013022005E
:101AF000B3002030B5006E30B4002000AA2232308E
:101B00002200B300200001239723080080315825CC
:101B10008831220092019101940193011730210034
:101B2000970024008D016F308D0021009513200057
:101B3000DC01F212FC01F601E501E701E601F30127
:101B400021001D10FF30660000308F001010901033
:101B50001011901591168B150F30270094049504E1
:101B60008B1515161412C0308B0422008F138F169C
:101B70000F160F1380312000C72588310130210056
:101B8000EE00803120001227883122000F168F16B8
:101B90000F13AA010130AB008031200027278831C4
:101BA0002200AA010130AB008031200027278831B4
:101BB0000C302200AA000130AB0080312000272722
:101BC000883101302200AA00AB0080312000272795
:101BD0008831A5018B1BA5178B1301302300A500AD
:101BE0008031200027238831A51B8B172100551435
:101BF0000F302000DE008031672788319D3067007C
:101C00002200A701A8012000662001302200A700C1
:101C1000A8012000662002302200A700A8012000B1
:101C2000662003302200A700A801200066202100C2
:101C3000A9013C30A8001508C039073895008B165B
:101C4000E60120005E242930230091000530920037
:101C500080312000722588311E30FE003C30FD00AE
:101C60007212F2112100D51420006108E400013045
:101C7000BF00C000C1009831252D22003508360470
:101C80000319462E3608FA0035084B2E2000270887
:101C9000FA0026082200B9007A08BA003A08BE0005
:101CA0003908BD003808C0003708BF003E08C20030
:101CB0003D08C1004208FA00410884007A08850006
:101CC00080080319942E4008C4003F08C30044084C
:101CD000FA00430884007A0885008008031D7A2EE4
:101CE0003D084102F7003E08423BFA007708F80041
:101CF0009C2E8C2E4208FA00410884007A08850048
:101D00000008C5004408FA00430884007A088500EA
:101D1000000845020319902EC30A0319C40A672E4E
:101D2000C10A0319C20A5A2E3D084102F7003E08B3
:101D3000423BFA007708F8007808B9070030BA3D4E
:101D40003A08FA00390884007A0885008008031DE3
:101D5000B52E20002608840027088500203080004A
:101D60000030F800F9001A2F22003A08BE003908A6
:101D7000BD003808C0003708BF003E08C2003D085B
:101D8000C1004208FA00410884007A0885008008F2
:101D90000319F62E4008C4003F08C3004408FA00A7
:101DA000430884007A08850080080319F22E42084F
:101DB000FA00410884007A0885000008C50044083C
:101DC000FA00430884007A08850000084502031DD4
:101DD000EE2E4108F8004208F900F92EC30A031953
:101DE000C40ACE2EC10A0319C20AC12E0030F8005F
:101DF000F9007908BC007808BB003C08FA003B08F1
:101E000084007A088500800803190E2F3B0884009F
:101E10003C0885008001BB0A0319BC0A3C0820006D
:101E2000A70022003B082000A60022003908F80085
:101E30003A08F9002000080022006A08ED0069084D
:101E4000EF006808EE00EC08031D2A2F6B08003C29
:101E50000318412F6F08FA006E0884007A08850085
:101E60006D080002031D392F6E08F8006F08F90095
:101E7000442FEE0A0319EF0A6B080319EC03EB0376
:101E8000232F0030F800F900200008002200360857
:101E9000FA00350884007A0885000008B90038087F
:101EA000FA00370884007A0885000008390203190F
:101EB000AF2F3608FA00350884007A08850000083C
:101EC000B9003908403C0318692F39085A3C0318F7
:101ED000712F3908603C0318C52F39087A3C031C60
:101EE000C52F3808FA00370884007A0885000008F2
:101EF000B9003908403C0318812F39085A3C0318AF
:101F0000892F3908603C0318C52F39087A3C031C17
:101F1000C52F3608FA00350884007A0885000008C5
:101F2000B9003808FA00370884007A0885002030A4
:101F3000000739020319AF2F3808FA003708840068
:101F40007A0885000008B9003608FA0035088400D0
:101F50007A088500203000073902031DC52F360896
:101F6000FA00350884007A0885008008031DBB2F1D
:101F70000030F800DB2F3608FA003508B50A0319DF
:101F8000B60AB70A0319B80A472F3608FA00350807
:101F90008400360885000008B9003808FA003708C0
:101FA000840038088500000839020318D92FFF3053
:101FB000DA2F0130F8002000080010302200B200B3
:101FC000F701FA01AF0CAE0C031CEC2F3008F70739
:101FD0000318FA0A3108FA07FA0CF70CF90CF80C96
:101FE000B20BE22F20000800C4302300910004301F
:0E1FF0009200803120007225883198311A2E1F
:102000002200C101C0013030C3003130C400323081
:10201000C5003330C6003430C7003530C800363014
:10202000C9003730CA003830CB003930CC006130BD
:10203000CD006230CE006330CF006430D000653018
:10204000D1006630D2006730D3006830D4006930E8
:10205000D5006A30D6006B30D7006C30D8006D30B8
:10206000D9006E30DA006F30DB007030DC00713088
:10207000DD007330DE007430DF007530E000763054
:10208000E1007730E2007830E3007930E4007A3024
:10209000E500E6013608BB003508BA003B08FA0047
:1020A0003A0884007A0885000008203C031D5C285B
:1020B000BA0A0319BB0A4E283B08FA003A08840002
:1020C0003B08850000082D3C031970283B08FA00E6
:1020D0003A0884003B08850000082B3C031D7B2840
:1020E0003B08FA003A08BA0A0319BB0A84007A08C6
:1020F000850000087C282B30C20042082D3C0319C3
:102100008C28B91B8C28390B86288C28B91B8E2863
:102110003908243C03188E28D7291A29B90803192D
:10212000E3283908103C031DB5283B08FA003A089B
:1021300084007A0885000008303C031DB5283A0861
:1021400084003B08850001310008783C0319B12860
:102150003A0884003B08850001310008583C031D03
:10216000B5280230BA070030BB3D3908083C031DD2
:10217000C7283B08FA003A0884007A08850000085E
:10218000303C031DC7280130BA070030BB3D390879
:10219000023C031DE2283B08FA003A0884007A0852
:1021A00085000008303C031DE2283A0884003B0803
:1021B000850001310008623C031DE2280230BA07A5
:1021C0000030BB3D1A293B08FA003A0884007A081F
:1021D00085000008303C0319F0280A30B9001A299C
:1021E0003A0884003B08850001310008783C031957
:1021F00002293A0884003B08850001310008583C58
:10220000031D09291030B9000230BA070030BB3D68
:102210001A293A0884003B08850001310008623C15
:10222000031D18290230B900BA070030BB3D1A2936
:102230000830B9003B08BD003A08BC003B08FA0072
:102240003A0884007A0885000008303C031D2C29D8
:10225000BA0A0319BB0A1E293B08FA003A0884008F
:102260003B0885000008E700403C03183E2967084A
:102270005A3C031C3E29670820383F296708E700BD
:102280002030E900C330E8006708EA00EC013908B3
:10229000EB00883120001C27903179082200BF0014
:1022A0007808BE00BE08031D5829BF080319CF29AE
:1022B000FA013908F700F71BFA03E7007A08E8008B
:1022C0004108EA004008E9006808EC006708EB00F4
:1022D0006A086C068039EE00EA1F7329E909EA09E9
:1022E000E90A0319EA0AEC1F7A29EB09EC09EB0A5F
:1022F0000319EC0A1030ED00F701FA01EA0CE90CC1
:10230000031C88296B08F7070318FA0A6C08FA07F8
:10231000FA0CF70CF90CF80CED0B7E29EE1F952941
:10232000F809F909F80A0319F90A7908E8007808A0
:10233000E700C3303E02F70020303F3BFA00770849
:102340006707C0007A08683DC100BA0A0319BB0AD2
:102350003B08FA003A0884003B0885000008E700C3
:10236000403C0318BA2967085A3C031CBA2967087D
:102370002038BB296708E7002030E900C330E800B7
:102380006708EA00EC013908EB00883120001C27BF
:10239000903179082200BF007808BE0052293A081F
:1023A0003C02031DE7293B083D02031DE7293708CE
:1023B00038040319E32937088400380885003508F4
:1023C00080003608813F0030F800F900F72937080F
:1023D00038040319F32937088400380885003A08BF
:1023E00080003B08813F4008F8004108F9002000C8
:1023F00008002200B0013008053C031C1E2A3008EA
:102400002C07B10000302D3DB20030082E07F80037
:1024100000302F3DFA007808230091007A089200DE
:10242000220032088500310884000130B300883171
:102430002000CE2090312200B00AFB2920000800A5
:10244000E6080319542A01306602F700F70DF70D6C
:10245000FC30F705770873070C3EF8002030FA00CF
:102460000318FA0A78082200A1007A08A2002108BD
:102470008400220885000008A300210884002208A7
:1024800085002008230780002208FA002108840024
:10249000220885000008A4007308A7002408A800EB
:1024A00088312000662090318831972390310800D0
:1024B00022002D080739F7002D0CF800F80CF80C55
:1024C0001F30F80578082E07840000302F3D850066
:1024D0000008F800F70A6D2AF80CF70B6C2A2000A8
:1024E000080002307002F53E0318C82D0B3EC92DBE
:1024F0007508FF3C031DA22A0A306400111E7D2AC4
:1025000023009A000D3064002000111A892A23004C
:10251000832A23009A0085017408840088312000F2
:102520007D23903120306400111E932A23009A00ED
:1025300075082200B9001B30BA008831200017202E
:1025400090311A2B740DF700F70DFC30F705770862
:102550002200A000200A8031200048209031FA009B
:102560002200200880312000482090312100ED0019
:102570007A08EE006D0884006E08850075088000FA
:102580007408F6000130FC0036302300910005305D
:10259000920003100A302200B90080312000A127E8
:1025A0009031203085006830840088317D2390315F
:1025B00028306400111ED92A23009A0074082200D2
:1025C000B9001B30BA0088312000172090313D300F
:1025D0002300910005309200031405302200B90059
:1025E00080312000A127903175082200B9001B30EE
:1025F000BA00883120001720903121006E081F3C5E
:102600000318182BFF3A031D092B6D080B3C031808
:10261000182B6E08203C031C182B031D132B6D0870
:102620001B3C031C182B2200A001200020222100AB
:10263000D5142000C82D740DF700F70DFC30F705F8
:1026400077082100ED006D0A80312000482090318C
:10265000FA0021006D0880312000482090312100CF
:10266000E9007A08EA007408F6000130FC00200056
:10267000C82D803193269031C82D750B432B210036
:102680006B14452B200021006B1000306B180130BB
:10269000ED00EE008031200012279031C82D01306E
:1026A0002200A000200020222100D5142000C82DE7
:1026B000FF302200A000200020222100D51420009D
:1026C000C82D8031C7259031803167279031A50111
:1026D0008B1BA5178B1301302300A5008031200030
:1026E00027239031A51B8B1778082200A400A50191
:1026F0002100EE01ED01EE08031D7F2C6D08363C34
:10270000031C7F2C0130FA007E302200AC007A08D6
:10271000AD0021006E082200AF0021006D082200EC
:10272000AE00B1010630B00088312000DD279031C5
:10273000780822002C07A00079082D3DA100203048
:10274000AD00A630AC002108AF002008AE0020008C
:10275000F92121006D0D2200AC0021006E0D220038
:10276000AD00AC0DAD0DFC30AC052D08FA002C0809
:10277000AE002C0A8031200048209031FA0022005F
:102780002E0880312000482090312200A2007A08D3
:10279000A3002308FA00220884007A0885000008B4
:1027A000AC005B3064002000111AD82B2200D22B21
:1027B00023009A000B30840021006E082200AE0036
:1027C00021006D082200AD000508B5000408B40022
:1027D0002E0EF038B000B007E23EB100323EB3003A
:1027E0002E080F39B107B107B307E93EB200B207AF
:1027F000B2072D0E0F39B207B307B20DB30DB309EF
:10280000B30D2D080F39B307B00D0730AF000A30F4
:10281000B307B203031C082CB207B103031C0C2C32
:10282000B107B003031C102CB007AF03031C142C1A
:10283000013085002F3084000730340534138407BD
:1028400033300402031934170008F700031D302C3D
:10285000341B302C341A3E2CB419302C2030332C3D
:10286000B41534123030F707770864002000111ACD
:102870003B2C2200352C23009A0022000131341F0A
:10288000202C5D3064002000111A482C2200422CBC
:1028900023009A00203064002000111A512C2300DC
:1028A0004B2C23009A0020308500A630840088310C
:1028B00020007D23903120306400111E5C2C230009
:1028C0009A0022002C08B9001B30BA008831200081
:1028D000172090310A306400111E6B2C23009A00DF
:1028E0000D3064002000111A772C2300712C230076
:1028F0009A0064002100ED0A0319EE0A7B2BEF0118
:102900006F08023C031CAF2C6F088031200044206C
:1029100090312200AC00AD000130AE00B00180303B
:10292000AF00883120001122903122002C08AD0028
:10293000AF01AE0120005822781CAC2C0230F70009
:1029400021006F08F8000319A82CF735F80BA52C07
:1029500077082200A50720002100EF0A802C89308B
:102960002300910004309200031009302200B900C6
:1029700080312000A12790315C082200B9001B3073
:10298000BA0088312000172090318E30230091004A
:102990000430920003140D302200B9008031200071
:1029A000A127903162082200B9001B30BA0088319B
:1029B00020001720903196302300910004309200BF
:1029C00003100B302200B90080312000A127903184
:1029D00022002508B9001B30BA00883120001720DA
:1029E00090319D302300910004309200031010308C
:1029F0002200B90080312000A12790312200240854
:102A0000B9001B30BA0088312000172090310A30FD
:102A10006400111E082D23009A000D306400200070
:102A2000111A142D23000E2D23009A008831200046
:102A3000972390312100D5142000C82D0100C82D06
:102A400075080A3C031D262DF5012B2DF508031DE5
:102A50002B2D0A30F50075080F392100ED006D08A7
:102A6000EE006E082200AA00AB018031200027276B
:102A700090310C302200AA000130AB0080312000E0
:102A80002727903101302200AA00AB0080312000BE
:102A90002727903105302200AA000130AB00803199
:102AA0002000272790312100AB011030AA002A080E
:102AB0002B0403195D2D0000572D04302200AA00BD
:102AC0000130AB008031200027279031C82D7508D8
:102AD0000339043E2100EC002030D7006E30D600D0
:102AE000DC302300910003309200031004302200F8
:102AF000B300883120004222903160302200B300C0
:102B00001830B400883120001A239031DF302300C0
:102B1000910003309200031008302200B300883186
:102B200020004222903121006C082200B3001830AE
:102B3000B400883120001A2390310A306400111E3D
:102B40009E2D23009A000D3064002000111AAA2D3A
:102B50002300A42D23009A00203085006E308400CD
:102B6000883120007D23903121006C082200B300C1
:102B70002030B5006E30B40088312000AA22903198
:102B8000C82D75082200A700883120008B219031C4
:102B900008000A148A100A158207782A1B2B392B81
:102BA0003D2B4F2B582B612B1E2D202DC12D672D1A
:102BB00030302100E200E300E400E501E600E70038
:102BC000E800E901DF015F08023C031C2C2F3030D4
:102BD0005F078400203085000318850A0008E000A4
:102BE00033305F078400203085000318850A000811
:102BF000E1006008EB006108EC005F08ED006D0883
:102C000080312000442090312200A200AD0001302C
:102C1000AE00B0018030AF00883120001122903129
:102C200022002208AD00AF01AE0120005822220090
:102C300021107818211421006C080F39EF006C085E
:102C4000F039F700770E2200A0000F30A005200019
:102C500062080F395C042100EE006B08013A200085
:102C60000319362E033A0319482E5F2E1F30210018
:102C70006D078400203085000318850A6E086C05F6
:102C8000031D442E0030452E0130800020005F2EB1
:102C90001F3021006D078400203085000318850A4D
:102CA000003022002118013021006F05220020068B
:102CB000031D5C2E00305D2E0130800020002100BD
:102CC0006A101F305F078400203085000318850AD2
:102CD000800803196A145F08803120004020903179
:102CE0002100EB0000306A180130F7006B08220069
:102CF000AD007708AE000130B000AF018831200090
:102D00001122903121006B082200AD00AE01B0010C
:102D10008030AF00883120001122903121006A18E4
:102D20009A2E96305F078400203085000318850AAC
:102D30003130800036305F07840020308500031872
:102D4000850A0008E00039305F07840020308500E4
:102D50000318850A0008E1005F0880312000442044
:102D600090312100EB002200AD000130AE00B00137
:102D70008030AF00883120001122903121006B0893
:102D80002200AD00AF01AE0120005822781CD32EE6
:102D9000923021005F078400203085000318850AE7
:102DA00031308000200021006008EB006108EC0059
:102DB0005F08ED006D088031200044209031210033
:102DC000EF002200AD000130AE00B0018030AF0056
:102DD000883120001122903121006F082200AD00BF
:102DE000AF01AE012000582221006E1078186E1439
:102DF0006B08013A20000319042F023A0319122F1D
:102E0000013A03191E2F292F21006E1C0C2F6C086C
:102E10002000DE05112F21006C08FF3A0F39200039
:102E2000DE04292F21006E1C1B2FF2166C082000D7
:102E3000E4001D2F21002000E401292F21006E183D
:102E4000272FF2166C082000E400292F2100200013
:102E5000E4012100DF0AE32D2030D7006E30D600D8
:102E6000423023009100053092000310053022000B
:102E7000B30088312000422290312030850092300A
:102E8000840088319522903145302300910005302F
:102E90009200031407302200B30088312000422240
:102EA0009031203085009630840088319522903111
:102EB00003302200B3002030B5006E30B4008831FA
:102EC0002000AA22903108002100DF015F08053CA4
:102ED000031C952F2A305F078400203085000318DB
:102EE000850A0008E00060082200A7008831200061
:102EF0008B21903163080339803131209031F80003
:102F000007302200AA007808AB0088312000202179
:102F100090312100AB017808AA002A082B0403197C
:102F2000932F00008D2FDF0A662F98312000692D26
:102F300021006008E4005F08E3006408FA00630809
:102F400084007A08850080080319AA2FE30A031970
:102F5000E40A9D2F6208FA00610884007A0885005F
:102F600080080319CA2F6308E5006408E6006108B9
:102F70008400620885000008E7006608850065088F
:102F8000840067088000E30A0319E40AE10A0319D0
:102F9000E20AAA2F630884006408850080015F08A4
:102FA000F8006008F90098312000D12D2100DF01E0
:102FB0005F08093C031CE62F5C305F07840020306B
:102FC00085000318850A8001DF0AD82F2030B7005A
:0A2FD0005C30B60098312000122E8C
:103000002200B501B60120308500993084003508D2
:1030100084070030853D3608803120003621983104
:1030200080000038031919282200B60AB50A0328BF
:10303000200020302200B6004830B5002030B80013
:103040009930B700883120003D2698317908220058
:10305000B4007808B300B308031D3128B40803197D
:103060004B283408B8003308B7002030B600A5302C
:10307000B50038088500370884000008B900360814
:1030800085003508840039088000800803194B2822
:10309000B50AB70A3928B601B5012030B800993011
:1030A000B700883120003D26983179082200B4000D
:1030B0007808B300B308031D6028B40803197A2800
:1030C0003408B8003308B7002030B6006830B500C7
:1030D00038088500370884000008B90036088500E4
:1030E0003508840039088000800803197A28B50A59
:1030F000B70A6828B601B5012030B8009930B7008A
:10310000883120003D26983179082200B4007808E3
:10311000B300B308031D8F28B4080319B928340875
:10312000B8003308B7002030B600A130B500380829
:103130008500370884000008B90036088500350886
:1031400084003908800080080319A928B50AB70A45
:1031500097282030B600A130B500B801B7010A3079
:10316000B90090312000002098317808F500BC2883
:103170002200FF30F50020002200B501B60120300A
:103180008500AD308400350884070030853D360861
:10319000803120003B219831800000380319D52868
:1031A0002200B60AB50ABF28200020302200B6004F
:1031B000AD30B5002030B800A530B7008831200010
:1031C00046279831F808031DEE287508FF3C031DBB
:1031D000EC280330F000EE280230F0002200B501A8
:1031E000B60120308500AD308400350884070030FA
:1031F000853D36088031200040219831800000381C
:10320000031907292200B60AB50AF1282000203048
:103210002200B600AD30B5002030B800A530B700B0
:103220008831200046279831F808031D19290430F9
:10323000F0002200B501B60120308500AD308400D9
:10324000350884070030853D36088031200046214E
:10325000983180000038031932292200B60AB50AD5
:103260001C29200020302200B600AD30B5002030EF
:10327000B800A530B7008831200046279831F808FB
:10328000031D44290530F0002200B501B6012030AD
:103290008500AD308400350884070030853D360850
:1032A000803120004F2198318000003803195D29BA
:1032B0002200B60AB50A4729200020302200B600B5
:1032C000AD30B5002030B800A530B70088312000FF
:1032D00046279831F808031D6F290830F0002200B6
:1032E000B501B60120308500AD3084003508840773
:1032F0000030853D3608803120005721983180000C
:103300000038031988292200B60AB50A722920005C
:1033100020302200B600AD30B5002030B800A53016
:10332000B7008831200046279831F808031D9A29F4
:103330000930F0002200B501B60120308500AD3023
:103340008400350884070030853D36088031200030
:103350005F219831800000380319B3292200B60A92
:10336000B50A9D29200020302200B600AD30B500FE
:103370002030B800A530B7008831200046279831AA
:10338000F808031DC5290A30F0002200B501B60176
:1033900020308500AD308400350884070030853D3D
:1033A00036088031200065219831800000380319EB
:1033B000DE292200B60AB50AC829200020302200E2
:1033C000B600AD30B5002030B800A530B700883168
:1033D000200046279831F808031DF0290C30F00032
:1033E0002200B501B60120308500AD3084003508DB
:1033F00084070030853D3608803120006A219831ED
:10340000800000380319092A2200B60AB50AF329F8
:10341000200020302200B600AD30B5002030B800CA
:10342000A530B7008831200046279831F808031DE1
:103430001B2A0B30F0002200B501B60120308500B8
:10344000AD308400350884070030853D3608803172
:10345000200071219831800000380319342A22009D
:10346000B60AB50A1E2A200020302200B600AD3070
:10347000B5002030B800A530B700883120004627BD
:103480009831F808031D462A0630F0002200B501E5
:10349000B60120308500AD30840035088407003047
:1034A000853D360880312000742198318000003835
:1034B00003195F2A2200B60AB50A492A20002030E3
:1034C0002200B600AD30B5002030B800A530B700FE
:1034D0008831200046279831F808031D712A0730EB
:1034E000F000FF30F4002100E001DF01E008031DDF
:1034F000C22A5F08363C031CC22A0130FA007E3023
:10350000E9007A08EA0060082200AF0021005F08A5
:103510002200AE00B1010630B00088312000DD2766
:103520009831780821006907E10079086A3DE200D6
:1035300020302200AD009330AC0021006208220050
:10354000AF00210061082200AE0090312000F92177
:10355000983120302200B6006830B5002030B80025
:103560009330B7008831200046279831F808031DB2
:10357000BD2A21005F08F40020002100DF0A0319A2
:10358000E00A762A7408FF3C031D2A2B2030220013
:10359000B6006830B500B801B7010A30B900903103
:1035A0002000002098317808F5002100E901EA01A7
:1035B0002030850093308400690884070030853D01
:1035C0006A088031200025219831800000380319D5
:1035D000EE2A2100EA0AE90AD82A20002030220037
:1035E000B6006830B5002030B8009330B70088319D
:1035F000200046279831F808031D002B0130F50004
:103600002100E901EA012030850093308400690837
:1036100084070030853D6A08803120002D219831D3
:10362000800000380319192B2100EA0AE90A032B4C
:10363000200020302200B6006830B5002030B800ED
:103640009330B7008831200046279831F8080319D5
:10365000F5012100903120007122983198312A2DF6
:103660002100DF010130E000E401200062080F3991
:103670005C042100E3002000E7080319562B210019
:10368000630820006505031D562BE701E5010130A5
:103690002100E400630820005D055E05031D562B34
:1036A000F216E1080319562B6108E4002100E1013C
:1036B000E5016508033C031C8A2B630860050319B8
:1036C000842B20005D085E05210060050319722B24
:1036D000223065078400203085000318850A000821
:1036E000E200742B0130E200620820006702031838
:1036F000852B21006208DF0001306507E100013001
:10370000E400D4002C30D300200003102100E00D91
:10371000E50A592BE4080319C22B4C302300910011
:1037200004309200031010302200B90080312000D4
:10373000A12798315C082200B9001B30BA008831FB
:10374000200017209831553023009100043092005A
:10375000031014302200B90080312000A1279831D5
:1037600062082200B9001B30BA00883120001720FF
:10377000983121006108E600883120005E249831EC
:103780002100D514E30803195514983120006F2D3A
:10379000F501F0012100E1010530E200610862025B
:1037A000031CF72B6108093C031CF72B6514610807
:1037B000E40064086202031CF62B5C30640784009A
:1037C000203085000318850A00080F39E3005C30BB
:1037D00064078400203085000318850A001E6510E8
:1037E00063080C3C03196510E40AD92BF82B65100B
:1037F000003065180130F800F8080319EF2C2C0888
:103800000F39E2002200AA000A30AB008831200004
:103810002021983178082100E1002D080F39610737
:10382000DF002E080F39E2002200AA000A30AB00A8
:10383000883120002021983178082100E1002F08EC
:103840000F396107F00030080F39E2002200AA00AA
:103850000A30AB00883120002021983178082100FF
:10386000E10031080F396107F4000630E00060081C
:10387000E10061080A3C031C572C5C30610784009E
:10388000203085000318850A001E552C5C30610726
:103890008400203085000318850A00080F390C3C8D
:1038A0000319552C0130E200562CE201582CE2019C
:1038B0006208F800F8080319762C75082200AA009F
:1038C0000A30AB008831200020219831780821008F
:1038D000E1005C3060078400203085000318850A11
:1038E00000080F396107F500E00A372C70080A3A22
:1038F00020000319812C0E3A0319812C013A031D73
:10390000832C7408F5001A302300910004309200D3
:103910008031200072259831283023009100043036
:10392000920003100E302200B90080312000A12740
:10393000983121005F082200B9001B30BA0088319D
:10394000200017209831313023009100043092007C
:1039500003100E302200B90080312000A1279831D9
:1039600070082200B9001B30BA00883120001720EF
:1039700098313A30230091000430920003100E3049
:103980002200B90080312000A1279831740822005C
:10399000B9001B30BA00883120001720983143301D
:1039A000230091000430920003100E302200B90071
:1039B00080312000A127983175082200B9001B3002
:1039C000BA008831200017209831600821005F027A
:1039D000031DEF2C903120007122983121005514E5
:1039E000983120000A2E850184011F308305723032
:1039F000210099008E150E162400171097109711AC
:103A00001330920028309500941714130C302300C3
:103A10009B00A2309E0090309D002100D701D6016E
:103A20002F0091019201980199019A0123008C01C4
:103A30008D018F0190012200920191019401930167
:103A40002000A601A7018831862D98316400721CE0
:103A50002E2D002880315825983172106400721D77
:103A6000652D9031D825983121005308540403194D
:103A70003E2D53080319D403D303532D2000DC0833
:103A80000319542D2100E601883120005E2498316D
:103A90004B302300910005309200803120007225C8
:103AA00098312100D51420006400FD0803195A2D17
:103AB000FD03642D3C30FD00FE080319612DFE035B
:103AC000642D72161E30FE007211721E6C2D903124
:103AD000642F983172126400F21C742D302B9031D7
:103AE000D8259831F2106400F21F072E2100DF0163
:103AF000E001203085006E3084005F0884070030CC
:103B0000853D6008803120007721983180000038A1
:103B100003198F2D2100E00ADF0A792D200054308F
:103B200023009100053092008031200072259831E9
:103B30002100D8015808093C031CE62D5C305807C9
:103B40008400203085000318850A001EE32D5C30B8
:103B500058078400203085000318850A00080F39B3
:103B6000D9002030D7008A30D60059082200B3008F
:103B70001830B400883120001A23983120302200F8
:103B8000B900883120003322983120302100E00034
:103B90006E30DF002030E2008A30E10090312000FA
:103BA000982F983120306400111ED32D23009A00E5
:103BB000210059082200B9001B30BA0088312000CA
:103BC0001720983121006400D80A9A2D0A30640029
:103BD0002000111AED2D2100E72D23009A000D3051
:103BE00064002000111AF62D2300F02D23009A0006
:103BF000F2132100D51402302200B3002030B500AA
:103C00006E30B40088312000AA2298316400721FFF
:103C10000C2EC82B721364002100551C152E9031F8
:103C20002000D62F983121005510D51C1E2E88312A
:103C30002000F42F98312100D51064002000262D9B
:023C400063001F
:083FB800AA346A345A3456346D
:103FC000553455349534A534A934AA346034953425
:103FD0009934943440345934A434553450346A34C8
:103FE00098346534A0349034A8346934A6346434E9
:103FF0005434803458345634683496349A34A53462
:020000040001F9
:04000E00FC0FFF1EC6
:00000001FF
;PIC16F1937
;CRC=A8B4  CREATED="27-Jan-19 12:47"
