:0600000098314F2D0000B5
:0800080083018031200077081C
:10001000A0007808A1007908A2007A08A3007B0854
:10002000A400230011082000A500230012082000CE
:10003000A600230013082000A700230014082000B6
:10004000A8008B1D25280B184B288B1E29280B195F
:100050004D28850191308400801E3028911A4F2848
:100060002008F7002108F8002208F9002308FA0008
:100070002408FB0025082300910020002608230007
:100080009200200027082300930020002808230066
:100090009400090020008031242B8031422B8031D4
:1000A000C82A0B0060346134623463340B0064345A
:1000B0006534803481340B007134753482340B0024
:1000C0006E346F3470340B00463420340F340134F6
:1000D000483420340F3403341034203420340334B3
:1000E00011342034203403341234203420340334C7
:1000F00013342034203403341434203420340334B3
:10010000153420342034033416342034203403349E
:10011000173420342034033418342034203403348A
:1001200019342034203403341A3420342034033476
:100130001B342034203403341C3420342034033462
:100140001D342034203403341E342034203403344E
:100150001F3420342034033420342034003401345C
:10016000213420340034013422342034003401346A
:10017000263420340134013427342034003401344F
:100180002834203400340134293420340434033436
:100190002A342034063403342B3420340634033418
:1001A0002C342034023403342D3420340E34033400
:1001B0002E3420340D3403342F3420340B340334E4
:1001C0003034203407340334493420343634033493
:1001D0004A34203412340334313420341F3403348D
:1001E000323420340E3403343334203402340334B4
:1001F000343420341B340334353420340E34033487
:10020000363420341134033437342034003403348A
:100210003834203403340334393420340334033481
:100220003A342034003403343B342034383403343B
:100230003C342034373403343D3420340234033426
:100240003E342034003403343F342034003403344B
:10025000403420340B34033441342034003403342C
:1002600042342034003403344B342034003403341B
:100270004C342034053403344F34203400340334F8
:1002800072340034003400346434203400340234D6
:100290000B0065346534703472346F346D3400345F
:1002A0000B00643465346634613475346C347434F2
:1002B00000340B0050344F3454343A3400340B00C3
:1002C000443454344D3446343A3400340B0043340F
:1002D00050344F345434003445344E3400340034F8
:1002E0000034003450344F344C3400340034003483
:1002F00052343134473431340034003452343134E0
:1003000047343234003400345234313447343334D7
:10031000003400345234313447343434003400343F
:1003200052343234473431340034003452343234AD
:1003300047343234003400345234323447343334A6
:10034000003400345234323447343434003400340E
:10035000523433344734313400340034523433347B
:100360004734323400340034523433344734333475
:1003700000340034523433344734343400340034DD
:100380005234343447343134003400345234343449
:100390004734323400340034523434344734333444
:1003A00000340034523434344734343400340034AC
:1003B000583449343134003400340034583449342A
:1003C0003234003400340034583449343334003487
:1003D0000034003458344F343134003400340034A5
:1003E00058344F34323400340034003458344F34ED
:1003F0003334003400340034523431345034003457
:100400000034003452343234503400340034003478
:1004100052343334503400340034003452343434E1
:1004200050340034003400345234313450345434B5
:10043000543400345234323450345434543400344C
:100440005234333450345434543400345234343409
:100450005034543454340034533449344434003424
:1004600000340034543458344934443400340034B3
:100470004D34523453343134003400344D3452341A
:1004800053343234003400344D3452345334333422
:10049000003400344D345234533434340034003496
:1004A0004D34523453343534003400344D345234E6
:1004B000533436340034003458344F344F343134EC
:1004C0000034003458344F344F3432340034003464
:1004D00058344F344F3433340034003458344F34AC
:1004E000413431340034003458344F3441343234E0
:1004F0000034003458344F34413433340034003441
:10050000583449344F343134003400345834493489
:100510004F34323400340034583449344F34333497
:100520000034003458344934413431340034003418
:100530005834493441343234003400345834493466
:1005400041343334003400345434413449344C346D
:100550000034003454344F34543400340034003404
:100560004C3454344F3400340034003443344F346A
:100570005234003400340034433450344F34543453
:1005800000346400111EC12A23009A0020000800D4
:10059000911E1F2B6400911ECA2A23001908D00047
:1005A0005008083C031DFA2AFE080319F52AFE0329
:1005B00052307E078400203085000318850A8001B0
:1005C00008302000C1221B30C1225B306400111EA4
:1005D000E62A23009A004B3064002000111AF22A08
:1005E0002300EC2A23009A00F92A07302000C122B8
:1005F0002300202B7E080F3C031C1C2B50082000DE
:10060000C1227E08FE0A523E840020308500031875
:10061000850A23005008800050080D3C0319182B50
:1006200050082B3C0319182B50082D3C031D1B2B85
:10063000210032142300202B07302000C122230088
:100640002000911280313028270016080F39031935
:100650002E2B21003215F03027009605161E342B64
:100660002100E71727001612161C3B2B21006715E7
:100670003F3027009605FF30160696050B10803197
:100680002000302821003508360403194C2B35088A
:100690000319B603B503522B321532176715B6018D
:1006A0001E30B5003708380403195A2B37080319D0
:1006B000B803B7030B1180312000302849194310CB
:1006C0003A10CE37A020C3252033F2376D10CC214D
:1006D00044005B183B184800D027541DFE20C3255A
:1006E0000000C327521DA5392028542ABA127300CE
:1006F0004122CD244E1F2000C327CD264127441F71
:100700002000442A4D233D00D2204D1E3D00C5222D
:100710005029CF260001C634F236F730F2320000FD
:10072000C5225029CF26BC1ED2204D00A121CB29A5
:10073000D5262100A539A812F514201E3D10A53A92
:1007400000002310502A5410D434ED32EF3AF41044
:100750000A002310CC34EE35202A4F2A2105000050
:1007600010302200D300D201530852020318C22BCA
:10077000523052078400203085000318850A80011A
:10078000D20AB42BFE0121003210FF30C600C8018E
:10079000F001200008000A30C1220D30C1220800FB
:1007A0000B088B1323009517151400000000891BFC
:1007B0008B1713087F390319142CC0001108C100CE
:1007C0001208C200400864002000111AE92B23001F
:1007D000E32B23009A0041089100420892000B0885
:1007E0008B139517151400000000891B8B17130D30
:1007F000140D7F390319142CC0001108C100120810
:10080000C200400864002000111A082C2300022CAA
:1008100023009A004108910042089200910A0319AE
:10082000920A2000D02B2300200008002300250876
:100830008400260885000008A80028087F3C031CC7
:10084000A80A0310280D093A2707A80025088400E4
:1008500026088500280880002000080001302200BA
:10086000EE00EF012300A1002000CB238430230001
:100870009100033092002000D02322006A0B492C03
:10088000873023009100033092002000D023502CA9
:1008900022008B3023009100033092002000D023EF
:1008A0002200EB016B08383C031CB62C6B0DF700E3
:1008B000F70DFC30F70577082300A400240A200078
:1008C0006320FA0023002408200063202200EC00AB
:1008D0007A08ED006A0B9F2C6B0DF700F70DFC30CA
:1008E000F7057708033E20006320F80078187A2C7B
:1008F00022009F2C22006F082300910095131514ED
:100900001308A20022006C0884006D0885002300F3
:100910002208800022006D08FA006C0884006D082F
:10092000850000082300A4002030A600EE30A500BA
:100930002408A700200016242200EF0AB42C6B0D17
:10094000F700F70DFC30F7057708023E2000632022
:10095000F8002300A00022006C0884006D088500C8
:100960002300200880002200EB0A522C6A0BC52CC1
:100970006F082300910095131514130822006E02CE
:100980000319C52C2300A101220023002108F8002F
:100990002000080001302200EE00EB01EA016A08A5
:1009A000383C031C2C2D6A0DF700F70DFC30F705C1
:1009B00077082300A000200A20006320FA0023000B
:1009C0002008200063202200EC007A08ED006A0D68
:1009D000F700F70DFC30F7057708033E2000632091
:1009E000F800781C292D22006C0884006D08850011
:1009F0000008EF006B0823009100951315141308ED
:100A000022006F0203191B2D0B08F7008B136B08D4
:100A10002300910022006F08230093009513151501
:100A200055309600AA30960095149518152D15117D
:100A300077088B04220020302300A600EE30A500AA
:100A400022006F082300A700200016242200EB0AD2
:100A500020002200EA0ACF2C0B08F7008B136B084A
:100A60002300910022006E082300930095131515B2
:100A700055309600AA309600951495183D2D151105
:100A800077088B042000CB239030230091000330A3
:100A900092002000D023080022006908EA0020000C
:100AA0002E24F808031D612DCB23963023009100DE
:100AB000033092002000D0232200EA0120002E24DF
:100AC000CA240800003021008F00230036103408AB
:100AD0000F390139031D36143618722D22000F10FC
:100AE000742D230022000F142300361034080F3910
:100AF0000239031D36143618812D22008F10832DE4
:100B0000230022008F142300361034080F390439D3
:100B1000031D36143618902D22000F11922D23003C
:100B200022000F152300361034080F390839031D31
:100B3000361436189F2D22008F11A12D230022007C
:100B40008F152300B508031DA92D22000F13AB2D0F
:100B5000230022000F17AC2D8F12AE2D8F16B02D53
:100B60000F3021008F00200008000F3021008F007F
:100B70002300A808031DC02D22000F13C22D23003F
:100B800022000F1700000F12000020000F082300A2
:100B9000A9000F30A90522000F1600002300290824
:100BA000F800200008002400951320009111230074
:100BB0004708240091000230951BE32D1419DE2D07
:100BC0000030161B0130F8002000080023002C0E16
:100BD000AE00AE0DAE0DC030AE052D083F39AE07EC
:100BE000240016141618F22D50302300C7002000E0
:100BF000D325780823002F1078182F142F1C0A2EC5
:100C00002000CB236C3023009100033092002000A1
:100C1000D02323002E08C7002000D325240016155A
:100C20001619102E20000800213085000C30840099
:100C3000000803192C2E0230F800BF30F7006400C2
:100C4000F70B1F2EF80B1D2E9630F700F70B262EF4
:100C5000292E6400800B1B2E080023003208F700A9
:100C600003109517151400000000130880000131CF
:100C7000910A0319920AF70B322E20000800230074
:100C80003008B400B501200062250C302300B40008
:100C90000130B50020006225230031080138B3007F
:100CA000B4000130B5002000622505302300B400F7
:100CB0000130B500200062252100B8012300320870
:100CC0002100B700370838040319682E0000622E8F
:100CD00004302300B4000130B50020006225080074
:100CE00001302300B0000430B1000230B200200017
:100CF0003F266400080001302300B0000430B1003A
:100D00000630B20020003F2664000800DB302300DC
:100D10002C07B0001F30B1000318B10A310892004F
:100D20003008910020308500FD3084000130B20091
:100D300020002D262100EA142300AE012E08033CDA
:100D4000031CC82E2F142D08C039403A2000031967
:100D5000AD2EC03A0319AF2EB12E7026B42E7B26CD
:100D6000B42E23002F1020002300AD0DAD0DFC305C
:100D7000AD052F1CC62E2100B8010230B700370880
:100D800038040319C52E0000BF2E2300AE0A9E2E84
:100D90002C08093C031CD72E2C08043C031CD42E21
:100DA00020007B26D62E2300200070262300200062
:100DB000080023002D080739F7002D0CF800F80C67
:100DC000F80C1F30F80578082F0784000030303DFC
:100DD0008500F801F80AF70AEE2EF80DF70BED2E54
:100DE000AE080319F62E78088004F92EF809780861
:100DF00080052000080021006C0885006B08840035
:100E0000230031081A0080012100EB0A0319EC0AC3
:100E1000200008000B088B13230095171514000001
:100E20000000891B8B170318302F13087F39AE0081
:100E30001108AF001208B0002E08B1002000FB26F8
:100E400023002F089100300892000B088B13951790
:100E5000151400000000891B8B17AC0B302F4A2F94
:100E6000130D140D7F39AE001108AF001208B00049
:100E70002E08B1002000FB2623002F089100300827
:100E80009200910A0319920A0310AC0B482F4A2FC3
:100E900020000A2F2000080080080319602F050891
:100EA0002300AD000408AC000008B1002000FB26C0
:100EB00023002D0885002C088400013120004C2FD0
:100EC0000800230045080438C600C7002000D325C9
:100ED00023004508FB39C600C7002000D3250800C1
:100EE00023004208F0390838C300420EF700F03002
:100EF000F7057708F0390838C400C1080319822FB4
:100F0000431444144308C50020006127230044080B
:100F1000C50020006127080023003E08F8013D02BB
:100F20000318952F3D08F700A12FF7010830BF00E7
:100F3000BD0DF70D3E0877020318F700F80DBF0B43
:100F4000982F2000080023003D08C1003C08C00085
:100F50004108FA00400884007A08850080080319D7
:100F6000B52FC00A0319C10AA82F3F08FA003E088E
:100F700084007A08850080080319D12F3E08840078
:100F80003F0885000008C50041088500400884002E
:100F900045088000C00A0319C10ABE0A0319BF0A26
:100FA000B52F400884004108850080013C08F80006
:100FB0003D08F9002000080080080319F42F0508F7
:100FC0002300BD000408BC00000864002000111AC2
:100FD000EB2F2300E52F23009A003D0885003C08F5
:0A0FE000840001312000DC2F08001E
:1010000024001614161802284E302300C700803121
:101010002000D3258831780823003F1078183F142A
:101020003C080339FC3E03184128043E2000932865
:101030002300C1018030C200803120007027883138
:10104000230041282300C101C030C20080312000AC
:1010500070278831230041282300C1019430C20049
:101060008031200070278831230041282300C101EE
:10107000D430C200803120007027883123004128FD
:10108000230064003F1C582821006A1E5628803126
:101090002000CB2388315E30230091000330920082
:1010A00080312000D023883121006A125A28230081
:1010B00021006A1623003E08FA003D0884007A08E1
:1010C0008500800803198D283E08FA003D08840039
:1010D0007A08850000080D3C031989283E08FA00AB
:1010E0003D0884007A08850000080A3C0319892815
:1010F0003E08FA003D0884003E0885000008C00054
:101100000130C1004008C2008031200070278831C2
:101110002300BD0A0319BE0A5B2824001615161900
:101120008F28200008000A108A100A118207182848
:1011300022282C28362820302300AF00B000B10030
:10114000B200B301B401B501B6012830BC00803152
:10115000200014268831240016141618AD285130AA
:101160002300C70080312000D32588317808230070
:10117000AE107818AE14AC012C08033C031CFB28FD
:101180002C08033C031DC6282E10C7282E1400303F
:101190002E180130BC003C08F700240015139615EA
:1011A0009619D02877189612771C96161616161AC6
:1011B000D7281108F80078082300AD003F30AD05AE
:1011C00003302C078400213085000318850A2D0880
:1011D000800021003408033923002C02031DF92864
:1011E000FF302C078400203085000318850A2A3040
:1011F0008000AC0ABC28240016151619FD283230D0
:101200002300BC0080312000142688312300BC015B
:10121000BD01203085007E3084003C08840700300A
:10122000853D3D08803120005921883180000038FB
:1012300003191F292300BD0ABC0A09292000230025
:10124000AC012C08033C031C7F29FF302C078400D1
:10125000203085000318850A0008B70003302C07EA
:101260008400213085000318850A0008093C031812
:10127000632903302C078400213085000318850A78
:101280000008BD000A30BE00803120008C27883164
:101290007808303E2300B80003302C07840021304A
:1012A00085000318850A0008BD000A30BE008031A1
:1012B00020008C2788317708303E2300B900203089
:1012C000BA00BB01702903302C078400213085004F
:1012D0000318850A0008303EB8002030B900BA0172
:1012E0002030BD007E30BC002130BF000730BE0082
:1012F00080312000A32788312300AC0A2129BC01BA
:101300002030BE007E30BD00200000200D30640083
:10131000111E872923009A00203085007E3084002A
:1013200080312000DC278831080030302300A00005
:10133000A100A200A300A401A500A600A700A80088
:10134000A90122006A08FC00EA080319BA29013041
:101350006A022D3E8400203085000318850A0008AB
:101360002300AC0020006608670523002C0522003E
:10137000EF00032AEF012100E71C022AE710F5081D
:10138000031DC529F4080319022A64000430230050
:10139000AC00FA30BC0080312000142688312300D4
:1013A000AC0BC929F5080319E9297508AC0080318F
:1013B000200086268831F501640002302300AC004D
:1013C000FA30BC0080312000142688312300AC0B99
:1013D000E029F4080319002A7408AC0080312000C9
:1013E00086268831F401640002302300AC00FA3014
:1013F000BC0080312000142688312300AC0BF72973
:101400006400210022000130EE00EB016B08033C78
:10141000031C6C2AEA08031D122A23002A10AA10B2
:101420002B2A220001306B076A02031D1D2A2300AC
:101430002A1422006E08F600202A23002A10220017
:101440002300AA1022006F086E0503192A2A230020
:10145000AA142200230022006B08803120005120B2
:1014600088312300AC0000302A180130F7002C0826
:10147000AD007708AE000130B000AF018031200030
:10148000D926883122006B0880312000562088310F
:101490002300AC000030AA180130F7002C08AD0082
:1014A0007708AE000130B000AF0180312000D926AE
:1014B00088312300AA1C672AF53022006B078400BC
:1014C000203085000318850A313080002300031086
:1014D0002200EE0DEB0A062AEA08031D712AFD011F
:1014E000A22A01306A02293E8400203085000318B8
:1014F000850A0008FD00EC016C08033C031C9F2AD0
:1015000001306A02F700F70DF70DFC30F705770898
:101510006C07103E8400203085000318850A0008FF
:10152000ED006C082300AC0022006D082300AD0024
:1015300080312000E62588312200EC0A7C2A210037
:10154000EA14220001306A02F03E84002030850057
:101550000318850A3130800020302100EC007E30F5
:10156000EB0071302300910003309200031004302F
:10157000AC00803120000A27883121006C088500EA
:101580006B088400800120308500F03084008031B9
:1015900020004C27883174302300910003309200E2
:1015A00003100530AC00803120000A27883121006B
:1015B0006C0885006B088400800120308500F530C0
:1015C0008400803120004C27883101302300BC008A
:1015D0002030BE007E30BD002000002032302300CD
:1015E000BC0080312000142688319B200800210097
:1015F0006A112200ED080319002B21006A15220050
:1016000021006A1D082B0A30F500FF30B3000A2BB9
:101610001830F500200008002400161416180E2BB0
:101620004E302300C70080312000D3258831303070
:101630002300C5008031200061278831303023002D
:10164000C500803120006127883130302300C5007B
:10165000803120006127883120302300C50080318F
:101660002000612788312300C1012C30C200803165
:101670002000702788312300C1010C30C200803166
:101680002000702788312300C1010130C200803161
:101690002000702788312300C1010430C20080314E
:1016A000200070278831240016151619552B2000AC
:1016B00008008031B0238831220092019101940109
:1016C0009301173021009700B21032112000E4017D
:1016D000F201F3012100E7106713E7132000EE0188
:1016E0002100B901F601FD01FC01B401FF308D00BC
:1016F00000308F00101090101011901591168B155E
:10170000CF302700940495048B1515161412C030A1
:101710008B0422008F138F160F160F130130E90070
:10172000803120004C25883122000F168F160F13B0
:101730002300B4010130B5008031200062258831DA
:101740002300B4010130B5008031200062258831CA
:101750000C302300B4000130B50080312000622538
:10176000883101302300B400B500803120006225AB
:10177000883101302300A80080312000B525883150
:1017800021006A140F302000E7002100A101A00110
:101790006F3024008D00210095139D308E00803025
:1017A0008C002200D2015208033C031CE22B520899
:1017B0002300AC00AD0180312000E62588312200F5
:1017C000D20AD32B2100B6011E30B5001508C0394E
:1017D000073895008B162200EA01200095211D3064
:1017E0002100E9003B30E8006710B213EA14200042
:1017F0006B08F400F5012200D0015008023C031CE4
:101800000B2C233050078400203085000318850AF4
:101810008001D00AFD2B210067112000E501220084
:10182000ED012000F7222100EA11E5011E169E16A7
:101830001E139E131D141E109E101E110030230037
:101840008C00900020308D0000308F003430F80084
:1018500021001D08833978049D0020000C23983155
:10186000D82D2100340803392200D4002000640858
:1018700072040F392200D20020008C1B4F2C210053
:10188000B21122005008083C031D492C2100B2155A
:1018900022005008083C0318D00A542C20002200D3
:1018A000D0012100B211220020009019672C2100E4
:1018B000321222005108083C031D612C210032160F
:1018C00022005108083C0318D10A6C2C2000220089
:1018D000D10121003212220021006508003A2000C7
:1018E0000319792C103A03197F2C1F3A0319902CF5
:1018F0000B2D2100B21D7E2C1030E5000D2D210096
:101900009D149D18812C1C0CE300E30C3F30E30573
:101910006308E4000F30E50020009B2021000D2D1E
:101920002200D2080319C82C21009D149D18962C62
:101930001C0CE300E30C3F30E30563083F3C22004E
:10194000D3002100640863020319C72C3408230064
:10195000AC00220053082300AD0080312000E625B2
:1019600088319B2001307C02F700F70DF70DFC3029
:10197000F705770822005407103E840020308500C8
:101980000318850A5308800021006308E400220040
:101990002100321ED22C013034070339B40020005C
:1019A0009B202100B21DDD2C20009019DA2C803103
:1019B000CA2488312100E501EA146712360CFA00C6
:1019C000350CF900FA0CF90CFA0CF90C7908220024
:1019D000D6002100E5080319FE2C35080439F7006C
:1019E000FA0177087A040319FE2C671201303407D4
:1019F000220056020318FF2C210067162200210046
:101A0000671A062D22000C13082D210022000C1746
:101A100021000D2D20002100E501640098312000F7
:101A2000DC2D2300A101A008031D1D2D22006C0840
:101A3000F8006D08F900AE2D230022006D08FA00B1
:101A40006C0884007A0885000008203C0319462DA4
:101A50006D08FA006C0884007A08850000082C3CA8
:101A60000319462D6D08FA006C0884007A08850079
:101A700000083B3C0319462D6D08FA006C088400F1
:101A80007A08850000080D3C031D4A2DEC0A031955
:101A9000ED0A1E2D6D08FA006C0884007A08850096
:101AA00080080319A12D6D08FA006C0884007A08DB
:101AB00085000008203C0319A12D6D08FA006C0870
:101AC00084007A08850000082C3C0319A12D6D08BC
:101AD000FA006C0884007A08850000083B3C031972
:101AE000A12D6D08FA006C0884007A0885000008B2
:101AF0000D3C0319A12D01302300200221020318FF
:101B00009C2D210822006E07F80000306F3DFA007E
:101B100078082300A2007A08A30022006C08840041
:101B20006D08850000082300A40023088500220812
:101B3000840024088000A10A2200EC0A0319ED0A9F
:101B40004A2D2300210822006E07840000306F3DDB
:101B5000850080016C08F8006D08F900200008007D
:101B6000F701F8012300200803102118F707F70CEC
:101B7000F80CA118F707F70CF80C2119F707F70C68
:101B8000F80CA119F707F70CF80C211AF707F70C56
:101B9000F80CA11AF707F70CF80C211BF707F70C44
:101BA000F80CA11BF707F70CF80C20000800220026
:101BB000EE01EF016E086C07840000306D3D85007A
:101BC00080080319102E6E086C07840000306D3DEC
:101BD000850000082F3C0318102E6E086C07840047
:101BE00000306D3D85000008393C031C102E6F0845
:101BF0002300A0000A30A1002000B02578082300AF
:101C0000A00022006E086C07840000306D3D850046
:101C100030300002230020072200EF00EE0ADA2D08
:101C20006F08F8002000080022006F08FA006E0814
:101C300084007A088500800803193E2E6C08840011
:101C40006D0885000008DF392300A00022006E081F
:101C500084006F0885000008DF392300A1002108F7
:101C600020020319362E0030F8004C2E2200EC0A18
:101C70000319ED0AEE0A0319EF0A152E6D08FA0092
:101C80006C0884006D08850080080319492E003017
:101C90004A2E0130F80023002000080010302300F5
:101CA000AE00F701FA01AB0CAA0C031C5D2E2C0848
:101CB000F7070318FA0A2D08FA07FA0CF70CF90CC3
:101CC000F80CAE0B532E200008002300AC012C08AA
:101CD000053C031C912E2C082807F8000030293DF4
:101CE000FA007808AE007A08AF002C082A07F8003E
:101CF00000302B3DFA00780891007A0892002130DC
:101D0000850084010130B200803120002D26883109
:101D100023002F0885002E08840030088000AC0ABC
:101D2000672E200008002200E00160085C078400A4
:101D300000305D3D85000008DF39E10060085E0786
:101D4000840000305F3D85000008DF396102031D1B
:101D5000B72E60085C07840000305D3D8500800878
:101D6000031DB52E0030F800B92EE00A952E013083
:101D7000F80020000800780823002908BD0064301E
:101D8000BE00803120008C27883177082300A9000D
:101D900078083030031DD32EAA1CE02EAA19E02E9D
:101DA0002A1A2030D62EAA112A122A14F8077808E7
:101DB00064002000111ADE2E2300D82E23009A0082
:101DC0002908BD000A30BE00803120008C278831F0
:101DD00077082300A90078083030031DF52EAA19D2
:101DE000FF2E2A1CFF2E2A1A2030F80778086400DC
:101DF0002000111AFD2E2300F72E23009A00303008
:101E0000A907290864002000111A082F2300022FB7
:101E100023009A002000080021006A1D112FFF30C6
:101E2000B3006A19172FEA19172F0030182F013045
:101E3000F800200008002100340803392300A00026
:101E4000FC0803195C2F01307C02F700F70DF70D39
:101E5000FC30F70577082007103EF8002030FA0024
:101E60000318FA0A78082200ED007A08EE006D08DF
:101E700084006E0885000008EF006D0884006E087D
:101E800085006C086F07800020000C27F8080319F4
:101E90005B2F22006E08FA006D0884006E08850032
:101EA00000082300A2002008AC002208AD00803109
:101EB0002000E6258831230020009B2008007808B8
:101EC000220069082300BD006430BE00803120007C
:101ED0008C27883177082200E90078083030031D0C
:101EE000782FEA1C842FEA19842F6A1A20307B2F5E
:101EF000EA116A126A14F80778082300B1008031E9
:101F00002000FB268831220069082300BD000A302A
:101F1000BE00803120008C27883177082200E9003C
:101F200078083030031D9A2FEA19A32F6A1CA32FBB
:101F30006A1A2030F80778082300B10080312000A9
:101F4000FB26883122003030E90769082300B10000
:101F500080312000FB268831080021006A1DC32F34
:101F60000A3080312000C12288318031CB23883172
:101F70007830230091000330920080312000D0237C
:101F80008831D42F21000A3080312000C1228831CD
:101F90008031CB2388317C302300910003309200C4
:101FA00080312000D0238831080023002108073920
:101FB000F700210CF800F80CF80C1F30F805780831
:101FC000220784000030233D85000008F800F70A4E
:101FD000EA2FF80CF70BE92F0130F8052000080074
:1020000001302200EA00883120009521903104300F
:102010002200EA00FA302300BC00803120001426A0
:1020200090312200EA0B0A28E8016808053C031CED
:102030003628313068078400203085000318850A6F
:102040000008E90069082300AC00803120008626E2
:1020500090312100B8010630B70037083804031961
:10206000332800002D282200E80A15280430EA0051
:10207000FA302300BC008031200014269031220069
:10208000EA0B38282100B214200008008031CB234D
:10209000903102307002F53E0318342C0B3E352C83
:1020A00021004708FF3C031D732880312000CB230B
:1020B0009031850121004608840080312000DC2712
:1020C000903120306400111E622823009A00210004
:1020D00047082300A9001B30AA0088312000BB2636
:1020E000903162292100460DF700F70DFC30F7050D
:1020F00077082200EC006C0A8031200063209031C8
:10210000FA0022006C088031200063209031220008
:10211000E8007A08E900883120000C279031F8089F
:10212000031DA1282100460DF700F70DFC30F7052F
:102130007708033E8031200063209031F800F818C2
:10214000AA28220068088400690885002100470841
:1021500080002000220068088400690885000008CB
:10216000EA0080312000CB23903120308500783088
:1021700084008031DC27903128306400111EBD2896
:1021800023009A00210046082300A9001B30AA0062
:1021900088312000BB2690319C3023009100033011
:1021A0009200031405302200EC000B088B1323006F
:1021B0009517151400000000891B8B1703180D29B3
:1021C00013087F392200ED00230011082200EE00E1
:1021D000230012082200EF006D0864002000111A8D
:1021E000F3282200ED2823009A0022006E08230025
:1021F000910022006F08230092000B088B139517A3
:10220000151400000000891B8B172200EC0B092914
:102210000B2923000D2932292300130D140D7F39BA
:102220002200ED00230011082200EE002300120816
:102230002200EF006D0864002000111A21292200FD
:102240001B2923009A0022006E082300910022001F
:102250006F0823009200910A0319920A03102200CA
:10226000EC0BD5286A082300A9001B30AA0088318E
:102270002000BB269031220069081F3C0318512919
:10228000FF3A031D472968080F3C031851296908C4
:10229000203C031C5129031D592968081F3C0318C1
:1022A00059296808643C031D5F296908203C031D07
:1022B0005F29EC01883120001B279031220021008A
:1022C000EA142000342C2100460DF700F70DFC30F5
:1022D000F70577082200E800680A803120006320B3
:1022E0009031FA002200680880312000632090318C
:1022F0002200DC007A08DD000130FA006C30E800D2
:102300007A08E900EB01210046082200EA006B0888
:102310002300AB0022006A082300AA00AD010630AA
:10232000AC00883120004E269031780822006807E2
:10233000DF007908693DE00020302300A900E1308A
:10234000A800220060082300AB0022005F082300E1
:10235000AA00883120006526903122005D08FA002D
:102360005C0884005D0885000008E800203021003A
:10237000EC007E30EB005B302300B10080312000A8
:10238000FB269031210046082200E9000130EA00D6
:10239000883120005F2790315D302300B10080310B
:1023A0002000FB26903120302300B1008031200036
:1023B000FB26903121006C0885006B0884008001A9
:1023C00020308500E1308400803120004C2790319E
:1023D00020302300B10080312000FB269031220004
:1023E0006808E9001B30EA00883120005F2790313F
:1023F0000A302300B10080312000FB2690310D30DF
:102400002300B10080312000FB2690318031CB23A6
:102410009031203085007E3084008031DC2790317F
:1024200002302300BC002030BE007E30BD00883169
:102430002000002090318831AD279031342C883134
:102440000C279031F8080319282A8031CA249031CA
:10245000342C2100470B302A22005E14322A21003E
:1024600022005E10883120000C279031F8080319F3
:10247000432A003022005E180130E800E900803174
:1024800020004C259031342C210046080339B4003B
:1024900047082200EC00883120001B2790312100E2
:1024A000EA142000342C210046080339B400FF3020
:1024B0002300A000210047082300A100883120004C
:1024C000B025903178082200E800EC008831200027
:1024D0001B2790312100EA142000342C1B3080315E
:1024E000C12290315B306400111E732A23009A00D0
:1024F000323064002000111A7F2A2300792A230039
:102500009A004A3064002000111A882A2300822A87
:1025100023009A001B3080312000C12290316930A5
:10252000230091000330920080312000D0239031AD
:1025300001302300A80080312000B52590317808B3
:102540002200EF002300A0012200E901E801E908D0
:10255000031DC32B6808383C031CC32B0130FA0051
:102560006C302300A8007A08A90022006908230023
:10257000AB00220068082300AA00AD010630AC00C1
:10258000883120004E269031780823002807220049
:10259000EB0079082300293D2200EC0020302300C5
:1025A000A900F130A80022006C082300AB00220033
:1025B0006B082300AA008831200065269031220094
:1025C000680D2300A8002200690D2300A900A80DB2
:1025D000A90DFC30A8052908FA002808AA00280A35
:1025E0008031200063209031FA0023002A088031D6
:1025F0002000632090312200ED007A08EE006E0882
:10260000FA006D0884007A08850000082300A800FD
:102610005B3064002000111A0F2B2300092B2300CC
:102620009A000B308400220069082300AA002200CF
:1026300068082300A9000508B7000408B6002A0EA0
:10264000F038B200B207E23EB300323EB5002A08CD
:102650000F39B307B307B507E93EB400B407B407B1
:10266000290E0F39B407B507B40DB50DB509B50D71
:1026700029080F39B507B20D0730B1000A30B50788
:10268000B403031C3F2BB407B303031C432BB30752
:10269000B203031C472BB207B103031C4B2B2130A1
:1026A000850001308400073036053613840700307A
:1026B000853D0408053C031D612B0508213C0319D9
:1026C00036170008F700031D6D2B361B6D2B361ACD
:1026D0007A2BB6196D2B2030702BB6153612303090
:1026E000F707770864002000111A782B2300722B5B
:1026F00023009A000131361F592B5D306400200001
:10270000111A842B23007E2B23009A0020306400B2
:102710002000111A8D2B2300872B23009A002030D4
:102720008500F130840080312000DC27903120309A
:102730006400111E982B23009A002808A9001B3062
:10274000AA0088312000BB26903109306400111E98
:10275000A62B23009A002200680803392300A80052
:10276000A9012808033C031DBD2BA908031DBD2B8F
:1027700080312000CB239031230064002200E80A3E
:102780000319E90AA72AEA016A08023C031CE02BA4
:1027900023306A078400203085000318850A000B67
:1027A000DE2B0130F7006A08F8000319DA2BF73541
:1027B000F80BD72B77082300A0072200EA0AC42BC6
:1027C0000A3080312000C12290318031CB239031FA
:1027D00088319B2090312100EA14EA142000342C27
:1027E00021004608023A20000319FD2B033A031981
:1027F000042C023A03190C2C0E2C88310C27903132
:10280000F808031D0100142C01302200ED0088316E
:102810002000F7229031142C0020142C2200ED010E
:1028200088312000F7229031342C21004708003AEB
:10283000200003191F2C013A0319232C2B2C88315B
:102840000C2390312B2C2300C1010130C2008031B8
:10285000200070279031342C210047082300AC0061
:10286000803120008626903108000A108A100A154F
:102870008207502863291F2A292A442A532A6E2AAC
:10288000F02B342C2C2C152C02302300BC002030D3
:10289000BE005230BD008831200000209031FF3052
:1028A0002100C60022005A10DA106410DC01210059
:1028B000C8012200E701F0012030E6005230E500B7
:1028C0006608ED006508EC002030EF00DC30EE001B
:1028D00008302300A00088312000112590317908AC
:1028E0002200E6007808E5006608ED006508EC00C7
:1028F0002030EF007830EE0006302300A000883151
:1029000020001125903179082200E6007808E500C2
:102910006608ED006508EC002030EF00E730EE00BF
:1029200004302300A000883120001125903179085F
:102930002200E6007808E500E7080319AC2C2030F7
:10294000ED00E730EC0088312000D7259031780881
:102950002100C700B12C22002100C701220064140D
:10296000210020302200ED00DC30EC002030EF00B0
:102970009D30EE008831200014269031F8080319AC
:10298000CB2C2200641CC72C0330F000C92C023071
:10299000F000F72D200020302200ED00DC30EC00AC
:1029A0002030EF00A130EE00883120001426903155
:1029B000F8080319DE2C0430F000F62D2030220038
:1029C000ED00DC30EC002030EF00A630EE00883166
:1029D000200014269031F8080319F12C0530F0007E
:1029E000F62D20302200ED00DC30EC002030EF002E
:1029F000AE30EE008831200014269031F80803191B
:102A0000042D0830F000F62D20302200ED00DC30DF
:102A1000EC002030EF00B530EE00883120001426A5
:102A20009031F80803191B2D0930F0000230210005
:102A3000C600F52D200020302200ED00DC30EC0037
:102A40002030EF00BC30EE00883120001426903199
:102A5000F8080319542DF00120302200ED007830E1
:102A6000EC0088312000D725903178082100C7007C
:102A700047080A3C031D3E2DC701432DC708031D0F
:102A8000432D0A30C70047080F392200EC006C08BC
:102A9000ED006D082300B000B1011030B2008031AC
:102AA00020003F269031F62D20302200ED00DC3052
:102AB000EC002030EF00BE30EE00883120001426FC
:102AC0009031F8080319672D0C30F000F62D2030F6
:102AD0002200ED00DC30EC002030EF00C230EE00D0
:102AE0008831200014269031F8080319912D2030E8
:102AF0002200ED007830EC0088312000D72590319D
:102B000078082100C7004708243C031C8B2DC60110
:102B10000B30F0008F2D0930F0000330C600F52D8A
:102B2000200022005C082B3C031D9C2DDD08031DAA
:102B30009C2D0630F000F72D5C082D3C031DA62DC2
:102B4000DD08031DA62D0730F000F72D2030ED0025
:102B5000DC30EC002030EF00C830EE00883120007F
:102B600014269031F8080319D62D0230F0000130F8
:102B7000210034070339C7002200EC01ED012030A9
:102B80008500783084006C0884070030853D6D082E
:102B90008031200066219031800000380319D52D46
:102BA0002200ED0AEC0ABF2D2000F62D2030220075
:102BB000ED00DC30EC002030EF00CA30EE00883150
:102BC000200014269031F8080319F62D0430210056
:102BD000EA0600306A1901302200EC00ED0088316D
:102BE0002000F72290312100EA1420002200F00892
:102BF0000319D32EDA107008023C0319022E700854
:102C0000033C0319DA14DA1C572ED101D001D10884
:102C1000031D572E5008383C031C572E0130FA0074
:102C20006C30DC007A08DD0051082300AB00220084
:102C300050082300AA00AD010630AC008831200006
:102C40004E269031780822005C07D20079085D3D5D
:102C5000D30020302300A900D430A800220053085C
:102C60002300AB00220052082300AA008831200074
:102C70006526903120302200DD007830DC002030E5
:102C8000DF00D430DE008831200093269031F80830
:102C9000031D522E220050082100C60022005A14A3
:102CA000572E20002200D00A0319D10A072E5A18E5
:102CB000BE2E2030ED007830EC0088312000D72582
:102CC000903178082100C7002200DC01DD012030AE
:102CD0008500D43084005C0884070030853D5D08A1
:102CE00080312000482190318000003803197D2E6A
:102CF0002200DD0ADC0A672E200020302200DD00E1
:102D00007830DC002030DF00D430DE008831200055
:102D100093269031F808031D912E01302100C70041
:102D200020002200DC01DD0120308500D430840049
:102D30005C0884070030853D5D088031200050210B
:102D40009031800000380319AA2E2200DD0ADC0A27
:102D5000942E200020302200DD007830DC0020306E
:102D6000DF00D430DE008831200093269031F8084F
:102D7000031DBD2E2100C701200022007008063C63
:102D80000319C62E7008073C031DCC2E013021000C
:102D9000C7003408C60022002100EA1520004620A2
:102DA0002100EA11220098312000E32D2200D001F9
:102DB0005008023C031C0F2F23305007D200203054
:102DC000D3000318D30A5008803120005F209031CF
:102DD0002200D4002300A100A301A2018831200019
:102DE000D52790317818042F203022005007840016
:102DF000203085000318850A80080319012F200060
:102E0000042F0030062F200001302200D400530888
:102E100085005208840054088000D00AD82E9831CA
:102E20002000EF2D2100321FB42F2000E5080319E8
:102E3000252F2100200F212F210F212F2000252FAA
:102E40002100A00A0319A10A20002100E715220091
:102E5000D0015008033C031C582F20006808F700DD
:102E600022005008F8000319382FF736F80B352FD9
:102E7000771C482F0130F7005008F8000319432F42
:102E8000F735F80B402F770824008D04552F2200CA
:102E90000130F7005008F8000319512FF735F80BEF
:102EA0004E2F7708FF3A24008D052200D00A292FE3
:102EB0002000EC08031D5F2FED080319982F6D0803
:102EC0002300AB0020006C082300AA00AD013C30B9
:102ED000AC00883120004E2690317908FA007A083B
:102EE000210021020318762F2000982F031D7E2F2A
:102EF0007808200203187E2F2000982F2000EE086B
:102F0000031D962F8031CB239031A13023009100F7
:102F10000330920080312000D02390312100EA1448
:102F20002200EA0188312000952190316508EE00E9
:102F30002100B908031DB903B3080319A12FB30376
:102F4000AA2F6A1DAA2F2200ED0188312000F72246
:102F5000903121006400E8080319B02FE803B32F73
:102F60003B30E800B2173213B21FD62FE90803191D
:102F7000BB2FE903BE2F67141D30E900B2132000F8
:102F8000EF080319D52FF1080319C82FF103D52F26
:102F90008031CB239031A93023009100033092007F
:102FA00080312000D023903166102100671CF32F60
:102FB000883120000C2390316A0803390319F12F5E
:102FC0006A080139031DF02F6A0802390319F12F2D
:102FD0006A0EF7000F30F70577080F3966050319F9
:0C2FE00000202100671098312000F62D21
:1030000064082200D00020000D0868060F39E30094
:1030100072081F3963042200D10073080F3951046C
:103020002000E40064082200500203191B2801302C
:10303000F8001E281E280030F8001E2898312000B5
:10304000FD2D01302200D000D301200064082200B1
:10305000D200FD080319432852087605031D4328B2
:10306000FD01F6010130D300520820006605670516
:10307000031D42282100E7142000EB080319422811
:103080006B08F4002200D401D5015508033C031C51
:10309000822852085005D60020006E08FF3A220010
:1030A000560503197E282000660867052200500592
:1030B000031964282930550784002030850003183F
:1030C000850A0008D10066280130D10051087D0230
:1030D00003187E28FD08031D6F285108FD000130EC
:1030E0005507D4000130D3002000EE012100A101DA
:1030F000A001220050082000E50022000310D00D9E
:10310000D50A4528D308031990285408EA008831C5
:103110002000952198312200D3012100EA142200D9
:10312000D208031D992821006A142000E501EE0150
:1031300022002000EF080319A6282200D208031D50
:10314000A3282000A62820006F08F1009831062E41
:1031500022006710233066078400203085000318A2
:10316000850A8008031D671465081F39E800650893
:10317000F039F700770EE9000F30E90501306402FD
:10318000FC3E03180729043E20000A292200671C80
:10319000CE2865082000E705D32822006508FF3AFD
:1031A0000F392000E704220007292200671CDE28CF
:1031B0002100E71422006508F400DF28F401072944
:1031C00022006718E9282100E71422006508F400AE
:1031D000EA28F40107292200671165082039031D38
:1031E0006715003067190130EB00003067180130B7
:1031F0006B06F800E7107818E714E71C0229680846
:10320000F30405296808FF3AF305072922009831DD
:103210002000C22A0A148A100A118207C628E02850
:10322000D528EB2830302200D300D400D500D601B9
:10323000D700D800D900DA012030DB004130DC00B3
:103240004430DD004D30DE004930DF004E30E0001C
:10325000E101D0015008023C031CC52A3730500759
:103260008400203085000318850A0008D1003A3018
:1032700050078400203085000318850A0008D2001A
:103280005108E4005208E5005008E60065080F39CF
:10329000E7006508F039F700770EE8000F30E80521
:1032A0006408023A200003195C29013A03197829BD
:1032B000023A03190A2A672A263022006607840088
:1032C000203085000318850A670823392300A200EF
:1032D000A301220068082300A206031D7429A30885
:1032E000031D742900307529013080002000672AF1
:1032F00022006910E91065082039031DE9146911DD
:1033000065081039031D6915E91166082300A1003D
:103310002030A3009630A20088312000D5279831B4
:10332000781CA0292200691997292000A0292100D2
:10333000B908031D9D292000A0292200E9152000BD
:10334000220069120130EB00EA016A08033C031C09
:10335000C6296B0867050319C2296A088031200055
:10336000562098312300A000A100A301A2018831BA
:103370002000D52798312200E9127818E916E91EB5
:10338000C22969140310EB0DEA0AA529691CDE297C
:10339000691DCE293C302100B9002200691666085B
:1033A0002300AD000130AE002030B0009630AF00F9
:1033B00080312000D9269831F42922006912E919B8
:1033C00069160030691A01302300A0002200660847
:1033D0002300AD002008AE002030B0009630AF00D2
:1033E00080312000D92698312630220066078400DB
:1033F000203085000318850A0030691A0130230047
:10340000A30000302200E9180130230023068000C9
:103410002000672A2200691365081039031D691707
:10342000E91320006E08FF3A630522006705031DBB
:10343000E9176C1065082039031D6C14EC10650841
:103440004039031DEC146C116C1C2E2A2100B908A4
:10345000031D2C2A22002E2A22006C15E91F502A57
:10346000EC1C482AEC112100A108031D3F2A20086A
:10347000053C031C3F2A22006C1D412A210022002A
:10348000EC15EC1D472A3C302100B90022004F2AE0
:10349000EC156C1C4F2A3C302100B9002200532A45
:1034A000EC116C19EC15263066078400203085007D
:1034B0000318850A0030EC1901302300A300003006
:1034C0002200691B01302300230680002000220017
:1034D0006210263050078400203085000318850ACA
:1034E0008008031962145008803120005B20983155
:1034F0002200E400003062180130F7006408230065
:10350000AD007708AE000130B000AF01803120007F
:10351000D926983122006218962AD73050078400A5
:10352000203085000318850A313080003D30500777
:103530008400203085000318850A0008D10040303F
:1035400050078400203085000318850A0008D20047
:10355000233050078400203085000318850A000BB3
:10356000BA2AD33050078400203085000318850A1A
:10357000313080005108E4005208E5005008E600B0
:103580002000A8282200D00A2A2920302100EC009F
:103590007E30EB0049302300B10080312000FB2653
:1035A00098313A302300B10080312000FB26983159
:1035B00021006C0885006B088400800120308500A4
:1035C000D3308400803120004C27983120302300F4
:1035D000B10080312000FB2698314F302300B1002C
:1035E00080312000FB2698313A302300B100803131
:1035F0002000FB26983121006C0885006B088400B0
:10360000800120308500D7308400803120004C2795
:10361000983121006A1D1A2B20302300BD007E3016
:10362000BC002030BF00DB30BE0080312000A3276B
:103630009831210003302300BC002030BE007E30D2
:10364000BD00883120000020983198310E2E0130C5
:103650002300A80080312000B52598317808220089
:10366000D100511D812B2300A80180312000B525F8
:10367000983178082200D000210067172200D00876
:10368000031D452B0A30D000492B50080A3C031972
:10369000D00150080B3C031D502B21006A1422005E
:1036A00050080C3C031D5E2B2100E71644088400E3
:1036B0004508850000318016802B22002100450836
:1036C000203C031C802B031D692B4408733C031C06
:1036D000802B4408840045088500003122005008F2
:1036E0000F39F700F030000577048000210044080E
:1036F00084004508850000310016C40A0319C50A74
:10370000220098312000142E2200D401D50120304F
:1037100085007E308400540884070030853D5508BC
:10372000803120005F2198318000003803199D2BE3
:103730002200D50AD40A872B200020302200D30093
:103740008330D20080312000CB2398318130230098
:1037500091000330920080312000D0239831220064
:10376000D0015008093C031C032C6A305007840028
:10377000203085000318850A001E002C6A3050078F
:103780008400203085000318850A00080F39D10015
:103790005108093C0318E52B5308FA005208D20AD5
:1037A0000319D30A84007A08850031308000530859
:1037B000FA005208D20A0319D30A84007A08850055
:1037C0000A305102303E8000F12B5308FA005208B3
:1037D000D20A0319D30A84007A08850030305107D1
:1037E000800052088400530885008001510823009E
:1037F000A9001B30AA0088312000BB269831220086
:103800006400D00AB12B80312000CB2398312100F5
:10381000EA1402302300BC002030BE007E30BD0020
:10382000883120000020983198311A2E2200520849
:103830005302031C402C5208093C031C402C561414
:103840005208D50055085302031C3F2C6A30550717
:103850008400203085000318850A00080F39D40041
:103860006A3055078400203085000318850A001E41
:10387000561054080C3C03195610D50A222C412C22
:103880005610003056180130F80020000800F001F2
:103890002100C7012200D2010330D30020001624EA
:1038A000F8080319F92C21003A080F392200D30037
:1038B0002300A0000A30A10088312000B0259831F3
:1038C00078082200D20021003B080F39220052075D
:1038D000D00021003C080F392200D3002300A000B3
:1038E0000A30A10088312000B025983178082200E4
:1038F000D20021003D080F3922005207F0000430A9
:10390000D2000530D30020001624F8080319E52C56
:1039100021003E080F392200D3002300A0000A3006
:10392000A10088312000B025983178082200D2000B
:1039300021003F080F39220052072100C60006303F
:103940002200D1005108D20052080A3C031CC22CAC
:103950006A3052078400203085000318850A001E53
:10396000C02C6A3052078400203085000318850A75
:1039700000080F390C3C0319C02C0130D300C12CB6
:10398000D301C32CD3015308F800F8080319E42C21
:10399000210047082300A0000A30A1008831200040
:1039A000B025983178082200D2006A30510784008F
:1039B000203085000318850A00080F3952072100BE
:1039C000C7002200D10AA22C20007008043A031973
:1039D000EC2C013A031DF02C21004608C700200002
:1039E000690822005002031DFA2C90312000462065
:1039F0009831220021003A080F39F0006A1D332D5A
:103A00002200D201D30120001624F808031D0A2D3C
:103A10002100332D640070080E3A0319162D013A67
:103A20000319202D053A0319282D2F2D01302100CF
:103A300034070339B400883120009B2098312F2DA2
:103A4000FF302200EC00883120001B2798312F2DF9
:103A500001302200EC00883120001B27983188318A
:103A60000C27983121006A1498312000212E220061
:103A7000D0015008093C031C472D6A3050078400D0
:103A8000203085000318850A8001D00A392D2030A6
:103A90002100C5006A30C40098312000282E723001
:103AA000210099008E150E162400171097109711FB
:103AB00013309200283095009417141323009F119F
:103AC0000C309B00A2309E0090309D0021006A16B1
:103AD000EC01EB012F0091019201980199019A01EB
:103AE00023008C018D018F01900122009201910130
:103AF00094019301BB2D023420340A340034003485
:103B00000134203496340034333420349D3453341B
:103B1000453454340034533441345634453400343D
:103B200052344534533454344F34523445340034D1
:103B300053345434413454345534533400345234AF
:103B4000453442344F344F34543400344434003418
:103B500049343234433400344D344F3452345334C6
:103B6000453400344E340034413444344D34493407
:103B70004E34003400341D3085007B3084008517BE
:103B80001200F700003A0319D52D1200F800F81BB7
:103B9000CD2D3F39870012008600781B1200781F58
:103BA00012001E00F70BCF2DC02D88312000592B9D
:103BB000983164008831312C98312100321CE92D74
:103BC00090312000442C98318031B023983121006D
:103BD00032106400671DF32D90312000D62E9831ED
:103BE00021006711E71590312000122F98316400F1
:103BF0002100321D022E200000282100B21078186A
:103C0000B2143211B21C0A2E200021282100E7151F
:103C1000B2106400E71D102E200012292100E711C8
:103C2000E71F162E2000272B2100E713671F1D2EEC
:103C30002000842B210067136400E71E242E20003F
:103C4000472C2100E71264006A1C2A2E2000372D21
:103C500021006A10EA1C332E88312000AD279831EC
:0C3C60002100EA1064002000D92D630050
:0A3FB600AA346A345A3456345534E4
:103FC00055349534A534A934AA34603495349934E1
:103FD000943440345934A434553450346A349834C9
:103FE0006534A0349034A8346934A634643454342D
:103FF000803458345634683496349A34A5340034B6
:020000040001F9
:04000E00BC0FFF1E06
:00000001FF
;PIC16F1937
;CRC=4358  CREATED="08-Mar-26 13:26"
