:0600000090310028000011
:0800080083018A012000770842
:10001000A0007808A1007908A2007A08A3008B1D2F
:1000200013280B182328850191308400801E1A287C
:10003000911A25282008F7002108F8002208F90065
:100040002308FA0009008031F92980319D290B002D
:1000500050344F344C340034003400345234303493
:10006000473430340034003452343034473431347F
:1000700000340034523430344734323400340034E5
:100080005234303447343334003400345234313451
:10009000473430340034003452343134473431344E
:1000A00000340034523431344734323400340034B4
:1000B000523431344734333400340034523432341F
:1000C000473430340034003452343234473431341D
:1000D0000034003452343234473432340034003483
:1000E00052343234473433340034003452343334ED
:1000F00047343034003400345234333447343134EC
:100100000034003452343334473432340034003451
:10011000523433344734333400340034583449349F
:10012000303400340034003458344934313400342D
:10013000003400345834493432340034003400344C
:1001400058344F34303400340034003458344F3491
:10015000313400340034003458344F3432340034F5
:10016000003400344334303450340034003400342C
:1001700043343134503400340034003443343234A6
:1001800050340034003400344334333450340034B9
:100190000034003452343034503454345434003445
:1001A00052343134503454345434003452343234B0
:1001B000503454345434003452343334503454347E
:1001C000543400340B00353420340F3401343634C9
:1001D000203420340134373420342034013438348E
:1001E00020342034013439342034203401343A347A
:1001F0002034203401343B342034203401343C3466
:100200002034203401343D342034203401343E3451
:100210002034203401343F3420342034013440343D
:100220002034203401344134203420340134423429
:100230002034203401344334203420340134443415
:100240002034203401344534203420340134463401
:10025000203400340134473420340034013448342D
:1002600020340034013449342034013401344A3418
:100270002034013401344B342034013401344C3403
:100280002034013401344D342034053401344E34EB
:100290002034053401344F342034033401345034D5
:1002A00020340E340134513420340D3401345234AE
:1002B00020340B34013453342034073401340B0020
:1002C00072346534733474346F347234653420346A
:1002D00070346F346C34203431340D3400340B00FE
:1002E00020343B340D3400340B00733465347434E3
:1002F00000340B00533441345634453400340B0081
:1003000052344534533454344F3452344534003429
:100310000B00683465346C34703400340B002B34BB
:1003200000340B002D3400345B183B184800111EBC
:10033000972923009A0020000800911EF329911E9E
:100340009F29230019082200B6003608083C031D27
:10035000CC292000BB080319C729BB030B303B077E
:100360008400203085000318850A80010830972119
:100370001B3097215B30111EBB2923009A004B30A4
:100380002000111EC12923009A00CA29200007302D
:1003900097212300F529220020003B080F3C031C75
:1003A000F12922003608200097213B08BB0A0B3EAA
:1003B0008400203085000318850A2200360880005A
:1003C00036080D3C0319EC2936082B3C0319EC299F
:1003D00036082D3C031DEF2920003C142200F4298F
:1003E0002000073097212200230020009112803145
:1003F0001A280D0855060F39D400D408031DBC1463
:100400000D1E292A3C150F080F392200B7002000C5
:10041000470884004808850000310030001801308A
:10042000FA0184007A0885000130800047088400C2
:1004300048088500003100080F39FA010F3984009F
:100440007A0885002200370880002000C70A0319B7
:10045000C80A0B1080311A285B1AB71D331A6D05B4
:100460000D296132E93720296538E530F432721000
:10047000C3376E3AF2376C366539A01620005B1A26
:10048000B71DB3186D2B45194C2953005B1AB71DC6
:10049000331A6D10A82129103218B1190A050D0060
:1004A0005B1AB01DB31B6D008A06442A4D23A02998
:1004B000F430F43A73103A10A53A8A0600008A061E
:1004C000C327CD264127441F20004937693AE93028
:1004D000EC34FA34EE332029C126203B6139E9306F
:1004E0006236E5392033F2376D10C5225029CF2608
:1004F0008A0600014937693AE930EC34FA34EE33C0
:100500002029C126203B6139E9306236E539A03B1C
:10051000693A6810C432E63075367410F630EC3A39
:10052000E5398A060000D330F634EE332029C1269F
:10053000A0316F37E634E73AF230F4346F37A03445
:100540006E10C5225029CF262E050D004334E5310B
:10055000EB39F536A036E939F336613A63342E10BB
:10056000D232733A6F3969376710E432E630753644
:100570007410F630EC3AE5392E050D008A06D332B8
:10058000743A69376710A539A812F514203A6F102C
:10059000A53A8A0600008A0649376339E536653789
:1005A000F434EE33A0127314A53A29103D10A53A85
:1005B0008A0600008A06C4326339E5366537F434AA
:1005C000EE33A0127314A53A29103D10A53A8A06FD
:1005D00000008A064539F23772103A104937F63072
:1005E000EC3464106139E73AED326E3AA0127305CB
:1005F0000D0010302100A500A401250824020318D5
:100600000B2B0B3024078400203085000318850A4B
:100610008001A40AFD2A2000BB013C10FF30CA0063
:10062000CC01C90108000B082100B8008B1323007E
:10063000951715140000000013087F3903195D2B6E
:100640002100B900230011082100BA00230012087C
:100650002100BB0039082000111E2C2B23009A001A
:1006600021003A082300910021003B08230092005A
:100670009517151400000000130D140D7F39031990
:100680005D2B2100B900230011082100BA002300CE
:1006900012082100BB0039082000111E4D2B230039
:1006A0009A0021003A082300910021003B08230012
:1006B0009200910A0319920A182B2100B81B8B177C
:1006C000200008001B3097215B30111E652B230092
:1006D0009A0032302000111E6B2B23009A004A3002
:1006E0002000111E712B23009A001B30200097213F
:1006F0009430230091000130920020001323080061
:100700002100390884003A0885000008BC003C0834
:100710007F3C031CBC0A03103C0D093A3B07BC009C
:10072000390884003A0885003C0880002000080051
:1007300001302100B400B501B700300BA82B6530A3
:10074000230091000230920020001323AF2B2100E0
:100750007A30230091000230920020001323210000
:10076000B10131081E3C031C0E2C310DF700F70DB2
:10077000FC30F7057708B800380A2000E220FA00BC
:10078000210038082000E2202100B2007A08B300DE
:10079000300BFA2B310DF700F70DFC30F705770819
:1007A000033E2000E220F8007818D82B2100FA2B15
:1007B00021003308FA00320884007A0885003508E1
:1007C00023009100951315141308800021003308AD
:1007D000FA0032088400330885000008B800203091
:1007E000BA006430B9003808BB0020008023210023
:1007F000B50A0C2C310DF700F70DFC30F705770822
:10080000023E2000E220F8002100B60032088400F9
:100810003308850036088000B10AB12B300B1A2C42
:100820003508230091009513151413082100340294
:10083000031DB7013708F80020000800013021002F
:10084000B400B101B00130081E3C031C722C300D05
:10085000F700F70DFC30F7057708B600360A2000E0
:10086000E220FA00210036082000E2202100B20038
:100870007A08B300300DF700F70DFC30F705770864
:10088000033E2000E220F800781C6F2C2100320883
:100890008400330885000008B5000B08F7008B13AF
:1008A000310823009100210035082300930095139F
:1008B000151555309600AA309600951495185E2CA3
:1008C000151177088B0420302100BA006430B9007C
:1008D0003508BB00200080232100B10A2000210040
:1008E000B00A232C0B08F7008B133108230091006A
:1008F00021003408230093009513151555309600F8
:10090000AA30960095149518832C151177088B043E
:100910009330910002309200200013230800210040
:100920002F08B00020009823F808031DA32CA63040
:100930002300910002309200200013232100B00117
:10094000200098231E240800003021008F0034105E
:1009500032080F390139031D34143418B32C220026
:100960000F10B52C210022000F1421003410320882
:100970000F390239031D34143418C22C22008F1091
:10098000C42C210022008F142100341032080F39AA
:100990000439031D34143418D12C22000F11D32C28
:1009A000210022000F152100341032080F390839B8
:1009B000031D34143418E02C22008F11E22C210086
:1009C00022008F152100B308031DEA2C22000F130B
:1009D000EC2C210022000F17ED2C8F12EF2C8F161C
:1009E000F12C0F3021008F00200008000F30210073
:1009F0008F00B808031D002D22000F13022D2100C7
:100A000022000F17032D0F12000020000F080F39CE
:100A10002100B90022000F160D2D21003908F80021
:100A2000200008001B3097212C3023009100023059
:100A30009200200013231B3097213F3023009100A8
:100A400002309200200013231B30972146302300F0
:100A5000910002309200200013231B309721503068
:100A60002300910002309200200013230800F92295
:100A7000D301D201FF306600003021008F009116B3
:100A80008B150F30270094049504C0308B0422008E
:100A90008F138F160F160F132000622301302100D1
:100AA000AF0020008F2422000F168F160F13210095
:100AB000B2010130B3002000A4242100B2010130B2
:100AC000B3002000A4240C302100B2000130B30098
:100AD0002000A42401302100B200B3002000A4248F
:100AE00001302100B8002000F6242100A4012408D0
:100AF000093C031C852D1D3024078400203085000F
:100B00000318850A8001A40A772D20302000C80030
:100B10001D30C700122590312F283C142100A4015C
:100B2000A501203085000B308400240884070030A4
:100B3000853D250820005F21800000380319A52D80
:100B40002100A50AA40A912D20009031322821000D
:100B50004A084B040319B02D4B08FA004A08B52D7A
:100B600020002608FA0025082100CE007A08CF00D0
:100B70004F08D3004E08D2004D08D5004C08D400D1
:100B80005308D7005208D6005708FA0056088400C8
:100B90007A08850080080319FE2D5508D9005408ED
:100BA000D8005908FA00580884007A08850080089F
:100BB000031DE42D52085602F7005308573BFA0074
:100BC0007708F800062EF62D5708FA00560884001C
:100BD0007A0885000008DA005908FA0058088400ED
:100BE0007A08850000085A020319FA2DD80A031959
:100BF000D90AD12DD60A0319D70AC42D5208560294
:100C0000F7005308573BFA007708F8007808CE073A
:100C10000030CF3D4F08FA004E0884007A08850066
:100C20008008031D1F2E200025088400260885004B
:100C3000203080000030F800F900842E21004F0899
:100C4000D3004E08D2004D08D5004C08D4005308FC
:100C5000D7005208D6005708FA00560884007A08D0
:100C6000850080080319602E5508D9005408D80063
:100C70005908FA00580884007A088500800803198A
:100C80005C2E5708FA00560884007A088500000890
:100C9000DA005908FA00580884007A08850000082C
:100CA0005A02031D582E5608F8005708F900632E03
:100CB000D80A0319D90A382ED60A0319D70A2B2EB7
:100CC0000030F800F9007908D1007808D000510808
:100CD000FA00500884007A08850080080319782EED
:100CE00050088400510885008001D00A0319D10AF8
:100CF00051082000A600210050082000A500210076
:100D00004E08F8004F08F9002000080022002F08C4
:100D1000B2002E08B4002D08B300B108031D942EB4
:100D20003008003C0318AB2E3408FA003308840066
:100D30007A08850032080002031DA32E3308F8004C
:100D40003408F900AE2EB30A0319B40A30080319A7
:100D5000B103B0038D2E0030F800F9002000080028
:100D600021004B08FA004A0884007A088500000830
:100D7000CE004D08FA004C0884007A08850000086F
:100D80004E020319192F4B08FA004A0884007A080A
:100D900085000008CE004E08403C0318D32E4E08B4
:100DA0005A3C0318DB2E4E08603C03182F2F4E08C8
:100DB0007A3C031C2F2F4D08FA004C0884007A0857
:100DC00085000008CE004E08403C0318EB2E4E086C
:100DD0005A3C0318F32E4E08603C03182F2F4E0880
:100DE0007A3C031C2F2F4B08FA004A0884007A082B
:100DF00085000008CE004D08FA004C0884007A08EF
:100E00008500203000074E020319192F4D08FA0003
:100E10004C0884007A0885000008CE004B08FA00D0
:100E20004A0884007A088500203000074E02031D1E
:100E30002F2F4B08FA004A0884007A0885008008A2
:100E4000031D252F0030F800452F4B08FA004A08F3
:100E5000CA0A0319CB0ACC0A0319CD0AB12E4B08D2
:100E6000FA004A0884004B0885000008CE004D08AF
:100E7000FA004C0884004D08850000084E02031853
:100E8000432FFF30442F0130F80020000800F70105
:100E9000F8012100380803103918F707F70CF80C8F
:100EA000B918F707F70CF80C3919F707F70CF80C15
:100EB000B919F707F70CF80C391AF707F70CF80C03
:100EC000B91AF707F70CF80C391BF707F70CF80CF1
:100ED000B91BF707F70CF80C200008000B082100DD
:100EE000B9008B1323009517151400000000031898
:100EF0009F2F13087F392100BA0023001108210019
:100F0000BB00230012082100BC003A082000111E7B
:100F1000872F23009A0021003B0823009100210025
:100F20003C082300920095171514000000002100D2
:100F3000B80B9B2F9D2F23009F2FC12F2300130D34
:100F4000140D7F392100BA00230011082100BB00D5
:100F5000230012082100BC003A082000111EAE2F09
:100F600023009A0021003B082300910021003C0847
:100F700023009200910A0319920A03102100B80B72
:100F8000722FB91B8B172000080080080319DB2F74
:100F900005082100BA000408B90000082000111E4D
:100FA000CF2F23009A0021003A08850039088400D9
:100FB00001312000C52F080021003C08F8013B0248
:100FC0000318E52F3B08F700F12FF7010830BD00AB
:100FD000BB0DF70D3C0877020318F700F80DBD0BA9
:060FE000E82F20000800CC
:10100000780821003908BB006430BC008031200022
:10101000DC27883177082100B90078083030031DBB
:101020001828BA1C2328BA1923283A1A20301B285A
:10103000BA113A123A14F80778082000111E1E2837
:1010400023009A0021003908BB000A30BC0080311F
:101050002000DC27883177082100B900780830307B
:10106000031D3828BA1940283A1C40283A1A203063
:10107000F80778082000111E3B2823009A00210061
:101080003030B90739082000111E442823009A0087
:10109000200008002100CA01CB01203085005E300D
:1010A00084004A0884070030853D4B0880312000C9
:1010B0006F21883180000038031963282100CB0A92
:1010C000CA0A4D28200020302100CB000B30CA0076
:1010D0002030CD005E30CC0080312000A725883143
:1010E00079082100C9007808C800C808031D7B28BA
:1010F000C908031995284908CD004808CC002030BC
:10110000CB006A30CA004D0885004C0884000008F6
:10111000CE004B0885004A0884004E0880008008F5
:1011200003199528CA0ACC0A8328CB01CA012030AA
:10113000CD005E30CC0080312000A72588317908B1
:101140002100C9007808C800C808031DAA28C908DA
:101150000319C4284908CD004808CC002030CB0032
:101160002C30CA004D0885004C0884000008CE00D1
:101170004B0885004A0884004E0880008008031947
:10118000C428CA0ACC0AB228CB01CA012030CD003B
:101190005E30CC0080312000A725883179082100FD
:1011A000C9007808C800C808031DD928C908031950
:1011B000092B4908CD004808CC002030CB00663010
:1011C000CA004D0885004C0884000008CE004B087A
:1011D00085004A0884004E08800080080319F3281F
:1011E000CA0ACC0AE1282030CB006630CA00CD0103
:1011F000CC010A30CE00D601D5013030D8003130D4
:10120000D9003230DA003330DB003430DC003530E6
:10121000DD003630DE003730DF003830E0003930B6
:10122000E1006130E2006230E3006330E4006430EA
:10123000E5006530E6006630E7006730E8006830BA
:10124000E9006930EA006A30EB006B30EC006C308A
:10125000ED006D30EE006E30EF006F302200A00028
:101260007030A1007130A2007330A3007430A4006C
:101270007530A5007630A6007730A7007830A8003A
:101280007930A9007A30AA00AB0121004B08D000C8
:101290004A08CF005008FA004F0884007A088500F9
:1012A0000008203C031D5829CF0A0319D00A4A29F7
:1012B0005008FA004F0884005008850000082D3CB3
:1012C00003196C295008FA004F0884005008850063
:1012D00000082B3C031D77295008FA004F08CF0A5D
:1012E0000319D00A84007A088500000878292B3079
:1012F000D70057082D3C03198829CE1B88294E0B8F
:1013000082298829CE1B8A294E08243C03188A2961
:10131000E42A162ACE080319DF294E08103C031DC3
:10132000B1295008FA004F0884007A0885000008A7
:10133000303C031DB1294F0884005008850001315D
:101340000008783C0319AD294F0884005008850037
:1013500001310008583C031DB1290230CF0700308D
:10136000D03D4E08083C031DC3295008FA004F0821
:1013700084007A0885000008303C031DC329013031
:10138000CF070030D03D4E08023C031DDE29500837
:10139000FA004F0884007A0885000008303C031DDD
:1013A000DE294F0884005008850001310008623CA6
:1013B000031DDE290230CF070030D03D162A500829
:1013C000FA004F0884007A0885000008303C0319B1
:1013D000EC290A30CE00162A4F08840050088500F8
:1013E00001310008783C0319FE294F088400500899
:1013F000850001310008583C031D052A1030CE003D
:101400000230CF070030D03D162A4F088400500824
:10141000850001310008623C031D142A0230CE0011
:10142000CF070030D03D162A0830CE005008D20039
:101430004F08D1005008FA004F0884007A08850050
:101440000008303C031D282ACF0A0319D00A1A2AA3
:101450005008FA004F088400500885000008220058
:10146000AC00403C03183B2A2C085A3C031C3B2A86
:101470002C0820383C2A2C08AC002030AE008830E4
:10148000AD002C08AF00B10121004E082200B000D1
:10149000803120008626883179082100D400780820
:1014A000D300D308031D572AD4080319DC2AFA01F4
:1014B0004E08F700F71BFA032200AC007A08AD00D3
:1014C000210056082200AF00210055082200AE007E
:1014D0002D08B1002C08B0002F0831068039B30068
:1014E000AF1F772AAE09AF09AE0A0319AF0AB11FC1
:1014F0007E2AB009B109B00A0319B10A1030B2004E
:10150000F701FA01AF0CAE0C031C8C2A3008F70768
:101510000318FA0A3108FA07FA0CF70CF90CF80C60
:10152000B20B822AB31F992AF809F909F80A03199C
:10153000F90A7908AD007808AC0088302100530220
:10154000F7002030543BFA00770822002C07F800FF
:101550002D08FA3D78082100D5007A08D600CF0A78
:101560000319D00A5008FA004F088400500885007B
:1015700000082200AC00403C0318C52A2C085A3C45
:10158000031CC52A2C082038C62A2C08AC002030A1
:10159000AE008830AD002C08AF00B10121004E082C
:1015A0002200B00080312000862688317908210091
:1015B000D4007808D300512A4F085102031DF42AA1
:1015C00050085202031DF42A4C084D040319F02A56
:1015D0004C0884004D0885004A0880004B08813F74
:1015E0000030F800F900042B4C084D040319002BBF
:1015F0004C0884004D0885004F0880005008813F4A
:101600005508F8005608F90078082000CB000C2B8C
:101610002100FF302000CB002100CA01CB01203087
:101620008500723084004A0884070030853D4B08ED
:101630008031200074218831800000380319252B67
:101640002100CB0ACA0A0F2B200020302100CB003A
:101650007230CA002030CD006A30CC0080312000CA
:10166000B0268831F808031D3E2B4B08FF3C031DB4
:101670003C2B0330C9003E2B0230C9002100CA01B7
:10168000CB0120308500723084004A088407003086
:10169000853D4B0880312000792188318000003859
:1016A0000319572B2100CB0ACA0A412B20002030F6
:1016B0002100CB007230CA002030CD006A30CC004F
:1016C00080312000B0268831F808031D692B0430D2
:1016D000C9002100CA01CB0120308500723084008E
:1016E0004A0884070030853D4B08803120007F2167
:1016F0008831800000380319822B2100CB0ACA0AE6
:101700006C2B200020302100CB007230CA0020302A
:10171000CD006A30CC0080312000B0268831F80836
:10172000031D942B0530C9002100CA01CB012030D4
:101730008500723084004A0884070030853D4B08DC
:101740008031200088218831800000380319AD2BBA
:101750002100CB0ACA0A972B200020302100CB00A1
:101760007230CA002030CD006A30CC0080312000B9
:10177000B0268831F808031DBF2B0830C9002100AE
:10178000CA01CB0120308500723084004A088407EA
:101790000030853D4B08803120008E21883180004B
:1017A00000380319D82B2100CB0ACA0AC22B20000B
:1017B00020302100CB007230CA002030CD006A30CA
:1017C000CC0080312000B0268831F808031DEA2BB8
:1017D0000630C9002100CA01CB01203085007230DB
:1017E00084004A0884070030853D4B088031200082
:1017F00091218831800000380319032C2100CB0A85
:10180000CA0AED2B200020302100CB007230CA0024
:101810002030CD006A30CC0080312000B0268831E5
:10182000F808031D152C0730C900FF30CA0021003D
:10183000A40124081E3C031C582C2408B8000630C0
:10184000B900803120004727883178082100AE0098
:10185000AF012E08B00020308500563084002F08DC
:1018600084070030853D30088031200027208831F2
:10187000800000380319412C2100B00AAF0A2B2C3C
:10188000200020302100CB002C30CA002030CD00B9
:101890005630CC0080312000B0268831F808031D76
:1018A000552C210024082000CA002100A40A192C6C
:1018B00020004908023C031D822C4A08FF3C031DFE
:1018C000822CE930230091000230920003101B307B
:1018D0002100B800803120006E278831203085003B
:1018E0002C3084008031C52788310A30111E762CB7
:1018F00023009A000D302000111E7C2C23009A003A
:10190000AE2F200002304902F93E0318AD2F073EEA
:10191000B22F4B08FF3C031DAD2C85014A08840003
:101920008031C52788312030111E942C23009A0065
:1019300020004B082100B9001B30BA002000002015
:101940000A30111EA12C23009A000D302000111E18
:10195000A72C23009A00562D20004A0DF700F70D02
:10196000FC30F70577082100B000300A80312000F4
:10197000E2208831FA002100300880312000E22086
:1019800088312100AE007A08AF002E0884002F08AD
:10199000850020004B0880004A08D2000130D300A7
:1019A000BE30230091000230920003100A30210063
:1019B000B800803120006E278831203085002C301F
:1019C00084008031C52788312830111EE52C230082
:1019D0009A0020004A082100B9001B30BA002000FC
:1019E0000020C5302300910002309200031405301E
:1019F0002100B800803120006E2788314B0821007B
:101A0000B9001B30BA00200000200A30111E062D3C
:101A100023009A000D302000111E0C2D23009A0087
:101A200020004B082100B0003008B200B301803123
:101A30002000A424883105302100B2000130B30019
:101A400080312000A42488312200901421009010BD
:101A5000B1013108043C031C492D6430B200203030
:101A600085006230840000080319472D0230F80019
:101A7000BF30F7006400F70B3A2DF80B382D963085
:101A8000F700F70B412D442D6400800B362DB10A71
:101A9000292D0430B2000130B30080312000A4248D
:101AA0008831220090102100901023002000AD2FDB
:101AB0004A0DF700F70DFC30F70577082100AE005E
:101AC0002E0A80312000E2208831FA0021002E0801
:101AD00080312000E22088312100AC007A08AD007E
:101AE00020004A08D2000130D30021002D08FA005E
:101AF0002C0884002D0885000008AE000A30200064
:101B0000111E802D23009A000D302000111E862DFD
:101B100023009A00203085002C3084008031200082
:101B2000C52788312030111E932D23009A002100F3
:101B30002E08B9001B30BA00200000200A30111E08
:101B40009F2D23009A000D302000111EA52D23008B
:101B50009A002000AD2F80311E248831AD2F4B0B11
:101B6000B52D21002514B72D2000210025100030AF
:101B700025180130AE00AF00803120008F2488315D
:101B8000AD2FD3080319592E520DF700F70DFC3075
:101B9000F70577082100B700370A80312000E220DE
:101BA0008831FA002100370880312000E220883196
:101BB0002100AE007A08AF002E0884002F088500AF
:101BC00001300007B0002E0884002F08850030087F
:101BD0008000200052082100B8000630B900803192
:101BE00020004727883178082100B700B80137085E
:101BF000B900203085006130840038088407003047
:101C0000853D390880312000272088318000003848
:101C100003190F2E2100B90AB80AF92D200021005E
:101C20002F08FA002E0884002F0885000008B7004E
:101C3000CB30230091000230920003100F302100BE
:101C4000B800803120006E27883120308500613057
:101C500084008031C52788312830111E2D2E2300A5
:101C60009A00200052082100B9001B30BA00200061
:101C70000020D53023009100023092000310043080
:101C80002100B800803120006E27883121003708FC
:101C9000B9001B30BA00200000200A30111E4E2E61
:101CA00023009A000D302000111E542E23009A00AC
:101CB0002000AD2FD3080319F22E520DF700F70DB7
:101CC000FC30F70577082100B700370A8031200083
:101CD000E2208831FA002100370880312000E2201C
:101CE00088312100AE007A08AF002E0884002F084A
:101CF000850001300002B0002E0884002F08850006
:101D000030088000200052082100B8000630B900D9
:101D1000803120004727883178082100B700B801BA
:101D20003708B90020308500613084003808840706
:101D30000030853D3908803120002720883180001F
:101D400000380319A82E2100B90AB80A922E2000E3
:101D500021002F08FA002E0884002F0885000008B3
:101D6000B700DA30230091000230920003100F30E8
:101D70002100B800803120006E2788312030850096
:101D8000613084008031C52788312830111EC62E6D
:101D900023009A00200052082100B9001B30BA002D
:101DA00020000020E4302300910002309200031054
:101DB00004302100B800803120006E2788312100D6
:101DC0003708B9001B30BA00200000200A30111E6D
:101DD000E72E23009A000D302000111EED2E230067
:101DE0009A002000AD2F8031622388318031122586
:101DF000883101302100B80080312000F62488317C
:101E000078082100B100AE012E081E3C031C862F6D
:101E10002E08B8000630B9008031200047278831ED
:101E200078082100B800B9013808BA0020308500D0
:101E300062308400390884070030853D3A088031DB
:101E40002000272088318000003803192C2F210022
:101E5000BA0AB90A162F200021002E0DF700F70D3F
:101E6000FC30F7057708B800380A80312000E220FE
:101E70008831FA002100380880312000E2208831C2
:101E80002100AF007A08B0003008FA002F08840063
:101E9000300885000008B8005B302000111E4E2F6E
:101EA00023009A0021002E08B9000130BA0020005A
:101EB00000205D30111E5A2F23009A002030200090
:101EC000111E602F23009A002030850062308400AC
:101ED00080312000C52788312030111E6D2F23004E
:101EE0009A0021003808B9001B30BA0020000020F9
:101EF0000A30111E792F23009A000D302000111E88
:101F00007F2F23009A002100AE0A042F54302300B3
:101F1000910002309200031010302100B80080318F
:101F200020006E27883121003108B9001B30BA002B
:101F3000200000200A30111E9B2F23009A000D3034
:101F40002000111EA12F23009A005F309100023063
:101F500092008031200013238831230020003C10A0
:101F6000903137280A148A140A158207892C582DB3
:101F7000AB2DAF2DC12D5A2EF32E70082100A400D9
:101F8000A5012000541CCF2F6C0821002402031847
:101F9000CE2F20006C082100A400A5012000D41C35
:101FA000DD2F6D08210024020318DC2F20006D08AE
:101FB0002100A4000130A5002000541DEB2F6E0865
:101FC000210024020318EA2F20006E082100A4003B
:101FD0000230A5002000D41DF92F6F082100240233
:101FE0000318F82F20006F082100A4000330A5007B
:081FF0002000BC1090313F28D5
:10200000850184011F3083057230210099008E15EF
:102010000E162400171097109711133092002830D5
:10202000950094171413193023009B00A6309E00CE
:1020300090309D002F0091019201980199019A0121
:1020400023008C018D018F019001220092019101EA
:10205000940193012000A501A6018031372D903114
:1020600080318D2D90313C1C3B2888314A2890319D
:102070008031F9229031BC1C40288831BD2F90312D
:04208000332863009E
:083FB800AA346A345A3456346D
:103FC000553455349534A534A934AA346034953425
:103FD0009934943440345934A434553450346A34C8
:103FE00098346534A0349034A8346934A6346434E9
:103FF0005434803458345634683496349A34A53462
:020000040001F9
:04000E00A40FFF1E1E
:00000001FF
;PIC16LF1937
;CRC=93E0  CREATED="18-Apr-13 21:32"
