:100000009831C72D0000080083018A01200077087D
:10001000A0007808A1007908A2007A08A3007B0854
:10002000A4008B1D15280B182B288B1E19280B19C3
:100030002D28850191308400801E2028911A2F28B8
:100040002008F7002108F8002208F9002308FA0028
:100050002408FB0009008031572B8031CA2B8031E6
:10006000E12A0B0060346134623463340B00643481
:100070006534803481340B007134753482340B0064
:100080006E346F3470340B00403420340B34013440
:10009000423420340F3401340C342034143401340D
:1000A0000D342034143401340E342034143401342B
:1000B0000F34203414340134103420341434013417
:1000C0001134203414340134123420341434013403
:1000D00013342034143401341434203414340134EF
:1000E00015342034143401341634203414340134DB
:1000F00017342034143401341834203414340134C7
:1001000019342034143401341A34203414340134B2
:100110001B342034143401341C34203400340134B2
:100120001D342034003401341E34203400340134B2
:100130002234203400340134233420340034013498
:100140002434203400340134253420340434013480
:100150002634203406340134273420340634013464
:100160002834203402340134293420340E3401344C
:100170002A3420340D3401342B3420340B34013430
:100180002C342034073401344334203436340134E1
:1001900044342034123401342D3420341F340134DB
:1001A0002E3420340E3401342F3420340234013400
:1001B000303420341B340134313420340E340134D3
:1001C00032342034113401343334203401340134D6
:1001D00034342034003401343534203400340134D4
:1001E000363420342234013437342034003401349E
:1001F00038342034003401343934203400340134AC
:100200003A342034023401343B3420340034013495
:100210003C342034003401343D3420340B34013478
:100220003E34203400340134453420340034013469
:10023000463420340534013447342034003400344B
:1002400074340034003400340B0065346534703489
:1002500072346F346D3400340B00643465346634AA
:10026000613475346C34743400340B0020342C3415
:100270003B340D3400340B00733465347434003473
:100280000B00533441345634453400340B0052349F
:100290004534533454344F345234453400340B0015
:1002A00073347434613474347534733400340B0033
:1002B0007234653462346F346F34743400340B003C
:1002C000643400340B0069343234633400340B007E
:1002D0006D346F3472347334653400340B002B3456
:1002E00000340B002D3400340B006E3400340B004E
:1002F000433450344F34543400340B00613464348C
:100300006D3469346E3400340B00443454344D344D
:1003100046343A34003445344E340034003400342A
:10032000003450344F344C340034003400345234F0
:1003300031344734313400340034523431344734AA
:1003400032340034003452343134473433340034DE
:1003500000345234313447343434003400345234AD
:100360003234473431340034003452343234473478
:1003700032340034003452343234473433340034AD
:10038000003452343234473434340034003452347C
:100390003334473431340034003452343334473446
:1003A000323400340034523433344734333400347C
:1003B000003452343334473434340034003452344B
:1003C0003434473431340034003452343434473414
:1003D000323400340034523434344734333400344B
:1003E0000034523434344734343400340034583414
:1003F0004934313400340034003458344934323410
:100400000034003400345834493433340034003478
:10041000003458344F34313400340034003458340C
:100420004F34323400340034003458344F343334D1
:100430000034003400345234313450340034003449
:1004400000345234323450340034003400345234E6
:1004500033345034003400340034523434345034A3
:100460000034003400345234313450345434543471
:10047000003452343234503454345434003452340E
:1004800033345034543454340034523434345034CB
:100490005434543400345334493444340034003434
:1004A00000345434583449344434003400344D3426
:1004B000523453343134003400344D3452345334D4
:1004C0003234003400344D34523453343334003435
:1004D00000344D34523453343434003400344D3409
:1004E000523453343534003400344D3452345334A0
:1004F00036340034003458344F344F3431340034FF
:10050000003458344F344F343234003400345834CB
:100510004F344F3433340034003458344F34413482
:1005200031340034003458344F34413432340034E0
:10053000003458344F3441343334003400345834A8
:1005400049344F34313400340034583449344F3452
:10055000323400340034583449344F3433340034A6
:100560000034583449344134313400340034583480
:10057000493441343234003400345834493441343D
:100580003334003400345434413449344C3400346E
:10059000003454344F345434003400340034433481
:1005A0004F345234003400340034433450344F3428
:1005B000543400346400111EDA2A23009A0020000B
:1005C0000800911E382B6400911EE32A23001908AD
:1005D0002200DE005E08083C031D162BF1080319FB
:1005E000102BF1034E307107840020308500031872
:1005F000850A800108302000DA221B30DA225B30C5
:100600006400111E002B23009A004B306400200070
:10061000111A0C2B2300062B23009A00142B220006
:1006200007302000DA2223003A2B220071080F3C09
:10063000031C352B5E082000DA227108F10A4E3EB9
:100640008400203085000318850A22005E0880009F
:100650005E080D3C0319332B5E082B3C0319332B2A
:100660005E082D3C03197214392B07302000DA2262
:100670002200230020009112803120280F30210019
:100680008F002200E108031D472B0F13482B0F1783
:1006900000000F12000020000F082200E2000F30BF
:1006A000E2050F1600006208F8002000080027008D
:1006B00016080F3903196D2B20005F082200E00097
:1006C00020000D0862060F39DF005F08220060027B
:1006D000031DF215F030270096050B1CBF2B0130CF
:1006E0002200E10020003E2378082200DF005F1D89
:1006F000BD2BE10120003E2378082200DE0021000E
:10070000DB152200DE08031D882B0A30DE008C2B4F
:100710005E080A3C0319DE015E080C3C031D9A2B9F
:1007200021005B153C0884003D08850000318016DF
:10073000BC2B220021003D08203C031CBC2B031DC8
:10074000A52B3C086B3C031CBC2B3C0884003D08DB
:100750008500003122005E080F39F700F0300005F7
:100760007704800021003C0884003D0885000031AA
:100770000016BC0A0319BD0A2200270016120B1C22
:10078000C62B21005B143F30270096050B108031EB
:100790002000202821002E082F040319D42B2E0816
:1007A0000319AF03AE03E02B20000D0862060F39DA
:1007B000DF00F215721621005B14AF011E30AE008F
:1007C000300831040319E82B30080319B103B003D2
:1007D0000B118031200020288A0649194310452931
:1007E000D22752103A10CE37A020C3252033F2373B
:1007F0006D10CC2144103A10A53A00008A065039F9
:10080000EF31E539F334EE33A021EF36ED306E32BF
:100810003A008A062010D334F432492220103A10CC
:10082000A53A00018A062010C337ED3661376410FF
:100830003A10A53A00018A0620104139E73AED3214
:100840006E3A3A10A53A00018A062010D630EC3AEA
:10085000651020103A10A53A0001491943142532B9
:100860002910C32644103A10253200005B183B18AB
:1008700048008A06491943103A10CE37A020C325F4
:10088000201DA01275008A06D0377414A53A291EBF
:10089000BD127500C327521DA5392028542ABA124B
:1008A00073000A058D214F29BA127510A822ED3A5E
:1008B0006C1DA53AA91DA020753C4937BA127500D8
:1008C0008A06442A4D23A029F430F43A73103A10D2
:1008D000A53A8A0600008A06491943104539F237BD
:1008E00072103A10CE37A020C3252033F2376D1096
:1008F0005429C926D027D429201DA0127500D0273D
:10090000541DA5312532A012E3126410A531253201
:10091000A012E31264000A058D20C42649273E1068
:1009200000010A058D21CF26CD204E223E10000069
:100930008A064937693AE930EC34FA34EE33202933
:10094000C126203B6139E9306236E5392033F23780
:100950006D10C5225029CF2600018A064937693A11
:10096000E930EC34FA34EE332029C126203B6139DA
:10097000E9306236E539A03B693A6810E634F23670
:10098000F730F23220326533E13A6C3A203B61367F
:10099000F53273008A06D330F634EE332029C126AF
:1009A000A0316F37E634E73AF230F4346F37A034D1
:1009B0006E10C5225029CF262E008A0620104334FF
:1009C000E531EB39F536A036E939ED30F431681709
:1009D0002029E539F437F234EE3320326533E13A39
:1009E0006C3A203B6136F532731700008A06D33229
:1009F000743A69376710A539A812F514203A6F10B8
:100A0000A53A00008A062310502A5410D434ED323F
:100A1000EF3AF4100A008A06442A4D233D001030B4
:100A20002100ED00EC016D086C020318212D4E3001
:100A30006C078400203085000318850A8001EC0AC9
:100A4000132DF1017210FF30F500BE01F0012000FE
:100A500008000B082200C1008B1323009517151402
:100A60000000000013087F390319792D2200C2000D
:100A7000230011082200C300230012082200C40032
:100A8000420864002000111A472D2200412D230046
:100A90009A0022004308230091002200440823000A
:100AA00092009517151400000000130D140D7F39E6
:100AB0000319792D2200C200230011082200C3006F
:100AC000230012082200C400420864002000111A0A
:100AD0006B2D2200652D23009A002200430823007D
:100AE00091002200440823009200910A0319920AFF
:100AF0002E2D2200C11B8B172000080022003E086B
:100B000084003F0885000008C10041087F3C031CA9
:100B1000C10A0310410D093A4007C1003E08840094
:100B20003F088500410880002000080001302200B5
:100B3000B800B901BB00340BA62D983023009100FA
:100B40000430920020002925AD2D2200AD30230075
:100B5000910004309200200029252200B5013508BB
:100B6000373C031C0C2E350DF700F70DFC30F70554
:100B70007708BD003D0A20004320FA0022003D080E
:100B8000200043202200B6007A08B700340BF82D6D
:100B9000350DF700F70DFC30F7057708033E200010
:100BA0004320F8007818D62D2200F82D22003908AD
:100BB000230091009513151413082200BC00360879
:100BC0008400370885003C0880003708FA003608A2
:100BD0008400370885000008BD002030BF00B83011
:100BE000BE003D08C00020007E252200B90A0A2E62
:100BF000350DF700F70DFC30F7057708023E2000B1
:100C00004320F8002200BA00360884003708850027
:100C10003A088000B50AAF2D340B182E390823008E
:100C2000910095131514130822003802031DBB010F
:100C30003B08F8002000080001302200B800B50190
:100C4000B4013408373C031C7A2E340DF700F70D3D
:100C5000FC30F7057708BA003A0A20004320FA0072
:100C600022003A08200043202200B6007A08B7008C
:100C7000340DF700F70DFC30F7057708033E200030
:100C80004320F800781C772E2200360884003708AD
:100C900085000008B900350823009100951315144C
:100CA00013082200390203196C2E0B08F7008B136E
:100CB0003508230091002200390823009300951382
:100CC000151555309600AA30960095149518662E85
:100CD000151177088B0422002030BF00B830BE0009
:100CE0003908C00020007E252200B50A200022001D
:100CF000B40A212E0B08F7008B133508230091004E
:100D000022003808230093009513151555309600DE
:100D1000AA309600951495188B2E151177088B0420
:100D2000CA309100043092002000292508002200DA
:100D30003308B40020009625F808031DAB2EDD30E3
:100D40002300910004309200200029252200B401E4
:100D5000200096251C260800003021008F0022006C
:100D60004B1049080F390139031D4B144B18BA2E8B
:100D70000F10BB2E0F144B1049080F390239031DF9
:100D80004B144B18C52E8F10C62E8F144B104908CC
:100D90000F390439031D4B144B18D02E0F11D12ECF
:100DA0000F154B1049080F390839031D4B144B1808
:100DB000DB2E8F11DC2E8F15CA08031DE12E0F13B9
:100DC000E22E0F17E32E8F12E52E8F16E72E0F302F
:100DD00021008F00200008002400951320009111AD
:100DE00022005608240091000230951BFE2E2000A0
:100DF000911DF82E00302400161B0130F800200051
:100E000008000B082200D7008B1323009517151438
:100E1000000000000318352F13087F392200D80086
:100E2000230011082200D900230012082200DA0052
:100E3000580864002000111A1F2F2200192F2300C8
:100E40009A00220059082300910022005A0823002A
:100E5000920095171514000000002200D60B312FC8
:100E6000332F2300352F5A2F2300130D140D7F39F4
:100E70002200D800230011082200D9002300120804
:100E80002200DA00580864002000111A492F2200BD
:100E9000432F23009A0022005908230091002200CA
:100EA0005A0823009200910A0319920A03102200A3
:100EB000D60B052FD71B8B172000080022005908DE
:100EC000F80158020318672F5808F700732FF7012D
:100ED0000830DA00D80DF70D590877020318F7002B
:100EE000F80DDA0B6A2F2000080078082200560857
:100EF000D8006430D90020005E2777082200D60091
:100F000078083030031D8B2FD71C992FD719992FB4
:100F1000571A20308E2FD71157125714F807780818
:100F200064002000111A962F2200902F23009A00AF
:100F300022005608D8000A30D90020005E27770822
:100F40002200D60078083030031DAC2FD719B72FF8
:100F5000571CB72F571A2030F80778086400200074
:100F6000111AB42F2200AE2F23009A002200303035
:100F7000D607560864002000111AC02F2200BA2F8D
:100F800023009A002000080020308500D030840023
:100F900000080319DC2F0230F800BF30F7006400AE
:100FA000F70BCF2FF80BCD2F9630F700F70BD62F7E
:100FB000D92F6400800BCB2F080022004B08F700CC
:100FC000031023009517151400000000130880007B
:100FD000840A910A0319920AF70BE32F20000800F4
:100FE00021006208850061088400220056081A006A
:0E0FF00080012100E10A0319E20A2000080036
:101000002200450EC700C70DC70DC030C7054608F2
:101010003F39C7072400161416180C285030220038
:10102000D60080312000EC26883178082200481054
:1010300078184814481C3728003048180130C90077
:101040003930230091000430920003101130220047
:10105000D600803120000127883122004908D600BF
:101060001B30D700803120007527883122004708C7
:10107000D60080312000EC26883124001615161980
:101080003F284330230091000430920003100630C3
:101090002200D60080312000012788312200450837
:1010A000D6001B30D70080312000752788312930C9
:1010B0006400111E582823009A003C306400200070
:1010C000111A642823005E2823009A003D30640032
:1010D0002000111A6D282300672823009A0022009F
:1010E0004608D6001B30D700803120007527883194
:1010F000080001302200C900CA0180312000AC265E
:1011000088310C302200C9000130CA008031200033
:10111000AC26883105302200C9000130CA00803178
:101120002000AC26883105302200C9000130CA00F9
:1011300080312000AC2688312100B1010230B0009E
:10114000300831040319A6280000A028043022002A
:10115000C9000130CA0080312000AC26883164000B
:10116000080001302200C900CA0180312000AC26ED
:1011700088310C302200C9000130CA0080312000C3
:10118000AC26883105302200C9000130CA00803108
:101190002000AC26883105302200C9000130CA0089
:1011A00080312000AC2688312100B1010630B0002A
:1011B000300831040319DE280000D828043022004A
:1011C000C9000130CA0080312000AC26883164009B
:1011D0000800DB3022004507C9001F30CA00031891
:1011E000CA0A4A08230092002200490823009100FD
:1011F00020308500C630840001302200CB008031D1
:101200002000DD2788312100DB162200C7014708B6
:10121000033C031C312948144608C039403A2000D9
:1012200003191629C03A031918291A2979201D29EA
:10123000B1201D292200481020002200C60DC60D35
:10124000FC30C605481C2F292100B1010230B00036
:101250003008310403192E29000028292200C70A6A
:1012600007294508093C031C40294508043C031C88
:101270003D292000B1203F292200200079202200B2
:1012800020000800220046080739F700460CF80045
:10129000F80CF80C1F30F805780848078400003077
:1012A000493D8500F801F80AF70A5729F80DF70BB0
:1012B0005629C70803195F29780880046229F809AC
:1012C00078088005200008000B082200D1008B134D
:1012D0002300951715140000000003189529130822
:1012E0007F392200D200230011082200D3002300FE
:1012F00012082200D4005208D60080312000F027C6
:101300008831220053082300910022005408230052
:10131000920095171514000000002200D00B9129AF
:10132000932923009529B7292300130D140D7F3924
:101330002200D200230011082200D300230012084B
:101340002200D4005208D60080312000F0278831D6
:101350002200530823009100220054082300920029
:10136000910A0319920A03102200D00B6829D11B9D
:101370008B172000080080080319D12905082200D6
:10138000C6000408C5000008D60080312000F02700
:10139000883122004608850045088400013120007C
:1013A000BB29080003102200500D0E396038D3000D
:1013B000240016141618DA2922005308D6008031AA
:1013C0002000EC2688317808220054107818541434
:1013D000541C0C2A2100601C0A2A003022005418D8
:1013E0000130D500EC30230091000330920003104F
:1013F00020302200D60080312000012788312200D1
:101400005508D6001B30D700803120007527883161
:10141000210060100E2A22002100601422005208D0
:10142000FA00510884007A088500800803192B2AE5
:101430005208FA005108D10A0319D20A84007A0826
:1014400085000008D500D60080312000EC268831C8
:1014500021000E2A2200D60180312000EC2688319E
:10146000240016151619322A200008002030220008
:10147000511E3030D2005008F700D01F472AF7091C
:10148000F70A7708D0002D30D200D1175114500838
:10149000D8006430D900803120005E278831770879
:1014A0002200D00030307807D3005008D8000A302E
:1014B000D900803120005E27883130307707220044
:1014C000D50030307807D4005208F700303053028E
:1014D00003196E2AD114D11B5115822A5208D30048
:1014E0002030D2003030540203197A2A5114D11B13
:1014F000D114822A031D5114031D822A5308D400DB
:101500002030D3005119892AD118902A5118972ACE
:101510009E2A5208D60080312000F0278831220010
:101520005308D60080312000F0278831220054086B
:10153000D60080312000F027883122005508D600DF
:1015400080312000F0278831080080080319BE2A66
:1015500005082200D1000408D00000086400200023
:10156000111AB42A2200AE2A23009A002200510840
:1015700085005008840001312000A52A0800203091
:101580002200C800C900CA00CB00CC01CD01CE01A9
:10159000CF012830D00080312000C42788312400BA
:1015A00016141618D12A51302200D600803120009E
:1015B000EC26883178082200C7107818C714C501B6
:1015C0004508033C031C1D2B4508033C031DEA2A68
:1015D0004710EB2A4714003047180130D00050085C
:1015E000F7002400151396159619F42A7718961209
:1015F000771C96161616161AFB2A1108F80078089A
:101600002200C6003F30C605CC304507840020309C
:1016100085000318850A46088000740803394502CE
:10162000031D1B2BC830450784002030850003189C
:10163000850A2A308000C50AE02A240016151619EA
:101640001F2B32302200D00080312000C427883187
:101650002200C71C462B003047180130D0006B30E9
:101660002300910004309200031025302200D600A0
:10167000803120000127883122005008D6001B301D
:10168000D7008031200075278831220020302100CA
:10169000E2007430E1007F302300910004309200BA
:1016A000031004302200D0002000642122004808EA
:1016B000D60080312000F027883122004C08D0006D
:1016C0001830D1002000362220302200D600803190
:1016D0002000F027883122004908D6008031200000
:1016E000F027883122004D08D0001830D1002000AA
:1016F000362220302200D60080312000F0278831A9
:1017000022004A08D60080312000F02788312200CC
:101710004E08D0001830D1002000362220302200A0
:10172000D60080312000F027883122004B08D600F7
:1017300080312000F027883122004F08D000183077
:10174000D100200036222200D0012030D200743097
:10175000D1002000D2210A306400111EAC2B2300DE
:101760009A000D3064002000111AB82B2300B22B10
:1017700023009A0020308500743084002000A522C8
:10178000080030302200BA00BB00BC00BD00BE0122
:10179000BF00C000C100C200C30134082000EB003C
:1017A0002200B4080319E52B01303402293E8400DD
:1017B000203085000318850A0008C5002000600855
:1017C000610522004505B9002E2CB901F21F2E2C0F
:1017D000F2132000E908031DF02BE80803192D2C53
:1017E000640004302200C500FA30D00080312000AF
:1017F000C42788312200C50BF42B2000E908031907
:10180000152C69082200C5002000E920E9016400C8
:1018100002302200C500FA30D00080312000C427F9
:1018200088312200C50B0B2C2000E80803192C2C52
:1018300068082200C5002000E920E80164000230A9
:101840002200C500FA30D00080312000C427883142
:101850002200C50B222C2000640022000130B800B9
:10186000B5013508033C031C992CB408031D3B2C1F
:101870004410C4104E2C013035073402031D462C91
:10188000441438082000EA00482C220044102000AC
:101890002200C41039083805031DC41435088031EE
:1018A0002000312088312200C5000030441801306A
:1018B000F7004508C6007708C7000130C900C80115
:1018C0002000422122004508C600C701C90180301E
:1018D000C800200042212200350880312000362037
:1018E00088312200C5000030C4180130F7004508D7
:1018F000C6007708C7000130C900C8012000422196
:1019000022004508C600C701C9018030C800200078
:1019100042212200C41C952CBF30350784002030A2
:1019200085000318850A313080000310B80DB50A10
:10193000312CB408031DA02C2000EC01CE2C220079
:1019400001303402253E8400203085000318850ACA
:1019500000082000EC002200B6013608033C031CFE
:10196000CB2C01303402F700F70DF70DFC30F705F2
:10197000770836070C3E8400203085000318850A5E
:101980000008B7003608C5003708C6002000002050
:101990002200B60AAD2C2100DB1620002200B4087C
:1019A0000319DC2C01303402BA3E8400203085005B
:1019B0000318850A3130800020302100E2007430A5
:1019C000E1004A30230091000430920003100430FB
:1019D0002200D0002000642120308500BA3084002D
:1019E000BB214D30230091000430920003100530DC
:1019F0002200D0002000642120308500BF30840008
:101A0000BB2101302200D0002030D2007430D10040
:101A10002000D22132302200D00080312000C427A3
:101A20008831BF22080021005B132200C608031979
:101A30001C2D21005B17220021005B1F262D0A3080
:101A40002000E900FF30F300292D2100183020008C
:101A5000E900080080310F258831220092019101B0
:101A6000940193011730210097002000DF01F21349
:101A7000FD01FC01EA01EC01EB01F401FF3066001D
:101A8000003021008F001010901010119015911649
:101A90008B15CF302700940495048B15151614125E
:101AA000C0308B0422008F138F160F160F130130D6
:101AB000B300803120009726883122000F168F1640
:101AC0000F13C9010130CA0080312000AC268831D3
:101AD0002200C9010130CA0080312000AC268831C3
:101AE0000C302200C9000130CA0080312000AC2631
:101AF000883101302200C900CA0080312000AC26A4
:101B00008831A5018B1BA5178B1301302200E10042
:101B1000803120003E238831A51B8B1721005B16E6
:101B20000F302000E10062080F39C03824008D001A
:101B30002100951380312000032088319D306700FB
:101B4000803065002200C501C60120000020013060
:101B50002200C500C6012000002002302200C5007E
:101B6000C6012000002003302200C500C60120006D
:101B700000202100AF011E30AE001508C039073823
:101B800095008B162200B4012000C1231D302100D6
:101B9000DD003B30DC007213F212DB16200065081A
:101BA000E800E9010130C200C300C400BF01C00168
:101BB000C10121005B102000ED012200C6012000C0
:101BC00013252100DB13DA0198312000FA2D2100C2
:101BD000DB102F0CFA002E0CF900FA0CF90CFA0CA1
:101BE000F90C7908EC00DA080319042E2E080439E0
:101BF000F700FA0177087A040319042EDB1001308C
:101C000074076C02031CDB14DB180A2E22000C1371
:101C10000C2E210022000C1721000C1398312000FB
:101C2000A12E22004508460403191A2E4608FA0080
:101C300045081F2E20002708FA0026082200C900A8
:101C40007A08CA004A08CE004908CD004808D000EA
:101C50004708CF004E08D2004D08D1005208FA00C4
:101C6000510884007A08850080080319682E5008FE
:101C7000D4004F08D3005408FA00530884007A08AF
:101C800085008008031D4E2E4D085102F7004E08B6
:101C9000523BFA007708F800702E602E5208FA00C6
:101CA000510884007A0885000008D5005408FA001D
:101CB000530884007A088500000855020319642E31
:101CC000D30A0319D40A3B2ED10A0319D20A2E2EA5
:101CD0004D085102F7004E08523BFA007708F80011
:101CE0007808C9070030CA3D4A08FA00490884004C
:101CF0007A0885008008031D892E200026088400AC
:101D000027088500203080000030F800F900EE2E12
:101D100022004A08CE004908CD004808D0004708F4
:101D2000CF004E08D2004D08D1005208FA005108E9
:101D300084007A08850080080319CA2E5008D40050
:101D40004F08D3005408FA00530884007A0885002D
:101D500080080319C62E5208FA00510884007A0838
:101D600085000008D5005408FA00530884007A085A
:101D7000850000085502031DC22E5108F8005208C4
:101D8000F900CD2ED30A0319D40AA22ED10A0319C1
:101D9000D20A952E0030F800F9007908CC007808B6
:101DA000CB004C08FA004B0884007A0885008008B4
:101DB0000319E22E4B0884004C0885008001CB0AF1
:101DC0000319CC0A4C082000A70022004B08200071
:101DD000A60022004908F8004A08F900200008007F
:101DE000F701F8012200490803104A18F707F70C19
:101DF000F80CCA18F707F70CF80C4A19F707F70C94
:101E0000F80CCA19F707F70CF80C4A1AF707F70C81
:101E1000F80CCA1AF707F70CF80C4A1BF707F70C6F
:101E2000F80CCA1BF707F70CF80C2000080022007A
:101E3000C701C8014708450784000030463D8500BA
:101E4000800803194C2F4708450784000030463DA1
:101E5000850000082F3C03184C2F470845078400D5
:101E60000030463D85000008393C031C4C2F4808D3
:101E7000C9000A30CA002000F02678082200C900F4
:101E80004708450784000030463D85003030000299
:101E90004907C800C70A1A2F4808F80020000800A0
:101EA00022004608FA00450884007A0885000008E8
:101EB000C9004808FA00470884007A08850000082D
:101EC00049020319B92F4608FA00450884007A0828
:101ED00085000008C9004908403C0318732F4908D1
:101EE0005A3C03187B2F4908603C0318CF2F490840
:101EF0007A3C031CCF2F4808FA00470884007A0870
:101F000085000008C9004908403C03188B2F490888
:101F10005A3C0318932F4908603C0318CF2F4908F7
:101F20007A3C031CCF2F4608FA00450884007A0843
:101F300085000008C9004808FA00470884007A08AC
:101F400085002030000749020319B92F4808FA001C
:101F5000470884007A0885000008C9004608FA008E
:101F6000450884007A088500203000074902031DD7
:101F7000CF2F4608FA00450884007A0885008008BB
:101F8000031DC52F0030F800E52F4608FA0045086C
:101F9000C50A0319C60AC70A0319C80A512F4608F9
:101FA000FA0045088400460885000008C900480872
:101FB000FA00470884004808850000084902031811
:101FC000E32FFF30E42F0130F8002000080010302C
:101FD0002200C700F701FA01C40CC30C031CF62F42
:101FE0004508F7070318FA0A4608FA07FA0CF70C2F
:0C1FF000F90CF80CC70BEC2F20000800C7
:102000002200C5014508053C031C25284508410759
:10201000C6000030423DC70045084307F8000030C5
:10202000443DFA007808230091007A0892002200CB
:1020300047088500460884000130CB00803120002D
:10204000DD2790312200C50A022820000800210067
:102050005B1F2C28FF30F3005B1B3228DB1B322870
:10206000003033280130F8002000080074080339DC
:102070002200B9002000EB080319752801306B021B
:10208000F700F70DF70DFC30F70577082200390748
:102090000C3EF8002030FA000318FA0A7808B6005F
:1020A0007A08B70036088400370885000008B800B1
:1020B000360884003708850035083807800020007E
:1020C0002720F8080319752822003708FA00360877
:1020D0008400370885000008BA003908C5003A08AE
:1020E000C60088312000002090318831BF22903115
:1020F0000800780822003308D8006430D900803105
:1021000020005E27903177082200B3007808303035
:10211000031D9128B41C9C28B4199C28341A203023
:102120009428B41134123414F8077808D60080319A
:102130002000F027903122003308D8000A30D9005F
:10214000803120005E27903177082200B3007808A4
:102150003030031DB128B419B928341CB928341AF9
:102160002030F8077808D60080312000F027903121
:1021700022003030B3073308D60080312000F0272A
:102180009031080021005B1FD0288B302300910084
:10219000043092008031200029259031D928210077
:1021A00091302300910004309200803120002925D5
:1021B0009031080001302200B40088312000C12392
:1021C000903104302200B400FA30D0008031200079
:1021D000C42790312200B40BE428B2013208053C38
:1021E000031C0E292D30320784002030850003188F
:1021F000850A0008B3003308C50088312000E920B3
:1022000090312100B1010630B000300831040319CB
:102210000B29000005292200B20AEE280430B40080
:10222000FA30D00080312000C42790312200B40B56
:102230001029F21520000800F00803198029FE304B
:102240002300910003309200803120002925903135
:102250000930230091000430920003100E30220058
:10226000D600803120000127903163082200D6007B
:102270001B30D700803120007527903112302300A9
:1022800091000430920003100E302200D6008031FD
:1022900020000127903170082200D6001B30D700A3
:1022A00080312000752790311B30230091000430CD
:1022B000920003100E302200D6008031200001274A
:1022C000903175082200D6001B30D70080312000E5
:1022D00075279031243023009100043092000310C0
:1022E0000E302200D6008031200001279031760880
:1022F0002200D6001B30D700803120007527903196
:1023000002307002F53E0318832D0B3E842D7608B3
:10231000FF3C031DB1290A306400111E8C292300E3
:102320009A000D3064002000111A98292300922988
:1023300023009A0085017508840088312000A522B9
:10234000903120306400111EA22923009A007608E3
:102350002200D6001B30D700803120007527903135
:102360003E2A750DF700F70DFC30F70577082200BF
:10237000B500350A8031200043209031FA00220058
:10238000350880312000432090312200B2007A08C5
:10239000B30020002720F8080319D62922003208AC
:1023A000840033088500760880002000220032086F
:1023B0008400330885000008B4007508FC00013073
:1023C000FD00F630230091000430920003100A3023
:1023D0002200D60080312000012790312030850076
:1023E0006E3084008831A522903128306400111E9F
:1023F000F62923009A0075082200D6001B30D7006A
:102400008031200075279031FD3023009100043089
:102410009200031405302200D600803120000127ED
:10242000903122003408D6001B30D70080312000C4
:1024300075279031220033081F3C0318302AFF3AD9
:10244000031D262A32080B3C0318302A3308203C8F
:10245000031C302A031D372A32081B3C0318372A75
:102460003208743C031D3B2AB308031D3B2AB50107
:102470002000362022002100DB162000832D750D60
:10248000F700F70DFC30F70577082200B200320A9A
:102490008031200043209031FA0022003208803140
:1024A0002000432090312200A6007A08A70075087A
:1024B000FC000130FD000130FA008B30B2007A08D8
:1024C000B300B5017508B4003508C4003408C30072
:1024D000C6010630C50088312000E7279031780812
:1024E00022003207AA007908333DAB002030C20039
:1024F000AC30C1002B08C4002A08C3002000002013
:1025000022002708FA002608840027088500000812
:10251000B20020302100E2007430E1005B30220084
:10252000D60080312000F027903175082200B300DA
:102530000130B400200079205D302200D6008031C7
:102540002000F027903120302200D600803120007A
:10255000F027903120308500AC3084008831BB21D9
:10256000903120302200D60080312000F0279031B9
:1025700022003208B3001B30B400200079200A305A
:102580002200D60080312000F02790310D3022004B
:10259000D60080312000F02790310A306400111EEF
:1025A000CE2A23009A000D3064002000111ADA2A86
:1025B0002300D42A23009A00203085007430840040
:1025C00088312000A522903102302200D000203036
:1025D000D2007430D10088312000D2219031C22045
:1025E000832D2720F8080319F82A80311C26903102
:1025F000832D760BFF2A22002814012B20002200B5
:10260000281020002720F8080319102B0030220082
:1026100028180130B200B300803120009726903195
:10262000832D75080339F40076082200B5002000D8
:1026300036202100DB162000832D75080339F400B5
:10264000FF302200C9007608CA0088312000F02639
:10265000903178082200B200B50020003620210019
:10266000DB162000832D1B308031DA2290315B3065
:102670006400111E382B23009A00323064002000C1
:10268000111A442B23003E2B23009A004A30640089
:102690002000111A4D2B2300472B23009A001B30DA
:1026A00080312000DA22903136302300910004304E
:1026B0009200803120002925903180310320903113
:1026C000A5018B1BA5178B1301302200E10080317F
:1026D00020003E239031A51B8B1778082200B900FB
:1026E000BA01B301B201B308031D782C3208373C9C
:1026F000031C782C0130FA008B30C1007A08C2002C
:102700003308C4003208C300C6010630C500883152
:102710002000E7279031780822004107B5007908AA
:10272000423DB6002030C200BB30C1003608C400B4
:102730003508C300200000202200320DC100330DF7
:10274000C200C10DC20DFC30C1054208FA004108AB
:10275000C300410A8031200043209031FA0022005A
:10276000430880312000432090312200B7007A08CE
:10277000B8003808FA00370884007A088500000895
:10278000C1005B3064002000111AC82B2200C22B4C
:1027900023009A000B30840022003308C300320863
:1027A000C2000508CA000408C900430EF038C5007D
:1027B000C507E23EC600323EC80043080F39C607CF
:1027C000C607C807E93EC700C707C707420E0F394B
:1027D000C707C807C70DC80DC809C80D42080F397B
:1027E000C807C50D0730C4000A30C807C703031C5B
:1027F000F52BC707C603031CF92BC607C503031C2B
:10280000FD2BC507C403031C012C01308500443097
:10281000840007304905491384074830040203192E
:1028200049170008F700031D1D2C491B1D2C491AD0
:102830002B2CC9191D2C2030202CC91549123030E1
:10284000F707770864002000111A282C2200222C98
:1028500023009A0022000131491F0D2C5D306400D5
:102860002000111A352C22002F2C23009A00203032
:1028700064002000111A3E2C2300382C23009A00FB
:1028800020308500BB30840088312000A5229031A3
:1028900020306400111E492C23009A0022004108B8
:1028A000D6001B30D70080312000752790310930C9
:1028B0006400111E582C23009A00220032080339AC
:1028C000C100C2014108033C031D732CC208031D53
:1028D000732C0A3080312000DA2290310D308031A3
:1028E000DA22903122006400B20A0319B30A732B72
:1028F000B4013408023C031C932C1F3034078400BD
:10290000203085000318850A000B912C0230F70057
:102910003408F80003198F2CF735F80B8C2C770846
:10292000BA07B40A792C5130230091000430920088
:10293000031007302200D60080312000012790319B
:102940005F082200D6001B30D70080312000752799
:102950009031553023009100043092000314073069
:102960002200D60080312000012790316708220024
:10297000D6001B30D70080312000752790315A30A7
:102980002300910004309200031009302200D60089
:10299000803120000127903122003A08D6001B30F8
:1029A000D7008031200075279031603023009100DE
:1029B00004309200031010302200D6008031200035
:1029C0000127903122003908D6001B30D700803112
:1029D0002000752790310A306400111EEC2C230072
:1029E0009A000D3064002000111AF82C2300F22CFC
:1029F00023009A0088312000BF2290312100DB168D
:102A00002000832D7508023A03190D2D033A03198E
:102A1000122D023A03191A2D1C2D2720F808031D28
:102A20000100222D01302200C6008831200013252C
:102A30009031222DDA20222D2200C601883120007B
:102A400013259031832D76080339043E2200A90016
:102A500020302100E2007430E1002D30230091008D
:102A600004309200031004302200D000883120008E
:102A70006421903160302200D0001830D1008831BC
:102A80002000362290313030230091000430920033
:102A9000031008302200D0008831200064219031DA
:102AA00022002908D0001830D100883120003622B9
:102AB00090310A306400111E5A2D23009A000D3007
:102AC00064002000111A662D2300602D23009A0057
:102AD000203085007430840088312000A522903198
:102AE00022002908D0002030D2007430D100883173
:102AF0002000D2219031832D76082200C500883134
:102B00002000E920903108000A148A100A15820773
:102B100087293F2AF12AF92A112B1D2B332B022D4D
:102B2000832D7C2D232D220023080739F700230C49
:102B3000F800F80CF80C1F30F8057808240784001A
:102B40000030253D85000008F800F70AA82DF80C94
:102B5000F70BA72D90312000D82D2100EC016C0837
:102B6000023C031CF72D1F306C07F8002030FA00E0
:102B70000318FA0A78082200A0007A08A1002100B0
:102B80006C08803120003F2090312200A200C60056
:102B90000130C700C9018030C800883120004221BF
:102BA000903122002208A300A501A4012000932D4A
:102BB0007818EA2D1C3021006C0784002030850035
:102BC0000318850A80080319E72D2000EA2D00303C
:102BD000EC2D2000013021002200A30021088500F7
:102BE00020088400230880002100EC0AAF2D9831D2
:102BF0002000B02E220032101F3031078400203018
:102C000085000318850A8008031D321430080F3927
:102C1000B3003008F039F700770EB4000F30B40578
:102C200001302F02FC3E03185B2E043E20005E2E76
:102C30002200321C202E30082000E105252E220023
:102C40003008FF3A0F392000E10422005B2E2200F9
:102C5000321C302EF21730082000E800322E2200FD
:102C60002000E80122005B2E220032183D2EF217D0
:102C700030082000E8003F2E22002000E80122005A
:102C80005B2E22003008103903194A2EB210321C74
:102C9000B2144D2EB2103218B214B21C542E330896
:102CA0002000E704582E22003308FF3A2000E705F1
:102CB00022005B2E2200903120008C2F0A108A14F3
:102CC0000A158207182E342E272E412E2200300896
:102CD000B4002F08B3003408FA00330884007A08DF
:102CE000850080080319782EB30A0319B40A6B2EE5
:102CF0003208FA00310884007A0885008008031938
:102D0000942E31088400320885000008B70034088A
:102D100085003308840037088000B30A0319B40A19
:102D2000B10A0319B20A782E3308840034088500EA
:102D300080012F08F8003008F9002000080030302A
:102D40002100EF002200A000A100A201A300A40026
:102D5000A500A6012030A7004130A8004430A900FA
:102D60004D30AA004930AB004E30AC00AD0121001F
:102D7000EC016C08023C031C8F2F33306C0784007D
:102D8000203085000318850A0008ED0036306C07F6
:102D90008400203085000318850A0008EE006D08C5
:102DA0002200AF0021006E082200B00021006C0854
:102DB0002200B10030080F39B2003008F039F700B6
:102DC000770EB3000F30B3052F08013A2000031926
:102DD000ED2E033A0319022F1B2F22302200310758
:102DE0008400203085000318850A20006D08220029
:102DF00033063205031DFE2E0030FF2E0130800009
:102E000020001B2F22302200310784002030850053
:102E10000318850A32081F39B6007A08B70033084C
:102E2000B606031D182FB708031D182F0030192FE1
:102E300001308000200022002E10223021006C077B
:102E40008400203085000318850A8008031D2B2F7D
:102E500022002E1421006C08803120003B2090318C
:102E60002200AF0000302E180130F7002F08C600F6
:102E70007708C7000130C900C8018831200042210D
:102E8000903122002F08C600C701C9018030C80058
:102E9000883120004221903122002E185A2FA33071
:102EA00021006C078400203085000318850A31302A
:102EB00080002200393021006C078400203085001A
:102EC0000318850A0008ED003C306C0784002030B0
:102ED00085000318850A0008EE001F306C07840087
:102EE000203085000318850A000B7F2F9F306C0768
:102EF0008400203085000318850A313080006D0879
:102F00002200AF0021006E082200B00021006C08F2
:102F10002200B1002000FA2D2100EC0AB92E203049
:102F2000E2007430E10049302200D60080312000F8
:102F3000F02790313A302200D60080312000F0276F
:102F40009031203085009F3084008831BB21903142
:102F500020302200D60080312000F02790314F3001
:102F60002200D60080312000F02790313A30220034
:102F7000D60080312000F027903120308500A3302A
:102F800084008831BB21903121005B1FD32F20307A
:102F90002200B0007430AF002030B200A730B10082
:102FA00020006626210003302200D0002030D2000D
:102FB0007430D10088312000D221903108002100E6
:102FC000EC016C08093C031CEF2F62306C07840095
:102FD000203085000318850A8001EC0AE12F20309B
:0C2FE000BD006230BC0098312000C52FFD
:1030000002302200D0002030D2004E30D100883172
:103010002000D2219831FF30F50022002E10C5018A
:10302000C60120308500B130840045088407003097
:10303000853D4608803120003521983180000038D8
:10304000031927282200C60AC50A112820002030AB
:103050002200C6004E30C5002030C800B130C70085
:10306000883120001126983179082200B0007808B4
:10307000AF00AF08031D3F28B008031959283008D6
:10308000C8002F08C7002030C600A630C500480879
:103090008500470884000008C900460885004508E7
:1030A000840049088000800803195928C50AC70A06
:1030B0004728C601C5012030C800B130C70088319B
:1030C00020001126983179082200B0007808AF005E
:1030D000AF08031D6E28B008031988283008C800FF
:1030E0002F08C7002030C6006E30C5004808850094
:1030F000470884000008C900460885004508840088
:1031000049088000800803198828C50AC70A76285C
:10311000C601C5012030C800B130C7008831200089
:103120001126983179082200B0007808AF00AF0866
:10313000031D9D28B0080319C3283008C8002F08B4
:10314000C7002030C600B930C500480885004708D0
:1031500084000008C9004608850045088400490825
:10316000800080080319B728C50AC70AA52820309F
:10317000C600B930C500883120001727983178087B
:10318000F600C6282200F6012E1420002200C501F8
:10319000C60120308500BD3084004508840700301A
:1031A000853D4608803120003B2198318000003861
:1031B0000319DF282200C60AC50AC92820002030CA
:1031C0002200C600BD30C5002030C800A630C700B0
:1031D0008831200050279831F808031DF828220074
:1031E0002E1CF5280330F000F7280230F0002000F4
:1031F0002200C501C60120308500BD30840045088D
:1032000084070030853D46088031200040219831F8
:1032100080000038031911292200C60AC50AFB28BC
:10322000200020302200C600BD30C5002030C8007C
:10323000A630C7008831200050279831F808031DB8
:1032400023290430F0002200C501C601203085008A
:10325000BD308400450884070030853D4608803134
:103260002000462198318000003803193C292200B3
:10327000C60AC50A2629200020302200C600BD301B
:10328000C5002030C800A630C70088312000502774
:103290009831F808031D4E290530F0002200C501C1
:1032A000C60120308500BD30840045088407003009
:1032B000853D4608803120004F219831800000383C
:1032C000031967292200C60AC50A512920002030A7
:1032D0002200C600BD30C5002030C800A630C7009F
:1032E0008831200050279831F808031D79290830CB
:1032F000F0002200C501C60120308500BD308400E9
:10330000450884070030853D46088031200057215C
:10331000983180000038031992292200C60AC50A94
:103320007C29200020302200C600BD30C50020309E
:10333000C800A630C7008831200050279831F8080F
:10334000031DA6290930F0000230F5002200C50156
:10335000C60120308500BD30840045088407003058
:10336000853D4608803120005F219831800000387B
:103370000319BF292200C60AC50AA9292000203046
:103380002200C600BD30C5002030C800A630C700EE
:103390008831200050279831F808031D202AF001B9
:1033A00020302200C6006E30C5008831200017276B
:1033B00098317808F60076080A3C031DE129F601E9
:1033C000E629F608031DE6290A30F60076080F39CB
:1033D0002200C5004508C6004608C900CA01803160
:1033E0002000AC2698310C302200C9000130CA0000
:1033F00080312000AC26983101302200C900CA007B
:1034000080312000AC26983105302200C9000130FF
:10341000CA0080312000AC2698312100B101103063
:10342000B000300831040319172A0000112A0430B3
:103430002200C9000130CA0080312000AC2698313A
:103440002200C501C60120308500BD30840045083A
:1034500084070030853D4608803120006221983184
:10346000800000380319392A2200C60AC50A232A17
:10347000200020302200C600BD30C5002030C8002A
:10348000A630C7008831200050279831F808031D66
:103490004B2A0C30F0002200C501C6012030850007
:1034A000BD308400450884070030853D46088031E2
:1034B000200067219831800000380319642A220017
:1034C000C60AC50A4E2A200020302200C600BD30A0
:1034D000C5002030C800A630C70088312000502722
:1034E0009831F808031D8B2A20302200C6006E3068
:1034F000C50088312000172798317808F600760833
:10350000243C031C872AF5010B30F0008B2A09307C
:10351000F0000330F5002200C501C601203085000F
:10352000BD308400450884070030853D4608803161
:1035300020006E219831800000380319A42A22004F
:10354000C60AC50A8E2A200020302200C600BD30DF
:10355000C5002030C800A630C700883120005027A1
:103560009831F808031DB62A0630F0002200C50184
:10357000C60120308500BD30840045088407003036
:10358000853D460880312000712198318000003847
:103590000319CF2A2200C60AC50AB92A2000203002
:1035A0002200C600BD30C5002030C800A630C700CC
:1035B0008831200050279831F808031DE12A073090
:1035C000F0002200C501C60120308500BD30840016
:1035D000450884070030853D46088031200074216D
:1035E0009831800000380319FA2A2200C60AC50A59
:1035F000E42A200020302200C600BD30C500203063
:10360000C800A630C7008831200050279831F8083C
:10361000031D292B0230F000013074070339F60036
:103620002200C501C601203085006E3084004508A7
:1036300084070030853D460880312000772198318D
:10364000800000380319292B2200C60AC50A132B53
:1036500020002200C501C60120308500BD30840055
:10366000450884070030853D4608803120007D21D3
:103670009831800000380319422B2200C60AC50A7F
:103680002C2B200020302200C600BD30C500203089
:10369000C800A630C7008831200050279831F808AC
:1036A000031D622B40302100DB0600305B1B013024
:1036B0002200C500C6008831200013259831210062
:1036C000DB1620002100ED01EC01ED08031DB62BF7
:1036D0006C08373C031CB62B0130FA008B302200FB
:1036E000A6007A08A70021006D082200C40021006E
:1036F0006C082200C300C6010630C50088312000D6
:10370000E72798317808220026072100EE00790883
:103710002200273D2100EF0020302200C200A0300F
:10372000C10021006F082200C40021006E082200A1
:10373000C300903120000020983120302200C600C4
:103740006E30C5002030C800A030C700883120008E
:1037500050279831F808031DB12B21006C08F500A3
:1037600020002100EC0A0319ED0A652B7508FF3CC7
:10377000031D1A2C20302200C6006E30C50088318F
:103780002000172798317808F6002200A601A7012B
:1037900020308500A0308400260884070030853D55
:1037A0002708803120002421983180000038031937
:1037B000DE2B2200A70AA60AC82B200020302200F8
:1037C000C6006E30C5002030C800A030C700883168
:1037D000200050279831F808031DF02B0130F60027
:1037E0002200A601A70120308500A0308400260811
:1037F00084070030853D2708803120002C21983136
:10380000800000380319092C2200A70AA60AF32B0E
:10381000200020302200C6006E30C5002030C800D5
:10382000A030C7008831200050279831F8080319CC
:10383000F60121007008063C0319222C7008073C91
:10384000031D262C0130F6007408F500DB179031BB
:1038500020001C2198312100DB1398312000A52E77
:1038600001302100EC002200A001200067080F3980
:103870005F042100EF002000EC080319572C210001
:103880006F0820006A05031D572CEC01EA01013086
:103890002200A00021006F08200060056105031DC3
:1038A000572CF217E5080319572C6508E80021008A
:1038B000ED012200A1012108033C031CA42C2100DE
:1038C0006F086C0503199F2C20006008610521001A
:1038D0006C050319772C2530220021078400203045
:1038E00085000318850A00082100EE00792C0130BC
:1038F000EE006E0820006C0203189E2CEC08031DDD
:10390000852C21006E082000EC00013022002107E8
:103910002100ED0001302200A0003C30C900200051
:1039200066082200CA0088312000F0269831210064
:10393000DF017808DE006C082000ED002100031094
:10394000EC0D2200A10A5B2CA0080319B22C210067
:103950006D082200B40088312000C1239831210075
:10396000DB1622002100EF08031DBA2C5B16200095
:10397000ED01210098312000202F21006E086F02F8
:10398000031CED2C6E08093C031CED2C22002214B4
:1039900021006E082200A100210821006F02031CF3
:1039A000EC2C6230220021078400203085000318AF
:1039B000850A00080F39A0006230210784002030FA
:1039C00085000318850A001E221020080C3C0319EC
:1039D0002210A10ACC2C2100F02C22002210210060
:1039E0000030220022180130F80020000800F60103
:1039F000F0012100EE010530EF002000BD24F808A1
:103A000003198D2D210032080F39EF002200C90063
:103A10000A30CA0088312000F02698317808210049
:103A2000EE0033080F396E07EC0034080F39EF0051
:103A30002200C9000A30CA0088312000F0269831DF
:103A400078082100EE0035080F396E07F0003608BF
:103A50000F39EF002200C9000A30CA008831200067
:103A6000F026983178082100EE0037080F396E07EC
:103A7000F5000630ED006D08EE006E080A3C031CF0
:103A80005B2D62306E078400203085000318850AA4
:103A9000001E592D62306E07840020308500031807
:103AA000850A00080F390C3C0319592D0130EF002D
:103AB0005A2DEF015C2DEF016F08F800F80803198B
:103AC0007A2D76082200C9000A30CA008831200009
:103AD000F026983178082100EE0062306D078400EE
:103AE000203085000318850A00080F396E07F6009C
:103AF000ED0A3B2D7008043A20000319822D013A8B
:103B0000031D842D7508F600630821006C02031D57
:103B10008E2D903120001C219831210032080F3960
:103B2000F0005B1FC32DEE01EF012000BD24F8085B
:103B3000031D9C2D2100C32D640070080E3A03194B
:103B4000A82D013A0319B02D053A0319B82DBF2D40
:103B5000013074070339F4008831BF229831BF2D3A
:103B6000FF302200B5009031200036209831BF2D63
:103B700001302200B500903120003620983190317C
:103B80002720983121005B1698312000BD2F850138
:103B900084011F3083057230210099008E150E16A6
:103BA00024001710971097111330920028309500B9
:103BB000941714130C3023009B00A2309E00903009
:103BC0009D0021006014E201E1012F0091019201AA
:103BD000980199019A0123008C018D018F019001B8
:103BE000220092019101940193012000A601A701F6
:103BF00088312A2D983121001E169E161E139E1301
:103C00001D141E109E101E11003023008C00900009
:103C100020308D0000308F003430F80021001D0866
:103C2000833978049D0064008C1720008C1B242E9F
:103C3000F21021006A08083C0319F2146A08083CD3
:103C40000318EA0A272E20002100EA01F2102000C2
:103C50009019362E721121006B08083C0319721559
:103C60006B08083C0318EB0A392E20002100EB01F9
:103C700072115A08003A20000319452E103A031910
:103C80004C2E1F3A03195E2E9E2EF21C4B2E103026
:103C90002100DA002000A12E21009D149D184E2E37
:103CA0001C0CFE00FE0C3F30FE057E08D9000F30D4
:103CB000DA0088312000BF229831A12E5F08670406
:103CC0000F390319872E21009D149D18652E1C0C99
:103CD000FE00FE0C3F30FE0559087E020319842EBB
:103CE000DB177E083F3CEC0074082200C500210071
:103CF0006C082200C60088312000002098318831ED
:103D0000BF2298312100DB137E08D9002000721DEC
:103D1000902E013074070339F4008831BF229831A6
:103D2000F21C9A2E9019972E80311C269831210072
:103D3000DA0120008831E72D9831A12E2100DA0127
:103D400020006400721CA92E002880310F259831B4
:103D50007210640021005B1CB32E90312000AD2D49
:103D6000983121005B10721EFE2E903120009F269C
:103D7000983121005E085F04031DC32E2000E60871
:103D8000031DC92E21005E080319DF03DE03DD2EAB
:103D90002000DF080319DE2E2200B4018831200044
:103DA000C123983102302300910005309200803108
:103DB0002000292598312100DB162000F308031983
:103DC000E32EF303EC2E21005B1FED2E2200C60133
:103DD000883120001325983121006400DC08031984
:103DE000F32EDC03FD2E3B30DC00DD080319FA2E38
:103DF000DD03FD2E72171D30DD007212721F1C2FA5
:103E00002000640803390319192F64080139031DC0
:103E1000162F640802390319192F640EF7000F30AA
:103E2000F70577080F396005031D192F9031DA2047
:103E30009831721364002100F21D262F2000302CCF
:103E400090319F269831F21164002100DB1DB92FBB
:103E5000EC01ED0120308500743084006C0884078B
:103E60000030853D6D08803120008421983180002C
:103E700000380319402F2100ED0AEC0A2A2F2000F8
:103E80000B3023009100053092008031200029255D
:103E900098312100E3016308093C031C972F62302D
:103EA00063078400203085000318850A001E942FC4
:103EB000623063078400203085000318850A0008FB
:103EC0000F39E4002030E2009530E1006408220060
:103ED000D0001830D10088312000362298312030AF
:103EE0002200D60080312000F027983120302200B7
:103EF000B0007430AF002030B2009530B100903186
:103F000020006626983120306400111E842F230083
:103F10009A00210064082200D6001B30D7008031AF
:103F200020007527983121006400E30A4B2F0A30E6
:103F300064002000111A9E2F2100982F23009A0060
:103F40000D3064002000111AA72F2300A12F230099
:103F50009A002100DB11DB1602302200D000203055
:103F6000D2007430D10088312000D2219831640011
:103F700021005B1DC02F2000F72C21005B11640085
:103F80005B1EC82F90312000DF2F983121005B127B
:103F9000DB1ED12F90312000C22098312100DB128E
:063FA0006400132E630013
:0A3FB600AA346A345A3456345534E4
:103FC00055349534A534A934AA34603495349934E1
:103FD000943440345934A434553450346A349834C9
:103FE0006534A0349034A8346934A634643454342D
:103FF000803458345634683496349A34A5340034B6
:020000040001F9
:04000E00BC0FFF1E06
:00000001FF
;PIC16F1937
;CRC=3DAF  CREATED="10-Jan-21 12:05"
