:060000009031F52E000016
:0800080083018A012000770842
:10001000A0007808A1007908A2007A08A3007B0854
:10002000A4008B1D15280B182B288B1E19280B19C3
:100030002D28850191308400801E2028911A2F28B8
:100040002008F7002108F8002208F9002308FA0028
:100050002408FB0009008031F92A8031632B8031AC
:10006000822A0B000234033406340A340B00603455
:100070006134623463340B00643465348034813419
:100080000B00713475348234FB0000307A078A002B
:100090007B084D3E03188A0A820045344E342034D2
:1000A00020340034003450344F344C3400340034A5
:1000B0000034523431344734313400340034523453
:1000C000313447343234003400345234313447341C
:1000D000333400340034523431344734343400344F
:1000E0000034523432344734313400340034523422
:1000F00032344734323400340034523432344734EA
:10010000333400340034523432344734343400341D
:1001100000345234333447343134003400345234F0
:1001200033344734323400340034523433344734B7
:1001300033340034003452343334473434340034EC
:1001400000345234343447343134003400345234BF
:100150003434473432340034003452343434473485
:1001600033340034003452343434473434340034BB
:1001700000345834493431340034003400345834B5
:100180004934323400340034003458344934333480
:1001900000340034003458344F34313400340034E7
:1001A000003458344F34323400340034003458347E
:1001B0004F3433340034003400345234313450344A
:1001C00000340034003452343234503400340034BB
:1001D0000034523433345034003400340034523458
:1001E0003434503400340034003452343134503418
:1001F000543454340034523432345034543454343B
:10020000003452343334503454345434003452347F
:100210003434503454345434003453344934443432
:100220000034003400344D34523453344C340034F0
:1002300000344D34523453343134003400344D34AE
:10024000523453343234003400344D345234533445
:100250003334003400344D345234533434340034A5
:1002600000344D34523453343534003400344D347A
:100270005234533436340034003443344F3452341F
:10028000003400340034433450344F345434003498
:10029000003458344F34503431340034003458343E
:1002A0004F34503432340034003458344F345034E6
:1002B0003334003400345834413452344734313408
:1002C00000345834413452344734323400345834D2
:1002D000413452344734333400340B003734203443
:1002E0000F340134383420340F3401340C342034CA
:1002F000203401340D342034203401340E342034C1
:10030000203401340F3420342034013410342034AC
:100310002034013411342034203401341234203498
:100320002034013413342034203401341434203484
:100330002034013415342034203401341634203470
:10034000203401341734203420340134183420345C
:100350002034013419342034203401341A34203448
:10036000203401341B342034203401341C34203434
:10037000013401341D342034023401341E3420345D
:10038000033401341F342034043401342034203445
:10039000053401342134203406340134223420342D
:1003A000013401342334203405340134243420341E
:1003B0000534013425342034033401342634203408
:1003C0000E340134273420340D34013428342034E1
:1003D0000B340134293420340734013439342034C7
:1003E000323401343B342034013401342A34203493
:1003F0001F3401342B3420340E3401342C34203497
:10040000023401342D3420341B3401342E34203492
:100410000E3401342F342034113401343A34203472
:10042000003400347234003400340034303420346A
:100430000034013431342034003401343234203477
:100440000034013433342034003401343434203463
:100450000034013435342034003401340B00653469
:100460006534703472346F346D3400340B0064348E
:1004700065346634613475346C34743400340B0084
:1004800020343B340D3400340B0073346534743441
:1004900000340B00533441345634453400340B00DF
:1004A00052344534533454344F3452344534003488
:1004B0000B00733474346134743475347334003421
:1004C0000B007234653462346F346F34743400342A
:1004D0000B00643474346D34663400340B006D34B6
:1004E0006F3472347334653400340B002B340034B1
:1004F0000B002D3400346400111E7B2A23009A0067
:1005000020000800911EDA2A6400911E842A23002C
:1005100019082200C7004708083C031DB62A20001E
:10052000EF080319B12AEF033F306F078400203032
:1005300085000318850A800108307B221B307B224E
:100540005B306400111EA12A23009A004B30640026
:100550002000111AAD2A2300A72A23009A00B42AEA
:10056000200007307B222300DC2A220020006F08B5
:100570000F3C031CD82A2200470820007B226F086A
:10058000EF0A3F3E8400203085000318850A2200D0
:100590004708800047080D3C0319D52A47082B3C23
:1005A0000319D52A47082D3C03197114DB2A2000B2
:1005B00007307B2222002300200091128031202866
:1005C0000F3021008F002200CA08031DE92A0F13F3
:1005D000EA2A0F1700000F12000020000F08220067
:1005E000CB000F30CB050F1600004B08F8002000A1
:1005F0000800270016080F3903190F2B2000560892
:100600002200C90020000D0858060F39D6005608F0
:1006100022004902031DF114F030270096050B1C3F
:100620005E2B01302200CA002000E0227808220060
:10063000C800481D5F2BCA012000E0227808220074
:10064000C7007117C708031D282B0A30C7002C2BC1
:1006500047080A3C0319C70147080C3C031D3A2B05
:10066000F11621002E0884002F0885000031801625
:100670005C2B220021002F08203C031C5C2B031D57
:10068000452B2E085D3C031C5C2B2E0884002F0894
:1006900085000031220047080F39F700F0300005CF
:1006A0007704800021002E0884002F088500003187
:1006B0000016AE0A0319AF0A2700161222000B100B
:1006C00080312000202821002008210403196D2BEF
:1006D00020080319A103A003722BF1147115A101C5
:1006E0001E30A0002208230403197A2B22080319C4
:1006F000A303A2030B118031200020285B183B18B4
:1007000048008A06D332743A69376710D0377414B8
:10071000A53A2910F437A01275008A06D3326E323A
:1007200069376710ED37F23965103A10A53A0000C5
:100730008A065039EF31E539F334EE332022D426DE
:100740004610F332F13A6537E3323A008A06201058
:10075000D334F432492220103A10A53A00018A0617
:100760002010C337ED36613764103A10A53A000106
:100770008A0620104139E73AED326E3A3A10A53A2E
:1007800000018A062010D630EC3A651020103A108D
:10079000A53A00008A062310C3275210D037723AB8
:1007A00073103D10A53A3B10D32BA022ED3AEC304C
:1007B000F4326410C32752103A10A53A00005B1AB5
:1007C000B71D331A6D050D296132E93720296538C7
:1007D000E530F4327210C3376E3AF2376C36653951
:1007E000A01620005B1AB71DB3186D2B45194C29B4
:1007F00053005B1AB71D331A6D10A8212910321847
:10080000B1190A050D005B1AB01DB31B6D000A0576
:100810008D214F29201DA0127510A822ED3AEC3031
:10082000F43264103A10A53A29008A06442A4D236E
:10083000A029F430F43A73103A10A53A8A06000160
:100840008A065429C926D027D429201D2000202813
:100850006F3AA812E414BD1264000A058D21CF2658
:10086000CD204E223E1000008A064937693AE93011
:10087000EC34FA34EE332029C126203B6139E930CB
:100880006236E5392033F2376D10C5225029CF2664
:1008900000018A064937693AE930EC34FA34EE331C
:1008A0002029C126203B6139E9306236E539A03B79
:1008B000693A6810E634F236F730F23220326533A6
:1008C000E13A6C3A203B6136F53273008A06D33048
:1008D000F634EE332029C126A0316F37E634E73AEB
:1008E000F230F4346F37A0346E10C5225029CF2671
:1008F0002E008A0620104334E531EB39F536A03658
:10090000E939ED30F43168172029E539F437F2344C
:10091000EE3320326533E13A6C3A203B6136F532F2
:10092000731700008A064937693AE930EC34FA3027
:10093000F4346F37A031EF367036653A65008A06B9
:10094000D332743A69376710A539A812F514203AE2
:100950006F10A53A00008A06442A4D233D0010304E
:100960002100B900B801390838020318C12C3F3002
:1009700038078400203085000318850A8001B80AF2
:10098000B32C2000EF017110FF30F3002100B00103
:10099000F001200008000B082100CE008B1323007B
:1009A000951715140000000013087F3903191B2D3B
:1009B0002100CF00230011082100D00023001208DD
:1009C0002100D1004F0864002000111AE92C2100F9
:1009D000E32C23009A0021005008230091002100FD
:1009E0005108230092009517151400000000130D04
:1009F000140D7F3903191B2D2100CF00230011088E
:100A00002100D000230012082100D1004F0864000B
:100A10002000111A0D2D2100072D23009A0021001E
:100A20005008230091002100510823009200910AF0
:100A30000319920AD02C2100CE1B8B17200008002E
:100A40001B307B225B306400111E232D23009A0093
:100A5000323064002000111A2F2D2300292D23008D
:100A60009A004A3064002000111A382D2300322DDC
:100A700023009A001B3020007B227E30230091004F
:100A8000033092002000CB24080021004E0884008F
:100A90004F0885000008D10051087F3C031CD10A93
:100AA0000310510D093A5007D1004E0884004F0839
:100AB0008500510880002000080001302100C80096
:100AC000C901CB00440B6D2D34302300910004305C
:100AD00092002000CB24742D210049302300910086
:100AE000043092002000CB242100C50145082F3C92
:100AF000031CD32D450DF700F70DFC30F7057708E3
:100B0000CD004D0A20006D21FA0021004D08200083
:100B10006D212100C6007A08C700440BBF2D450D8A
:100B2000F700F70DFC30F7057708033E20006D2134
:100B3000F80078189D2D2100BF2D210049082300C1
:100B400091009513151413082100CC004608840069
:100B5000470885004C0880004708FA0046088400D2
:100B6000470885000008CD002030CF007830CE0047
:100B70004D08D000200045252100C90AD12D450D82
:100B8000F700F70DFC30F7057708023E20006D21D5
:100B9000F8002100CA0046088400470885004A087A
:100BA0008000C50A762D440BDF2D490823009100F3
:100BB00095131514130821004802031DCB014B089F
:100BC000F8002000080001302100C800C501C40160
:100BD00044082F3C031C412E440DF700F70DFC3058
:100BE000F7057708CA004A0A20006D21FA002100A3
:100BF0004A0820006D212100C6007A08C700440D74
:100C0000F700F70DFC30F7057708033E20006D2153
:100C1000F800781C3E2E2100460884004708850015
:100C20000008C90045082300910095131514130806
:100C3000210049020319332E0B08F7008B134508D6
:100C400023009100210049082300930095131515F6
:100C500055309600AA309600951495182D2E151132
:100C600077088B0421002030CF007830CE0049086F
:100C7000D000200045252100C50A20002100C40A1B
:100C8000E82D0B08F7008B13450823009100210085
:100C90004808230093009513151555309600AA3087
:100CA000960095149518522E151177088B0466300E
:100CB0009100043092002000CB240800210043085A
:100CC000C40020005D25F808031D722E7930230032
:100CD0009100043092002000CB242100C4012000A8
:100CE0005D25E3250800003021008F0047104508EE
:100CF0000F390139031D47144718822E22000F10A7
:100D0000842E210022000F142100471045080F39BE
:100D10000239031D47144718912E22008F10932E7D
:100D2000210022008F142100471045080F39043993
:100D3000031D47144718A02E22000F11A22E2100D8
:100D400022000F152100471045080F390839031DEF
:100D500047144718AF2E22008F11B12E2100220018
:100D60008F152100C608031DB92E22000F13BB2EBC
:100D7000210022000F17BC2E8F12BE2E8F16C02E00
:100D80000F3021008F00200008001B307B22DF3055
:100D900023009100033092002000CB241B307B22E3
:100DA000F23023009100033092002000CB241B304E
:100DB0007B22F93023009100033092002000CB24E5
:100DC0001B307B220330230091000430920020006E
:100DD000CB240800240095132000911121004E0817
:100DE000240091000230951BFC2E2000911DF62E50
:100DF00000302400161B0130F800200008000B080A
:100E00002100CF008B13230095171514000000005C
:100E10000318332F13087F392100D0002300110855
:100E20002100D100230012082100D20050086400E4
:100E30002000111A1D2F2100172F23009A002100D6
:100E400051082300910021005208230092009517B9
:100E50001514000000002100CE0B2F2F312F23008E
:100E6000332F582F2300130D140D7F392100D0008C
:100E7000230011082100D100230012082100D20014
:100E8000500864002000111A472F2100412F230031
:100E90009A002100510823009100210052082300EC
:100EA0009200910A0319920A03102100CE0B032F1E
:100EB000CF1B8B172000080021005508F8015402B1
:100EC0000318652F5408F700712FF7010830D6007A
:100ED000D40DF70D550877020318F700F80DD60B5F
:100EE000682F20000800780821004F08D4006430E3
:100EF000D50020005C2777082100CF00780830302B
:100F0000031D892FD01C972FD019972F501A2030EE
:100F10008C2FD01150125014F8077808640020006C
:100F2000111A942F21008E2F23009A0021004F08C0
:100F3000D4000A30D50020005C2777082100CF00BC
:100F400078083030031DAA2FD019B52F501CB52FAB
:100F5000501A2030F807780864002000111AB22FC8
:100F60002100AC2F23009A0021003030CF074F081A
:100F700064002000111ABE2F2100B82F23009A0010
:100F800020000800210047080739F700470CF80047
:100F9000F80CF80C1F30F805780849078400003079
:100FA0004A3D8500F801F80AF70AD72FF80DF70B2C
:100FB000D62FC8080319DF2F78088004E22FF8091C
:100FC000780880052000080010302100D200F701C9
:100FD000FA01CF0CCE0C031CF32F5008F7070318AF
:100FE000FA0A5108FA07FA0CF70CF90CF80CD20BB4
:060FF000E92F20000800BB
:101000002100490ECB00CB0DCB0DC030CB054A08DB
:101010003F39CB072400161416180C285030210035
:10102000CE0080312000EA26883121004B08CE0016
:1010300080312000EA2688312400161516191E2852
:101040008130230091000330920003100E30210004
:10105000CE0080312000FF26883121004908CF00D2
:101060001B30D00080312000732788318930230065
:10107000910003309200031005302100CE00803132
:101080002000FF26883121004A08CF001B30D00005
:101090008031200073278831080021003F0820009C
:1010A000DD002100BF080319632801303F02263EFE
:1010B0008400203085000318850A000820005705A9
:1010C0002100C4006428C4010130C300C0014008ED
:1010D000033C031CCC28BF08031D71284510C51014
:1010E0008428013040073F02031D7C284514430833
:1010F0002000DC007E282100451020002100C510C2
:1011000044084305031DC5144008803120003620E3
:1011100088312100C600003045180130F70046082C
:10112000C7007708C8000130CA00C901803120001B
:10113000C227883121004608C700C801CA01803093
:10114000C90080312000C227883121004008803149
:1011500020003B2088312100C6000030C518013036
:10116000F7004608C7007708C8000130CA00C90167
:1011700080312000C227883121004608C700C801FD
:10118000CA018030C90080312000C2278831031095
:101190002100C30DC00A6728BF08031DD328200003
:1011A000DE01FF28210001303F02223E8400203072
:1011B00085000318850A00082000DE002100C10117
:1011C0004108033C031CFE2801303F02F700F70DE5
:1011D000F70DFC30F705770841070C3E84002030FE
:1011E00085000318850A0008C2004108C9004208AA
:1011F000CA00200000202100C10AE0287E1420003F
:1012000008008031AF2488312200920191019401BD
:10121000930117302100970024008D012000D60192
:10122000F601F501DC01DE01DD01F201FF306600AF
:10123000003021008F0010109010101190159116A1
:101240008B150F302700940495048B151516141276
:10125000C0308B0422008F138F160F160F138031AE
:1012600020002025883101302100C300803120007A
:101270005E26883122000F168F160F132100C5013C
:101280000130C60080312000732688312100C5015D
:101290000130C60080312000732688310C302100D7
:1012A000C5000130C600803120007326883101302E
:1012B0002100C500C6008031200073268831A501B9
:1012C0008B1BA5178B1301302200CA008031200030
:1012D000E0228831A51B8B17F1178031C526883194
:1012E0009D3067002100C901CA01200000200130A3
:1012F0002100C900CA012000002002302100C900DD
:10130000CA012000002003302100C900CA012000CA
:1013100000202100A1013C30A0001508C039073889
:1013200095008B16BF0120004D20923023009100C4
:101330000430920080312000CB2488311E30FD0023
:101340003C30FC007112F1117E149031242F2100E9
:101350005B085C040319B0295C08FA005B08B52936
:1013600020002708FA0026082100DF007A08E000A4
:101370006008E4005F08E3005E08E6005D08E50041
:101380006408E8006308E7006808FA00670884005A
:101390007A08850080080319FE296608EA006508B6
:1013A000E9006A08FA00690884007A088500800864
:1013B000031DE42963086702F7006408683BFA002C
:1013C0007708F800062AF6296808FA0067088400FA
:1013D0007A0885000008EB006A08FA0069088400B2
:1013E0007A08850000086B020319FA29E90A031933
:1013F000EA0AD129E70A0319E80AC429630867023F
:10140000F7006408683BFA007708F8007808DF07FF
:101410000030E03D6008FA005F0884007A0885002B
:101420008008031D1F2A2000260884002708850045
:10143000203080000030F800F900842A2100600884
:10144000E4005F08E3005E08E6005D08E50064086C
:10145000E8006308E7006808FA00670884007A0873
:10146000850080080319602A6608EA006508E9001B
:101470006A08FA00690884007A0885008008031960
:101480005C2A6808FA00670884007A08850000086A
:10149000EB006A08FA00690884007A0885000008F1
:1014A0006B02031D582A6708F8006808F900632AD0
:1014B000E90A0319EA0A382AE70A0319E80A2B2A73
:1014C0000030F800F9007908E2007808E1006208CD
:1014D000FA00610884007A08850080080319782AD8
:1014E00061088400620885008001E10A0319E20AAC
:1014F00062082000A700210061082000A60021004A
:101500005F08F8006008F900200008002200400889
:10151000C3003F08C5003E08C400C208031D942A4A
:101520004108003C0318AB2A4508FA00440884002F
:101530007A08850043080002031DA32A4408F80026
:101540004508F900AE2AC40A0319C50A410803195F
:10155000C203C1038D2A0030F800F9002000080002
:101560002100E701E6013030E9003130EA00323095
:10157000EB003330EC003430ED003530EE00363027
:10158000EF0037302200A0003830A1003930A2002F
:101590006130A3006230A4006330A5006430A6006F
:1015A0006530A7006630A8006730A9006830AA003F
:1015B0006930AB006A30AC006B30AD006C30AE000F
:1015C0006D30AF006E30B0006F30B1007030B200DF
:1015D0007130B3007330B4007430B5007530B600AC
:1015E0007630B7007730B8007830B9007930BA007B
:1015F0007A30BB00BC0121005C08E1005B08E00020
:101600006108FA00600884007A0885000008203C20
:10161000031D0E2BE00A0319E10A002B6108FA00F2
:10162000600884006108850000082D3C0319222B06
:101630006108FA00600884006108850000082B3CFE
:10164000031D2D2B6108FA006008E00A0319E10A66
:1016500084007A08850000082E2B2B30E8006808EB
:101660002D3C03193E2BDF1B3E2B5F0B382B3E2BF3
:10167000DF1B402B5F08243C0318402B962CCC2BFF
:10168000DF080319952B5F08103C031D672B6108C9
:10169000FA00600884007A0885000008303C031DC9
:1016A000672B600884006108850001310008783CE0
:1016B0000319632B6008840061088500013100086C
:1016C000583C031D672B0230E0070030E13D5F0806
:1016D000083C031D792B6108FA00600884007A0831
:1016E00085000008303C031D792B0130E0070030F5
:1016F000E13D5F08023C031D942B6108FA0060087D
:1017000084007A0885000008303C031D942B600893
:1017100084006108850001310008623C031D942BA0
:101720000230E0070030E13DCC2B6108FA00600890
:1017300084007A0885000008303C0319A22B0A3087
:10174000DF00CC2B600884006108850001310008AF
:10175000783C0319B42B60088400610885000131CE
:101760000008583C031DBB2B1030DF000230E0079F
:101770000030E13DCC2B6008840061088500013118
:101780000008623C031DCA2B0230DF00E007003076
:10179000E13DCC2B0830DF006108E3006008E20087
:1017A0006108FA00600884007A0885000008303C6F
:1017B000031DDE2BE00A0319E10AD02B6108FA00B1
:1017C000600884006108850000082200BD00403CDC
:1017D0000318F12B3D085A3C031CF12B3D0820381F
:1017E000F22B3D08BD002030BF009930BE003D08FF
:1017F000C000C20121005F082200C1002000862233
:1018000079082100E5007808E400E408031D0B2CAA
:10181000E50803198E2CFA015F08F700F71BFA039D
:101820002200BD007A08BE00210067082200C00027
:10183000210066082200BF003E08C2003D08C1002A
:10184000400842068039C400C01F2B2CBF09C009C4
:10185000BF0A0319C00AC21F322CC109C209C10A3A
:101860000319C20A1030C300F701FA01C00CBF0C03
:10187000031C402C4108F7070318FA0A4208FA072C
:10188000FA0CF70CF90CF80CC30B362CC41F4D2CBA
:10189000F809F909F80A0319F90A7908BE00780865
:1018A000BD00993021006402F7002030653BFA004A
:1018B000770822003D07F8003E08FA3D780821002D
:1018C000E6007A08E700E00A0319E10A6108FA0075
:1018D000600884006108850000082200BD00403CCB
:1018E0000318792C3D085A3C031C792C3D082038FC
:1018F0007A2C3D08BD002030BF009930BE003D0865
:10190000C000C20121005F082200C1002000862221
:1019100079082100E5007808E400052C60086202DF
:10192000031DA62C61086302031DA62C5D085E043E
:101930000319A22C5D0884005E0885005B08800006
:101940005C08813F0030F800F900B62C5D085E04A9
:101950000319B22C5D0884005E08850060088000D1
:101960006108813F6608F8006708F9002000080058
:1019700021005C08FA005B0884007A0885000008F2
:10198000DF005E08FA005D0884007A088500000820
:101990005F020319212D5C08FA005B0884007A08B5
:1019A00085000008DF005F08403C0318DB2C5F085F
:1019B0005A3C0318E32C5F08603C0318372D5F087E
:1019C0007A3C031C372D5E08FA005D0884007A0813
:1019D00085000008DF005F08403C0318F32C5F0817
:1019E0005A3C0318FB2C5F08603C0318372D5F0836
:1019F0007A3C031C372D5C08FA005B0884007A08E7
:101A000085000008DF005E08FA005D0884007A089F
:101A10008500203000075F020319212D5E08FA00BF
:101A20005D0884007A0885000008DF005C08FA0081
:101A30005B0884007A088500203000075F02031DE0
:101A4000372D5C08FA005B0884007A08850080085E
:101A5000031D2D2D0030F8004D2D5C08FA005B08A9
:101A6000DB0A0319DC0ADD0A0319DE0AB92C5C085B
:101A7000FA005B0884005C0885000008DF005E084F
:101A8000FA005D0884005E08850000085F02031804
:101A90004B2DFF304C2D0130F8002000080080084D
:101AA0000319682D05082100D0000408CF000008A4
:101AB00064002000111A5E2D2100582D23009A0089
:101AC0002100500885004F088400013120004F2D6F
:101AD0000800DD0803199B2D01305D02F700F70DAA
:101AE000F70DFC30F705770872070C3EF800203040
:101AF000FA000318FA0A78082100C5007A08C6001F
:101B000045088400460885000008C7004508840091
:101B1000460885004408470780004608FA00450843
:101B20008400460885000008C8007208C9004808FB
:101B3000CA00200000200800203021004F1E303055
:101B4000D0004E08F700CE1FAD2DF709F70A770831
:101B5000CE002D30D000CF174F144E08D400643083
:101B6000D500803120005C27883177082100CE0025
:101B700030307807D1004E08D4000A30D5008031CB
:101B800020005C278831303077072100D3003030C7
:101B90007807D2005008F700303051020319D42DD5
:101BA000CF14CF1B4F15E82D5008D1002030D000A6
:101BB000303052020319E02D4F14CF1BCF14E82D03
:101BC000031D4F14031DE82D5108D2002030D10011
:101BD0004F19EF2DCF18F92D4F18032E0D2E500849
:101BE00064002000111AF62D2100F02D23009A0028
:101BF0002100510864002000111A002E2100FA2D46
:101C000023009A002100520864002000111A0A2EB5
:101C10002100042E23009A002100530864002000B4
:101C2000111A142E21000E2E23009A002000080005
:101C300001302100C500C6018031200073268831A3
:101C40000C302100C5000130C60080312000732611
:101C5000883105302100C5000130C60080312000E8
:101C60007326883105302100C5000130C60080315F
:101C70002000732688315B08033980313120883198
:101C8000F800FA0178082100A2007A08A3002208CF
:101C9000230403194D2E0000472E0430C5000130E7
:101CA000C60080312000732688310800F701F80152
:101CB0002100450803104618F707F70CF80CC61862
:101CC000F707F70CF80C4619F707F70CF80CC619CC
:101CD000F707F70CF80C461AF707F70CF80CC61ABA
:101CE000F707F70CF80C461BF707F70CF80CC61BA8
:101CF000F707F70CF80C2000080001302100C500A0
:101D0000C60180312000732688310C302100C500C7
:101D10000130C60080312000732688310530210053
:101D2000C5000130C600803120007326883105309F
:101D30002100C5000130C6008031200073268831A3
:101D40005B080339803131208831F80003302100ED
:101D5000C5007808C600200056262100A301780897
:101D6000A200220823040319B72E0000B12E04306C
:101D7000C5000130C600803120007326883108007C
:101D8000DC3021004207C5001F30C6000318C60A18
:101D900046082300920021004508230091002030CE
:101DA00085007330840001302100C7004708F70028
:101DB000031023009517151400000000130880007D
:101DC000840A910A0319920AF70BDB2E8D309100D9
:101DD00003309200031012302100CE008031200029
:101DE000FF26883121004208CF001B30D00080310F
:101DF0002000732788317E142100C4014408033C6D
:101E0000031C2A2F4308C039403A200003190C2F25
:101E1000C03A03190E2F102F1826102F7D26102FD1
:101E20002100C30DC30DFC30C30520005B0803393E
:101E3000803131208831F800FA0178082100A200B1
:101E40007A08A300220823040319282F0000222F58
:101E5000C40AFE2E4208093C031C392F4208043CE8
:101E6000031C362F20007D26382F21002000182645
:101E7000210020005B080339803131208831F800CF
:101E800003302100C5007808C60020005626210036
:101E9000A3017808A200220823040319512F00008F
:101EA0004B2F200008002100B8013808053C031C16
:101EB0007F2F2A3038078400203085000318850AD8
:101EC0000008B9003908C2002000C0265B080339A9
:101ED000803131208831F80007302100C5007808B2
:101EE000C600200056262100A3017808A20022087F
:101EF000230403197D2F0000772FB80A552F903146
:101F00002000442F2100B8013808093C031C922FFF
:101F1000543038078400203085000318850A80017A
:101F2000B80A842F2030AF005430AE00903120002A
:101F3000A22F2D3023009100043092008031200028
:081F4000CB2488319031A82F59
:1020000002307002F63E0318B22A0A3EB32A740860
:10201000FF3C031D31280A306400111E0C282300E8
:102020009A000D3064002000111A1828230012288D
:1020300023009A00850173088400883120004F2511
:10204000903120306400111E222823009A00740869
:102050002100CF001B30D000803120007327903149
:10206000AA28730DF700F70DFC30F705770821005B
:10207000C400440A803120006D219031FA00210013
:102080004408803120006D2190312100C2007A087F
:10209000C300420884004308850074088000730868
:1020A000F5000130F6009F302300910004309200CB
:1020B00003100A302100CE0080312000FF2690312D
:1020C000203085006030840088314F2590312830E1
:1020D0006400111E682823009A0073082100CF00B5
:1020E0001B30D0008031200073279031A6302300B0
:1020F000910004309200031405302100CE0080319D
:102100002000FF26903174082100CF001B30D00042
:102110008031200073279031210043081F3C0318B1
:10212000A828FF3A031D982842080B3C0318A8284A
:102130004308203C031CA828031DA22842081B3C7E
:10214000031CA828C4018831200069259031210092
:102150007E142000B22A730DF700F70DFC30F7054E
:1021600077082100C200420A803120006D219031A1
:10217000FA0021004208803120006D2190312100B9
:10218000BF007A08C0007308F5000130F600200097
:10219000B22A8031E3259031B22A740BD328210072
:1021A0004114D52820002100411000304118013091
:1021B000C200C300803120005E269031B22A013077
:1021C0002100C40088312000692590317E14B22A94
:1021D000FF302100C40088312000692590317E1431
:1021E000B22A8031202590318031C5269031A50159
:1021F0008B1BA5178B1301302200CA0080312000F1
:10220000E0229031A51B8B1778082100C700C2017E
:1022100042082F3C031CA029CF014208CE00D10167
:102220000630D00080312000E42790317908FA0090
:1022300078082100CE007908CF00D0014E08D100E7
:102240002030850078308400500884070030853DB8
:10225000510880312000442090318000003803195B
:1022600036292100D10AD00A202920002100420D60
:10227000F700F70DFC30F7057708CE004E0A8031E5
:1022800020006D219031FA0021004E08803120009D
:102290006D2190312100C5007A08C6004608FA0079
:1022A00045088400460885000008CE005B306400C5
:1022B0002000111A5D292100572923009A002100CE
:1022C0004208CF000130D0008031200073279031C8
:1022D0005D306400111E692923009A0020306400DB
:1022E0002000111A752923006F2923009A0020303D
:1022F000850078308400883120004F2590312030CF
:102300006400111E802923009A0021004E08CF008E
:102310001B30D00080312000732790310A306400D8
:10232000111E8F2923009A000D3064002000111A1D
:102330009B292300952923009A002100C20A08291D
:10234000073023009100043092000310093021006F
:10235000CE0080312000FF26903156082100CF00AA
:102360001B30D00080312000732790310C302300C7
:1023700091000430920003140D302100CE00803112
:102380002000FF2690315A082100CF001B30D000DA
:10239000803120007327903129306400111ECD292F
:1023A00023009A0015309100043092000310103081
:1023B0002100CE0080312000FF2690312100470807
:1023C000CF001B30D00080312000732790310A30BD
:1023D0006400111EE82923009A000D3064002000DB
:1023E000111AF4292300EE2923009A0020309100CD
:1023F0000430920080312000CB2490312400161448
:102400001618002A51302100CE0080312000EA2623
:1024100090312100C2014208033C031C5D2A42089E
:10242000033C031D152AC301172A0130C3004308CA
:10243000F70024001513961596191C2A7718961282
:10244000771C96161616161A232A1108F800780813
:102450002100C4003F30C405273023009100043020
:102460009200031005302100CE0080312000FF26AD
:10247000903121004208CE001830CF008831200072
:102480009C25903129306400111E432A23009A00B4
:102490003D3064002000111A4F2A2300492A2300EE
:1024A0009A0021004408CE001830CF008831200067
:1024B0009C2590312100C20A0B2A240016151619FA
:1024C0005F2A7E142000B22A0100B22A74080A3C56
:1024D000031D6C2AF401712AF408031D712A0A30C5
:1024E000F40074080F392100C2004208C3004308F9
:1024F000C500C60180312000732690310C302100C8
:10250000C5000130C60080312000732690310130B3
:102510002100C500C60080312000732690310530AF
:102520002100C5000130C6008031200073269031A3
:102530002100A3011030A200220823040319A22ABB
:1025400000009C2A0430C5000130C6008031200004
:1025500073269031B22A74082100C200883120000D
:10256000C026903108000A108A140A118207072831
:10257000AB28C928CD28DF28E828F128642A662A54
:10258000AB2A2100DB01DC01203085006F308400A4
:102590005B0884070030853D5C08803120003F22C5
:1025A0009031800000380319DA2A2100DC0ADB0AA6
:1025B000C42A200020302100DC003F30DB00203026
:1025C000DE006F30DD0088312000A72190317908CE
:1025D0002100DA007808D900D908031DF22ADA08A8
:1025E00003190C2B5A08DE005908DD002030DC00EE
:1025F0007B30DB005E0885005D0884000008DF009A
:102600005C0885005B0884005F088000800803196F
:102610000C2BDB0ADD0AFA2ADC01DB012030DE00AC
:102620006F30DD0088312000A7219031790821002A
:10263000DA007808D900D908031D212BDA0803191C
:102640003B2B5A08DE005908DD002030DC006030EA
:10265000DB005E0885005D0884000008DF005C0880
:1026600085005B0884005F088000800803193B2B0D
:10267000DB0ADD0A292BDC01DB012030DE006F30B4
:10268000DD0088312000A721903179082100DA008F
:102690007808D900D908031D502BDA0803197A2BC2
:1026A0005A08DE005908DD002030DC007730DB00FE
:1026B0005E0885005D0884000008DF005C08850076
:1026C0005B0884005F088000800803196A2BDB0A1E
:1026D000DD0A582B2030DC007730DB00DE01DD0125
:1026E0000A30DF0088312000B02290317808F400F1
:1026F0007D2B2100FF30F40020002100DB01DC01F4
:1027000020308500833084005B0884070030853DDD
:102710005C08803120004422903180000038031989
:10272000962B2100DC0ADB0A802B200020302100C0
:10273000DC008330DB002030DE007B30DD008831C0
:102740002000B8249031F808031DAF2B7408FF3C1B
:10275000031DAD2B0330F000AF2B0230F000210041
:10276000DB01DC0120308500833084005B088407B6
:102770000030853D5C088031200049229031800086
:1027800000380319C82B2100DC0ADB0AB22B200019
:1027900020302100DC008330DB002030DE007B3085
:1027A000DD0088312000B8249031F808031DDA2BB1
:1027B0000430F0002100DB01DC0120308500833093
:1027C00084005B0884070030853D5C088031200070
:1027D0004F229031800000380319F32B2100DC0ACE
:1027E000DB0ADD2B200020302100DC008330DB0001
:1027F0002030DE007B30DD0088312000B8249031AD
:10280000F808031D052C0530F0002100DB01DC0178
:1028100020308500833084005B0884070030853DCC
:102820005C08803120005822903180000038031964
:102830001E2C2100DC0ADB0A082C2000203021009D
:10284000DC008330DB002030DE007B30DD008831AF
:102850002000B8249031F808031D302C0830F00017
:102860002100DB01DC0120308500833084005B081F
:1028700084070030853D5C08803120006022903163
:10288000800000380319492C2100DC0ADB0A332CB4
:10289000200020302100DC008330DB002030DE000F
:1028A0007B30DD0088312000B8249031F808031D0A
:1028B0005B2C0930F0002100DB01DC0120308500B9
:1028C000833084005B0884070030853D5C088031DC
:1028D000200068229031800000380319742C2100F8
:1028E000DC0ADB0A5E2C200020302100DC00833073
:1028F000DB002030DE007B30DD0088312000B82492
:102900009031F808031D862C0A30F0002100DB010D
:10291000DC0120308500833084005B0884070030B0
:10292000853D5C08803120006E22903180000038A7
:1029300003199F2C2100DC0ADB0A892C200020309F
:102940002100DC008330DB002030DE007B30DD0046
:1029500088312000B8249031F808031DB12C0B30C9
:10296000F0002100DB01DC01203085008330840091
:102970005B0884070030853D5C08803120007522AB
:102980009031800000380319CA2C2100DC0ADB0AD0
:10299000B42C200020302100DC008330DB0020300C
:1029A000DE007B30DD0088312000B8249031F8084B
:1029B000031DDC2C0630F0002100DB01DC0120309F
:1029C0008500833084005B0884070030853D5C0807
:1029D0008031200078229031800000380319F52CD6
:1029E0002100DC0ADB0ADF2C200020302100DC0083
:1029F0008330DB002030DE007B30DD0088312000BA
:102A0000B8249031F808031D072D0730F000FF307F
:102A1000F3002100B80138082F3C031C502DCF01D2
:102A20003808CE00D1010630D00080312000E427E4
:102A300090317908FA0078082100BF007908C000B9
:102A4000C1013F08C2002030850069308400410880
:102A500084070030853D42088031200044209031B9
:102A6000800000380319392D2100C20AC10A232D24
:102A7000200020302100DC006030DB002030DE0050
:102A80006930DD0088312000B8249031F808031D3A
:102A90004D2D21003808F30020002100B80A0B2D2D
:102AA0007308FF3C031DB72D2030DC006030DB00D5
:102AB000DE01DD010A30DF0088312000B0229031D4
:102AC0007808F4002100BF01C00120308500693082
:102AD00084003F0884070030853D40088031200095
:102AE0002E2290318000003803197B2D2100C00A6E
:102AF000BF0A652D200020302100DC006030DB00A3
:102B00002030DE006930DD0088312000B8249031AB
:102B1000F808031D8D2D0130F4002100BF01C00114
:102B200020308500693084003F0884070030853DEF
:102B3000400880312000362290318000003803198F
:102B4000A62D2100C00ABF0A902D200020302100B0
:102B5000DC006030DB002030DE006930DD008831D1
:102B60002000B8249031F8080319F4012100200056
:102B700000209031292F2100B8013808023C031CA5
:102B80006A2E303038078400203085000318850A0B
:102B900000080F39B9003330380784002030850031
:102BA0000318850A00080F39BB003908BE003B082E
:102BB000BF003808C0000130C1004008F800031908
:102BC000E42DC135F80BE12D3E1EFA2D3E080F39DC
:102BD000C2001F3042078400203085000318850A98
:102BE0002000560821003F05031DF82D0030F92D67
:102BF000013080003D101F303807840020308500F0
:102C00000318850A800803193D1438088031200014
:102C1000402090312100BE0000303D180130F70007
:102C20003E08C7007708C8000130CA00C9018031DA
:102C30002000C227903121003E08C700C801CA0108
:102C40008030C90080312000C2279031303021000F
:102C500038078400203085000318850A0008F03901
:102C6000F700770EBA000F30BA053330380784000A
:102C7000203085000318850A0008F039F700770E28
:102C8000BC000F30BC053A08BE003C08BF00380845
:102C9000C0000130C1004008F8000319522EC135B0
:102CA000F80B4F2E3E08103A2000031D672E21001E
:102CB0003F0841050319622E3F0841052000D70453
:102CC000672E21003F084105FF3A2000D70521006B
:102CD000B80ABD2D90312000302F2100B8010130FD
:102CE000B900BD0120005A080F3956042100BC006C
:102CF0002000DE080319882E21003C0820005C0516
:102D0000031D882EDE01DC0101302100BD00200002
:102D10002100BA01BE013E08033C031CB72E3C084B
:102D200039050319B12E2000570821003905031970
:102D3000A32E22303E078400203085000318850A28
:102D40000008BB00A42EBB013B0820005E02031854
:102D5000B22E21003B08B80001303E07BA00013016
:102D6000BD00200003102100B90DBE0A8B2EBD0846
:102D70000319EF2ECA302300910003309200031094
:102D800010302100CE0080312000FF2690315608FF
:102D90002100CF001B30D0008031200073279031FC
:102DA000D33023009100033092000310143021002F
:102DB000CE0080312000FF2690315A082100CF003C
:102DC0001B30D000803120007327903121003A0859
:102DD000BF00883120004D2090317E142100BC08B6
:102DE0000319F11790312000492F850184011F300C
:102DF00083057230210099008E150E1624001710DD
:102E000097109711133092002830950094171413DF
:102E10000C3023009B00A2309E0090309D002F00BC
:102E200091019201980199019A0123008C018D0171
:102E30008F019001220092019101940193012000E1
:102E4000A601A7018831012990316400711C2D2F42
:102E5000C12A8031AF2490317110711D402FBB2DDC
:102E6000FC080319352FFC033F2F3C30FC00FD0804
:102E700003193C2FFD033F2F71161E30FD00711109
:102E8000711E462F8831532F90317112F11C4A2F39
:102E90006D2EF110711F982FAB302300910004307C
:102EA000920080312000CB2490312100B6013608F9
:102EB000093C031C832F54303607840020308500E2
:102EC0000318850A001E812F5430360784002030F5
:102ED00085000318850A00080F39B7002030640008
:102EE0002000111A752F21006F2F23009A00210056
:102EF0003708CF001B30D00080312000732790317D
:102F00002100B60A572F0A3064002000111A8A2FB8
:102F10002100842F23009A000D3064002000111A34
:102F2000932F23008D2F23009A0071137E1420000D
:102F3000F11E9E2F983100289031F112F11FA42F1D
:102F40008831822F9031F1137E1CAA2F8831992F5E
:082F500090317E10252F630073
:10300000F401F0012100BA010530BB003A083B028F
:10301000031C2F283A08093C031C2F283E143A08A9
:10302000BD003D083B02031C2E2854303D078400A0
:10303000203085000318850A00080F39BC00543081
:103040003D078400203085000318850A001E3E10CD
:103050003C080C3C03193E10BD0A112830283E10D4
:1030600000303E180130F800F8080319222924081E
:103070000F39BB00C5000A30C60088312000562633
:10308000983178082100BA0025080F393A07B800AE
:1030900026080F39BB00C5000A30C6008831200061
:1030A0005626983178082100BA0027080F393A07C8
:1030B000F00028080F39BB00C5000A30C60088316F
:1030C00020005626983178082100BA0029080F39C7
:1030D0003A07F3000630B9003908BA003A080A3C4A
:1030E000031C8C2854303A078400203085000318D4
:1030F000850A001E8A2854303A0784002030850053
:103100000318850A00080F390C3C03198A2801307E
:10311000BB008B28BB018D28BB013B08F800F808D9
:103120000319AA287408C5000A30C6008831200097
:103130005626983178082100BA00543039078400A7
:10314000203085000318850A00080F393A07F4007B
:10315000B90A6C2870080A3A20000319B5280E3AFB
:103160000319B528013A031DB7287308F4009830F5
:10317000230091000330920080312000CB2498314D
:10318000A630230091000330920003100E3021007E
:10319000CE0080312000FF26983121003808CF0072
:1031A0001B30D0008031200073279831AF302300CE
:1031B00091000330920003100E302100CE008031C8
:1031C0002000FF26983170082100CF001B30D0006E
:1031D0008031200073279831B830230091000330EC
:1031E000920003100E302100CE0080312000FF2617
:1031F000983173082100CF001B30D00080312000AF
:1032000073279831C13023009100033092000310DE
:103210000E302100CE0080312000FF269831740846
:103220002100CF001B30D00080312000732798315F
:10323000590821003802031D222990312000002066
:0C32400098312100F117903120009C2FE4
:083FB800AA346A345A3456346D
:103FC000553455349534A534A934AA346034953425
:103FD0009934943440345934A434553450346A34C8
:103FE00098346534A0349034A8346934A6346434E9
:103FF0005434803458345634683496349A34A53462
:020000040001F9
:04000E00FC0FFF1EC6
:00000001FF
;PIC16LF1937
;CRC=7FBA  CREATED="27-May-13 17:23"
