:060000008831E22A000035
:0800080083018A012000770842
:10001000A0007808A1007908A2007A08A3008B1D2F
:1000200013280B182328850191308400801E1A287C
:10003000911A25282008F7002108F8002208F90065
:100040002308FA0009008031052A8031A4290B0019
:1000500060346134623463340B006434653480345A
:1000600081340B0050344F344C34003400340034AD
:100070005234303447343034003400345234303465
:10008000473431340034003452343034473432345D
:1000900000340034523430344734333400340034C4
:1000A0005234313447343034003400345234313433
:1000B000473431340034003452343134473432342C
:1000C0000034003452343134473433340034003493
:1000D0005234323447343034003400345234323401
:1000E00047343134003400345234323447343234FB
:1000F0000034003452343234473433340034003462
:1001000052343334473430340034003452343334CE
:1001100047343134003400345234333447343234C9
:100120000034003452343334473433340034003430
:1001300058344934303400340034003458344934AD
:10014000313400340034003458344934323400340B
:100150000034003458344F34303400340034003428
:1001600058344F34313400340034003458344F3470
:1001700032340034003400344334303450340034EA
:10018000003400344334313450340034003400340B
:100190004334323450340034003400344334333484
:1001A0005034003400340034523430345034543439
:1001B00054340034523431345034543454340034D0
:1001C000523432345034543454340034523433348E
:1001D00050345434543400340B00373420340F344A
:1001E000013438342034203401343934203420347C
:1001F00001343A342034203401343B342034203468
:1002000001343C342034203401343D342034203453
:1002100001343E342034203401343F34203420343F
:10022000013440342034203401344134203420342B
:100230000134423420342034013443342034203417
:100240000134443420342034013445342034203403
:1002500001344634203420340134473420342034EF
:10026000013448342034003401344934203400341B
:1002700001344A342034003401344B342034013406
:1002800001344C342034013401344D3420340134F1
:1002900001344E342034013401344F3420340534D9
:1002A00001345034203405340134513420340334C3
:1002B0000134523420340E340134533420340D349C
:1002C0000134543420340B34013455342034073491
:1002D00001340B00733465347434203470346F345B
:1002E0006C34203430340D3400340B0020343B3473
:1002F0000D3400340B0073346534743400340B0057
:10030000533441345634453400340B0052344534B0
:10031000533454344F345234453400340B00683471
:1003200065346C34703400340B002B3400340B0013
:100330002D3400345B183B1848006400111E9D29C1
:1003400023009A0020000800911EFF296400911EDE
:10035000A629230019082200B8003808083C031D0C
:10036000D8292000BD080319D329BD030D303D074E
:100370008400203085000318850A800108309D2103
:100380001B309D215B306400111EC32923009A009D
:100390004B3064002000111ACF292300C929230003
:1003A0009A00D629200007309D212300012A22002F
:1003B00020003D080F3C031CFD29220038082000C6
:1003C0009D213D08BD0A0D3E8400203085000318A4
:1003D000850A22003808800038080D3C0319F829E6
:1003E00038082B3C0319F82938082D3C031DFB293C
:1003F00020003E142200002A200007309D21220008
:1004000023002000911280311A2849309D2156087E
:100410002200B90020000D0857060F39D6005608F3
:10042000220039020319172A2000BE142200F030DE
:100430002700960520000D1E512A3E150F080F3982
:100440002200B80020004A08203C031C4E2A031D4D
:100450002D2A4908283C031C4E2A490884004A08D2
:1004600085000031003000180130FA0184007A085C
:10047000850001308000490884004A088500003169
:1004800000080F39FA010F3984007A08850022002C
:10049000380880002000C90A0319CA0A270016126A
:1004A00020000B1080311A28D332743A6937671054
:1004B000D0377414A53A2910F437A012F5060A00B3
:1004C0005B1AB71D331A6D050D296132E9372029F2
:1004D0006538E530F4327210C3376E3AF2376C3655
:1004E0006539A01620005B1AB71DB3186D2B45198E
:1004F0004C2953005B1AB71D331A6D10A82129101F
:100500003218B1190A050D005B1AB01DB31B6D003E
:100510008A06442A4D23A029F430F43A73103A1085
:10052000A53A8A0600018A065429C926D027D4296B
:10053000201D20002010D03774142532A91E25322A
:1005400000100A058D21CF26CD204E223E1000003E
:100550006937693A5F32F4366610E232E734EE0604
:100560000A004937693AE930EC34FA34EE3320298D
:10057000C126203B6139E9306236E5392033F23754
:100580006D10C5225029CF268A0600014937693AE5
:10059000E930EC34FA34EE332029C126203B6139AE
:1005A000E9306236E539A03B693A6810C432E6307A
:1005B00075367410F630EC3AE5398A060000D3300F
:1005C000F634EE332029C126A0316F37E634E73AFE
:1005D000F230F4346F37A0346E10C5225029CF2684
:1005E0002E050D004334E531EB39F536A036E939F7
:1005F000ED30F43168172029E539F437F234EE3361
:1006000020326533E13A6C3A203B6136F53273179C
:100610008A0600004937693AE930EC34FA30F4349C
:100620006F37A031EF367036653A65050D008A06E2
:10063000D332743A69376710A539A812F514203AF5
:100640006F10A53A8A0600008A0649376339E536F5
:100650006537F434EE33A0127314A53A29103D1017
:10066000A53A8A0600008A06C4326339E536653742
:10067000F434EE33A0127314A53A29103D10A53AB4
:100680008A06000010302100A700A60127082602D4
:100690000318542B0D3026078400203085000318E2
:1006A000850A8001A60A462B2000BD013E10FF30BE
:1006B000CC00CE01CB0108000B082100BE008B133B
:1006C0002300951715140000000013087F39031943
:1006D000AC2B2100BF00230011082100C000230023
:1006E00012082100C1003F0864002000111A7A2B73
:1006F0002100742B23009A00210040082300910060
:1007000021004108230092009517151400000000F5
:10071000130D140D7F390319AC2B2100BF002300EA
:1007200011082100C000230012082100C1003F0869
:1007300064002000111A9E2B2100982B23009A00A0
:10074000210040082300910021004108230092006D
:10075000910A0319920A612B2100BE1B8B172000FE
:1007600008001B309D215B306400111EB42B230058
:100770009A00323064002000111AC02B2300BA2BDB
:1007800023009A004A3064002000111AC92B23006C
:10079000C32B23009A001B3020009D219A30230098
:1007A00091000130920020005C23080021003B08EA
:1007B00084003C0885000008BE003E087F3C031C06
:1007C000BE0A03103E0D093A3D07BE003B088400F7
:1007D0003C0885003E088000200008000130210010
:1007E000B600B701B900320BFE2BB13023009100E7
:1007F0000230920020005C23052C2100C63023002B
:1008000091000230920020005C232100B3013308E4
:100810001E3C031C642C330DF700F70DFC30F7056C
:100820007708BA003A0A2000EC20FA0021003A08C2
:100830002000EC202100B4007A08B500320B502CC7
:10084000330DF700F70DFC30F7057708033E200065
:10085000EC20F80078182E2C2100502C21003508AF
:10086000FA00340884007A088500370823009100D4
:10087000951315141308800021003508FA00340878
:100880008400350885000008BA002030BC006630BE
:10089000BB003A08BD002000D6232100B70A622C15
:1008A000330DF700F70DFC30F7057708023E200006
:1008B000EC20F8002100B8003408840035088500D9
:1008C00038088000B30A072C320B702C370823003D
:1008D000910095131514130821003602031DB90168
:1008E0003908F8002000080001302100B600B301EB
:1008F000B20132081E3C031CC82C320DF700F70D64
:10090000FC30F7057708B800380A2000EC20FA0020
:10091000210038082000EC202100B4007A08B5003E
:10092000320DF700F70DFC30F7057708033E200085
:10093000EC20F800781CC52C210034088400350810
:1009400085000008B7000B08F7008B13330823005D
:100950009100210037082300930095131515553099
:100960009600AA30960095149518B42C15117708A6
:100970008B0420302100BC006630BB003708BD006E
:100980002000D6232100B30A20002100B20A792CCE
:100990000B08F7008B133308230091002100360861
:1009A000230093009513151555309600AA30960034
:1009B00095149518D92C151177088B04DF30910008
:1009C0000230920020005C23080021003108B200B0
:1009D0002000EE23F808031DF92CF23023009100CB
:1009E0000230920020005C232100B2012000EE239F
:1009F00074240800003021008F00361034080F39AD
:100A00000139031D36143618092D22000F100B2D45
:100A1000210022000F142100361034080F3902394A
:100A2000031D36143618182D22008F101A2D2100A0
:100A300022008F142100361034080F390439031DA9
:100A400036143618272D22000F11292D21002200DF
:100A50000F152100361034080F390839031D3614DC
:100A60003618362D22008F11382D210022008F15C7
:100A70002100B508031D402D22000F13422D210037
:100A800022000F17432D8F12452D8F16472D0F3043
:100A900021008F00200008000F3021008F00BE08C9
:100AA000031D562D22000F13582D210022000F1771
:100AB000592D0F12000020000F080F392100BF0030
:100AC00022000F16632D21003F08F80020000800C7
:100AD0001B309D21603023009100023092002000E5
:100AE0005C231B309D217330230091000230920063
:100AF00020005C231B309D217A30230091000230BE
:100B0000920020005C231B309D2184302300910043
:100B10000230920020005C2308002400951320007E
:100B2000911121003E08240091000230951B9F2D59
:100B30002000911D992D00302400161B0130F80073
:100B4000200008000B082100BF008B13230095171D
:100B50001514000000000318D62D13087F3921005A
:100B6000C000230011082100C10023001208210049
:100B7000C200400864002000111AC02D2100BA2DC7
:100B800023009A002100410823009100210042081F
:100B90002300920095171514000000002100BE0BE1
:100BA000D22DD42D2300D62DFB2D2300130D140D93
:100BB0007F392100C000230011082100C10023005B
:100BC00012082100C200400864002000111AEA2D1A
:100BD0002100E42D23009A00210041082300910008
:100BE0002100420823009200910A0319920A03107F
:100BF0002100BE0BA62DBF1B8B1720000800210073
:100C00004508F80144020318082E4408F700142E82
:100C1000F7010830C600C40DF70D45087702031828
:100C2000F700F80DC60B0B2E2000080078082100F5
:100C30003F08C4006430C5002000FF25770821006C
:100C4000BF0078083030031D2C2EC01C3A2EC0196E
:100C50003A2E401A20302F2EC01140124014F807AF
:100C6000780864002000111A372E2100312E23004D
:100C70009A0021003F08C4000A30C5002000FF256B
:100C800077082100BF0078083030031D4D2EC019B1
:100C9000582E401C582E401A2030F807780864005F
:100CA0002000111A552E21004F2E23009A002100FA
:100CB0003030BF073F0864002000111A612E210068
:100CC0005B2E23009A00200008002100340EB6009D
:100CD000B60DB60DC030B60535083F39B60724004D
:100CE00016141618712E50302100BE0020008D25DC
:100CF00021003608BE0020008D2524001615161987
:100D00007F2E5430230091000230920003100C30EB
:100D10002100BE002000A22521003408BF001B30A6
:100D2000C000200016265B302300910002309200A4
:100D3000031005302100BE002000A2252100360846
:100D4000BF001B30C000200016260D306400111EAD
:100D5000A62E23009A000A3064002000111AB22E39
:100D60002300AC2E23009A002000080042231530F7
:100D70002100970024008D012000D501D401AB0192
:100D8000AC01FF306600003021008F001010901081
:100D9000101190159116C0308B0422008F138F16FE
:100DA0000F160F132000B12301302100B1002000E5
:100DB000E524A830230091000230920020005C233B
:100DC00022000F168F160F132100B4010130B50059
:100DD0002000FA242100B4010130B5002000FA24DB
:100DE0000C302100B4000130B5002000FA2401309D
:100DF0002100B400B5002000FA2401302100BE001B
:100E000020004C252100A6012608093C031C122FB6
:100E10001F3026078400203085000318850A8001D2
:100E2000A60A042F20302000CA001F30C900682500
:100E30009D3067002100B4010130B5002000652617
:100E400001302100B4000230B500200065260230D8
:100E50002100B4000330B5002000652603302100D6
:100E6000B4000530B500200065260A30230091004B
:100E70000330920020005C238831112B3E142100A6
:100E8000A601A701203085000D30840026088407C4
:100E90000030853D270820006921800000380319B3
:100EA000562F2100A70AA60A422F20008831142BB2
:100EB00022003108B4003008B6002F08B500B3088E
:100EC000031D662F3208003C03187D2F3608FA00F8
:100ED000350884007A08850034080002031D752F48
:100EE0003508F8003608F900802FB50A0319B60A4C
:100EF00032080319B303B2035F2F0030F800F90082
:100F000020000800F701F80121003E0803103F18F7
:100F1000F707F70CF80CBF18F707F70CF80C3F1998
:100F2000F707F70CF80CBF19F707F70CF80C3F1A86
:100F3000F707F70CF80CBF1AF707F70CF80C3F1B74
:100F4000F707F70CF80CBF1BF707F70CF80C20009D
:100F5000080080080319C22F05082100C0000408FA
:100F6000BF00000864002000111AB82F2100B22F22
:100F700023009A002100400885003F0884000131C9
:100F80002000A92F0800210035080739F700350C8B
:100F9000F800F80CF80C1F30F805780837078400C3
:100FA0000030383D8500F801F80AF70AD82FF80D0F
:100FB000F70BD72FB6080319E02F78088004E32F2A
:0A0FC000F8097808800520000800F9
:1010000021004C084D04031909284D08FA004C082A
:101010000E2820002608FA0025082100D0007A08B2
:10102000D1005108D5005008D4004F08D7004E0811
:10103000D6005508D9005408D8005908FA005808B5
:1010400084007A0885008008031957285708DB00B8
:101050005608DA005B08FA005A0884007A0885000E
:101060008008031D3D2854085802F7005508593BD5
:10107000FA007708F8005F284F285908FA00580846
:1010800084007A0885000008DC005B08FA005A0832
:1010900084007A08850000085C0203195328DA0AE4
:1010A0000319DB0A2A28D80A0319D90A1D2854086B
:1010B0005802F7005508593BFA007708F8007808FD
:1010C000D0070030D13D5108FA00500884007A085A
:1010D00085008008031D7828200025088400260844
:1010E0008500203080000030F800F900DD28210064
:1010F0005108D5005008D4004F08D7004E08D6003C
:101100005508D9005408D8005908FA005808840036
:101110007A08850080080319B9285708DB005608AB
:10112000DA005B08FA005A0884007A088500800813
:101130000319B5285908FA00580884007A08850070
:101140000008DC005B08FA005A0884007A08850071
:1011500000085C02031DB1285808F8005908F9007E
:10116000BC28DA0A0319DB0A9128D80A0319D90A1C
:1011700084280030F800F9007908D3007808D200FC
:101180005308FA00520884007A0885008008031981
:10119000D12852088400530885008001D20A03191F
:1011A000D30A53082000A600210052082000A50001
:1011B00021005008F8005108F90020000800210023
:1011C0004D08FA004C0884007A0885000008D00019
:1011D0004F08FA004E0884007A0885000008500283
:1011E000031948294D08FA004C0884007A08850044
:1011F0000008D0005008403C0318022950085A3C0F
:1012000003180A295008603C03185E2950087A3CEC
:10121000031C5E294F08FA004E0884007A088500F6
:101220000008D0005008403C03181A2950085A3CC6
:10123000031822295008603C03185E2950087A3CA4
:10124000031C5E294D08FA004C0884007A088500CA
:101250000008D0004F08FA004E0884007A08850084
:10126000203000075002031948294F08FA004E08A1
:1012700084007A0885000008D0004D08FA004C0868
:1012800084007A088500203000075002031D5E2983
:101290004D08FA004C0884007A0885008008031D78
:1012A00054290030F80074294D08FA004C08CC0A83
:1012B0000319CD0ACE0A0319CF0AE0284D08FA0017
:1012C0004C0884004D0885000008D0004F08FA0043
:1012D0004E0884004F088500000850020318722948
:1012E000FF3073290130F800200008002030210071
:1012F0003F1E3030C0003E08F700BE1F8729F709A7
:10130000F70A7708BE002D30C000BF173F143E0813
:10131000C4006430C50080312000FF258831770883
:101320002100BE0030307807C1003E08C4000A30FA
:10133000C50080312000FF2588313030770721003B
:10134000C30030307807C2004008F7003030410257
:101350000319AE29BF14BF1B3F15C2294008C100A5
:101360002030C000303042020319BA293F14BF1B9D
:10137000BF14C229031D3F14031DC2294108C20026
:101380002030C1003F19C929BF18D3293F18DD29D2
:10139000E729400864002000111AD0292100CA2939
:1013A00023009A002100410864002000111ADA2964
:1013B0002100D42923009A00210042086400200063
:1013C000111AE4292100DE2923009A002100430894
:1013D00064002000111AEE292100E82923009A0058
:1013E000200008002100A6010130A700AA0120006A
:1013F000AC080319052A56082B05031D052AAC0164
:10140000AB0101302100AA0020002100A801AB019E
:101410002B08033C031C2E2A200056082100270518
:101420000319282A4E302B0784002030850003182A
:10143000850A0008A900290820002C020318292A7F
:1014400021002908A60001302B07A8000130AA00BE
:10145000200003102100A70DAB0A082AAA080319CF
:10146000DE2A2808AC00AC080319412A01302C02FE
:10147000523E8400203085000318850A0008B10020
:10148000422AB1010130B000AD012D08033C031C1C
:10149000CB2AAC08031D4F2A3310B310832A013026
:1014A0002D072C02031D5A2A331430082000AB00EC
:1014B0005C2A2100331020002100B31031083005D0
:1014C000031DB314AE012E08033C031C832A013014
:1014D0002C02F700F70DF70DFC30F70577082E0703
:1014E000383E8400203085000318850A0008AF00CC
:1014F0002E08B4002F08B500803120006526883101
:101500002100AE0A632A2D0880312000272088316F
:101510002100B400003033180130F7003408B50062
:101520007708B6000130B800B70180312000C3272A
:10153000883121003408B500B601B8018030B70009
:1015400080312000C327883121002D088031200000
:101550002C2088312100B4000030B3180130F7008E
:101560003408B5007708B6000130B800B701803103
:101570002000C327883121003408B500B601B80126
:101580008030B70080312000C3278831031021004C
:10159000B00DAD0A452AAC08031DD22A2000AC01CB
:1015A000DD2A210001302C024E3E840020308500CF
:1015B0000318850A00082000AC0021002000BE109E
:1015C0008831202B850184011F3083057230210072
:1015D00099008E150E1624001710971097111330CE
:1015E000920028309500941714130C3023009B00B0
:1015F000A2309E0090309D002F0091019201980131
:1016000099019A0123008C018D018F019001220024
:1016100092019101940193012000A501A60180315E
:10162000B62E883180313E2F883164003E1C1E2B3F
:10163000903100288831803142238831BE18F22948
:04164000152B630003
:102000002100CC01CD0120308500603084004C08D7
:1020100084070030853D4D088031200075219031C6
:1020200080000038031919282100CD0ACC0A0328A2
:10203000200020302100CD000D30CC002030CF001A
:102040006030CE00883120000020903179082100D6
:10205000CB007808CA00CA08031D3128CB08031931
:102060004B284B08CF004A08CE002030CD006C3002
:10207000CC004F0885004E0884000008D0004D08B1
:1020800085004C08840050088000800803194B2804
:10209000CC0ACE0A3928CD01CC012030CF006030E7
:1020A000CE00883120000020903179082100CB003B
:1020B0007808CA00CA08031D6028CB0803197A28CB
:1020C0004B08CF004A08CE002030CD002E30CC0087
:1020D0004F0885004E0884000008D0004D08850098
:1020E0004C08840050088000800803197A28CC0A24
:1020F000CE0A6828CD01CC012030CF006030CE0060
:10210000883120000020903179082100CB00780828
:10211000CA00CA08031D8F28CB080319BF2A4B0821
:10212000CF004A08CE002030CD006830CC004F08E8
:1021300085004E0884000008D0004D0885004C083A
:1021400084005008800080080319A928CC0ACE0A10
:1021500097282030CD006830CC00CF01CE010A3066
:10216000D000D801D7013030DA003130DB00323016
:10217000DC003330DD003430DE003530DF00363057
:10218000E0003730E1003830E2003930E300613000
:10219000E4006230E5006330E6006430E70065305B
:1021A000E8006630E9006730EA006830EB0069302B
:1021B000EC006A30ED006B30EE006C30EF006D30FB
:1021C0002200A0006E30A1006F30A2007030A3008A
:1021D0007130A4007330A5007430A6007530A700DC
:1021E0007630A8007730A9007830AA007930AB00AB
:1021F0007A30AC00AD0121004D08D2004C08D1006E
:102200005208FA00510884007A0885000008203C32
:10221000031D0E29D10A0319D20A00295208FA0017
:10222000510884005208850000082D3C031922291A
:102230005208FA00510884005208850000082B3C1F
:10224000031D2D295208FA005108D10A0319D20A98
:1022500084007A08850000082E292B30D9005908FF
:102260002D3C03193E29D01B3E29500B38293E290D
:10227000D01B40295008243C031840299A2ACC2915
:10228000D008031995295008103C031D67295208EE
:10229000FA00510884007A0885000008303C031DCC
:1022A0006729510884005208850001310008783CF4
:1022B0000319632951088400520885000131000880
:1022C000583C031D67290230D1070030D23D500829
:1022D000083C031D79295208FA00510884007A0845
:1022E00085000008303C031D79290130D1070030FA
:1022F000D23D5008023C031D94295208FA005108AF
:1023000084007A0885000008303C031D9429510898
:1023100084005208850001310008623C031D9429A5
:102320000230D1070030D23DCC295208FA005108C2
:1023300084007A0885000008303C0319A2290A307D
:10234000D000CC29510884005208850001310008D2
:10235000783C0319B42951088400520885000131E2
:102360000008583C031DBB291030D0000230D107B3
:102370000030D23DCC29510884005208850001313B
:102380000008623C031DCA290230D000D10700308A
:10239000D23DCC290830D0005208D4005108D300D7
:1023A0005208FA00510884007A0885000008303C81
:1023B000031DDE29D10A0319D20AD0295208FA00D6
:1023C000510884005208850000082200AE00403CFD
:1023D0000318F1292E085A3C031CF1292E08203835
:1023E000F2292E08AE002030B0008A30AF002E084F
:1023F000B100B301210050082200B200803120005A
:102400005827903179082100D6007808D500D508E2
:10241000031D0D2AD6080319922AFA015008F70065
:10242000F71BFA032200AE007A08AF00210058081B
:102430002200B100210057082200B0002F08B3008D
:102440002E08B200310833068039B500B11F2D2A9D
:10245000B009B109B00A0319B10AB31F342AB2098D
:10246000B309B20A0319B30A1030B400F701FA0134
:10247000B10CB00C031C422A3208F7070318FA0A01
:102480003308FA07FA0CF70CF90CF80CB40B382ADD
:10249000B51F4F2AF809F909F80A0319F90A79084A
:1024A000AF007808AE008A3021005502F7002030D6
:1024B000563BFA00770822002E07F8002F08FA3D55
:1024C00078082100D7007A08D800D10A0319D20A67
:1024D0005208FA00510884005208850000082200C2
:1024E000AE00403C03187B2A2E085A3C031C7B2A72
:1024F0002E0820387C2A2E08AE002030B0008A300A
:10250000AF002E08B100B301210050082200B20034
:10251000803120005827903179082100D6007808B2
:10252000D500072A51085302031DAA2A5208540253
:10253000031DAA2A4E084F040319A62A4E08840038
:102540004F0885004C0880004D08813F0030F8009E
:10255000F900BA2A4E084F040319B62A4E0884001F
:102560004F088500510880005208813F5708F80045
:102570005808F90078082000CD00C22A2100FF3059
:102580002000CD002100CC01CD0120308500743029
:1025900084004C0884070030853D4D0880312000C0
:1025A0007A219031800000380319DB2A2100CD0AFE
:1025B000CC0AC52A200020302100CD007430CC0088
:1025C0002030CF006C30CE0088312000DF209031E9
:1025D000F808031DF42A4D08FF3C031DF22A0330BE
:1025E000CB00F42A0230CB002100CC01CD012030F9
:1025F0008500743084004C0884070030853D4D0808
:10260000803120007F2190318000003803190D2B8C
:102610002100CD0ACC0AF72A200020302100CD006D
:102620007430CC002030CF006C30CE0088312000D8
:10263000DF209031F808031D1F2B0430CB00210050
:10264000CC01CD0120308500743084004C08840713
:102650000030853D4D08803120008521903180007B
:1026600000380319382B2100CD0ACC0A222B200078
:1026700020302100CD007430CC002030CF006C30F1
:10268000CE0088312000DF209031F808031D4A2B4E
:102690000530CB002100CC01CD0120308500743005
:1026A00084004C0884070030853D4D0880312000AF
:1026B0008E219031800000380319632B2100CD0A50
:1026C000CC0A4D2B200020302100CD007430CC00EE
:1026D0002030CF006C30CE0088312000DF209031D8
:1026E000F808031D752B0830CB002100CC01CD016B
:1026F00020308500743084004C0884070030853D0C
:102700004D08803120009421903180000038031959
:102710008E2B2100CD0ACC0A782B200020302100FE
:10272000CD007430CC002030CF006C30CE0088312A
:102730002000DF209031F808031DA02B0630CB00CD
:102740002100CC01CD0120308500743084004C087C
:1027500084070030853D4D0880312000972190315D
:10276000800000380319B92B2100CD0ACC0AA32B15
:10277000200020302100CD007430CC002030CF006C
:102780006C30CE0088312000DF209031F808031D26
:10279000CB2B0730CB00FF30CC002100A601260850
:1027A0001E3C031C0E2C2608BE000630BF008031E4
:1027B00020008227903178082100B000B101300854
:1027C000B200203085005830840031088407003082
:1027D000853D320880312000312090318000003862
:1027E0000319F72B2100B20AB10AE12B2000203097
:1027F0002100CD002E30CC002030CF005830CE004C
:1028000088312000DF209031F808031D0B2C2100B7
:1028100026082000CC002100A60ACF2B20004B0860
:10282000023C031D172C4C08FF3C0319B32F023048
:102830004B02F93E0318B32F073EB62F4D08FF3C5D
:10284000031D492C85014C0884008031A927903153
:1028500020306400111E292C23009A0020004D080E
:102860002100BF001B30C0008031200016269031AF
:102870000A306400111E392C23009A000D306400C8
:102880002000111A452C23003F2C23009A00FB2C1A
:1028900020004C0DF700F70DFC30F70577082100FC
:1028A000B200320A80312000EC209031FA00210081
:1028B000320880312000EC2090312100B0007A08ED
:1028C000B100300884003108850020004D088000E8
:1028D0004C08D4000130D50017302300910003309C
:1028E000920003100A302100BE0080312000A22592
:1028F0009031203085002E3084008031A92790311E
:1029000028306400111E812C23009A0020004C08FE
:102910002100BF001B30C0008031200016269031FE
:102920001E30230091000330920003140530210073
:10293000BE0080312000A22590314D082100BF004B
:102940001B30C00080312000162690310A30640010
:10295000111EA72C23009A000D3064002000111ACC
:10296000B32C2300AD2C23009A0020004D08210039
:10297000B2003208B400B50180312000FA24903151
:1029800005302100B4000130B50080312000FA2468
:1029900090312200901421009010B3013308043CC0
:1029A000031CEE2C6430B4002030850064308400B9
:1029B00000080319EC2C0230F800BF30F700640067
:1029C000F70BDF2CF80BDD2C9630F700F70BE62C1D
:1029D000E92C6400800BDB2CB30ACE2C0430B4004D
:1029E0000130B50080312000FA249031220090108F
:1029F0002100901023002000B32F4C0DF700F70D9D
:102A0000FC30F70577082100B000300A8031200043
:102A1000EC209031FA002100300880312000EC20B9
:102A200090312100AE007A08AF0020004C08D4009D
:102A30000130D500B32F803174249031B32F4D0B6A
:102A4000252D21002714272D2000210027100030DC
:102A500027180130B000B10080312000E52490310A
:102A6000B32FD5080319D22D540DF700F70DFC3004
:102A7000F70577082100B900390A80312000EC20E1
:102A80009031FA002100390880312000EC2090318B
:102A90002100B0007A08B1003008840031088500B8
:102AA00001300007B2003008840031088500320888
:102AB0008000200054082100BE000630BF00803195
:102AC00020008227903178082100B900BA01390826
:102AD000BB0020308500633084003A088407003052
:102AE000853D3B0880312000312090318000003846
:102AF00003197F2D2100BB0ABA0A692D200021008D
:102B00003108FA0030088400310885000008B90057
:102B10002430230091000330920003100F30210075
:102B2000BE0080312000A225903120308500633026
:102B300084008031A927903128306400111E9D2D1A
:102B400023009A00200054082100BF001B30C00061
:102B500080312000162690312E3023009100033062
:102B60009200031004302100BE0080312000A22515
:102B7000903121003908BF001B30C0008031200097
:102B8000162690310A306400111EC32D23009A00CE
:102B90000D3064002000111ACF2D2300C92D230011
:102BA0009A002000B32FD5080319742E540DF70096
:102BB000F70DFC30F70577082100B900390A80319C
:102BC0002000EC209031FA002100390880312000EB
:102BD000EC2090312100B0007A08B1003008840068
:102BE0003108850001300002B2003008840031084D
:102BF000850032088000200054082100BE00063005
:102C0000BF00803120008227903178082100B90070
:102C1000BA013908BB0020308500633084003A08CF
:102C200084070030853D3B08803120003120903101
:102C3000800000380319212E2100BB0ABA0A0B2E8E
:102C4000200021003108FA00300884003108850096
:102C50000008B900333023009100033092000310C4
:102C60000F302100BE0080312000A225903120309D
:102C70008500633084008031A927903128306400BA
:102C8000111E3F2E23009A00200054082100BF008F
:102C90001B30C00080312000162690313D302300CB
:102CA000910003309200031004302100BE008031F7
:102CB0002000A225903121003908BF001B30C00040
:102CC00080312000162690310A306400111E652ED6
:102CD00023009A000D3064002000111A712E230089
:102CE0006B2E23009A002000B32F8031B123903146
:102CF00080316825903101302100BE0080312000F4
:102D00004C25903178082100B700B00130081E3CF6
:102D1000031C182F3008BE000630BF008031200091
:102D20008227903178082100BE00BF013E08C00014
:102D300020308500683084003F0884070030853DDE
:102D40004008803120003120903180000038031984
:102D5000AE2E2100C00ABF0A982E20002100300D9F
:102D6000F700F70DFC30F7057708BE003E0A80310A
:102D70002000EC209031FA0021003E088031200034
:102D8000EC2090312100B3007A08B4003408FA0036
:102D900033088400340885000008BE005B306400FE
:102DA0002000111AD52E2100CF2E23009A002100D9
:102DB0003008BF000130C00080312000162690315D
:102DC0005D306400111EE12E23009A002030640063
:102DD0002000111AED2E2300E72E23009A00203048
:102DE00085006830840080312000A9279031203090
:102DF0006400111EF82E23009A0021003E08BF0037
:102E00001B30C00080312000162690310A3064004B
:102E1000111E072F23009A000D3064002000111AA4
:102E2000132F23000D2F23009A002100B00A862EB5
:102E300088302300910002309200031010302100EE
:102E4000BE0080312000A225903121003708BF004C
:102E50001B30C00080312000162690310A306400FB
:102E6000111E2F2F23009A000D3064002000111A2C
:102E70003B2F2300352F23009A009330910002301E
:102E80009200803120005C23903124001614161823
:102E9000472F51302100BE00803120008D25903118
:102EA00078082100B500B0013008033C031CA62FB0
:102EB0003008033C031D5E2FB101602F0130B100CB
:102EC0003108F7002400151396159619652F771809
:102ED0009612771C96161616161A6C2F1108F80003
:102EE00078082100B2003F30B2059A3023009100EB
:102EF00002309200031006302100BE008031200015
:102F0000A225903121003008BE001830BF00883162
:102F100020007621903129306400111E8C2F23006F
:102F20009A003D3064002000111A982F2300922F40
:102F300023009A0021003208BE001830BF008831FB
:102F40002000762190312100B00A542F240016155C
:102F50001619A82FA1302300910002309200803171
:102F600020005C2390313E1088311A2B0A148A14F9
:102F70000A1582071E2CFD2C1B2D1F2D312DD32D44
:022F8000752EAC
:083FB800AA346A345A3456346D
:103FC000553455349534A534A934AA346034953425
:103FD0009934943440345934A434553450346A34C8
:103FE00098346534A0349034A8346934A6346434E9
:103FF0005434803458345634683496349A34A53462
:020000040001F9
:04000E00E40FFF1EDE
:00000001FF
;PIC16LF1937
;CRC=A27C  CREATED="20-Apr-13 23:05"
