:060000009831562C0000AF
:0800080083018A012000770842
:10001000A0007808A1007908A2007A08A3007B0854
:10002000A4008B1D15280B182B288B1E19280B19C3
:100030002D28850191308400801E2028911A2F28B8
:100040002008F7002108F8002208F9002308FA0028
:100050002408FB0009008031482B8031B32B80310C
:10006000CD2A0B000234033406340A340B0060340A
:100070006134623463340B00643465348034813419
:100080000B007134753482340B006E346F3470346D
:10009000FB0000307A078A007B08513E03188A0A69
:1000A000820045344E34203420340034003450343F
:1000B0004F344C340034003400345234313447343B
:1000C0003134003400345234313447343234003463
:1000D0000034523431344734333400340034523431
:1000E00031344734343400340034523432344734F9
:1000F0003134003400345234323447343234003432
:1001000000345234323447343334003400345234FF
:1001100032344734343400340034523433344734C6
:100120003134003400345234333447343234003400
:1001300000345234333447343334003400345234CE
:100140003334473434340034003452343434473494
:1001500031340034003452343434473432340034CF
:10016000003452343434473433340034003452349D
:10017000343447343434003400345834493431345E
:1001800000340034003458344934323400340034FC
:100190000034583449343334003400340034583493
:1001A0004F34313400340034003458344F34323456
:1001B00000340034003458344F34333400340034C5
:1001C000003452343134503400340034003452346A
:1001D0003234503400340034003452343334503428
:1001E0000034003400345234343450340034003499
:1001F0000034523431345034543454340034523492
:10020000323450345434543400345234333450344F
:100210005434543400345234343450345434543418
:1002200000345334493444340034003400344D3401
:10023000523453344C34003400344D34523453343B
:100240003134003400344D345234533432340034B9
:1002500000344D34523453343334003400344D348C
:10026000523453343434003400344D345234533423
:100270003534003400344D34523453343634003481
:10028000003458344F344F3431340034003458344F
:100290004F344F3432340034003458344F344F34F8
:1002A00033340034003458344F3441343134003462
:1002B000003458344F34413432340034003458342C
:1002C0004F344134333400340034583449344F34DB
:1002D000313400340034583449344F34323400342B
:1002E0000034583449344F343334003400345834F3
:1002F00049344134313400340034583449344134C1
:100300003234003400345834493441343334003406
:10031000003443344F345234003400340034433416
:1003200050344F34543400340B003D3420340F34F7
:1003300001343F3420340F3401340C342034203461
:1003400001340D342034203401340E342034203470
:1003500001340F342034203401341034203420345C
:100360000134113420342034013412342034203448
:100370000134133420342034013414342034203434
:100380000134153420342034013416342034203420
:10039000013417342034203401341834203420340C
:1003A000013419342034203401341A3420342034F8
:1003B00001341B342034203401341C342034013403
:1003C00001341D342034023401341E34203403340B
:1003D00001341F34203404340134203420340534F3
:1003E00001342134203406340134223420340234E0
:1003F00001342334203406340134243420340634C8
:1004000001342534203404340134263420340E34AD
:100410000134273420340D340134283420340B3493
:100420000134293420340734013440342034323448
:10043000013442342034013401342A3420341F344E
:1004400001342B3420340E3401342C342034023463
:1004500001342D3420341B3401342E3420340E3436
:1004600001342F3420341134013430342034013439
:100470000134313420340034013432342034003437
:100480000134333420340334013434342034003420
:10049000013435342034003401343634203401340E
:1004A00001343734203400340134383420340034FB
:1004B0000134393420340E3401343A3420340034D9
:1004C00001343B34203400340134413420340034CE
:1004D000003473340034003400340B006534653468
:1004E000703472346F346D3400340B00643465340E
:1004F0006634613475346C34743400340B00203449
:100500003B340D3400340B007334653474340034E0
:100510000B00533441345634453400340B0052340C
:100520004534533454344F345234453400340B0082
:1005300073347434613474347534733400340B00A0
:100540007234653462346F346F34743400340B00A9
:10055000643474346D34663400340B0069343234DE
:10056000633400340B006D346F347234733465348B
:1005700000340B002B3400340B002D3400340B00FE
:10058000443454344D3446343A3400346400111E3B
:10059000C62A23009A0020000800911E242B640024
:1005A000911ECF2A230019082200ED006D08083C97
:1005B000031D022BF1080319FC2AF10347307107D0
:1005C0008400203085000318850A8001083020004F
:1005D000C6221B30C6225B306400111EEC2A2300A9
:1005E0009A004B3064002000111AF82A2300F22AE6
:1005F00023009A00002B220007302000C62223008F
:10060000262B220071080F3C031C212B6D082000B3
:10061000C6227108F10A473E840020308500031885
:10062000850A22006D0880006D080D3C03191F2B00
:100630006D082B3C03191F2B6D082D3C03197214F8
:10064000252B07302000C622220023002000911213
:10065000803120280F3021008F002300A008031DC7
:10066000352B22000F13372B230022000F17000019
:100670000F12000020000F082300A1000F30A10579
:1006800022000F16000023002108F80020000800B7
:10069000270016080F3903195E2B20005C08220082
:1006A000EF0020000D085F060F39DC005C08220017
:1006B0006F02031DF214F030270096050B1CAE2BC1
:1006C00001302300A00020002A2378082200EE0039
:1006D0006E1DAF2B2300A00120002A2378082200E2
:1006E000ED00F217ED08031D782B0A30ED007C2B8E
:1006F0006D080A3C0319ED016D080C3C031D8A2BA3
:1007000072172100350884003608850000318016F4
:10071000AC2B220021003608203C031CAC2B031D0F
:10072000952B3508643C031CAC2B35088400360837
:100730008500003122006D080F39F700F030000508
:1007400077048000210035088400360885000031D8
:100750000016B50A0319B60A2700161222000B105C
:100760008031200020282100270828040319BD2BF0
:1007700027080319A803A703C22BF2147215A801B6
:100780001E30A70029082A040319CA2B29080319B7
:10079000AA03A9030B118031200020288A06D33236
:1007A0006E32693767102532A0376E10491943142D
:1007B000253229005B183B1848008A06D332743A68
:1007C00069376710D0377414A53A2910F437A0128E
:1007D00075008A06D3326E3269376710ED37F23909
:1007E00065103A10A53A0000C327521DA0127810D8
:1007F000502A541D303C253C0000D027541D253282
:10080000A01264102532A01264008A065039EF311C
:10081000E539F334EE332022D4264610F332F13A90
:100820006537E3323A008A062010D334F432492285
:1008300020103A10A53A00018A062010C337ED3681
:10084000613764103A10A53A00018A062010413938
:10085000E73AED326E3A3A10A53A00018A062010C6
:10086000D630EC3A651020103A10A53A00008A06FE
:100870002310C3275210D037723A73103D10A53A97
:100880003B10D32BA022ED3AEC30F4326410C32796
:1008900052103A10A53A00005B1AB71D331A6D05C5
:1008A0000D296132E93720296538E530F4327210BC
:1008B000C3376E3AF2376C366539A01620005B1AE2
:1008C000B71DB3186D2B45194C2953005B1AB71D82
:1008D000331A6D10A82129103218B1190A050D001C
:1008E0005B1AB01DB31B6D000A058D214F29201D19
:1008F000A0127510A822ED3AEC30F43264103A10D0
:10090000A53A29008A06442A4D23A029F430F43A56
:1009100073103A10A53A8A0600018A065429C9269E
:10092000D027D429201D200020286F3AA812E414D3
:10093000BD1264000A058D21CF26CD204E223E1027
:1009400000008A064937693AE930EC34FA34EE336C
:100950002029C126203B6139E9306236E539203350
:10096000F2376D10C5225029CF2600018A0649377B
:10097000693AE930EC34FA34EE332029C126203BC1
:100980006139E9306236E539A03B693A6810E634EE
:10099000F236F730F23220326533E13A6C3A203BDE
:1009A0006136F53273008A06D330F634EE332029EF
:1009B000C126A0316F37E634E73AF230F4346F37AE
:1009C000A0346E10C5225029CF262E008A06201092
:1009D0004334E531EB39F536A036E939ED30F43101
:1009E00068172029E539F437F234EE3320326533C5
:1009F000E13A6C3A203B6136F532731700008A0603
:100A00004937693AE930EC34FA30F4346F37A031C1
:100A1000EF367036653A65008A06D332743A693724
:100A20006710A539A812F514203A6F10A53A0000F6
:100A30008A062310502A5410D434ED32EF3AF410C1
:100A40000A008A06442A4D233D0010302100DF00B1
:100A5000DE015F085E020318372D47305E07840011
:100A6000203085000318850A8001DE0A292DF10156
:100A70007210FF30F400B701F001200008000B08ED
:100A80002200A4008B13230095171514000000000A
:100A900013087F3903198F2D2200A50023001108A8
:100AA0002200A600230012082200A70025086400E7
:100AB0002000111A5D2D2200572D23009A002200DC
:100AC0002608230091002200270823009200951792
:100AD000151400000000130D140D7F3903198F2D1C
:100AE0002200A500230011082200A60023001208FE
:100AF0002200A700250864002000111A812D220081
:100B00007B2D23009A00220026082300910022005A
:100B1000270823009200910A0319920A442D22000B
:100B2000A41B8B17200008001B30C6225B3064001A
:100B3000111E972D23009A00323064002000111AF4
:100B4000A32D23009D2D23009A004A30640020002D
:100B5000111AAC2D2300A62D23009A001B30200073
:100B6000C622DA30230091000330920020003F2596
:100B70000800220024088400250885000008A7003A
:100B800027087F3C031CA70A0310270D093A2607F4
:100B9000A70024088400250885002708800020007D
:100BA000080001302100EE00EF012200A100210029
:100BB0006A0BE32DA1302300910004309200200045
:100BC0003F25EA2D2100B630230091000430920029
:100BD00020003F252100EB016B08353C031C512E02
:100BE0006B0DF700F70DFC30F70577082200A30026
:100BF000230A20009421FA002200230820009421D7
:100C00002100EC007A08ED006A0B3A2E6B0DF7001C
:100C1000F70DFC30F7057708033E20009421F8001B
:100C20007818142E21003A2E21006F08230091001D
:100C30009513151413082200A20021006C088400EB
:100C40006D08850022002208800021006D08FA004E
:100C50006C0884006D08850000082200A300203085
:100C6000A5009E30A4002308A6002000B92521007D
:100C7000EF0A4F2E6B0DF700F70DFC30F7057708E4
:100C8000023E20009421F8002200A00021006C0800
:100C900084006D0885002200200880002100EB0AF6
:100CA000EC2D6A0B602E6F0823009100951315142C
:100CB000130821006E020319602E2200A1012100F9
:100CC00022002108F8002000080001302100EE0079
:100CD000EB01EA016A08353C031CC72E6A0DF700D8
:100CE000F70DFC30F70577082200A000200A20004D
:100CF0009421FA0022002008200094212100EC0019
:100D00007A08ED006A0DF700F70DFC30F70577085B
:100D1000033E20009421F800781CC42E21006C08AA
:100D200084006D0885000008EF006B082300910027
:100D300095131514130821006F020319B62E0B0822
:100D4000F7008B136B082300910021006F0823002C
:100D500093009513151555309600AA3096009514FA
:100D60009518B02E151177088B0421002030220031
:100D7000A5009E30A40021006F082200A6002000DC
:100D8000B9252100EB0A20002100EA0A6A2E0B088F
:100D9000F7008B136B082300910021006E082300DD
:100DA00093009513151555309600AA3096009514AA
:100DB0009518D82E151177088B04D3309100043084
:100DC000920020003F25080021006908EA00200069
:100DD000D125F808031DF82EE630230091000430D9
:100DE000920020003F252100EA012000D125652640
:100DF0000800003021008F002200251023080F3941
:100E00000139031D25142518072F0F10082F0F1463
:100E1000251023080F390239031D25142518122F18
:100E20008F10132F8F14251023080F390439031D39
:100E3000251425181D2F0F111E2F0F1525102308FF
:100E40000F390839031D25142518282F8F11292F34
:100E50008F15A408031D2E2F0F132F2F0F17302FC0
:100E60008F12322F8F16342F0F3021008F00200069
:100E700008001B30C6224C30230091000430920041
:100E800020003F251B30C6225F3023009100043034
:100E9000920020003F251B30C622663023009100BF
:100EA0000430920020003F251B30C6227030230002
:100EB00091000430920020003F2508002400951383
:100EC0002000911122002508240091000230951B7A
:100ED000702F2000911D6A2F00302400161B013056
:100EE000F800200008000B082200A5008B13230047
:100EF00095171514000000000318A72F13087F3959
:100F00002200A600230011082200A70023001208D7
:100F10002200A800260864002000111A912F220048
:100F20008B2F23009A002200270823009100220023
:100F300028082300920095171514000000002200D5
:100F4000A40BA32FA52F2300A72FCC2F2300130D15
:100F5000140D7F392200A600230011082200A700EB
:100F6000230012082200A800260864002000111A9D
:100F7000BB2F2200B52F23009A0022002708230050
:100F800091002200280823009200910A0319920A76
:100F900003102200A40B772FA51B8B17200008003D
:100FA00022002B08F8012A020318D92F2A08F7007B
:100FB000E52FF7010830AC00AA0DF70D2B087702DA
:100FC0000318F700F80DAC0BDC2F200008002100FF
:100FD0005608850055088400220026081A00800162
:0C0FE0002100D50A0319D60A20000800E1
:10100000780822002508AA006430AB008031200057
:10101000D027883177082200A50078083030031DDA
:101020001828A61C2628A6192628261A20301B2890
:10103000A61126122614F807780864002000111A59
:10104000232822001D2823009A0022002508AA0038
:101050000A30AB0080312000D02788317708220089
:10106000A50078083030031D3B28A6194628261C09
:101070004628261A2030F807780864002000111A44
:10108000432822003D2823009A0022003030A50783
:10109000250864002000111A4F2822004928230047
:1010A0009A00200008002200200EA200A20DA20D2E
:1010B000C030A20521083F39A207240016141618D3
:1010C0005F2850302200A500803120005E27883143
:1010D00022002208A500803120005E2788312400EC
:1010E000161516197128DD30230091000330920087
:1010F00003100E302200A4008031200073278831B5
:1011000022002008A5001B30A60020000020E530AA
:101110002300910003309200031005302200A40048
:10112000803120007327883122002108A5001B3060
:10113000A60020000020080001302200A300A40126
:1011400080312000F92688310C302200A3000130C4
:10115000A40080312000F926883105302200A30048
:101160000130A40080312000F926883105302200AA
:10117000A3000130A40080312000F92688316208E4
:101180000339803131208831F800FA0178082100D4
:10119000A9007A08AA0029082A040319D128000006
:1011A000CB2804302200A3000130A40080312000AD
:1011B000F92688310800F701F801220023080310FE
:1011C0002418F707F70CF80CA418F707F70CF80C1D
:1011D0002419F707F70CF80CA419F707F70CF80C0B
:1011E000241AF707F70CF80CA41AF707F70CF80CF9
:1011F000241BF707F70CF80CA41BF707F70CF80CE7
:101200002000080001302200A300A401803120004A
:10121000F92688310C302200A3000130A40080316F
:101220002000F926883105302200A3000130A400F7
:1012300080312000F926883105302200A3000130DA
:10124000A40080312000F9268831620803398031FA
:1012500031208831F80003302200A3007808A40070
:101260002000DB202100AA017808A90029082A040F
:1012700003193C290000362904302200A300013064
:10128000A40080312000F92688310800DC302200DB
:101290002007A3001F30A4000318A40A2408230079
:1012A0009200220023082300910020308500A13005
:1012B000840001302200A5002508F7000310230058
:1012C000951715140000000013088000840A910A85
:1012D0000319920AF70B6129E9309100033092005B
:1012E000031012302200A4008031200073278831BF
:1012F00022002008A5001B30A600200000202100AD
:10130000D4142200A2012208033C031CB0292108A6
:10131000C039403A200003199129C03A0319932992
:1013200095299C209529022195292200A10DA10D26
:10133000FC30A1052000620803398031312088315A
:10134000F800FA0178082100A9007A08AA00290803
:101350002A040319AD290000A7292200A20A832923
:101360002008093C031CBF292008043C031CBC299D
:1013700020000221BE29220020009C202200200003
:1013800062080339803131208831F80003302200AF
:10139000A3007808A4002000DB202100AA0178081F
:1013A000A90029082A040319D7290000D1292000FF
:1013B0000800220021080739F700210CF800F80C7A
:1013C000F80C1F30F8057808230784000030243D0E
:1013D0008500F801F80AF70AEE29F80DF70BED2958
:1013E000A2080319F62978088004F929F809780871
:1013F0008005200008000B082200A1008B132300A9
:10140000951715140000000003182C2A13087F39C3
:101410002200A200230011082200A30023001208CA
:101420002200A4002208A60080312000E72788318E
:1014300022002308230091002200240823009200A8
:1014400095171514000000002200A00B282A2A2A54
:1014500023002C2A4E2A2300130D140D7F3922005D
:10146000A200230011082200A3002300120822007A
:10147000A4002208A60080312000E727883122003E
:101480002308230091002200240823009200910ADF
:101490000319920A03102200A00BFF29A11B8B172E
:1014A000200008002200A11B692A0F30F700200E3F
:1014B000F7050A3077020318602A3030F707622AEE
:1014C0002108F7077708A60080312000E727883138
:1014D00022000F30A0050A3020020318712A303094
:1014E000732AA1132108A0072008A600803120003C
:1014F000E7278831080003102200200D06396038E4
:10150000A300240016141618832A22002308A5001D
:10151000803120005E27883122002208FA0021084D
:1015200084007A08850080080319A82A2208FA0096
:101530002108A10A0319A20A84007A08850000087C
:10154000A400A500803120005E2788318C2A22006B
:10155000A501803120005E27883124001615161958
:10156000AF2A2000080020302200211E3030A200C7
:101570002008F700A01FC42AF709F70A7708A0007F
:101580002D30A200A11721142008AA006430AB005E
:1015900080312000D027883177082200A000303029
:1015A0007807A3002008AA000A30AB008031200091
:1015B000D0278831303077072200A50030307807F7
:1015C000A4002208F700303023020319EB2AA114EB
:1015D000A11B2115FF2A2208A3002030A2003030D1
:1015E00024020319F72A2114A11BA114FF2A031DA9
:1015F0002114031DFF2A2308A4002030A300211971
:10160000062BA1180D2B2118142B1B2B2208A6002A
:1016100080312000E727883122002308A60080318E
:101620002000E727883122002408A600803120000E
:10163000E727883122002508A60080312000E7270F
:10164000883108002100EB01EC01ED01EE01650895
:101650002000E5002100E5080319412B0130650257
:10166000263E8400203085000318850A00082200E9
:10167000A00020005D085E05220020052100EA0090
:101680004C2BEA01F21E4C2BF212200063082200C0
:10169000A0002000462121000130E900E601660893
:1016A000033C031CB02BE508031D592B6F10EF10F2
:1016B0006C2B013066076502031D642B6F146908EB
:1016C0002000E400662B21006F1020002100EF10A5
:1016D0006A086905031DEF14660880312000362072
:1016E00088312200A000003021006F180130F7007F
:1016F00022002008A1007708A2000130A400A30165
:101700002000D92122002008A100A201A4018030DC
:10171000A3002000D92121006608803120003B2051
:1017200088312200A00000302100EF180130F700BE
:1017300022002008A1007708A2000130A400A30124
:101740002000D92122002008A100A201A40180309C
:10175000A3002000D92103102100E90DE60A4F2B38
:10176000E508031DB72B2000E601F02B2100013016
:101770006502223E8400203085000318850A000897
:101780002000E6002100E7016708033C031CEE2B64
:1017900001306502F700F70DF70DFC30F70577080B
:1017A00067070C3E8400203085000318850A000876
:1017B000E8009B3067078400203085000318850A05
:1017C0006808800067082200A00021006808220045
:1017D000A100200053202100E70AC42BD4142000CC
:1017E00020302100D6006D30D500F4302300910068
:1017F00003309200031005302200A0002000FB21DE
:10180000210065082200A0005730A10020005222CC
:10181000F7302300910003309200031407302200B8
:10182000A0002000FB2121006A082200A000573000
:10183000A1002000522201302200A0002030A2008E
:101840006D30A10020007B2232302200A000203029
:101850008500A0308400000803193F2C0230F800F6
:10186000BF30F7006400F70B322CF80B302C9630A9
:10187000F700F70B392C3C2C6400800B2E2C203009
:101880002100D6006D30D500FD30230091000330DB
:101890009200031004302200A0002000FB21210050
:1018A0006B082200A0001830A1002000B3222030D5
:1018B0002200A60080312000E727883121006C0833
:1018C0002200A0001830A1002000B3222030220006
:1018D000A60080312000E727883121006D08220012
:1018E000A0001830A1002000B32220302200A60062
:1018F00080312000E727883121006E082200A000F7
:101900001830A1002000B3222200A0012030A20044
:101910006D30A10020007B22080080312525883110
:101920002200920191019401930117302100970048
:1019300024008D012000DC01F2120E30E300FC01D6
:10194000F601E401E601E501F301FF306600003035
:1019500021008F00101090101011901591168B150A
:101960000F302700940495048B1515161412C030FF
:101970008B0422008F138F160F160F138031200057
:101980009425883101302100E90080312000E426CF
:10199000883122000F168F160F13A3010130A40007
:1019A00080312000F92688312200A3010130A400F3
:1019B00080312000F92688310C302200A30001304C
:1019C000A40080312000F926883101302200A300D4
:1019D000A40080312000F9268831A5018B1BA517B2
:1019E0008B1301302300A000803120002A2388318E
:1019F000A51B8B17210054140F302000DE0080310E
:101A0000392788319D3067002200A001A101200004
:101A1000532001302200A000A101200053200230F9
:101A20002200A000A1012000532003302200A000CA
:101A3000A101200053202100A8013C30A700150877
:101A4000C039073895008B16E50120002223FF30AE
:101A50002300910004309200803120003F2588311E
:101A60001E30FE003C30FD007212F2112100D41431
:101A700098312000882C2200310832040319442DAB
:101A80003208FA003108492D20002708FA002608FC
:101A90002200B5007A08B6003608BA003508B90049
:101AA0003408BC003308BB003A08BE003908BD004A
:101AB0003E08FA003D0884007A0885008008031972
:101AC000922D3C08C0003B08BF004008FA003F08C8
:101AD00084007A0885008008031D782D39083D02AE
:101AE000F7003A083E3BFA007708F8009A2D8A2D55
:101AF0003E08FA003D0884007A0885000008C1000D
:101B00004008FA003F0884007A0885000008410276
:101B100003198E2DBF0A0319C00A652DBD0A0319CA
:101B2000BE0A582D39083D02F7003A083E3BFA003C
:101B30007708F8007808B5070030B63D3608FA0097
:101B4000350884007A0885008008031DB32D200025
:101B50002608840027088500203080000030F80027
:101B6000F900182E22003608BA003508B9003408EA
:101B7000BC003308BB003A08BE003908BD003E086F
:101B8000FA003D0884007A08850080080319F42DC6
:101B90003C08C0003B08BF004008FA003F08840032
:101BA0007A08850080080319F02D3E08FA003D08E8
:101BB00084007A0885000008C1004008FA003F0848
:101BC00084007A08850000084102031DEC2D3D08C1
:101BD000F8003E08F900F72DBF0A0319C00ACC2D02
:101BE000BD0A0319BE0ABF2D0030F800F9007908BC
:101BF000B8007808B7003808FA00370884007A0877
:101C00008500800803190C2E3708840038088500E9
:101C10008001B70A0319B80A38082000A70022007B
:101C200037082000A60022003508F8003608F90021
:101C30002000080022006608E9006508EB0064083F
:101C4000EA00E808031D282E6708003C03183F2E11
:101C50006B08FA006A0884007A08850069080002A7
:101C6000031D372E6A08F8006B08F900422EEA0AB5
:101C70000319EB0A67080319E803E703212E003074
:101C8000F800F9002000080022003208FA003108AC
:101C900084007A0885000008B5003408FA0033088B
:101CA00084007A088500000835020319AD2E320839
:101CB000FA00310884007A0885000008B50035086C
:101CC000403C0318672E35085A3C03186F2E350820
:101CD000603C0318C32E35087A3C031CC32E34081D
:101CE000FA00330884007A0885000008B50035083A
:101CF000403C03187F2E35085A3C0318872E3508C0
:101D0000603C0318C32E35087A3C031CC32E3208EE
:101D1000FA00310884007A0885000008B50034080C
:101D2000FA00330884007A08850020300007350265
:101D30000319AD2E3408FA00330884007A088500B0
:101D40000008B5003208FA00310884007A088500DE
:101D5000203000073502031DC32E3208FA00310877
:101D600084007A0885008008031DB92E0030F80031
:101D7000D92E3208FA003108B10A0319B20AB30A9F
:101D80000319B40A452E3208FA00310884003208DB
:101D900085000008B5003408FA00330884003408D0
:101DA0008500000835020318D72EFF30D82E0130E9
:101DB000F8002000080010302200A800F701FA0106
:101DC000A50CA40C031CEA2E2608F7070318FA0A30
:101DD0002708FA07FA0CF70CF90CF80CA80BE02E00
:101DE00020000800800803190B2F05082200A60018
:101DF0000408A500000864002000111A012F220029
:101E0000FB2E23009A002200260885002508840066
:101E100001312000F22E0800E5080319412F01309E
:101E20006502F700F70DF70DFC30F705770873072B
:101E30000C3EF8002030FA000318FA0A7808210056
:101E4000EB007A08EC006B0884006C088500000841
:101E5000ED006B0884006C0885006A086D0780003F
:101E60006C08FA006B0884006C0885000008EE001E
:101E700073082200A00021006E082200A1002000AB
:101E80005320080020302200251E3030A6002408F0
:101E9000F700A41F532FF709F70A7708A4002D3085
:101EA000A600A51725142408AA006430AB008031D1
:101EB0002000D027883177082200A400303078072E
:101EC000A7002408AA000A30AB0080312000D027E8
:101ED0008831303077072200A90030307807A80019
:101EE0002608F7003030270203197A2FA514A51B06
:101EF00025158E2F2608A7002030A6003030280296
:101F00000319862F2514A51BA5148E2F031D251438
:101F1000031D8E2F2708A8002030A7002519952F14
:101F2000A5189F2F2518A92FB32F2608640020007D
:101F3000111A9C2F2200962F23009A0022002708B6
:101F400064002000111AA62F2200A02F23009A005F
:101F50002200280864002000111AB02F2200AA2FA6
:101F600023009A002200290864002000111ABA2FC9
:101F70002200B42F23009A002000080021006708E7
:101F80000739F700670CF800F80CF80C1F30F8055B
:101F90007808680784000030693D85000008F80073
:101FA000F70AD32FF80CF70BD22F90312000B32D66
:101FB0002100DE015E08093C031CE82F5B305E0750
:101FC0008400203085000318850A8001DE0ADA2F9C
:101FD0002030B6005B30B50098312000702D9A306B
:101FE0002300910004309200803120003F25883189
:041FF0009831782D7F
:102000002200BD01BC013030BF003130C000323091
:10201000C1003330C2003430C3003530C400363024
:10202000C5003730C6003830C7003930C8006130CD
:10203000C9006230CA006330CB006430CC00653028
:10204000CD006630CE006730CF006830D0006930F8
:10205000D1006A30D2006B30D3006C30D4006D30C8
:10206000D5006E30D6006F30D7007030D800713098
:10207000D9007330DA007430DB007530DC00763064
:10208000DD007730DE007830DF007930E0007A3034
:10209000E100E2013208B7003108B6003708FA0063
:1020A000360884007A0885000008203C031D5C285F
:1020B000B60A0319B70A4E283708FA003608840012
:1020C0003708850000082D3C031970283708FA00EE
:1020D000360884003708850000082B3C031D7B2848
:1020E0003708FA003608B60A0319B70A84007A08D6
:1020F000850000087C282B30BE003E082D3C0319CB
:102100008C28B51B8C28350B86288C28B51B8E286F
:102110003508243C03188E28D7291A29B508031935
:10212000E3283508103C031DB5283708FA003608A7
:1021300084007A0885000008303C031DB528360865
:1021400084003708850001310008783C0319B12864
:10215000360884003708850001310008583C031D0B
:10216000B5280230B6070030B73D3508083C031DDE
:10217000C7283708FA00360884007A088500000866
:10218000303C031DC7280130B6070030B73D350885
:10219000023C031DE2283708FA00360884007A085A
:1021A00085000008303C031DE2283608840037080B
:1021B000850001310008623C031DE2280230B607A9
:1021C0000030B73D1A293708FA00360884007A082B
:1021D00085000008303C0319F0280A30B5001A29A0
:1021E000360884003708850001310008783C03195F
:1021F0000229360884003708850001310008583C60
:10220000031D09291030B5000230B6070030B73D74
:102210001A29360884003708850001310008623C1D
:10222000031D18290230B500B6070030B73D1A2942
:102230000830B5003708B9003608B8003708FA008A
:10224000360884007A0885000008303C031D2C29DC
:10225000B60A0319B70A1E293708FA00360884009F
:10226000370885000008E300403C03183E29630856
:102270005A3C031C3E29630820383F296308E300C9
:102280002030E500BF30E4006308E600E8013508CF
:10229000E700883120001A26903179082200BB001F
:1022A0007808BA00BA08031D5829BB080319CF29BA
:1022B000FA013508F700F71BFA03E3007A08E40097
:1022C0003D08E6003C08E5006408E8006308E70014
:1022D000660868068039EA00E61F7329E509E60901
:1022E000E50A0319E60AE81F7A29E709E809E70A77
:1022F0000319E80A1030E900F701FA01E60CE50CD1
:10230000031C88296708F7070318FA0A6808FA0700
:10231000FA0CF70CF90CF80CE90B7E29EA1F952949
:10232000F809F909F80A0319F90A7908E4007808A4
:10233000E300BF303A02F70020303B3BFA00770859
:102340006307BC007A08643DBD00B60A0319B70AEA
:102350003708FA0036088400370885000008E300D3
:10236000403C0318BA2963085A3C031CBA29630885
:102370002038BB296308E3002030E500BF30E400CB
:102380006308E600E8013508E700883120001A26D6
:10239000903179082200BB007808BA00522936082B
:1023A0003802031DE72937083902031DE7293308DE
:1023B00034040319E3293308840034088500310804
:1023C00080003208813F0030F800F900F729330817
:1023D00034040319F32933088400340885003608CF
:1023E00080003708813F3C08F8003D08F9002000D4
:1023F000080002307002F53E03180B2D0B3E0C2D29
:102400007508FF3C031D2A2A0A306400111E052AA4
:1024100023009A000D3064002000111A112A2300B5
:102420000B2A23009A00850174088400883120005B
:10243000F226903120306400111E1B2A23009A00DE
:1024400075082200A5001B30A6008831200000205E
:102450009031A32A740DF700F70DFC30F7057708CB
:102460002100EA006A0A8031200094219031FA00AC
:1024700021006A0880312000942190312100E80079
:102480007A08E900680884006908850075088000FA
:102490007408F6000130FC000C3023009100053078
:1024A000920003100A302200A4008031200073271C
:1024B000903120308500673084008831F2269031D9
:1024C00028306400111E612A23009A00740822003B
:1024D000A5001B30A6008831200000209031133069
:1024E0002300910005309200031405302200A4005F
:1024F000803120007327903175082200A5001B3021
:10250000A6008831200000209031210069081F3C7E
:102510000318A12AFF3A031D912A68080B3C0318EF
:10252000A12A6908203C031CA12A031D9B2A6808D4
:102530001B3C031CA12AEA01883120000C279031A2
:102540002100D41420000B2D740DF700F70DFC3082
:10255000F70577082100E800680A803120009421FF
:102560009031FA00210068088031200094219031D8
:102570002100E5007A08E6007408F6000130FC004E
:1025800020000B2D8031652690310B2D750BCC2A48
:1025900021006714CE2A2000210067100030671840
:1025A0000130E800E90080312000E42690310B2D55
:1025B00001302100EA00883120000C2790312100F1
:1025C000D41420000B2DFF302100EA0088312000B8
:1025D0000C2790312100D41420000B2D803194253C
:1025E0009031803139279031A5018B1BA5178B13B2
:1025F00001302300A000803120002A239031A51B48
:102600008B1778082100ED00E8016808353C031CB1
:10261000A32B2200A501210068082200A400A70125
:102620000630A60088312000DB2690317908FA00B8
:1026300078082200A4007908A500A6012408A700B4
:10264000203085009E308400260884070030853DB8
:10265000270880312000482090318000003803197D
:10266000362B2200A70AA60A202B20002100680D85
:10267000F700F70DFC30F70577082200A400240AC4
:102680008031200094219031FA002200240880310A
:102690002000942190312100EB007A08EC006C08B6
:1026A000FA006B0884006C08850000082200A40072
:1026B0005B3064002000111A5F2B2200592B23008D
:1026C0009A00210068082200A5000130A600883188
:1026D0002000002090315D306400111E6C2B23001F
:1026E0009A00203064002000111A782B2300722BEE
:1026F00023009A00203085009E308400883120001D
:10270000F226903120306400111E832B23009A00A2
:1027100022002408A5001B30A600883120000020DC
:1027200090310A306400111E922B23009A000D3064
:1027300064002000111A9E2B2300982B23009A007E
:102740002100E80A052B7430230091000430920028
:10275000031009302200A40080312000732790313B
:102760005C082200A5001B30A60088312000002054
:1027700090317930230091000430920003140D3021
:102780002200A400803120007327903161082200CC
:10279000A5001B30A6008831200000209031293090
:1027A0006400111ED02B23009A0082309100043067
:1027B0009200031010302200A40080312000732703
:1027C000903121006D082200A5001B30A600883141
:1027D0002000002090310A306400111EEC2B2300F1
:1027E0009A000D3064002000111AF82B2300F22B00
:1027F00023009A008D309100043092008031200037
:102800003F259031240016141618042C5130220054
:10281000A500803120005E2790312100E801680882
:10282000033C031C632C6808033C031D192CE901BD
:102830001B2C0130E9006908F700240015139615D8
:102840009619202C77189612771C96161616161ABB
:10285000272C1108F80078082100EA003F30EA052B
:1028600094302300910004309200031005302200C0
:10287000A4008031200073279031210068082200D5
:10288000A4001830A500883120004227903129305B
:102890006400111E482C23009A003D306400200083
:1028A000111A542C23004E2C23009A0021006A0890
:1028B0002200A4001830A500883120004227903162
:1028C0002100E80A0F2C240016151619652C21008A
:1028D000D41420000B2D01000B2D75080A3C031D9C
:1028E000732CF501782CF508031D782C0A30F500BF
:1028F00075080F392100E8006808E900690822001E
:10290000A300A40180312000F92690310C30220070
:10291000A3000130A40080312000F926903101305D
:102920002200A300A40080312000F9269031053058
:102930002200A3000130A40080312000F92690314C
:102940002100AA011030A90029082A040319AA2C81
:102950000000A42C04302200A3000130A400803128
:102960002000F92690310B2DCE302300910003304A
:10297000920003100A302200A40080312000732747
:10298000903175082200A4001830A500883120007D
:1029900042279031D430230091000330920003107D
:1029A00008302200A400803120007327903160306D
:1029B0002200A4001830A500883120004227903161
:1029C00029306400111EE12C23009A002400161403
:1029D0001618E82C60302200A500803120005E2708
:1029E000903175082200A500803120005E279031CB
:1029F0002200A501803120005E27903124001615A9
:102A00001619002D20000B2D75082200A00088311A
:102A100020004621903108000A148A100A15820706
:102A2000002AA42AC22AC62AD82AE32AEE2A6B2C14
:102A30006D2C042DB42C2100DE015E08023C031C29
:102A4000DB2D30305E078400203085000318850AB6
:102A50000008DF0033305E07840020308500031853
:102A6000850A0008E0005F08E2006008E3005E08F5
:102A7000E4006208013A2000031D512D1F3021009F
:102A800064078400203085000318850A20005C0854
:102A900021006305031D4E2D00304F2D01308000B5
:102AA0002000210061101F305E0784002030850067
:102AB0000318850A8008031961145E08803120001C
:102AC000402090312100E200003061180130F70011
:102AD00062082200A1007708A2000130A400A3012F
:102AE00088312000D9219031210062082200A10004
:102AF000A201A4018030A30088312000D9219031A7
:102B0000363021005E078400203085000318850AD6
:102B10000008DF0039305E0784002030850003188C
:102B2000850A0008E0005F08E2006008E3005E0834
:102B3000E400640880312000442090312100E60048
:102B40002200A1000130A200A4018030A30088313E
:102B50002000D921903121006608E700E901E80151
:102B600088312000BE2F903121006510781865143F
:102B70006208013A20000319C12D033A0319CF2D31
:102B8000D82D2100651CC92D63082000DE05CE2D3F
:102B900021006308FF3A0F392000DE04D82D210000
:102BA000651CD72DF21663082000E30021002000E9
:102BB0002100DE0A1D2D98312000962C2100DE0117
:102BC0005E08053C031C0F2E2A305E07840020306F
:102BD00085000318850A0008DF005F082200A000B6
:102BE000883120004621903162080339803131203C
:102BF0009031F80007302200A3007808A400883143
:102C00002000DB2090312100AA017808A9002908C2
:102C10002A0403190D2E0000072EDE0AE02D98313C
:102C20002000CC2C2100DE010130DF00E301200078
:102C300061080F395C042100E2002000E608031956
:102C4000322E2100620820006405031D322EE601A9
:102C5000E40101302100E300620820005D055E050B
:102C60000319F2162100E001E4016408033C031C8F
:102C7000662E62085F050319602E20005D085E0560
:102C800021005F0503194E2E223064078400203096
:102C900085000318850A0008E100502E0130E1008C
:102CA0006108200066020318612E21006108DE0021
:102CB00001306407E0000130E300D3002C30D20083
:102CC000200003102100DF0DE40A352EE30803196C
:102CD0009E2E3730230091000430920003101030F4
:102CE0002200A40080312000732790315C0822006C
:102CF000A5001B30A6008831200000209031403014
:102D00002300910004309200031014302200A4002C
:102D1000803120007327903161082200A5001B300C
:102D2000A600883120000020903121006008E500D5
:102D300088312000222390312100D414E2080319A5
:102D4000541498312000D32C21005F08E3005E0862
:102D5000E2006308FA00620884007A0885008008AF
:102D60000319B62EE20A0319E30AA92E6108FA0034
:102D7000600884007A08850080080319D22E600854
:102D80008400610885000008E60063088500620889
:102D9000840066088000E20A0319E30AE00A0319C6
:102DA000E10AB62E620884006308850080015E088F
:0C2DB000F8005F08F90098312000322D77
:103000002200B101B20120308500953084003108E2
:1030100084070030853D3208803120007E229831BF
:1030200080000038031919282200B20AB10A0328C7
:10303000200020302200B2004730B1002030B40020
:103040009530B300883120003B2598317908220063
:10305000B0007808AF00AF08031D3128B00803198D
:103060004B283008B4002F08B3002030B200A13044
:10307000B10034088500330884000008B500320828
:1030800085003108840035088000800803194B282A
:10309000B10AB30A3928B201B1012030B400953029
:1030A000B300883120003B25983179082200B00018
:1030B0007808AF00AF08031D6028B00803197A280C
:1030C0003008B4002F08B3002030B2006730B100E0
:1030D00034088500330884000008B50032088500F4
:1030E0003108840035088000800803197A28B10A65
:1030F000B30A6828B201B1012030B4009530B300A2
:10310000883120003B25983179082200B0007808EA
:10311000AF00AF08031D8F28B0080319B928300885
:10312000B4002F08B3002030B2009D30B100340845
:103130008500330884000008B50032088500310896
:1031400084003508800080080319A928B10AB30A51
:1031500097282030B2009D30B100B401B3010A308D
:10316000B50090312000002098317808F500BC2887
:103170002200FF30F50020002200B101B201203012
:103180008500A9308400310884070030853D32086D
:103190008031200083229831800000380319D5281F
:1031A0002200B20AB10ABF28200020302200B2005B
:1031B000A930B1002030B400A130B3008831200024
:1031C00044269831F808031DEE287508FF3C031DBE
:1031D000EC280330F000EE280230F0002200B101AC
:1031E000B20120308500A930840031088407003006
:1031F000853D3208803120008822983180000038D7
:10320000031907292200B20AB10AF1282000203050
:103210002200B200A930B1002030B400A130B300C8
:103220008831200044269831F808031D19290430FC
:10323000F0002200B101B20120308500A9308400E5
:10324000310884070030853D3208803120008E220D
:10325000983180000038031932292200B20AB10ADD
:103260001C29200020302200B200A930B1002030FB
:10327000B400A130B3008831200044269831F8080A
:10328000031D44290530F0002200B101B2012030B5
:103290008500A9308400310884070030853D32085C
:1032A00080312000972298318000003803195D2971
:1032B0002200B20AB10A4729200020302200B200C1
:1032C000A930B1002030B400A130B3008831200013
:1032D00044269831F808031D6F290830F0002200B9
:1032E000B101B20120308500A93084003108840783
:1032F0000030853D3208803120009F2298318000C7
:103300000038031988292200B20AB10A7229200064
:1033100020302200B200A930B1002030B400A1302A
:10332000B3008831200044269831F808031D9A29FB
:103330000930F0002200B101B20120308500A9302F
:103340008400310884070030853D32088031200038
:10335000A7229831800000380319B3292200B20A4D
:10336000B10A9D29200020302200B200A930B1000E
:103370002030B400A130B3008831200044269831B9
:10338000F808031DC5290A30F0002200B101B2017E
:1033900020308500A9308400310884070030853D45
:1033A000320880312000AD229831800000380319A6
:1033B000DE292200B20AB10AC829200020302200EA
:1033C000B200A930B1002030B400A130B300883180
:1033D000200044269831F808031DF0290C30F00035
:1033E0002200B101B20120308500A93084003108EB
:1033F00084070030853D320880312000B2229831A8
:10340000800000380319092A2200B20AB10AF32900
:10341000200020302200B200A930B1002030B400DA
:10342000A130B3008831200044269831F808031DEC
:103430001B2A0B30F0002200B101B20120308500C0
:10344000A9308400310884070030853D320880317E
:103450002000B9229831800000380319342A220054
:10346000B20AB10A1E2A200020302200B200A93080
:10347000B1002030B400A130B300883120004426D0
:103480009831F808031D462A0630F0002200B101E9
:10349000B20120308500A930840031088407003053
:1034A000853D320880312000BC22983180000038F0
:1034B00003195F2A2200B20AB10A492A20002030EB
:1034C0002200B200A930B1002030B400A130B30016
:1034D0008831200044269831F808031D712A0730EE
:1034E000F000FF30F4002100DE015E08353C031CD3
:1034F000BD2A2200A50121005E082200A400A70128
:103500000630A60088312000DB2698317908FA00C1
:1035100078082100E5007908E600E7016508E80081
:10352000203085008F308400670884070030853D97
:103530006808803120004820983180000038031945
:10354000A62A2100E80AE70A902A2000203022005B
:10355000B2006730B1002030B4008F30B300883142
:10356000200044269831F808031DBA2A21005E087D
:10357000F40020002100DE0A752A7408FF3C031DB8
:10358000252B20302200B2006730B100B401B30116
:103590000A30B50090312000002098317808F500FD
:1035A0002100E501E601203085008F3084006508A8
:1035B00084070030853D6608803120006D229831F7
:1035C000800000380319E92A2100E60AE50AD32A17
:1035D000200020302200B2006730B1002030B4005B
:1035E0008F30B3008831200044269831F808031D3D
:1035F000FB2A0130F5002100E501E60120308500BD
:103600008F308400650884070030853D660880316E
:10361000200075229831800000380319142B2100F6
:10362000E60AE50AFE2A200020302200B2006730B8
:10363000B1002030B4008F30B30088312000442620
:103640009831F8080319F501210090312000F92183
:10365000983198318D2CF501F0012100E001053001
:10366000E10060086102031C5A2B6008093C031C3E
:103670005A2B64146008E30063086102031C592B91
:103680005B3063078400203085000318850A00083A
:103690000F39E2005B306307840020308500031897
:1036A000850A001E641062080C3C03196410E30ACA
:1036B0003C2B5B2B6410003064180130F800F808D4
:1036C0000319522C2B080F39E1002200A3000A3005
:1036D000A40088312000DB20983178082100E00028
:1036E0002C080F396007DE002D080F39E100220099
:1036F000A3000A30A40088312000DB20983178082C
:103700002100E0002E080F396007F0002F080F3964
:10371000E1002200A3000A30A40088312000DB2051
:10372000983178082100E00030080F396007F40074
:103730000630DF005F08E00060080A3C031CBA2B7B
:103740005B3060078400203085000318850A001E66
:10375000B82B5B3060078400203085000318850A91
:1037600000080F390C3C0319B82B0130E100B92BCC
:10377000E101BB2BE1016108F800F8080319D92B1E
:1037800075082200A3000A30A40088312000DB2045
:10379000983178082100E0005B305F07840020301A
:1037A00085000318850A00080F396007F500DF0A55
:1037B0009A2B70080A3A20000319E42B0E3A0319D9
:1037C000E42B013A031DE62B7408F50005302300B5
:1037D000910004309200803120003F259831133051
:1037E000230091000430920003100E302200A40048
:1037F000803120007327983121005E082200A50047
:103800001B30A60088312000002098311C30230096
:1038100091000430920003100E302200A400803189
:1038200020007327983170082200A5001B30A600E5
:103830008831200000209831253023009100043089
:10384000920003100E302200A40080312000732764
:10385000983174082200A5001B30A6008831200092
:10386000002098312E302300910004309200031084
:103870000E302200A4008031200073279831750893
:103880002200A5001B30A6008831200000209831BE
:10389000600821005E02031D522C90312000F921A6
:1038A00098312100541498312000692D850184013C
:1038B0001F3083057230210099008E150E162400EA
:1038C0001710971097111330920028309500941715
:1038D00014130C3023009B00A2309E0090309D00FA
:1038E0002100D601D5012F00910192019801990183
:1038F0009A0123008C018D018F0190012200920119
:103900009101940193012000A601A70188318D2C1B
:1039100098316400721C912C002880312525983143
:1039200072106400721DC82C90311B2D983121003B
:10393000520853040319A12C52080319D303D203CC
:10394000B62C2000DC080319B72C2100E5018831D2
:103950002000222398311830230091000530920076
:10396000803120003F2598312100D41420006400CC
:10397000FD080319BD2CFD03C72C3C30FD00FE08DB
:103980000319C42CFE03C72C72161E30FE007211E0
:10399000721ECF2C9031DE2D983172126400F21C11
:1039A000D52C9031122E9831F210F21F662D210085
:1039B000DE01DF01203085006D3084005E08840761
:1039C0000030853D5F0880312000BF2298318000A3
:1039D00000380319F02C2100DF0ADE0ADA2C20005F
:1039E00021302300910005309200803120003F25D6
:1039F00098312100D7015708093C031C462D5B3044
:103A000057078400203085000318850A001E442DC6
:103A10005B3057078400203085000318850A0008B2
:103A20000F39D8002030D6008930D5005808220040
:103A3000A0001830A10088312000B3229831203036
:103A40002200A60080312000E72798312030210095
:103A5000DF006D30DE002030E1008930E000903181
:103A60002000A42E983120306400111E342D230034
:103A70009A00210058082200A5001B30A6008831BA
:103A80002000002098312100D70AFB2C0A30640066
:103A90002000111A4D2D2100472D23009A000D30D2
:103AA00064002000111A562D2300502D23009A0087
:103AB000F2132100D41402302200A0002030A20012
:103AC0006D30A100883120007B229831721F6A2D51
:103AD0002B2B72132100541C732D88312000D82FFA
:103AE000983121005410D41C7B2D88312000EF2FF9
:0C3AF00098312100D4102000892C6300C4
:083FB800AA346A345A3456346D
:103FC000553455349534A534A934AA346034953425
:103FD0009934943440345934A434553450346A34C8
:103FE00098346534A0349034A8346934A6346434E9
:103FF0005434803458345634683496349A34A53462
:020000040001F9
:04000E00FC0FFF1EC6
:00000001FF
;PIC16F1937
;CRC=E46B  CREATED="07-Mar-14 16:28"
