:0600000098310E2F0000F4
:0800080083018A012000770842
:10001000A0007808A1007908A2007A08A3007B0854
:10002000A4008B1D15280B182B288B1E19280B19C3
:100030002D28850191308400801E2028911A2F28B8
:100040002008F7002108F8002208F9002308FA0028
:100050002408FB0009008031482B8031612B80315E
:10006000EB2A0B0060346134623463340B00643477
:100070006534803481340B007134753482340B0064
:100080006E346F3470340B00423420340F3401343A
:10009000443420340F3403340C34203420340334FB
:1000A0000D342034203403340E342034203403340F
:1000B0000F342034203403341034203420340334FB
:1000C00011342034203403341234203420340334E7
:1000D00013342034203403341434203420340334D3
:1000E00015342034203403341634203420340334BF
:1000F00017342034203403341834203420340334AB
:1001000019342034203403341A3420342034033496
:100110001B342034203403341C34203400340134A4
:100120001D342034003401341E34203400340134B2
:100130002234203400340134233420340134013497
:10014000243420340134013425342034043403347D
:100150002634203406340334273420340634033460
:100160002834203402340334293420340F34033447
:100170002A3420340F3403342B3420340F34033426
:100180002C3420340F340334453420343E340334CB
:1001900046342034123403342D3420341F340334D5
:1001A0002E3420340E3403342F34203402340334FC
:1001B000303420341B340334313420340E340334CF
:1001C00032342034113403343334203401340334D2
:1001D00034342034003403343534203400340334D0
:1001E000363420343F34033437342034003403347D
:1001F00038342034003403343934203404340334A4
:100200003A342034033403343B3420340034033490
:100210003C342034283403343D3420340B3403344C
:100220003E34203400340334473420340034033463
:1002300048342034053403344D342034003403343E
:100240004F3420340034003460342034003402341D
:100250000B0065346534703472346F346D3400349F
:100260000B00643465346634613475346C34743432
:1002700000340B00443454344D3446343A340034A2
:100280000B0020342C343B340D3400340B00733419
:100290006534743400340B005334413456344534DF
:1002A00000340B0052344534533454344F345234F8
:1002B000453400340B007334743461347434753451
:1002C000733400340B007234653462346F346F342D
:1002D000743400340B00643400340B00693432345D
:1002E000633400340B006D346F347234733465340E
:1002F00000340B002B3400340B002D3400340B0081
:100300006E3400340B00433450344F3454340034D2
:100310000B00613464346D3469346E340034453418
:100320004E34003400340034003450344F344C34F4
:100330000034003400345234313447343134003422
:1003400000345234313447343234003400345234BF
:100350003134473433340034003452343134473488
:1003600034340034003452343234473431340034BD
:10037000003452343234473432340034003452348E
:100380003234473433340034003452343234473456
:10039000343400340034523433344734313400348C
:1003A000003452343334473432340034003452345D
:1003B0003334473433340034003452343334473424
:1003C000343400340034523434344734313400345B
:1003D000003452343434473432340034003452342C
:1003E00034344734333400340034523434344734F2
:1003F0003434003400345834493431340034003457
:100400000034583449343234003400340034583421
:100410004934333400340034003458344F343134E8
:1004200000340034003458344F3432340034003453
:10043000003458344F3433340034003400345234F0
:1004400031345034003400340034523432345034B7
:100450000034003400345234333450340034003427
:1004600000345234343450340034003400345234C4
:1004700031345034543454340034523432345034DF
:1004800054345434003452343334503454345434A7
:1004900000345234343450345434543400345334EB
:1004A000493444340034003400345434583449342A
:1004B0004434003400344D34523453343134003435
:1004C00000344D34523453343234003400344D341B
:1004D000523453343334003400344D3452345334B2
:1004E0003434003400344D34523453343534003411
:1004F00000344D34523453343634003400345834DC
:100500004F344F3431340034003458344F344F3486
:1005100032340034003458344F344F3433340034E0
:10052000003458344F3441343134003400345834BA
:100530004F34413432340034003458344F34413471
:10054000333400340034583449344F3431340034B7
:100550000034583449344F34323400340034583481
:1005600049344F343334003400345834493441343E
:100570003134003400345834493441343234003496
:100580000034583449344134333400340034543462
:10059000413449344C340034003454344F345434EE
:1005A0000034003400344C3454344F3400340034BC
:1005B000003443344F345234003400340034433474
:1005C00050344F34543400346400111EE42A2300A4
:1005D0009A0020000800911E422B6400911EED2A13
:1005E000230019082200D8005808083C031D202BBE
:1005F000FC0803191A2BFC0350307C0784002030C0
:1006000085000318850A800108302000E4221B3091
:10061000E4225B306400111E0A2B23009A004B3049
:1006200064002000111A162B2300102B23009A00BF
:100630001E2B220007302000E4222300442B22003E
:100640007C080F3C031C3F2B58082000E4227C0848
:10065000FC0A503E8400203085000318850A2200E1
:100660005808800058080D3C03193D2B58082B3CB6
:1006700003193D2B58082D3C03197D14432B0730DB
:100680002000E42222002300200091128031202843
:10069000270016080F390319502B7D15F0309605E9
:1006A0000B1C562B21006217270016120B1C5D2B0A
:1006B0002100E2143F30270096050B108031200006
:1006C000202821003108320403196B2B310803194B
:1006D000B203B103712B7D15FD16E214B2011E3079
:1006E000B100330834040319792B33080319B40318
:1006F000B3030B11803120002028491943103A1010
:10070000CE37A020C3252033F2376D10CC21441002
:100710003A10A53A00005039EF31E539F334EE33A1
:10072000A021EF36ED306E323A002010D334F4328F
:1007300049222010201DA01275002010C337ED366D
:1007400061376410201DA012301975002010413946
:10075000E73AED326E3A201DA01275002010D63017
:10076000EC3A65102010201DA012750049194310A5
:100770003D1FA01264005B183B1848004919431044
:100780003A10A120C3250001D0377414A53A291EC0
:10079000BD127500C327521DA5392028542ABA124C
:1007A0007300C327521DA53AA020753C4937BA12E1
:1007B0007500442A4D23BA12750049194310453972
:1007C000F23772103A10CE37A020C3252033F2370B
:1007D0006D105429C926D027D429201DA0127500D8
:1007E000D027541DA5312532A012E3126410A53183
:1007F0002532A012E31264004122CD244E1F2000B6
:10080000C327CD264127441F2000442A4D233D0005
:100810004937693A2029C126201E3D100001C52212
:100820005029CF260001C82B20226533E13A6C3ACB
:100830007300C5225029CF26BC1ED2204D00202196
:100840006132A031E832E335F33AED100000A5390A
:10085000A812F514201E3D10A53A00002310502ABE
:100860005410D434ED32EF3AF4100A002310CC3493
:10087000EE35202A4F2A2105000010302100E90022
:10088000E8016908680203184F2C5030680784009B
:10089000203085000318850A8001E80A412CFC01FC
:1008A0007D10FF30C200C401F001200008000A30B2
:1008B000E4220D30E42208000B082200C5008B134F
:1008C0002300951715140000000013087F39031941
:1008D000AC2C2200C600230011082200C700230010
:1008E00012082200C800460864002000111A7A2C61
:1008F0002200742C23009A00220047082300910054
:1009000022004808230092009517151400000000EB
:10091000130D140D7F390319AC2C2200C6002300DF
:1009200011082200C700230012082200C800460850
:1009300064002000111A9E2C2200982C23009A009B
:10094000220047082300910022004808230092005B
:10095000910A0319920A612C2200C51B8B172000F3
:10096000080022003A0884003B0885000008BD000A
:100970003D087F3C031CBD0A03103D0D093A3C07AE
:10098000BD003A0884003B0885003D088000200037
:10099000080001302200B400B501B7002000572440
:1009A0000830230091000430920020005C242200D3
:1009B000300BE32C0F302300910004309200200014
:1009C0005C24EA2C220013302300910004309200B2
:1009D00020005C242200B1013108383C031C492D61
:1009E000310DF700F70DFC30F7057708B900390A2B
:1009F00020004320FA002200390820004320220072
:100A0000B2007A08B300300B352D310DF700F70D29
:100A1000FC30F7057708033E20004320F8007818E3
:100A2000132D2200352D2200350823009100951347
:100A3000151413082200B80032088400330885001A
:100A4000380880003308FA00320884003308850033
:100A50000008B9002030BB00B430BA003908BC002F
:100A60002000B1242200B50A472D310DF700F70D03
:100A7000FC30F7057708023E20004320F8002200F2
:100A8000B600320884003308850036088000B10AB9
:100A9000EC2C300B552D35082300910095131514BF
:100AA000130822003402031DB7013708F8002000A4
:100AB000080001302200B400B101B0013008383C18
:100AC000031CB72D300DF700F70DFC30F705770844
:100AD000B600360A20004320FA0022003608200023
:100AE00043202200B2007A08B300300DF700F70D62
:100AF000FC30F7057708033E20004320F800781CFF
:100B0000B42D220032088400330885000008B500A7
:100B100031082300910095131514130822003502A3
:100B20000319A92D0B08F7008B133108230091003E
:100B300022003508230093009513151555309600B3
:100B4000AA30960095149518A32D151177088B04DB
:100B500022002030BB00B430BA003508BC002000B1
:100B6000B1242200B10A20002200B00A5E2D0B0839
:100B7000F7008B1331082300910022003408230072
:100B800093009513151555309600AA3096009514CC
:100B90009518C82D151177088B042000572419309B
:100BA000230091000430920020005C240800220001
:100BB0002F08B0002000C924F808031DEC2D57248D
:100BC0001F30230091000430920020005C2422009A
:100BD000B0012000C92459250800003021008F00F1
:100BE0002200471045080F390139031D47144718E3
:100BF000FB2D0F10FC2D0F14471045080F3902393B
:100C0000031D47144718062E8F10072E8F14471008
:100C100045080F390439031D47144718112E0F11C9
:100C2000122E0F15471045080F390839031D4714B8
:100C300047181C2E8F111D2E8F15C608031D222E3E
:100C40000F13232E0F17242E8F12262E8F16282EC9
:100C50000F3021008F00200008000F3021008F008E
:100C60002200BD08031D362E0F13372E0F1700006C
:100C70000F12000020000F082200BE000F30BE053A
:100C80000F1600003E08F80020000800240095130D
:100C90002000911122005208240091000230951B7F
:100CA000582E2000911D522E00302400161B0130BA
:100CB000F800200008000B082200D3008B1323004B
:100CC000951715140000000003188F2E13087F39A4
:100CD0002200D400230011082200D50023001208AE
:100CE0002200D600540864002000111A792E220038
:100CF000732E23009A002200550823009100220041
:100D000056082300920095171514000000002200D9
:100D1000D20B8B2E8D2E23008F2EB42E2300130D7D
:100D2000140D7F392200D400230011082200D500C1
:100D3000230012082200D600540864002000111A73
:100D4000A32E22009D2E23009A0022005508230086
:100D500091002200560823009200910A0319920A7A
:100D600003102200D20B5F2ED31B8B17200008002C
:100D700022005508F80154020318C12E5408F70048
:100D8000CD2EF7010830D600D40DF70D55087702A7
:100D90000318F700F80DD60BC42E200008007808C1
:100DA00022005208D4006430D5002000B82677080D
:100DB0002200D20078083030031DE52ED31CF32E1C
:100DC000D319F32E531A2030E82ED3115312531493
:100DD000F807780864002000111AF02E2200EA2E8D
:100DE00023009A0022005208D4000A30D5002000C7
:100DF000B82677082200D20078083030031D062F6D
:100E0000D319112F531C112F531A2030F8077808CB
:100E100064002000111A0E2F2200082F23009A00D0
:100E200022003030D207520864002000111A1A2F15
:100E30002200142F23009A00200008002200410EF7
:100E4000C300C30DC30DC030C30542083F39C307FB
:100E50002400161416182A2F50302200D200200029
:100E6000462678082200441078184414441C422F67
:100E700020005724BE302300910003309200200050
:100E80005C2422004308D2002000462624001615C8
:100E90001619482F20005724C43023009100033036
:100EA0009200031004302200D20020005B262200B2
:100EB0004108D2001B30D3002000CF262930640027
:100EC000111E5F2F23009A003C3064002000111A8D
:100ED0006B2F2300652F23009A003D306400200013
:100EE000111A742F23006E2F23009A00220042084B
:100EF000D2001B30D3002000CF2608002030850010
:100F0000CC30840000080319962F0230F800BF305F
:100F1000F7006400F70B892FF80B872F9630F70046
:100F2000F70B902F932F6400800B852F0800220071
:100F30004708F70003102300951715140000000060
:100F400013088000840A910A0319920AF70B9D2F57
:100F50002000080001302200C500C6012000ED2558
:100F60000C302200C5000130C6002000ED25053000
:100F70002200C5000130C6002000ED25053022000A
:100F8000C5000130C6002000ED252100B40102306B
:100F9000B300330834040319CF2F0000C92F0430E5
:100FA0002200C5000130C6002000ED2564000800C5
:100FB000220042080739F700420CF800F80CF80C40
:100FC0001F30F8057808440784000030453D85004F
:100FD000F801F80AF70AED2FF80DF70BEC2FC3080C
:100FE0000319F52F78088004F82FF8097808800590
:040FF00020000800D5
:1010000001302200C500C60180312000ED25883165
:101010000C302200C5000130C60080312000ED25D3
:10102000883105302200C5000130C6008031200023
:10103000ED25883105302200C5000130C600803121
:101040002000ED2588312100B4010630B3003308BB
:10105000340403192D280000272804302200C5007D
:101060000130C60080312000ED2588316400080081
:10107000DB3022004107C5001F30C6000318C60A36
:1010800046082300920022004508230091002030EA
:101090008500C230840001302200C700803120006A
:1010A00097278831210065142200C3014308033CBF
:1010B000031C822844144208C039403A2000031916
:1010C0006528C03A031969286B288031AA2788311E
:1010D0006E2800206E282200441020002200C20D3D
:1010E000C20DFC30C205441C80282100B40102302E
:1010F000B3003308340403197F2800007928220044
:10110000C30A56284108093C031C93284108043CA3
:10111000031C8E282000002092282200803120000D
:10112000AA278831220020000800210067088500D6
:1011300066088400220052081A0080012100E60A95
:101140000319E70A200008000B082200CD008B13CA
:10115000230095171514000000000318D328130866
:101160007F392200CE00230011082200CF00230087
:1011700012082200D0004E08D20020009520220044
:101180004F08230091002200500823009200951779
:101190001514000000002200CC0BCF28D12823001A
:1011A000D328F3282300130D140D7F392200CE001D
:1011B000230011082200CF00230012082200D000D3
:1011C0004E08D2002000952022004F0823009100F5
:1011D0002200500823009200910A0319920A03107A
:1011E0002200CC0BA828CD1B8B17200008008008FC
:1011F00003190B2905082200C2000408C1000008D9
:10120000D200200095202200420885004108840079
:1012100001312000F72808002400161416180E29A2
:10122000031022004C0D0E396038CF004F08D20059
:101230008031200046268831780822005010781826
:101240005014501C49292100E51D472980312000F8
:10125000572488310030220050180130D1007D30F1
:101260002300910003309200031018302200D200B6
:10127000803120005B26883122005108D2001B30CB
:10128000D30080312000CF2688312100E5114B2981
:1012900022002100E51522004E08FA004D088400C6
:1012A0007A0885008008031968294E08FA004D085D
:1012B000CD0A0319CE0A84007A0885000008D100FF
:1012C000D200803120004626883121004B2922009F
:1012D000D2018031200046268831240016151619C7
:1012E0006F2920000800203022004D1E3030CE0033
:1012F0004C08F700CC1F8429F709F70A7708CC00BF
:101300002D30CE00CD174D144C08D4006430D500DC
:1013100080312000B826883177082200CC00303098
:101320007807CF004C08D4000A30D5008031200067
:10133000B8268831303077072200D1003030780766
:10134000D0004E08F70030304F020319AB29CD14FE
:10135000CD1B4D15BF294E08CF002030CE003030B8
:1013600050020319B7294D14CD1BCD14BF29031DFD
:101370004D14031DBF294F08D0002030CF004D1958
:10138000C629CD18CB294D18D029D5294E08D20011
:101390002000952022004F08D20020009520220036
:1013A0005008D2002000952022005108D2002000D1
:1013B0009520080080080319F32905082200CD00B4
:1013C0000408CC00000864002000111AE92922005A
:1013D000E32923009A0022004D0885004C08840070
:1013E00001312000DA29080020302200C400C500A5
:1013F000C600C700C801C901CA01CB012830CC0012
:10140000803120007E278831240016141618062A01
:1014100051302200D20080312000462688317808E1
:101420002200C3107818C314C1014108033C031CF7
:10143000542A4108033C031D1F2A4310202A431449
:10144000003043180130CC004C08F700240015137D
:1014500096159619292A77189612771C961616163D
:10146000161A302A1108F80078082200C2003F300E
:10147000C205C83041078400203085000318850A62
:101480004208800021003008033922004102031D78
:10149000522AC43041078400203085000318850A91
:1014A0002A308000C10A152A240016151619562A5A
:1014B00032302200CC00803120007E27883122008B
:1014C000C31C822A8031200057248831003022003A
:1014D00043180130CC00DD3023009100033092002E
:1014E000031023302200D200803120005B26883197
:1014F00022004C08D2001B30D30080312000CF26C0
:101500008831220020302100E7007A30E600F030F8
:101510002300910003309200031004302200CC001D
:101520002000A42022004408D200200095202200A0
:101530004808CC001830CD00200073212030220054
:10154000D2002000952022004508D20020009520DE
:1015500022004908CC001830CD0020007321203033
:101560002200D2002000952022004608D200200050
:10157000952022004A08CC001830CD0020007321AD
:1015800020302200D2002000952022004708D200FF
:101590002000952022004B08CC001830CD00200000
:1015A00073212200CC012030CE007A30CD00200003
:1015B0000C21803157248831203085007A30840016
:1015C000DA21080030302200B600B700B800B900B8
:1015D000BA01BB00BC00BD00BE00BF013008F50071
:1015E000B0080319042B01303002293E840020305A
:1015F00085000318850A0008C10020006208630501
:1016000022004105B500472BB5012100621C482B83
:101610006210F308031D0F2BF2080319482B640016
:1016200004302200C100FA30CC00803120007E2737
:1016300088312200C10B132BF3080319312B7308D7
:10164000C10020003820F301640002302200C100F4
:10165000FA30CC00803120007E2788312200C10B77
:10166000282BF2080319462B7208C10020003820ED
:10167000F201640002302200C100FA30CC00803157
:1016800020007E2788312200C10B3D2B6400210001
:1016900001302200B400B1013108033C031CB82B17
:1016A000B008031D562B4010C010652B01303107C8
:1016B0003002031D5F2B40143408F400602B4010EF
:1016C000C01035083405031DC014310880312000D6
:1016D000312088312200C100003040180130F7006D
:1016E0004108C2007708C3000130C500C401803141
:1016F0002000D827883122004108C200C301C5015B
:101700008030C40080312000D82788312200310881
:1017100080312000362088312200C1000030C018FE
:101720000130F7004108C2007708C3000130C5004E
:10173000C40180312000D827883122004108C2002E
:10174000C301C5018030C40080312000D827883112
:101750002200C01CB42BBB30310784002030850030
:101760000318850A313080000310B40DB10A4C2BE8
:10177000B008031DBD2BF601EB2B01303002253ED6
:101780008400203085000318850A0008F600B201A5
:101790003208033C031CE82B01303002F700F70D40
:1017A000F70DFC30F705770832070C3E8400203037
:1017B00085000318850A0008B3003208C100330809
:1017C000C200803120001E2788312200B20AC82BB7
:1017D00021006514220001303002B63E8400203022
:1017E00085000318850A3130800020302100E70091
:1017F0007A30E600CA3023009100033092000310D3
:1018000004302200CC002000A42020308500B63017
:101810008400F720CD3023009100033092000310A4
:1018200005302200CC002000A42020308500BB30F1
:101830008400F72001302200CC002030CE007A3026
:10184000CD0020000C2132302200CC00803120005D
:101850007E278831F42108002100E5102200C2080B
:101860000319352C2100E51422002100E51C3D2C34
:101870000A30F300FF30FE003F2C1830F300200048
:10188000080080313D2488312200920191019401A9
:101890009301173021009700FD107D112000E00119
:1018A000EF01F10121006210E21262132000EA014F
:1018B0002100B501F401F601F501B001FF30660029
:1018C00000308F00101090101011901591168B158C
:1018D000CF302700940495048B1515161412C030D0
:1018E0008B0422008F138F160F160F130130AF00D9
:1018F00080312000D725883122000F168F160F1354
:10190000C5010130C60080312000ED25883122005C
:10191000C5010130C60080312000ED2588310C3032
:101920002200C5000130C60080312000ED2588313D
:1019300001302200C500C60080312000ED2588312D
:1019400001302200BD00803120002D268831210089
:10195000E2170F302000E30064080F39C03824007C
:101960008D00210095139D306700803065002200B6
:10197000C101C201803120001E27883101302200C0
:10198000C100C201803120001E27883102302200B0
:10199000C100C201803120001E278831033022009F
:1019A000C100C201803120001E2788312100B20110
:1019B0001E30B1001508C039073895008B1622007B
:1019C000B0012000E2221D302100E4003B30E300A2
:1019D000FD137D13651420006708F200F301BF01B9
:1019E000C001C1012100E2102000E1012200C2017A
:1019F00020002C2421006511E1011E169E161E13E5
:101A00009E131D141E109E101E11003023008C000A
:101A1000900020308D0000308F003430F80021001D
:101A20001D08833978049D0098312000412F210042
:101A300030080339EC00200060086F040F392100E2
:101A4000EA008C1720008C1B312DFD112100680845
:101A5000083C0319FD156808083C0318E80A342DF2
:101A600020002100E801FD1120009019432D7D1276
:101A700021006908083C03197D166908083C031811
:101A8000E90A462D20002100E9017D126108003A93
:101A900020000319522D103A0319592D1F3A03192A
:101AA000692DD92DFD1D582D10302100E100200099
:101AB000DC2D21009D149D185B2D1C0CDF00DF0C1C
:101AC0003F30DF055F08E0000F30E1002000F42127
:101AD000DC2D2100EA0803199E2D9D149D186E2D02
:101AE0001C0CDF00DF0C3F30DF055F083F3CEB00E4
:101AF00060085F0203199C2D651530082200C100A3
:101B000021006B082200C200803120001E2788318E
:101B1000F42101307502F700F70DF70DFC30F705E1
:101B2000770821006C070C3E8400203085000318E4
:101B3000850A6B08800065115F08E0007D1EA72DF7
:101B4000013030070339B0002000F4212100FD1DD1
:101B5000B12D20009019AF2D8031592588312100F9
:101B6000E101E211320CFA00310CF900FA0CF90C27
:101B7000FA0CF90C7908ED00E1080319CD2D3108B4
:101B80000439F700FA0177087A040319CD2DE21120
:101B9000013030076D02031CE215E219D32D22003B
:101BA0000C13D52D210022000C1721000C1320004E
:101BB000DC2D2100E101200064009831452F220036
:101BC000410842040319E82D4208FA004108ED2DAE
:101BD00020002708FA0026082200C5007A08C6005F
:101BE0004608CA004508C9004408CC004308CB0099
:101BF0004A08CE004908CD004E08FA004D0884007E
:101C00007A08850080080319362E4C08D0004B084E
:101C1000CF005008FA004F0884007A088500800839
:101C2000031D1C2E49084D02F7004A084E3BFA00DE
:101C30007708F8003E2E2E2E4E08FA004D0884003C
:101C40007A0885000008D1005008FA004F08840087
:101C50007A088500000851020319322ECF0A0319B1
:101C6000D00A092ECD0A0319CE0AFC2D49084D02CF
:101C7000F7004A084E3BFA007708F8007808C507D5
:101C80000030C63D4608FA00450884007A08850001
:101C90008008031D572E2000260884002708850091
:101CA000203080000030F800F900BC2E22004608E9
:101CB000CA004508C9004408CC004308CB004A08C4
:101CC000CE004908CD004E08FA004D0884007A087D
:101CD000850080080319982E4C08D0004B08CF00CF
:101CE0005008FA004F0884007A088500800803191C
:101CF000942E4E08FA004D0884007A0885000008EA
:101D0000D1005008FA004F0884007A0885000008C6
:101D10005102031D902E4D08F8004E08F9009B2E2D
:101D2000CF0A0319D00A702ECD0A0319CE0A632EEA
:101D30000030F800F9007908C8007808C7004808A2
:101D4000FA00470884007A08850080080319B02E3D
:101D500047088400480885008001C70A0319C80A9B
:101D600048082000A700220047082000A600220003
:101D70004508F8004608F90020000800F701F801BE
:101D80002200450803104618F707F70CF80CC61890
:101D9000F707F70CF80C4619F707F70CF80CC619FB
:101DA000F707F70CF80C461AF707F70CF80CC61AE9
:101DB000F707F70CF80C461BF707F70CF80CC61BD7
:101DC000F707F70CF80C200008002200C301C4013B
:101DD0004308410784000030423D85008008031914
:101DE0001A2F4308410784000030423D8500000857
:101DF0002F3C03181A2F4308410784000030423D4E
:101E000085000008393C031C1A2F4408C5000A301D
:101E1000C6002000BE2678082200C50043084107FE
:101E200084000030423D8500303000024507C40088
:101E3000C30AE82E4408F800200008002200C5016B
:101E40004508410784000030423D85000008DF3925
:101E5000C6004508430784000030443D8500000863
:101E6000DF394602031D422F450841078400003038
:101E7000423D85008008031D402F0030F800442FAC
:101E8000C50A202F0130F800200008001030220081
:101E9000C300F701FA01C00CBF0C031C552F410809
:101EA000F7070318FA0A4208FA07FA0CF70CF90CBC
:101EB000F80CC30B4B2F200008002200C101410881
:101EC000053C031C862F41083D07F80000303E3DCD
:101ED000FA007808C2007A08C30041083F07F800FA
:101EE0000030403DFA007808230091007A08920003
:101EF000220043088500420884000130C700803179
:101F00002000972788312200C10A5F2F2000080097
:101F10002100E51C8D2FFF30FE00E518932F651979
:101F2000932F0030942F0130F8002000080021008A
:101F3000300803392200B500F5080319D62F013007
:101F40007502F700F70DF70DFC30F7057708350738
:101F50000C3EF8002030FA000318FA0A7808B200A4
:101F60007A08B30032088400330885000008B40002
:101F700032088400330885003108340780002000CF
:101F80008827F8080319D52F22003308FA003208F1
:101F90008400330885000008B6003508C100360803
:101FA000C200803120001E27883122002000F42149
:101FB000080021006C080739F7006C0CF800F80CD9
:101FC000F80C1F30F80578086D07840000306E3D6E
:101FD00085000008F800F70AEE2FF80CF70BED2F3C
:061FE00090312000252DC8
:10200000780822002F08D4006430D50080312000E9
:10201000B826903177082200AF0078083030031DD1
:102020001828B01C2328B0192328301A20301B2868
:10203000B01130123014F8077808D200883120002F
:102040009520903122002F08D4000A30D50080312D
:102050002000B826903177082200AF007808303091
:10206000031D3828B0194028301C4028301A203071
:10207000F8077808D200883120009520903122009E
:102080003030AF072F08D2008831200095209031E2
:1020900008002100E51C5F280A3080312000E4227E
:1020A0009031803157249031FC302300910003306F
:1020B0009200803120005C249031702821000A3089
:1020C00080312000E422903180315724903100305B
:1020D0002300910004309200803120005C24903174
:1020E000080001302200B00088312000E222903147
:1020F00004302200B000FA30CC00803120007E276E
:1021000090312200B00B7B28AE012E08053C031C49
:10211000A5282D302E078400203085000318850A5D
:102120000008AF002F08C10088312000382090310E
:102130002100B4010630B300330834040319A22887
:1021400000009C282200AE0A85280430B000FA3036
:10215000CC00803120007E2790312200B00BA728D0
:10216000FD1420000800803157249031F008031935
:102170002B298031572490318B302300910003307C
:102180009200803120005C249031803157249031BE
:102190009530230091000330920003100D3022008F
:1021A000D200803120005B26903165082200D200E9
:1021B0001B30D30080312000CF269031803157244E
:1021C00090319D30230091000330920003100D30B8
:1021D0002200D200803120005B269031700822005E
:1021E000D2000130D30080312000CF2690318031E1
:1021F00057249031A6302300910003309200031041
:102200000D302200D200803120005B269031210069
:1022100042082200D2001B30D30080312000CF269C
:102220009031803157249031AE302300910003303B
:10223000920003100D302200D200803120005B2676
:102240009031210043082200D2001B30D30080319E
:102250002000CF26903102307002F53E0318EE2C9C
:102260000B3EEF2C21004308FF3C031D5529803114
:1022700020005724903185012100420884008831D4
:102280002000DA21903120306400111E44292300FF
:102290009A00210043082200D2001B30D300803175
:1022A0002000CF269031EB292100420DF700F70DD9
:1022B000FC30F70577082200B100310A8031200098
:1022C00043209031FA002200310880312000432061
:1022D00090312200AE007A08AF00883120008827B4
:1022E0009031F808031D83292100420DF700F70DF6
:1022F000FC30F7057708033E803120004320903101
:10230000F800F8188C2922002E0884002F08850078
:10231000210043088000200022002E0884002F089E
:1023200085000008B0008031200057249031203013
:102330008500743084008831DA21903128306400BF
:10234000111E9F2923009A00210042082200D2007A
:102350001B30D30080312000CF269031293023005C
:10236000910004309200031405302200D200803125
:1023700020005B26903122003008D2001B30D300B1
:1023800080312000CF26903122002F081F3C0318F7
:10239000DA29FF3A031DD0292E080B3C0318DA294D
:1023A0002F08203C031CDA29031DE2292E081B3CC0
:1023B0000318E2292E08603C031DE8292F08203C61
:1023C000031DE829B10188312000972790312200B0
:1023D000210065142000EE2C2100420DF700F70DBE
:1023E000FC30F70577082200AE002E0A803120006D
:1023F00043209031FA0022002E0880312000432033
:1024000090312200A2007A08A3000130FA008F3038
:10241000AE007A08AF00B101210042082200B000EE
:102420003108C0003008BF00C2010630C100883149
:10243000200046279031780822002E07A600790850
:102440002F3DA7002030BE00A830BD002708C000E7
:102450002608BF00883120005D2790312200230824
:10246000FA0022088400230885000008AE0020300E
:102470002100E7007A30E6005B302200D20088318C
:10248000200095209031210042082200AF00013049
:10249000B000200000205D302200D20088312000F2
:1024A0009520903120302200D200883120009520E4
:1024B000903120308500A83084008831F720903199
:1024C00020302200D2008831200095209031220057
:1024D0002E08AF001B30B000200000200A30220080
:1024E000D20088312000952090310D302200D2009A
:1024F0008831200095209031803157249031203050
:1025000085007A3084008831DA219031023022004F
:10251000CC002030CE007A30CD00883120000C2154
:1025200090314920EE2C883188279031F808031922
:102530009C2A803159259031EE2C2100430BA42A8E
:1025400022002414A62A2100220024108831200011
:1025500088279031F8080319B72A00302200241880
:102560000130AE00AF0080312000D7259031EE2C35
:10257000210042080339B00043082200B10088312D
:10258000200097279031210065142000EE2C2100B7
:1025900042080339B000FF302200C5002100430883
:1025A0002200C60088312000BE2690317808220023
:1025B000AE00B100883120009727903121006514CA
:1025C0002000EE2C1B308031E42290315B3064001F
:1025D000111EE72A23009A00323064002000111AED
:1025E000F32A2300ED2A23009A004A3064002000D9
:1025F000111AFC2A2300F62A23009A001B3080318E
:102600002000E4229031BB3023009100033092007F
:10261000803120005C24903101302200BD008031E7
:1026200020002D26903178082200B500B601AF01B8
:10263000AE01AF08031D1B2C2E08383C031C1B2CBD
:102640000130FA008F30BD007A08BE002F08C000AC
:102650002E08BF00C2010630C10088312000462785
:102660009031780822003D07B10079083E3DB20064
:102670002030BE00B730BD003208C0003108BF00B6
:10268000883120005D27903122002E0DBD002F0DD6
:10269000BE00BD0DBE0DFC30BD053E08FA003D0874
:1026A000BF003D0A8031200043209031FA00220013
:1026B0003F0880312000432090312200B3007A0887
:1026C000B4003408FA00330884007A088500000852
:1026D000BD005B3064002000111A702B22006A2BB1
:1026E00023009A000B30840022002F08BF002E0820
:1026F000BE000508C6000408C5003F0EF038C10042
:10270000C107E23EC200323EC4003F080F39C20793
:10271000C207C407E93EC300C307C3073E0E0F3913
:10272000C307C407C30DC40DC409C40D3E080F3947
:10273000C407C10D0730C0000A30C407C303031C1F
:102740009D2BC307C203031CA12BC207C103031C9B
:10275000A52BC107C003031CA92B01308500403005
:1027600084000730450545138407443004020319EB
:1027700045170008F700031DC52B451BC52B451A3F
:10278000D32BC519C52B2030C82BC51545123030A9
:10279000F707770864002000111AD02B2200CA2BFB
:1027A00023009A0022000131451FB52B5D306400E3
:1027B0002000111ADD2B2200D72B23009A00203095
:1027C00064002000111AE62B2300E02B23009A005E
:1027D00020308500B730840088312000DA21903124
:1027E00020306400111EF12B23009A0022003D08C6
:1027F000D2001B30D30080312000CF269031093029
:102800006400111E002C23009A0022002E080339B8
:10281000BD00BE013D08033C031D162CBE08031D70
:10282000162C803120005724903122006400AE0A1B
:102830000319AF0A192BB0013008023C031C362CD7
:102840001F3030078400203085000318850A000BF4
:10285000342C0130F7003008F8000319322CF7351A
:10286000F80B2F2C7708B607B00A1C2C0A308031E1
:102870002000E4229031803157249031D130230060
:10288000910003309200031004302200D200803106
:1028900020005B26903161082200D2001B30D3005B
:1028A00080312000CF269031D430230091000330B6
:1028B0009200031007302200D200803120005B26F6
:1028C000903122003608D2001B30D3008031200026
:1028D000CF269031803157249031D9302300910098
:1028E00003309200031005302200D2008031200016
:1028F0005B26903122003508D2001B30D300803196
:102900002000CF2690318831F421903121006514C8
:102910002000EE2C21004208023A20000319972CD7
:10292000033A03199E2C023A0319A62CA82C8831CD
:1029300088279031F808031D0100AE2C01302200D9
:10294000C200883120002C249031AE2C7120AE2C96
:102950002200C201883120002C249031EE2C21006D
:1029600043080339043E2200A50020302100E7007F
:102970007A30E600B6302300910003309200031055
:1029800007302200CC0088312000A42090312200A2
:102990002508CC001830CD008831200073219031FB
:1029A000803157249031203085007A30840088317E
:1029B000DA21903122002508CC002030CE007A3078
:1029C000CD00883120000C219031EE2C21004308ED
:1029D0002200C100883120003820903108000A1000
:1029E0008A100A1582073229EC29932A9D2AB82ACF
:1029F000C72AE22A8A2CEE2CE62CAF2C2100E80113
:102A00006808023C031C432D1F306807E900203092
:102A1000EA000318EA0A6808803120003F2090315C
:102A20002100EB002200C2000130C300C50180304C
:102A3000C40080312000D827903121006B08EC00C1
:102A4000EE01ED0188312000D92F90317818382D12
:102A50001C30210068078400203085000318850A97
:102A600080080319352D2000382D00303A2D200024
:102A700001302100EC006A088500690884006C08B8
:102A80008000E80A002D98312000542FFD1EAC2D47
:102A9000E1080319532D6B0F502D6C0F502D532D42
:102AA000EB0A0319EC0A210062152000E808031D57
:102AB0005C2DE90803198F2D69082200C000200051
:102AC00068082200BF00C2013C30C10088312000EC
:102AD000462790317908FA007A086C02031C8F2D82
:102AE000031D762D78086B02031C8F2DEA08031D49
:102AF0008D2D8031572490312E30230091000430E9
:102B00009200803120005C24903121006514220065
:102B1000B00188312000E22290316108EA002100F2
:102B2000B508031DB503FE080319982DFE03A12D5A
:102B3000E51CA12D2200C201883120002C249031F7
:102B400021006400E3080319A72DE303AA2D3B30FD
:102B5000E3007D17FD1220007D1FCE2D2100E4082B
:102B60000319B42DE403B72DFD171D30E4007D13C8
:102B70002000ED080319CE2DEE080319C12DEE0338
:102B8000CE2D80315724903136302300910004300F
:102B90009200803120005C2490316210FD1FE62DF0
:102BA000660803390319E52D66080139031DE42D74
:102BB000660802390319E52D660EF7000F30F70598
:102BC00077080F39620503197120FD1398315B2FC7
:102BD00060082100E80020000D0864060F39DF00BE
:102BE0006F081F395F042100E90071080F3969047B
:102BF0002000E0006008210068020319032E013064
:102C0000F800052E052E0030F80098312000612FC5
:102C100001302100E800EB01200060082100EA00FB
:102C2000F60803192A2E6A087405031D2A2EF601D8
:102C3000F4010130EB006A08200062056305031D02
:102C4000292E210062142000E7080319292E6708A5
:102C5000F2002100EC01ED016D08033C031C682E1D
:102C60006A086805EE0020006A08FF3A21006E0538
:102C70000319642E2000620863052100680503190A
:102C80004B2E25306D078400203085000318850AFF
:102C90000008E9004D2E0130E900690876020318AA
:102CA000642EF608031D562E6908F60001306D07E4
:102CB000EC000130EB002000EA01EC01EB01210007
:102CC00068082000E10021000310E80DED0A2C2E19
:102CD000EB080319742E6C082200B0008831200024
:102CE000E222903121006514EA08031D7C2EE217D0
:102CF0002000E101EA0121002000ED080319892EDE
:102D00002100EA08031D862E2000892E20006D0870
:102D1000EE0098316A2F22002E101F302D078400FC
:102D2000203085000318850A8008031D2E142C0806
:102D30001F39AF002C08F039F700770EB0000F30C4
:102D4000B00501302B02FC3E0318EA2E043E2000A1
:102D5000ED2E22002E1CB12E2C082000E305B62EED
:102D600022002C08FF3A0F392000E3042200EA2E4B
:102D700022002E1CC12E2100621422002C08F20019
:102D8000C22EF201EA2E22002E18CC2E210062144F
:102D900022002C08F200CD2EF201EA2E22002E1184
:102DA0002C082039031D2E1500302E190130B200D9
:102DB00000302E1801303206F800AE107818AE142C
:102DC000AE1CE52E2F08F104E82E2F08FF3AF1057E
:102DD000EA2E220098312000762D0A108A140A1556
:102DE0008207A92EC32EB82ECE2E22002C08B000AA
:102DF0002B08AF003008FA002F0884007A088500FD
:102E000080080319072FAF0A0319B00AFA2E2E08FB
:102E1000FA002D0884007A08850080080319232F02
:102E20002D0884002E0885000008B30030088500B6
:102E30002F08840033088000AF0A0319B00AAD0AD6
:102E40000319AE0A072F2F0884003008850080017F
:102E50002B08F8002C08F90020000800013022009F
:102E6000BD00803120002D26903178082100E90036
:102E7000691D7D2F2200BD01803120002D2690315B
:102E800078082100E800E216E808031D4A2F0A30FE
:102E9000E8004E2F68080A3C0319E80168080B3C5B
:102EA0000319E21768080C3C031D5E2F62164008E8
:102EB000840041088500003180167D2F4108203CA8
:102EC000031C7D2F031D682F40086F3C031C7D2FC2
:102ED0004008840041088500003168080F39F70078
:102EE000F030000577048000400884004108850028
:102EF00000310016C00A0319C10A983120007C2F46
:102F00002200A001A101203085007A308400200831
:102F100084070030853D210880312000392190311F
:102F2000800000380319992F2200A10AA00A832FDC
:102F30002000803157249031053023009100043067
:102F40009200803120005C2490312100E801680863
:102F5000093C031CE42F663068078400203085009C
:102F60000318850A001EE12F6630680784002030B0
:102F700085000318850A00080F39E9002030E700B2
:102F80009A30E60069082200CC001830CD00883164
:102F900020007321903120302200AC007A30AB0049
:102FA0002030AE009A30AD002000F52621006908DF
:102FB0002200D2001B30D30080312000CF26903178
:102FC00021006400E80AA72F8031200057249031A7
:102FD0002100651402302200CC002030CE007A306F
:0E2FE000CD00883120000C2190319831842FD3
:1030000002302200CC002030CE005030CD0088317C
:1030100020000C219831FF302100C20022002A102C
:10302000C101C20120308500AD3084004108840711
:103030000030853D420880312000402198318000D9
:103040000038031928282200C20AC10A12282000C9
:1030500020302200C2005030C1002030C400AD300A
:10306000C30088312000DF25983179082200AC00A8
:103070007808AB00AB08031D4028AC0803195A2898
:103080002C08C4002B08C3002030C200A230C100AD
:1030900044088500430884000008C50042088500F4
:1030A0004108840045088000800803195A28C10A95
:1030B000C30A4828C201C1012030C400AD30C3009A
:1030C00088312000DF25983179082200AC0078088B
:1030D000AB00AB08031D6F28AC08031989282C0826
:1030E000C4002B08C3002030C2007430C100440863
:1030F0008500430884000008C50042088500410897
:10310000840045088000800803198928C10AC30A81
:103110007728C201C1012030C400AD30C30088311E
:103120002000DF25983179082200AC007808AB0038
:10313000AB08031D9E28AC080319C5282C08C40041
:103140002B08C3002030C200B530C1004408850000
:10315000430884000008C500420885004108840037
:103160004508800080080319B828C10AC30AA628A8
:103170002030C200B530C10088312000E5269831EA
:1031800078082100C300CA2822002100C3012200C0
:103190002A1421002200C101C20120308500B9306B
:1031A0008400410884070030853D420880312000BA
:1031B00046219831800000380319E3282200C20A12
:1031C000C10ACD28200020302200C200B930C10041
:1031D0002030C400A230C300883120001E2798315F
:1031E000F808031DFC2822002A1CF9280330F000EF
:1031F000FB280230F00020002200C101C201203073
:103200008500B9308400410884070030853D4208BC
:10321000803120004B219831800000380319152996
:103220002200C20AC10AFF28200020302200C2006A
:10323000B930C1002030C400A230C3008831200062
:103240001E279831F808031D27290430F0002200BA
:10325000C101C20120308500B930840041088407D3
:103260000030853D42088031200051219831800096
:103270000038031940292200C20AC10A2A29200065
:1032800020302200C200B930C1002030C400A2307A
:10329000C300883120001E279831F808031D5229E9
:1032A0000530F0002200C101C20120308500B93094
:1032B0008400410884070030853D420880312000A9
:1032C0005A2198318000003803196B292200C20A64
:1032D000C10A5529200020302200C200B930C100A7
:1032E0002030C400A230C300883120001E2798314E
:1032F000F808031D7D290830F0002200C101C20139
:1033000020308500B9308400410884070030853DB5
:103310004208803120006221983180000038031972
:1033200096292200C20AC10A8029200020302200EA
:10333000C200B930C1002030C400A230C3008831BF
:1033400020001E279831F808031DAC290930F00031
:1033500002302100C20020002200C101C201203041
:103360008500B9308400410884070030853D42085B
:10337000803120006A219831800000380319C52966
:103380002200C20AC10AAF29200020302200C20058
:10339000B930C1002030C400A230C3008831200001
:1033A0001E279831F808031D272AF001203022003B
:1033B000C2007430C10088312000E52698317808B9
:1033C0002100C30043080A3C031DE829C301ED297D
:1033D000C308031DED290A30C30043080F3922003A
:1033E000C1004108C2004208C500C601803120006A
:1033F000ED2598310C302200C5000130C600803127
:103400002000ED25983101302200C500C600803132
:103410002000ED25983105302200C5000130C6009E
:1034200080312000ED2598312100B4011030B30027
:103430003308340403191E2A0000182A043022001D
:10344000C5000130C60080312000ED2598312200F2
:10345000C101C20120308500B930840041088407D1
:103460000030853D4208803120006D219831800078
:1034700000380319402A2200C20AC10A2A2A200061
:1034800020302200C200B930C1002030C400A23078
:10349000C300883120001E279831F808031D522AE6
:1034A0000C30F0002200C101C20120308500B9308B
:1034B0008400410884070030853D420880312000A7
:1034C000722198318000003803196B2A2200C20A49
:1034D000C10A552A200020302200C200B930C100A4
:1034E0002030C400A230C300883120001E2798314C
:1034F000F808031D942A20302200C2007430C10055
:1035000088312000E526983178082100C30043085F
:10351000243C031C8F2AC2010B30F000932A09308F
:10352000F0000330C20020002200C101C20120309F
:103530008500B9308400410884070030853D420889
:103540008031200079219831800000380319AD2A9C
:103550002200C20AC10A972A200020302200C2009D
:10356000B930C1002030C400A230C300883120002F
:103570001E279831F808031DBF2A0630F0002200EC
:10358000C101C20120308500B930840041088407A0
:103590000030853D4208803120007C219831800038
:1035A00000380319D82A2200C20AC10AC22A200000
:1035B00020302200C200B930C1002030C400A23047
:1035C000C300883120001E279831F808031DEA2A1D
:1035D0000730F0002200C101C20120308500B9305F
:1035E0008400410884070030853D42088031200076
:1035F0007F219831800000380319032B2200C20A72
:10360000C10AED2A200020302200C200B930C100DA
:103610002030C400A230C300883120001E2798311A
:10362000F808031D332B0230F00001302100300771
:103630000339C3002200C101C2012030850074306B
:103640008400410884070030853D42088031200015
:1036500082219831800000380319332B2200C20ADE
:10366000C10A1D2B20002200C101C20120308500AB
:10367000B9308400410884070030853D420880311C
:103680002000882198318000003803194C2B22003B
:10369000C20AC10A362B200020302200C200B930F5
:1036A000C1002030C400A230C300883120001E2792
:1036B0009831F808031D6C2B02302100E50600301C
:1036C000E51801302200C100C200883120002C24FE
:1036D00098312100651420002100E901E801E90882
:1036E000031DC02B6808383C031CC02B0130FA00B6
:1036F0008F302200A2007A08A3002100690822006E
:10370000C000210068082200BF00C2010630C100CD
:1037100088312000462798317808220022072100AE
:10372000EA0079082200233D2100EB00203022002E
:10373000BE009C30BD0021006B082200C0002100AB
:103740006A082200BF00883120005D2798312030B0
:103750002200C2007430C1002030C4009C30C3007D
:10376000883120001E279831F808031DBB2B21004B
:103770006808C20020002100E80A0319E90A6F2B3B
:103780004208FF3C031D282C20302200C200743068
:10379000C10088312000E526983178082100C30057
:1037A0002200A201A301203085009C308400220861
:1037B00084070030853D230880312000282198317E
:1037C000800000380319E92B2200A30AA20AD32B98
:1037D000200020302200C2007430C1002030C4001C
:1037E0009C30C300883120001E279831F808031D43
:1037F000FD2B01302100C30020002200A201A30103
:10380000203085009C308400220884070030853DEC
:1038100023088031200030219831800000380319BE
:10382000162C2200A30AA20A002C2000203022001D
:10383000C2007430C1002030C4009C30C300883105
:1038400020001E279831F808031D292C2100C301F0
:1038500020007008063C0319312C7008073C031D3A
:10386000372C01302100C3003008C20020002100A5
:10387000651590312000B3209831210065119831F1
:103880002000492F30302100EB00EC00ED00EE016C
:10389000EF002200A000A100A2012030A3004130CF
:1038A000A4004430A5004D30A6004930A7004E309A
:1038B000A800A9012100E8016808023C031C7A2D38
:1038C000333068078400203085000318850A00081B
:1038D000E900363068078400203085000318850A27
:1038E0000008EA0069082200AB0021006A082200F3
:1038F000AC00210068082200AD002C080F39AE0092
:103900002C08F039F700770EAF000F30AF052B0809
:10391000023A20000319902C033A0319AA2C042D13
:10392000223022002D078400203085000318850AEC
:103930002E081F39B3007A08B4002F08B306031D00
:10394000A62CB408031DA62C0030A72C0130800043
:103950002000042D220030102C081039031D3014D3
:10396000B01020006A08FF3A5F0522002E05031DF3
:10397000B01430112C082039031D3015B0112C085B
:103980004039031DB0153012301DCE2C2100B50872
:10399000031DCC2C2200CE2C22003016B01CF02CA3
:1039A000B01DE82CB0122000EC08031DDF2C6B08C2
:1039B000053C031CDF2C2200301EE12C20002200DD
:1039C000B016B01EE72C3C302100B5002200EF2CD1
:1039D000B016301DEF2C3C302100B5002200F32C36
:1039E000B012301AB01622302D0784002030850026
:1039F0000318850A0030B01A0130B40000303018C6
:103A0000013034068000200022002A1022302100DC
:103A100068078400203085000318850A8008031D8C
:103A2000142D22002A1421006808803120003B2038
:103A300098312200AB0000302A180130F7002B0823
:103A4000C2007708C3000130C500C40180312000E6
:103A5000D827983122002B08C200C301C50180304D
:103A6000C40080312000D827983122002A18432D25
:103A70009F30210068078400203085000318850AE4
:103A80003130800022003930210068078400203066
:103A900085000318850A0008E9003C3068078400A7
:103AA000203085000318850A0008EA001F306807E7
:103AB0008400203085000318850A000B682D9B3098
:103AC00068078400203085000318850A31308000A3
:103AD00069082200AB0021006A082200AC00210026
:103AE00068082200AD00903120008B2E9831210013
:103AF000E80A5C2C2030E7007A30E60049302200EA
:103B0000D20088312000952098313A302200D2002E
:103B10008831200095209831203085009B3084002A
:103B20008831F720983120302200D20088312000DF
:103B3000952098314F302200D20088312000952006
:103B400098313A302200D2008831200095209831F7
:103B5000203085009F3084008831F7209831210083
:103B6000E51CC02D20302200AC007A30AB002030A4
:103B7000AE00A330AD0090312000F5269831210031
:103B800003302200CC002030CE007A30CD008831C6
:103B900020000C2198319831752F21006A086B02A2
:103BA000031CF72D6A08093C031CF72D6E146A08E4
:103BB000ED006D086B02031CF62D66306D07840066
:103BC000203085000318850A00080F39EC006630A4
:103BD0006D078400203085000318850A001E6E10D2
:103BE0006C080C3C03196E10ED0AD92DF82D6E10DF
:103BF00000306E180130F80020000800F0012100AC
:103C0000C301EA010330EB002000CD25F8080319B9
:103C1000BB2E210036080F39EB002200C5000A3008
:103C2000C60088312000BE26983178082100EA00BD
:103C300037080F396A07E80038080F39EB0022000F
:103C4000C5000A30C60088312000BE2698317808A9
:103C50002100EA0039080F396A07F0000430EA0051
:103C60000530EB002000CD25F80803198D2E21002A
:103C70003A080F39EB002200C5000A30C60088312F
:103C80002000BE26983178082100EA003B080F3951
:103C90006A07C2000630E9006908EA006A080A3CBF
:103CA000031C6C2E66306A078400203085000318E0
:103CB000850A001E6A2E66306A078400203085005F
:103CC0000318850A00080F390C3C03196A2E0130CD
:103CD000EB006B2EEB016D2EEB016B08F800F80882
:103CE00003198B2E43082200C5000A30C600883114
:103CF0002000BE26983178082100EA006630690766
:103D00008400203085000318850A00080F396A07EF
:103D1000C300E90A4C2EA62E200070080A3A0319A7
:103D2000952E013A03199C2EA42E2100C2010E30BB
:103D3000C3000230F000A62E2100C2010F30C300E4
:103D40000230F000A62E2000F00121007008043A95
:103D500020000319AE2E013A031DB22E21004208A5
:103D6000C3002000650821006802031DBC2E9031AD
:103D70002000B3209831210036080F39F000E51CEF
:103D8000F32EEA01EB012000CD25F808031DCA2E11
:103D90002100F32E640070080E3A0319D62E013A62
:103DA0000319E02E053A0319E82EEF2E0130210009
:103DB00030070339B00088312000F4219831EF2E0C
:103DC000FF302200B1008831200097279831EF2E74
:103DD00001302200B10088312000972798318831C6
:103DE000882798312100E217983120008C2F21007C
:103DF000E8016808093C031C072F66306807840047
:103E0000203085000318850A8001E80AF92E203049
:103E1000C1006630C00098312000932F85018401D5
:103E20001F3083057230210099008E150E16240074
:103E3000171097109711133092002830950094179F
:103E400014130C3023009B00A2309E0090309D0084
:103E50002100E515E701E6012F009101920198018B
:103E600099019A0123008C018D018F01900122009C
:103E700092019101940193012000A601A7018831CC
:103E8000412C983164008831172D98317D1C4D2FBD
:103E9000002880313D2498317D1064002100E21C0F
:103EA000582F90312000FE2C98312100E21062152D
:103EB00090312000462D983164007D1D662F903191
:103EC000E82D9831FD107818FD147D11FD1C702F20
:103ED0009031082E983121006215FD1064002000F9
:103EE0002100621D772F2000422C21006211621FE9
:103EF0007F2F903120002E2F983121006213E21E77
:103F0000882F90312000802F98312100E212640028
:103F1000621E8F2F2000FE2D210062126400E21F1E
:103F2000952F2000F72E2100E213651C9E2F903163
:103F30002000492098312100651064002000422FA4
:023F400063001C
:0A3FB600AA346A345A3456345534E4
:103FC00055349534A534A934AA34603495349934E1
:103FD000943440345934A434553450346A349834C9
:103FE0006534A0349034A8346934A634643454342D
:103FF000803458345634683496349A34A5340034B6
:020000040001F9
:04000E00BC0FFF1E06
:00000001FF
;PIC16F1937
;CRC=0F10  CREATED="13-Dec-24 16:41"
