:060000008831E22D000032
:0800080083018A012000770842
:10001000A0007808A1007908A2007A08A3008B1D2F
:1000200013280B182328850191308400801E1A287C
:10003000911A25282008F7002108F8002208F90065
:100040002308FA0009008031E829803194290B0047
:1000500050344F344C340034003400345234303493
:10006000473430340034003452343034473431347F
:1000700000340034523430344734323400340034E5
:100080005234303447343334003400345234313451
:10009000473430340034003452343134473431344E
:1000A00000340034523431344734323400340034B4
:1000B000523431344734333400340034523432341F
:1000C000473430340034003452343234473431341D
:1000D0000034003452343234473432340034003483
:1000E00052343234473433340034003452343334ED
:1000F00047343034003400345234333447343134EC
:100100000034003452343334473432340034003451
:10011000523433344734333400340034583449349F
:10012000303400340034003458344934313400342D
:10013000003400345834493432340034003400344C
:1001400058344F34303400340034003458344F3491
:10015000313400340034003458344F3432340034F5
:10016000003400344334303450340034003400342C
:1001700043343134503400340034003443343234A6
:1001800050340034003400344334333450340034B9
:100190000034003452343034503454345434003445
:1001A00052343134503454345434003452343234B0
:1001B000503454345434003452343334503454347E
:1001C000543400340B00283420340F3401342934E3
:1001D0002034203401342A342034203401342B34A8
:1001E0002034203401342C342034203401342D3494
:1001F0002034203401342E342034203401342F3480
:10020000203420340134303420342034013431346B
:100210002034203401343234203420340134333457
:100220002034203401343434203420340134353443
:10023000203420340134363420342034013437342F
:10024000203420340134383420342034013439341B
:100250002034003401343A342034003401343B3447
:100260002034003401343C342034013401343D3432
:100270002034013401343E342034013401343F341D
:100280002034013401344034203405340134413405
:1002900020340534013442342034033401344334EF
:1002A00020340E340134443420340D3401344534C8
:1002B00020340B34013446342034073401340B002D
:1002C0007334653474342034523430344734303429
:1002D000203439340D3400340B0020343B340D34D9
:1002E00000340B0073346534743400340B00533421
:1002F00041345634453400340B00523445345334C1
:1003000054344F345234453400340B00683465346F
:100310006C34703400345B183B184800111E8E2971
:1003200023009A0020000800911EE229911E9629C0
:10033000230019082200AA002A08083C031DC3292B
:100340002000BB080319BE29BB030B303B07840008
:10035000203085000318850A800108308E211B306B
:100360008E215B30111EB22923009A004B302000F1
:10037000111EB82923009A00C129200007308E21C0
:100380002300E429220020003B080F3C031CE02945
:1003900022002A0820008E213B08BB0A0B3E840065
:1003A000203085000318850A22002A0880002A08C8
:1003B0000D3C031DDE2920003C142200E32920000F
:1003C00007308E21220023002000911280311A284C
:1003D00048080139031DEE290030EF2901302200C1
:1003E000AB00FF3021008D0020000D080F392200E6
:1003F0002B06AA00AA080319022A022A01302000AB
:10040000C70022000B10803120001A285B1AB71D8C
:10041000331A6D050D296132E93720296538E53039
:10042000F4327210C3376E3AF2376C366539A01663
:1004300020005B1AB71DB3186D2B45194C295300CA
:100440005B1AB71D331A6D10A82129103218B11983
:100450000A050D005B1AB01DB31B6D00442A4D2325
:10046000A029F430F43A73103A10A53A8A06000035
:100470008A06C327CD264127441F20004937693A01
:10048000E930EC34FA34EE332029C126203B6139BF
:10049000E9306236E5392033F2376D10C522502934
:1004A000CF268A0600014937693AE930EC34FA343C
:1004B000EE332029C126203B6139E9306236E53927
:1004C000A03B693A6810C432E63075367410F630D5
:1004D000EC3AE5398A060000D330F634EE332029B1
:1004E000C126A0316F37E634E73AF230F4346F3783
:1004F000A0346E10C5225029CF262E050D0043349E
:10050000E531EB39F536A036E939F336613A633433
:100510002E10D232733A6F3969376710E432E63001
:1005200075367410F630EC3AE5392E050D008A0662
:10053000D332743A69376710A539A812F514203AF6
:100540006F10A53A8A0600008A064539F237721004
:100550003A104937F630EC3464106139E73AED323D
:100560006E3AA01273050D001030E900E801690829
:1005700068020318C52A0B30680784002030850004
:100580000318850A8001E80AB72ABB013C10FF3036
:10059000BE00C001BD0108000B082100AC008B1398
:1005A0002300951715140000000013087F39031964
:1005B000162B2100AD00230011082100AE002300FE
:1005C00012082100AF002D082000111EE52A23008B
:1005D0009A0021002E082300910021002F082300FB
:1005E00092009517151400000000130D140D7F39AB
:1005F0000319162B2100AD00230011082100AE00C5
:10060000230012082100AF002D082000111E062B28
:1006100023009A0021002E082300910021002F08BA
:1006200023009200910A0319920AD12A2100AC1BDF
:100630008B17200008001B308E215B30111E1E2BF3
:1006400023009A0032302000111E242B23009A0030
:100650004A302000111E2A2B23009A001B30200054
:100660008E218B3023009100013092002000CC229B
:10067000080021002D0884002E0885000008B00025
:1006800030087F3C031CB00A0310300D093A2F07D5
:10069000B0002D0884002E0885003008800020005E
:1006A000080001302100A800A901AB00240B612B38
:1006B0003E3023009100023092002000CC22682BB3
:1006C0002100533023009100023092002000CC2200
:1006D0002100A50125081E3C031CC72B250DF70092
:1006E000F70DFC30F7057708AC002C0A2000E2205B
:1006F000FA0021002C082000E2202100A6007A0840
:10070000A700240BB32B250DF700F70DFC30F705E0
:100710007708033E2000E220F8007818912B210092
:10072000B32B21002708FA00260884007A088500E8
:100730002908230091009513151413088000210047
:100740002708FA0026088400270885000008AC0066
:100750002030AE005830AD002C08AF002000392307
:100760002100A90AC52B250DF700F70DFC30F70570
:100770007708023E2000E220F8002100AA002608A7
:100780008400270885002A088000A50A6A2B240B0C
:10079000D32B290823009100951315141308210069
:1007A0002802031DAB012B08F800200008000130CF
:1007B0002100A800A501A40124081E3C031C2B2C29
:1007C000240DF700F70DFC30F7057708AA002A0A78
:1007D0002000E220FA0021002A082000E220210067
:1007E000A6007A08A700240DF700F70DFC30F705E6
:1007F0007708033E2000E220F800781C282C210016
:1008000026088400270885000008A9000B08F700C7
:100810008B13250823009100210029082300930051
:100820009513151555309600AA3096009514951815
:10083000172C151177088B0420302100AE0058309A
:10084000AD002908AF00200039232100A50A2000AF
:100850002100A40ADC2B0B08F7008B1325082300CA
:100860009100210028082300930095131515553099
:100870009600AA309600951495183C2C151177080F
:100880008B046C309100023092002000CC220800D2
:1008900021002308A40020005123F808031D5C2C2C
:1008A0007F3023009100023092002000CC222100F2
:1008B000A40120005123D72308001B308E210630CD
:1008C00023009100023092002000CC221B308E21A8
:1008D000193023009100023092002000CC221B30FE
:1008E0008E21203023009100023092002000CC2283
:1008F0001B308E212A30230091000230920020000C
:10090000CC220800B422210091168B150F3027004D
:1009100094049504C0308B0422008F1321008F13A0
:1009200022008F1621008F1222000F1621000F12B5
:1009300022000F1321000F1320001B230130210080
:10094000A300200048245D248831112E3C14E801C6
:10095000E901203085000B308400680884070030EE
:10096000853D69085F21800000380319BA2CE90A27
:10097000E80AA92C8831142E21003E083F040319EF
:10098000C52C3F08FA003E08CA2C20002608FA00B1
:1009900025082100C2007A08C3004308C7004208A6
:1009A000C6004108C9004008C8004708CB004608F7
:1009B000CA004B08FA004A0884007A0885008008BB
:1009C0000319132D4908CD004808CC004D08FA0042
:1009D0004C0884007A0885008008031DF92C46081D
:1009E0004A02F70047084B3BFA007708F8001B2D36
:1009F0000B2D4B08FA004A0884007A08850000088D
:100A0000CE004D08FA004C0884007A0885000008E2
:100A10004E0203190F2DCC0A0319CD0AE62CCA0A7F
:100A20000319CB0AD92C46084A02F70047084B3B6A
:100A3000FA007708F8007808C2070030C33D430881
:100A4000FA00420884007A0885008008031D342DCE
:100A50002000250884002608850020308000003012
:100A6000F800F900992D21004308C7004208C6008C
:100A70004108C9004008C8004708CB004608CA0022
:100A80004B08FA004A0884007A0885008008031998
:100A9000752D4908CD004808CC004D08FA004C08D7
:100AA00084007A08850080080319712D4B08FA002C
:100AB0004A0884007A0885000008CE004D08FA0034
:100AC0004C0884007A08850000084E02031D6D2D35
:100AD0004A08F8004B08F900782DCC0A0319CD0A12
:100AE0004D2DCA0A0319CB0A402D0030F800F90039
:100AF0007908C5007808C4004508FA004408840055
:100B00007A088500800803198D2D44088400450863
:100B100085008001C40A0319C50A45082000A60003
:100B2000210044082000A50021004208F8004308E5
:100B3000F9002000080022002308A6002208A800CF
:100B40002108A700A508031DA92D2408003C0318AF
:100B5000C02D2808FA00270884007A088500260896
:100B60000002031DB82D2708F8002808F900C32D3E
:100B7000A70A0319A80A24080319A503A403A22D90
:100B80000030F800F9002000080021003F08FA00BA
:100B90003E0884007A0885000008C2004108FA0077
:100BA000400884007A0885000008420203192E2EAE
:100BB0003F08FA003E0884007A0885000008C20059
:100BC0004208403C0318E82D42085A3C0318F02D17
:100BD0004208603C0318442E42087A3C031C442E11
:100BE0004108FA00400884007A0885000008C20025
:100BF0004208403C0318002E42085A3C0318082EB5
:100C00004208603C0318442E42087A3C031C442EE0
:100C10003F08FA003E0884007A0885000008C200F8
:100C20004108FA00400884007A0885002030000757
:100C3000420203192E2E4108FA00400884007A0867
:100C400085000008C2003F08FA003E0884007A08C8
:100C50008500203000074202031D442E3F08FA00A1
:100C60003E0884007A0885008008031D3A2E003073
:100C7000F8005A2E3F08FA003E08BE0A0319BF0AC0
:100C8000C00A0319C10AC62D3F08FA003E088400B5
:100C90003F0885000008C2004108FA0040088400AF
:100CA00041088500000842020318582EFF30592ED3
:100CB0000130F80020000800F701F80121002C089D
:100CC00003102D18F707F70CF80CAD18F707F70C01
:100CD000F80C2D19F707F70CF80CAD19F707F70CFE
:100CE000F80C2D1AF707F70CF80CAD1AF707F70CEC
:100CF000F80C2D1BF707F70CF80CAD1BF707F70CDA
:100D0000F80C200008000B082100AD008B13230015
:100D100095171514000000000318B42E13087F392E
:100D20002100AE00230011082100AF0023001208AB
:100D30002100B0002E082000111E9C2E23009A00D6
:100D400021002F0823009100210030082300920089
:100D500095171514000000002100AC0BB02EB22E28
:100D60002300B42ED62E2300130D140D7F3921003D
:100D7000AE00230011082100AF002300120821005B
:100D8000B0002E082000111EC32E23009A0021005F
:100D90002F08230091002100300823009200910ABF
:100DA0000319920A03102100AC0B872EAD1B8B1781
:100DB0002000080080080319F02E05082100AE006D
:100DC0000408AD0000082000111EE42E23009A0044
:100DD00021002E0885002D08840001312000DA2E24
:100DE000080021003008F8012F020318FA2E2F08FE
:100DF000F700062FF7010830B100AF0DF70D3008EE
:100E000077020318F700F80DB10BFD2E2000080043
:100E1000780821002D08AF006430B0002000F126D2
:100E200077082100AD0078083030031D1E2FAE1C5E
:100E3000292FAE19292F2E1A2030212FAE112E1254
:100E40002E14F80778082000111E242F23009A0082
:100E500021002D08AF000A30B0002000F1267708ED
:100E60002100AD0078083030031D3C2FAE19442F0F
:100E70002E1C442F2E1A2030F80778082000111E4F
:100E80003F2F23009A0021003030AD072D082000AD
:100E9000111E482F23009A0020000800210028106E
:100EA00026080F390139031D281428185B2F22004A
:100EB0000F105D2F210022000F1421000F102810A9
:100EC00026080F390239031D281428186B2F220019
:100ED0008F106D2F210022008F1421008F102810F9
:100EE00026080F390439031D281428187B2F2200E7
:100EF0000F117D2F210022000F1521000F11281046
:100F000026080F390839031D281428188B2F2200B2
:100F10008F118D2F210022008F1521008F11A7081E
:100F2000031D962F22000F13982F210022000F1768
:100F300021000F139B2F22008F1221008F12A02F50
:100F400022008F1621008F120000200008002030A0
:100F500085005630840000080319BF2F0230F800C6
:100F6000BF30F7006400F70BB22FF80BB02F9630AC
:100F7000F700F70BB92FBC2F6400800BAE2F0800D1
:101000002100BE01BF0120308500523084003E081F
:1010100084070030853D3F08803120006C218831F5
:1010200080000038031919282100BF0ABE0A0328CE
:10103000200020302100BF000B30BE002030C10056
:101040005230C00080312000BC2488317908210052
:10105000BD007808BC00BC08031D3128BD08031979
:101060004B283D08C1003C08C0002030BF005E3066
:10107000BE0041088500400884000008C2003F0807
:1010800085003E08840042088000800803194B2830
:10109000BE0AC00A3928BF01BE012030C10052304B
:1010A000C00080312000BC24883179082100BD00B7
:1010B0007808BC00BC08031D6028BD080319792806
:1010C0003D08C1003C08C0002030BF00BE00410800
:1010D0008500400884000008C2003F0885003E08E3
:1010E000840042088000800803197928BE0AC00ADB
:1010F0006728BF01BE012030C1005230C0008031DE
:101100002000BC24883179082100BD007808BC008B
:10111000BC08031D8E28BD080319BC2A3D08C10068
:101120003C08C0002030BF005A30BE004108850096
:10113000400884000008C2003F0885003E08840083
:101140004208800080080319A828BE0AC00A962811
:101150002030BF005A30BE00C101C0010A30C200B9
:10116000CA01C9013030CC003130CD003230CE0060
:101170003330CF003430D0003530D1003630D2009B
:101180003730D3003830D4003930D5006130D60044
:101190006230D7006330D8006430D9006530DA009F
:1011A0006630DB006730DC006830DD006930DE006F
:1011B0006A30DF006B30E0006C30E1006D30E2003F
:1011C0006E30E3006F30E4007030E5007130E6000F
:1011D0007330E7007430E8007530E9007630EA00DB
:1011E0007730EB007830EC007930ED007A30EE00AB
:1011F000EF013F08C4003E08C3004408FA0043085A
:1012000084007A0885000008203C031D0B29C30ACE
:101210000319C40AFD284408FA004308840044085E
:10122000850000082D3C03191F294408FA004308D3
:1012300084004408850000082B3C031D2A2944082B
:10124000FA004308C30A0319C40A84007A08850017
:1012500000082B292B30CB004B082D3C03193B29D0
:10126000C21B3B29420B35293B29C21B3D294208A1
:10127000243C03183D29972AC929C2080319922939
:101280004208103C031D64294408FA004308840006
:101290007A0885000008303C031D64294308840057
:1012A0004408850001310008783C0319602943088F
:1012B00084004408850001310008583C031D64295E
:1012C0000230C3070030C43D4208083C031D7629A4
:1012D0004408FA00430884007A0885000008303C7E
:1012E000031D76290130C3070030C43D4208023C8B
:1012F000031D91294408FA00430884007A088500F8
:101300000008303C031D91294308840044088500EF
:1013100001310008623C031D91290230C3070030EF
:10132000C43DC9294408FA00430884007A088500AE
:101330000008303C03199F290A30C200C92943081C
:1013400084004408850001310008783C0319B12964
:10135000430884004408850001310008583C031DFF
:10136000B8291030C2000230C3070030C43DC9297B
:10137000430884004408850001310008623C031DD5
:10138000C7290230C200C3070030C43DC929083054
:10139000C2004408C6004308C5004408FA004308D8
:1013A00084007A0885000008303C031DDB29C30A4D
:1013B0000319C40ACD294408FA00430884004408EC
:1013C000850000082200A000403C0318EE292008F8
:1013D0005A3C031CEE2920082038EF292008A000E1
:1013E0002030A2007C30A1002008A300A50121002C
:1013F00042082200A400803120009B258831790812
:101400002100C8007808C700C708031D0A2AC808B9
:1014100003198F2AFA014208F700F71BFA0322008A
:10142000A0007A08A10021004A082200A3002100A0
:1014300049082200A2002108A5002008A4002308D2
:1014400025068039A700A31F2A2AA209A309A20AF8
:101450000319A30AA51F312AA409A509A40A03197F
:10146000A50A1030A600F701FA01A30CA20C031C78
:101470003F2A2408F7070318FA0A2508FA07FA0C86
:10148000F70CF90CF80CA60B352AA71F4C2AF80903
:10149000F909F80A0319F90A7908A1007808A000E7
:1014A0007C3021004702F7002030483BFA007708E3
:1014B00022002007F8002108FA3D78082100C90021
:1014C0007A08CA00C30A0319C40A4408FA00430888
:1014D00084004408850000082200A000403C031856
:1014E000782A20085A3C031C782A20082038792AB8
:1014F0002008A0002030A2007C30A1002008A3001A
:10150000A501210042082200A400803120009B2573
:10151000883179082100C8007808C700042A4308E8
:101520004502031DA72A44084602031DA72A4008B6
:1015300041040319A32A40088400410885003E089D
:1015400080003F08813F0030F800F900B72A4008CA
:1015500041040319B32A4008840041088500430868
:1015600080004408813F4908F8004A08F9007808DB
:101570002000BF00BF2A2100FF302000BF00210053
:10158000BE01BF0120308500663084003E0884071C
:101590000030853D3F088031200071218831800076
:1015A00000380319D82A2100BF0ABE0AC22A200027
:1015B00020302100BF006630BE002030C1005E3008
:1015C000C00080312000C5258831F808031DF12AAC
:1015D0003F08FF3C031DEF2A0330BD00F12A023013
:1015E000BD002100BE01BF012030850066308400AF
:1015F0003E0884070030853D3F0880312000762179
:1016000088318000003803190A2B2100BF0ABE0A66
:10161000F42A200020302100BF006630BE002030B8
:10162000C1005E30C00080312000C5258831F80837
:10163000031D1C2B0430BD002100BE01BF01203062
:101640008500663084003E0884070030853D3F08F1
:10165000803120007C218831800000380319352B2F
:101660002100BF0ABE0A1F2B200020302100BF002E
:101670006630BE002030C1005E30C00080312000E6
:10168000C5258831F808031D472B0530BD00210012
:10169000BE01BF0120308500663084003E0884070B
:1016A0000030853D3F088031200085218831800051
:1016B00000380319602B2100BF0ABE0A4A2B200004
:1016C00020302100BF006630BE002030C1005E30F7
:1016D000C00080312000C5258831F808031D722B19
:1016E0000830BD00FF30BE00E80168081E3C031C46
:1016F000B02B68082100AC000630AD00803120001E
:101700005C26883178082100A200A3012208A400E9
:10171000203085004A308400230884070030853D4E
:1017200024088031200027208831800000380319E8
:101730009E2B2100A40AA30A882B20002030210020
:10174000BF00BE00C1004A30C00080312000C52566
:101750008831F808031DAE2B6808BE00E80A752B17
:101760003D08023C031DD82B3E08FF3C031DD82B2F
:10177000A430230091000230920003101B3021009E
:10178000AC00803120008326883120308500840021
:101790008031DA2688310A30111ECC2B23009A00C2
:1017A0000D302000111ED22B23009A00D32D2000D3
:1017B00002303D02F93E0318D22D073ED72D3F08D7
:1017C000FF3C031D052C85013E0884008031DA268C
:1017D00088312030111EEA2B23009A0020003F0898
:1017E0002100AD001B30AE00803120000827883179
:1017F0000A30111EF92B23009A000D302000111E13
:10180000FF2B23009A00932C20003E0DF700F70DCC
:10181000FC30F70577082100A400240A803120005D
:10182000E2208831FA002100240880312000E220E3
:1018300088312100A2007A08A3002208840023082E
:10184000850020003F08800097302300910002307F
:10185000920003100A302100AC0080312000832662
:1018600088312030850084008031DA2688312830A4
:10187000111E382C23009A0020003E082100AD00E4
:101880001B30AE0080312000082788319E302300B5
:10189000910002309200031405302100AC00803129
:1018A0002000832688313F082100AD001B30AE00A8
:1018B00080312000082788310A30111E5D2C23005A
:1018C0009A000D302000111E632C23009A00200086
:1018D0003F082100A4002408A600A70180312000B1
:1018E0004E27883105302100A6000130A700803145
:1018F00020004E2788312100A5012508043C031C47
:101900008A2C6430A60080312000A727883121006E
:10191000A50A7D2C0430A6000130A70080312000EC
:101920004E27883123002000D22D3E0DF700F70D01
:10193000FC30F70577082100A200220A8031200040
:10194000E2208831FA002100220880312000E220C4
:1019500088312100A0007A08A1002108FA0020089F
:101960008400210885000008A2000A302000111E12
:10197000B72C23009A000D302000111EBD2C23002F
:101980009A0020308500840080312000DA268831DA
:101990002030111EC92C23009A0021002208AD001E
:1019A0001B30AE0080312000082788310A30111E1C
:1019B000D72C23009A000D302000111EDD2C2300AF
:1019C0009A002000D22D8031D7238831D22D3E0BB2
:1019D000EB2C6914EC2C69100030691801302100DF
:1019E000A200A3008031200048248831D22D80310C
:1019F0001B23883180315D24883101302100AC0007
:101A0000AC08031D072D22000F13092D2100220011
:101A10000F1721000F130C2D22000F1221000F129F
:101A2000FF308F0020000F080F392100AD00220089
:101A30000F1621000F1200002D08F8007808A500ED
:101A40002E30230091000230920003100E3021004E
:101A5000AC00803120008326883121002508AD00AC
:101A60001B30AE0080312000082788310A30111E5B
:101A7000372D23009A000D302000111E3D2D23002C
:101A80009A002100A20122081E3C031CC92D220835
:101A9000AC000630AD00803120005C26883178082B
:101AA0002100AC00AD012C08AE002030850056307E
:101AB00084002D0884070030853D2E0880312000E9
:101AC000272088318000003803196B2D2100AE0AD1
:101AD000AD0A552D20002100220DF700F70DFC3036
:101AE000F7057708AC002C0A80312000E22088310D
:101AF000FA0021002C0880312000E22088312100EA
:101B0000A3007A08A4002408FA002308840024080B
:101B100085000008AC005B302000111E8D2D2300D5
:101B20009A0021002208AD000130AE008031200073
:101B3000082788315D30111E9B2D23009A0020302C
:101B40002000111EA12D23009A0020308500563060
:101B5000840080312000DA2688312030111EAE2D1D
:101B600023009A0021002C08AD001B30AE0080310C
:101B70002000082788310A30111EBC2D23009A004E
:101B80000D302000111EC22D23009A002100A20A50
:101B9000432D383023009100023092008031200024
:101BA000CC228831230020003C108831192E0A14E1
:101BB0008A100A158207DF2B952CE32CE72CD22DF7
:101BC000D22DF72C850184011F308305723021004E
:101BD00099008E150E1624001710971097111330C8
:101BE00092002830950094171413193023009B009D
:101BF000A6309E0090309D002F0091019201980127
:101C000099019A0123008C018D018F01900122001E
:101C100092019101940193012000A501A601803158
:101C2000822C88318031A62C883167103C1C1C2EF8
:101C300000288031B42288316718222E22000C122D
:101C4000242E200022000C1621000C122000671800
:101C50002D2E22008C122F2E200022008C16210007
:101C60008C1220006718382E220010103A2E200007
:101C7000220010142100101020006718432E2200AB
:101C80009010452E2000220090142100901020007A
:101C9000671C4E2E22000C10502E200022000C1427
:101CA00021000C102000671C592E22008C105B2E86
:101CB000200022008C1421008C102000671C642E50
:101CC00022000C11662E200022000C1521000C11A0
:101CD0002000671C6F2E22008C11712E2000220024
:101CE0008C1521008C1101302000E706FA3021000C
:0E1CF000A60080312000A7278831162E630041
:083FB800AA346A345A3456346D
:103FC000553455349534A534A934AA346034953425
:103FD0009934943440345934A434553450346A34C8
:103FE00098346534A0349034A8346934A6346434E9
:103FF0005434803458345634683496349A34A53462
:020000040001F9
:04000E00A40FFF1E1E
:00000001FF
;PIC16LF1937
;CRC=4036  CREATED="15-Apr-13 22:29"
