:060000009831762D00008E
:0800080083018A012000770842
:10001000A0007808A1007908A2007A08A3007B0854
:10002000A4008B1D15280B182B288B1E19280B19C3
:100030002D28850191308400801E2028911A2F28B8
:100040002008F7002108F8002208F9002308FA0028
:100050002408FB0009008031572B8031C82B8031E8
:10006000E12A0B0060346134623463340B00643481
:100070006534803481340B007134753482340B0064
:100080006E346F3470340B00403420340F3401343C
:10009000423420340F3401340C342034163401340B
:1000A0000D342034163401340E3420341634013427
:1000B0000F34203416340134103420341634013413
:1000C00011342034163401341234203416340134FF
:1000D00013342034163401341434203416340134EB
:1000E00015342034163401341634203416340134D7
:1000F00017342034163401341834203416340134C3
:1001000019342034163401341A34203416340134AE
:100110001B342034163401341C34203400340134B0
:100120001D342034003401341E34203400340134B2
:100130002234203400340134233420340034013498
:100140002434203400340134253420340234013482
:100150002634203406340134273420340634013464
:100160002834203404340134293420340E3401344A
:100170002A3420340D3401342B3420340B34013430
:100180002C342034073401344334203434340134E3
:1001900044342034123401342D3420341F340134DB
:1001A0002E3420340E3401342F3420340234013400
:1001B000303420341B340134313420340E340134D3
:1001C00032342034113401343334203401340134D6
:1001D00034342034003401343534203400340134D4
:1001E00036342034113401343734203400340134AF
:1001F00038342034003401343934203404340134A8
:100200003A342034023401343B3420340034013495
:100210003C342034113401343D3420340B34013467
:100220003E34203400340134453420340034013469
:10023000463420340534013447342034003400344B
:1002400074340034003400340B0065346534703489
:1002500072346F346D3400340B00643465346634AA
:10026000613475346C34743400340B0020342C3415
:100270003B340D3400340B00733465347434003473
:100280000B00533441345634453400340B0052349F
:100290004534533454344F345234453400340B0015
:1002A00073347434613474347534733400340B0033
:1002B0007234653462346F346F34743400340B003C
:1002C000643400340B0069343234633400340B007E
:1002D0006D346F3472347334653400340B002B3456
:1002E00000340B002D3400340B006E3400340B004E
:1002F000433450344F34543400340B00613464348C
:100300006D3469346E3400340B00443454344D344D
:1003100046343A34003445344E340034003400342A
:10032000003450344F344C340034003400345234F0
:1003300031344734313400340034523431344734AA
:1003400032340034003452343134473433340034DE
:1003500000345234313447343434003400345234AD
:100360003234473431340034003452343234473478
:1003700032340034003452343234473433340034AD
:10038000003452343234473434340034003452347C
:100390003334473431340034003452343334473446
:1003A000323400340034523433344734333400347C
:1003B000003452343334473434340034003452344B
:1003C0003434473431340034003452343434473414
:1003D000323400340034523434344734333400344B
:1003E0000034523434344734343400340034583414
:1003F0004934313400340034003458344934323410
:100400000034003400345834493433340034003478
:10041000003458344F34313400340034003458340C
:100420004F34323400340034003458344F343334D1
:100430000034003400345234313450340034003449
:1004400000345234323450340034003400345234E6
:1004500033345034003400340034523434345034A3
:100460000034003400345234313450345434543471
:10047000003452343234503454345434003452340E
:1004800033345034543454340034523434345034CB
:100490005434543400345334493444340034003434
:1004A00000345434583449344434003400344D3426
:1004B000523453343134003400344D3452345334D4
:1004C0003234003400344D34523453343334003435
:1004D00000344D34523453343434003400344D3409
:1004E000523453343534003400344D3452345334A0
:1004F00036340034003458344F344F3431340034FF
:10050000003458344F344F343234003400345834CB
:100510004F344F3433340034003458344F34413482
:1005200031340034003458344F34413432340034E0
:10053000003458344F3441343334003400345834A8
:1005400049344F34313400340034583449344F3452
:10055000323400340034583449344F3433340034A6
:100560000034583449344134313400340034583480
:10057000493441343234003400345834493441343D
:100580003334003400345434413449344C3400346E
:10059000003454344F345434003400340034433481
:1005A0004F345234003400340034433450344F3428
:1005B000543400346400111EDA2A23009A0020000B
:1005C0000800911E382B6400911EE32A23001908AD
:1005D0002200CF004F08083C031D162BF108031919
:1005E000102BF1034C307107840020308500031874
:1005F000850A800108302000DA221B30DA225B30C5
:100600006400111E002B23009A004B306400200070
:10061000111A0C2B2300062B23009A00142B220006
:1006200007302000DA2223003A2B220071080F3C09
:10063000031C352B4F082000DA227108F10A4C3ECA
:100640008400203085000318850A22004F088000AE
:100650004F080D3C0319332B4F082B3C0319332B48
:100660004F082D3C03197214392B07302000DA2271
:100670002200230020009112803120280F30210019
:100680008F002200D208031D472B0F13482B0F1792
:1006900000000F12000020000F082200D3000F30CE
:1006A000D3050F1600005308F800200008002700AB
:1006B00016080F3903196D2B20005F082200D100A6
:1006C00020000D0862060F39DF005F08220051028A
:1006D000031DF214F030270096050B1CBF2B0130D0
:1006E0002200D20020003E2378082200D000501DB6
:1006F000BD2BD20120003E2378082200CF0021002C
:100700005A142200CF08031D882B0A30CF008C2BEF
:100710004F080A3C0319CF014F080C3C031D9A2BCC
:10072000F21721003A0884003B088500003180164A
:10073000BC2B220021003B08203C031CBC2B031DCA
:10074000A52B3A08693C031CBC2B3A0884003B08E3
:100750008500003122004F080F39F700F030000506
:100760007704800021003A0884003B0885000031AE
:100770000016BA0A0319BB0A2200270016120B1C26
:10078000C42B72173F3096050B10803120002028B3
:1007900021002C082D040319D22B2C080319AD03BA
:1007A000AC03DE2B20000D0862060F39DF00F214C7
:1007B000721572172100AD011E30AC002E082F04F7
:1007C0000319E62B2E080319AF03AE030B1180317A
:1007D000200020288A06491943104529D2275210A3
:1007E0003A10CE37A020C3252033F2376D10CC212C
:1007F00044103A10A53A00008A065039EF31E53925
:10080000F334EE33A021EF36ED306E323A008A0633
:100810002010D334F432492220103A10A53A0001B6
:100820008A062010C337ED36613764103A10A53AB6
:1008300000018A0620104139E73AED326E3A3A104B
:10084000A53A00018A062010D630EC3A6510201037
:100850003A10A53A00014919431425322910C3263C
:1008600044103A10253200005B183B1848008A06F5
:10087000491943103A10CE37A020C325201DA012DD
:1008800075008A06D0377414A53A291EBD1275006A
:10089000C327521DA5392028542ABA1273005B1AA7
:1008A000B71D331A6D050D296132E93720296538E6
:1008B000E530F4327210C3376E3AF2376C36653970
:1008C000A01620005B1AB71DB3186D2B45194C29D3
:1008D00053005B1AB71D331A6D10A8212910321866
:1008E000B1190A050D005B1AB01DB31B6D000A0596
:1008F0008D214F29BA127510A822ED3A6C1DA53A28
:10090000A91DA020753C4937BA1275008A06442AF1
:100910004D23A029F430F43A73103A10A53A8A0610
:1009200000008A06491943104539F23772103A100F
:10093000CE37A020C3252033F2376D105429C926A5
:10094000D027D429201DA0127500D027541DA53111
:100950002532A012E3126410A5312532A012E31251
:1009600064000A058D20C42649273E1000010A05AF
:100970008D21CF26CD204E223E1000008A06493719
:10098000693AE930EC34FA34EE332029C126203BB1
:100990006139E9306236E5392033F2376D10C5220E
:1009A0005029CF2600018A064937693AE930EC34EC
:1009B000FA34EE332029C126203B6139E930623612
:1009C000E539A03B693A6810E634F236F730F23286
:1009D00020326533E13A6C3A203B6136F5327300E0
:1009E0008A06D330F634EE332029C126A0316F3782
:1009F000E634E73AF230F4346F37A0346E10C52293
:100A00005029CF262E008A0620104334E531EB39D9
:100A1000F536A036E939ED30F43168172029E5398B
:100A2000F437F234EE3320326533E13A6C3A203B4E
:100A30006136F532731700008A064937693AE930A2
:100A4000EC34FA30F4346F37A031EF367036653A53
:100A500065008A06D332743A69376710A539A8123F
:100A6000F514203A6F10A53A00008A062310502A88
:100A70005410D434ED32EF3AF4100A008A06442AB6
:100A80004D233D0010302100E500E40165086402BB
:100A90000318542D4C30640784002030850003185F
:100AA000850A8001E40A462DF1017210FF30F5003D
:100AB000BC01F001200008000B082200B9008B13D4
:100AC0002300951715140000000013087F3903193F
:100AD000AC2D2200BA00230011082200BB00230025
:100AE00012082200BC003A0864002000111A7A2D76
:100AF0002200742D23009A0022003B08230091005D
:100B000022003C08230092009517151400000000F5
:100B1000130D140D7F390319AC2D2200BA002300E8
:100B200011082200BB00230012082200BC003A0872
:100B300064002000111A9E2D2200982D23009A0097
:100B400022003B082300910022003C082300920071
:100B5000910A0319920A612D2200B91B8B172000FC
:100B600008001B30DA225B306400111EB42D230014
:100B70009A00323064002000111AC02D2300BA2DD3
:100B800023009A004A3064002000111AC92D230066
:100B9000C32D23009A001B302000DA2234302300BA
:100BA00091000430920020005C25080022003608E5
:100BB0008400370885000008B90039087F3C031C11
:100BC000B90A0310390D093A3807B900360884000C
:100BD0003708850039088000200008000130220015
:100BE000B000B101B3002C0BFE2DBE3023009100EC
:100BF0000430920020005C25052E2200D330230013
:100C000091000430920020005C252200AD012D08E7
:100C1000373C031C642E2D0DF700F70DFC30F70553
:100C20007708B500350A20004320FA002200350875
:100C3000200043202200AE007A08AF002C0B502E7B
:100C40002D0DF700F70DFC30F7057708033E200067
:100C50004320F80078182E2E2200502E2200310852
:100C6000230091009513151413082200B4002E08D8
:100C700084002F088500340880002F08FA002E0811
:100C800084002F0885000008B5002030B700B03080
:100C9000B6003508B8002000D6252200B10A622E21
:100CA0002D0DF700F70DFC30F7057708023E200008
:100CB0004320F8002200B2002E0884002F0885008F
:100CC00032088000AD0A072E2C0B702E310823004D
:100CD000910095131514130822003002031DB3016F
:100CE0003308F8002000080001302200B000AD01F8
:100CF000AC012C08373C031CD22E2C0DF700F70D4D
:100D0000FC30F7057708B200320A20004320FA00D1
:100D100022003208200043202200AE007A08AF00F3
:100D20002C0DF700F70DFC30F7057708033E200087
:100D30004320F800781CCF2E22002E0884002F08B4
:100D400085000008B1002D082300910095131514AB
:100D50001308220031020319C42E0B08F7008B136D
:100D60002D082300910022003108230093009513E1
:100D7000151555309600AA30960095149518BE2E7C
:100D8000151177088B0422002030B700B030B60070
:100D90003108B8002000D6252200AD0A200022002C
:100DA000AC0A792E0B08F7008B132D082300910055
:100DB0002200300823009300951315155530960036
:100DC000AA30960095149518E32E151177088B0418
:100DD000F03091000430920020005C2508002200D1
:100DE0002B08AC002000EE25F808031D032F03306C
:100DF000230091000530920020005C252200AC0108
:100E00002000EE2574260800003021008F0022000B
:100E100041103F080F390139031D41144118122FA9
:100E20000F10132F0F1441103F080F390239031D03
:100E3000411441181D2F8F101E2F8F1441103F0891
:100E40000F390439031D41144118282F0F11292F80
:100E50000F1541103F080F390839031D411441187F
:100E6000332F8F11342F8F15C008031D392F0F1307
:100E70003A2F0F173B2F8F123D2F8F163F2F0F301A
:100E800021008F00200008001B30DA224F302300A1
:100E900091000430920020005C251B30DA22623081
:100EA000230091000430920020005C251B30DA22E0
:100EB0006930230091000430920020005C251B3033
:100EC000DA227330230091000430920020005C2568
:100ED0000800240095132000911122004A082400E4
:100EE00091000230951B7B2F2000911D752F003043
:100EF0002400161B0130F800200008000B08220017
:100F0000CB008B1323009517151400000000031865
:100F1000B22F13087F392200CC00230011082200D1
:100F2000CD00230012082200CE004C0864002000EF
:100F3000111A9C2F2200962F23009A0022004D08A0
:100F40002300910022004E082300920095171514EB
:100F5000000000002200CA0BAE2FB02F2300B22FDA
:100F6000D72F2300130D140D7F392200CC0023004E
:100F700011082200CD00230012082200CE004C08E8
:100F800064002000111AC62F2200C02F23009A00EF
:100F900022004D082300910022004E0823009200F9
:100FA000910A0319920A03102200CA0B822FCB1B4D
:100FB0008B172000080022004D08F8014C0203188E
:100FC000E42F4C08F700F02FF7010830CE00CC0DCD
:100FD000F70D4D0877020318F700F80DCE0BE72F39
:040FE00020000800E5
:10100000780822004A08CC006430CD0080312000EE
:10101000DB27883177082200CA0078083030031DAA
:101020001828CB1C2628CB1926284B1A20301B2821
:10103000CB114B124B14F807780864002000111AEA
:10104000232822001D2823009A0022004A08CC00F1
:101050000A30CD0080312000DB278831770822005C
:10106000CA0078083030031D3B28CB1946284B1C9A
:1010700046284B1A2030F807780864002000111A1F
:10108000432822003D2823009A0022003030CA075E
:101090004A0864002000111A4F2822004928230022
:1010A0009A00200008002200330EB500B50DB50DE2
:1010B000C030B50534083F39B5072400161416189A
:1010C0005F2850302200CA00803120006927883113
:1010D00078082200361078183614361C882800301C
:1010E00036180130B70037302300910004309200E9
:1010F000031011302200CA00803120007E27883181
:1011000022003708CA001B30CB002000002022003C
:101110003508CA008031200069278831240016155F
:1011200016199028413023009100043092000310DA
:1011300006302200CA00803120007E27883122003C
:101140003308CA001B30CB00200000202930640087
:10115000111EA72823009A003C3064002000111AB9
:10116000B3282300AD2823009A003D3064002000FE
:10117000111ABC282300B62823009A002200340844
:10118000CA001B30CB0020000020080022004008CD
:10119000F700031023009517151400000000130832
:1011A0008000840A910A0319920AF70BCC282000C8
:1011B000080001302200BF00C00180312000042758
:1011C00088310C302200BF000130C0008031200087
:1011D0000427883105302200BF000130C000803173
:1011E00020000427883105302200BF000130C000F4
:1011F00080312000042788312100AF010230AE0089
:101200002E082F04031906290000002904302200AB
:10121000BF000130C0008031200004278831640005
:10122000080001302200BF00C001803120000427E7
:1012300088310C302200BF000130C0008031200016
:101240000427883105302200BF000130C000803102
:1012500020000427883105302200BF000130C00083
:1012600080312000042788312100AF010630AE0014
:101270002E082F0403193E290000382904302200CB
:10128000BF000130C0008031200004278831640095
:101290000800DC3022002C07B0001F30B10003181A
:1012A000B10A310823009200220030082300910087
:1012B00020308500AD30840001302200C0002000C5
:1012C000C62021005A152200AE012E08033C031C43
:1012D0008F292F142D08C039403A20000319742992
:1012E000C03A031976297829D9207B2911217B2935
:1012F00022002F1020002200AD0DAD0DFC30AD05F9
:101300002F1C8D292100AF010230AE002E082F04C2
:1013100003198C29000086292200AE0A65292C08B1
:10132000093C031C9E292C08043C031C9B2920001B
:1013300011219D2922002000D92022002000080030
:1013400022002C080739F7002C0CF800F80CF80CD8
:101350001F30F80578082E07840000302F3D8500E7
:10136000F801F80AF70AB529F80DF70BB429AD080A
:101370000319BD2978088004C029F8097808800578
:101380002000080021005C0885005B088400220022
:101390004A081A0080012100DB0A0319DC0A200038
:1013A00008000B082200C5008B13230095171514A5
:1013B000000000000318002A13087F392200C6002D
:1013C000230011082200C700230012082200C800D1
:1013D0004608CA002000C2212200470823009100CD
:1013E0002200480823009200951715140000000001
:1013F0002200C40BFC29FE292300002A202A2300F6
:10140000130D140D7F392200C6002300110822009D
:10141000C700230012082200C8004608CA002000A6
:10142000C22122004708230091002200480823001F
:101430009200910A0319920A03102200C40BD529C5
:10144000C51B8B172000080080080319382A0508DF
:101450002200AC000408AB000008CA002000C22132
:1014600022002C0885002B08840001312000242A4A
:10147000080003102200440D0E396038C700240014
:1014800016141618412A22004708CA00803120008D
:101490006927883178082200481078184814481CB9
:1014A000712A21005A1E6F2A00302200481801308C
:1014B000C900EA302300910003309200031020306D
:1014C0002200CA00803120007E278831220049088E
:1014D000CA001B30CB002000002021005A12732AC2
:1014E000220021005A1622004608FA00450884000E
:1014F0007A08850080080319902A4608FA004508F2
:10150000C50A0319C60A84007A0885000008C900C4
:10151000CA0080312000692788312100732A220007
:10152000CA01803120006927883124001615161958
:10153000972A2000080020308500C430840000086D
:101540000319B32A0230F800BF30F7006400F70B2C
:10155000A62AF80BA42A9630F700F70BAD2AB02A7A
:101560006400800BA22A080020302200451E303083
:10157000C6004408F700C41FC52AF709F70A770810
:10158000C4002D30C600C51745144408CC00643093
:10159000CD0080312000DB27883177082200C4008D
:1015A00030307807C7004408CC000A30CD008031C5
:1015B0002000DB278831303077072200C900303027
:1015C0007807C8004608F700303047020319EC2AB4
:1015D000C514C51B4515002B4608C7002030C600A2
:1015E000303048020319F82A4514C51BC514002BD6
:1015F000031D4514031D002B4708C8002030C700F9
:101600004519072BC5180C2B4518112B162B46080E
:10161000CA002000C22122004708CA002000C221BF
:1016200022004808CA002000C22122004908CA003E
:101630002000C221080080080319342B050822006D
:10164000C5000408C400000864002000111A2A2BF9
:101650002200242B23009A0022004508850044081C
:101660008400013120001B2B080020302200BC0028
:10167000BD00BE00BF00C001C101C201C3012830CE
:10168000C40020009B22240016141618452B51304C
:101690002200CA00803120006927883178082200A2
:1016A000BB107818BB14B9013908033C031C912BFB
:1016B0003908033C031D5E2B3B105F2B3B140030AD
:1016C0003B180130C4004408F70024001513961598
:1016D0009619682B77189612771C96161616161AF6
:1016E0006F2B1108F80078082200BA003F30BA05C5
:1016F000C03039078400203085000318850A3A0875
:101700008000740803393902031D8F2BBC30390760
:101710008400203085000318850A2A308000B90A29
:10172000542B240016151619932B32302200C400B6
:1017300020009B222200BB1CB62B00303B1801303E
:10174000C400913023009100043092000310253032
:101750002200CA00803120007E2788312200440800
:10176000CA001B30CB0020000020220020302100C6
:10177000DC007230DB00A5302300910004309200C1
:10178000031004302200C4002000D12122003C08B4
:10179000CA002000C22122004008C4001830C50041
:1017A0002000B42220302200CA002000C2212200E2
:1017B0003D08CA002000C22122004108C4001830A0
:1017C000C5002000B42220302200CA002000C2211F
:1017D00022003E08CA002000C22122004208C400A4
:1017E0001830C5002000B42220302200CA0020009A
:1017F000C22122003F08CA002000C2212200430863
:10180000C4001830C5002000B4222200C4012030DA
:10181000C6007230C500200039220A306400111E53
:101820000E2C23009A000D3064002000111A1A2C8F
:101830002300142C23009A0020308500723084008D
:1018400020001B23080030302200A000A100A200CD
:10185000A300A401A500A600A700A800A9012100DB
:101860006A082000EA002100EA0803194A2C013026
:101870006A02293E8400203085000318850A00088A
:101880002200AB0020006008610522002B0521002A
:10189000EF00582CEF01F21E582CF2122000E8083D
:1018A0000319572C68082200AC00200049212100B0
:1018B0000130EE00EB016B08033C031CD12CEA085D
:1018C000031D672C22002A10AA10822C210001304F
:1018D0006B076A02031D742C22002A1421006E0873
:1018E0002000E900772C210022002A10200022008D
:1018F000AA1021006F086E050319812C2200AA147A
:101900002100220021006B08803120003120883125
:101910002200AB0000302A180130F7002B08AC0081
:101920007708AD000130AF00AE012000A0212200F9
:101930002B08AC00AD01AF018030AE002000A0212B
:1019400021006B0880312000362088312200AB0056
:101950000030AA180130F7002B08AC007708AD0062
:101960000130AF00AE012000A02122002B08AC0006
:10197000AD01AF018030AE002000A0212200AA1CE2
:10198000CC2CA53021006B07840020308500031883
:10199000850A31308000220003102100EE0DEB0A91
:1019A0005B2CEA08031DD82C2000EB01082D210038
:1019B00001306A02253E8400203085000318850A24
:1019C00000082000EB002100EC016C08033C031C24
:1019D000062D01306A02F700F70DF70DFC30F70510
:1019E00077086C070C3E8400203085000318850AB8
:1019F0000008ED006C082200B30021006D082200F1
:101A0000B400200053202100EC0AE52C5A152000D8
:101A10002100EA080319162D01306A02A03E840055
:101A2000203085000318850A313080002030DC002A
:101A30007230DB0048302300910004309200031024
:101A400004302200C4002000D12120308500A030C5
:101A5000840024224B3023009100043092000310B4
:101A600005302200C4002000D12120308500A5309F
:101A70008400242201302200C4002030C6007230CD
:101A8000C5002000392232302200C40020009B22F1
:101A9000352308002100DA112200BE080319532D56
:101AA0002100DA1522002100DA1D582D3C30F30008
:101AB00020000800803142258831220092019101E6
:101AC0009401930117302100970024008D016F309D
:101AD0008D00210095132000DF01F212FD01FC01B1
:101AE000E901EB01EA01F40121001D10FF3066005D
:101AF00000308F00101090101011901591168B155A
:101B0000CF302700940495048B1515161412C0309D
:101B10008B0422008F138F160F160F1380312000B5
:101B2000B125883101302200AB0080312000EF2642
:101B3000883122000F168F160F13BF010130C0002D
:101B400080312000042788312200BF010130C0000D
:101B500080312000042788310C302200BF00013082
:101B6000C000803120000427883101302200BF00EE
:101B7000C0008031200004278831A5018B1BA517E8
:101B80008B1301302200D200803120003E238831A7
:101B9000A51B8B172100DA140F302000E1008031E3
:101BA000442788319D3067002200B301B401200032
:101BB000532001302200B300B40120005320023032
:101BC0002200B300B4012000532003302200B300F0
:101BD000B401200053202100AD013C30AC001508B9
:101BE000C039073895008B16EA01200023241E30E7
:101BF0002100D7003C30FE007212F2115A1520006D
:101C00006508E8000130C200C300C400BF01C00184
:101C1000C10172132200BE0120004A251C3023009E
:101C2000910005309200803120005C258831983188
:101C3000A92D22003D083E040319222E3E08FA0079
:101C40003D08272E20002708FA0026082200C100A0
:101C50007A08C2004208C6004108C5004008C80012
:101C60003F08C7004608CA004508C9004A08FA00EC
:101C7000490884007A08850080080319702E4808F6
:101C8000CC004708CB004C08FA004B0884007A08C7
:101C900085008008031D562E45084902F7004608B6
:101CA0004A3BFA007708F800782E682E4A08FA00B6
:101CB000490884007A0885000008CD004C08FA0025
:101CC0004B0884007A08850000084D0203196C2E29
:101CD000CB0A0319CC0A432EC90A0319CA0A362EA5
:101CE00045084902F70046084A3BFA007708F80021
:101CF0007808C1070030C23D4208FA00410884005C
:101D00007A0885008008031D912E20002608840093
:101D100027088500203080000030F800F900F62EFA
:101D200022004208C6004108C5004008C8003F081C
:101D3000C7004608CA004508C9004A08FA00490811
:101D400084007A08850080080319D22E4808CC0048
:101D50004708CB004C08FA004B0884007A0885003D
:101D600080080319CE2E4A08FA00490884007A0830
:101D700085000008CD004C08FA004B0884007A0862
:101D8000850000084D02031DCA2E4908F8004A08C4
:101D9000F900D52ECB0A0319CC0AAA2EC90A0319B9
:101DA000CA0A9D2E0030F800F9007908C4007808AE
:101DB000C3004408FA00430884007A0885008008BC
:101DC0000319EA2E43088400440885008001C30AF1
:101DD0000319C40A44082000A70022004308200079
:101DE000A60022004108F8004208F900200008007F
:101DF000F701F8012200410803104218F707F70C19
:101E0000F80CC218F707F70CF80C4219F707F70C93
:101E1000F80CC219F707F70CF80C421AF707F70C81
:101E2000F80CC21AF707F70CF80C421BF707F70C6F
:101E3000F80CC21BF707F70CF80C20000800220072
:101E4000BF01C0013F083D07840000303E3D8500D2
:101E500080080319542F3F083D07840000303E3DA1
:101E6000850000082F3C0318542F3F083D078400CD
:101E700000303E3D85000008393C031C542F4008CB
:101E8000C1000A30C2002000F82678082200C100F4
:101E90003F083D07840000303E3D850030300002A1
:101EA0004107C000BF0A222F4008F80020000800A8
:101EB00022003E08FA003D0884007A0885000008E8
:101EC000C1004008FA003F0884007A088500000835
:101ED00041020319C12F3E08FA003D0884007A0828
:101EE00085000008C1004108403C03187B2F4108D1
:101EF0005A3C0318832F4108603C0318D72F410830
:101F00007A3C031CD72F4008FA003F0884007A0867
:101F100085000008C1004108403C0318932F410888
:101F20005A3C03189B2F4108603C0318D72F4108E7
:101F30007A3C031CD72F3E08FA003D0884007A083B
:101F400085000008C1004008FA003F0884007A08B4
:101F500085002030000741020319C12F4008FA0014
:101F60003F0884007A0885000008C1003E08FA0096
:101F70003D0884007A088500203000074102031DD7
:101F8000D72F3E08FA003D0884007A0885008008B3
:101F9000031DCD2F0030F800ED2F3E08FA003D085C
:101FA000BD0A0319BE0ABF0A0319C00A592F3E0809
:101FB000FA003D0884003E0885000008C100400882
:101FC000FA003F0884004008850000084102031819
:0E1FD000EB2FFF30EC2F0130F800200008004E
:1020000010302200BF00F701FA01BC0CBB0C031C0E
:102010000F283D08F7070318FA0A3E08FA07FA0CDA
:10202000F70CF90CF80CBF0B052820000800220063
:10203000BD013D08053C031C40283D083907F80058
:1020400000303A3DFA007808BE007A08BF003D082B
:102050003B07F80000303C3DFA007808230091006F
:102060007A08920022003F0885003E088400013073
:10207000C00088312000C62090312200BD0A1928F6
:102080002000080000302100DA1901302200B200DF
:10209000BE00883120004A25903100302100DA1935
:1020A0000130F80020000800740803392200B10054
:1020B0002000EA080319932801306A02F700F70D9F
:1020C000F70DFC30F7057708220031070C3EF800C9
:1020D0002030FA000318FA0A7808AE007A08AF0038
:1020E0002E0884002F0885000008B0002E08840008
:1020F0002F0885002D083007800020004220F808B6
:102100000319932822002F08FA002E0884002F08B4
:1021100085000008B2003108B3003208B4008831ED
:102120002000532090318831352390310800780801
:1021300022002B08CC006430CD0080312000DB274A
:10214000903177082200AB0078083030031DAF28AB
:10215000AC1CBA28AC19BA282C1A2030B228AC1101
:102160002C122C14F8077808CA0088312000C221EC
:10217000903122002B08CC000A30CD0080312000A5
:10218000DB27903177082200AB0078083030031D40
:10219000CF28AC19D7282C1CD7282C1A2030F807A8
:1021A0007808CA0088312000C221903122003030E6
:1021B000AB072B08CA0088312000C22190310800EB
:1021C0002100DA1DEE28B130230091000430920086
:1021D000803120005C259031F7282100B7302300A2
:1021E000910004309200803120005C25903108007D
:1021F0002200AA012A08053C031C1A292D302A07AF
:102200008400203085000318850A0008AB002B08E5
:10221000AC0088312000492190312100AF01063007
:10222000AE002E082F0403191729000011292200DF
:10223000AA0AFA2820000800F00803198029FC30B7
:102240002300910003309200803120005C25903102
:102250000730230091000430920003100E3022005A
:10226000CA00803120007E27903163082200CA0016
:102270001B30CB008831200000209031103023002B
:1022800091000430920003100E302200CA00803109
:1022900020007E27903170082200CA001B30CB003E
:1022A0008831200000209031193023009100043043
:1022B000920003100E302200CA00803120007E27D9
:1022C000903175082200CA001B30CB0088312000F5
:1022D000002090312230230091000430920003103E
:1022E0000E302200CA00803120007E27903176080F
:1022F0002200CA001B30CB00883120000020903122
:1023000002307002F53E03184E2D0B3E4F2D76081D
:10231000FF3C031DB1290A306400111E8C292300E3
:102320009A000D3064002000111A98292300922988
:1023300023009A00850175088400883120001B2342
:10234000903120306400111EA22923009A007608E3
:102350002200CA001B30CB008831200000209031C1
:102360003E2A750DF700F70DFC30F70577082200BF
:10237000AD002D0A8031200043209031FA00220068
:102380002D0880312000432090312200AA007A08D5
:10239000AB0020004220F8080319D62922002A08A1
:1023A00084002B08850076088000200022002A087F
:1023B00084002B0885000008AC007508FC00013083
:1023C000FD002930230091000530920003100A30EF
:1023D0002200CA00803120007E2790312030850005
:1023E0006C30840088311B23903128306400111E2A
:1023F000F62923009A0075082200CA001B30CB0082
:1024000088312000002090313030230091000530C9
:102410009200031405302200CA00803120007E277C
:10242000903122002C08CA001B30CB0088312000DC
:102430000020903122002B081F3C0318302AFF3A5D
:10244000031D262A2A080B3C0318302A2B08203C9F
:10245000031C302A031D372A2A081B3C0318372A7D
:102460002A08743C031D3B2AAB08031D3B2AAD011F
:1024700020005420220021005A1520004E2D750DF9
:10248000F700F70DFC30F70577082200AA002A0AAA
:102490008031200043209031FA0022002A08803148
:1024A0002000432090312100EE007A08EF007508EB
:1024B000FC000130FD000130FA008B302200AA0040
:1024C0007A08AB00AD017508AC002D08BC002C08E3
:1024D000BB00BE010630BD002000002078082200AD
:1024E0002A07A20079082B3DA3002030BA00A430AF
:1024F000B9002308BC002208BB00200017202100DF
:102500006F08FA006E0884006F088500000822003A
:10251000AA0020302100DC007230DB005B3022009A
:10252000CA0088312000C221903175082200AB001A
:102530000130AC00200097205D302200CA008831B5
:102540002000C221903120302200CA0088312000B2
:10255000C221903120308500A430840088312422AB
:10256000903120302200CA0088312000C2219031F1
:1025700022002A08AB001B30AC00200097200A3054
:102580002200CA0088312000C22190310D30220083
:10259000CA0088312000C22190310A306400111E27
:1025A000CE2A23009A000D3064002000111ADA2A86
:1025B0002300D42A23009A00203085007230840042
:1025C000883120001B23903102302200C4002030CB
:1025D000C6007230C5008831200039229031E020D9
:1025E0004E2D4220F8080319F82A803174269031C4
:1025F0004E2D760BFF2A22002014012B20002200F2
:10260000201020004220F8080319102B003022006F
:1026100020180130AA00AB0080312000EF26903155
:102620004E2D75080339F40076082200AD00200015
:10263000542021005A1520004E2D75080339F4004E
:10264000FF302200C1007608C20088312000F82641
:10265000903178082200AA00AD002000542021000B
:102660005A1520004E2D8031B125903180314427FC
:102670009031A5018B1BA5178B1301302200D200CE
:10268000803120003E239031A51B8B177808220053
:10269000B100B201AB01AA01AB08031D432C2A080B
:1026A000373C031C432C0130FA008B30B9007A0808
:1026B000BA002B08BC002A08BB00BE010630BD00D2
:1026C00020000020780822003907AD0079083A3D43
:1026D000AE002030BA00B330B9002E08BC002D087F
:1026E000BB002000172022002A0DB9002B0DBA00D4
:1026F000B90DBA0DFC30B9053A08FA003908BB002B
:10270000390A8031200043209031FA0022003B0832
:1027100080312000432090312200AF007A08B000C1
:102720003008FA002F0884007A0885000008B900F4
:102730005B3064002000111A9F2B2200992B23008C
:102740009A000B30840022002B08BB002A08BA0034
:102750000508C2000408C1003B0EF038BD00BD07EB
:10276000E23EBE00323EC0003B080F39BE07BE0746
:10277000C007E93EBF00BF07BF073A0E0F39BF07CA
:10278000C007BF0DC00DC009C00D3A080F39C00702
:10279000BD0D0730BC000A30C007BF03031CCC2BA3
:1027A000BF07BE03031CD02BBE07BD03031CD42BE5
:1027B000BD07BC03031CD82B013085003C308400CE
:1027C00007304105411384074030040203194117C3
:1027D0000008F700031DF42B411BF42B411A022CB7
:1027E000C119F42B2030F72BC11541123030F707F7
:1027F000770864002000111AFF2B2200F92B230018
:102800009A0022000131411FE42B5D30640020005A
:10281000111A0C2C2200062C23009A002030640090
:102820002000111A152C23000F2C23009A002030B1
:102830008500B3308400883120001B239031203084
:102840006400111E202C23009A0022003908CA00BF
:102850001B30CB0088312000002090310A3064000A
:10286000111E2F2C23009A000D3064002000111A35
:102870003B2C2300352C23009A0064002200AA0A76
:102880000319AB0A4C2BAC012C08023C031C5E2C38
:102890001F302C078400203085000318850A000BA8
:1028A0005C2C0230F7002C08F80003195A2CF7357D
:1028B000F80B572C7708B207AC0A442C773023006A
:1028C000910004309200031007302200CA008031CA
:1028D00020007E2790315F082200CA001B30CB0009
:1028E00088312000002090317B302300910004309B
:1028F0009200031407302200CA00803120007E2796
:10290000903167082200CA001B30CB0088312000BC
:102910000020903180302300910004309200031099
:1029200009302200CA00803120007E279031220029
:102930003208CA001B30CB008831200000209031C3
:1029400086302300910004309200031010302200E2
:10295000CA00803120007E27903122003108CA0051
:102960001B30CB0088312000002090310A306400F9
:10297000111EB72C23009A000D3064002000111A9C
:10298000C32C2300BD2C23009A008831200035235E
:10299000903121005A1520004E2D7508023A031976
:1029A000D82C033A0319DD2C023A0319E52CE72C45
:1029B0004220F808031D0100ED2C01302200BE006A
:1029C000883120004A259031ED2CF820ED2C220092
:1029D000BE01883120004A2590314E2D76080339FA
:1029E000043E2200A10020302100DC007230DB0018
:1029F0002B30230091000430920003100430220099
:102A0000C40088312000D121903160302200C40000
:102A10001830C50088312000B42290312E302300B8
:102A2000910004309200031008302200C400883165
:102A30002000D121903122002108C4001830C500A7
:102A400088312000B42290310A306400111E252DF7
:102A500023009A000D3064002000111A312D23004C
:102A60002B2D23009A00203085007230840088319D
:102A700020001B23903122002108C4002030C60012
:102A80007230C50088312000392290314E2D7608F1
:102A90002200AC00883120004921903108000A143E
:102AA0008A100A15820787293F2AF12AF92A112B51
:102AB0001D2B332BCD2C4E2D472DEE2C21006808DD
:102AC0000739F700680CF800F80CF80C1F30F8050F
:102AD00078086907840000306A3D85000008F80026
:102AE000F70A732DF80CF70B722D90312000A22DF0
:102AF0002100E4016408023C031CBF2D1F30640761
:102B0000F8002030FA000318FA0A7808E5007A087D
:102B1000E6006408803120003F2090312100E7006A
:102B20002200AC000130AD00AF018030AE00883132
:102B30002000A021903121006708E800EA01E901A6
:102B400020005E2D7818B42D1C302100640784000D
:102B5000203085000318850A80080319B12D200054
:102B6000B42D0030B62D200001302100E8006608A9
:102B700085006508840068088000E40A7A2D983191
:102B80002000B72D22002A101F3029078400203092
:102B900085000318850A8008031D2A1428080F39A8
:102BA000AB002808F039F700770EAC000F30AC0509
:102BB00001302702FC3E0318232E043E2000262E5F
:102BC00022002A1CE82D28082000E105ED2D220016
:102BD0002808FF3A0F392000E1042200232E2200AA
:102BE0002A1CF82DF21628082000E800FA2D2200F1
:102BF0002000E8012200232E22002A18052EF216BA
:102C000028082000E800072E22002000E80122000A
:102C1000232E2200280810390319122EAA102A1C6C
:102C2000AA14152EAA102A18AA14AA1C1C2E2B08A6
:102C30002000E704202E22002B08FF3A2000E705A1
:102C40002200232E2200903120005A2F0A108A14CD
:102C50000A158207E02DFC2DEF2D092E22002808F1
:102C6000AC002708AB002C08FA002B0884007A0877
:102C7000850080080319402EAB0A0319AC0A332ED5
:102C80002A08FA00290884007A08850080080319B8
:102C90005C2E290884002A0885000008AF002C0853
:102CA00085002B0884002F088000AB0A0319AC0AAA
:102CB000A90A0319AA0A402E2B0884002C088500B3
:102CC00080012708F8002808F900200008003030AB
:102CD0002100E700E800E900EA01EB00EC00ED006C
:102CE000EE012030EF0041302200A0004430A1006E
:102CF0004D30A2004930A3004E30A400A5012100B0
:102D0000E4016408023C031C5D2F33306407840037
:102D1000203085000318850A0008E5003630640776
:102D20008400203085000318850A0008E600650845
:102D30002200A700210066082200A80021006408E4
:102D40002200A90028080F39AB002808F039F70045
:102D5000770EAC000F30AC05200067080F395F0418
:102D60002200AA002708013A20000319BB2E033ACB
:102D70000319D02EE92E22302200290784002030AA
:102D800085000318850A20005F0822002C062B0509
:102D9000031DCC2E0030CD2E013080002000E92E06
:102DA0002230220029078400203085000318850A7C
:102DB0002B081F39AF007A08B0002C08AF06031D9E
:102DC000E62EB008031DE62E0030E72E013080000D
:102DD00020002200261022302100640784002030C9
:102DE00085000318850A8008031DF92E2200261489
:102DF00021006408803120003B2090312200A70090
:102E0000003026180130F7002708AC007708AD0025
:102E10000130AF00AE0188312000A02190312200A6
:102E20002708AC00AD01AF018030AE008831200032
:102E3000A021903122002618282F9B302100640702
:102E40008400203085000318850A3130800022007C
:102E50003930210064078400203085000318850A7A
:102E60000008E5003C30640784002030850003182A
:102E7000850A0008E6001F306407840020308500C2
:102E80000318850A000B4D2F97306407840020300B
:102E900085000318850A3130800065082200A700EC
:102EA000210066082200A800210064082200A90071
:102EB0002000C22D2100E40A812E2030DC00723077
:102EC000DB0049302200CA0088312000C221903145
:102ED0003A302200CA0088312000C22190312030CF
:102EE00085009730840088312422903120302200E0
:102EF000CA0088312000C22190314F302200CA0020
:102F000088312000C22190313A302200CA00883135
:102F10002000C2219031203085009B308400883110
:102F2000242290312100DA1DA12F20302200A80098
:102F30007230A7002030AA009F30A90020002E2662
:102F4000210003302200C4002030C6007230C500CA
:102F5000883120003922903108002100660867027C
:102F6000031CD72F6608093C031CD72F6A14660878
:102F7000E90069086702031CD62F603069078400E6
:102F8000203085000318850A00080F39E8006030FA
:102F900069078400203085000318850A001E6A1026
:102FA00068080C3C03196A10E90AB92FD82F6A1077
:102FB00000306A180130F800200008002100E40108
:102FC0006408093C031CEE2F603064078400203045
:102FD00085000318850A8001E40AE02F2030BB0039
:0A2FE0006030BA0098312000D12EB5
:1030000002302200C4002030C6004C30C500883198
:10301000200039229831FF30F50022002610BD0132
:10302000BE0120308500A93084003D0884070030AF
:10303000853D3E08803120003521983180000038E0
:10304000031927282200BE0ABD0A112820002030BB
:103050002200BE004C30BD002030C000A930BF00AF
:10306000883120001926983179082200A8007808B4
:10307000A700A708031D3F28A808031959282808F6
:10308000C0002708BF002030BE009E30BD004008B1
:1030900085003F0884000008C1003E0885003D0807
:1030A000840041088000800803195928BD0ABF0A1E
:1030B0004728BE01BD012030C000A930BF008831C3
:1030C00020001926983179082200A8007808A70066
:1030D000A708031D6E28A808031988282808C0001F
:1030E0002708BF002030BE006C30BD0040088500BE
:1030F0003F0884000008C1003E0885003D088400A8
:1031000041088000800803198828BD0ABF0A762874
:10311000BE01BD012030C000A930BF0088312000B1
:103120001926983179082200A8007808A700A70876
:10313000031D9D28A8080319C3282808C0002708D4
:10314000BF002030BE00B130BD00400885003F0800
:1031500084000008C1003E0885003D088400410845
:10316000800080080319B728BD0ABF0AA5282030AF
:10317000BE00B130BD00883120001F27983178088B
:10318000F600C6282200F601261420002200BD0108
:10319000BE0120308500B53084003D088407003032
:1031A000853D3E08803120003B2198318000003869
:1031B0000319DF282200BE0ABD0AC92820002030DA
:1031C0002200BE00B530BD002030C0009E30BF00E0
:1031D0008831200058279831F808031DF82822006C
:1031E000261CF5280330F000F7280230F0002000FC
:1031F0002200BD01BE0120308500B53084003D08AD
:1032000084070030853D3E08803120004021983100
:1032100080000038031911292200BE0ABD0AFB28CC
:10322000200020302200BE00B530BD002030C0009C
:103230009E30BF008831200058279831F808031DC0
:1032400023290430F0002200BD01BE01203085009A
:10325000B53084003D0884070030853D3E0880314C
:103260002000462198318000003803193C292200B3
:10327000BE0ABD0A2629200020302200BE00B5303B
:10328000BD002030C0009E30BF008831200058278C
:103290009831F808031D4E290530F0002200BD01C9
:1032A000BE0120308500B53084003D088407003021
:1032B000853D3E08803120004F2198318000003844
:1032C000031967292200BE0ABD0A512920002030B7
:1032D0002200BE00B530BD002030C0009E30BF00CF
:1032E0008831200058279831F808031D79290830C3
:1032F000F0002200BD01BE0120308500B530840001
:103300003D0884070030853D3E088031200057216C
:10331000983180000038031992292200BE0ABD0AA4
:103320007C29200020302200BE00B530BD002030B6
:10333000C0009E30BF008831200058279831F8081F
:10334000031DA6290930F0000230F5002200BD015E
:10335000BE0120308500B53084003D088407003070
:10336000853D3E08803120005F2198318000003883
:103370000319BF292200BE0ABD0AA9292000203056
:103380002200BE00B530BD002030C0009E30BF001E
:103390008831200058279831F808031D202AF001B1
:1033A00020302200BE006C30BD00883120001F2775
:1033B00098317808F60076080A3C031DE129F601E9
:1033C000E629F608031DE6290A30F60076080F39CB
:1033D0002200BD003D08BE003E08BF00C001803194
:1033E0002000042798310C302200BF000130C000BB
:1033F000803120000427983101302200BF00C00036
:10340000803120000427983105302200BF000130B0
:10341000C00080312000042798312100AF01103016
:10342000AE002E082F040319172A0000112A0430B9
:103430002200BF000130C0008031200004279831F5
:103440002200BD01BE0120308500B53084003D085A
:1034500084070030853D3E0880312000622198318C
:10346000800000380319392A2200BE0ABD0A232A27
:10347000200020302200BE00B530BD002030C0004A
:103480009E30BF008831200058279831F808031D6E
:103490004B2A0C30F0002200BD01BE012030850017
:1034A000B53084003D0884070030853D3E088031FA
:1034B000200067219831800000380319642A220017
:1034C000BE0ABD0A4E2A200020302200BE00B530C0
:1034D000BD002030C0009E30BF008831200058273A
:1034E0009831F808031D8B2A20302200BE006C3072
:1034F000BD00883120001F2798317808F600760833
:10350000233C031C872AF5010B30F0008B2A09307D
:10351000F0000330F5002200BD01BE01203085001F
:10352000B53084003D0884070030853D3E08803179
:1035300020006E219831800000380319A42A22004F
:10354000BE0ABD0A8E2A200020302200BE00B530FF
:10355000BD002030C0009E30BF00883120005827B9
:103560009831F808031DB62A0630F0002200BD018C
:10357000BE0120308500B53084003D08840700304E
:10358000853D3E088031200071219831800000384F
:103590000319CF2A2200BE0ABD0AB92A2000203012
:1035A0002200BE00B530BD002030C0009E30BF00FC
:1035B0008831200058279831F808031DE12A073088
:1035C000F0002200BD01BE0120308500B53084002E
:1035D0003D0884070030853D3E088031200074217D
:1035E0009831800000380319FA2A2200BE0ABD0A69
:1035F000E42A200020302200BE00B530BD0020307B
:10360000C0009E30BF008831200058279831F8084C
:10361000031D292B0230F000013074070339F60036
:103620002200BD01BE01203085006C3084003D08C1
:1036300084070030853D3E08803120007721983195
:10364000800000380319292B2200BE0ABD0A132B63
:1036500020002200BD01BE0120308500B53084006D
:103660003D0884070030853D3E08803120007D21E3
:103670009831800000380319422B2200BE0ABD0A8F
:103680002C2B200020302200BE00B530BD002030A1
:10369000C0009E30BF008831200058279831F808BC
:1036A000031D622B08302100DA060030DA190130E0
:1036B0002200BD00BE00883120004A25983121003B
:1036C0005A1520002100E501E401E508031DB12B96
:1036D0006408373C031CB12B0130FA008B30EE003C
:1036E0007A08EF0065082200BC002100640822006F
:1036F000BB00BE010630BD00903120000020983193
:10370000780821006E07E60079086F3DE700203059
:103710002200BA009830B900210067082200BC00DE
:10372000210066082200BB0090312000172098314C
:1037300020302200BE006C30BD002030C000983028
:10374000BF008831200058279831F808031DAC2BA2
:1037500021006408F50020002100E40A0319E50AAD
:10376000652B7508FF3C031D152C20302200BE0080
:103770006C30BD00883120001F2798317808F60092
:103780002100EE01EF0120308500983084006E08A2
:1037900084070030853D6F08803120002421983156
:1037A000800000380319D92B2100EF0AEE0AC32B41
:1037B000200020302200BE006C30BD002030C00050
:1037C0009830BF008831200058279831F808031D31
:1037D000EB2B0130F6002100EE01EF0120308500D7
:1037E000983084006E0884070030853D6F08803172
:1037F00020002C219831800000380319042C21006E
:10380000EF0AEE0AEE2B200020302200BE006C30C2
:10381000BD002030C0009830BF00883120005827FC
:103820009831F8080319F60121007008063C0319C5
:103830001D2C7008073C031D212C0130F600740874
:10384000F500903120001C2198319831AE2D0130C7
:103850002100E400E801200067080F395F0421001F
:10386000E7002000EB0803194C2C2100670820001A
:103870006905031D4C2CEB01E90101302100E80032
:103880006708200060056105031D4C2CF216E50851
:1038900003194C2C6508E8002100E501E9016908DD
:1038A000033C031C912C6708640503198B2C200032
:1038B00060086105210064050319682C253069073B
:1038C0008400203085000318850A0008E6006A2C71
:1038D0000130E600660820006B0203188C2CEB0810
:1038E000031D762C210066082000EB00013021002A
:1038F0006907E5000130E8003C302200C1002000EB
:1039000066082200C20088312000F8269831210084
:10391000D9017808D800200003102100E40DE90A3D
:103920004F2CE80803199C2C6508EA008831200018
:103930002324983121005A15E7080319DA14983125
:1039400020002C2EF601F0012100E6010530E700F1
:1039500090312000AD279831F80803193A2D210045
:1039600030080F39E7002200C1000A30C200883158
:103970002000F826983178082100E60031080F3938
:103980006607E40032080F39E7002200C1000A3060
:10399000C20088312000F826983178082100E6001E
:1039A00033080F396607F00034080F39E7002200AA
:1039B000C1000A30C20088312000F826983178080A
:1039C0002100E60035080F396607F5000630E500EE
:1039D0006508E60066080A3C031C082D603066078F
:1039E0008400203085000318850A001E062D6030F3
:1039F00066078400203085000318850A00080F3907
:103A00000C3C0319062D0130E700072DE701092DB5
:103A1000E7016708F800F8080319272D7608220047
:103A2000C1000A30C20088312000F8269831780899
:103A30002100E6006030650784002030850003180F
:103A4000850A00080F396607F600E50AE82C7008B9
:103A5000043A200003192F2D013A031D312D75085A
:103A6000F600630821006402031D3B2D9031200005
:103A70001C219831210030080F39F000DA1D722D19
:103A8000E601E70190312000AD279831F808031DC9
:103A90004B2D2100722D640070080E3A0319572D2A
:103AA000013A03195F2D053A0319672D6E2D013078
:103AB00074070339F4008831352398316E2DFF30B7
:103AC0002200AD0090312000542098316E2D01303D
:103AD0002200AD00903120005420983190314220D6
:103AE00098312100DA1498312000C92E8501840113
:103AF0001F3083057230210099008E150E162400A8
:103B000017109710971113309200283095009417D2
:103B100014130C3023009B00A2309E0090309D00B7
:103B200021005A16DC01DB012F009101920198015E
:103B300099019A0123008C018D018F0190012200CF
:103B400092019101940193012000A601A7018831FF
:103B50005A2D98316400721CB22D00288031422504
:103B6000983172106400721FB92D9031782D983100
:103B70007213721D042E9031672698312100580867
:103B80005904031DC82D2000E608031DCE2D210079
:103B900058080319D903D803E22D2000DF080319C0
:103BA000E32D2100EA0188312000232498313530AB
:103BB0002300910005309200803120005C2598316F
:103BC00021005A152000F3080319E82DF303F12D05
:103BD0002100DA1DF22D2200BE01883120004A2585
:103BE000983121006400FE080319F82DFE03022E0F
:103BF0003C30FE00D7080319FF2DD703022E7216A2
:103C00001E30D70072112000721E292E640803395D
:103C10000319272E64080139031D242E6408023974
:103C20000319272E6408F039F700F70E0F30F70557
:103C3000770803191E2EE008031D202E0030212EC8
:103C40000130003A031D272E9031F820983172126E
:103C50006400F21C312E272C903167269831F21027
:103C6000640021005A1CC52EE401E50120308500C6
:103C700072308400640884070030853D6508803117
:103C80002000842198318000003803194C2E210037
:103C9000E50AE40A362E20003E302300910005306C
:103CA0009200803120005C2598312100DD015D0803
:103CB000093C031CA32E60305D0784002030850082
:103CC0000318850A001EA02E60305D078400203096
:103CD00085000318850A00080F39DE002030DC005B
:103CE0008F30DB005E082200C4001830C500883128
:103CF0002000B422983120302200CA0088312000F0
:103D0000C221983120302200A8007230A700203054
:103D1000AA008F30A900903120002E269831203043
:103D20006400111E902E23009A0021005E082200DC
:103D3000CA001B30CB0088312000002098312100C0
:103D40006400DD0A572E0A3064002000111AAA2EE2
:103D50002100A42E23009A000D3064002000111AC7
:103D6000B32E2300AD2E23009A0021005A105A15BD
:103D700002302200C4002030C6007230C5008831F5
:103D800020003922983164002100F21FCC2E20003F
:103D9000A22CF21364002100DA1CD42E90312000F2
:103DA000DE2F98312100DA105A1DDD2E90312000CF
:103DB000E020983121005A1164002000AA2D6300F0
:083FB800AA346A345A3456346D
:103FC000553455349534A534A934AA346034953425
:103FD0009934943440345934A434553450346A34C8
:103FE00098346534A0349034A8346934A6346434E9
:103FF0005434803458345634683496349A34A53462
:020000040001F9
:04000E00BC0FFF1E06
:00000001FF
;PIC16F1937
;CRC=A2F3  CREATED="29-Mar-20 17:10"
