:0600000090318A2D000082
:0800080083018A012000770842
:10001000A0007808A1007908A2007A08A3008B1D2F
:1000200013280B1827288B1E17280B192928850140
:1000300091308400801E1E28911A2B282008F7007A
:100040002108F8002208F9002308FA00090080318D
:10005000572A8031CB2A8031DD290B00603461348E
:10006000623463340B0064346534803481340B00B3
:100070007134753482340B0050344F344C340034B6
:1000800000340034523431344734313400340034D5
:100090005234313447343234003400345234313441
:1000A0004734333400340034523431344734343438
:1000B00000340034523432344734313400340034A4
:1000C000523432344734323400340034523432340F
:1000D0004734333400340034523432344734343407
:1000E0000034003452343334473431340034003473
:1000F00052343334473432340034003452343334DD
:1001000047343334003400345234333447343434D5
:100110000034003452343434473431340034003441
:1001200052343434473432340034003452343434AA
:1001300047343334003400345234343447343434A4
:10014000003400345834493431340034003400343D
:10015000583449343234003400340034583449348B
:10016000333400340034003458344F3431340034E4
:100170000034003458344F34323400340034003406
:1001800058344F3433340034003400345234313472
:10019000503400340034003452343234503400349B
:1001A00000340034523433345034003400340034DA
:1001B0005234343450340034003400345234313446
:1001C000503454345434003452343234503454346F
:1001D00054340034523433345034543454340034AE
:1001E0005234343450345434543400345334493455
:1001F000443400340034003443344F345234003437
:1002000000340034433450344F34543400340B0041
:100210002A3420340F3401340B3420342034013498
:100220000C342034203401340D3420342034013493
:100230000E342034203401340F342034203401347F
:10024000103420342034013411342034203401346B
:100250001234203420340134133420342034013457
:100260001434203420340134153420342034013443
:10027000163420342034013417342034203401342F
:10028000183420342034013419342034203401341B
:100290001A342034203401341B3420340134013426
:1002A0001C342034023401341D342034033401342E
:1002B0001E342034043401341F3420340534013416
:1002C0002034203406340134213420340134013404
:1002D00022342034053401342334203405340134ED
:1002E0002434203403340134253420340E340134D2
:1002F000263420340D340134273420340B340134B7
:1003000028342034073401342B342034323401347F
:100310002C3420340034003442342034003400348F
:100320000B0065346534703472346F346D340034CE
:100330000B00643465346634613475346C34743461
:1003400000340B0020343B340D3400340B00733484
:100350006534743400340B0053344134563445341E
:1003600000340B0052344534533454344F34523437
:10037000453400340B007334743461347434753490
:10038000733400340B007234653462346F346F346C
:10039000743400340B00643474346D3466340034C7
:1003A0000B002B3400340B002D3400346400111E7C
:1003B000D62923009A0020000800911E382A6400E4
:1003C000911EDF29230019082200BA003A08083CD0
:1003D000031D112A2000E00803190C2AE003303025
:1003E00060078400203085000318850A80010830EA
:1003F000D6211B30D6215B306400111EFC2923005E
:100400009A004B3064002000111A082A2300022AA7
:1004100023009A000F2A20000730D62123003A2A11
:100420002200200060080F3C031C362A22003A08F4
:100430002000D6216008E00A303E8400203085008C
:100440000318850A22003A0880003A080D3C031977
:10045000312A3A082B3C0319312A3A082D3C031D56
:10046000342A200061142200392A20000730D621C6
:10047000220023002000911280311E280F3021001D
:100480008F002200BD08031D472A0F13482A0F17AB
:1004900000000F12000020000F082200BE000F30E5
:1004A000BE050F1600003E08F800200008002700D7
:1004B00016080F390319702A200049082200BC00D1
:1004C00020000D084A060F39C900490822003C02E5
:1004D00003196D2A2000E1142200F0302700960550
:1004E0000B1CC62A01302200BD0020003E227808E5
:1004F0002200BB003B1DC72ABD0120003E22780818
:100500002200BA00200061162200BA08031D8B2ABF
:100510000A30BA008F2A3A080A3C0319BA013A088D
:100520000C3C031D9D2A2000E1156F088400700813
:10053000850000318016C32A22007008203C031C6D
:10054000C42A031DAB2A20006F084E3C0318AA2AB8
:100550002200C42A220020006F0884007008850051
:10056000003122003A080F39F700F0300005770417
:10057000800020006F08840070088500003100169C
:10058000EF0A0319F00A22002700161222000B10AE
:10059000803120001E28630864040319D42A6308EC
:1005A0000319E403E303D92AE1146115E4011F30C0
:1005B000E3000B1180311E285B183B1848008A06A7
:1005C000D332743A69376710D0377414A53A2910BA
:1005D000F437A01275008A065039EF31E539F3344B
:1005E000EE332022D4264610F332F13A6537E33257
:1005F0003A008A062010D334F432492220103A10EF
:10060000A53A00018A062010C337ED366137641021
:100610003A10A53A00018A0620104139E73AED3236
:100620006E3A3A10A53A00018A062010D630EC3A0C
:10063000651020103A10A53A00008A062310C3273F
:100640005210D037723A73103D10A53A3B10D32B9D
:10065000A022ED3AEC30F4326410C32752103A1065
:10066000A53A00005B1AB71D331A6D050D296132DA
:10067000E93720296538E530F4327210C3376E3A15
:10068000F2376C366539A01620005B1AB71DB31817
:100690006D2B45194C2953005B1AB71D331A6D1089
:1006A000A82129103218B1190A050D005B1AB01DD6
:1006B000B31B6D000A058D214F29201DA012751056
:1006C000A822ED3AEC30F43264103A10A53A290031
:1006D0008A06442A4D23A029F430F43A73103A10C4
:1006E000A53A8A0600018A065429C926D027D429AA
:1006F000201D200020286F3AA812E414BD126400C7
:100700000A058D21CF26CD204E223E1000008A06FC
:100710004937693AE930EC34FA34EE332029C126FE
:10072000203B6139E9306236E5392033F2376D100C
:10073000C5225029CF2600018A064937693AE93097
:10074000EC34FA34EE332029C126203B6139E930FC
:100750006236E539A03B693A6810E634F236F73084
:10076000F23220326533E13A6C3A203B6136F532A1
:1007700073008A06D330F634EE332029C126A03127
:100780006F37E634E73AF230F4346F37A0346E1046
:10079000C5225029CF262E008A0620104334E53189
:1007A000EB39F536A036E939ED30F43168172029F8
:1007B000E539F437F234EE3320326533E13A6C3AFE
:1007C000203B6136F532731700008A064937693AD3
:1007D000E930EC34FA30F4346F37A031EF3670364C
:1007E000653A65008A06D332743A69376710A539CD
:1007F000A812F514203A6F10A53A00008A06442A80
:100800004D233D0010302100AA00A9012A08290229
:100810000318142C30302907840020308500031879
:10082000850A8001A90A062C2000E0016110FF3032
:10083000F1002100A101F001200008000B082100B7
:10084000C1008B1323009517151400000000130836
:100850007F3903196E2C2100C200230011082100EA
:10086000C300230012082100C400420864002000D5
:10087000111A3C2C2100362C23009A002100430839
:1008800023009100210044082300920095171514BD
:1008900000000000130D140D7F3903196E2C210088
:1008A000C200230011082100C30023001208210008
:1008B000C400420864002000111A602C21005A2C48
:1008C00023009A00210043082300910021004408DE
:1008D00023009200910A0319920A232C2100C11BC4
:1008E0008B17200008001B30D6215B306400111EDE
:1008F000762C23009A00323064002000111A822CDA
:1009000023007C2C23009A004A3064002000111A36
:100910008B2C2300852C23009A001B302000D6212D
:10092000DC30230091000230920020001E240800D9
:10093000210041088400420885000008C4004408E2
:100940007F3C031CC40A0310440D093A4307C4004A
:100950004108840042088500440880002000080007
:1009600001302100BB00BC01BE00370BC02C87301A
:10097000230091000330920020001E24C72C210088
:100980009C30230091000330920020001E2421009F
:10099000B8013808213C031C262D380DF700F70D4F
:1009A000FC30F7057708C000400A20000721FA0054
:1009B00021004008200007212100B9007A08BA0070
:1009C000370B122D380DF700F70DFC30F7057708BF
:1009D000033E20000721F8007818F02C2100122D8A
:1009E00021003C08230091009513151413082100E1
:1009F000BF00390884003A0885003F0880003A08A3
:100A0000FA00390884003A0885000008C000203048
:100A1000C2006B30C1004008C300200098242100B0
:100A2000BC0A242D380DF700F70DFC30F7057708C8
:100A3000023E20000721F8002100BD003908840093
:100A40003A0885003D088000B80AC92C370B322DC2
:100A50003C082300910095131514130821003B0254
:100A6000031DBE013E08F8002000080001302100EF
:100A7000BB00B801B7013708213C031C942D370D8A
:100A8000F700F70DFC30F7057708BD003D0A2000A0
:100A90000721FA0021003D08200007212100B900AC
:100AA0007A08BA00370DF700F70DFC30F705770824
:100AB000033E20000721F800781C912D2100390801
:100AC00084003A0885000008BC0038082300910023
:100AD00095131514130821003C020319862D0B08E9
:100AE000F7008B1338082300910021003C082300F5
:100AF00093009513151555309600AA30960095145D
:100B00009518802D151177088B0421002030C20024
:100B10006B30C1003C08C300200098242100B80AB3
:100B200020002100B70A3B2D0B08F7008B13380873
:100B30002300910021003B08230093009513151515
:100B400055309600AA30960095149518A52D1511CC
:100B500077088B04B93091000330920020001E24E6
:100B6000080021003608B7002000B024F808031D53
:100B7000C52DCC30230091000330920020001E24AC
:100B80002100B7012000B0243625080000302100E4
:100B90008F003A1038080F390139031D3A143A18FA
:100BA000D52D22000F10D72D210022000F14210077
:100BB0003A1038080F390239031D3A143A18E42D57
:100BC00022008F10E62D210022008F1421003A1000
:100BD00038080F390439031D3A143A18F32D22004E
:100BE0000F11F52D210022000F1521003A103808B1
:100BF0000F390839031D3A143A18022E22008F11BA
:100C0000042E210022008F152100B908031D0C2E8F
:100C100022000F130E2E210022000F170F2E8F120D
:100C2000112E8F16132E0F3021008F002000080088
:100C30001B30D62132302300910003309200200077
:100C40001E241B30D6214530230091000330920032
:100C500020001E241B30D6214C302300910003308D
:100C6000920020001E241B30D62156302300910014
:100C70000330920020001E24080024009513200059
:100C8000911121004108240091000230951B4F2E44
:100C90002000911D492E00302400161B0130F80061
:100CA000200008000B082100C2008B1323009517B9
:100CB0001514000000000318862E13087F39210048
:100CC000C300230011082100C400230012082100E2
:100CD000C500430864002000111A702E21006A2EFE
:100CE00023009A00210044082300910021004508B8
:100CF0002300920095171514000000002100C10B7D
:100D0000822E842E2300862EAB2E2300130D140D6D
:100D10007F392100C300230011082100C4002300F3
:100D200012082100C500430864002000111A9A2E01
:100D30002100942E23009A002100440823009100F2
:100D40002100450823009200910A0319920A03101A
:100D50002100C10B562EC21B8B172000080021005A
:100D60004808F80147020318B82E4708F700C42EB8
:100D7000F7010830C900C70DF70D480877020318BE
:100D8000F700F80DC90BBB2E2000080078082100E1
:100D90004208C7006430C8002000AF267708210051
:100DA000C20078083030031DDC2EC31CEA2EC319A4
:100DB000EA2E431A2030DF2EC31143124314F807E2
:100DC000780864002000111AE72E2100E12E23008C
:100DD0009A0021004208C7000A30C8002000AF2650
:100DE00077082100C20078083030031DFD2EC3199A
:100DF000082F431C082F431A2030F8077808640096
:100E00002000111A052F2100FF2E23009A00210037
:100E10003030C207420864002000111A112F21004F
:100E20000B2F23009A002000080021003C0EBE007A
:100E3000BE0DBE0DC030BE053D083F39BE072400C3
:100E400016141618212F50302100C10020003D2615
:100E500021003E08C10020003D2624001615161969
:100E60002F2FDF30230091000230920003100E304C
:100E70002100C1002000522621003C08C2001B3086
:100E8000C3002000C626E730230091000230920004
:100E9000031005302100C1002000522621003D082A
:100EA000C2001B30C3002000C626080021003808FD
:100EB0000739F700380CF800F80CF80C1F30F8056B
:100EC00078083A07840000303B3D8500F801F80AB5
:100ED000F70A6B2FF80DF70B6A2FB9080319732F58
:100EE00078088004762FF80978088005200008002B
:100EF0008030230091000330920020001E2408005F
:100F000022003308B6003208B8003108B700B5082F
:100F1000031D8E2F3408003C0318A52F3808FA0053
:100F2000370884007A08850036080002031D9D2FCB
:100F30003708F8003808F900A82FB70A0319B80ACB
:100F400034080319B503B403872F0030F800F90003
:100F500020000800F701F8012100410803104218A1
:100F6000F707F70CF80CC218F707F70CF80C421942
:100F7000F707F70CF80CC219F707F70CF80C421A30
:100F8000F707F70CF80CC21AF707F70CF80C421B1E
:100F9000F707F70CF80CC21BF707F70CF80C20004A
:100FA000080080080319EA2F05082100C30004087F
:100FB000C200000864002000111AE02F2100DA2F7F
:100FC00023009A0021004308850042088400013173
:060FD0002000D12F0800F3
:10100000210030082000CE002100B0080319132869
:1010100001303002253E8400203085000318850A07
:101020000008B5001428B5010130B400B101310841
:10103000033C031C7C28B008031D21283610B61081
:101040003428013031073002031D2C2836143408AF
:101050002000CD002E282100361020002100B610DF
:1010600035083405031DB6143108803120002D20C9
:1010700088312100B700003036180130F7003708FA
:10108000B8007708B9000130BB00BA0180312000F8
:101090005627883121003708B800B901BB018030DC
:1010A000BA00803120005627883121003108803174
:1010B0002000322088312100B7000030B6180130FE
:1010C000F7003708B8007708B9000130BB00BA0153
:1010D000803120005627883121003708B800B90137
:1010E000BB018030BA0080312000562788310310C0
:1010F0002100B40DB10A1728B008031D8328200071
:10110000CF01B428210001303002213E840020307C
:1011100085000318850A00082000CF002100B201D5
:101120003208033C031CB02801303002F700F70DF1
:10113000F70DFC30F705770832070B3E84002030AE
:1011400085000318850A0008B3003208BC00330884
:10115000BD0080312000152788312100B20A902877
:1011600080312000782788310800803102248831BE
:101170002200920191019401930117302100970000
:1011800024008D012000C901F401F301CD01CF013C
:10119000CE01E201FF306600003021008F00101008
:1011A00090101011901591168B150F302700940494
:1011B00095048B1515161412C0308B0422008F1362
:1011C0008F160F160F1380312000732488310130E1
:1011D0002100B60080312000B125883122000F1691
:1011E0008F160F132100B8010130B90080312000A3
:1011F000C62588312100B8010130B90080312000B6
:10120000C62588310C302100B8000130B90080318A
:101210002000C625883101302100B800B900803196
:101220002000C6258831A4018B1BA4178B13013025
:101230002200BD00803120003E228831A41B8B1784
:10124000E1168031182688319D3067002100BC01ED
:10125000BD01803120001527883101302100BC00FC
:10126000BD01803120001527883102302100BC00EB
:10127000BD01803120001527883103302100BC00DA
:10128000BD018031200015278831E4013C30E300A6
:1012900021001508C039073895008B16B0012000D1
:1012A0000020E530230091000330920080312000BF
:1012B0001E2488318031782788319031B92D210062
:1012C0004E084F04031968294F08FA004E086D298B
:1012D00020002608FA0025082100D2007A08D30051
:1012E0005308D7005208D6005108D9005008D8003A
:1012F0005708DB005608DA005B08FA005A08840039
:101300007A08850080080319B6295908DD005808B5
:10131000DC005D08FA005C0884007A08850080081B
:10132000031D9C2956085A02F70057085B3BFA0038
:101330007708F800BE29AE295B08FA005A08840035
:101340007A0885000008DE005D08FA005C08840069
:101350007A08850000085E020319B229DC0A031925
:10136000DD0A8929DA0A0319DB0A7C2956085A02A0
:10137000F70057085B3BFA007708F8007808D207B7
:101380000030D33D5308FA00520884007A088500E3
:101390008008031DD7292000250884002608850021
:1013A000203080000030F800F9003C2A210053086A
:1013B000D7005208D6005108D9005008D800570865
:1013C000DB005608DA005B08FA005A0884007A0845
:1013D000850080080319182A5908DD005808DC0028
:1013E0005D08FA005C0884007A088500800803190B
:1013F000142A5B08FA005A0884007A08850000085D
:10140000DE005D08FA005C0884007A0885000008A8
:101410005E02031D102A5A08F8005B08F9001B2A17
:10142000DC0A0319DD0AF029DA0A0319DB0AE329C9
:101430000030F800F9007908D5007808D400550884
:10144000FA00540884007A08850080080319302ABD
:1014500054088400550885008001D40A0319D50A70
:1014600055082000A600210054082000A5002100F6
:101470005208F8005308F900200008002100DA01A2
:10148000D9013030DC003130DD003230DE00333065
:10149000DF003430E0003530E1003630E200373034
:1014A000E3003830E4003930E5006130E6006230B6
:1014B000E7006330E8006430E9006530EA00663038
:1014C000EB006730EC006830ED006930EE006A3008
:1014D000EF006B302200A0006C30A1006D30A20044
:1014E0006E30A3006F30A4007030A5007130A600EC
:1014F0007330A7007430A8007530A9007630AA00B8
:101500007730AB007830AC007930AD007A30AE0087
:10151000AF0121004F08D4004E08D3005408FA0050
:10152000530884007A0885000008203C031D9C2A8B
:10153000D30A0319D40A8E2A5408FA0053088400E7
:101540005408850000082D3C0319B02A5408FA00FD
:10155000530884005408850000082B3C031DBB2A57
:101560005408FA005308D30A0319D40A84007A08ED
:1015700085000008BC2A2B30DB005B082D3C0319DA
:10158000CC2AD21BCC2A520BC62ACC2AD21BCE2A5A
:101590005208243C0318CE2A272C5A2BD2080319B0
:1015A000232B5208103C031DF52A5408FA00530857
:1015B00084007A0885000008303C031DF52A530892
:1015C00084005408850001310008783C0319F12A91
:1015D000530884005408850001310008583C031D5D
:1015E000F52A0230D3070030D43D5208083C031DD1
:1015F000072B5408FA00530884007A088500000875
:10160000303C031D072B0130D3070030D43D520876
:10161000023C031D222B5408FA00530884007A0868
:1016200085000008303C031D222B53088400540819
:10163000850001310008623C031D222B0230D307D4
:101640000030D43D5A2B5408FA00530884007A081D
:1016500085000008303C0319302B0A30D2005A2B89
:10166000530884005408850001310008783C0319B0
:10167000422B530884005408850001310008583C6F
:10168000031D492B1030D2000230D3070030D43D67
:101690005A2B530884005408850001310008623C2D
:1016A000031D582B0230D200D3070030D43D5A2BF3
:1016B0000830D2005408D6005308D5005408FA0068
:1016C000530884007A0885000008303C031D6C2B09
:1016D000D30A0319D40A5E2B5408FA005308840075
:1016E0005408850000082200B000403C03187F2BFE
:1016F00030085A3C031C7F2B30082038802B3008E0
:10170000B0002030B2008C30B1003008B300B50119
:10171000210052082200B400803120008027883147
:1017200079082100D8007808D700D708031D9B2B23
:10173000D80803191F2CFA015208F700F71BFA0307
:101740002200B0007A08B10021005A082200B3003C
:10175000210059082200B2003108B5003008B40059
:10176000330835068039B700B31FBB2BB209B30964
:10177000B20A0319B30AB51FC22BB409B509B40ADA
:101780000319B50A1030B600F701FA01B30CB20C18
:10179000031CD02B3408F7070318FA0A3508FA0798
:1017A000FA0CF70CF90CF80CB60BC62BB71FDD2B97
:1017B000F809F909F80A0319F90A7908B100780853
:1017C000B0008C3021005702F7002030583BFA005F
:1017D0007708220030072100D9007A082200313D25
:1017E0002100DA00D30A0319D40A5408FA00530876
:1017F00084005408850000082200B000403C031813
:10180000082C30085A3C031C082C30082038092CBE
:101810003008B0002030B2008C30B1003008B30086
:10182000B501210052082200B40080312000802739
:10183000883179082100D8007808D700952B530803
:101840005502031D372C54085602031D372C50082F
:1018500051040319332C50088400510885004E08A8
:1018600080004F08813F0030F800F900472C5008F5
:1018700051040319432C5008840051088500530873
:1018800080005408813F5908F8005A08F9002000E8
:10189000080021004F08FA004E0884007A088500ED
:1018A0000008D2005108FA00500884007A08850028
:1018B000000852020319B22C4F08FA004E088400A7
:1018C0007A0885000008D2005208403C03186C2CAE
:1018D00052085A3C0318742C5208603C0318C82C58
:1018E00052087A3C031CC82C5108FA0050088400A6
:1018F0007A0885000008D2005208403C0318842C66
:1019000052085A3C03188C2C5208603C0318C82C0F
:1019100052087A3C031CC82C4F08FA004E08840079
:101920007A0885000008D2005108FA0050088400A7
:101930007A0885002030000752020319B22C5108A2
:10194000FA00500884007A0885000008D2004F0889
:10195000FA004E0884007A08850020300007520201
:10196000031DC82C4F08FA004E0884007A08850031
:101970008008031DBE2C0030F800DE2C4F08FA0052
:101980004E08CE0A0319CF0AD00A0319D10A4A2CED
:101990004F08FA004E0884004F0885000008D20066
:1019A0005108FA00500884005108850000085202CE
:1019B0000318DC2CFF30DD2C0130F800200008007B
:1019C000CE080319122D01304E02F700F70DF70D66
:1019D000FC30F705770862070B3E2100B800203085
:1019E000B9000318B90A38088400390885000008CE
:1019F000BA00380884003908850037083A078000A3
:101A00003908FA0038088400390885000008BB004E
:101A1000200062082100BC003B08BD00803120008E
:101A200015278831080020302100421E3030C300C5
:101A30004108F700C11F242DF709F70A7708C100F4
:101A40002D30C300C21742144108C7006430C800DB
:101A500080312000AF26883177082100C100303066
:101A60007807C4004108C7000A30C8008031200050
:101A7000AF268831303077072100C6003030780734
:101A8000C5004308F7003030440203194B2DC2143F
:101A9000C21B42155F2D4308C4002030C300303004
:101AA00045020319572D4214C21BC2145F2D031D9A
:101AB0004214031D5F2D4408C5002030C4004219A4
:101AC000662DC218702D42187A2D842D43086400AB
:101AD0002000111A6D2D2100672D23009A0021008E
:101AE000440864002000111A772D2100712D230075
:101AF0009A002100450864002000111A812D210060
:101B00007B2D23009A002100460864002000111A52
:101B10008B2D2100852D23009A0020000800013024
:101B20002100AA00A9012908023C031CC72D2B1083
:101B30001E3029078400203085000318850A00081C
:101B40002A0503192B1429088031200037208831F9
:101B50002100AC0000302B180130F7002C08B80031
:101B60007708B9000130BB00BA0180312000562748
:101B7000883121002C08B800B901BB018030BA00BF
:101B800080312000562788312100A90A932D9031F9
:101B90002000C62D2100A9010130AA00AE012000BD
:101BA0004C080F3949042100AD002000CF0803196B
:101BB000E52D21002D0820004D05031DE52DCF0149
:101BC000CD0101302100AE0020002100AB01AF01AA
:101BD0002F08033C031C0C2E2D082A050319062E82
:101BE00021302F078400203085000318850A000863
:101BF000AC002C0820004F020318072E21002C08EF
:101C0000A90001302F07AB000130AE002000031007
:101C10002100AA0DAF0AE82DAE080319442E1D308D
:101C20002300910003309200031010302100C10006
:101C3000803120005226883149082100C2001B3023
:101C4000C30080312000C626883126302300910051
:101C500003309200031014302100C10080312000B5
:101C6000522688314C082100C2001B30C30080314D
:101C70002000C626883121002B08B000200000205B
:101C80008031782788312100AD08031D4A2E2000BD
:101C9000E116210090312000CB2DF201F00121004E
:101CA000AB010530AC002B082C02031C7C2E2B084A
:101CB000093C031C7C2E2F142B08AE002E082C028E
:101CC000031C7B2E45302E0784002030850003182E
:101CD000850A00080F39AD0045302E0784002030FA
:101CE00085000318850A001E2F102D080C3C0319CF
:101CF0002F10AE0A5E2E7D2E2F1000302F180130CF
:101D0000F800F80803197B2F200065080F3921001F
:101D1000AC00C1000A30C20080312000AA278831FF
:101D200078082100AB00200066080F3921002B073E
:101D3000A900200067080F392100AC00C1000A305B
:101D4000C20080312000AA27883178082100AB002A
:101D5000200068080F3921002B07F00020006908D7
:101D60000F392100AC00C1000A30C20080312000D0
:101D7000AA27883178082100AB0020006A080F39B3
:101D800021002B07F1000630AA002A08AB002B081F
:101D90000A3C031CE52E45302B07840020308500CB
:101DA0000318850A001EE32E45302B0784002030DF
:101DB00085000318850A00080F390C3C0319E32E2F
:101DC0000130AC00E42EAC01E62EAC012C08F8008A
:101DD000F8080319032F7208C1000A30C2008031CD
:101DE0002000AA27883178082100AB0045302A0757
:101DF0008400203085000318850A00080F392B075E
:101E0000F200AA0AC52E70080A3A200003190E2F04
:101E10000E3A03190E2F013A031D102F7108F2001C
:101E2000EB302300910002309200803120001E240C
:101E30008831F930230091000230920003100E30F7
:101E40002100C1008031200052268831210029085C
:101E5000C2001B30C30080312000C626883102300A
:101E6000230091000330920003100E302100C100C6
:101E7000803120005226883170082100C2001B30BA
:101E8000C30080312000C62688310B30230091002A
:101E90000330920003100E302100C1008031200079
:101EA0005226883171082100C2001B30C3008031E6
:101EB0002000C626883114302300910003309200A0
:101EC00003100E302100C1008031200052268831DD
:101ED00072082100C2001B30C30080312000C626DA
:101EE00088314B0821002902031D7B2F90312000EF
:101EF0000020883121002000E1169031212E2100A0
:101F0000A9012908093C031C8F2F453029078400AB
:101F1000203085000318850A8001A90A812F20300E
:0C1F2000F00045302000EF009031272E2B
:1020000002307002F73E0318B32A093EB42A720860
:10201000FF3C031D31280A306400111E0C282300E8
:102020009A000D3064002000111A1828230012288D
:1020300023009A0085017108840080312000D12797
:10204000903120306400111E222823009A0072086B
:102050002100C2001B30C30080312000C626903111
:10206000AC28710DF700F70DFC30F705770821005B
:10207000B700370A8031200007219031FA00210093
:10208000370880312000072190312100B5007A08FF
:10209000B600350884003608850072088000710893
:1020A000F3000130F400F23023009100033092007D
:1020B00003100A302100C1008031200052269031E7
:1020C00020308500513084008031D1279031283074
:1020D0006400111E682823009A0071082100C200C4
:1020E0001B30C30080312000C6269031F930230018
:1020F000910003309200031405302100C1008031AB
:1021000020005226903172082100C2001B30C3000B
:1021100080312000C6269031210036081F3C03186C
:10212000A828FF3A031D982835080A3C0318A82858
:102130003608203C031CA828031DA22835081A3C99
:10214000031CA828B70188312000E0249031210029
:102150008031200078279031B32A710DF700F70DF8
:10216000FC30F70577082100B500350A80312000E2
:1021700007219031FA002100350880312000072125
:1021800090312100B2007A08B3007108F3000130E9
:10219000F4002000B32A803136259031B32A720B27
:1021A000D52821003414D728200021003410003015
:1021B00034180130B500B60080312000B1259031CF
:1021C000B32A01302100B70088312000E02490318B
:1021D000803178279031B32AFF302100B700883151
:1021E0002000E0249031803178279031B32A80316B
:1021F00073249031803118269031A4018B1BA417D1
:102200008B1301302200BD00803120003E2290312E
:10221000A41B8B1778082100BA00B5013508213CB2
:10222000031CA0293508C1000630C20080312000FF
:10223000AA27903178082100C100C2014108C300DB
:10224000203085006B308400420884070030853DD3
:102250004308803120003B20903180000038031972
:1022600036292100C30AC20A202920002100350D89
:10227000F700F70DFC30F7057708C100410A8031FF
:10228000200007219031FA00210041088031200010
:10229000072190312100B8007A08B9003908FA0006
:1022A00038088400390885000008C1005B306400EC
:1022B0002000111A5D292100572923009A002100CE
:1022C0003508C2000130C30080312000C62690319D
:1022D0005D306400111E692923009A0020306400DB
:1022E0002000111A752923006F2923009A0020303D
:1022F00085006B30840080312000D1279031203060
:102300006400111E802923009A0021004108C200A8
:102310001B30C30080312000C62690310A30640093
:10232000111E8F2923009A000D3064002000111A1D
:102330009B292300952923009A002100B50A0E2924
:102340005A3023009100033092000310093021001D
:10235000C100803120005226903149082100C2007E
:102360001B30C30080312000C62690315F3023002F
:1023700091000330920003140D302100C100803120
:102380002000522690314C082100C2001B30C300AF
:1023900080312000C626903129306400111ECD29DD
:1023A00023009A006830910003309200031010302F
:1023B0002100C100803120005226903121003A08CE
:1023C000C2001B30C30080312000C62690310A3085
:1023D0006400111EE82923009A000D3064002000DB
:1023E000111AF4292300EE2923009A00733091007A
:1023F00003309200803120001E24903124001614F6
:102400001618002A51302100C100803120003D26DD
:1024100090312100B5013508033C031C5D2A3508C5
:10242000033C031D152AB601172A0130B6003608F1
:10243000F70024001513961596191C2A7718961282
:10244000771C96161616161A232A1108F800780813
:102450002100B7003F30B7057A30230091000330E8
:102460009200031005302100C10080312000522667
:10247000903121003508C1001830C2008831200099
:102480001325903129306400111E432A23009A003D
:102490003D3064002000111A4F2A2300492A2300EE
:1024A0009A0021003708C1001830C200883120008E
:1024B000132590312100B50A0B2A24001615161990
:1024C0005F2A8031200078279031B32A0100B32A97
:1024D00072080A3C031D6E2AF201732AF208031DDA
:1024E000732A0A30F20072080F392100B50035084E
:1024F000B6003608B800B90180312000C6259031F9
:1025000005302100B8000130B90080312000C62517
:1025100090312100B7013708043C031CAB2A64301A
:10252000B800203085006830840000080319A92A0B
:102530000230F800BF30F7006400F70B9C2AF80B5C
:102540009A2A9630F700F70BA32AA62A6400800B7C
:10255000982AB70A8B2A0430B8000130B9008031BC
:102560002000C625903108000A108A140A1182073B
:102570000728AD28CB28CF28E128EC28F728662AA1
:10258000682A2100CE01CF0120308500623084000E
:102590004E0884070030853D4F0880312000A1217E
:1025A0009031800000380319DA2A2100CF0ACE0AC0
:1025B000C42A200020302100CF003030CE0020304F
:1025C000D1006230D000883120005F21903179083D
:1025D0002100CD007808CC00CC08031DF22ACD08DC
:1025E00003190C2B4D08D1004C08D0002030CF002F
:1025F0006E30CE0051088500500884000008D200DB
:102600004F0885004E088400520880008008031996
:102610000C2BCE0AD00AFA2ACF01CE012030D100ED
:102620006230D000883120005F219031790821008C
:10263000CD007808CC00CC08031D212BCD08031950
:102640003B2B4D08D1004C08D0002030CF0051303A
:10265000CE0051088500500884000008D2004F08C1
:1026600085004E08840052088000800803193B2B27
:10267000CE0AD00A292BCF01CE012030D100623002
:10268000D000883120005F21903179082100CD00F1
:102690007808CC00CC08031D502BCD0803197A2BE9
:1026A0004D08D1004C08D0002030CF006A30CE0059
:1026B00051088500500884000008D2004F088500AA
:1026C0004E08840052088000800803196A2BCE0A45
:1026D000D00A582B2030CF006A30CE00D101D00173
:1026E0000A30D200883120003E2290317808F20072
:1026F0007D2B2100FF30F20020002100CE01CF0110
:1027000020308500763084004E0884070030853DF7
:102710004F0880312000A621903180000038031935
:10272000962B2100CF0ACE0A802B200020302100DA
:10273000CF007630CE002030D1006E30D00088310E
:10274000200049249031F808031DAF2B7208FF3C8C
:10275000031DAD2B0330F000AF2B0230F000210041
:10276000CE01CF0120308500763084004E088407EA
:102770000030853D4F0880312000AB219031800032
:1027800000380319C82B2100CF0ACE0AB22B200033
:1027900020302100CF007630CE002030D1006E30C6
:1027A000D0008831200049249031F808031DDA2B2D
:1027B0000430F0002100CE01CF01203085007630BA
:1027C00084004E0884070030853D4F08803120008A
:1027D000B1219031800000380319F32B2100CF0A7A
:1027E000CE0ADD2B200020302100CF007630CE0035
:1027F0002030D1006E30D000883120004924903143
:10280000F808031D052C0530F0002100CE01CF0192
:1028100020308500763084004E0884070030853DE6
:102820004F0880312000BA21903180000038031910
:102830001E2C2100CF0ACE0A082C200020302100B7
:10284000CF007630CE002030D1006E30D0008831FD
:10285000200049249031F808031D302C0830F00086
:102860002100CE01CF0120308500763084004E0853
:1028700084070030853D4F0880312000C22190310F
:10288000800000380319492C2100CF0ACE0A332CCE
:10289000200020302100CF007630CE002030D10043
:1028A0006E30D0008831200049249031F808031D93
:1028B0005B2C0930F0002100CE01CF0120308500D3
:1028C000763084004E0884070030853D4F08803103
:1028D0002000CA219031800000380319742C210097
:1028E000CF0ACE0A5E2C200020302100CF007630A7
:1028F000CE002030D1006E30D00088312000492435
:102900009031F808031D862C0A30F0002100CE011A
:10291000CF0120308500763084004E0884070030D7
:10292000853D4F0880312000D02190318000003853
:1029300003199F2C2100CF0ACE0A892C20002030B9
:102940002100CF007630CE002030D1006E30D00094
:102950008831200049249031F808031DB12C06303D
:10296000F0002100CE01CF012030850076308400B8
:102970004E0884070030853D4F0880312000D32168
:102980009031800000380319CA2C2100CF0ACE0AEA
:10299000B42C200020302100CF007630CE00203033
:1029A000D1006E30D0008831200049249031F808E1
:1029B000031DDC2C0730F000FF30F1002100A901DD
:1029C0002908213C031C1F2D2908C1000630C20024
:1029D00080312000AA27903178082100B200B3018D
:1029E0003208B400203085005A3084003308840750
:1029F0000030853D3408803120003B20903180003C
:102A000000380319082D2100B40AB30AF22C200063
:102A100020302100CF005130CE002030D1005A307C
:102A2000D0008831200049249031F808031D1C2D66
:102A300021002908F10020002100A90AE02C7108DA
:102A4000FF3C031D862D2030CF005130CE00D10138
:102A5000D0010A30D200883120003E22903178081F
:102A6000F2002100B201B301203085005A30840009
:102A7000320884070030853D3308803120009021E2
:102A800090318000003803194A2D2100B30AB20AA0
:102A9000342D200020302100CF005130CE002030D6
:102AA000D1005A30D0008831200049249031F808F4
:102AB000031D5C2D0130F2002100B201B301203072
:102AC00085005A308400320884070030853D330881
:102AD0008031200098219031800000380319752D35
:102AE0002100B30AB20A5F2D200020302100CF0060
:102AF0005130CE002030D1005A30D0008831200033
:102B000049249031F8080319F20121002000002027
:102B10009031BE2D850184011F3083057230210064
:102B200099008E150E162400171097109711133068
:102B3000920028309500941714130C3023009B004A
:102B4000A2309E0090309D002F00910192019801CB
:102B500099019A0123008C018D018F0190012200BF
:102B600092019101940193012000A501A6018831F1
:102B7000B52890316400611CC22DC12A8031022425
:102B800090316110611DC72D88318F2D9031E11C6E
:102B9000CD2D8831CA2D9031E110611E1D2EFE30E1
:102BA0002300910003309200803120001E249031D8
:102BB0002100A7012708093C031C062E45302707E2
:102BC0008400203085000318850A001E042E45303D
:102BD00027078400203085000318850A00080F3974
:102BE000A800203064002000111AF82D2100F22DD9
:102BF00023009A0021002808C2001B30C300803146
:102C00002000C62690312100A70ADA2D0A30640080
:102C10002000111A0D2E2100072E23009A000D30DE
:102C200064002000111A162E2300102E23009A0093
:102C300080312000782790316112E11D232E8831E8
:102C40004D2E9031E111E11E292E88317F2F9031D8
:062C5000E112BA2D630041
:083FB800AA346A345A3456346D
:103FC000553455349534A534A934AA346034953425
:103FD0009934943440345934A434553450346A34C8
:103FE00098346534A0349034A8346934A6346434E9
:103FF0005434803458345634683496349A34A53462
:020000040001F9
:04000E00FC0FFF1EC6
:00000001FF
;PIC16LF1937
;CRC=5426  CREATED="28-Apr-13 18:56"
