:060000009831002B000006
:0800080083018A012000770842
:10001000A0007808A1007908A2007A08A3007B0854
:10002000A4008B1D15280B182B288B1E19280B19C3
:100030002D28850191308400801E2028911A2F28B8
:100040002008F7002108F8002208F9002308FA0028
:100050002408FB0009008031482B8031B32B80310C
:10006000CD2A0B000234033406340A340B0060340A
:100070006134623463340B00643465348034813419
:100080000B007134753482340B006E346F3470346D
:10009000FB0000307A078A007B08513E03188A0A69
:1000A000820045344E34203420340034003450343F
:1000B0004F344C340034003400345234313447343B
:1000C0003134003400345234313447343234003463
:1000D0000034523431344734333400340034523431
:1000E00031344734343400340034523432344734F9
:1000F0003134003400345234323447343234003432
:1001000000345234323447343334003400345234FF
:1001100032344734343400340034523433344734C6
:100120003134003400345234333447343234003400
:1001300000345234333447343334003400345234CE
:100140003334473434340034003452343434473494
:1001500031340034003452343434473432340034CF
:10016000003452343434473433340034003452349D
:10017000343447343434003400345834493431345E
:1001800000340034003458344934323400340034FC
:100190000034583449343334003400340034583493
:1001A0004F34313400340034003458344F34323456
:1001B00000340034003458344F34333400340034C5
:1001C000003452343134503400340034003452346A
:1001D0003234503400340034003452343334503428
:1001E0000034003400345234343450340034003499
:1001F0000034523431345034543454340034523492
:10020000323450345434543400345234333450344F
:100210005434543400345234343450345434543418
:1002200000345334493444340034003400344D3401
:10023000523453344C34003400344D34523453343B
:100240003134003400344D345234533432340034B9
:1002500000344D34523453343334003400344D348C
:10026000523453343434003400344D345234533423
:100270003534003400344D34523453343634003481
:10028000003458344F344F3431340034003458344F
:100290004F344F3432340034003458344F344F34F8
:1002A00033340034003458344F3441343134003462
:1002B000003458344F34413432340034003458342C
:1002C0004F344134333400340034583449344F34DB
:1002D000313400340034583449344F34323400342B
:1002E0000034583449344F343334003400345834F3
:1002F00049344134313400340034583449344134C1
:100300003234003400345834493441343334003406
:10031000003443344F345234003400340034433416
:1003200050344F34543400340B003D3420340F34F7
:1003300001343F3420340F3401340C342034203461
:1003400001340D342034203401340E342034203470
:1003500001340F342034203401341034203420345C
:100360000134113420342034013412342034203448
:100370000134133420342034013414342034203434
:100380000134153420342034013416342034203420
:10039000013417342034203401341834203420340C
:1003A000013419342034203401341A3420342034F8
:1003B00001341B342034203401341C342034013403
:1003C00001341D342034023401341E34203403340B
:1003D00001341F34203404340134203420340534F3
:1003E00001342134203406340134223420340234E0
:1003F00001342334203406340134243420340634C8
:1004000001342534203404340134263420340E34AD
:100410000134273420340D340134283420340B3493
:100420000134293420340734013440342034323448
:10043000013442342034013401342A3420341F344E
:1004400001342B3420340E3401342C342034023463
:1004500001342D3420341B3401342E3420340E3436
:1004600001342F3420341134013430342034013439
:100470000134313420340034013432342034003437
:100480000134333420340334013434342034003420
:10049000013435342034003401343634203401340E
:1004A00001343734203400340134383420340034FB
:1004B0000134393420340E3401343A3420340034D9
:1004C00001343B34203400340134413420340034CE
:1004D000003473340034003400340B006534653468
:1004E000703472346F346D3400340B00643465340E
:1004F0006634613475346C34743400340B00203449
:100500003B340D3400340B007334653474340034E0
:100510000B00533441345634453400340B0052340C
:100520004534533454344F345234453400340B0082
:1005300073347434613474347534733400340B00A0
:100540007234653462346F346F34743400340B00A9
:10055000643474346D34663400340B0069343234DE
:10056000633400340B006D346F347234733465348B
:1005700000340B002B3400340B002D3400340B00FE
:10058000443454344D3446343A3400346400111E3B
:10059000C62A23009A0020000800911E242B640024
:1005A000911ECF2A230019082200ED006D08083C97
:1005B000031D022BF1080319FC2AF10346307107D1
:1005C0008400203085000318850A8001083020004F
:1005D000C6221B30C6225B306400111EEC2A2300A9
:1005E0009A004B3064002000111AF82A2300F22AE6
:1005F00023009A00002B220007302000C62223008F
:10060000262B220071080F3C031C212B6D082000B3
:10061000C6227108F10A463E840020308500031886
:10062000850A22006D0880006D080D3C03191F2B00
:100630006D082B3C03191F2B6D082D3C03197214F8
:10064000252B07302000C622220023002000911213
:10065000803120280F3021008F002300A008031DC7
:10066000352B22000F13372B230022000F17000019
:100670000F12000020000F082300A1000F30A10579
:1006800022000F16000023002108F80020000800B7
:10069000270016080F3903195E2B20005C08220082
:1006A000EF0020000D085F060F39DC005C08220017
:1006B0006F02031DF214F030270096050B1CAE2BC1
:1006C00001302300A00020002A2378082200EE0039
:1006D0006E1DAF2B2300A00120002A2378082200E2
:1006E000ED007217ED08031D782B0A30ED007C2B0E
:1006F0006D080A3C0319ED016D080C3C031D8A2BA3
:10070000F216210034088400350885000031801677
:10071000AC2B220021003508203C031CAC2B031D10
:10072000952B3408633C031CAC2B3408840035083B
:100730008500003122006D080F39F700F030000508
:1007400077048000210034088400350885000031DA
:100750000016B40A0319B50A2700161222000B105E
:100760008031200020282100260827040319BD2BF2
:1007700026080319A703A603C22BF2147215A701BA
:100780001E30A600280829040319CA2B28080319BB
:10079000A903A8030B118031200020288A06D33238
:1007A0006E32693767102532A0376E10491943142D
:1007B000253229005B183B1848008A06D332743A68
:1007C00069376710D0377414A53A2910F437A0128E
:1007D00075008A06D3326E3269376710ED37F23909
:1007E00065103A10A53A0000C327521DA0127810D8
:1007F000502A541D303C253C0000D027541D253282
:10080000A01264102532A01264008A065039EF311C
:10081000E539F334EE332022D4264610F332F13A90
:100820006537E3323A008A062010D334F432492285
:1008300020103A10A53A00018A062010C337ED3681
:10084000613764103A10A53A00018A062010413938
:10085000E73AED326E3A3A10A53A00018A062010C6
:10086000D630EC3A651020103A10A53A00008A06FE
:100870002310C3275210D037723A73103D10A53A97
:100880003B10D32BA022ED3AEC30F4326410C32796
:1008900052103A10A53A00005B1AB71D331A6D05C5
:1008A0000D296132E93720296538E530F4327210BC
:1008B000C3376E3AF2376C366539A01620005B1AE2
:1008C000B71DB3186D2B45194C2953005B1AB71D82
:1008D000331A6D10A82129103218B1190A050D001C
:1008E0005B1AB01DB31B6D000A058D214F29201D19
:1008F000A0127510A822ED3AEC30F43264103A10D0
:10090000A53A29008A06442A4D23A029F430F43A56
:1009100073103A10A53A8A0600018A065429C9269E
:10092000D027D429201D200020286F3AA812E414D3
:10093000BD1264000A058D21CF26CD204E223E1027
:1009400000008A064937693AE930EC34FA34EE336C
:100950002029C126203B6139E9306236E539203350
:10096000F2376D10C5225029CF2600018A0649377B
:10097000693AE930EC34FA34EE332029C126203BC1
:100980006139E9306236E539A03B693A6810E634EE
:10099000F236F730F23220326533E13A6C3A203BDE
:1009A0006136F53273008A06D330F634EE332029EF
:1009B000C126A0316F37E634E73AF230F4346F37AE
:1009C000A0346E10C5225029CF262E008A06201092
:1009D0004334E531EB39F536A036E939ED30F43101
:1009E00068172029E539F437F234EE3320326533C5
:1009F000E13A6C3A203B6136F532731700008A0603
:100A00004937693AE930EC34FA30F4346F37A031C1
:100A1000EF367036653A65008A06D332743A693724
:100A20006710A539A812F514203A6F10A53A0000F6
:100A30008A06442A4D233D0010302100DC00DB01F2
:100A40005C085B0203182E2D46305B0784002030C3
:100A500085000318850A8001DB0A202DF101721040
:100A6000FF30F400B601F001200008000B0822005E
:100A7000A1008B1323009517151400000000130824
:100A80007F390319862D2200A200230011082200BD
:100A9000A300230012082200A40022086400200002
:100AA000111A542D22004E2D23009A0022002308F3
:100AB00023009100220024082300920095171514AA
:100AC00000000000130D140D7F390319862D22003C
:100AD000A200230011082200A30023001208220014
:100AE000A400220864002000111A782D2200722D23
:100AF00023009A00220023082300910022002408EA
:100B000023009200910A0319920A3B2D2200A11B97
:100B10008B17200008001B30C6225B306400111EBA
:100B20008E2D23009A00323064002000111A9A2D75
:100B30002300942D23009A004A3064002000111AEB
:100B4000A32D23009D2D23009A001B302000C622D8
:100B5000DA3023009100033092002000362508008F
:100B6000220021088400220885000008A40024082F
:100B70007F3C031CA40A0310240D093A2307A40098
:100B80002108840022088500240880002000080035
:100B900001302100EB00EC01EE00670BD82DA130F5
:100BA000230091000430920020003625DF2D210023
:100BB000B630230091000430920020003625210039
:100BC000E8016808353C031C402E680DF700F70D5E
:100BD000FC30F70577082200A000200A20009421AD
:100BE000FA0022002008200094212100E9007A0860
:100BF000EA00670B2C2E680DF700F70DFC30F705A7
:100C00007708033E20009421F8007818092E21006F
:100C10002C2E21006C082300910095131514130845
:100C20002100EF00690884006A0885006F088000D1
:100C30006A08FA00690884006A0885000008220032
:100C4000A0002030A2009B30A1002008A3002000BB
:100C5000B0252100EC0A3E2E680DF700F70DFC30A0
:100C6000F7057708023E20009421F8002100ED00EE
:100C7000690884006A0885006D088000E80AE12D93
:100C8000670B4C2E6C082300910095131514130864
:100C900021006B02031DEE016E08F8002000080021
:100CA00001302100EB00E801E7016708353C031C37
:100CB000B12E670DF700F70DFC30F7057708ED0052
:100CC0006D0A20009421FA0021006D082000942173
:100CD0002100E9007A08EA00670DF700F70DFC3003
:100CE000F7057708033E20009421F800781CAE2E0B
:100CF0002100690884006A0885000008EC00680883
:100D00002300910095131514130821006C02031998
:100D1000A02E0B08F7008B13680823009100210018
:100D20006C08230093009513151555309600AA30D2
:100D30009600951495189A2E151177088B042100AA
:100D400020302200A2009B30A10021006C0822006C
:100D5000A3002000B0252100E80A20002100E70AB6
:100D6000552E0B08F7008B13680823009100210013
:100D70006B08230093009513151555309600AA3083
:100D8000960095149518C22E151177088B04D33050
:100D900091000430920020003625080021006608EA
:100DA000E7002000C825F808031DE22EE6302300E6
:100DB000910004309200200036252100E701200038
:100DC000C82550260800003021008F006A106808EE
:100DD0000F390139031D6A146A18F22E22000F1010
:100DE000F42E210022000F1421006A1068080F3928
:100DF0000239031D6A146A18012F22008F10032F75
:100E0000210022008F1421006A1068080F3904396C
:100E1000031D6A146A18102F22000F11122F2100CF
:100E200022000F1521006A1068080F390839031DC8
:100E30006A146A181F2F22008F11212F210022000F
:100E40008F152100E908031D292F22000F132B2FD6
:100E5000210022000F172C2F8F122E2F8F16302FCC
:100E60000F3021008F00200008001B30C6224C30BC
:100E70002300910004309200200036251B30C6224A
:100E80005F302300910004309200200036251B3093
:100E9000C6226630230091000430920020003625DF
:100EA0001B30C622703023009100043092002000D5
:100EB00036250800240095132000911122002208F5
:100EC000240091000230951B6C2F2000911D662F8D
:100ED00000302400161B0130F800200008000B0829
:100EE0002200A2008B1323009517151400000000A8
:100EF0000318A32F13087F392200A3002300110831
:100F00002200A400230012082200A5002308640088
:100F10002000111A8D2F2200872F23009A00220013
:100F20002408230091002200250823009200951731
:100F30001514000000002200A10B9F2FA12F2300F9
:100F4000A32FC82F2300130D140D7F392200A300F7
:100F5000230011082200A400230012082200A5008B
:100F6000230864002000111AB72F2200B12F23009C
:100F70009A00220024082300910022002508230063
:100F80009200910A0319920A03102200A10B732FF9
:100F9000A21B8B172000080022002808F801270256
:100FA0000318D52F2708F700E12FF7010830A90013
:100FB000A70DF70D280877020318F700F80DA90B05
:100FC000D82F200008002100530885005208840013
:100FD000220024081A0080012100D20A0319D30A32
:100FE000200008009A302300910004309200200075
:060FF00036259831F32BB9
:10100000780822002208A7006430A8008031200060
:10101000CC27883177082200A20078083030031DE1
:101020001828A31C2628A3192628231A20301B2899
:10103000A31123122314F807780864002000111A62
:10104000232822001D2823009A0022002208A7003E
:101050000A30A80080312000CC2788317708220090
:10106000A20078083030031D3B28A3194628231C12
:101070004628231A2030F807780864002000111A47
:10108000432822003D2823009A0022003030A20786
:10109000220864002000111A4F282200492823004A
:1010A0009A002000080021006D0EEF00EF0DEF0DFB
:1010B000C030EF056E083F39EF07240016141618EC
:1010C0005F2850302200A200803120005A2788314A
:1010D00021006F082200A200803120005A278831A9
:1010E0002400161516197228DD30230091000330F4
:1010F000920003100E302200A100803120006F27E3
:10110000883121006D082200A2001B30A3002000BE
:101110000020E530230091000330920003100530D9
:101120002200A100803120006F27883121006E0845
:101130002200A2001B30A300200000200800210094
:101140006E080739F7006E0CF800F80CF80C1F3029
:10115000F80578082200200784000030213D850032
:10116000F801F80AF70AB528F80DF70BB4282100A2
:10117000EF080319BE2878088004C128F809780808
:101180008005200008000B082200A0008B1323001C
:1011900095171514000000000318F42813087F3970
:1011A0002200A100230011082200A200230012083F
:1011B0002200A3002108A40080312000E327883109
:1011C000220022082300910022002308230092001D
:1011D00095171514000000002100ED0BF028F228EF
:1011E0002300F42819292300130D140D7F39220040
:1011F000A100230011082200A200230012082200EF
:10120000A3002108A40080312000E32788312200B8
:101210002208230091002200230823009200910A53
:101220000319920A03102100ED0B17291929220036
:10123000C7282200A01B8B17200008002100EE1BEE
:1012400036290F30F7006D0EF7050A3077020318C4
:101250002C293030F7072E296E08F707770822006F
:10126000A40080312000E327883121000F30ED05F4
:101270000A306D0203183E2930304029EE136E0803
:10128000ED076D082200A40080312000E32788319B
:101290000800031021006D0D063960382200A000FF
:1012A000240016141618522922002008A2008031AA
:1012B00020005A27883121006F08FA006E08840048
:1012C0007A0885008008031978296F08FA006E08EB
:1012D000EE0A0319EF0A84007A088500000822004C
:1012E000A100A200803120005A2788315B2921000B
:1012F0002200A201803120005A27883124001615CF
:101300001619802920000800203021006E1E303080
:101310002200A00021006D08F700ED1F9929F709B0
:10132000F70A7708ED002D302200A0002100EE170B
:101330006E146D082200A7006430A80080312000E0
:10134000CC27883177082100ED0030307807220063
:10135000A10021006D082200A7000A30A8008031FA
:101360002000CC278831303077072200A3003030AE
:101370007807A2002008F700303021020319C6299F
:101380002100EE14EE1B6E15E22922002008A100B8
:101390002030A000303022020319D42921006E141D
:1013A000EE1BEE14E22922000319D92921006E1444
:1013B00022000319DD292100E2292108A2002030A2
:1013C000A10021006E19E929EE18F1296E18F929FA
:1013D000012A22002008A40080312000E327883160
:1013E000210022002108A40080312000E327883159
:1013F000210022002208A40080312000E327883148
:10140000210022002308A40080312000E327883136
:1014100008002100E801E901EA01EB01620820006F
:10142000E4002100E2080319262A01306202263E68
:101430008400203085000318850A0008ED00200094
:101440005D085E0521006D05E700272AE7010130F0
:10145000E600E3016308033C031C8B2AE208031D3A
:10146000342A6C10EC10472A013063076202031D16
:101470003F2A6C1466082000E300412A21006C100A
:1014800020002100EC1067086605031DEC146308BA
:1014900080312000362088312100ED0000306C18AA
:1014A0000130F7006D08EE007708EF0001302200F0
:1014B000A100A00120009F2021006D08EE00EF0197
:1014C0002200A1018030A00020009F20210063089D
:1014D000803120003B2088312100ED000030EC18E5
:1014E0000130F7006D08EE007708EF0001302200B0
:1014F000A100A00120009F2021006D08EE00EF0157
:101500002200A1018030A00020009F2003102100B4
:10151000E60DE30A2A2AE208031D922A2000E501CB
:10152000C82A210001306202223E8400203085005A
:101530000318850A00082000E5002100E401640882
:10154000033C031CC62A01306202F700F70DF70DB9
:10155000FC30F705770864070C3E840020308500D6
:101560000318850A0008E5009830640784002030DD
:1015700085000318850A650880006408ED00650889
:10158000EE00200053202100E40A9F2A511420007D
:1015900020302100D3006C30D200F43023009100C1
:1015A00003309200031005302100ED002000C3201D
:1015B00021006208ED005730EE0020001E21F730B8
:1015C0002300910003309200031407302100ED0046
:1015D0002000C32021006708ED005730EE002000F6
:1015E0001E2101302100ED002030EF006C30EE00B4
:1015F0002000492132302100ED00203085009D304F
:10160000840000080319152B0230F800BF30F700E2
:101610006400F70B082BF80B062B9630F700F70B3E
:101620000F2B122B6400800B042B2030D3006C3066
:10163000D200FD30230091000330920003100430EB
:101640002100ED002000C32021006808ED001830C3
:10165000EE002000842120302200A40080312000F0
:10166000E327883121006908ED001830EE002000E2
:10167000842120302200A40080312000E32788311B
:1016800021006A08ED001830EE002000842120308F
:101690002200A40080312000E327883121006B085C
:1016A000ED001830EE00200084212100ED012030F3
:1016B000EF006C30EE0020004921080080311C252D
:1016C0008831220092019101940193011730210089
:1016D000970024008D012000DC01FC01F601E301EC
:1016E000E501E401F301FF306600003021008F00C6
:1016F000101090101011901591168B150F302700B7
:10170000940495048B1515161412C0308B04220016
:101710008F138F160F160F13803120008B25883101
:1017200001302100E60080312000CE2688312200E1
:101730000F168F160F132100E8010130E9008031E8
:101740002000E32688312100E8010130E9008031E2
:101750002000E32688310C302100E8000130E90048
:1017600080312000E326883101302100E800E900C3
:1017700080312000E3268831A5018B1BA5178B1330
:1017800001302300A000803120002A238831A51BCE
:101790008B17F2178031352788319D306700210083
:1017A000ED01EE012000532001302100ED00EE019B
:1017B0002000532002302100ED00EE0120005320D4
:1017C00003302100ED00EE01200053202100A7018D
:1017D0003C30A6001508C039073895008B16E20189
:1017E00020000922FF302300910004309200803154
:1017F0002000362588311E30FE003C30FD0072127C
:10180000F2112100511498312000322B22002E08B1
:101810002F0403190F2C2F08FA002E08142C200077
:101820002708FA0026082200B2007A08B30033081D
:10183000B7003208B6003108B9003008B8003708E0
:10184000BB003608BA003B08FA003A0884007A0860
:101850008500800803195D2C3908BD003808BC00DC
:101860003D08FA003C0884007A0885008008031DC2
:10187000432C36083A02F70037083B3BFA0077085A
:10188000F800652C552C3B08FA003A0884007A08C9
:1018900085000008BE003D08FA003C0884007A0874
:1018A000850000083E020319592CBC0A0319BD0A21
:1018B000302CBA0A0319BB0A232C36083A02F70067
:1018C00037083B3BFA007708F8007808B207003089
:1018D000B33D3308FA00320884007A088500800896
:1018E000031D7E2C20002608840027088500203058
:1018F00080000030F800F900E32C22003308B70024
:101900003208B6003108B9003008B8003708BB000B
:101910003608BA003B08FA003A0884007A088500C5
:1019200080080319BF2C3908BD003808BC003D08E9
:10193000FA003C0884007A08850080080319BB2C53
:101940003B08FA003A0884007A0885000008BE00C7
:101950003D08FA003C0884007A08850000083E0231
:10196000031DB72C3A08F8003B08F900C22CBC0A4A
:101970000319BD0A972CBA0A0319BB0A8A2C003036
:10198000F800F9007908B5007808B4003508FA00C5
:10199000340884007A08850080080319D72C34089D
:1019A0008400350885008001B40A0319B50A35089A
:1019B0002000A700220034082000A60022003208E0
:1019C000F8003308F9002000080022006308E60050
:1019D0006208E8006108E700E508031DF32C6408CD
:1019E000003C03180A2D6808FA00670884007A088A
:1019F000850066080002031D022D6708F8006808CC
:101A0000F9000D2DE70A0319E80A64080319E50334
:101A1000E403EC2C0030F800F9002000080022005C
:101A2000BA01B9013030BC003130BD003230BE00E7
:101A30003330BF003430C0003530C1003630C20012
:101A40003730C3003830C4003930C5006130C600BB
:101A50006230C7006330C8006430C9006530CA0016
:101A60006630CB006730CC006830CD006930CE00E6
:101A70006A30CF006B30D0006C30D1006D30D200B6
:101A80006E30D3006F30D4007030D5007130D60086
:101A90007330D7007430D8007530D9007630DA0052
:101AA0007730DB007830DC007930DD007A30DE0022
:101AB000DF012F08B4002E08B3003408FA00330801
:101AC00084007A0885000008203C031D6B2DB30AB2
:101AD0000319B40A5D2D3408FA0033088400340871
:101AE000850000082D3C03197F2D3408FA003308C7
:101AF00084003408850000082B3C031D8A2D34081F
:101B0000FA003308B30A0319B40A84007A0885007E
:101B100000088B2D2B30BB003B082D3C03199B2D5F
:101B2000B21B9B2D320B952D9B2DB21B9D2D320888
:101B3000243C03189D2DE52E292EB2080319F22D01
:101B40003208103C031DC42D3408FA003308840009
:101B50007A0885000008303C031DC42D330884003A
:101B60003408850001310008783C0319C02D330882
:101B700084003408850001310008583C031DC42D41
:101B80000230B3070030B43D3208083C031DD62DA7
:101B90003408FA00330884007A0885000008303CD5
:101BA000031DD62D0130B3070030B43D3208023C8E
:101BB000031DF12D3408FA00330884007A088500EB
:101BC0000008303C031DF12D3308840034088500E3
:101BD00001310008623C031DF12D0230B3070030D3
:101BE000B43D292E3408FA00330884007A088500B1
:101BF0000008303C0319FF2D0A30B200292E3308AB
:101C000084003408850001310008783C0319112E46
:101C1000330884003408850001310008583C031D56
:101C2000182E1030B2000230B3070030B43D292E18
:101C3000330884003408850001310008623C031D2C
:101C4000272E0230B200B3070030B43D292E0830F1
:101C5000B2003408B6003308B5003408FA0033087F
:101C600084007A0885000008303C031D3B2EB30A2F
:101C70000319B40A2D2E3408FA00330884003408FE
:101C800085000008E000403C03184D2E60085A3CD7
:101C9000031C4D2E600820384E2E6008E0002030D6
:101CA000E200BC30E1006008E300E5013208E40036
:101CB0002000E52479082200B8007808B700B708AA
:101CC000031D652EB8080319DD2EFA013208F7004E
:101CD000F71BFA03E0007A08E1003A08E30039084C
:101CE000E2006108E5006008E400630865068039E9
:101CF000E700E31F802EE209E309E20A0319E30A81
:101D0000E51F872EE409E509E40A0319E50A103006
:101D1000E600F701FA01E30CE20C031C952E6408BF
:101D2000F7070318FA0A6508FA07FA0CF70CF90C1A
:101D3000F80CE60B8B2EE71FA22EF809F909F80A1A
:101D40000319F90A7908E1007808E000BC3037028D
:101D5000F7002030383BFA0077086007F800610888
:101D6000FA3D7808B9007A08BA00B30A0319B40A30
:101D70003408FA0033088400340885000008E000C5
:101D8000403C0318CA2E60085A3C031CCA2E600847
:101D90002038CB2E6008E0002030E200BC30E100AB
:101DA0006008E300E5013208E4002000E52479083A
:101DB0002200B8007808B7005F2E33083502031DF3
:101DC000F52E34083602031DF52E300831040319B0
:101DD000F12E30088400310885002E0880002F087D
:101DE000813F0030F800F900052F30083104031955
:101DF000012F300884003108850033088000340842
:101E0000813F3908F8003A08F90020000800220054
:101E10002F08FA002E0884007A0885000008B20016
:101E20003108FA00300884007A0885000008320280
:101E30000319702F2F08FA002E0884007A088500F5
:101E40000008B2003208403C03182A2F32085A3CDE
:101E50000318322F3208603C0318862F32087A3C70
:101E6000031C862F3108FA00300884007A088500A8
:101E70000008B2003208403C0318422F32085A3C96
:101E800003184A2F3208603C0318862F32087A3C28
:101E9000031C862F2F08FA002E0884007A0885007C
:101EA0000008B2003108FA00300884007A08850082
:101EB0002030000732020319702F3108FA00300871
:101EC00084007A0885000008B2002F08FA002E0866
:101ED00084007A088500203000073202031D862F17
:101EE0002F08FA002E0884007A0885008008031D58
:101EF0007C2F0030F8009C2F2F08FA002E08AE0A25
:101F00000319AF0AB00A0319B10A082F2F08FA0003
:101F10002E0884002F0885000008B2003108FA005E
:101F200030088400310885000008320203189A2F17
:101F3000FF309B2F0130F8002000080010302200F5
:101F4000A500F701FA01A20CA10C031CAD2F230878
:101F5000F7070318FA0A2408FA07FA0CF70CF90C29
:101F6000F80CA50BA32F2000080080080319CE2F22
:101F700005082200A3000408A20000086400200055
:101F8000111AC42F2200BE2F23009A00220023081A
:101F900085002208840001312000B52F0800E408E4
:101FA0000319FD2F01306402F700F70DF70DFC3027
:101FB000F705770873070C3E2100E8002030E900A0
:101FC0000318E90A68088400690885000008EA0027
:101FD000680884006908850067086A078000690846
:101FE000FA0068088400690885000008EB0073089F
:0C1FF000ED006B08EE00200053200800FC
:1020000020302200221E3030A3002108F700A11F3B
:102010001128F709F70A7708A1002D30A300A217AD
:1020200022142108A7006430A80080312000CC27AA
:10203000903177082200A10030307807A4002108F1
:10204000A7000A30A80080312000CC279031303022
:1020500077072200A60030307807A5002308F70094
:102060003030240203193828A214A21B22154C2850
:102070002308A4002030A30030302502031944288F
:102080002214A21BA2144C28031D2214031D4C2849
:102090002408A5002030A40022195328A2185D2886
:1020A000221867287128230864002000111A5A2872
:1020B0002200542823009A002200240864002000F3
:1020C000111A642822005E2823009A0022002508A5
:1020D00064002000111A6E282200682823009A004C
:1020E0002200260864002000111A78282200722895
:1020F00023009A002000080001302100E800E901D7
:1021000080312000E32690310C302100E8000130BE
:10211000E90080312000E326903105302100E800FD
:102120000130E90080312000E326903105302100A4
:10213000E8000130E90080312000E3269031620898
:102140000339803131209031F800FA0178082100FC
:10215000A8007A08A900280829040319B12800005A
:10216000AB280430E8000130E90080312000E3268C
:1021700090310800F701F801210068080310691880
:10218000F707F70CF80CE918F707F70CF80C6919C2
:10219000F707F70CF80CE919F707F70CF80C691AB0
:1021A000F707F70CF80CE91AF707F70CF80C691B9E
:1021B000F707F70CF80CE91BF707F70CF80C2000F1
:1021C000080001302100E800E90180312000E32609
:1021D00090310C302100E8000130E900803120000E
:1021E000E326903105302100E8000130E90080311C
:1021F0002000E326903105302100E8000130E9009D
:1022000080312000E326903162080339803131208B
:102210009031F80003302100E8007808E900200040
:10222000BA202100A9017808A80028082904031968
:102230001B29000015290430E8000130E900803135
:102240002000E32690310800DC3021006507E8001B
:102250001F30E9000318E90A6908230092002100F1
:1022600068082300910020308500963084000130FA
:102270002100EA006A08F7000310230095171514DF
:102280000000000013088000840A910A0319920AD2
:10229000F70B3F29E9309100033092000310123010
:1022A0002200A100803120006F27903121006508B5
:1022B0002200A2001B30A3008831200000209031B2
:1022C00021005114E7016708033C031C8F296608AD
:1022D000C039403A200003197129C03A0319732903
:1022E00075297C207529E12075292100E60DE60D70
:1022F000FC30E6052000620803398031312090313E
:10230000F800FA0178082100A8007A08A900280836
:10231000290403198D2900008729E70A6329650824
:10232000093C031C9E296508043C031C9B292000D2
:10233000E1209D29210020007C202100200062084E
:102340000339803131209031F80003302100E8005A
:102350007808E9002000BA202100A9017808A80027
:10236000280829040319B6290000B0292000080014
:1023700002307002F53E0318BE2C0B3EBF2C7508D0
:10238000FF3C031DE9290A306400111EC429230003
:102390009A000D3064002000111AD0292300CA29A8
:1023A00023009A0085017408840088312000B52735
:1023B000903120306400111EDA2923009A0075083C
:1023C0002200A2001B30A3008831200000209031A1
:1023D000622A740DF700F70DFC30F705770821002D
:1023E000E700670A8031200094219031FA00210033
:1023F000670880312000942190312100E5007A089F
:10240000E600650884006608850075088000740889
:10241000F6000130FC000C302300910005309200E2
:1024200003100A302200A100803120006F27903174
:1024300020308500663084008831B52790312830FF
:102440006400111E202A23009A0074082200A200B2
:102450001B30A3008831200000209031133023006E
:10246000910005309200031405302200A100803154
:1024700020006F27903175082200A2001B30A300B6
:102480008831200000209031210066081F3C03188D
:10249000602AFF3A031D502A65080B3C0318602A86
:1024A0006608203C031C602A031D5A2A65081B3C51
:1024B000031C602AE70188312000CF2790312100DA
:1024C00051142000BE2C740DF700F70DFC30F705F9
:1024D00077082100E500650A8031200094219031C1
:1024E000FA002100650880312000942190312100FC
:1024F000E2007A08E3007408F6000130FC002000D6
:10250000BE2C803150269031BE2C750B8B2A2100B9
:1025100064148D2A200021006410003064180130FA
:10252000E500E60080312000CE269031BE2C01303F
:102530002100E70088312000CF279031210051147D
:102540002000BE2CFF302100E70088312000CF277B
:102550009031210051142000BE2C80318B25903108
:10256000803135279031A5018B1BA5178B130130C6
:102570002300A000803120002A239031A51B8B1757
:1025800078082100EA00E5016508353C031C622B50
:102590002200A201210065082200A100A40106304A
:1025A000A300883120009E2790317908FA0078082E
:1025B0002200A1007908A200A3012108A400203074
:1025C00085009B308400230884070030853D240863
:1025D0008031200048209031800000380319F52A0E
:1025E0002200A40AA30ADF2A20002100650DF700BB
:1025F000F70DFC30F70577082200A100210A803191
:10260000200094219031FA0022002108803120001E
:10261000942190312100E8007A08E9006908FA0065
:10262000680884006908850000082200A1005B306A
:1026300064002000111A1E2B2200182B23009A0080
:10264000210065082200A2000130A300883120008B
:10265000002090315D306400111E2B2B23009A0066
:10266000203064002000111A372B2300312B230067
:102670009A00203085009B30840088312000B527E7
:10268000903120306400111E422B23009A0022005A
:102690002108A2001B30A3008831200000209031C7
:1026A0000A306400111E512B23009A000D30640083
:1026B0002000111A5D2B2300572B23009A002100C4
:1026C000E50AC42A743023009100043092000310FC
:1026D00009302200A100803120006F2790315C0872
:1026E0002200A2001B30A30088312000002090317E
:1026F0007930230091000430920003140D30220041
:10270000A100803120006F27903161082200A200D3
:102710001B30A30088312000002090312930640054
:10272000111E8F2B23009A008230910004309200FA
:10273000031010302200A100803120006F2790315B
:1027400021006A082200A2001B30A300883120006B
:10275000002090310A306400111EAB2B23009A0038
:102760000D3064002000111AB72B2300B12B230079
:102770009A008D309100043092008031200036257F
:102780009031240016141618C32B51302200A200D9
:10279000803120005A2790312100E5016508033C73
:1027A000031C1E2C6508033C031DD82BE601DA2B05
:1027B0000130E6006608F7002400151396159619F7
:1027C000DF2B77189612771C96161616161AE62B1C
:1027D0001108F80078082100E7003F30E705943041
:1027E0002300910004309200031005302200A10064
:1027F000803120006F279031210065082200A10060
:102800001830A2002000002029306400111E052C81
:1028100023009A003D3064002000111A112C23007F
:102820000B2C23009A00210067082200A100183019
:10283000A200200000202100E50ACE2B240016155E
:102840001619202C210051142000BE2C0100BE2C92
:1028500075080A3C031D2E2CF501332CF508031DC9
:10286000332C0A30F50075080F392100E5006508A2
:10287000E6006608E800E90180312000E326903197
:102880000C302100E8000130E90080312000E3260F
:10289000903101302100E800E90080312000E3267A
:1028A000903105302100E8000130E900803120003E
:1028B000E32690312100A9011030A800280829043E
:1028C0000319642C00005E2C0430E8000130E9009C
:1028D00080312000E3269031BE2CCE3023009100C1
:1028E0000330920003100A302200A1008031200042
:1028F0006F27903175082200A1001830A200200037
:102900000020D430230091000330920003100830DF
:102910002200A100803120006F279031603022001A
:10292000A1001830A2002000002029306400111EF0
:10293000962C23009A002400161416189D2C603043
:102940002200A200803120005A2790317508220011
:10295000A200803120005A2790312200A20180314C
:1029600020005A279031240016151619B52C200086
:10297000BE2C75082100E5002000242108000A1063
:102980008A100A158207BF29632A812A852A972A75
:10299000A22AAD2A262C282CB92C6D2C2200AE019F
:1029A000AF0120308500923084002E08840700306B
:1029B000853D2F08803120007E2290318000003834
:1029C0000319E72C2200AF0AAE0AD12C20002030D8
:1029D0002200AF004630AE002030B1009230B0008F
:1029E000883120000624903179082200AD00780853
:1029F000AC00AC08031DFF2CAD080319192D2D08E0
:102A0000B1002C08B0002030AF009E30AE0031087D
:102A10008500300884000008B2002F0885002E08C9
:102A200084003208800080080319192DAE0AB00A0C
:102A3000072DAF01AE012030B1009230B0008831D7
:102A400020000624903179082200AD007808AC00FF
:102A5000AC08031D2E2DAD080319482D2D08B1001B
:102A60002C08B0002030AF006630AE003108850081
:102A7000300884000008B2002F0885002E0884006A
:102A80003208800080080319482DAE0AB00A362D9E
:102A9000AF01AE012030B1009230B000883120008B
:102AA0000624903179082200AD007808AC00AC080B
:102AB000031D5D2DAD080319872D2D08B1002C08CD
:102AC000B0002030AF009A30AE00310885003008E9
:102AD00084000008B2002F0885002E088400320808
:102AE000800080080319772DAE0AB00A652D2030CA
:102AF000AF009A30AE00B101B0010A30B2008831A7
:102B000020000F2590317808F5008A2D2200FF3033
:102B1000F50020002200AE01AF0120308500A63074
:102B200084002E0884070030853D2F088031200066
:102B300083229031800000380319A32D2200AF0AB0
:102B4000AE0A8D2D200020302200AF00A630AE004E
:102B50002030B1009E30B00088312000072790312E
:102B6000F808031DBC2D7508FF3C031DBA2D03306A
:102B7000F000BC2D0230F0002200AE01AF01203089
:102B80008500A63084002E0884070030853D2F087C
:102B90008031200088229031800000380319D52D23
:102BA0002200AF0AAE0ABF2D200020302200AF0065
:102BB000A630AE002030B1009E30B0008831200039
:102BC00007279031F808031DE72D0430F00022009C
:102BD000AE01AF0120308500A63084002E088407A6
:102BE0000030853D2F08803120008E2290318000FA
:102BF00000380319002E2200AF0AAE0AEA2D200089
:102C000020302200AF00A630AE002030B1009E3050
:102C1000B0008831200007279031F808031D122EDC
:102C20000530F0002200AE01AF0120308500A63053
:102C300084002E0884070030853D2F088031200055
:102C4000972290318000003803192B2E2200AF0A02
:102C5000AE0A152E200020302200AF00A630AE00B4
:102C60002030B1009E30B00088312000072790311D
:102C7000F808031D3D2E0830F0002200AE01AF0120
:102C800020308500A63084002E0884070030853D62
:102C90002F08803120009F229031800000380319D6
:102CA000562E2200AF0AAE0A402E2000203022000D
:102CB000AF00A630AE002030B1009E30B0008831A9
:102CC000200007279031F808031D682E0930F00016
:102CD0002200AE01AF0120308500A63084002E080E
:102CE00084070030853D2F0880312000A7229031D5
:102CF000800000380319812E2200AF0AAE0A6B2E25
:102D0000200020302200AF00A630AE002030B100FD
:102D10009E30B0008831200007279031F808031D4D
:102D2000932E0A30F0002200AE01AF012030850062
:102D3000A63084002E0884070030853D2F0880319E
:102D40002000AD229031800000380319AC2E220003
:102D5000AF0AAE0A962E200020302200AF00A63027
:102D6000AE002030B1009E30B0008831200007272F
:102D70009031F808031DBE2E0C30F0002200AE0189
:102D8000AF0120308500A63084002E088407003073
:102D9000853D2F0880312000B2229031800000381C
:102DA0000319D72E2200AF0AAE0AC12E2000203010
:102DB0002200AF00A630AE002030B1009E30B0003F
:102DC0008831200007279031F808031DE92E0B30C9
:102DD000F0002200AE01AF0120308500A630840053
:102DE0002E0884070030853D2F0880312000B9224D
:102DF0009031800000380319022F2200AF0AAE0A7A
:102E0000EC2E200020302200AF00A630AE00203093
:102E1000B1009E30B0008831200007279031F808BB
:102E2000031D142F0630F0002200AE01AF01203048
:102E30008500A63084002E0884070030853D2F08C9
:102E400080312000BC2290318000003803192D2FE2
:102E50002200AF0AAE0A172F200020302200AF0058
:102E6000A630AE002030B1009E30B0008831200086
:102E700007279031F808031D3F2F0730F000FF307F
:102E8000F4002100DB015B08353C031C8B2F220082
:102E9000A20121005B082200A100A4010630A300CA
:102EA000883120009E2790317908FA0078082100A7
:102EB000E2007908E300E4016208E50020308500C3
:102EC0008C308400640884070030853D65088031BB
:102ED000200048209031800000380319742F210011
:102EE000E50AE40A5E2F200020302200AF006630A1
:102EF000AE002030B1008C30B000883120000727B0
:102F00009031F808031D882F21005B08F400200091
:102F10002100DB0A432F7408FF3C031DF32F2030F0
:102F20002200AF006630AE00B101B0010A30B2003D
:102F3000883120000F2590317808F5002100E2014A
:102F4000E301203085008C30840062088407003063
:102F5000853D6308803120006D229031800000386B
:102F60000319B72F2100E30AE20AA12F2000203025
:102F70002200AF006630AE002030B1008C30B000CF
:102F80008831200007279031F808031DC92F013030
:102F9000F5002100E201E301203085008C3084003F
:102FA000620884070030853D630880312000752267
:102FB0009031800000380319E22F2100E30AE20A71
:102FC000CC2F200020302200AF006630AE00203031
:102FD000B1008C30B0008831200007279031F8080C
:0E2FE0000319F50121002000B8219831382B8B
:10300000210064080739F700640CF800F80CF80C8C
:103010001F30F8057808650784000030663D85009C
:103020000008F800F70A1528F80CF70B1428983157
:103030002000B1282100DB015B08023C031CC828EA
:1030400030305B078400203085000318850A0008B3
:10305000DC0033305B078400203085000318850ACC
:103060000008DD005C08DF005D08E0005B08E100AF
:103070005F08013A2000031D50281F30210061071E
:103080008400203085000318850A20005C08210098
:103090006005031D4D2800304E28013080002000BF
:1030A00021005E101F305B0784002030850003186C
:1030B000850A800803195E145B08803120004020D7
:1030C00098312100DF0000305E180130F7005F0802
:1030D000EE007708EF0001302200A100A001883146
:1030E00020009F20983121005F08EE00EF012200B0
:1030F000A1018030A000883120009F209831363017
:1031000021005B078400203085000318850A000831
:10311000DC0039305B078400203085000318850A05
:103120000008DD005C08DF005D08E0005B08E100EE
:10313000610880312000442098312100E300EE0036
:103140000130EF002200A1018030A0008831200072
:103150009F20983121006308E400E601E50120008A
:10316000002821006210781862145F08013A2000DC
:10317000031DC5282100621CC22860082000DE0053
:10318000C52821000F302000DE002100DB0A1C28AA
:1031900098312000402B2100DB015B08053C031C1B
:1031A000FB282A305B078400203085000318850A3D
:1031B0000008DC005C08E5009031200024219831F3
:1031C00062080339803131209831F800073021003E
:1031D000E8007808E90090312000BA2098312100F9
:1031E000A9017808A800280829040319F928000073
:1031F000F328DB0ACD2898312000532B2100DB0176
:103200000130DC00E001200061080F395C0421007E
:10321000DF002000E5080319192921005F082000BC
:103220006305031D1929E501E30101302100E000D8
:1032300020002100DD01E1016108033C031C4A2953
:103240005F085C050319442920005D085E05210024
:103250005C05031935292230610784002030850080
:103260000318850A0008DE0037290130DE005E08F9
:10327000200065020318452921005E08DB000130AB
:103280006107DD000130E000200003102100DC0DAB
:10329000E10A1C29E0080319822937302300910034
:1032A00004309200031010302200A1008031200071
:1032B0006F2798315C082200A2001B30A3008831E0
:1032C000200000209831403023009100043092000B
:1032D000031014302200A100803120006F279831A4
:1032E00061082200A2001B30A300883120000020CA
:1032F000983121005D08E2008831200009229831D0
:1033000021005114DF080319F21798312000572BC0
:1033100021005C08E0005B08DF006008FA005F083D
:1033200084007A088500800803199A29DF0A0319A6
:10333000E00A8D295E08FA005D0884007A0885009D
:1033400080080319B6295D0884005E08850000081E
:10335000E300600885005F08840063088000DF0ADE
:103360000319E00ADD0A0319DE0A9A295F088400BE
:103370006008850080015B08F8005C08F90098315E
:103380002000B32BF501F0012100DD010530DE0046
:103390005D085E02031CF1295D08093C031CF1294C
:1033A00061145D08E00060085E02031CF0295A30D9
:1033B00060078400203085000318850A00080F3953
:1033C000DF005A3060078400203085000318850A2A
:1033D000001E61105F080C3C03196110E00AD3293C
:1033E000F2296110003061180130F800F808031963
:1033F000E52A2A080F39DE00E8000A30E90090319A
:103400002000BA20983178082100DD002B080F3900
:103410005D07DB002C080F39DE00E8000A30E90008
:1034200090312000BA20983178082100DD002D0865
:103430000F395D07F0002E080F39DE00E8000A3072
:10344000E90090312000BA20983178082100DD0091
:103450002F080F395D07F4000630DC005C08DD0042
:103460005D080A3C031C4E2A5A305D078400203058
:1034700085000318850A001E4C2A5A305D07840017
:10348000203085000318850A00080F390C3C031909
:103490004C2A0130DE004D2ADE014F2ADE015E0893
:1034A000F800F80803196C2A7508E8000A30E900EA
:1034B00090312000BA20983178082100DD005A3080
:1034C0005C078400203085000318850A00080F3946
:1034D0005D07F500DC0A2E2A70080A3A200003195D
:1034E000772A0E3A0319772A013A031D792A7408BC
:1034F000F500053023009100043092008031200057
:1035000036259831133023009100043092000310C7
:103510000E302200A100803120006F279831210059
:103520005B082200A2001B30A3008831200000208D
:1035300098311C30230091000430920003100E30AB
:103540002200A100803120006F27983170082200EE
:10355000A2001B30A30088312000002098312530C4
:10356000230091000430920003100E302200A100CD
:10357000803120006F27983174082200A2001B3090
:10358000A30088312000002098312E3023009100C4
:103590000430920003100E302200A1008031200080
:1035A0006F27983175082200A2001B30A3008831D4
:1035B000200000209831600821005B02031DE52AED
:1035C00090312000B82198312100F2179831200065
:1035D000E82B2100DB015B08093C031CF92A5A3067
:1035E0005B078400203085000318850A8001DB0A10
:1035F000EB2A2030B5005A30B40098312000EC2B73
:10360000850184011F3083057230210099008E15D9
:103610000E162400171097109711133092002830BF
:103620009500941714130C3023009B00A2309E00C9
:1036300090309D002100D301D2012F009101920111
:10364000980199019A0123008C018D018F0190014D
:10365000220092019101940193012000A601A7018B
:1036600088315E2B98316400721C3D2B9031CE2C3A
:10367000983180311C2598317210721D502B1A28F8
:10368000FD080319452BFD034F2B3C30FD00FE08C0
:1036900003194C2BFE034F2B72161E30FE007211C5
:1036A000721E542BCB287212F21C582BFE28F210DB
:1036B000721FE52B2100DB01DC01203085006C301E
:1036C00084005B0884070030853D5C088031200061
:1036D000BF229831800000380319732B2100DC0AC7
:1036E000DB0A5D2B2000183023009100053092008A
:1036F00080312000362598312100D4015408093C3E
:10370000031CC62B5A305407840020308500031850
:10371000850A001EC42B5A305407840020308500CF
:103720000318850A00080F39D5002030D3008630F1
:10373000D2005508ED001830EE00883120008421B9
:10374000983120302200A40080312000E3279831F6
:1037500020302100DC006C30DB002030DE008630C1
:10376000DD002000882920306400111EB42B2300C6
:103770009A00210055082200A2001B30A3008831C6
:103780002000002098312100D40A7E2B0A306400EA
:103790002000111ACD2B2100C72B23009A000D30D9
:1037A00064002000111AD62B2300D02B23009A008E
:1037B0007213210051140230ED002030EF006C3004
:1037C000EE008831200049219831F21EE92BC229F0
:1037D000F212F21FED2BE92AF2132100511CF62BF5
:1037E00080312000F22F9831210051102000332B1E
:0237F000630074
:083FB800AA346A345A3456346D
:103FC000553455349534A534A934AA346034953425
:103FD0009934943440345934A434553450346A34C8
:103FE00098346534A0349034A8346934A6346434E9
:103FF0005434803458345634683496349A34A53462
:020000040001F9
:04000E00FC0FFF1EC6
:00000001FF
;PIC16F1937
;CRC=F6A1  CREATED="23-Feb-14 20:10"
