:100000009831AE2E0000080083018A012000770895
:10001000A0007808A1007908A2007A08A3007B0854
:10002000A4008B1D15280B182B288B1E19280B19C3
:100030002D28850191308400801E2028911A2F28B8
:100040002008F7002108F8002208F9002308FA0028
:100050002408FB0009008031482B80317A2B803145
:10006000EB2A0B0060346134623463340B00643477
:100070006534803481340B007134753482340B0064
:100080006E346F3470340B0040342034EF3401345C
:10009000423420340F3403340C34203420340334FD
:1000A0000D342034203403340E342034203403340F
:1000B0000F342034203403341034203420340334FB
:1000C00011342034203403341234203420340334E7
:1000D00013342034203403341434203420340334D3
:1000E00015342034203403341634203420340334BF
:1000F00017342034203403341834203420340334AB
:1001000019342034203403341A3420342034033496
:100110001B342034203403341C34203400340134A4
:100120001D342034003401341E34203400340134B2
:100130002234203401340134233420340134013496
:10014000243420340134013425342034043403347D
:100150002634203406340334273420340634033460
:100160002834203402340334293420340E34033448
:100170002A3420340D3403342B3420340B3403342C
:100180002C342034073403344334203434340334DF
:1001900044342034123403342D3420341F340334D7
:1001A0002E3420340E3403342F34203402340334FC
:1001B000303420341B340334313420340E340334CF
:1001C00032342034113403343334203401340334D2
:1001D00034342034003403343534203403340334CD
:1001E00036342034113403343734203400340334AB
:1001F000383420340F340334393420340434033495
:100200003A342034033403343B3420340034033490
:100210003C342034213403343D3420340B34033453
:100220003E34203400340334453420340034033465
:100230004634203405340334483420340034033445
:100240004A3420340034003476340034003402342C
:100250000B0065346534703472346F346D3400349F
:100260000B00643465346634613475346C34743432
:1002700000340B00443454344D3446343A340034A2
:100280000B0020342C343B340D3400340B00733419
:100290006534743400340B005334413456344534DF
:1002A00000340B0052344534533454344F345234F8
:1002B000453400340B007334743461347434753451
:1002C000733400340B007234653462346F346F342D
:1002D000743400340B00643400340B00693432345D
:1002E000633400340B006D346F347234733465340E
:1002F00000340B002B3400340B002D3400340B0081
:100300006E3400340B00433450344F3454340034D2
:100310000B00613464346D3469346E340034453418
:100320004E34003400340034003450344F344C34F4
:100330000034003400345234313447343134003422
:1003400000345234313447343234003400345234BF
:100350003134473433340034003452343134473488
:1003600034340034003452343234473431340034BD
:10037000003452343234473432340034003452348E
:100380003234473433340034003452343234473456
:10039000343400340034523433344734313400348C
:1003A000003452343334473432340034003452345D
:1003B0003334473433340034003452343334473424
:1003C000343400340034523434344734313400345B
:1003D000003452343434473432340034003452342C
:1003E00034344734333400340034523434344734F2
:1003F0003434003400345834493431340034003457
:100400000034583449343234003400340034583421
:100410004934333400340034003458344F343134E8
:1004200000340034003458344F3432340034003453
:10043000003458344F3433340034003400345234F0
:1004400031345034003400340034523432345034B7
:100450000034003400345234333450340034003427
:1004600000345234343450340034003400345234C4
:1004700031345034543454340034523432345034DF
:1004800054345434003452343334503454345434A7
:1004900000345234343450345434543400345334EB
:1004A000493444340034003400345434583449342A
:1004B0004434003400344D34523453343134003435
:1004C00000344D34523453343234003400344D341B
:1004D000523453343334003400344D3452345334B2
:1004E0003434003400344D34523453343534003411
:1004F00000344D34523453343634003400345834DC
:100500004F344F3431340034003458344F344F3486
:1005100032340034003458344F344F3433340034E0
:10052000003458344F3441343134003400345834BA
:100530004F34413432340034003458344F34413471
:10054000333400340034583449344F3431340034B7
:100550000034583449344F34323400340034583481
:1005600049344F343334003400345834493441343E
:100570003134003400345834493441343234003496
:100580000034583449344134333400340034543462
:10059000413449344C340034003454344F345434EE
:1005A0000034003400344C3454344F3400340034BC
:1005B000003443344F345234003400340034433474
:1005C00050344F34543400346400111EE42A2300A4
:1005D0009A0020000800911E422B6400911EED2A13
:1005E000230019082200D3005308083C031D202BC8
:1005F000F30803191A2BF3035030730784002030DB
:1006000085000318850A800108302000E4221B3091
:10061000E4225B306400111E0A2B23009A004B3049
:1006200064002000111A162B2300102B23009A00BF
:100630001E2B220007302000E4222300442B22003E
:1006400073080F3C031C3F2B53082000E42273085F
:10065000F30A503E8400203085000318850A2200EA
:100660005308800053080D3C03193D2B53082B3CC5
:1006700003193D2B53082D3C03197414432B0730E9
:100680002000E42222002300200091128031202843
:10069000270016080F3903196B2B20005F08220072
:1006A000D30020000D0862060F392200D40020007C
:1006B0006A081F392200D40420006B080F39220079
:1006C00054042000DF005F0822005302031DF414CD
:1006D000F030270096050B1C712B210061152700B7
:1006E00016120B1C762B74173F3096050B108031B9
:1006F000200020282100300831040319842B300801
:100700000319B103B0039D2B20000D0862060F39B9
:100710002200D30020006A081F392200D3042000E1
:100720006B080F39220053042000DF00F414741505
:1007300074172100B1011E30B000320833040319D0
:10074000A52B32080319B303B2030B11803120002B
:1007500020288A06491943103A10CE37A020C32515
:100760002033F2376D10CC2144103A10A53A000026
:100770008A065039EF31E539F334EE33A021EF36F4
:10078000ED306E323A008A062010D334F43249221A
:1007900020103A10A53A00018A062010C337ED3622
:1007A000613764103A10A53A00018A0620104139D9
:1007B000E73AED326E3A3A10A53A00018A06201067
:1007C000D630EC3A651020103A10A53A00014919CC
:1007D000431425322910C32644103A102532000054
:1007E0005B183B1848008A06491943103A10CE3767
:1007F000A020C325201DA01275008A06D0377414CE
:10080000A53A291EBD127500C327521DA5392028FF
:10081000542ABA1273000A058D214F29BA12751095
:10082000A822ED3A6C1DA53AA91DA020753C4937B8
:10083000BA127510D427541DA53A00018A06442A1D
:100840004D23A029F430F43A73103A10A53A8A06E1
:1008500000008A06491943104539F23772103A10E0
:10086000CE37A020C3252033F2376D105429C92676
:10087000D027D429201DA0127500D027541DA531E2
:100880002532A012E3126410A5312532A012E31222
:1008900064000A058D20C42649273E1000010A0580
:1008A0008D21CF26CD204E223E1000008A06442AFC
:1008B0004D233D008A064937693A2029C126201E6A
:1008C0003D10C5225029CF2600018A064937693AD2
:1008D0002029C126201E3D10C82B20226533E13A75
:1008E0006C3A73008A06D330F634EE332029C126E1
:1008F000A0316F37E634E73AF230F4346F37A03482
:100900006E10C5225029CF262E008A0620104334AF
:10091000E531EB39F536A036E939ED30F4316817B9
:100920002029E539F437F234EE3320326533E13AE9
:100930006C3A203B6136F532731700008A06D332D9
:10094000743A69376710A539A812F514203A6F1068
:10095000A53A00008A062310502A5410D434ED32F0
:10096000EF3AF4100A008A062310CC34EE35202A20
:10097000E936E537753A2105000010302100E50021
:10098000E401650864020318CF2C5030640784002A
:10099000203085000318850A8001E40AC12CF30188
:1009A0007410FF30FD00C001F001200008000B08AA
:1009B0002200B9008B1323009517151400000000C6
:1009C00013087F390319272D2200BA0023001108CC
:1009D0002200BB00230012082200BC003A08640079
:1009E0002000111AF52C2200EF2C23009A0022007F
:1009F0003B082300910022003C0823009200951739
:100A0000151400000000130D140D7F390319272D54
:100A10002200BA00230011082200BB0023001208A4
:100A20002200BC003A0864002000111A192D22008F
:100A3000132D23009A0022003B082300910022007E
:100A40003C0823009200910A0319920ADC2C220030
:100A5000B91B8B17200008002200360884003708D5
:100A600085000008B90039087F3C031CB90A03104F
:100A7000390D093A3807B90036088400370885006F
:100A8000390880002000080001302200B000B101C8
:100A9000B3002C0B542D5A302300910004309200E7
:100AA0002000D7245B2D2200653023009100043004
:100AB00092002000D7242200AD012D08383C031CF1
:100AC000BA2D2D0DF700F70DFC30F7057708B500AE
:100AD000350A20004320FA00220035082000432078
:100AE0002200AE007A08AF002C0BA62D2D0DF700CA
:100AF000F70DFC30F7057708033E20004320F8008F
:100B00007818842D2200A62D2200310823009100A0
:100B10009513151413082200B4002E0884002F0822
:100B20008500340880002F08FA002E0884002F0862
:100B300085000008B5002030B700B030B600350899
:100B4000B80020002C252200B10AB82D2D0DF70089
:100B5000F70DFC30F7057708023E20004320F8002F
:100B60002200B2002E0884002F0885003208800081
:100B7000AD0A5D2D2C0BC62D310823009100951375
:100B80001514130822003002031DB3013308F800C6
:100B90002000080001302200B000AD01AC012C089B
:100BA000383C031C282E2C0DF700F70DFC30F70500
:100BB0007708B200320A20004320FA0022003208EF
:100BC000200043202200AE007A08AF002C0DF70071
:100BD000F70DFC30F7057708033E20004320F800AE
:100BE000781C252E22002E0884002F08850000087E
:100BF000B1002D082300910095131514130822004D
:100C0000310203191A2E0B08F7008B132D0823004D
:100C100091002200310823009300951315155530DB
:100C20009600AA30960095149518142E1511770881
:100C30008B0422002030B700B030B6003108B80075
:100C400020002C252200AD0A20002200AC0ACF2D66
:100C50000B08F7008B132D082300910022003008A9
:100C6000230093009513151555309600AA30960071
:100C700095149518392E151177088B047230910050
:100C8000043092002000D724080022002B08AC007A
:100C900020004425F808031D592E853023009100BB
:100CA000043092002000D7242200AC01200044250B
:100CB000CA250800003021008F002200431041089F
:100CC0000F390139031D43144318682E0F10692E84
:100CD0000F14431041080F390239031D4314431800
:100CE000732E8F10742E8F14431041080F3904395E
:100CF000031D431443187E2E0F117F2E0F15431032
:100D000041080F390839031D43144318892E8F11E8
:100D10008A2E8F15C208031D8F2E0F13902E0F17CA
:100D2000912E8F12932E8F16952E0F3021008F004B
:100D3000200008000F3021008F002200B908031D99
:100D4000A32E0F13A42E0F1700000F120000200077
:100D50000F082200BA000F30BA050F1600003A083B
:100D6000F8002000080024009513200091112200B3
:100D70004E08240091000230951BC52E2000911DC5
:100D8000BF2E00302400161B0130F80020000800A0
:100D90000B082200CF008B132300951715140000B9
:100DA00000000318FC2E13087F392200D000230016
:100DB00011082200D100230012082200D20050089E
:100DC00064002000111AE62E2200E02E23009A0073
:100DD00022005108230091002200520823009200B3
:100DE00095171514000000002200CE0BF82EFA2EE5
:100DF0002300FC2E212F2300130D140D7F39220018
:100E0000D000230011082200D10023001208220084
:100E1000D200500864002000111A102F22000A2F5F
:100E200023009A002200510823009100220052085A
:100E300023009200910A0319920A03102200CE0B9C
:100E4000CC2ECF1B8B172000080022005108F80180
:100E5000500203182E2F5008F7003A2FF7010830E0
:100E6000D200D00DF70D510877020318F700F80DE6
:100E7000D20B312F20000800780822004E08D00045
:100E80006430D1002000252777082200CE007808A2
:100E90003030031D522FCF1C602FCF19602F4F1AF7
:100EA0002030552FCF114F124F14F80778086400E7
:100EB0002000111A5D2F2200572F23009A002200D4
:100EC0004E08D0000A30D1002000252777082200E4
:100ED000CE0078083030031D732FCF197E2F4F1CA2
:100EE0007E2F4F1A2030F807780864002000111A6E
:100EF0007B2F2200752F23009A0022003030CE076E
:100F00004E0864002000111A872F2200812F230031
:100F10009A002000080022003D0EBF00BF0DBF0D4B
:100F2000C030BF053E083F39BF072400161416180D
:100F3000972F50302200CE002000B32678082200E0
:100F4000401078184014401CBC2F0030401801306D
:100F5000C100F330230091000330920003101130E0
:100F60002200CE002000C82622004108CE001B30FF
:100F7000CF0020003C2722003F08CE002000B326EF
:100F8000240016151619C22FFD30230091000330DE
:100F90009200031006302200CE002000C826220056
:100FA0003D08CE001B30CF0020003C2729306400D4
:100FB000111ED72F23009A003C3064002000111A24
:100FC000E32F2300DD2F23009A003D306400200032
:100FD000111AEC2F2300E62F23009A0022003E086E
:0C0FE000CE001B30CF0020003C27080092
:1010000020308500C83084000008031918280230F9
:10101000F800BF30F7006400F70B0B28F80B092825
:101020009630F700F70B122815286400800B07286C
:10103000080022004308F700031023009517151439
:101040000000000013088000840A910A0319920A24
:10105000F70B1F282000080001302200C100C20148
:10106000803120005A2688310C302200C100013026
:10107000C200803120005A26883105302200C1008C
:101080000130C200803120005A268831053022000C
:10109000C1000130C200803120005A268831210071
:1010A000B3010230B200320833040319592800009A
:1010B000532804302200C1000130C20080312000DA
:1010C0005A2688316400080001302200C100C201A4
:1010D000803120005A2688310C302200C1000130B6
:1010E000C200803120005A26883105302200C1001C
:1010F0000130C200803120005A268831053022009C
:10110000C1000130C200803120005A268831210000
:10111000B3010630B20032083304031991280000ED
:101120008B2804302200C1000130C2008031200031
:101130005A26883164000800DB3022003D07C100D8
:101140001F30C2000318C20A420823009200220086
:1011500041082300910020308500BE30840001301A
:101160002200C30020001920210061162200BF01C7
:101170003F08033C031CE22840143E08C039403AB3
:1011800020000319C728C03A0319C928CB282C20EE
:10119000CE286420CE282200401020002200BE0D60
:1011A000BE0DFC30BE05401CE0282100B30102301A
:1011B000B200320833040319DF280000D9282200C6
:1011C000BF0AB8283D08093C031CF1283D08043C2F
:1011D000031CEE2820006420F028220020002C2090
:1011E00022002000080022003E080739F7003E0CCC
:1011F000F800F80CF80C1F30F80578084007840058
:101200000030413D8500F801F80AF70A0829F80D79
:10121000F70B0729BF080319102978088004132940
:10122000F80978088005200008002100630885007F
:101230006208840022004E081A0080012100E20AA0
:101240000319E30A200008000B082200C9008B13D1
:1012500023009517151400000000031853291308E4
:101260007F392200CA00230011082200CB0023008E
:1012700012082200CC004A08CE00200015212200CE
:101280004B082300910022004C0823009200951780
:101290001514000000002200C80B4F29512923001B
:1012A000532973292300130D140D7F392200CA001E
:1012B000230011082200CB00230012082200CC00DA
:1012C0004A08CE002000152122004B08230091007F
:1012D00022004C0823009200910A0319920A03107D
:1012E0002200C80B2829C91B8B1720000800800882
:1012F00003198B2905082200BE000408BD00000860
:10130000CE002000152122003E0885003D08840003
:1013100001312000772908002400161416188E29A0
:1013200003102200480D0E396038CB004B08CE0068
:1013300080312000B3268831780822004C107818BC
:101340004C144C1CC5292100E11FC3290030220088
:101350004C180130CD00A9302300910003309200D9
:1013600003101A302200CE0080312000C8268831B8
:1013700022004D08CE001B30CF00803120003C27DA
:1013800088312100E113C72922002100E117220042
:101390004A08FA00490884007A0885008008031981
:1013A000E4294A08FA004908C90A0319CA0A84004C
:1013B0007A0885000008CD00CE0080312000B326D9
:1013C00088312100C7292200CE0180312000B326B8
:1013D0008831240016151619EB292000080020304A
:1013E0002200491E3030CA004808F700C81F002AF2
:1013F000F709F70A7708C8002D30CA00C917491441
:101400004808D0006430D100803120002527883181
:1014100077082200C80030307807CB004808D00099
:101420000A30D100803120002527883130307707FD
:101430002200CD0030307807CC004A08F700303069
:101440004B020319272AC914C91B49153B2A4A080C
:10145000CB002030CA0030304C020319332A491423
:10146000C91BC9143B2A031D4914031D3B2A4B0801
:10147000CC002030CB004919422AC918472A491804
:101480004C2A512A4A08CE002000152122004B0880
:10149000CE002000152122004C08CE00200015218E
:1014A00022004D08CE0020001521080080080319F5
:1014B0006F2A05082200C9000408C800000864005B
:1014C0002000111A652A22005F2A23009A002200B8
:1014D000490885004808840001312000562A080088
:1014E00020302200C000C100C200C300C401C501F9
:1014F000C601C7012830C8002000002024001614AF
:101500001618802A51302200CE0080312000B326E8
:10151000883178082200BF107818BF14BD013D083B
:10152000033C031CCC2A3D08033C031D992A3F10B1
:101530009A2A3F1400303F180130C8004808F700CD
:101540002400151396159619A32A77189612771C5E
:1015500096161616161AAA2A1108F80078082200FC
:10156000BE003F30BE05C4303D07840020308500FA
:101570000318850A3E088000760803393D02031DE2
:10158000CA2AC0303D078400203085000318850A30
:101590002A308000BD0A8F2A240016151619CE2A7B
:1015A00032302200C800200000202200BF1CF32A95
:1015B00000303F180130C80029302300910004306A
:1015C0009200031025302200CE0080312000C82672
:1015D000883122004808CE001B30CF008031200027
:1015E0003C278831220020302100E3007630E200E1
:1015F0003D3023009100043092000310043022009B
:10160000C8002000242122004008CE00200015211F
:1016100022004408C8001830C9002000EF21203003
:101620002200CE002000152122004108CE0020001B
:10163000152122004508C8001830C9002000EF21FC
:1016400020302200CE002000152122004208CE00CA
:101650002000152122004608C8001830C9002000CB
:10166000EF2120302200CE00200015212200430867
:10167000CE002000152122004708C8001830C900FC
:101680002000EF212200C8012030CA007630C900B6
:1016900020008C210A306400111E4B2B23009A007D
:1016A0000D3064002000111A572B2300512B23000A
:1016B0009A002030850076308400200056220800F1
:1016C00030302200B200B300B400B500B601B7005C
:1016D000B800B900BA00BB012C082000EF002200BE
:1016E000AC080319842B01302C02293E84002030E1
:1016F00085000318850A0008BD0020006008610508
:1017000022003D05B100C72BB101F41EC72BF41216
:101710002000ED08031D8F2BEC080319C62B640075
:1017200004302200BD00FA30C80020000020220052
:10173000BD0B932B2000ED080319B02B6D08220080
:10174000BD0020009C20ED01640002302200BD009D
:10175000FA30C800200000202200BD0BA82B20007A
:10176000EC080319C52B6C082200BD0020009C204A
:10177000EC01640002302200BD00FA30C8002000F5
:1017800000202200BD0BBD2B200064002200013090
:10179000B000AD012D08033C031C322CAC08031D26
:1017A000D42B3C10BC10E72B01302D072C02031D5D
:1017B000DF2B3C1430082000EE00E12B22003C100F
:1017C00020002200BC1031083005031DBC142D0878
:1017D00080312000312088312200BD0000303C18CB
:1017E0000130F7003D08BE007708BF000130C1009E
:1017F000C0012000F32022003D08BE00BF01C1014E
:101800008030C0002000F32022002D08803120000D
:10181000362088312200BD000030BC180130F700AE
:101820003D08BE007708BF000130C100C0012000A4
:10183000F32022003D08BE00BF01C1018030C0007E
:101840002000F3202200BC1C2E2CB7302D07840072
:10185000203085000318850A313080000310B00D58
:10186000AD0ACA2BAC08031D372CF101652C0130E1
:101870002C02253E8400203085000318850A0008CC
:10188000F100AE012E08033C031C622C01302C0237
:10189000F700F70DF70DFC30F70577082E070C3E23
:1018A0008400203085000318850A0008AF002E0848
:1018B000BD002F08BE00803120008B278831220018
:1018C000AE0A422C210061162200AC080319A72C95
:1018D00001302C02B23E8400203085000318850AB6
:1018E0003130800020302100E3007630E200043007
:1018F0002300910004309200031004302200C8003D
:101900002000242120308500B23084007721073068
:101910002300910004309200031005302200C8001B
:101920002000242120308500B73084007721013049
:101930002200C8002030CA007630C90020008C2167
:1019400032302200C8002000002070222200200037
:1019500008002100E1122200BE080319B22C210068
:10196000E11622002100E11EBC2C0A302000ED000F
:10197000FF30F500BF2C210018302000ED000800DA
:101980008031BD248831220092019101940193019C
:101990001730210097002000DF01EA01EB01F4126B
:1019A0002100E11061112000E701FC012100DC01B0
:1019B000DB012000EE01F101EF01F60121001D1015
:1019C000FF30660000308F0010109010101190153D
:1019D00091168B15CF302700940495048B1515169E
:1019E0001412C0308B0422008F138F160F160F13A2
:1019F0000130AB00803120004526883122000F16CF
:101A00008F160F13C1010130C200803120005A2609
:101A100088312200C1010130C200803120005A26E5
:101A200088310C302200C1000130C200803120001A
:101A30005A26883101302200C100C20080312000C6
:101A40005A26883101302200B900803120009A26C0
:101A500088312100E1150F302000E10062080F39C4
:101A6000C03824008D002100951380312000032010
:101A700088319D306700803065002200BD01BE01C5
:101A8000803120008B27883101302200BD00BE014B
:101A9000803120008B27883102302200BD00BE013A
:101AA000803120008B27883103302200BD00BE0129
:101AB000803120008B2788312100B1011E30B00019
:101AC0001508C039073895008B162200AC0120009C
:101AD00060231D302100DE003B30DD007412F41164
:101AE000611620006508EC00ED01BF01C001C101D5
:101AF0007413F2012200BE012000A9242100611309
:101B000098312000E12E22003D083E0403198C2D5F
:101B10003E08FA003D08912D20002708FA0026080B
:101B20002200C1007A08C2004208C6004108C50070
:101B30004008C8003F08C7004608CA004508C90059
:101B40004A08FA00490884007A08850080080319C9
:101B5000DA2D4808CC004708CB004C08FA004B08A7
:101B600084007A0885008008031DC02D45084902BD
:101B7000F70046084A3BFA007708F800E22DD22D1C
:101B80004A08FA00490884007A0885000008CD0058
:101B90004C08FA004B0884007A08850000084D02C2
:101BA0000319D62DCB0A0319CC0AAD2DC90A031986
:101BB000CA0AA02D45084902F70046084A3BFA0028
:101BC0007708F8007808C1070030C23D4208FA00E3
:101BD000410884007A0885008008031DFB2D200041
:101BE0002608840027088500203080000030F80097
:101BF000F900602E22004208C6004108C5004008D6
:101C0000C8003F08C7004608CA004508C9004A087E
:101C1000FA00490884007A088500800803193C2EE0
:101C20004808CC004708CB004C08FA004B08840059
:101C30007A08850080080319382E4A08FA004908F6
:101C400084007A0885000008CD004C08FA004B0893
:101C500084007A08850000084D02031D342E4908CF
:101C6000F8004A08F9003F2ECB0A0319CC0A142EBB
:101C7000C90A0319CA0A072E0030F800F9007908CA
:101C8000C4007808C3004408FA00430884007A08B6
:101C9000850080080319542E4308840044088500F9
:101CA0008001C30A0319C40A44082000A7002200C7
:101CB00043082000A60022004108F8004208F9006D
:101CC00020000800F701F801220041080310421823
:101CD000F707F70CF80CC218F707F70CF80C4219C5
:101CE000F707F70CF80CC219F707F70CF80C421AB3
:101CF000F707F70CF80CC21AF707F70CF80C421BA1
:101D0000F707F70CF80CC21BF707F70CF80C2000CC
:101D100008002200BF01C0013F083D0784000030D9
:101D20003E3D850080080319BE2E3F083D07840014
:101D300000303E3D850000082F3C0318BE2E3F08B2
:101D40003D07840000303E3D85000008393C031CFF
:101D5000BE2E4008C1000A30C2002000622678086A
:101D60002200C1003F083D07840000303E3D850051
:101D7000303000024107C000BF0A8C2E4008F80036
:101D8000200008002200C10141083D078400003006
:101D90003E3D85000008DF39C20041083F0784004E
:101DA0000030403D85000008DF394202031DE62E69
:101DB00041083D07840000303E3D85008008031D3A
:101DC000E42E0030F800E82EC10AC42E0130F800DD
:101DD0002000080010302200BF00F701FA01BC0CFF
:101DE000BB0C031CF92E3D08F7070318FA0A3E083E
:101DF000FA07FA0CF70CF90CF80CBF0BEF2E2000C9
:101E000008002200BD013D08053C031C282F3D08A9
:101E10003907F80000303A3DFA007808BE007A0829
:101E2000BF003D083B07F80000303C3DFA00780851
:101E3000230091007A08920022003F0885003E08A6
:101E400084000130C300200019202200BD0A032FA6
:101E5000200008002100E11E2F2FFF30F500E11ABD
:101E6000352F611B352F0030362F0130F800200050
:101E70000800760803392200B1002000EF0803199A
:101E8000782F01306F02F700F70DF70DFC30F705E2
:101E90007708220031070C3EF8002030FA000318C2
:101EA000FA0A7808AE007A08AF002E0884002F08DE
:101EB00085000008B0002E0884002F0885002D083A
:101EC0003007800020002A27F8080319782F220005
:101ED0002F08FA002E0884002F0885000008B200A1
:101EE0003108BD003208BE00803120008B278831C8
:101EF00070220800780822002B08D0006430D1003E
:101F0000803120002527883177082200AB0078082F
:101F10003030031D922FAC1C9B2FAC199B2F2C1A19
:101F20002030952FAC112C122C14F8077808CE0015
:101F30002000152122002B08D0000A30D10080316A
:101F400020002527883177082200AB007808303040
:101F5000031DB02FAC19B62F2C1CB62F2C1A203015
:101F6000F8077808CE002000152122003030AB079A
:101F70002B08CE002000152108002100E11ECB2FE8
:101F80004930230091000430920080312000D72492
:101F90008831D42F21004F3023009100043092006B
:101FA00080312000D72488310800210068080739D3
:101FB000F700680CF800F80CF80C1F30F8057808EA
:101FC0006907840000306A3D85000008F800F70AC0
:0E1FD000EA2FF80CF70BE92F90312000182DA6
:1020000001302200AC008831200060239031043080
:102010002200AC00FA30C800883120000020903146
:102020002200AC0B0A28AA012A08053C031C34280C
:102030002D302A078400203085000318850A000807
:10204000AB002B08BD00883120009C20903121007E
:10205000B3010630B20032083304031931280000FE
:102060002B282200AA0A14280430AC00FA30C80039
:1020700088312000002090312200AC0B3628F41467
:1020800020000800F0080319A628B83023009100AA
:102090000330920080312000D7249031C3302300D8
:1020A00091000330920003100E302200CE008031E8
:1020B0002000C826903163082200CE001B30CF00DC
:1020C000803120003C279031CC3023009100033038
:1020D000920003100E302200CE0080312000C8266E
:1020E000903170082200CE001B30CF0080312000DC
:1020F0003C279031D530230091000330920003102B
:102100000E302200CE0080312000C82690317D089C
:102110002200CE001B30CF00803120003C279031C0
:10212000DE30230091000330920003100E302200B5
:10213000CE0080312000C82690317E082200CE00DB
:102140001B30CF00803120003C27903102307002DC
:10215000F53E0318E12C0B3EE22C7E08FF3C031DEC
:10216000D7280A306400111EB22823009A000D30CF
:1021700064002000111ABE282300B82823009A000A
:1021800085017D088400883120005622903120305E
:102190006400111EC82823009A007E082200CE0089
:1021A0001B30CF00803120003C27903176297D0DF7
:1021B000F700F70DFC30F70577082200AD002D0A77
:1021C0008031200043209031FA0022002D08803118
:1021D0002000432090312200AA007A08AB00883109
:1021E00020002A279031F808031D03297D0DF700F0
:1021F000F70DFC30F7057708033E8031432090311E
:10220000F800F8180B2922002A0884002B08850002
:102210007E088000200022002A0884002B08850008
:102220000008AC007D082100DB000130DC009E309E
:10223000230091000430920003100A302200CE00E7
:1022400080312000C8269031203085007030840015
:1022500088315622903128306400111E2C29230029
:102260009A007D082200CE001B30CF008031200074
:102270003C279031A53023009100043092000314D4
:1022800005302200CE0080312000C8269031220087
:102290002C08CE001B30CF00803120003C2790312D
:1022A00022002B081F3C03186629FF3A031D5C29F6
:1022B0002A080B3C031866292B08203C031C6629BE
:1022C000031D6D292A081B3C03186D292A08763C3A
:1022D000031D7329AB08031D7329AD01883120004C
:1022E000392790312200210061162000E12C7D0D5C
:1022F000F700F70DFC30F70577082200AA002A0A3C
:102300008031200043209031FA0022002A088031D9
:102310002000432090312100EE007A08EF007D0874
:10232000DB000130DC000130FA008F302200AA000F
:102330007A08AB00AD017D08AC002D08BC002C086C
:10234000BB00BE010630BD0088312000EA26903176
:10235000780822002A07A20079082B3DA30020302C
:10236000BA00A430B9002308BC002208BB008831A1
:1023700020000127903121006F08FA006E088400C8
:102380006F08850000082200AA0020302100E30029
:102390007630E2005B302200CE008831200015212B
:1023A00090317D082200AB000130AC008831200064
:1023B0007A2790315D302200CE008831200015212F
:1023C000903120302200CE0088312000152190313C
:1023D00020308500A430840088317721903120306E
:1023E0002200CE00883120001521903122002A08D9
:1023F000AB001B30AC00883120007A2790310A30C6
:102400002200CE0088312000152190310D302200AD
:10241000CE0088312000152190310A306400111E51
:102420000E2A23009A000D3064002000111A1A2A87
:102430002300142A23009A0020308500763084007F
:10244000883120005622903102302200C80020300E
:10245000CA007630C900883120008C219031883143
:10246000BD279031E12C88312A279031F8080319D3
:102470003C2A8031CA259031E12C7E0B432A220070
:102480002014452A200022002010883120002A270D
:102490009031F8080319562A003022002018013024
:1024A000AA00AB008031200045269031E12C7D0848
:1024B0000339F6007E082200AD008831200039275C
:1024C0009031210061162000E12C7D080339F600CF
:1024D000FF302200C1007E08C20088312000622641
:1024E000903178082200AA00AD00883120003927F9
:1024F0009031210061162000E12C1B308031E42254
:1025000090315B306400111E822A23009A00323021
:1025100064002000111A8E2A2300882A23009A00C2
:102520004A3064002000111A972A2300912A2300C0
:102530009A001B3080312000E4229031F0302300DB
:1025400091000330920080312000D72490318031F7
:102550000320903101302200B900803120009A26FA
:10256000903178082200B100B201AB01AA01AB089A
:10257000031DBE2B2A08383C031CBE2B0130FA0079
:102580008F30B9007A08BA002B08BC002A08BB00BB
:10259000BE010630BD0088312000EA26903178085F
:1025A00022003907AD0079083A3DAE002030BA006C
:1025B000B330B9002E08BC002D08BB0088312000C4
:1025C0000127903122002A0DB9002B0DBA00B90D58
:1025D000BA0DFC30B9053A08FA003908BB00390ACF
:1025E0008031200043209031FA0022003B088031E6
:1025F0002000432090312200AF007A08B00030085C
:10260000FA002F0884007A0885000008B9005B30C2
:1026100064002000111A0E2B2200082B23009A00C0
:102620000B30840022002B08BB002A08BA000508E2
:10263000C2000408C1003B0EF038BD00BD07E23EF9
:10264000BE00323EC0003B080F39BE07BE07C007C0
:10265000E93EBF00BF07BF073A0E0F39BF07C007EB
:10266000BF0DC00DC009C00D3A080F39C007BD0D20
:102670000730BC000A30C007BF03031C3B2BBF0759
:10268000BE03031C3F2BBE07BD03031C432BBD072A
:10269000BC03031C472B013085003C30840007300D
:1026A0004105411384074030040203194117000813
:1026B000F700031D632B411B632B411A712BC119BA
:1026C000632B2030662BC11541123030F707770895
:1026D00064002000111A6E2B2200682B23009A0040
:1026E00022000131411F532B5D3064002000111A7C
:1026F0007B2B2200752B23009A00203064002000E1
:10270000111A842B23007E2B23009A002030850091
:10271000B33084008831200056229031203064008C
:10272000111E8F2B23009A0022003908CE001B3087
:10273000CF00803120003C27903109306400111E09
:102740009E2B23009A0022002A080339B900BA01FF
:102750003908033C031DB92BBA08031DB92B0A30F5
:1027600080312000E42290310D308031E42290311C
:1027700022006400AA0A0319AB0AB72AAC012C088C
:10278000023C031CD92B1F302C078400203085000D
:102790000318850A000BD72B0130F7002C08F8002E
:1027A0000319D52BF735F80BD22B7708B207AC0AF3
:1027B000BF2B0B3023009100043092000310073030
:1027C0002200CE0080312000C82690315F08220010
:1027D000CE001B30CF00803120003C2790310F30DD
:1027E0002300910004309200031407302200CE0031
:1027F00080312000C82690316A082200CE001B30AC
:10280000CF00803120003C2790311430230091000C
:1028100004309200031009302200CE0080312000E5
:10282000C826903122003208CE001B30CF00803104
:1028300020003C2790311930230091000430920091
:10284000031405302200CE0080312000C8269031CC
:1028500067082200CE001B30CF00803120003C27CB
:1028600090311E302300910004309200031010308C
:102870002200CE0080312000C8269031220031088D
:10288000CE001B30CF00803120003C2790310A3031
:102890006400111E482C23009A000D3064002000B3
:1028A000111A542C23004E2C23009A00883120004A
:1028B00070229031210061162000E12C7D08023A3F
:1028C0000319692C033A0319702C023A0319782C66
:1028D0007A2C88312A279031F808031D0100802CBA
:1028E00001302200BE0088312000A9249031802CC4
:1028F0000020802C2200BE0188312000A9249031C4
:10290000E12C7E080339043E2200A1002030210082
:10291000E3007630E200E7302300910003309200BC
:10292000031004302200C800883120002421903197
:1029300060302200C8001830C90088312000EF2123
:102940009031EA30230091000330920003100830E8
:102950002200C80088312000242190312200210863
:10296000C8001830C90088312000EF2190310A30AA
:102970006400111EB82C23009A000D306400200062
:10298000111AC42C2300BE2C23009A00203085008D
:1029900076308400883120005622903122002108B0
:1029A000C8002030CA007630C900883120008C2150
:1029B0009031E12C7E082200BD00883120009C204F
:1029C000903108000A108A100A158207AD2877296D
:1029D000332A3D2A572A652A7D2A5E2CE12CDA2CDF
:1029E000812C2100E4016408023C031C362D1F30B9
:1029F0006407E5002030E6000318E60A6408803129
:102A000020003F2090312100E7002200BE0001306D
:102A1000BF00C1018030C00088312000F320903118
:102A200021006708E800EA01E90188312000D52F7C
:102A3000903178182B2D1C30210064078400203041
:102A400085000318850A80080319282D20002B2DE6
:102A500000302D2D200001302100E800660885009F
:102A60006508840068088000E40AF32C983120008F
:102A7000EF2E741D8A2DF41721005F086004031DDA
:102A8000462D2000E608031D622D21005F08031972
:102A9000E003DF032000E6080319612D21005F0831
:102AA00060040319552D2000612DAA3023009100E8
:102AB0000430920080312000D7249031210061162B
:102AC00020006D2DF20803196D2D7208E700220019
:102AD000AC018831200060239031FC08031DFC0309
:102AE000F5080319752DF5037E2D2100E11E7F2DBC
:102AF0002200BE0188312000A92490312100640009
:102B0000DD080319852DDD03882D3B30DD00F4152C
:102B100074112000F41DA92D2100DE080319922D47
:102B2000DE03952D74161D30DE00F4112000E80838
:102B30000319A92DE90803199F2DE903A92DB33025
:102B4000230091000430920080312000D72490317E
:102B50006010741EC12D640803390319C02D640868
:102B60000139031DBF2D640802390319C02D640EFD
:102B7000F7000F30F70577080F39600503190020BB
:102B800074129831F42E01302100E400E701200096
:102B90005F082100E600F1080319E72D6608200010
:102BA0006E050319D52D2100E72DF101EE0101304D
:102BB0002100E7006608200060056105031DE62D81
:102BC000F416E5080319E62D6508EC002100E8017C
:102BD000E9016908033C031C302E66086405EA001D
:102BE00020006708FF3A21006A0503192C2E2000F7
:102BF00060086105210064050319082E2530690766
:102C00008400203085000318850A0008E5000A2E9C
:102C10000130E5006508710203182C2EF108031D30
:102C2000132E6508F10001306907E8000130E70064
:102C30003C302200C100200066082200C20088311A
:102C40002000622690312100E0017808DF0020009A
:102C5000E70121006408F2000310E40DE90AE92D00
:102C6000E70803193C2E68082200AC0088312000D8
:102C70006023903121006116E608031D442EE11502
:102C8000F2012000E70121002000E8080319512E7D
:102C90002100E608031D4E2E2000512E200068085A
:102CA000E9009831FA2E22002A101F3029078400EB
:102CB000203085000318850A8008031D2A1428087F
:102CC0001F39AB002808F039F700770EAC000F3041
:102CD000AC0501302702FC3E0318BA2E043E20004A
:102CE000BD2E22002A1C792E28082000E1057E2E08
:102CF00022002808FF3A0F392000E1042200BA2EF2
:102D000022002A1C892EF41628082000EC008B2EA5
:102D100022002000EC012200BA2E22002A18962E52
:102D2000F41628082000EC00982E22002000EC0168
:102D30002200BA2E22002A1128082039031D2A1544
:102D400000302A190130AE0000302A1801302E065A
:102D5000F800AA107818AA14AA1CB32E2B08200079
:102D6000EB04B72E22002B08FF3A2000EB052200CF
:102D7000BA2E220098312000382D0A108A140A1524
:102D80008207712E8D2E802E9A2E22002808AC00EC
:102D90002708AB002C08FA002B0884007A0885006D
:102DA00080080319D72EAB0A0319AC0ACA2E2A08C9
:102DB000FA00290884007A08850080080319F32E98
:102DC000290884002A0885000008AF002C08850027
:102DD0002B0884002F088000AB0A0319AC0AA90A4B
:102DE0000319AA0AD72E2B0884002C08850080011D
:102DF0002708F8002808F900200008000130220008
:102E0000B900803120009A26903178082100E50031
:102E1000651D4D2F2200B901803120009A26903186
:102E200078082100E400E114E408031D1A2F0A3099
:102E3000E4001E2F64080A3C0319E40164080B3CFB
:102E40000319E11564080C3C031D2E2F61143E0884
:102E500084003F088500003180164D2F3F08203C3C
:102E6000031C4D2F031D382F3E086D3C031C4D2FB6
:102E70003E0884003F088500003164080F39F700E0
:102E8000F0300005770480003E0884003F0885008C
:102E900000310016BE0A0319BF0A98312000082F1E
:102EA0002100EB01EC0120308500763084006B08B6
:102EB00084070030853D6C08803120003921903135
:102EC000800000380319692F2100EC0AEB0A532F08
:102ED0002000563023009100043092008031200001
:102EE000D72490312100E4016408093C031CBE2F63
:102EF000643064078400203085000318850A001EB2
:102F0000BB2F643064078400203085000318850AD5
:102F100000080F39E5002030E3009630E200650834
:102F20002200C8001830C90088312000EF219031FC
:102F300020302200CE008831200015219031203031
:102F40002200A8007630A7002030AA009630A90001
:102F50002000C52620306400111EAB2F23009A00EC
:102F6000210065082200CE001B30CF0080312000F8
:102F70003C27903121006400E40A742F0A30640079
:102F80002000111AC52F2100BF2F23009A000D30F9
:102F900064002000111ACE2F2300C82F23009A00AE
:102FA0002100611602302200C8002030CA007630AD
:102FB000C900883120008C2190319831102F2100D8
:102FC000E4016408093C031CEF2F643064078400AB
:102FD000203085000318850A8001E40AE12F2030A3
:0C2FE000BF006430BE0098312000202F9C
:1030000002302200C8002030CA005030C900883188
:1030100020008C219831FF30FD0022002610BD01D8
:10302000BE0120308500A93084003D0884070030AF
:10303000853D3E08803120004021983180000038D5
:10304000031927282200BE0ABD0A112820002030BB
:103050002200BE005030BD002030C000A930BF00AB
:10306000883120008325983179082200A80078084B
:10307000A700A708031D3F28A808031959282808F6
:10308000C0002708BF002030BE009E30BD004008B1
:1030900085003F0884000008C1003E0885003D0807
:1030A000840041088000800803195928BD0ABF0A1E
:1030B0004728BE01BD012030C000A930BF008831C3
:1030C00020008325983179082200A8007808A700FD
:1030D000A708031D6E28A808031988282808C0001F
:1030E0002708BF002030BE007030BD0040088500BA
:1030F0003F0884000008C1003E0885003D088400A8
:1031000041088000800803198828BD0ABF0A762874
:10311000BE01BD012030C000A930BF0088312000B1
:103120008325983179082200A8007808A700A7080D
:10313000031D9D28A8080319C3282808C0002708D4
:10314000BF002030BE00B130BD00400885003F0800
:1031500084000008C1003E0885003D088400410845
:10316000800080080319B728BD0ABF0AA5282030AF
:10317000BE00B130BD008831200089269831780822
:10318000FE00C6282200FE01261420002200BD01F8
:10319000BE0120308500B53084003D088407003032
:1031A000853D3E088031200046219831800000385E
:1031B0000319DF282200BE0ABD0AC92820002030DA
:1031C0002200BE00B530BD002030C0009E30BF00E0
:1031D00088312000C2269831F808031DF828220003
:1031E000261CF5280330F000F7280230F0002000FC
:1031F0002200BD01BE0120308500B53084003D08AD
:1032000084070030853D3E08803120004B219831F5
:1032100080000038031911292200BE0ABD0AFB28CC
:10322000200020302200BE00B530BD002030C0009C
:103230009E30BF0088312000C2269831F808031D57
:1032400023290430F0002200BD01BE01203085009A
:10325000B53084003D0884070030853D3E0880314C
:103260002000512198318000003803193C292200A8
:10327000BE0ABD0A2629200020302200BE00B5303B
:10328000BD002030C0009E30BF0088312000C22623
:103290009831F808031D4E290530F0002200BD01C9
:1032A000BE0120308500B53084003D088407003021
:1032B000853D3E08803120005A2198318000003839
:1032C000031967292200BE0ABD0A512920002030B7
:1032D0002200BE00B530BD002030C0009E30BF00CF
:1032E00088312000C2269831F808031D792908305A
:1032F000F0002200BD01BE0120308500B530840001
:103300003D0884070030853D3E0880312000622161
:10331000983180000038031992292200BE0ABD0AA4
:103320007C29200020302200BE00B530BD002030B6
:10333000C0009E30BF0088312000C2269831F808B6
:10334000031DA6290930F0000230FD002200BD0156
:10335000BE0120308500B53084003D088407003070
:10336000853D3E08803120006A2198318000003878
:103370000319BF292200BE0ABD0AA9292000203056
:103380002200BE00B530BD002030C0009E30BF001E
:1033900088312000C2269831F808031D202AF00148
:1033A00020302200BE007030BD0088312000892608
:1033B00098317808FE007E080A3C031DE129FE01D1
:1033C000E629FE08031DE6290A30FE007E080F39B3
:1033D0002200BD003D08BE003E08C100C201803190
:1033E00020005A2698310C302200C1000130C20062
:1033F000803120005A26983101302200C100C200DD
:10340000803120005A26983105302200C100013059
:10341000C200803120005A2698312100B3011030BB
:10342000B200320833040319172A0000112A0430AD
:103430002200C1000130C200803120005A2698319C
:103440002200BD01BE0120308500B53084003D085A
:1034500084070030853D3E08803120006D21983181
:10346000800000380319392A2200BE0ABD0A232A27
:10347000200020302200BE00B530BD002030C0004A
:103480009E30BF0088312000C2269831F808031D05
:103490004B2A0C30F0002200BD01BE012030850017
:1034A000B53084003D0884070030853D3E088031FA
:1034B000200072219831800000380319642A22000C
:1034C000BE0ABD0A4E2A200020302200BE00B530C0
:1034D000BD002030C0009E30BF0088312000C226D1
:1034E0009831F808031D8B2A20302200BE0070306E
:1034F000BD0088312000892698317808FE007E08BA
:10350000243C031C872AFD010B30F0008B2A093074
:10351000F0000330FD002200BD01BE012030850017
:10352000B53084003D0884070030853D3E08803179
:10353000200079219831800000380319A42A220044
:10354000BE0ABD0A8E2A200020302200BE00B530FF
:10355000BD002030C0009E30BF0088312000C22650
:103560009831F808031DB62A0630F0002200BD018C
:10357000BE0120308500B53084003D08840700304E
:10358000853D3E08803120007C2198318000003844
:103590000319CF2A2200BE0ABD0AB92A2000203012
:1035A0002200BE00B530BD002030C0009E30BF00FC
:1035B00088312000C2269831F808031DE12A07301F
:1035C000F0002200BD01BE0120308500B53084002E
:1035D0003D0884070030853D3E08803120007F2172
:1035E0009831800000380319FA2A2200BE0ABD0A69
:1035F000E42A200020302200BE00B530BD0020307B
:10360000C0009E30BF0088312000C2269831F808E3
:10361000031D292B0230F000013076070339FE002C
:103620002200BD01BE0120308500703084003D08BD
:1036300084070030853D3E0880312000822198318A
:10364000800000380319292B2200BE0ABD0A132B63
:1036500020002200BD01BE0120308500B53084006D
:103660003D0884070030853D3E08803120008821D8
:103670009831800000380319422B2200BE0ABD0A8F
:103680002C2B200020302200BE00B530BD002030A1
:10369000C0009E30BF0088312000C2269831F80853
:1036A000031D622B20302100E1060030E11A0130B9
:1036B0002200BD00BE0088312000A92498312100DD
:1036C000611620002100E501E401E508031DB12B8E
:1036D0006408383C031CB12B0130FA008F30EE0037
:1036E0007A08EF0065082200BC002100640822006F
:1036F000BB00BE010630BD0088312000EA269831AB
:10370000780821006E07E60079086F3DE700203059
:103710002200BA009830B900210067082200BC00DE
:10372000210066082200BB00883120000127983163
:1037300020302200BE007030BD002030C000983024
:10374000BF0088312000C2269831F808031DAC2B39
:1037500021006408FD0020002100E40A0319E50AA5
:10376000652B7D08FF3C031D152C20302200BE0078
:103770007030BD0088312000892698317808FE001D
:103780002100EE01EF0120308500983084006E08A2
:1037900084070030853D6F08803120002821983152
:1037A000800000380319D92B2100EF0AEE0AC32B41
:1037B000200020302200BE007030BD002030C0004C
:1037C0009830BF0088312000C2269831F808031DC8
:1037D000EB2B0130FE002100EE01EF0120308500CF
:1037E000983084006E0884070030853D6F08803172
:1037F000200030219831800000380319042C21006A
:10380000EF0AEE0AEE2B200020302200BE007030BE
:10381000BD002030C0009830BF0088312000C22693
:103820009831F8080319FE0121007008063C0319BD
:103830001D2C7008073C031D212C0130FE0076086A
:10384000FD00611790312000422098312100611362
:1038500098312000E62E30302100E700E800E90032
:10386000EA01EB00EC00ED00EE012030EF0041300A
:103870002200A0004430A1004D30A2004930A30036
:103880004E30A400A5012100E4016408023C031CA1
:103890003C2D333064078400203085000318850AEE
:1038A0000008E500363064078400203085000318E6
:1038B000850A0008E60065082200A70021006608C6
:1038C0002200A800210064082200A90028080F395E
:1038D000AA002808F039F700770EAB000F30AB05CF
:1038E0002708013A200003197C2C033A03198F2C76
:1038F000013A0319A92CC62C223022002907840082
:10390000203085000318850A72082B062A05031D3E
:103910008B2C00308C2C013080002000C62C2230F3
:10392000220029078400203085000318850A2A0810
:103930001F39AF007A08B0002B08AF06031DA52C75
:10394000B008031DA52C0030A62C013080002000FB
:10395000C62C22002C1072082B062A05031D2C14DD
:103960002C1CB62CAC143C30FC00BA2CAC10FC085F
:10397000031DAC1422302907840020308500031871
:10398000850A0030AC18013080002000220026108B
:103990002230210064078400203085000318850A46
:1039A0008008031DD62C22002614210064088031D3
:1039B00020003B2098312200A7000030261801305B
:1039C000F7002708BE007708BF000130C100C00122
:1039D00088312000F320983122002708BE00BF0163
:1039E000C1018030C00088312000F32098312200CE
:1039F0002618052D9B3021006407840020308500A7
:103A00000318850A31308000220039302100640714
:103A10008400203085000318850A0008E5003C304A
:103A200064078400203085000318850A0008E6003A
:103A30001F3064078400203085000318850A000BBE
:103A40002A2D973064078400203085000318850AEA
:103A50003130800065082200A7002100660822009E
:103A6000A800210064082200A90090312000532EF4
:103A700098312100E40A452C2030E3007630E20042
:103A800049302200CE0088312000152198313A308B
:103A90002200CE0088312000152198312030850089
:103AA0009730840088317721983120302200CE0071
:103AB00088312000152198314F302200CE00883106
:103AC0002000152198313A302200CE0088312000A4
:103AD00015219831203085009B3084008831772172
:103AE00098312100E11E822D20302200A80076307E
:103AF000A7002030AA009F30A90090312000C526E1
:103B00009831210003302200C8002030CA007630EE
:103B1000C900883120008C2198319831012F210073
:103B200066086702031CB92D6608093C031CB92D01
:103B30006A146608E90069086702031CB82D64303E
:103B400069078400203085000318850A00080F39B2
:103B5000E800643069078400203085000318850A76
:103B6000001E6A1068080C3C03196A10E90A9B2DB4
:103B7000BA2D6A1000306A180130F80020000800E1
:103B8000F001FE012100E6010330E70020008F254F
:103B9000F8080319742E210034080F39E7002200B9
:103BA000C1000A30C20088312000622698317808AE
:103BB0002100E60035080F396607E40036080F39A2
:103BC000E7002200C1000A30C200883120006226CE
:103BD000983178082100E60037080F396607F000B1
:103BE0000430E6000530E70020008F25F8080319AF
:103BF0004F2E210038080F39E7002200C1000A309B
:103C0000C200883120006226983178082100E60041
:103C100039080F396607FD000630E5006508E60043
:103C200066080A3C031C2E2E643066078400203090
:103C300085000318850A001E2C2E64306607840058
:103C4000203085000318850A00080F390C3C031941
:103C50002C2E0130E7002D2EE7012F2EE7016708FB
:103C6000F800F80803194D2E7E082200C1000A3022
:103C7000C200883120006226983178082100E600D1
:103C8000643065078400203085000318850A000829
:103C90000F396607FE00E50A0E2E612E200070081F
:103CA0000A3A0319572E013A03195B2E5E2EFD01C5
:103CB0000E30FE005E2EFD010F30FE000230F000DF
:103CC00021007008043A20000319692E013A031DEF
:103CD0006B2E7D08FE00630821006402031D752E13
:103CE0009031200042209831210034080F39F00033
:103CF000E11EAA2EE601E70120008F25F808031D2A
:103D0000832E2100AA2E640070080E3A03198F2E0C
:103D1000013A0319972E053A03199F2EA62E01305A
:103D200076070339F600883170229831A62EFF30CD
:103D30002200AD008831200039279831A62E0130AD
:103D40002200AD00883120003927983188312A2798
:103D500098312100E11598312000182F8501840148
:103D60001F3083057230210099008E150E16240035
:103D70001710971097111330920028309500941760
:103D800014130C3023009B00A2309E0090309D0045
:103D90002100E117E301E2012F0091019201980156
:103DA00099019A0123008C018D018F01900122005D
:103DB00092019101940193012000A601A70188318D
:103DC000C02C98316400741CEA2E00288031BD2478
:103DD000983174106400741FF22E9031F12C9831D8
:103DE0007413F4179031392D98316400F41CFE2EB1
:103DF0009031C32D9831F417F4106400F41F022F92
:103E00002B2CF4132100611D0B2F90312000FE2E6E
:103E1000983121006111E11C142F90312000502FA6
:103E200098312100E1106400611C1B2F2000C02D7F
:103E3000210061106400E11D232F90312000DF2F4D
:103E400098312100E111611E2C2F88312000BD27FF
:0E3E500098312100611264002000E22E630010
:0A3FB600AA346A345A3456345534E4
:103FC00055349534A534A934AA34603495349934E1
:103FD000943440345934A434553450346A349834C9
:103FE0006534A0349034A8346934A634643454342D
:103FF000803458345634683496349A34A5340034B6
:020000040001F9
:04000E00BC0FFF1E06
:00000001FF
;PIC16F1937
;CRC=9E77  CREATED="05-Jan-24 13:00"
