:060000009031D72E000034
:0800080083018A012000770842
:10001000A0007808A1007908A2007A08A3008B1D2F
:1000200013280B1827288B1E17280B192928850140
:1000300091308400801E1E28911A2B282008F7007A
:100040002108F8002208F9002308FA00090080318D
:10005000A92A8031192B80312F2A0B000234033456
:1000600006340A340B0060346134623463340B00AC
:1000700064346534803481340B00713475348234D7
:100080000B0050344F344C340034003400345234BC
:10009000313447343134003400345234313447344D
:1000A0003234003400345234313447343334003481
:1000B0000034523431344734343400340034523450
:1000C000323447343134003400345234323447341B
:1000D0003234003400345234323447343334003450
:1000E000003452343234473434340034003452341F
:1000F00033344734313400340034523433344734E9
:10010000323400340034523433344734333400341E
:1001100000345234333447343434003400345234ED
:1001200034344734313400340034523434344734B6
:1001300032340034003452343434473433340034ED
:1001400000345234343447343434003400345834B6
:1001500049343134003400340034583449343234B2
:10016000003400340034583449343334003400341B
:10017000003458344F3431340034003400345834AF
:100180004F34323400340034003458344F34333474
:1001900000340034003452343134503400340034EC
:1001A0000034523432345034003400340034523489
:1001B0003334503400340034003452343434503446
:1001C0000034003400345234313450345434543414
:1001D00000345234323450345434543400345234B1
:1001E000333450345434543400345234343450346E
:1001F00054345434003453344934443400340034D7
:1002000000344D34523453344C34003400344D34C3
:10021000523453343134003400344D345234533476
:100220003234003400344D345234533433340034D7
:1002300000344D34523453343434003400344D34AB
:10024000523453343534003400344D345234533442
:1002500036340034003443344F34523400340034E4
:100260000034433450344F34543400340B003034B1
:1002700020340F3401340B342034203401340C3456
:100280002034203401340D342034203401340E3431
:100290002034203401340F3420342034013410341D
:1002A0002034203401341134203420340134123409
:1002B00020342034013413342034203401341434F5
:1002C00020342034013415342034203401341634E1
:1002D00020342034013417342034203401341834CD
:1002E00020342034013419342034203401341A34B9
:1002F0002034203401341B342034013401341C34C4
:100300002034023401341D342034033401341E34CB
:100310002034043401341F342034053401342034B3
:1003200020340634013421342034013401342234A1
:10033000203405340134233420340534013424348A
:10034000203403340134253420340E34013426346F
:1003500020340D340134273420340B340134283454
:10036000203407340134313420343234013433340E
:10037000203401340134293420341F3401342A3428
:1003800020340E3401342B342034023401342C3424
:1003900020341B3401342D3420340E3401342E34F7
:1003A00020341134013432342034003400344934E0
:1003B0002034003400340B006534653470347234FA
:1003C0006F346D3400340B0064346534663461344A
:1003D00075346C34743400340B0020343B340D34E9
:1003E00000340B0073346534743400340B00533420
:1003F00041345634453400340B00523445345334C0
:1004000054344F345234453400340B007334743454
:10041000613474347534733400340B0072346534D1
:1004200062346F346F34743400340B0064347434C9
:100430006D34663400340B006D346F3472347334B1
:10044000653400340B002B3400340B002D340034A1
:100450006400111E282A23009A0020000800911E23
:100460008A2A6400911E312A230019082200C10043
:100470004108083C031D632A2000E70803195E2A8F
:10048000E703373067078400203085000318850AAA
:100490008001083028221B3028225B306400111EA6
:1004A0004E2A23009A004B3064002000111A5A2A69
:1004B0002300542A23009A00612A200007302822B2
:1004C00023008C2A2200200067080F3C031C882A86
:1004D00022004108200028226708E70A373E8400EE
:1004E000203085000318850A220041088000410859
:1004F0000D3C0319832A41082B3C0319832A410828
:100500002D3C031D862A2000681422008B2A20001F
:1005100007302822220023002000911280311E285B
:100520000F3021008F002200C408031D992A0F13E9
:100530009A2A0F1700000F12000020000F08220057
:10054000C5000F30C5050F1600004508F800200053
:100550000800270016080F390319C22A20004F0887
:100560002200C30020000D0850060F39CF004F08AD
:10057000220043020319BF2A2000E8142200F030B1
:10058000270096050B1C142B01302200C40020000C
:10059000902278082200C200421D152BC4012000C1
:1005A000902278082200C100200068172200C108AC
:1005B000031DDD2A0A30C100E12A41080A3C031963
:1005C000C10141080C3C031DF02A2000E81621005F
:1005D000280884002908850000318016122B22008B
:1005E00021002908203C031C122B031DFB2A28088C
:1005F000573C031C122B2808840029088500003171
:10060000220041080F39F700F03000057704800020
:100610002100280884002908850000310016A80A56
:100620000319A90A2700161222000B10803120009E
:100630001E286A086B040319222B6A080319EB03AE
:10064000EA03272BE8146815EB011F30EA006C0859
:100650006D0403192F2B6C080319ED03EC030B1128
:1006600080311E285B183B1848008A06D332743A42
:1006700069376710D0377414A53A2910F437A012DF
:1006800075008A06D3326E3269376710ED37F2395A
:1006900065103A10A53A00008A065039EF31E53965
:1006A000F334EE332022D4264610F332F13A653784
:1006B000E3323A008A062010D334F4324922201063
:1006C0003A10A53A00018A062010C337ED3661378B
:1006D00064103A10A53A00018A0620104139E73A21
:1006E000ED326E3A3A10A53A00018A062010D63053
:1006F000EC3A651020103A10A53A00008A06231043
:10070000C3275210D037723A73103D10A53A3B10F0
:10071000D32BA022ED3AEC30F4326410C3275210F0
:100720003A10A53A00005B1AB71D331A6D050D2962
:100730006132E93720296538E530F4327210C33769
:100740006E3AF2376C366539A01620005B1AB71D79
:10075000B3186D2B45194C2953005B1AB71D331A7A
:100760006D10A82129103218B1190A050D005B1A65
:10077000B01DB31B6D000A058D214F29201DA0124D
:100780007510A822ED3AEC30F43264103A10A53A14
:1007900029008A06442A4D23A029F430F43A731024
:1007A0003A10A53A8A0600018A065429C926D0279C
:1007B000D429201D200020286F3AA812E414BD126D
:1007C00064000A058D21CF26CD204E223E10000068
:1007D0008A064937693AE930EC34FA34EE33202995
:1007E000C126203B6139E9306236E5392033F237E2
:1007F0006D10C5225029CF2600018A064937693A73
:10080000E930EC34FA34EE332029C126203B61393B
:10081000E9306236E539A03B693A6810E634F236D1
:10082000F730F23220326533E13A6C3A203B6136E0
:10083000F53273008A06D330F634EE332029C12610
:10084000A0316F37E634E73AF230F4346F37A03432
:100850006E10C5225029CF262E008A062010433460
:10086000E531EB39F536A036E939ED30F43168176A
:100870002029E539F437F234EE3320326533E13A9A
:100880006C3A203B6136F532731700008A0649370F
:10089000693AE930EC34FA30F4346F37A031EF368E
:1008A0007036653A65008A06D332743A6937671044
:1008B000A539A812F514203A6F10A53A00008A064F
:1008C000442A4D233D0010302100B300B20133080B
:1008D00032020318752C373032078400203085002F
:1008E0000318850A8001B20A672C2000E70168100E
:1008F000FF30F1002100AA01F001200008000B08E0
:100900002100C8008B132300951715140000000068
:1009100013087F390319CF2C2100C90023001108C7
:100920002100CA00230012082100CB0049086400FE
:100930002000111A9D2C2100972C23009A002100E1
:100940004A082300910021004B08230092009517CC
:10095000151400000000130D140D7F390319CF2C5E
:100960002100C900230011082100CA002300120839
:100970002100CB00490864002000111AC12C21007D
:10098000BB2C23009A0021004A082300910021007B
:100990004B0823009200910A0319920A842C21002B
:1009A000C81B8B17200008001B3028225B30640016
:1009B000111ED72C23009A00323064002000111A37
:1009C000E32C2300DD2C23009A004A306400200031
:1009D000111AEC2C2300E62C23009A001B30200077
:1009E00028223230230091000330920020007F241F
:1009F0000800210048088400490885000008CB0051
:100A00004B087F3C031CCB0A03104B0D093A4A07E5
:100A1000CB0048088400490885004B08800020006E
:100A2000080001302100C200C301C5003E0B212D8A
:100A3000E830230091000330920020007F24282D0D
:100A40002100FD30230091000330920020007F241C
:100A50002100BF013F08283C031C872D3F0DF700F4
:100A6000F70DFC30F7057708C700470A200036214C
:100A7000FA0021004708200036212100C0007A0832
:100A8000C1003E0B732D3F0DF700F70DFC30F7054D
:100A90007708033E20003621F8007818512D2100F8
:100AA000732D21004308230091009513151413089A
:100AB0002100C600400884004108850046088000E7
:100AC0004108FA0040088400410885000008C7007A
:100AD0002030C9007230C8004708CA002000F9243D
:100AE0002100C30A852D3F0DF700F70DFC30F705F7
:100AF0007708023E20003621F8002100C40040089B
:100B000084004108850044088000BF0A2A2D3E0B5E
:100B1000932D430823009100951315141308210009
:100B20004202031DC5014508F800200008000130FD
:100B30002100C200BF01BE013E08283C031CF52D68
:100B40003E0DF700F70DFC30F7057708C400440AA6
:100B500020003621FA00210044082000362121001F
:100B6000C0007A08C1003E0DF700F70DFC30F70514
:100B70007708033E20003621F800781CF22D210072
:100B800040088400410885000008C3003F08230096
:100B90009100951315141308210043020319E72D42
:100BA0000B08F7008B133F08230091002100430836
:100BB000230093009513151555309600AA30960022
:100BC00095149518E12D151177088B04210020301C
:100BD000C9007230C8004308CA002000F92421006F
:100BE000BF0A20002100BE0A9C2D0B08F7008B13C2
:100BF0003F08230091002100420823009300951331
:100C0000151555309600AA30960095149518062EA5
:100C1000151177088B041A309100043092002000DF
:100C20007F24080021003D08BE0020001125F8089F
:100C3000031D262E2D302300910004309200200049
:100C40007F242100BE0120001125972508000030D7
:100C500021008F0041103F080F390139031D411455
:100C60004118362E22000F10382E210022000F14BA
:100C7000210041103F080F390239031D411441186A
:100C8000452E22008F10472E210022008F142100B4
:100C900041103F080F390439031D41144118542EE7
:100CA00022000F11562E210022000F1521004110A5
:100CB0003F080F390839031D41144118632E2200E3
:100CC0008F11652E210022008F152100C008031D01
:100CD0006D2E22000F136F2E210022000F17702E91
:100CE0008F12722E8F16742E0F3021008F0020006D
:100CF00008001B302822933023009100033092001B
:100D000020007F241B302822A630230091000330CE
:100D1000920020007F241B302822AD302300910058
:100D20000330920020007F241B302822B73023009C
:100D300091000330920020007F24080024009513C6
:100D40002000911121004808240091000230951BD9
:100D5000B02E2000911DAA2E00302400161B013059
:100D6000F800200008000B082100C9008B132300A5
:100D700095171514000000000318E72E13087F399B
:100D80002100CA00230011082100CB002300120813
:100D90002100CC004A0864002000111AD12E210045
:100DA000CB2E23009A0021004B0823009100210044
:100DB0004C08230092009517151400000000210034
:100DC000C80BE32EE52E2300E72E0C2F2300130D76
:100DD000140D7F392100CA00230011082100CB0027
:100DE000230012082100CC004A0864002000111AD8
:100DF000FB2E2100F52E23009A0021004B08230032
:100E0000910021004C0823009200910A0319920AD4
:100E100003102100C80BB72EC91B8B172000080038
:100E200021004F08F8014E020318192F4E08F70051
:100E3000252FF7010830D000CE0DF70D4F087702AF
:100E40000318F700F80DD00B1C2F200008007808BD
:100E500021004908CE006430CF0020001027770819
:100E60002100C90078083030031D3D2FCA1C4B2FCC
:100E7000CA194B2F4A1A2030402FCA114A124A145D
:100E8000F807780864002000111A482F2100422F2B
:100E900023009A0021004908CE000A30CF0020002C
:100EA000102777082100C90078083030031D5E2F15
:100EB000CA19692F4A1C692F4A1A2030F807780886
:100EC00064002000111A662F2100602F23009A0071
:100ED00021003030C907490864002000111A722F20
:100EE00021006C2F23009A00200008002100430EEF
:100EF000C500C50DC50DC030C50544083F39C5073F
:100F0000240016141618822F50302100C80020002B
:100F10009E2621004508C80020009E2624001615A4
:100F20001619902F353023009100033092000310E2
:100F30000E302100C8002000B32621004308C9005C
:100F40001B30CA00200027273D30230091000330CA
:100F50009200031005302100C8002000B3262100B4
:100F60004408C9001B30CA002000272708002100C0
:100F700041080739F700410CF800F80CF80C1F3055
:100F8000F8057808430784000030443D8500F801E7
:100F9000F80AF70ACC2FF80DF70BCB2FC20803196C
:100FA000D42F78088004D72FF8097808800520000E
:100FB0000800F701F8012100480803104918F70755
:100FC000F70CF80CC918F707F70CF80C4919F707D4
:100FD000F70CF80CC919F707F70CF80C491AF707C2
:100FE000F70CF80CC91AF707F70CF80C491BF707B0
:100FF000F70CF80CC91BF707F70CF80C20000800D9
:10100000210039082000D5002100B9080319132850
:1010100001303902253E8400203085000318850AFE
:101020000008BE001428BE010130BD00BA013A0814
:10103000033C031C7C28B908031D21283F10BF1066
:10104000342801303A073902031D2C283F143D088B
:101050002000D4002E2821003F1020002100BF10C6
:101060003E083D05031DBF143A08803120003220A0
:1010700088312100C00000303F180130F7004008DF
:10108000C1007708C2000130C400C30180312000D4
:10109000B727883121004008C100C201C401803057
:1010A000C30080312000B727883121003A08803101
:1010B0002000372088312100C0000030BF180130E7
:1010C000F7004008C1007708C2000130C400C30126
:1010D00080312000B727883121004008C100C201BB
:1010E000C4018030C30080312000B727883103104D
:1010F0002100BD0DBA0A1728B908031D8328200056
:10110000D601B128210001303902213E840020306F
:1011100085000318850A00082000D6002100BB01C5
:101120003B08033C031CB02801303902F700F70DDF
:10113000F70DFC30F70577083B070B3E84002030A5
:1011400085000318850A0008BC003B08C3003C0862
:10115000C40080312000762788312100BB0A902806
:101160007B14200008008031632488312200920122
:1011700091019401930117302100970024008D0103
:101180002000CF01F401F301D401D601D501E9011A
:10119000FF306600003021008F00101090101011F9
:1011A000901591168B150F302700940495048B151C
:1011B00015161412C0308B0422008F138F160F16D1
:1011C0000F1380312000D424883101302100BD006C
:1011D000803120001226883122000F168F160F133F
:1011E0002100BF010130C000803120002726883156
:1011F0002100BF010130C000803120002726883146
:101200000C302100BF000130C000803120002726B3
:10121000883101302100BF00C00080312000272626
:101220008831A4018B1BA4178B1301302200C4004A
:101230008031200090228831A41B8B17E817803161
:10124000792688319D3067002100C301C4018031B7
:1012500020007627883101302100C300C40180318D
:1012600020007627883102302100C300C40180317C
:1012700020007627883103302100C300C40180316B
:10128000200076278831EB013C30EA002100150868
:10129000C039073895008B16B90120000020463070
:1012A0002300910004309200803120007F24883197
:1012B0001E30F6003C30F5006812E8117B149031C6
:1012C000062F21005508560403196A295608FA000A
:1012D00055086F2920002608FA0025082100D900AA
:1012E0007A08DA005A08DE005908DD005808E000E4
:1012F0005708DF005E08E2005D08E1006208FA00BE
:10130000610884007A08850080080319B8296008FC
:10131000E4005F08E3006408FA00630884007A08C8
:1013200085008008031D9E295D086102F7005E08A4
:10133000623BFA007708F800C029B0296208FA0079
:10134000610884007A0885000008E5006408FA0056
:10135000630884007A088500000865020319B4292F
:10136000E30A0319E40A8B29E10A0319E20A7E2938
:101370005D086102F7005E08623BFA007708F8003A
:101380007808D9070030DA3D5A08FA005908840075
:101390007A0885008008031DD929200025088400CB
:1013A00026088500203080000030F800F9003E2A31
:1013B00021005A08DE005908DD005808E0005708EF
:1013C000DF005E08E2005D08E1006208FA006108E3
:1013D00084007A088500800803191A2A6008E4004E
:1013E0005F08E3006408FA00630884007A08850057
:1013F00080080319162A6208FA00610884007A0836
:1014000085000008E5006408FA00630884007A0893
:10141000850000086502031D122A6108F8006208B1
:10142000F9001D2AE30A0319E40AF229E10A031963
:10143000E20AE5290030F800F9007908DC007808B4
:10144000DB005C08FA005B0884007A0885008008ED
:101450000319322A5B0884005C0885008001DB0ADE
:101460000319DC0A5C082000A60021005B082000AC
:10147000A50021005908F8005A08F90020000800CA
:1014800022003A08BD003908BF003808BE00BC0879
:10149000031D4E2A3B08003C0318652A3F08FA004A
:1014A0003E0884007A0885003D080002031D5D2A7D
:1014B0003E08F8003F08F900682ABE0A0319BF0A6F
:1014C0003B080319BC03BB03472A0030F800F900AE
:1014D000200008002100E101E0013030E30031305C
:1014E000E4003230E5003330E6003430E7003530D8
:1014F000E8003630E9003730EA003830EB003930A8
:10150000EC006130ED006230EE006330EF006430DB
:101510002200A0006530A1006630A2006730A30061
:101520006830A4006930A5006A30A6006B30A700BF
:101530006C30A8006D30A9006E30AA006F30AB008F
:101540007030AC007130AD007330AE007430AF005D
:101550007530B0007630B1007730B2007830B3002B
:101560007930B4007A30B500B60121005608DB00AE
:101570005508DA005B08FA005A0884007A088500EA
:101580000008203C031DC82ADA0A0319DB0ABA2A1C
:101590005B08FA005A0884005B08850000082D3CAF
:1015A0000319DC2A5B08FA005A0884005B088500EE
:1015B00000082B3C031DE72A5B08FA005A08DA0AE8
:1015C0000319DB0A84007A0885000008E82A2B301A
:1015D000E20062082D3C0319F82AD91BF82A590B9E
:1015E000F22AF82AD91BFA2A5908243C0318FA2AA5
:1015F000502C862BD90803194F2B5908103C031D7A
:10160000212B5B08FA005A0884007A08850000083C
:10161000303C031D212B5A0884005B0885000131F2
:101620000008783C03191D2B5A0884005B088500CC
:1016300001310008583C031D212B0230DA0700302D
:10164000DB3D5908083C031D332B5B08FA005A08A0
:1016500084007A0885000008303C031D332B0130DC
:10166000DA070030DB3D5908023C031D4E2B5B08B6
:10167000FA005A0884007A0885000008303C031DEF
:101680004E2B5A0884005B08850001310008623C3B
:10169000031D4E2B0230DA070030DB3D862B5B0842
:1016A000FA005A0884007A0885000008303C0319C3
:1016B0005C2B0A30D900862B5A0884005B08850011
:1016C00001310008783C03196E2B5A0884005B082E
:1016D000850001310008583C031D752B1030D900DE
:1016E0000230DA070030DB3D862B5A0884005B08A5
:1016F000850001310008623C031D842B0230D900B3
:10170000DA070030DB3D862B0830D9005B08DD00AE
:101710005A08DC005B08FA005A0884007A08850041
:101720000008303C031D982BDA0A0319DB0A8A2BC8
:101730005B08FA005A0884005B0885000008220054
:10174000B700403C0318AB2B37085A3C031CAB2BAB
:1017500037082038AC2B3708B7002030B900933059
:10176000B8003708BA00BC01210059082200BB00AC
:101770002000402279082100DF007808DE00DE0822
:10178000031DC52BDF080319482CFA015908F7007F
:10179000F71BFA032200B7007A08B800210061089D
:1017A0002200BA00210060082200B9003808BC00FD
:1017B0003708BB003A083C068039BE00BA1FE52B4B
:1017C000B909BA09B90A0319BA0ABC1FEC2BBB093B
:1017D000BC09BB0A0319BC0A1030BD00F701FA01AD
:1017E000BA0CB90C031CFA2B3B08F7070318FA0ACA
:1017F0003C08FA07FA0CF70CF90CF80CBD0BF02BAF
:10180000BE1F072CF809F909F80A0319F90A790823
:10181000B8007808B700933021005E02F70020304E
:101820005F3BFA00770822003707F8003808FA3DD6
:1018300078082100E0007A08E100DA0A0319DB0ADF
:101840005B08FA005A0884005B0885000008220043
:10185000B700403C0318332C37085A3C031C332C88
:1018600037082038342C3708B7002030B9009330BF
:10187000B8003708BA00BC01210059082200BB009B
:101880002000402279082100DF007808DE00BF2B0D
:101890005A085C02031D602C5B085D02031D602C6E
:1018A0005708580403195C2C570884005808850011
:1018B000550880005608813F0030F800F900702C70
:1018C0005708580403196C2C5708840058088500E1
:1018D0005A0880005B08813F6008F8006108F90041
:1018E0002000080021005608FA00550884007A08F4
:1018F00085000008D9005808FA00570884007A08C3
:101900008500000859020319DB2C5608FA00550817
:1019100084007A0885000008D9005908403C031863
:10192000952C59085A3C03189D2C5908603C031803
:10193000F12C59087A3C031CF12C5808FA0057087E
:1019400084007A0885000008D9005908403C031833
:10195000AD2C59085A3C0318B52C5908603C0318A3
:10196000F12C59087A3C031CF12C5608FA00550852
:1019700084007A0885000008D9005808FA00570842
:1019800084007A0885002030000759020319DB2CF7
:101990005808FA00570884007A0885000008D90022
:1019A0005608FA00550884007A08850020300007A0
:1019B0005902031DF12C5608FA00550884007A08D4
:1019C00085008008031DE72C0030F800072D56081D
:1019D000FA005508D50A0319D60AD70A0319D80AF6
:1019E000732C5608FA005508840056088500000834
:1019F000D9005808FA0057088400580885000008E4
:101A000059020318052DFF30062D0130F800200083
:101A1000080080080319222D05082100CA000408C7
:101A2000C900000864002000111A182D2100122D91
:101A300023009A0021004A088500490884000131EA
:101A40002000092D0800D5080319592D0130550231
:101A5000F700F70DF70DFC30F705770869070B3E27
:101A6000F8002030FA000318FA0A78082100BF00B5
:101A70007A08C0003F088400400885000008C100C3
:101A80003F088400400885003E0841078000400868
:101A9000FA003F088400400885000008C2002000CA
:101AA00069082100C3004208C40080312000762765
:101AB0008831080020302100491E3030CA00480813
:101AC000F700C81F6B2DF709F70A7708C8002D30FB
:101AD000CA00C91749144808CE006430CF008031CD
:101AE00020001027883177082100C800303078079F
:101AF000CB004808CE000A30CF00803120001027EC
:101B00008831303077072100CD0030307807CC00A5
:101B10004A08F70030304B020319922DC914C91B33
:101B20004915A62D4A08CB002030CA0030304C029F
:101B300003199E2D4914C91BC914A62D031D491450
:101B4000031DA62D4B08CC002030CB004919AD2D2C
:101B5000C918B72D4918C12DCB2D4A0864002000A3
:101B6000111AB42D2100AE2D23009A0021004B083C
:101B700064002000111ABE2D2100B82D23009A0008
:101B800021004C0864002000111AC82D2100C22D2C
:101B900023009A0021004D0864002000111AD22D64
:101BA0002100CC2D23009A002000080001302100E4
:101BB000BF00C00180312000272688310C30210071
:101BC000BF000130C0008031200027268831053059
:101BD0002100BF000130C00080312000272688315D
:101BE00005302100BF000130C000803120002726D1
:101BF00088315308033980312D208831F800FA01EB
:101C00007808EC007A08ED006C086D0403190A2EC0
:101C10000000042E04302100BF000130C0008031DC
:101C2000200027268831080001302100BF00C001B4
:101C300080312000272688310C302100BF00013080
:101C4000C000803120002726883105302100BF00E8
:101C50000130C00080312000272688310530210066
:101C6000BF000130C0008031200027268831530892
:101C7000033980312D208831F80003302100C8005D
:101C80007808C90080312000D9278831ED01780813
:101C9000EC006C086D0403194F2E0000492E04302F
:101CA0002100BF000130C00080312000272688318C
:101CB0000800DC3021003C07BF001F30C0000318C3
:101CC000C00A40082300920021003F082300910031
:101CD000203085006D30840001302100C1004108B2
:101CE000F7000310230095171514000000001308D7
:101CF0008000840A910A0319920AF70B742E41306E
:101D0000910003309200031012302100C80080318E
:101D10002000B326883121003C08C9001B30CA00CE
:101D200080312000272788317B142100BE013E0826
:101D3000033C031CC32E3D08C039403A2000031960
:101D4000A52EC03A0319A72EA92ED625A92E1426F2
:101D5000A92E2100BD0DBD0DFC30BD05200053088E
:101D6000033980312D208831F800FA017808EC0021
:101D70007A08ED006C086D040319C02E0000BA2E1D
:101D80002100BE0A972E3C08093C031CD22E3C08B9
:101D9000043C031CCF2E20001426D12E210020004D
:101DA000D625210020005308033980312D208831A9
:101DB000F80003302100C8007808C90080312000F5
:101DC000D9278831ED017808EC006C086D040319FF
:101DD000EB2E0000E52E080001302100B300B20117
:101DE0003208023C031C262F34101E3032078400B8
:101DF000203085000318850A0008330503193414C0
:101E00003208803120003C2088312100B5000030AC
:101E100034180130F7003508C1007708C2000130DE
:101E2000C400C30180312000B72788312100350864
:101E3000C100C201C4018030C30080312000B72737
:101E4000883103102100B30DB20AF02E903120002A
:101E5000132F2100B2013208053C031C572F2930F3
:101E600032078400203085000318850A0008B3007B
:101E70003308BC00200059265308033980312D2037
:101E80008831F80007302100C8007808C900803187
:101E90002000D9278831ED017808EC006C086D042A
:101EA0000319542F00004E2F2100B20A2B2F90311E
:101EB0002000272F2100B2010130B300B70120001C
:101EC00052080F394F042100B6002000D60803192C
:101ED000752F2100360820005405031D752FD601EB
:101EE000D40101302100B70020002100B401B80165
:101EF0003808033C031C9C2F360833050319962F22
:101F0000213038078400203085000318850A000836
:101F1000B5003508200056020318972F2100350818
:101F2000B20001303807B4000130B70020000310C0
:101F30002100B30DB80A782FB7080319D22F7E30CD
:101F40002300910003309200031010302100C800DC
:101F500080312000B32688314F082100C9001B3092
:101F6000CA00803120002727883187302300910064
:101F700003309200031014302100C800803120008B
:101F8000B326883152082100C9001B30CA008031B5
:101F900020002727883121003408B90020000020C4
:101FA0007B142100B608031DD82F2000E81721005C
:101FB000903120002D2F2100B2013208093C031C72
:101FC000EB2F4E3032078400203085000318850A3D
:101FD0008001B20ADD2F2030A9004E30A8009031D8
:101FE0002000852FE13023009100033092008031E2
:0A1FF00020007F24883190318B2FF0
:1020000002307002F63E0318AC2A0A3EAD2A72086E
:10201000FF3C031D31280A306400111E0C282300E8
:102020009A000D3064002000111A1828230012288D
:1020300023009A0085017108840088312000092559
:10204000903120306400111E222823009A0072086B
:102050002100C9001B30CA008031200027279031A1
:10206000AA28710DF700F70DFC30F705770821005D
:10207000BE003E0A8031200036219031FA00210056
:102080003E0880312000362190312100BC007A08C2
:10209000BD003C0884003D0885007208800071087E
:1020A000F3000130F400533023009100043092001B
:1020B00003100A302100C80080312000B32690317F
:1020C000203085005A30840088310925903128302D
:1020D0006400111E682823009A0071082100C900BD
:1020E0001B30CA0080312000272790315A3023004E
:1020F000910004309200031405302100C8008031A3
:102100002000B326903172082100C9001B30CA009C
:10211000803120002727903121003D081F3C031803
:10212000A828FF3A031D98283C080A3C0318A82851
:102130003D08203C031CA828031DA2283C081A3C8B
:10214000031CA828BE0188312000232590312100DE
:102150007B142000AC2A710DF700F70DFC30F70559
:1021600077082100BC003C0A8031200036219031E4
:10217000FA0021003C0880312000362190312100F6
:10218000B9007A08BA007108F3000130F4002000A9
:10219000AC2A803197259031AC2A720BD3282100CC
:1021A0003B14D528200021003B1000303B180130A3
:1021B000BC00BD008031200012269031AC2A0130D5
:1021C0002100BE0088312000232590317B14AC2AE9
:1021D000FF302100BE0088312000232590317B1480
:1021E000AC2A8031D4249031803179269031A401F9
:1021F0008B1BA4178B1301302200C40080312000F8
:1022000090229031A41B8B1778082100C100BC01DB
:102210003C08283C031C9A293C08C8000630C90029
:1022200080312000D927903178082100C800C901E9
:102230004808CA00203085007230840049088407AD
:102240000030853D4A0880312000402090318000D8
:102250000038031930292100CA0AC90A1A292000A6
:1022600021003C0DF700F70DFC30F7057708C8009A
:10227000480A8031200036219031FA0021004808B8
:1022800080312000362190312100BF007A08C00043
:102290004008FA003F088400400885000008C80094
:1022A0005B3064002000111A5729210051292300B6
:1022B0009A0021003C08C9000130CA00803120008A
:1022C000272790315D306400111E632923009A0096
:1022D000203064002000111A6F292300692923008F
:1022E0009A00203085007230840088312000092552
:1022F000903120306400111E7A2923009A002100B9
:102300004808C9001B30CA008031200027279031BF
:102310000A306400111E892923009A000D306400E0
:102320002000111A952923008F2923009A002100EB
:10233000BC0A0829BB30230091000330920003102F
:1023400009302100C80080312000B32690314F08A9
:102350002100C9001B30CA0080312000272790319E
:10236000C030230091000330920003140D3021008F
:10237000C80080312000B326903152082100C900E6
:102380001B30CA008031200027279031293064009B
:10239000111EC72923009A00C93091000330920012
:1023A000031010302100C80080312000B326903186
:1023B00021004108C9001B30CA00803120002727B6
:1023C00090310A306400111EE22923009A000D307A
:1023D00064002000111AEE292300E82923009A0046
:1023E000D430910003309200803120007F2490315E
:1023F000240016141618FA2951302100C800803123
:1024000020009E2690312100BC013C08033C031CA7
:10241000572A3C08033C031D0F2ABD01112A013035
:10242000BD003D08F7002400151396159619162ACD
:1024300077189612771C96161616161A1D2A11086A
:10244000F80078082100BE003F30BE05DB302300D5
:10245000910003309200031005302100C800803144
:102460002000B326903121003C08C8001830C90074
:10247000883120005A25903129306400111E3D2AF0
:1024800023009A003D3064002000111A492A2300DD
:10249000432A23009A0021003E08C8001830C900D2
:1024A000883120005A2590312100BC0A052A2400D9
:1024B00016151619592A7B142000AC2A0100AC2AE3
:1024C00072080A3C031D662AF2016B2AF208031DFA
:1024D0006B2A0A30F20072080F392100BC003C0858
:1024E000BD003D08BF00C00180312000272690318B
:1024F0000C302100BF000130C000803120002726B1
:10250000903101302100BF00C0008031200027261B
:10251000903105302100BF000130C0008031200023
:1025200027269031ED011030EC006C086D04031982
:102530009B2A0000952A04302100BF000130C00012
:102540008031200027269031AC2A72082100BC007F
:10255000883120005926903108000A108A140A1187
:1025600082070728AB28C928CD28DF28E828F128CA
:102570005E2A602AA52A2100D501D60120308500D7
:1025800069308400550884070030853D5608803145
:102590002000EC219031800000380319D42A21005A
:1025A000D60AD50ABE2A200020302100D6003730B6
:1025B000D5002030D8006930D70088312000612153
:1025C000903179082100D4007808D300D308031D86
:1025D000EC2AD4080319062B5408D8005308D70056
:1025E0002030D6007530D500580885005708840083
:1025F0000008D90056088500550884005908800055
:1026000080080319062BD50AD70AF42AD601D5016A
:102610002030D8006930D700883120006121903106
:1026200079082100D4007808D300D308031D1B2BA0
:10263000D4080319352B5408D8005308D70020308C
:10264000D6005A30D5005808850057088400000885
:10265000D900560885005508840059088000800874
:102660000319352BD50AD70A232BD601D5012030E3
:10267000D8006930D7008831200061219031790875
:102680002100D4007808D300D308031D4A2BD408B6
:102690000319742B5408D8005308D7002030D600F3
:1026A0007130D50058088500570884000008D9000B
:1026B00056088500550884005908800080080319D1
:1026C000642BD50AD70A522B2030D6007130D500A2
:1026D000D801D7010A30D900883120006A22903110
:1026E0007808F200772B2100FF30F2002000210053
:1026F000D501D601203085007D308400550884073F
:102700000030853D560880312000F1219031800055
:1027100000380319902B2100D60AD50A7A2B200005
:1027200020302100D6007D30D5002030D800753013
:10273000D7008831200072249031F808031DA92B9E
:102740007208FF3C031DA72B0330F000A92B0230B9
:10275000F0002100D501D601203085007D308400B5
:10276000550884070030853D560880312000F62149
:102770009031800000380319C22B2100D60AD50AF7
:10278000AC2B200020302100D6007D30D500203039
:10279000D8007530D7008831200072249031F808B5
:1027A000031DD42B0430F0002100D501D6012030C8
:1027B00085007D308400550884070030853D56082B
:1027C00080312000FC219031800000380319ED2B6E
:1027D0002100D60AD50AD72B200020302100D600B0
:1027E0007D30D5002030D8007530D70088312000EA
:1027F00072249031F808031DFF2B0530F0002100F2
:10280000D501D601203085007D308400550884072D
:102810000030853D5608803120000522903180002F
:1028200000380319182C2100D60AD50A022C2000E2
:1028300020302100D6007D30D5002030D800753002
:10284000D7008831200072249031F808031D2A2C0B
:102850000830F0002100D501D601203085007D3000
:102860008400550884070030853D560880312000DB
:102870000D229031800000380319432C2100D60A24
:10288000D50A2D2C200020302100D6007D30D50027
:102890002030D8007530D700883120007224903164
:1028A000F808031D552C0930F0002100D501D60190
:1028B000203085007D308400550884070030853D38
:1028C000560880312000152290318000003803190D
:1028D0006E2C2100D60AD50A582C20002030210069
:1028E000D6007D30D5002030D8007530D700883133
:1028F000200072249031F808031D802C0A30F0006B
:102900002100D501D601203085007D308400550896
:1029100084070030853D5608803120001B2290310D
:10292000800000380319992C2100D60AD50A832C7F
:10293000200020302100D6007D30D5002030D80086
:102940007530D7008831200072249031F808031DBB
:10295000AB2C0B30F0002100D501D60120308500D2
:102960007D308400550884070030853D560880314D
:10297000200022229031800000380319C42C21004D
:10298000D60AD50AAE2C200020302100D6007D309A
:10299000D5002030D8007530D7008831200072244F
:1029A0009031F808031DD62C0630F0002100D50127
:1029B000D601203085007D30840055088407003022
:1029C000853D560880312000252290318000003856
:1029D0000319EF2C2100D60AD50AD92C200020306B
:1029E0002100D6007D30D5002030D8007530D700CA
:1029F0008831200072249031F808031D012D073022
:102A0000F000FF30F1002100B2013208283C031C25
:102A1000442D3208C8000630C90080312000D92773
:102A2000903178082100B900BA013908BB00203084
:102A30008500633084003A0884070030853D3B08F8
:102A400080312000402090318000003803192D2D66
:102A50002100BB0ABA0A172D200020302100D60021
:102A60005A30D5002030D8006330D700883120009C
:102A700072249031F808031D412D21003208F10025
:102A800020002100B20A052D7108FF3C031DAB2D6B
:102A90002030D6005A30D500D801D7010A30D900ED
:102AA000883120006A2290317808F2002100B901B3
:102AB000BA01203085006330840039088407003073
:102AC000853D3A0880312000DB21903180000038BC
:102AD00003196F2D2100BA0AB90A592D20002030A0
:102AE0002100D6005A30D5002030D8006330D700FE
:102AF0008831200072249031F808031D812D0130A7
:102B0000F2002100B901BA01203085006330840051
:102B1000390884070030853D3A0880312000E321E0
:102B200090318000003803199A2D2100BA0AB90AA1
:102B3000842D200020302100D6005A30D5002030CE
:102B4000D8006330D7008831200072249031F80813
:102B50000319F20121002000002090310B2FF20117
:102B6000F0012100B4010530B50034083502031C22
:102B7000DE2D3408093C031CDE2D38143408B70060
:102B800037083502031CDD2D4E3037078400203016
:102B900085000318850A00080F39B6004E30370744
:102BA0008400203085000318850A001E381036087E
:102BB0000C3C03193810B70AC02DDF2D3810003037
:102BC00038180130F800F8080319D32E20006E08D9
:102BD0000F392100B500C8000A30C900803120003B
:102BE000D927903178082100B40020006F080F39F0
:102BF00021003407B20020080F39B500C8000A30A0
:102C0000C90080312000D927903178082100B40014
:102C100021080F393407F00022080F39B500C80029
:102C20000A30C90080312000D9279031780821006E
:102C3000B40023080F393407F1000630B30033081D
:102C4000B40034080A3C031C3F2E4E303407840085
:102C5000203085000318850A001E3D2E4E303407B3
:102C60008400203085000318850A00080F390C3CC9
:102C700003193D2E0130B5003E2EB501402EB501A1
:102C80003508F800F80803195D2E7208C8000A30EC
:102C9000C90080312000D927903178082100B40084
:102CA0004E3033078400203085000318850A000861
:102CB0000F393407F200B30A1F2E70080A3A2000B9
:102CC0000319682E0E3A0319682E013A031D6A2E65
:102CD0007108F2004C3023009100033092008031E3
:102CE00020007F2490315A3023009100033092005D
:102CF00003100E302100C80080312000B32690312F
:102D000021003208C9001B30CA008031200027276B
:102D100090316330230091000330920003100E3095
:102D20002100C80080312000B326903170082100B6
:102D3000C9001B30CA0080312000272790316C3039
:102D4000230091000330920003100E302100C800D0
:102D500080312000B326903171082100C9001B305A
:102D6000CA00803120002727903175302300910060
:102D70000330920003100E302100C8008031200083
:102D8000B326903172082100C9001B30CA0080317F
:102D9000200027279031510821003202031DD32E35
:102DA0002000002021002000E8179031802F8501AD
:102DB00084011F3083057230210099008E150E1694
:102DC00024001710971097111330920028309500A7
:102DD000941714130C3023009B00A2309E009030F7
:102DE0009D002F0091019201980199019A01230001
:102DF0008C018D018F0190012200920191019401BB
:102E000093012000A501A6018831B3289031640008
:102E1000681C0F2FBB2A8031632490316810681D15
:102E2000232F8831EC2E9031F5080319192FF50363
:102E3000232F3C30F500F6080319202FF603232F2B
:102E400068161E30F600681E292F8831292F903110
:102E50006812E81C2F2F88315A2F9031E810681F14
:102E60007D2F5F30230091000430920080312000DC
:102E70007F2490312100B0013008093C031C682FE9
:102E80004E3030078400203085000318850A001E6C
:102E9000662F4E3030078400203085000318850AE5
:102EA00000080F39B100203064002000111A5A2F99
:102EB0002100542F23009A0021003108C9001B3043
:102EC000CA0080312000272790312100B00A3C2F12
:102ED0000A3064002000111A6F2F2100692F23008F
:102EE0009A000D3064002000111A782F2300722FF1
:102EF00023009A00200068137B14E81E812FAF2D59
:102F0000E812E81F872F8831DB2F9031E8137B1CF4
:0E2F10008D2F8831F22F90317B10072F630038
:083FB800AA346A345A3456346D
:103FC000553455349534A534A934AA346034953425
:103FD0009934943440345934A434553450346A34C8
:103FE00098346534A0349034A8346934A6346434E9
:103FF0005434803458345634683496349A34A53462
:020000040001F9
:04000E00FC0FFF1EC6
:00000001FF
;PIC16LF1937
;CRC=65AB  CREATED="02-May-13 11:12"
