:0600000098311E2F0000E4
:0800080083018031200077081C
:10001000A0007808A1007908A2007A08A3007B0854
:10002000A400230011082000A500230012082000CE
:10003000A600230013082000A700230014082000B6
:10004000A8008B1D25280B184B288B1E29280B195F
:100050004D28850191308400801E3028911A4F2848
:100060002008F7002108F8002208F9002308FA0008
:100070002408FB0025082300910020002608230007
:100080009200200027082300930020002808230066
:1000900094000900200080316B2B8031892B803146
:1000A0000B2B0B0060346134623463340B00643416
:1000B0006534803481340B007134753482340B0024
:1000C0006E346F3470340B00463420340F340134F6
:1000D000483420340F3403341034203420340334B3
:1000E00011342034203403341234203420340334C7
:1000F00013342034203403341434203420340334B3
:10010000153420342034033416342034203403349E
:10011000173420342034033418342034203403348A
:1001200019342034203403341A3420342034033476
:100130001B342034203403341C3420342034033462
:100140001D342034203403341E342034203403344E
:100150001F3420342034033420342034003401345C
:10016000213420340034013422342034003401346A
:10017000263420340134013427342034013401344E
:100180002834203401340134293420340434033435
:100190002A342034063403342B3420340634033418
:1001A0002C342034023403342D3420340E34033400
:1001B0002E3420340D3403342F3420340B340334E4
:1001C0003034203407340334493420343C3403348D
:1001D0004A34203412340334313420341F3403348D
:1001E000323420340E3403343334203402340334B4
:1001F000343420341B340334353420340E34033487
:10020000363420341134033437342034003403348A
:100210003834203403340334393420340334033481
:100220003A342034003403343B3420343234033441
:100230003C342034313403343D342034023403342C
:100240003E342034003403343F342034003403344B
:10025000403420340B34033441342034003403342C
:1002600042342034003403344B342034003403341B
:100270004C342034053403344F34203400340334F8
:1002800072340034003400346434203400340234D6
:100290000B0065346534703472346F346D3400345F
:1002A0000B00643465346634613475346C347434F2
:1002B00000340B00443454344D3446343A34003462
:1002C0000B0020342C343B340D3400340B007334D9
:1002D0006534743400340B0053344134563445349F
:1002E00000340B0052344534533454344F345234B8
:1002F000453400340B007334743461347434753411
:10030000733400340B007234653462346F346F34EC
:10031000743400340B00643400340B00693432341C
:10032000633400340B006D346F34723473346534CD
:1003300000340B002B3400340B002D3400340B0040
:100340006E3400340B00433450344F345434003492
:100350000B00613464346D3469346E3400344534D8
:100360004E34003400340034003450344F344C34B4
:1003700000340034003452343134473431340034E2
:10038000003452343134473432340034003452347F
:100390003134473433340034003452343134473448
:1003A000343400340034523432344734313400347D
:1003B000003452343234473432340034003452344E
:1003C0003234473433340034003452343234473416
:1003D000343400340034523433344734313400344C
:1003E000003452343334473432340034003452341D
:1003F00033344734333400340034523433344734E4
:10040000343400340034523434344734313400341A
:1004100000345234343447343234003400345234EB
:1004200034344734333400340034523434344734B1
:100430003434003400345834493431340034003416
:1004400000345834493432340034003400345834E1
:100450004934333400340034003458344F343134A8
:1004600000340034003458344F3432340034003413
:10047000003458344F3433340034003400345234B0
:100480003134503400340034003452343234503477
:1004900000340034003452343334503400340034E7
:1004A0000034523434345034003400340034523484
:1004B000313450345434543400345234323450349F
:1004C0005434543400345234333450345434543467
:1004D00000345234343450345434543400345334AB
:1004E00049344434003400340034543458344934EA
:1004F0004434003400344D345234533431340034F5
:1005000000344D34523453343234003400344D34DA
:10051000523453343334003400344D345234533471
:100520003434003400344D345234533435340034D0
:1005300000344D345234533436340034003458349B
:100540004F344F3431340034003458344F344F3446
:1005500032340034003458344F344F3433340034A0
:10056000003458344F34413431340034003458347A
:100570004F34413432340034003458344F34413431
:10058000333400340034583449344F343134003477
:100590000034583449344F34323400340034583441
:1005A00049344F34333400340034583449344134FE
:1005B0003134003400345834493441343234003456
:1005C0000034583449344134333400340034543422
:1005D000413449344C340034003454344F345434AE
:1005E0000034003400344C3454344F34003400347C
:1005F000003443344F345234003400340034433434
:1006000050344F34543400346400111E042B230042
:100610009A0020000800911E652B6400911E0D2B8E
:10062000230019082200E8006808083C031D402B3D
:10063000FE0803193A2BFE0352307E078400203057
:1006400085000318850A80010830200004231B3030
:1006500004235B306400111E2A2B23009A004B30C8
:1006600064002000111A362B2300302B23009A003F
:100670003E2B22000730200004232300672B22009A
:100680007E080F3C031C622B6808200004237E08B0
:10069000FE0A523E8400203085000318850A22009D
:1006A0006808800068080D3C03195E2B68082B3C25
:1006B00003195E2B68082D3C031D612B21003214A9
:1006C0002200662B07302000042322002300200094
:1006D000911280313028270016080F390319752B25
:1006E00021003215F03027009605161E7B2B2100C5
:1006F000671727001612161C822B2100E7143F30C3
:1007000027009605FF30160696050B108031200055
:1007100030282100350836040319932B35080319B6
:10072000B603B503992B3215B216E714B6011E3085
:10073000B500370838040319A12B37080319B8038B
:10074000B7030B11803120003028491943103A10AB
:10075000CE37A020C3252033F2376D10CC214400C2
:100760005B183B184800D027541DFE20C32500000D
:10077000C327521DA5392028542ABA127300D02746
:10078000541D00004122CD244E1F2000C327CD263A
:100790004127441F2000442A4D233D00D2204D1EF6
:1007A0003D00C5225029CF260001C634F236F7306D
:1007B000F2320000C5225029CF26BC1ED2204D00A7
:1007C000A121CB29D5262100A539A812F514201E78
:1007D0003D10A53A00002310502A5410D434ED32B5
:1007E000EF3AF4100A002310CC34EE35202A4F2AB9
:1007F0002105000010302100EF00EE016F086E02AD
:1008000003180C2C52306E0784002030850003182A
:10081000850A8001EE0AFE2BFE013210FF30C60071
:10082000C801F001200008000A3004230D30042321
:1008300008000B088B132300951715140000000007
:10084000891B8B1713087F3903196F2C2200DE00D8
:10085000230011082200DF00230012082200E0001C
:100860005E0864002000111A372C2200312C23006E
:100870009A0022005F0823009100220060082300F4
:1008800092000B088B139517151400000000891BAC
:100890008B17130D140D7F3903196F2C2200DE0006
:1008A000230011082200DF00230012082200E000CC
:1008B0005E0864002000111A5F2C2200592C2300CE
:1008C0009A0022005F0823009100220060082300A4
:1008D0009200910A0319920A2000192C230020008B
:1008E0000800220041088400420885000008C40076
:1008F00044087F3C031CC40A0310440D093A430713
:10090000C40041088400420885004408800020009B
:10091000080001302200BA00BB01BD0020001424F1
:10092000CE302300910003309200200019242200D1
:10093000360BA32CD130230091000330920020000D
:100940001924AA2C2200D5302300910003309200F4
:10095000200019242200B7013708383C031C092D58
:10096000370DF700F70DFC30F7057708C000400A97
:1009700020006320FA0022004008200063202200AB
:10098000B8007A08B900360BF52C370DF700F70DD3
:10099000FC30F7057708033E20006320F800781844
:1009A000D32C2200F52C22003B0823009100951344
:1009B000151413082200BE00380884003908850089
:1009C0003E0880003908FA0038088400390885009C
:1009D0000008C0002030C200BA30C1004008C30087
:1009E000200071242200BB0A072D370DF700F70DF8
:1009F000FC30F7057708023E20006320F800220053
:100A0000BC0038088400390885003C088000B70A1B
:100A1000AC2C360B152D3B082300910095131514B3
:100A2000130822003A02031DBD013D08F800200012
:100A3000080001302200BA00B701B6013608383C80
:100A4000031C772D360DF700F70DFC30F7057708FE
:100A5000BC003C0A20006320FA0022003C08200071
:100A600063202200B8007A08B900360DF700F70DB0
:100A7000FC30F7057708033E20006320F800781C5F
:100A8000742D220038088400390885000008BB0056
:100A900037082300910095131514130822003B0218
:100AA0000319692D0B08F7008B13370823009100F9
:100AB00022003B082300930095131515553096002E
:100AC000AA30960095149518632D151177088B049C
:100AD00022002030C200BA30C1003B08C300200011
:100AE00071242200B70A20002200B60A1E2D0B082E
:100AF000F7008B1337082300910022003A082300E7
:100B000093009513151555309600AA30960095144C
:100B10009518882D151177088B0420001424DA30DD
:100B200023009100033092002000192408002200C5
:100B30003508B60020008924F808031DAC2D1424C4
:100B4000E03023009100033092002000192422009D
:100B5000B6012000892419250800003021008F00EB
:100B60002200521050080F390139031D5214521837
:100B7000BB2D0F10BC2D0F14521050080F39023925
:100B8000031D52145218C62D8F10C72D8F145210EA
:100B900050080F390439031D52145218D12D0F116A
:100BA000D22D0F15521050080F390839031D521459
:100BB0005218DC2D8F11DD2D8F15D108031DE22D6C
:100BC0000F13E32D0F17E42D8F12E62D8F16E82D4E
:100BD0000F3021008F00200008000F3021008F000F
:100BE0002200C308031DF62D0F13F72D0F17000069
:100BF0000F12000020000F082200C4000F30C405AF
:100C00000F1600004408F800200008002400951387
:100C10002000911122006408240091000230951BED
:100C2000162E1419112E0030161B0130F80020006A
:100C300008002200480ECA00CA0DCA0DC030CA05FD
:100C400049083F39CA07240016141618252E5030BB
:100C50002200E40020000626780822004B107818B5
:100C60004B144B1C3D2E20001424B3302300910064
:100C7000033092002000192422004A08E4002000DA
:100C80000626240016151619432E200008002030D1
:100C90008500D8308400000803195F2E0230F80068
:100CA000BF30F7006400F70B522EF80B502E963031
:100CB000F700F70B592E5C2E6400800B4E2E0800B7
:100CC00022004E08F70003102300951715140000AA
:100CD0000000130880000131910A0319920AF70BF2
:100CE000662E2000080022004C08D000D101200010
:100CF000AD250C302200D0000130D1002000AD2500
:100D000022004D080138CF00D0000130D100200072
:100D1000AD2505302200D0000130D1002000AD25E6
:100D20002100B80122004E082100B700370838041E
:100D300003199C2E0000962E04302200D0000130B2
:100D4000D1002000AD25080001302200CC00043085
:100D5000CD000230CE002000732664000800013070
:100D60002200CC000430CD000630CE0020007326D7
:100D700064000800DB3022004807CC001F30CD00A3
:100D80000318CD0A4D082300920022004C082300CE
:100D9000910020308500C930840001302200CE004F
:100DA0002000602621006A142200CA014A08033C80
:100DB000031C002F4B144908C039403A2000031986
:100DC000E52EC03A0319E72EE92EA426EC2EAF2615
:100DD000EC2E22004B1020002200C90DC90DFC3062
:100DE000C9054B1CFE2E2100B8010230B7003708A0
:100DF00038040319FD2E0000F72E2200CA0AD62E51
:100E00004808093C031C0F2F4808043C031C0C2F06
:100E10002000AF260E2F22002000A4262200200052
:100E20000800220049080739F700490CF800F80CBF
:100E3000F80C1F30F80578084B07840000304C3D53
:100E40008500F801F80AF70A262FF80DF70B252F71
:100E5000CA0803192E2F78088004312FF809780862
:100E600080052000080021006C0885006B088400C4
:100E7000220060081A0080012100EB0A0319EC0A25
:100E8000200008000B088B13230095171514000091
:100E90000000891B8B170318752F13087F39220058
:100EA000C900230011082200CA00230012082200F2
:100EB000CB004908E0002000332722004A08230025
:100EC000910022004B08230092000B088B1395170A
:100ED000151400000000891B8B172200C80B712F0E
:100EE000732F2300752F982F2300130D140D7F39B6
:100EF0002200C900230011082200CA0023001208A2
:100F00002200CB004908E0002000332722004A08D5
:100F10002300910022004B0823009200910A03193C
:100F2000920A03102200C80B962F982F2000422F00
:100F30002000080080080319AE2F05082200C90010
:100F40000408C8000008E0002000332722004908F8
:100F5000850048088400013120009A2F08002200F3
:100F600062080438E300E40020000626220062083C
:100F7000FB39E300E40020000626080022005F0899
:100F8000F0390838E0005F0EF700F030F705770819
:100F9000F0390838E100DE080319D02F601461141D
:100FA0006008E2002000AF2722006108E200200074
:100FB000AF27080022006108F80160020318E32F40
:100FC0006008F700EF2FF7010830E200E00DF70DA1
:100FD000610877020318F700F80DE20BE62F2000F6
:100FE00008002100EA1CF62FFF30B300EA18FC2F9E
:100FF0006A19FC2F0030FD2F0130F8002000080096
:1010000024001614161802284E302200E400803105
:10101000200006268831780822005C1078185C14BD
:1010200058080339FC3E03184128043E2000932849
:101030002200DE018030DF0080312000BE278831B1
:10104000220041282200DE01C030DF008031200074
:10105000BE278831220041282200DE019430DF00C3
:1010600080312000BE278831220041282200DE0185
:10107000D430DF0080312000BE2788312200412893
:10108000220064005C1C58282100EA1D562880318B
:10109000200014248831A5302300910003309200F1
:1010A00080312000192488312100EA115A282200B9
:1010B0002100EA1522005A08FA00590884007A082B
:1010C0008500800803198D285A08FA005908840001
:1010D0007A08850000080D3C031989285A08FA008F
:1010E000590884007A08850000080A3C03198928F9
:1010F0005A08FA00590884005A0885000008DD00E3
:101100000130DE005D08DF0080312000BE2788311D
:101110002200D90A0319DA0A5B28240016151619C9
:101120008F28200008000A108A100A118207182848
:1011300022282C283628203022005B1E3030DC008C
:101140005A08F700DA1FAC28F709F70A7708DA001F
:101150002D30DC00DB175B145A08E0006430E1003E
:1011600080312000DA27883177082200DA00303019
:101170007807DD005A08E0000A30E10080312000E5
:10118000DA278831303077072200DF0030307807E7
:10119000DE005C08F70030305D020319D328DB1451
:1011A000DB1B5B15E7285C08DD002030DC003030FD
:1011B0005E020319DF285B14DB1BDB14E728031D29
:1011C0005B14031DE7285D08DE002030DD005B199D
:1011D000EE28DB18F5285B18FC2803295C08E000E2
:1011E000803120003327883122005D08E000803103
:1011F00020003327883122005E08E0008031200083
:101200003327883122005F08E00080312000332737
:101210008831080022005908DD005808DC005D080C
:10122000FA005C0884007A088500800803191C29EC
:10123000DC0A0319DD0A0F295B08FA005A0884004A
:101240007A0885008008031938295A0884005B0849
:1012500085000008E0005D0885005C0884006008E7
:101260008000DC0A0319DD0ADA0A0319DB0A1C29EB
:101270005C0884005D08850080015808F800590862
:10128000F90020000800800803195C2905082200E5
:10129000D9000408D800000864002000111A52295F
:1012A00022004C2923009A00220059088500580882
:1012B0008400013120004329080020302200CB00A7
:1012C000CC00CD00CE00CF01D001D101D201283019
:1012D000D8008031200047268831240016141618C3
:1012E0006F2951302200E400803120000626883129
:1012F00078082200CA107818CA14C8014808033CAC
:10130000031CBD294808033C031D88294A1089296C
:101310004A1400304A180130D8005808F700240059
:10132000151396159619922977189612771C96160A
:101330001616161A99291108F80078082200C90013
:101340003F30C905CF30480784002030850003189E
:10135000850A490880002100340803392200480228
:10136000031DBB29CB3048078400203085000318BB
:10137000850A2A308000C80A7E292400161516190D
:10138000BF2932302200D800803120004726883122
:1013900020302100EC007E30EB00BF3023009100B4
:1013A000033092000B088B139517151400000000F2
:1013B000891B8B1713087F3903191F2A2200D800B5
:1013C000230011082200D900230012082200DA00AD
:1013D0005808E00080312000332788312200590866
:1013E0002300910022005A08230092000B088B135F
:1013F0009517151400000000891B8B17130D140D91
:101400007F3903191F2A2200D80023001108220067
:10141000D900230012082200DA005808E0008031C9
:101420002000332788312200590823009100220030
:101430005A0823009200910A0319920AD229220025
:10144000C8014808033C031C5F2ACB3048078400CE
:10145000203085000318850A0008D800CF304807DF
:101460008400203085000318850A0008D900203048
:101470002100EC00D330EB0022005808E00080315E
:1014800020003327883122005908DA001830DB00A9
:1014900020009B2020302200E000803120003327F4
:1014A000883120302200D9007E30D8002030DB0087
:1014B000D330DA0020000A212200C80A212AD801EC
:1014C0002030DA007E30D900200000200D3064008A
:1014D000111E672A23009A00203085007E30840088
:1014E00020004321080030302200BC00BD00BE00B7
:1014F000BF00C001C100C200C300C400C50136085E
:10150000FC00B6080319952A013036022D3E8400EE
:10151000203085000318850A0008C80020006608EE
:10152000670522004805BB00DC2ABB012100671CBF
:10153000DD2A6710F508031DA02AF4080319DD2A27
:10154000640004302200C800FA30D8008031200046
:10155000472688312200C80BA42AF5080319C42A9B
:101560007508C80080312000BA268831F501640072
:1015700002302200C800FA30D8008031200047260F
:1015800088312200C80BBB2AF4080319DB2A74082F
:10159000C80080312000BA268831F401640002308E
:1015A0002200C800FA30D800803120004726883158
:1015B0002200C80BD22A6400210001302200BA00A8
:1015C000B7013708033C031C372BB608031DEB2A71
:1015D0004610C610FA2A013037073602031DF42AD6
:1015E00046143A08F600F52A4610C6103B083A059C
:1015F000031DC61437088031200051208831220095
:10160000C800003046180130F7004808C9007708C4
:10161000CA000130CC00CB01803120001127883175
:101620002200370880312000562088312200C8006F
:101630000030C6180130F7004808C9007708CA0012
:101640000130CC00CB0180312000112788312200ED
:10165000C61C332BC13037078400203085000318A7
:10166000850A313080000310BA0DB70AE12AB608A6
:10167000031D3C2BFD016A2B01303602293E8400FC
:10168000203085000318850A0008FD00B8013808DD
:10169000033C031C672B01303602F700F70DF70DF2
:1016A000FC30F70577083807103E840020308500AD
:1016B0000318850A0008B9003808C8003908C900AD
:1016C00080312000192688312200B80A472B2100DA
:1016D0006A14220001303602BC3E840020308500AE
:1016E0000318850A3130800020302100EC007E3064
:1016F000EB00B83023009100033092000310043057
:101700002200C800803120004227883121006C0867
:1017100085006B088400800120308500BC30840087
:10172000803120009A278831BB302300910003309C
:101730009200031005302200C800803120004227AB
:10174000883121006C0885006B08840080012030FE
:101750008500C1308400803120009A278831013013
:101760002200D8002030DA007E30D900200000208E
:1017700032302200D80080312000472688315D2198
:1017800008002100EA102200C9080319CA2B210011
:10179000EA1422002100EA1CD22B0A30F500FF30A7
:1017A000B300D42B1830F5002000080024001614D4
:1017B0001618D82B4E302200E40080312000062677
:1017C000883130302200E20080312000AF2788319C
:1017D00030302200E20080312000AF2788313030E5
:1017E0002200E20080312000AF2788312030220023
:1017F000E20080312000AF2788312200DE012C304A
:10180000DF0080312000BE2788312200DE010C304D
:10181000DF0080312000BE2788312200DE01013048
:10182000DF0080312000BE2788312200DE01043035
:10183000DF0080312000BE278831240016151619DC
:101840001F2C200008008031FA23883122009201E9
:10185000910194019301173021009700B2103211C9
:101860002000E401F201F30121006710E712671381
:101870002000EE012100B901F601FD01FC01B401D7
:10188000FF308D0000308F00101090101011901557
:1018900091168B15CF302700940495048B151516DF
:1018A0001412C0308B0422008F138F160F160F13E3
:1018B0000130B500803120009725883122000F16B5
:1018C0008F160F13D0010130D10080312000AD25DB
:1018D00088312200D0010130D10080312000AD25B7
:1018E00088310C302200D0000130D100803120003E
:1018F000AD25883101302200D000D1008031200098
:10190000AD25883101302200C30080312000ED2553
:1019100088312100E7170F302000E7002100A101E6
:10192000A0016F3024008D00210095139D308E00A2
:1019300080308C00EE016E08033C031CAA2C6E085C
:101940002200C800C90180312000192688312100F9
:10195000EE0A9B2CB6011E30B5001508C0390738B9
:1019600095008B162200B601200073221D30210045
:10197000E9003B30E800B21332136A1420006B0810
:10198000F400F5012100ED016D08023C031CD22C8E
:1019900023306D078400203085000318850A8001FC
:1019A000ED0AC42CE7102000E5012200C901200047
:1019B000C12321006A11E5011E169E161E139E13F7
:1019C0001D141E109E101E11003023008C0090006C
:1019D00020308D0000308F003430F80021001D08C9
:1019E000833978049D002000D6239831512F21009F
:1019F000340803392200A1002000640872040F3962
:101A00002100EF0020008C1B112D2100B2116D0868
:101A1000083C0319B2156D08083C0318ED0A142D93
:101A200020002100ED01B21120009019232D21008A
:101A300032126E08083C031932166E08083C03186F
:101A4000EE0A262D20002100EE0132126508003A30
:101A500020000319322D103A0319382D1F3A0319AB
:101A6000492DBF2D2100B21D372D1030E500C12DAD
:101A700021009D149D183A2D1C0CE300E30C3F300F
:101A8000E3056308E4000F30E50020005D2121003C
:101A9000C12D2100EF0803197D2D9D149D184E2D99
:101AA0001C0CE300E30C3F30E30563083F3C2200DD
:101AB000A00021006408630203197D2D3408220070
:101AC000C8002008C90080312000192688315D2116
:101AD00001307C02F700F70DF70DFC30F7057708B1
:101AE00022002107103E8400203085000318850A5B
:101AF0002008800021006308E400321E862D01309A
:101B000034070339B40020005D212100B21D912D5E
:101B1000200090198E2D8031192588312100E50192
:101B20006A14E711360CFA00350CF900FA0CF90CBE
:101B3000FA0CF90C79082200A2002100E50803192B
:101B4000B22D35080439F700FA0177087A04031931
:101B5000B22DE71101303407220022020318B32D01
:101B60002100E71522002100E719BA2D22000C13ED
:101B7000BC2D210022000C172100C12D20002100C6
:101B8000E501640098312000552F220048084904DF
:101B90000319CE2D4908FA004808D32D20002B0840
:101BA000FA002A082200CC007A08CD004D08D100A6
:101BB0004C08D0004B08D3004A08D2005108D50089
:101BC0005008D4005508FA00540884007A088500AB
:101BD000800803191C2E5308D7005208D600570856
:101BE000FA00560884007A0885008008031D022E3A
:101BF00050085402F7005108553BFA007708F800E6
:101C0000242E142E5508FA00540884007A08850002
:101C10000008D8005708FA00560884007A088500A2
:101C2000000858020319182ED60A0319D70AEF2DF7
:101C3000D40A0319D50AE22D50085402F7005108BE
:101C4000553BFA007708F8007808CC070030CD3D06
:101C50004D08FA004C0884007A0885008008031DAE
:101C6000352E0030F800F900BF2E4D08D1004C0889
:101C7000D0004B08D3004A08D2005108D5005008C4
:101C8000D4005508FA00540884007A0885008008BA
:101C90000319762E5308D7005208D6005708FA00C9
:101CA000560884007A08850080080319722E5508AA
:101CB000FA00540884007A0885000008D800570804
:101CC000FA00560884007A08850000085802031DAF
:101CD0006E2E5408F8005508F900792ED60A03191B
:101CE000D70A4E2ED40A0319D50A412E0030F80027
:101CF000F9007908CF007808CE00CE08031D832EA6
:101D0000CF080319942E4E0884004F0885008001E7
:101D1000CE0A0319CF0A4F082000AB0022004E085C
:101D20002000AA00BA2E22004D08D1004C08D00095
:101D30005108D3005008D2005308FA00520884001A
:101D40007A08850080080319A92ED20A0319D30A3C
:101D50009C2E50085202F7005108533BFA007708B6
:101D6000F80078084C072000AA00003022004D3D02
:101D70002000AB0022004C08F8004D08F9002000BC
:101D80000800F701F80122004C0803104D18F7076E
:101D9000F70CF80CCD18F707F70CF80C4D19F707EE
:101DA000F70CF80CCD19F707F70CF80C4D1AF707DC
:101DB000F70CF80CCD1AF707F70CF80C4D1BF707CA
:101DC000F70CF80CCD1BF707F70CF80C20000800F7
:101DD0002200CA01CB014A08480784000030493D6F
:101DE0008500800803191D2F4A0848078400003029
:101DF000493D850000082F3C03181D2F4A0848075D
:101E000084000030493D85000008393C031C1D2F2B
:101E10004B08CC000A30CD002000C12678082200F3
:101E2000CC004A08480784000030493D8500303026
:101E300000024C07CB00CA0AEB2E4B08F80020002A
:101E400008002200CC014C08480784000030493DBE
:101E500085000008DF39CD004C084A0784000030B7
:101E60004B3D85000008DF394D02031D452F4C080E
:101E7000480784000030493D85008008031D432F3A
:101E80000030F800472FCC0A232F0130F800200043
:101E9000080010302200C900F701FA01C60CC50C79
:101EA000031C582F4708F7070318FA0A4808FA07CF
:101EB000FA0CF70CF90CF80CC90B4E2F2000080097
:101EC0002200C7014708053C031C8F2F4708430722
:101ED000F8000030443DFA007808C9007A08CA00CA
:101EE00047084507F8000030463DFA00780823000F
:101EF00091007A08920020308500CB3084000130B8
:101F00002200CE00803120006026883122004A085D
:101F10008500490884004B088000C70A622F200012
:101F20000800780822004408E0006430E1008031B5
:101F30002000DA27883177082200C4007808303082
:101F4000031DA92FC51CB72FC519B72F451A20305F
:101F5000AC2FC51145124514F8077808640020001D
:101F6000111AB42F2200AE2F23009A002200440839
:101F7000E0000A30E10080312000DA27883177085C
:101F80002200C40078083030031DCC2FC519D72F8C
:101F9000451CD72F451A2030F80778086400200028
:101FA000111AD42F2200CE2F23009A0022003030A5
:101FB000C407440864002000111AE02F2200DA2F21
:101FC00023009A002000080022003D080739F7008E
:101FD0003D0CF800F80CF80C1F30F80578083E07A7
:101FE000840000303F3D85000008F800F70AF92F13
:0E1FF000F80CF70BF82F0130F8052000080060
:102000002100340803392200BC00FC0803193D28D4
:1020100001307C02F700F70DF70DFC30F70577086B
:102020003C07103EB9002030BA000318BA0A39083C
:1020300084003A0885000008BB00390884003A088B
:10204000850038083B07800080312000F12790315F
:10205000F80803193C2822003A08FA0039088400DD
:102060003A0885000008BE003C08C8003E08C900C8
:1020700080312000192690312200883120005D2116
:1020800090310800780822003508E0006430E10053
:1020900080312000DA27903177082200B5007808D7
:1020A0003030031D5A28B61C6528B6196528361A23
:1020B00020305D28B61136123614F8077808E00093
:1020C000803120003327903122003508E0000A30AB
:1020D000E10080312000DA27903177082200B50036
:1020E00078083030031D7A28B6198228361C8228D9
:1020F000361A2030F8077808E000803120003327B6
:10210000903122003030B5073508E00080312000E2
:102110003327903108002100EA1CA1280A308031C1
:10212000200004239031803114249031C2302300E8
:102130009100033092008031200019249031B228A0
:1021400021000A3080312000042390318031142492
:102150009031C6302300910003309200803120007E
:1021600019249031080001302200B6008831200087
:102170007322903104302200B600FA30D80080314A
:102180002000472690312200B60BBD28B401340848
:10219000053C031CE72831303407840020308500DB
:1021A0000318850A0008B5003508C80080312000F2
:1021B000BA2690312100B8010630B700370838043C
:1021C0000319E4280000DE282200B40AC7280430DE
:1021D000B600FA30D8008031200047269031220026
:1021E000B60BE9282100B214200008008031142425
:1021F000903102307002F53E0318B72C0B3EB82C1C
:1022000021004708FF3C031D2329803120001424AE
:102210009031850121004608840088312000432147
:10222000903120306400111E122923009A002100F1
:1022300047082200C4001B30C500883120009127C8
:1022400090310F2A2100460DF700F70DFC30F705FD
:1022500077082200B800380A8031200063209031CE
:10226000FA002200380880312000632090312200DB
:10227000B4007A08B50080312000F1279031F808C9
:10228000031D51292100460DF700F70DFC30F7051D
:102290007708033E8031200063209031F800F81861
:1022A0005A29220034088400350885002100470897
:1022B00080002000220034088400350885000008D2
:1022C000B600803120001424903120308500783011
:1022D000840088314321903128306400111E6D291B
:1022E00023009A00210046082200C4001B30C500CC
:1022F0008831200091279031E6302300910003308F
:102300009200031405302200B8000B088B13230041
:102310009517151400000000891B8B170318BD29A1
:1023200013087F392200BA00230011082200BB00E5
:10233000230012082200BC003A0864002000111A91
:10234000A32922009D2923009A0022003B08230094
:10235000910022003C08230092000B088B13951774
:10236000151400000000891B8B172200B80BB92937
:10237000BB292300BD29E2292300130D140D7F3949
:102380002200BA00230011082200BB00230012081B
:102390002200BC003A0864002000111AD129220052
:1023A000CB2923009A0022003B0823009100220041
:1023B0003C0823009200910A0319920A031022009C
:1023C000B80B85293608C4001B30C50088312000B1
:1023D00091279031220035081F3C0318002AFF3A4C
:1023E000031DF62934080F3C0318002A3508203C49
:1023F000031C002A031D082A34081F3C0318082A5E
:102400003408643C031D0C2A3508203C031D0C2AAB
:10241000B80120000020220021006A142000B72CFF
:102420002100460DF700F70DFC30F7057708220074
:10243000B400340A8031200063209031FA00220079
:10244000340880312000632090312200A8007A08EF
:10245000A9000130FA00AF30B4007A08B500B70126
:10246000210046082200B6003708C6003608C5001D
:10247000C8010630C700883120004927903178080C
:1024800022003407AC007908353DAD002030C4008F
:10249000AE30C3002D08C6002C08C50088312000CE
:1024A0006027903122002908FA00280884002908B2
:1024B00085000008B40020302100EC007E30EB00E5
:1024C0005B302200E0008031200033279031210072
:1024D00046082200B5000130B600200042205D30E1
:1024E0002200E0008031200033279031203022008C
:1024F000E000803120003327903121006C088500F6
:102500006B088400800120308500AE30840080316B
:1025100020009A27903120302200E00080312000F6
:102520003327903122003408B5001B30B60020005C
:1025300042200A302200E000803120003327903111
:102540000D302200E00080312000332790318031AF
:1025500014249031203085007E308400883143215E
:10256000903102302200D8002030DA007E30D900CD
:1025700088312000002090318B20B72C8031F1274A
:102580009031F8080319C72A803119259031B72CEA
:102590002100470BCF2A22002A14D12A2100220031
:1025A0002A1080312000F1279031F8080319E22A1F
:1025B000003022002A180130B400B500803120001C
:1025C00097259031B72C210046080339B4004708FD
:1025D0002200B8002000002021006A142000B72C3F
:1025E000210046080339B400FF302200CC0021004E
:1025F00047082200CD0088312000C126903178089C
:102600002200B400B8002000002021006A1420003D
:10261000B72C1B308031042390315B306400111ED5
:102620000E2B23009A00323064002000111A1A2B5E
:102630002300142B23009A004A3064002000111A52
:10264000232B23001D2B23009A001B3080312000F8
:1026500004239031B0302300910003309200803188
:1026600020001924903101302200C3008031200065
:10267000ED25903178082200BB00BC01B501B40102
:10268000B508031D482C3408383C031C482C013085
:10269000FA00AF30C3007A08C4003508C600340819
:1026A000C500C8010630C700883120004927903195
:1026B000780822004307B7007908443DB80020306D
:1026C000C400BD30C3003808C6003708C5008831D3
:1026D0002000602790312200340DC300350DC40066
:1026E000C30DC40DFC30C3054408FA004308C500FF
:1026F000430A8031200063209031FA00220045080F
:1027000080312000632090312200B9007A08BA009D
:102710003A08FA00390884007A0885000008C300E6
:102720005B3064002000111A972B2200912B2300AC
:102730009A000B30840022003508C5003408C4001C
:102740000508CC000408CB00450EF038C700C707C9
:10275000E23EC800323ECA0045080F39C807C80724
:10276000CA07E93EC900C907C907440E0F39C9079E
:10277000CA07C90DCA0DCA09CA0D44080F39CA07CC
:10278000C70D0730C6000A30CA07C903031CC42B93
:10279000C907C803031CC82BC807C703031CCC2BDD
:1027A000C707C603031CD02B20308500C630840029
:1027B00007304B054B1384070030853D0408CA3CA5
:1027C000031DE62B0508203C03194B170008F700F2
:1027D000031DF22B4B1BF22B4B1A002CCB19F22BA7
:1027E0002030F52BCB154B123030F70777086400FB
:1027F0002000111AFD2B2200F72B23009A00220043
:1028000001314B1FDE2B5D3064002000111A0A2CB1
:102810002200042C23009A00203064002000111AAA
:10282000132C23000D2C23009A0020308500BD308E
:102830008400883120004321903120306400111E33
:102840001E2C23009A0022004308C4001B30C50040
:10285000883120009127903109306400111E2D2C01
:1028600023009A00220034080339C300C40143083E
:10287000033C031D432CC408031D432C803120005E
:102880001424903122006400B40A0319B50A402BC5
:10289000B6013608023C031C632C23303607840043
:1028A000203085000318850A000B612C0130F700E9
:1028B0003608F80003195F2CF735F80B5C2C770805
:1028C000BC07B60A492C0A3080312000042390311D
:1028D00080311424903188315D21903121006A14B7
:1028E0006A142000B72C21004608023A2000031980
:1028F000802C033A0319872C023A03198F2C912C50
:102900008031F1279031F808031D0100972C013028
:102910002200C90088312000C1239031972CB320B8
:10292000972C2200C90188312000C1239031B72C97
:1029300021004708003A20000319A22C013A03198C
:10294000A62CAE2C8831D6239031AE2C2200DE018D
:102950000130DF0080312000BE279031B72C2100EC
:1029600047082200C80080312000BA2690310800B4
:102970000A108A100A1582070029102ABE2AC82ABE
:10298000E32AF02A092B732CB72CAF2C982C2100AA
:10299000ED016D08023C031C032D23306D0722005E
:1029A000A2002030A3000318A30A21006D08803183
:1029B00020005F2090312200A400BD00BF01BE01B5
:1029C00088312000E42790317818F62C203021003F
:1029D0006D078400203085000318850A80080319DC
:1029E000F32C2000F62C0030F82C200001302100C0
:1029F0002200A40023088500220884002408800007
:102A00002100ED0AC92C98312000662F2100B21E4A
:102A1000A72D2000E5080319192D2100200F152DE1
:102A2000210F152D2000192D2100A00A0319A10A3C
:102A3000200021006715ED016D08033C031C4B2DA0
:102A400020006808F70021006D08F80003192B2DFD
:102A5000F736F80B282D771C3B2D0130F7006D0859
:102A6000F8000319362DF735F80B332D77082400BD
:102A70008D04482D21000130F7006D08F80003197E
:102A8000442DF735F80B412D7708FF3A24008D05CA
:102A90002100ED0A1C2D2000EC08031D522DED082D
:102AA00003198B2D6D082200C60020006C0822003F
:102AB000C500C8013C30C70088312000492790314B
:102AC0007908FA007A08210021020318692D2000F4
:102AD0008B2D031D712D780820020318712D200005
:102AE0008B2D2000EE08031D892D80311424903198
:102AF000EB30230091000330920080312000192434
:102B0000903121006A142200B6018831200073221E
:102B100090316508EE002100B908031DB903B30820
:102B20000319942DB3039D2DEA1C9D2D2200C9018C
:102B300088312000C123903121006400E808031986
:102B4000A32DE803A62D3B30E8003217B212321F46
:102B5000C92DE9080319AE2DE903B12DB2171D30B7
:102B6000E90032132000EF080319C82DF1080319FA
:102B7000BB2DF103C82D803114249031F330230094
:102B800091000330920080312000192490316610AA
:102B90002100B21FE32D20006A0803390319E12D3B
:102BA0006A080139031DE02D6A0802390319E12D75
:102BB0006A0EF7000F30F70577080F39660503191D
:102BC000B3202100B213983120006D2F640821003A
:102BD000ED0020000D0868060F39E30072081F3968
:102BE00063042100EE0073080F396E042000E40036
:102BF000640821006D020319012E0130F800032E34
:102C0000032E0030F80098312000752F013021008C
:102C1000ED002200A001200064082100EF00FD0863
:102C200003192B2E6F087605031D2B2EFD01F601CF
:102C300001302200A00021006F0820006605670512
:102C4000031D2A2E210067142000EB0803192A2EE9
:102C50006B08F40021002200A101A2012208033C1C
:102C6000031C722E21006F086D052200A3002000B6
:102C70006E08FF3A2200230503196C2E2000660817
:102C8000670521006D050319512E29302200220706
:102C90008400203085000318850A00082100EE001A
:102CA000532E0130EE006E087D0203186B2EFD08D6
:102CB000031D5C2E6E08FD00013022002207A100DA
:102CC0000130A0002000EE012100A101A0016D084B
:102CD0002000E5002100220003102100ED0D22005C
:102CE000A20A2E2EA0080319802E2108B6008831D2
:102CF0002000732290312200A00121006A142200DA
:102D00002100EF08031D892EE7172000E501EE01E1
:102D100021002000EF080319962E2100EF08031D63
:102D2000932E2000962E20006F08F1009831802FFE
:102D3000220033102330320784002030850003182E
:102D4000850A8008031D331431081F39B400310887
:102D5000F039F700770EB5000F30B50501303002BD
:102D6000FC3E0318F72E043E2000FA2E2200331CEE
:102D7000BE2E31082000E705C32E22003108FF3A9D
:102D80000F392000E7042200F72E2200331CCE2E3C
:102D90002100671422003108F400CF2EF401F72E31
:102DA00022003318D92E2100671422003108F400C4
:102DB000DA2EF401F72E2200331131082039031DD9
:102DC0003315003033190130B700003033180130AB
:102DD0003706F800B3107818B314B31CF22E340879
:102DE000F304F52E3408FF3AF305F72E220098314C
:102DF00020009A2D00000A148A140A15023E0318B6
:102E00008A0A8200B62ED02EC52EDB2E013022007B
:102E1000C30080312000ED25903178082100EE00BC
:102E20006E1D552F2200C30180312000ED25903109
:102E300078082100ED00E716ED08031D222F0A3067
:102E4000ED00262F6D080A3C0319ED016D080B3CBF
:102E50000319E7176D080C3C031D362F671644084D
:102E600084004508850000318016552F4508203C18
:102E7000031C552F031D402F4408733C031C552F82
:102E8000440884004508850000316D080F39F700BB
:102E9000F030000577048000440884004508850070
:102EA00000310016C40A0319C50A98312000902F7A
:102EB0002200A401A501203085007E308400240872
:102EC00084070030853D250880312000592190314C
:102ED000800000380319712F2200A50AA40A5B2F75
:102EE0002000803114249031CB3023009100033036
:102EF000920080312000192490312100ED016D08ED
:102F0000093C031CBE2F6A306D0784002030850009
:102F10000318850A001EBB2F6A306D07840020301D
:102F200085000318850A00080F39EE002030EC00F8
:102F30009F30EB006E082200DA001830DB00883189
:102F400020009B20903120302200D9007E30D80014
:102F50002030DB009F30DA00883120000A219031D8
:102F600021006E082200C4001B30C50088312000FB
:102F70009127903121006400ED0A7F2F80312000DD
:102F80001424903121006A1402302200D80020302D
:102F9000DA007E30D900883120000020903198314D
:102FA000982F2100ED016D08093C031CE12F6A30C8
:102FB0006D078400203085000318850A8001ED0A22
:102FC000D32F2030C5006A30C40098312000A82FCC
:1030000002302200D8002030DA005230D900883156
:10301000200000209831FF302100C600220030102F
:10302000A801C801C90120308500B33084004808D8
:1030300084070030853D49088031200060219831A7
:1030400080000038031929282200C90AC80A132859
:10305000200020302200C9005230C8002030CB00B0
:10306000B330CA0088312000C52598317908220084
:10307000B2007808B100B108031D4128B208031955
:103080004D28320885003108840020308700A830A0
:10309000860012001E00031D4928C901C801203006
:1030A000CB00B330CA0088312000C525983179089B
:1030B0002200B2007808B100B108031D6228B208EE
:1030C00003196E28320885003108840020308700FB
:1030D0007830860012001E00031D6A28C901C8014D
:1030E0002030CB00B330CA0088312000C52598318C
:1030F00079082200B2007808B100B108031D8328C6
:10310000B20803199C283208850031088400203059
:103110008700BB30860012001E00031D8B28203064
:10312000C900BB30C80088312000E82698317808F3
:103130002100C700A12822002100C701220030146D
:1031400021002200C801C90120308500BF30840061
:10315000480884070030853D4908803120006621F9
:103160009831800000380319BA282200C90AC80A19
:10317000A428200020302200C900BF30C800203021
:10318000CB00A830CA008831200021279831F808E8
:10319000031DD3282200301CD0280330F000D22891
:1031A0000230F00020002200C801C9012030850053
:1031B000BF308400480884070030853D49088031CD
:1031C00020006B219831800000380319EC28220080
:1031D000C90AC80AD628200020302200C900BF3002
:1031E000C8002030CB00A830CA0088312000212739
:1031F0009831F808031DFE280430F0002200C801B1
:10320000C90120308500BF308400480884070030A1
:10321000853D4908803120007121983180000038B7
:10322000031917292200C90AC80A012920002030E1
:103230002200C900BF30C8002030CB00A830CA002F
:103240008831200021279831F808031D29290530ED
:10325000F0002200C801C90120308500BF30840081
:10326000480884070030853D4908803120007A21D4
:10327000983180000038031942292200C90AC80A7F
:103280002C29200020302200C900BF30C800203087
:10329000CB00A830CA008831200021279831F808D7
:1032A000031D54290830F0002200C801C901203054
:1032B0008500BF308400480884070030853D4908F8
:1032C00080312000822198318000003803196D2957
:1032D0002200C90AC80A5729200020302200C9004C
:1032E000BF30C8002030CB00A830CA008831200091
:1032F00021279831F808031D83290930F000023096
:103300002100C60020002200C801C901203085002C
:10331000BF308400480884070030853D490880316B
:1033200020008A2198318000003803199C2922004E
:10333000C90AC80A8629200020302200C900BF30EF
:10334000C8002030CB00A830CA00883120002127D7
:103350009831F808031DD329F00120302200C9005C
:103360007830C80088312000E8269831780821009C
:10337000C70047080A3C031DBF29C701C429C70865
:10338000031DC4290A30C70047080F392200C800AE
:103390004808C9004908CC00CD011030CE0080316A
:1033A0002000732698312200C801C9012030850011
:1033B000BF308400480884070030853D49088031CB
:1033C00020008D219831800000380319EC2922005B
:1033D000C90AC80AD629200020302200C900BF30FF
:1033E000C8002030CB00A830CA0088312000212737
:1033F0009831F808031DFE290C30F0002200C801A6
:10340000C90120308500BF3084004808840700309F
:10341000853D490880312000922198318000003894
:103420000319172A2200C90AC80A012A20002030DD
:103430002200C900BF30C8002030CB00A830CA002D
:103440008831200021279831F808031D402A2030B8
:103450002200C9007830C80088312000E826983161
:1034600078082100C7004708243C031C3B2AC601FA
:103470000B30F0003F2A0930F0000330C600200076
:103480002200C801C90120308500BF3084004808EF
:1034900084070030853D490880312000992198310A
:1034A000800000380319592A2200C90AC80A432A91
:1034B000200020302200C900BF30C8002030CB00DF
:1034C000A830CA008831200021279831F808031D50
:1034D0006B2A0630F0002200C801C90120308500A7
:1034E000BF308400480884070030853D490880319A
:1034F00020009C219831800000380319842A220082
:10350000C90AC80A6E2A200020302200C900BF3034
:10351000C8002030CB00A830CA0088312000212705
:103520009831F808031D962A0730F0002200C801E0
:10353000C90120308500BF3084004808840700306E
:10354000853D4908803120009F2198318000003856
:103550000319AF2A2200C90AC80A992A200020307C
:103560002200C900BF30C8002030CB00A830CA00FC
:103570008831200021279831F808031DDF2A023006
:10358000F0000130210034070339C7002200C801D0
:10359000C901203085007830840048088407003055
:1035A000853D490880312000A221983180000038F3
:1035B0000319DF2A2200C90AC80AC92A20002200EA
:1035C000C801C90120308500BF3084004808840745
:1035D0000030853D490880312000A82198318000C5
:1035E00000380319F82A2200C90AC80AE22A200072
:1035F00020302200C900BF30C8002030CB00A830E6
:10360000CA008831200021279831F808031D182BA3
:1036100002302100EA060030EA1801302200C8001A
:10362000C90088312000C123983121006A1420008C
:103630002100EE01ED01EE08031D642B6D08383CFE
:10364000031C642B0130FA00AF302200A8007A0876
:10365000A90021006E082200C60021006D0822008A
:10366000C500C8010630C7008831200049279831BD
:10367000780822002807A0007908293DA100203001
:10368000C400A230C3002108C6002008C50088314C
:1036900020006027983120302200C9007830C8000F
:1036A0002030CB00A230CA00883120002127983179
:1036B000F808031D5F2B21006D08C60020002100C3
:1036C000ED0A0319EE0A1B2B4608FF3C031DCC2B09
:1036D00020302200C9007830C80088312000E82658
:1036E000983178082100C7002200A801A9012030E4
:1036F0008500A2308400280884070030853D290811
:1037000080312000482198318000003803198D2B2A
:103710002200A90AA80A772B200020302200C90025
:103720007830C8002030CB00A230CA008831200099
:1037300021279831F808031DA12B01302100C70073
:1037400020002200A801A90120308500A2308400B9
:10375000280884070030853D290880312000502149
:103760009831800000380319BA2B2200A90AA80A50
:10377000A42B200020302200C9007830C80020305F
:10378000CB00A230CA008831200021279831F808E8
:10379000031DCD2B2100C70120007008063C031932
:1037A000D52B7008073C031DDB2B01302100C7001F
:1037B0003408C600200021006A1590312000F62050
:1037C000983121006A11983120005B2F303022009F
:1037D000A000A100A200A301A400A500A600A701CB
:1037E0002030A8004130A9004430AA004D30AB0081
:1037F0004930AC004E30AD00AE012100ED016D0846
:10380000023C031C9E2D37306D078400203085005C
:103810000318850A0008EE003A306D078400203056
:1038200085000318850A0008EF006E082200B0002A
:1038300021006F082200B10021006D082200B200B3
:1038400031080F39B3003108F039F700770EB400B2
:103850000F30B4053008023A20000319362C013A23
:1038600003194F2C023A0319D92C332D263022008C
:1038700032078400203085000318850A3308233975
:10388000BE00BF013408BE06031D4B2CBF08031D3C
:103890004B2C00304C2C013080002000332D2200B6
:1038A0003510B51031082039031DB5143511310814
:1038B0001039031D3515B5113208BD002030BF0089
:1038C0009630BE0088312000E4279831781C762C91
:1038D000220035196D2C2000762C2100B908031D1B
:1038E000732C2000762C2200B51520002200351202
:1038F0000130B700B6013608033C031C9C2C370886
:1039000033050319982C3608803120005620983151
:103910002200BC00BD00BF01BE0188312000E427A9
:1039200098312200B5127818B516B51E982C3514AA
:103930000310B70DB60A7B2C351CB32C351DA42CF7
:103940003C302100B900220035163208C900013090
:10395000CA002030CC009630CB00803120001127E7
:103960009831C62C22003512B51935160030351A9B
:103970000130BC003208C9003C08CA002030CC002D
:103980009630CB008031200011279831263022005C
:1039900032078400203085000318850A0030351A6C
:1039A0000130BF000030B51801303F068000200014
:1039B000332D2200351331081039031D3517B51387
:1039C00020006E08FF3A630522003305031DB5177A
:1039D000381031082039031D3814B8103108403927
:1039E000031DB8143811381CFD2C2100B908031D23
:1039F000FB2C2200FD2C22003815B51F1F2DB81CF2
:103A0000172DB8112100A108031D0E2D2008053C1B
:103A1000031C0E2D2200381D102D21002200B81588
:103A2000B81D162D3C302100B90022001E2DB815FE
:103A3000381C1E2D3C302100B9002200222DB81167
:103A40003819B81526303207840020308500031855
:103A5000850A0030B8190130BF000030351B013035
:103A60003F068000200022002F10263021006D0725
:103A70008400203085000318850A8008031D432D2B
:103A800022002F1421006D08803120005B20983126
:103A90002200B00000302F180130F7003008C900B4
:103AA0007708CA000130CC00CB01803120001127FB
:103AB000983122002F18672DA43021006D07840053
:103AC000203085000318850A3130800022003D3007
:103AD00021006D078400203085000318850A000846
:103AE000EE0040306D078400203085000318850A01
:103AF0000008EF0023306D07840020308500031894
:103B0000850A000B8C2DA0306D07840020308500C5
:103B10000318850A313080006E082200B0002100B1
:103B20006F082200B10021006D082200B200903120
:103B30002000982E98312100ED0AFF2B2030EC0058
:103B40007E30EB0049302200E00080312000332736
:103B500098313A302200E00080312000332798313C
:103B600021006C0885006B088400800120308500EE
:103B7000A0308400803120009A2798312030220024
:103B8000E00080312000332798314F302200E000E0
:103B900080312000332798313A302200E000803114
:103BA00020003327983121006C0885006B088400C1
:103BB000800120308500A4308400803120009A27C5
:103BC00098312100EA1CF22D20302200D9007E30ED
:103BD000D8002030DB00A830DA00883120000A212C
:103BE0009831210003302200D8002030DA007E30E6
:103BF000D90088312000002098319831892F220087
:103C000020082102031C292E2008093C031C292E10
:103C100024142008A30023082102031C282E6A3044
:103C200023078400203085000318850A00080F3917
:103C3000A2006A3023078400203085000318850A1B
:103C4000001E241022080C3C03192410A30A0B2E7A
:103C50002A2E2410003024180130F800200008001B
:103C6000F0012100C7012200A0010330A1002000C3
:103C7000FF25F8080319E12E21003A080F39220028
:103C8000A100CC000A30CD0088312000C126983137
:103C900078082200A00021003B080F3922002007ED
:103CA0002100ED003C080F392200A100CC000A30B1
:103CB000CD0088312000C126983178082200A0006C
:103CC00021003D080F3922002007F0000430A00039
:103CD0000530A1002000FF25F8080319CD2E210092
:103CE0003E080F392200A100CC000A30CD008831F7
:103CF0002000C126983178082200A00021003F084A
:103D00000F39220020072100C6000630EE006E08A1
:103D10002200A00020080A3C031CA82E6A302007BD
:103D20008400203085000318850A001EA62E6A3004
:103D300020078400203085000318850A00080F3909
:103D40000C3C0319A62E0130A100A72EA101A92E1B
:103D5000A1012108F800F8080319CC2E210047081A
:103D60002200CC000A30CD0088312000C1269831D5
:103D700078082200A0006A3021006E0784002030FD
:103D800085000318850A00080F392200200721004A
:103D9000C700EE0A872E220020007008043A03199B
:103DA000D42E013A031DD82E21004608C70020005A
:103DB000690821006D02031DE22E90312000F620DB
:103DC000983121003A080F39F000EA1C1A2F22001E
:103DD000A001A1012000FF25F808031DF12E2100FC
:103DE0001A2F640070080E3A0319FD2E013A0319C8
:103DF000072F053A03190F2F162F01302100340722
:103E00000339B400883120005D219831162FFF302E
:103E10002200B8009031200000209831162F013088
:103E20002200B80090312000002098318031F12725
:103E300098312100E71798312000A02F723021001F
:103E400099008E150E162400171097109711133035
:103E50009200283095009417141323009F110C3002
:103E60009B00A2309E0090309D002100EA15EC01DD
:103E7000EB012F0091019201980199019A01230011
:103E80008C018D018F01900122009201910194011A
:103E900093012000AA01AB012100E6018831200036
:103EA000232C983164008831F72C98312100321C82
:103EB000602F200000288031FA2398312100321031
:103EC0006400E71C6A2F90312000C72C9831210034
:103ED000E710671590312000062D9831640021000D
:103EE000321D7B2F90312000E62D98312100B21039
:103EF0007818B2143211B21C852F90312000062E92
:103F0000983121006715B2106400671D8B2F2000C7
:103F1000E62B21006711671F932F90312000062F99
:103F2000983121006713E71E9C2F90312000582FF5
:103F300098312100E7126400671EA32F2000302E65
:103F4000210067126400E71FAB2F90312000D12FB2
:103F500098312100E7136A1CB42F903120008B2088
:0E3F6000983121006A1064002000522F630087
:0A3FB600AA346A345A3456345534E4
:103FC00055349534A534A934AA34603495349934E1
:103FD000943440345934A434553450346A349834C9
:103FE0006534A0349034A8346934A634643454342D
:103FF000803458345634683496349A34A5340034B6
:020000040001F9
:04000E00BC0FFF1E06
:00000001FF
;PIC16F1937
;CRC=0861  CREATED="02-Mar-26 08:23"
