:0600000098315B2C0000AA
:0800080083018A012000770842
:10001000A0007808A1007908A2007A08A3007B0854
:10002000A4008B1D15280B182B288B1E19280B19C3
:100030002D28850191308400801E2028911A2F28B8
:100040002008F7002108F8002208F9002308FA0028
:100050002408FB00090080313B2B8031A52B803127
:10006000C42A0B000234033406340A340B00603413
:100070006134623463340B00643465348034813419
:100080000B007134753482340B006E346F3470346D
:100090000B003D3420340F3401343F3420340F340E
:1000A00001340C342034203401340D342034203415
:1000B00001340E342034203401340F342034203401
:1000C00001341034203420340134113420342034ED
:1000D00001341234203420340134133420342034D9
:1000E00001341434203420340134153420342034C5
:1000F00001341634203420340134173420342034B1
:10010000013418342034203401341934203420349C
:1001100001341A342034203401341B342034203488
:1001200001341C342034003401341D3420340034B4
:1001300001341E342034003401341F3420340034A0
:10014000013420342034003401342134203400348C
:100150000134223420340234013423342034063470
:10016000013424342034063401342534203404345A
:100170000134263420340E340134273420340D3435
:100180000134283420340B3401342934203407342A
:1001900001344034203432340134423420340134C8
:1001A00001342A3420341F3401342B3420340E34EB
:1001B00001342C342034023401342D3420341B34E7
:1001C00001342E3420340E3401342F3420341134D1
:1001D00001343034203401340134313420340034DB
:1001E00001343234203400340134333420340634C2
:1001F00001343434203400340134353420340034B4
:10020000013436342034003401343734203400349F
:10021000013438342034003401343934203400348B
:1002200001343A342034003401343B342034003477
:100230000134413420340034003473340034003449
:1002400000340B0065346534703472346F346D34AF
:1002500000340B00643465346634613475346C34B6
:10026000743400340B0020343B340D3400340B0064
:1002700073346534743400340B00533441345634D1
:10028000453400340B0052344534533454344F3425
:100290005234453400340B00733474346134743494
:1002A0007534733400340B007234653462346F3447
:1002B0006F34743400340B00643474346D34663439
:1002C00000340B0069343234633400340B006D3475
:1002D0006F3472347334653400340B002B340034C3
:1002E0000B002D3400340B00443454344D34463468
:1002F0003A34003445344E34003400340034003491
:1003000050344F344C3400340034003452343134DF
:1003100047343134003400345234313447343234C9
:100320000034003452343134473433340034003430
:10033000523431344734343400340034523432349B
:100340004734313400340034523432344734323498
:1003500000340034523432344734333400340034FF
:100360005234323447343434003400345234333469
:100370004734313400340034523433344734323467
:1003800000340034523433344734333400340034CE
:100390005234333447343434003400345234343437
:1003A0004734313400340034523434344734323436
:1003B000003400345234343447343334003400349D
:1003C00052343434473434340034003458344934EB
:1003D0003134003400340034583449343234003479
:1003E0000034003458344934333400340034003499
:1003F00058344F34313400340034003458344F34DE
:10040000323400340034003458344F343334003440
:100410000034003452343134503400340034003469
:1004200052343234503400340034003452343334D3
:1004300050340034003400345234343450340034F6
:100440000034003452343134503454345434003491
:1004500052343234503454345434003452343334FB
:1004600050345434543400345234343450345434CA
:1004700054340034533449344434003400340034A8
:100480004D34523453344C34003400344D345234EF
:1004900053343134003400344D3452345334323414
:1004A000003400344D345234533433340034003487
:1004B0004D34523453343434003400344D345234D7
:1004C00053343534003400344D34523453343634DC
:1004D0000034003458344F344F3431340034003455
:1004E00058344F344F3432340034003458344F349D
:1004F0004F3433340034003458344F3441343134C1
:100500000034003458344F34413432340034003431
:1005100058344F344134333400340034583449347F
:100520004F34313400340034583449344F34323489
:1005300000340034583449344F34333400340034F8
:100540005834493441343134003400345834493457
:100550004134323400340034583449344134333473
:100560000034003443344F34523400340034003407
:10057000433450344F34543400346400111EBD2AC7
:1005800023009A0020000800911E182B6400911E81
:10059000C62A23001908A0002008083C031DF62ADB
:1005A000F1080319F12AF103473071078400203064
:1005B00085000318850A800108302000BD221B3009
:1005C000BD225B306400111EE22A23009A004B30EA
:1005D00064002000111AEE2A2300E82A23009A0062
:1005E000F52A07302000BD222300192B71080F3C8B
:1005F000031C152B20082000BD227108F10A473E7C
:100600008400203085000318850A2300200880001C
:1006100020080D3C0319132B20082B3C0319132B26
:1006200020082D3C03197214192B07302000BD221D
:10063000230020009112803120280F3021008F00EC
:100640002300A308031D282B22000F132A2B2300AD
:1006500022000F1700000F12000020000F082300D7
:10066000A4000F30A40522000F1600002300240868
:10067000F80020000800270016080F390319512B35
:1006800020005C082300A20020000D085F060F393F
:10069000DC005C0823002202031DF214F030270066
:1006A00096050B1CA12B01302300A30020001D2365
:1006B00078082300A100211D9F2BA30120001D23EA
:1006C00078082300A000F217A008031D6A2B0A3047
:1006D000A0006E2B20080A3C0319A00120080C3C46
:1006E000031D7C2B72172100350884003608850015
:1006F000003180169E2B230021003608203C031C6D
:100700009E2B031D872B3508643C031C9E2B35084C
:100710008400360885000031230020080F39F700D7
:10072000F030000577048000210035088400360889
:10073000850000310016B50A0319B60A2300270008
:1007400016120B10803120002028210027082804D1
:100750000319AF2B27080319A803A703B42BF2141E
:100760007215A8011E30A70029082A040319BC2B02
:1007700029080319AA03A9030B118031200020289E
:100780008A06D3326E32693767102532A0376E1071
:1007900049194314253229005B183B1848008A0682
:1007A000D332743A69376710D0377414A53A2910D8
:1007B000F437A01275008A06D3326E32693767109B
:1007C000ED37F23965103A10A53A0000C327521DE3
:1007D000A0127810502A541D303C253C0000D02730
:1007E000541D2532A01264102532A01264008A061E
:1007F0005039EF31E539F334EE332022D426461058
:10080000F332F13A6537E3323A008A062010D334E6
:10081000F432492220103A10A53A00018A0620102D
:10082000C337ED36613764103A10A53A00018A06E5
:1008300020104139E73AED326E3A3A10A53A0001FC
:100840008A062010D630EC3A651020103A10A53AEE
:1008500000008A062310C3275210D037723A731053
:100860003D10A53A3B10D32BA022ED3AEC30F432E8
:100870006410C32752103A10A53A00005B1AB71D46
:10088000331A6D050D296132E93720296538E530C5
:10089000F4327210C3376E3AF2376C366539A016EF
:1008A00020005B1AB71DB3186D2B45194C29530056
:1008B0005B1AB71D331A6D10A82129103218B1190F
:1008C0000A050D005B1AB01DB31B6D000A058D21D2
:1008D0004F29201DA0127510A822ED3AEC30F432F9
:1008E00064103A10A53A29008A06442A4D23A0290B
:1008F000F430F43A73103A10A53A8A0600018A06D9
:100900005429C926D027D429201D200020286F3A39
:10091000A812CC3AA91E253200000A058D21CF2647
:10092000CD204E223E1000008A064937693AE93050
:10093000EC34FA34EE332029C126203B6139E9300A
:100940006236E5392033F2376D10C5225029CF26A3
:1009500000018A064937693AE930EC34FA34EE335B
:100960002029C126203B6139E9306236E539A03BB8
:10097000693A6810E634F236F730F23220326533E5
:10098000E13A6C3A203B6136F53273008A06D33087
:10099000F634EE332029C126A0316F37E634E73A2A
:1009A000F230F4346F37A0346E10C5225029CF26B0
:1009B0002E008A0620104334E531EB39F536A03697
:1009C000E939ED30F43168172029E539F437F2348C
:1009D000EE3320326533E13A6C3A203B6136F53232
:1009E000731700008A064937693AE930EC34FA3067
:1009F000F4346F37A031EF367036653A65008A06F9
:100A0000D332743A69376710A539A812F514203A21
:100A10006F10A53A00008A062310502A5410D434CF
:100A2000ED32EF3AF4100A008A06442A4D233D00C5
:100A300010302100DF00DE015F085E0203182A2D5E
:100A400047305E078400203085000318850A800146
:100A5000DE0A1C2DF1017210FF30F400B701F00125
:100A6000200008000B082200AA008B132300951712
:100A700015140000000013087F390319822D22008D
:100A8000AB00230011082200AC0023001208220052
:100A9000AD002B0864002000111A502D22004A2DB1
:100AA00023009A0022002C082300910022002D0828
:100AB000230092009517151400000000130D140D6B
:100AC0007F390319822D2200AB0023001108220078
:100AD000AC00230012082200AD002B0864002000A7
:100AE000111A742D22006E2D23009A0022002C086A
:100AF0002300910022002D0823009200910A03197F
:100B0000920A372D2200AA1B8B17200008001B30E9
:100B1000BD225B306400111E8A2D23009A00323002
:100B200064002000111A962D2300902D23009A00B6
:100B30004A3064002000111A9F2D2300992D2300B4
:100B40009A001B302000BD22CC30230091000330DE
:100B5000920020003225080022002708840028087F
:100B600085000008AA002A087F3C031CAA0A03107B
:100B70002A0D093A2907AA002708840028088500B9
:100B80002A0880002000080001302200A100A201F4
:100B9000A40021006D0BD52D94302300910004306A
:100BA000920020003225DC2D2100A9302300910085
:100BB00004309200200032252100EE016E08353C01
:100BC000031C442E6E0DF700F70DFC30F705770877
:100BD0002200A600260A20004820FA00220026084B
:100BE000200048202100EF007A08F0006D0B2D2E28
:100BF0006E0DF700F70DFC30F7057708033E200077
:100C00004820F8007818062E21002D2E22002208F8
:100C1000230091009513151413082200A50021004C
:100C20006F08840070088500220025088000700885
:100C3000FA0021006F088400700885000008220077
:100C4000A6002030A800A130A7002608A900200097
:100C5000AC252200A20A412E21006E0DF700F70DEF
:100C6000FC30F7057708023E20004820F8002200FB
:100C7000A30021006F08840070088500220023086B
:100C800080002100EE0ADE2D6D0B522E220022087C
:100C90002300910095131514130822002102031D4F
:100CA000A401210022002408F800200008000130DF
:100CB0002200A1002100EE01ED016D08353C031C6E
:100CC000BA2E6D0DF700F70DFC30F70577082200FE
:100CD000A300230A20004820FA0022002308200055
:100CE00048202100EF007A08F0006D0DF700F70DA5
:100CF000FC30F7057708033E20004820F800781CF8
:100D0000B72E21006F0884007008850000082200BB
:100D1000A20021006E0823009100951315141308FA
:100D2000220022020319AC2E0B08F7008B132100BE
:100D30006E082300910022002208230093009513DF
:100D4000151555309600AA30960095149518A62EC4
:100D5000151177088B0422002030A800A130A700CD
:100D60002208A9002000AC252100EE0A2000210065
:100D7000ED0A5D2E0B08F7008B136E08230091001F
:100D80002200210823009300951315155530960075
:100D9000AA30960095149518CB2E151177088B0460
:100DA000C630910004309200200032250800210056
:100DB0006C08ED002000C425F808031DEB2ED93087
:100DC0002300910004309200200032252100ED0123
:100DD0002000C42557260800003021008F00220083
:100DE000251023080F390139031D25142518FA2E63
:100DF0000F10FB2E0F14251023080F390239031D85
:100E000025142518052F8F10062F8F142510230861
:100E10000F390439031D25142518102F0F11112F18
:100E20000F15251023080F390839031D251425181F
:100E30001B2F8F111C2F8F15A408031D212F0F139B
:100E4000222F0F17232F8F12252F8F16272F0F30AA
:100E500021008F00200008001B30BD223E302300FF
:100E6000910004309200200032251B30BD22513009
:100E70002300910004309200200032251B30BD2257
:100E800058302300910004309200200032251B309E
:100E9000BD226230230091000430920020003225F0
:100EA0000800240095132000911122002A08240034
:100EB00091000230951B632F2000911D5D2F0030A3
:100EC0002400161B0130F800200008000B08220047
:100ED000AB008B13230095171514000000000318B6
:100EE0009A2F13087F392200AC002300110822003A
:100EF000AD00230012082200AE002C086400200080
:100F0000111A842F22007E2F23009A0022002D0820
:100F10002300910022002E0823009200951715143B
:100F2000000000002200AA0B962F982F23009A2F72
:100F3000BF2F2300130D140D7F392200AC002300B6
:100F400011082200AD00230012082200AE002C0878
:100F500064002000111AAE2F2200A82F23009A004F
:100F600022002D082300910022002E082300920069
:100F7000910A0319920A03102200AA0B6A2FAB1BD5
:100F80008B172000080022003108F80130020318F6
:100F9000CC2F3008F700D82FF7010830B200B00D81
:100FA000F70D310877020318F700F80DB20BCF2FB9
:100FB0002000080022003108F700031023009517D5
:100FC00015140000000013088000840A910A031918
:100FD000920AF70BE02F2000080021005608850038
:100FE00055088400220026081A0080012100D50A35
:080FF0000319D60A20000800D5
:10100000780822002B08B0006430B1008031200045
:10101000C327883177082200AB0078083030031DE1
:101020001828AC1C2628AC1926282C1A20301B287E
:10103000AC112C122C14F807780864002000111A47
:10104000232822001D2823009A0022002B08B0002C
:101050000A30B10080312000C32788317708220090
:10106000AB0078083030031D3B28AC1946282C1CF7
:1010700046282C1A2030F807780864002000111A3E
:10108000432822003D2823009A0022003030AB077D
:101090002B0864002000111A4F2822004928230041
:1010A0009A00200008002200220EA400A40DA40D26
:1010B000C030A40523083F39A407240016141618CD
:1010C0005F2850302200AA0080312000512788314B
:1010D00022002408AA0080312000512788312400F2
:1010E000161516197128CF30230091000330920095
:1010F00003100E302200AA008031200066278831BC
:1011000022002208AB001B30AC0020000020D730AA
:101110002300910003309200031005302200AA0042
:10112000803120006627883122002308AB001B3065
:10113000AC0020000020080001302200A300A40120
:1011400080312000EC2688310C302200A3000130D1
:10115000A40080312000EC26883105302200A30055
:101160000130A40080312000EC26883105302200B7
:10117000A3000130A40080312000EC2688316208F1
:101180000339803131208831F800FA0178082100D4
:10119000A9007A08AA0029082A040319D128000006
:1011A000CB2804302200A3000130A40080312000AD
:1011B000EC2688310800F701F8012200230803100B
:1011C0002418F707F70CF80CA418F707F70CF80C1D
:1011D0002419F707F70CF80CA419F707F70CF80C0B
:1011E000241AF707F70CF80CA41AF707F70CF80CF9
:1011F000241BF707F70CF80CA41BF707F70CF80CE7
:101200002000080001302200A300A401803120004A
:10121000EC2688310C302200A3000130A40080317C
:101220002000EC26883105302200A3000130A40004
:1012300080312000EC26883105302200A3000130E7
:10124000A40080312000EC26883162080339803107
:1012500031208831F80003302200A3007808A40070
:101260002000DB202100AA017808A90029082A040F
:1012700003193C290000362904302200A300013064
:10128000A40080312000EC2688310800DC302200E8
:101290002007A3001F30A4000318A40A2408230079
:1012A0009200220023082300910020308500A13005
:1012B000840001302200B10080312000DA2788311B
:1012C000DB30230091000330920003101230220023
:1012D000AA00803120006627883122002008AB0058
:1012E0001B30AC00200000202100D4142200A201F9
:1012F0002208033C031CA5292108C039403A2000DC
:1013000003198629C03A031988298A299C208A2929
:1013100002218A292200A10DA10DFC30A105200087
:1013200062080339803131208831F800FA017808E9
:101330002100A9007A08AA0029082A040319A22971
:1013400000009C292200A20A78292008093C031CDD
:10135000B4292008043C031CB12920000221B32930
:10136000220020009C2022002000620803398031E6
:1013700031208831F80003302200A3007808A4004F
:101380002000DB202100AA017808A90029082A04EE
:101390000319CC290000C6292000080022002108DA
:1013A0000739F700210CF800F80CF80C1F30F8058D
:1013B0007808230784000030243D8500F801F80AEE
:1013C000F70AE329F80DF70BE229A2080319EB2924
:1013D00078088004EE29F8097808800520000800C4
:1013E0000B082200A1008B13230095171514000091
:1013F00000000318212A13087F392200A2002300CD
:1014000011082200A300230012082200A4002208D1
:10141000A60080312000ED27883122002308230018
:101420009100220024082300920095171514000053
:1014300000002200A00B1D2A1F2A2300212A432A74
:101440002300130D140D7F392200A2002300110880
:101450002200A300230012082200A4002208A600F4
:1014600080312000ED2788312200230823009100DD
:101470002200240823009200910A0319920A031003
:101480002200A00BF429A11B8B17200008002200CA
:10149000A11B5E2A0F30F700200EF7050A307702F5
:1014A0000318552A3030F707572A2108F70777081D
:1014B000A60080312000ED27883122000F30A005E2
:1014C0000A3020020318662A3030682AA113210846
:1014D000A0072008A60080312000ED2788310800F1
:1014E00003102200200D06396038A30024001614D2
:1014F0001618782A22002308AA00803120005127DC
:10150000883122002208FA00210884007A08850028
:10151000800803199D2A2208FA002108A10A03194C
:10152000A20A84007A0885000008A400AA0080317D
:10153000200051278831812A2200AA018031200011
:1015400051278831240016151619A42A20000800F6
:1015500020302200211E3030A2002008F700A01FFA
:10156000B92AF709F70A7708A0002D30A200A117C1
:1015700021142008B0006430B10080312000C3275E
:10158000883177082200A00030307807A3002008B7
:10159000B0000A30B10080312000C32788313030DC
:1015A00077072200A50030307807A4002208F70052
:1015B000303023020319E02AA114A11B2115F42ABB
:1015C0002208A3002030A200303024020319EC2AA4
:1015D0002114A11BA114F42A031D2114031DF42AB4
:1015E0002308A4002030A3002119FB2AA118022BF4
:1015F0002118092B102B2208A60080312000ED278E
:10160000883122002308A60080312000ED27883190
:1016100022002408A60080312000ED278831220016
:101620002508A60080312000ED2788310800210020
:10163000EB01EC01ED01EE0165082000E500210061
:10164000E5080319362B01306502263E8400203060
:1016500085000318850A00082200A00020005D080C
:101660005E05220020052100EA00412BEA01F21E5E
:10167000412BF212200063082200A0002000462126
:1016800021000130E900E6016608033C031CA52B9C
:10169000E508031D4E2B6F10EF10612B013066071C
:1016A0006502031D592B6F1469082000E4005B2BB1
:1016B00021006F1020002100EF106A086905031D4A
:1016C000EF14660880312000362088312200A00007
:1016D000003021006F180130F70022002008A1001F
:1016E0007708A2000130A400A3012000CE2122002F
:1016F0002008A100A201A4018030A3002000CE2177
:1017000021006608803120003B2088312200A000A3
:1017100000302100EF180130F70022002008A1005E
:101720007708A2000130A400A3012000CE212200EE
:101730002008A100A201A4018030A3002000CE2136
:1017400003102100E90DE60A442BE508031DAC2B2C
:101750002000E601E52B210001306502223E8400D5
:10176000203085000318850A00082000E6002100CB
:10177000E7016708033C031CE32B01306502F70017
:10178000F70DF70DFC30F705770867070C3E84006E
:10179000203085000318850A0008E8009B306707A1
:1017A0008400203085000318850A680880006708D7
:1017B0002200A200210068082200A300200053207C
:1017C0002100E70AB92BD414200020302100D600D4
:1017D0006D30D500E63023009100033092000310F5
:1017E00005302200A0002000F02121006508220021
:1017F000A0005730A10020004722E93023009100CB
:1018000003309200031407302200A0002000F021D2
:1018100021006A082200A0005730A10020004722C2
:1018200001302200A0002030A2006D30A100200075
:10183000702232302200A00020308500A0308400C9
:1018400000080319342C0230F800BF30F7006400A0
:10185000F70B272CF80B252C9630F700F70B2E2CC6
:10186000312C6400800B232C20302100D6006D30F9
:10187000D500EF30230091000330920003100430B4
:101880002200A0002000F02121006B082200A0000F
:101890001830A1002000A82220302200A6008031AC
:1018A0002000ED27883121006C082200A0001830AC
:1018B000A1002000A82220302200A60080312000B4
:1018C000ED27883121006D082200A0001830A1000A
:1018D0002000A82220302200A60080312000ED2721
:1018E000883121006E082200A0001830A1002000DD
:1018F000A8222200A0012030A2006D30A10020000B
:10190000702208008031182588312200920191014F
:101910009401930117302100970024008D012000CD
:10192000DC01F2120E30E300FC01F601E401E601F5
:10193000E501F301FF306600003021008F00101038
:1019400090101011901591168B150F3027009404EC
:1019500095048B1515161412C0308B0422008F13BA
:101960008F160F160F138031200087258831013024
:101970002100EC0080312000D726883122000F168C
:101980008F160F13A3010130A40080312000EC2634
:1019900088312200A3010130A40080312000EC2610
:1019A00088310C302200A3000130A40080312000D7
:1019B000EC26883101302200A300A40080312000F1
:1019C000EC268831A5018B1BA5178B130130230052
:1019D000A300803120001D238831A51B8B17210017
:1019E00054140F302000DE0080312C2788319D30C8
:1019F00067002200A201A301200053200130220031
:101A0000A200A3012000532002302200A200A30163
:101A10002000532003302200A200A3012000532005
:101A20002100A8013C30A7001508C03907389500EF
:101A30008B16E50120001723F230230091000430BB
:101A4000920080312000322588311E30FE003C306B
:101A5000FD007212F2112100D414983120008D2C57
:101A60002200340835040319392D3508FA003408EA
:101A70003E2D20002708FA0026082200B8007A0828
:101A8000B9003908BD003808BC003708BF00360867
:101A9000BE003D08C1003C08C0004108FA004008F3
:101AA00084007A08850080080319872D3F08C30049
:101AB0003E08C2004308FA00420884007A08850004
:101AC0008008031D6D2D3C084002F7003D08413B96
:101AD000FA007708F8008F2D7F2D4108FA004008A2
:101AE00084007A0885000008C4004308FA00420810
:101AF00084007A088500000844020319832DC20A75
:101B00000319C30A5A2DC00A0319C10A4D2D3C08F6
:101B10004002F7003D08413BFA007708F8007808DA
:101B2000B8070030B93D3908FA00380884007A084F
:101B300085008008031DA82D2000260884002708A2
:101B40008500203080000030F800F9000D2E2200C2
:101B50003908BD003808BC003708BF003608BE0091
:101B60003D08C1003C08C0004108FA00400884005C
:101B70007A08850080080319E92D3F08C3003E0854
:101B8000C2004308FA00420884007A0885008008F1
:101B90000319E52D4108FA00400884007A08850001
:101BA0000008C4004308FA00420884007A0885004F
:101BB00000084402031DE12D4008F8004108F90027
:101BC000EC2DC20A0319C30AC12DC00A0319C10AA8
:101BD000B42D0030F800F9007908BB007808BA008D
:101BE0003B08FA003A0884007A0885008008031947
:101BF000012E3A0884003B0885008001BA0A0319C7
:101C0000BB0A3B082000A70022003A082000A600DB
:101C100022003808F8003908F900200008002200E6
:101C20006908EC006808EE006708ED00EB08031D8A
:101C30001D2E6A08003C0318342E6E08FA006D0849
:101C400084007A0885006C080002031D2C2E6D08A4
:101C5000F8006E08F900372EED0A0319EE0A6A083B
:101C60000319EB03EA03162E0030F800F9002000F8
:101C7000080022003508FA00340884007A0885003C
:101C80000008B8003708FA00360884007A08850092
:101C9000000838020319A22E3508FA00340884001F
:101CA0007A0885000008B8003808403C03185C2E0C
:101CB00038085A3C0318642E3808603C0318B82EC4
:101CC00038087A3C031CB82E3708FA00360884001E
:101CD0007A0885000008B8003808403C0318742EC4
:101CE00038085A3C03187C2E3808603C0318B82E7C
:101CF00038087A3C031CB82E3508FA0034088400F2
:101D00007A0885000008B8003708FA003608840011
:101D10007A0885002030000738020319A22E370800
:101D2000FA00360884007A0885000008B8003508F3
:101D3000FA00340884007A08850020300007380251
:101D4000031DB82E3508FA00340884007A0885008F
:101D50008008031DAE2E0030F800CE2E3508FA00A4
:101D60003408B40A0319B50AB60A0319B70A3A2E99
:101D70003508FA0034088400350885000008B800EA
:101D80003708FA0036088400370885000008380252
:101D90000318CC2EFF30CD2E0130F80020000800B3
:101DA00010302200B000F701FA01AD0CAC0C031C9E
:101DB000DF2E2E08F7070318FA0A2F08FA07FA0C85
:101DC000F70CF90CF80CB00BD52E200008002200FF
:101DD000AE012E08053C031C102F2E082A07F80020
:101DE00000302B3DFA007808AF007A08B0002E08CA
:101DF0002C07F80000302D3DFA00780823009100F0
:101E00007A0892002200300885002F0884000130F3
:101E1000B10080312000DA2788312200AE0AE92E95
:101E200020000800800803192B2F05082200AC00B1
:101E30000408AB00000864002000111A212F2200C2
:101E40001B2F23009A0022002C0885002B088400F9
:101E500001312000122F0800E5080319632F01301B
:101E60006502F700F70DF70DFC30F70577087307EB
:101E70000C3EF8002030FA000318FA0A7808210016
:101E8000EE007A08EF006E0884006F0885000008F5
:101E90002200A00021006E0884006F0885006D08F4
:101EA00022002007800021006F08FA006E088400DD
:101EB0006F08850000082200A1007308A200210815
:101EC000A30020005320080005082200B3000408E6
:101ED000B2002C0EF038AE00AE07E23EAF00323E4C
:101EE000B1002C080F39AF07AF07B107E93EB000CA
:101EF000B007B0072B0E0F39B007B107B00DB10D09
:101F0000B109B10D2B080F39B107AE0D0730AD0087
:101F10000A30B107B003031C892FB007AF03031CBD
:101F20008D2FAF07AE03031C912FAE07AD03031C2B
:101F3000952F013085002D30840007303205321393
:101F4000840731300402031932170008F700031D1B
:101F5000B12F321BB12F321ABF2FB219B12F20303F
:101F6000B42FB21532123030F70777086400200022
:101F7000111ABC2F2200B62F23009A002200013133
:101F8000321FA12F20000800210067080739F70041
:101F9000670CF800F80CF80C1F30F8057808680793
:101FA00084000030693D85000008F800F70AD92F49
:101FB000F80CF70BD82F90312000472E2100DE01BE
:101FC0005E08093C031CEE2F5B305E078400203066
:101FD00085000318850A8001DE0AE02F2030B60054
:101FE0005B30B500983120007C2D8D3023009100AE
:101FF0000430920080312000322588319831842DC0
:102000002200C001BF013030C2003130C300323085
:10201000C4003330C5003430C6003530C700363018
:10202000C8003730C9003830CA003930CB006130C1
:10203000CC006230CD006330CE006430CF0065301C
:10204000D0006630D1006730D2006830D3006930EC
:10205000D4006A30D5006B30D6006C30D7006D30BC
:10206000D8006E30D9006F30DA007030DB0071308C
:10207000DC007330DD007430DE007530DF00763058
:10208000E0007730E1007830E2007930E3007A3028
:10209000E400E5013508BA003408B9003A08FA004E
:1020A000390884007A0885000008203C031D5C285C
:1020B000B90A0319BA0A4E283A08FA003908840006
:1020C0003A08850000082D3C031970283A08FA00E8
:1020D000390884003A08850000082B3C031D7B2842
:1020E0003A08FA003908B90A0319BA0A84007A08CA
:1020F000850000087C282B30C10041082D3C0319C5
:102100008C28B81B8C28380B86288C28B81B8E2866
:102110003808243C03188E28D7291A29B80803192F
:10212000E3283808103C031DB5283A08FA0039089E
:1021300084007A0885000008303C031DB528390862
:1021400084003A08850001310008783C0319B12861
:10215000390884003A08850001310008583C031D05
:10216000B5280230B9070030BA3D3808083C031DD5
:10217000C7283A08FA00390884007A088500000860
:10218000303C031DC7280130B9070030BA3D38087C
:10219000023C031DE2283A08FA00390884007A0854
:1021A00085000008303C031DE228390884003A0805
:1021B000850001310008623C031DE2280230B907A6
:1021C0000030BA3D1A293A08FA00390884007A0822
:1021D00085000008303C0319F0280A30B8001A299D
:1021E000390884003A08850001310008783C031959
:1021F0000229390884003A08850001310008583C5A
:10220000031D09291030B8000230B9070030BA3D6B
:102210001A29390884003A08850001310008623C17
:10222000031D18290230B800B9070030BA3D1A2939
:102230000830B8003A08BC003908BB003A08FA0078
:10224000390884007A0885000008303C031D2C29D9
:10225000B90A0319BA0A1E293A08FA003908840093
:102260003A0885000008E600403C03183E2966084D
:102270005A3C031C3E29660820383F296608E600C0
:102280002030E800C230E7006608E900EB013808BA
:10229000EA00883120000F26903179082200BE0024
:1022A0007808BD00BD08031D5829BE080319CF29B1
:1022B000FA013808F700F71BFA03E6007A08E7008E
:1022C0004008E9003F08E8006708EB006608EA00FC
:1022D00069086B068039ED00E91F7329E809E909EF
:1022E000E80A0319E90AEB1F7A29EA09EB09EA0A65
:1022F0000319EB0A1030EC00F701FA01E90CE80CC5
:10230000031C88296A08F7070318FA0A6B08FA07FA
:10231000FA0CF70CF90CF80CEC0B7E29ED1F952943
:10232000F809F909F80A0319F90A7908E7007808A1
:10233000E600C2303D02F70020303E3BFA0077084D
:102340006607BF007A08673DC000B90A0319BA0AD8
:102350003A08FA00390884003A0885000008E600C7
:10236000403C0318BA2966085A3C031CBA2966087F
:102370002038BB296608E6002030E800C230E700BC
:102380006608E900EB013808EA00883120000F26D2
:10239000903179082200BE007808BD005229390822
:1023A0003B02031DE7293A083C02031DE7293608D2
:1023B00037040319E32936088400370885003408F8
:1023C00080003508813F0030F800F900F729360811
:1023D00037040319F32936088400370885003908C3
:1023E00080003A08813F3F08F8004008F9002000CB
:1023F0000800203022002B1E3030AC002A08F700E5
:10240000AA1F0A2AF709F70A7708AA002D30AC009C
:10241000AB172B142A08B0006430B10080312000C3
:10242000C327903177082200AA0030307807AD002A
:102430002A08B0000A30B10080312000C327903153
:10244000303077072200AF0030307807AE002C081C
:10245000F70030302D020319312AAB14AB1B2B15BA
:10246000452A2C08AD002030AC0030302E02031974
:102470003D2A2B14AB1BAB14452A031D2B14031D43
:10248000452A2D08AE002030AD002B194C2AAB1880
:10249000562A2B18602A6A2A2C0864002000111A78
:1024A000532A22004D2A23009A0022002D0864009E
:1024B0002000111A5D2A2200572A23009A002200C8
:1024C0002E0864002000111A672A2200612A2300C6
:1024D0009A0022002F0864002000111A712A22009D
:1024E0006B2A23009A002000080002307002F53E9B
:1024F00003189F2D0B3EA02D7508FF3C031DA62A37
:102500000A306400111E812A23009A000D306400F5
:102510002000111A8D2A2300872A23009A008501A2
:102520007408840088312000122790312030640024
:10253000111E972A23009A0075082200AB001B3059
:10254000AC0088312000002090311F2B740DF70063
:10255000F70DFC30F70577082100ED006D0A80319A
:10256000200048209031FA0021006D0880312000C1
:10257000482090312100EB007A08EC006B088400C1
:102580006C088500750880007408F6000130FC00B6
:10259000FF30230091000430920003100A30220023
:1025A000AA008031200066279031203085006730F6
:1025B000840088311227903128306400111EDD2AF2
:1025C00023009A0074082200AB001B30AC00883155
:1025D0002000002090310630230091000530920049
:1025E000031405302200AA008031200066279031B4
:1025F00075082200AB001B30AC00883120000020A1
:10260000903121006C081F3C03181D2BFF3A031D5D
:102610000D2B6B080B3C03181D2B6C08203C031C76
:102620001D2B031D172B6B081B3C031C1D2BED01E1
:10263000883120002C2790312100D41420009F2DB8
:10264000740DF700F70DFC30F70577082100EB005B
:102650006B0A8031200048209031FA0021006B087D
:1026600080312000482090312100E8007A08E900FC
:102670007408F6000130FC0020009F2D80315726A1
:1026800090319F2D750B482B21006A144A2B200096
:1026900021006A1000306A180130EB00EC00803134
:1026A0002000D72690319F2D01302100ED00883188
:1026B00020002C2790312100D41420009F2DFF30C2
:1026C0002100ED00883120002C2790312100D41406
:1026D00020009F2D80318725903180312C2790312B
:1026E000A5018B1BA5178B1301302300A30080319C
:1026F00020001D239031A51B8B1778082200A30012
:102700002100EC01EB01EC08031D312C6B08353C7A
:10271000031C312C0130FA007A302200AA007A081A
:10272000AB0021006C082200AD0021006B082200E4
:10273000AC00AF010630AE0088312000D0269031C9
:10274000780822002A072100EF00790822002B3D9B
:10275000F0002030AB00A430AA007008AD002100CA
:102760006F082200AC0088312000E726903121005C
:102770006B0D2200AA0021006C0D2200AB00AA0DF7
:10278000AB0DFC30AA052B08FA002A08AC002A0A77
:102790008031200048209031FA0022002C0880313E
:1027A0002000482090312200A1007A08A2002208CF
:1027B000FA0021088400220885000008AA005B3086
:1027C00064002000111AE62B2200E02B23009A005F
:1027D0000B30840021006C082200AC0021006B0843
:1027E0002200AB0088312000642790315D30640006
:1027F000111EF72B23009A00203064002000111ACC
:10280000032C2300FD2B23009A0020308500A430E8
:102810008400883120001227903120306400111E7E
:102820000E2C23009A0022002A08AB001B30AC00BB
:1028300088312000002090310A306400111E1D2CC8
:1028400023009A000D3064002000111A292C230067
:10285000232C23009A0064002100EB0A0319EC0AE0
:10286000832B66302300910004309200031009305E
:102870002200AA0080312000662790315C082200E7
:10288000AB001B30AC0088312000002090316B3051
:10289000230091000430920003140D302200AA009E
:1028A000803120006627903161082200AB001B3088
:1028B000AC00883120000020903129306400111EC6
:1028C0005E2C23009A0074309100043092000310B3
:1028D00010302200AA0080312000662790312200AB
:1028E0002308AB001B30AC00883120000020903161
:1028F0000A306400111E792C23009A000D30640008
:102900002000111A852C23007F2C23009A007F3091
:102910009100043092008031200032259031240053
:1029200016141618912C51302200AA008031200074
:10293000512790312100EC01EB01EC08031DFB2C29
:102940006B08033C031CFB2C6B08033C031DAD2CE4
:10295000EC08031DAD2CED01AF2C0130ED006D082E
:10296000F7002400151396159619B42C77189612B3
:10297000771C96161616161ABB2C1108F800780844
:102980002100EE003F30EE05863023009100043038
:102990009200031005302200AA0080312000662733
:1029A00090311030840021006C082200AC0021001E
:1029B0006B082200AB008831200064279031293059
:1029C0006400111EE02C23009A003D3064002000BA
:1029D000111AEC2C2300E62C23009A0021006E082B
:1029E0002200AA001830AB002000F9212100EB0AD8
:1029F0000319EC0A9D2C240016151619FD2C210034
:102A0000D41420009F2D01009F2D75080A3C031D42
:102A10000B2DF501102DF508031D102D0A30F500C2
:102A200075080F392100EB006B08EC006C082200E0
:102A3000A300A40180312000EC2690310C3022004C
:102A4000A3000130A40080312000EC269031013039
:102A50002200A300A40080312000EC269031053034
:102A60002200A3000130A40080312000EC26903128
:102A70002100AA011030A90029082A040319422DB7
:102A800000003C2D04302200A3000130A40080315E
:102A90002000EC2690319F2DC030230091000330A0
:102AA000920003100A302200AA008031200066271D
:102AB000903175082200AA001830AB002000F921DF
:102AC000C63023009100033092000310083022002A
:102AD000AA00803120006627903160302200AA00D1
:102AE0001830AB002000F92129306400111E752D2B
:102AF00023009A002400161416187C2D6030220042
:102B0000AA00803120005127903175082200AA00C8
:102B100080312000512790312200AA01803120000D
:102B200051279031240016151619942D20009F2D41
:102B300075082200A000883120004621903108004D
:102B40000A148A100A1582077C2A202B3E2B422B5E
:102B5000542B5F2B6A2B032D052D982D4C2D210016
:102B6000DE015E08023C031C6F2E30305E078400DD
:102B7000203085000318850A0008DF0033305E0727
:102B80008400203085000318850A0008E0005F08F3
:102B9000E2006008E3005E08E4006208013A2000F9
:102BA000031DE52D1F3021006407840020308500BF
:102BB0000318850A20005C0821006305031DE22D2F
:102BC0000030E32D013080002000210061101F3013
:102BD0005E078400203085000318850A80080319E9
:102BE00061145E0880312000402090312100E20015
:102BF000003061180130F70062082200A100770858
:102C0000A2000130A400A30188312000CE21903120
:102C1000210062082200A100A201A4018030A300CB
:102C200088312000CE219031363021005E078400AB
:102C3000203085000318850A0008DF0039305E0760
:102C40008400203085000318850A0008E0005F0832
:102C5000E2006008E3005E08E400640880312000C0
:102C6000442090312100E6002200A1000130A200A2
:102C7000A4018030A30088312000CE2190312100B2
:102C80006608E700E901E80188312000C42F90318F
:102C900021006510781865146208013A20000319B4
:102CA000552E033A0319632E6C2E2100651C5D2EF0
:102CB00063082000DE05622E21006308FF3A0F3909
:102CC0002000DE046C2E2100651C6B2EF2166308BA
:102CD0002000E300210020002100DE0AB12D2000A9
:102CE00008002100DE015E08053C031CA22E2A30EC
:102CF0005E078400203085000318850A0008DF0085
:102D00005F082200A000883120004621903162082F
:102D10000339803131209031F80007302200A300C0
:102D20007808A40088312000DB2090312100AA011E
:102D30007808A90029082A040319A02E00009A2E59
:102D4000DE0A732E98312000D12C2100DE010130E3
:102D5000DF00E301200061080F395C042100E2007C
:102D60002000E6080319C52E210062082000640532
:102D7000031DC52EE601E40101302100E3006208D5
:102D800020005D055E050319F2162100E001E40153
:102D90006408033C031CF92E62085F050319F32E37
:102DA00020005D085E0521005F050319E12E223039
:102DB00064078400203085000318850A0008E100BC
:102DC000E32E0130E1006108200066020318F42EB2
:102DD00021006108DE0001306407E0000130E300FB
:102DE000D3002C30D200200003102100DF0DE40AB4
:102DF000C82EE3080319312F293023009100043035
:102E00009200031010302200AA00803120006627B3
:102E100090315C082200AB001B30AC0088312000F0
:102E200000209031323023009100043092000310D2
:102E300014302200AA0080312000662790316108FA
:102E40002200AB001B30AC00883120000020903104
:102E500021006008E500883120001723903121000F
:102E6000D414E2080319541498312000D82C2100FE
:102E70005F08E3005E08E2006308FA00620884006D
:102E80007A08850080080319492FE20A0319E30A2A
:102E90003C2F6108FA00600884007A0885008008E9
:102EA0000319652F60088400610885000008E600AA
:102EB000630885006208840066088000E20A03193E
:102EC000E30AE00A0319E10A492F62088400630853
:102ED000850080015E08F8005F08F9009831200045
:022EE0003B2D88
:103000002200B401B50120308500983084003408D6
:1030100084070030853D3508803120003221983109
:1030200080000038031919282200B50AB40A0328C1
:10303000200020302200B5004730B4002030B70017
:103040009830B60088312000302598317908220068
:10305000B3007808B200B208031D3128B308031981
:103060004B283308B7003208B6002030B500A43032
:10307000B40037088500360884000008B800350819
:1030800085003408840038088000800803194B2824
:10309000B40AB60A3928B501B4012030B700983017
:1030A000B600883120003025983179082200B3001D
:1030B0007808B200B208031D6028B30803197A2803
:1030C0003308B7003208B6002030B5006730B400CE
:1030D00037088500360884000008B80035088500E8
:1030E0003408840038088000800803197A28B40A5C
:1030F000B60A6828B501B4012030B7009830B60090
:10310000883120003025983179082200B3007808F2
:10311000B200B208031D8F28B3080319B928330879
:10312000B7003208B6002030B500A030B400370830
:103130008500360884000008B8003508850034088A
:1031400084003808800080080319A928B40AB60A48
:1031500097282030B500A030B400B701B6010A307E
:10316000B80090312000002098317808F500BC2884
:103170002200FF30F50020002200B401B50120300C
:103180008500AC308400340884070030853D350864
:103190008031200037219831800000380319D5286C
:1031A0002200B50AB40ABF28200020302200B50052
:1031B000AC30B4002030B700A430B6008831200015
:1031C00039269831F808031DEE287508FF3C031DC9
:1031D000EC280330F000EE280230F0002200B401A9
:1031E000B50120308500AC308400340884070030FD
:1031F000853D3508803120003C2198318000003821
:10320000031907292200B50AB40AF128200020304A
:103210002200B500AC30B4002030B700A430B600B6
:103220008831200039269831F808031D1929043007
:10323000F0002200B401B50120308500AC308400DC
:10324000340884070030853D350880312000422154
:10325000983180000038031932292200B50AB40AD7
:103260001C29200020302200B500AC30B4002030F2
:10327000B700A430B6008831200039269831F8080C
:10328000031D44290530F0002200B401B5012030AF
:103290008500AC308400340884070030853D350853
:1032A000803120004B2198318000003803195D29BE
:1032B0002200B50AB40A4729200020302200B500B8
:1032C000AC30B4002030B700A430B6008831200004
:1032D00039269831F808031D6F290830F0002200C4
:1032E000B401B50120308500AC3084003408840777
:1032F0000030853D35088031200053219831800011
:103300000038031988292200B50AB40A722920005E
:1033100020302200B500AC30B4002030B700A4301B
:10332000B6008831200039269831F808031D9A2903
:103330000930F0002200B401B50120308500AC3026
:103340008400340884070030853D35088031200032
:103350005B219831800000380319B3292200B50A97
:10336000B40A9D29200020302200B500AC30B40002
:103370002030B700A430B6008831200039269831BB
:10338000F808031DC5290A30F0002200B401B50178
:1033900020308500AC308400340884070030853D3F
:1033A00035088031200061219831800000380319F0
:1033B000DE292200B50AB40AC829200020302200E4
:1033C000B500AC30B4002030B700A430B60088316E
:1033D000200039269831F808031DF0290C30F00040
:1033E0002200B401B50120308500AC3084003408DF
:1033F00084070030853D35088031200066219831F2
:10340000800000380319092A2200B50AB40AF329FA
:10341000200020302200B500AC30B4002030B700CE
:10342000A430B6008831200039269831F808031DF1
:103430001B2A0B30F0002200B401B50120308500BA
:10344000AC308400340884070030853D3508803175
:1034500020006D219831800000380319342A2200A1
:10346000B50AB40A1E2A200020302200B500AC3074
:10347000B4002030B700A430B600883120003926CF
:103480009831F808031D462A0630F0002200B401E6
:10349000B50120308500AC3084003408840700304A
:1034A000853D35088031200070219831800000383A
:1034B00003195F2A2200B50AB40A492A20002030E5
:1034C0002200B500AC30B4002030B700A430B60004
:1034D0008831200039269831F808031D712A0730F9
:1034E000F000FF30F4002100DF01DE01DF08031DE2
:1034F000C22A5E08353C031CC22A0130FA007A3029
:10350000E8007A08E9005F082200AD0021005E08AB
:103510002200AC00AF010630AE0088312000D0267A
:103520009831780821006807E0007908693DE100DA
:1035300020302200AB009230AA0021006108220056
:10354000AD00210060082200AC0088312000E72691
:10355000983120302200B5006730B4002030B70029
:103560009230B6008831200039269831F808031DC2
:10357000BD2A21005E08F40020002100DE0A0319A4
:10358000DF0A762A7408FF3C031D2A2B2030220014
:10359000B5006730B400B701B6010A30B800903109
:1035A0002000002098317808F5002100E801E901A9
:1035B0002030850092308400680884070030853D03
:1035C00069088031200021219831800000380319DA
:1035D000EE2A2100E90AE80AD82A20002030220039
:1035E000B5006730B4002030B7009230B6008831A3
:1035F000200039269831F808031D002B0130F50012
:103600002100E801E901203085009230840068083B
:1036100084070030853D69088031200029219831D8
:10362000800000380319192B2100E90AE80A032B4E
:10363000200020302200B5006730B4002030B700F1
:103640009230B6008831200039269831F8080319E5
:10365000F501210090312000752298319831922C8B
:10366000F501F0012100E0010530E1006008610290
:10367000031C5F2B6008093C031C5F2B641460086B
:10368000E30063086102031C5E2B5B306307840068
:10369000203085000318850A00080F39E2005B30EE
:1036A00063078400203085000318850A001E64101B
:1036B00062080C3C03196410E30A412B602B641070
:1036C000003064180130F800F8080319572C2B0853
:1036D0000F39E1002200A3000A30A4008831200045
:1036E000DB20983178082100E0002C080F396007B2
:1036F000DE002D080F39E1002200A3000A30A400EB
:1037000088312000DB20983178082100E0002E0865
:103710000F396007F0002F080F39E1002200A300E5
:103720000A30A40088312000DB209831780821007D
:10373000E00030080F396007F4000630DF005F0852
:10374000E00060080A3C031CBF2B5B30600784006C
:10375000203085000318850A001EBD2B5B306007F2
:103760008400203085000318850A00080F390C3CBE
:103770000319BD2B0130E100BE2BE101C02BE1019B
:103780006108F800F8080319DE2B75082200A30071
:103790000A30A40088312000DB209831780821000D
:1037A000E0005B305F078400203085000318850A45
:1037B00000080F396007F500DF0A9F2B70080A3AEE
:1037C00020000319E92B0E3A0319E92B013A031DD6
:1037D000EB2B7408F500F7302300910003309200C2
:1037E00080312000322598310530230091000430CB
:1037F000920003100E302200AA00803120006627BC
:10380000983121005E082200AB001B30AC008831EB
:103810002000002098310E302300910004309200E7
:1038200003100E302200AA00803120006627983154
:1038300070082200AB001B30AC0088312000002053
:1038400098311730230091000430920003100E309D
:103850002200AA00803120006627983174082200D7
:10386000AB001B30AC0088312000002098312030A4
:10387000230091000430920003100E302200AA00B1
:10388000803120006627983175082200AB001B307C
:10389000AC008831200000209831600821005E02D1
:1038A000031D572C903120007522983121005414AB
:1038B00098312000742D850184011F3083057230FA
:1038C000210099008E150E162400171097109711DD
:1038D0001330920028309500941714130C302300F5
:1038E0009B00A2309E0090309D002100D601D501A2
:1038F0002F0091019201980199019A0123008C01F6
:103900008D018F0190012200920191019401930198
:103910002000A601A7018831822C98316400721C16
:10392000962C002880311825983172106400721D81
:10393000CD2C9031AF259831210052085304031942
:10394000A62C52080319D303D203BB2C2000DC0899
:103950000319BC2C2100E501883120001723983180
:103960000B30230091000530920080312000322579
:1039700098312100D41420006400FD080319C22CE2
:10398000FD03CC2C3C30FD00FE080319C92CFE03BE
:10399000CC2C72161E30FE007211721ED42C903187
:1039A000712E983172126400F21CDE2C9031A52E1B
:1039B00098319031AF259831F2106400F21F712DCB
:1039C0002100DE01DF01203085006D3084005E08BB
:1039D00084070030853D5F088031200073219831D5
:1039E000800000380319F92C2100DF0ADE0AE32CDD
:1039F0002000143023009100053092008031200017
:103A0000322598312100D7015708093C031C502D5D
:103A10005B3057078400203085000318850A001E9C
:103A20004D2D5B3057078400203085000318850A30
:103A300000080F39D8002030D6008930D50058084A
:103A40002200A0001830A10088312000A82298315F
:103A500020302200A60080312000ED279831203050
:103A60002100DF006D30DE002030E1008930E00011
:103A700090312000372F983120306400111E3D2DE9
:103A800023009A00210058082200AB001B30AC0034
:103A9000883120000020983121006400D70A042DCD
:103AA0000A3064002000111A572D2100512D2300E7
:103AB0009A000D3064002000111A602D23005A2D49
:103AC00023009A00F2132100D41402302200A00037
:103AD0002030A2006D30A100883120007022983182
:103AE0006400721F762D302B721364002100541C69
:103AF0007F2D88312000DE2F983121005410D41CF6
:103B0000882D88312000F52F98312100D4106400D1
:063B100020008E2C630072
:083FB800AA346A345A3456346D
:103FC000553455349534A534A934AA346034953425
:103FD0009934943440345934A434553450346A34C8
:103FE00098346534A0349034A8346934A6346434E9
:103FF0005434803458345634683496349A34A53462
:020000040001F9
:04000E00FC0FFF1EC6
:00000001FF
;PIC16F1937
;CRC=A0C0  CREATED="06-Feb-15 15:25"
